{
  "contractName": "BmiDAIStaking",
  "abi": [
    {
      "inputs": [],
      "stateMutability": "nonpayable",
      "type": "constructor"
    },
    {
      "anonymous": false,
      "inputs": [
        {
          "indexed": true,
          "internalType": "address",
          "name": "account",
          "type": "address"
        },
        {
          "indexed": true,
          "internalType": "address",
          "name": "operator",
          "type": "address"
        },
        {
          "indexed": false,
          "internalType": "bool",
          "name": "approved",
          "type": "bool"
        }
      ],
      "name": "ApprovalForAll",
      "type": "event"
    },
    {
      "anonymous": false,
      "inputs": [
        {
          "indexed": true,
          "internalType": "address",
          "name": "operator",
          "type": "address"
        },
        {
          "indexed": true,
          "internalType": "address",
          "name": "from",
          "type": "address"
        },
        {
          "indexed": true,
          "internalType": "address",
          "name": "to",
          "type": "address"
        },
        {
          "indexed": false,
          "internalType": "uint256[]",
          "name": "ids",
          "type": "uint256[]"
        },
        {
          "indexed": false,
          "internalType": "uint256[]",
          "name": "values",
          "type": "uint256[]"
        }
      ],
      "name": "TransferBatch",
      "type": "event"
    },
    {
      "anonymous": false,
      "inputs": [
        {
          "indexed": true,
          "internalType": "address",
          "name": "operator",
          "type": "address"
        },
        {
          "indexed": true,
          "internalType": "address",
          "name": "from",
          "type": "address"
        },
        {
          "indexed": true,
          "internalType": "address",
          "name": "to",
          "type": "address"
        },
        {
          "indexed": false,
          "internalType": "uint256",
          "name": "id",
          "type": "uint256"
        },
        {
          "indexed": false,
          "internalType": "uint256",
          "name": "value",
          "type": "uint256"
        }
      ],
      "name": "TransferSingle",
      "type": "event"
    },
    {
      "anonymous": false,
      "inputs": [
        {
          "indexed": false,
          "internalType": "string",
          "name": "value",
          "type": "string"
        },
        {
          "indexed": true,
          "internalType": "uint256",
          "name": "id",
          "type": "uint256"
        }
      ],
      "name": "URI",
      "type": "event"
    },
    {
      "inputs": [
        {
          "internalType": "address",
          "name": "account",
          "type": "address"
        },
        {
          "internalType": "uint256",
          "name": "id",
          "type": "uint256"
        }
      ],
      "name": "balanceOf",
      "outputs": [
        {
          "internalType": "uint256",
          "name": "",
          "type": "uint256"
        }
      ],
      "stateMutability": "view",
      "type": "function"
    },
    {
      "inputs": [
        {
          "internalType": "address[]",
          "name": "accounts",
          "type": "address[]"
        },
        {
          "internalType": "uint256[]",
          "name": "ids",
          "type": "uint256[]"
        }
      ],
      "name": "balanceOfBatch",
      "outputs": [
        {
          "internalType": "uint256[]",
          "name": "",
          "type": "uint256[]"
        }
      ],
      "stateMutability": "view",
      "type": "function"
    },
    {
      "inputs": [
        {
          "internalType": "address",
          "name": "owner",
          "type": "address"
        }
      ],
      "name": "balanceOfNFT",
      "outputs": [
        {
          "internalType": "uint256",
          "name": "",
          "type": "uint256"
        }
      ],
      "stateMutability": "view",
      "type": "function"
    },
    {
      "inputs": [
        {
          "internalType": "address",
          "name": "account",
          "type": "address"
        },
        {
          "internalType": "address",
          "name": "operator",
          "type": "address"
        }
      ],
      "name": "isApprovedForAll",
      "outputs": [
        {
          "internalType": "bool",
          "name": "",
          "type": "bool"
        }
      ],
      "stateMutability": "view",
      "type": "function"
    },
    {
      "inputs": [
        {
          "internalType": "uint256",
          "name": "tokenId",
          "type": "uint256"
        }
      ],
      "name": "ownerOfNFT",
      "outputs": [
        {
          "internalType": "address",
          "name": "",
          "type": "address"
        }
      ],
      "stateMutability": "view",
      "type": "function"
    },
    {
      "inputs": [
        {
          "internalType": "address",
          "name": "from",
          "type": "address"
        },
        {
          "internalType": "address",
          "name": "to",
          "type": "address"
        },
        {
          "internalType": "uint256[]",
          "name": "ids",
          "type": "uint256[]"
        },
        {
          "internalType": "uint256[]",
          "name": "amounts",
          "type": "uint256[]"
        },
        {
          "internalType": "bytes",
          "name": "data",
          "type": "bytes"
        }
      ],
      "name": "safeBatchTransferFrom",
      "outputs": [],
      "stateMutability": "nonpayable",
      "type": "function"
    },
    {
      "inputs": [
        {
          "internalType": "address",
          "name": "from",
          "type": "address"
        },
        {
          "internalType": "address",
          "name": "to",
          "type": "address"
        },
        {
          "internalType": "uint256",
          "name": "id",
          "type": "uint256"
        },
        {
          "internalType": "uint256",
          "name": "amount",
          "type": "uint256"
        },
        {
          "internalType": "bytes",
          "name": "data",
          "type": "bytes"
        }
      ],
      "name": "safeTransferFrom",
      "outputs": [],
      "stateMutability": "nonpayable",
      "type": "function"
    },
    {
      "inputs": [
        {
          "internalType": "address",
          "name": "operator",
          "type": "address"
        },
        {
          "internalType": "bool",
          "name": "approved",
          "type": "bool"
        }
      ],
      "name": "setApprovalForAll",
      "outputs": [],
      "stateMutability": "nonpayable",
      "type": "function"
    },
    {
      "inputs": [
        {
          "internalType": "bytes4",
          "name": "interfaceId",
          "type": "bytes4"
        }
      ],
      "name": "supportsInterface",
      "outputs": [
        {
          "internalType": "bool",
          "name": "",
          "type": "bool"
        }
      ],
      "stateMutability": "view",
      "type": "function"
    },
    {
      "inputs": [
        {
          "internalType": "address",
          "name": "owner",
          "type": "address"
        },
        {
          "internalType": "uint256",
          "name": "index",
          "type": "uint256"
        }
      ],
      "name": "tokenOfOwnerByIndexNFT",
      "outputs": [
        {
          "internalType": "uint256",
          "name": "",
          "type": "uint256"
        }
      ],
      "stateMutability": "view",
      "type": "function"
    },
    {
      "inputs": [],
      "name": "totalSupply",
      "outputs": [
        {
          "internalType": "uint256",
          "name": "",
          "type": "uint256"
        }
      ],
      "stateMutability": "view",
      "type": "function"
    },
    {
      "inputs": [
        {
          "internalType": "uint256",
          "name": "",
          "type": "uint256"
        }
      ],
      "name": "uri",
      "outputs": [
        {
          "internalType": "string",
          "name": "",
          "type": "string"
        }
      ],
      "stateMutability": "view",
      "type": "function"
    },
    {
      "inputs": [
        {
          "internalType": "uint256",
          "name": "_amount",
          "type": "uint256"
        },
        {
          "internalType": "address",
          "name": "_policyBookAddress",
          "type": "address"
        }
      ],
      "name": "stakeDAIx",
      "outputs": [],
      "stateMutability": "nonpayable",
      "type": "function"
    },
    {
      "inputs": [],
      "name": "withdrawProfit",
      "outputs": [],
      "stateMutability": "nonpayable",
      "type": "function"
    }
  ],
  "bytecode": "0x608060405260016009553480156200001657600080fd5b50604080516020810190915260008152620000386301ffc9a760e01b6200006e565b6200004381620000f3565b62000055636cdb3d1360e11b6200006e565b620000676303a24d0760e21b6200006e565b50620001b8565b6001600160e01b03198082161415620000ce576040805162461bcd60e51b815260206004820152601c60248201527f4552433136353a20696e76616c696420696e7465726661636520696400000000604482015290519081900360640190fd5b6001600160e01b0319166000908152602081905260409020805460ff19166001179055565b8051620001089060079060208401906200010c565b5050565b828054600181600116156101000203166002900490600052602060002090601f0160209004810192826200014457600085556200018f565b82601f106200015f57805160ff19168380011785556200018f565b828001600101855582156200018f579182015b828111156200018f57825182559160200191906001019062000172565b506200019d929150620001a1565b5090565b5b808211156200019d5760008155600101620001a2565b6125be80620001c86000396000f3fe608060405234801561001057600080fd5b50600436106100e95760003560e01c80634e1273f41161008c578063a22cb46511610066578063a22cb465146101e2578063e985e9c5146101f5578063f242432a14610208578063f5b100ea1461021b576100e9565b80634e1273f4146101a757806381927714146101c7578063959499b6146101da576100e9565b806318160ddd116100c857806318160ddd146101575780631dcb46f61461015f5780632d8a746e146101725780632eb2c2d614610192576100e9565b8062fdd58e146100ee57806301ffc9a7146101175780630e89341c14610137575b600080fd5b6101016100fc366004611b62565b61022e565b60405161010e919061237d565b60405180910390f35b61012a610125366004611c4c565b61028a565b60405161010e9190611e6f565b61014a610145366004611c84565b6102c5565b60405161010e9190611e7a565b61010161037b565b61010161016d366004611b62565b61038d565b610185610180366004611c84565b6103b6565b60405161010e9190611d79565b6101a56101a0366004611a1f565b6103de565b005b6101ba6101b5366004611b8b565b61065a565b60405161010e9190611e2e565b6101a56101d5366004611cb4565b61079a565b6101a5610852565b6101a56101f0366004611b28565b610854565b61012a6102033660046119ed565b610940565b6101a5610216366004611ac5565b61096e565b6101016102293660046119d3565b610b64565b60006001600160a01b03831661025f5760405162461bcd60e51b815260040161025690611f47565b60405180910390fd5b5060008181526001602090815260408083206001600160a01b03861684529091529020545b92915050565b7fffffffff00000000000000000000000000000000000000000000000000000000811660009081526020819052604090205460ff165b919050565b60078054604080516020601f60027fffffffffffffffffffffffffffffffffffffffffffffffffffffffffffffffff61010060018816150201909516949094049384018190048102820181019092528281526060939092909183018282801561036f5780601f106103445761010080835404028352916020019161036f565b820191906000526020600020905b81548152906001019060200180831161035257829003601f168201915b50505050509050919050565b60006103876005610ba9565b90505b90565b6001600160a01b03821660009081526004602052604081206103af9083610bb4565b9392505050565b6000610284826040518060600160405280602a8152602001612535602a913960059190610bc0565b81518351146103ff5760405162461bcd60e51b8152600401610256906122c3565b6001600160a01b0384166104255760405162461bcd60e51b815260040161025690612095565b61042d610bd5565b6001600160a01b0316856001600160a01b03161480610453575061045385610203610bd5565b61046f5760405162461bcd60e51b8152600401610256906120f2565b6000610479610bd5565b9050610489818787878787610652565b60005b84518110156105ec5760008582815181106104a357fe5b6020026020010151905060008583815181106104bb57fe5b602002602001015190506104ce82610bd9565b15610527576001600160a01b03891660009081526004602052604090206104f59083610be6565b506001600160a01b03881660009081526004602052604090206105189083610bf2565b506105256005838a610bfe565b505b61058a816040518060600160405280602a815260200161255f602a91396001600086815260200190815260200160002060008d6001600160a01b03166001600160a01b0316815260200190815260200160002054610c149092919063ffffffff16565b60008381526001602090815260408083206001600160a01b038e811685529252808320939093558a16815220546105c19082610cab565b60009283526001602081815260408086206001600160a01b038d16875290915290932055500161048c565b50846001600160a01b0316866001600160a01b0316826001600160a01b03167f4a39dc06d4c0dbc64b70af90fd698a233a518aa5d07e595d983b8c0526c8f7fb878760405161063c929190611e41565b60405180910390a4610652818787878787610d05565b505050505050565b6060815183511461067d5760405162461bcd60e51b815260040161025690612266565b6060835167ffffffffffffffff8111801561069757600080fd5b506040519080825280602002602001820160405280156106c1578160200160208202803683370190505b50905060005b84518110156107925760006001600160a01b03168582815181106106e757fe5b60200260200101516001600160a01b031614156107165760405162461bcd60e51b815260040161025690611fa4565b6001600085838151811061072657fe5b60200260200101518152602001908152602001600020600086838151811061074a57fe5b60200260200101516001600160a01b03166001600160a01b031681526020019081526020016000205482828151811061077f57fe5b60209081029190910101526001016106c7565b509392505050565b806001600160a01b03166370a082316107b1610bd5565b6040518263ffffffff1660e01b81526004016107cd9190611d79565b60206040518083038186803b1580156107e557600080fd5b505afa1580156107f9573d6000803e3d6000fd5b505050506040513d601f19601f8201168201806040525081019061081d9190611c9c565b82111561083c5760405162461bcd60e51b81526004016102569061205e565b61084e610847610bd5565b8383610e84565b5050565b565b816001600160a01b0316610866610bd5565b6001600160a01b0316141561088d5760405162461bcd60e51b815260040161025690612209565b806002600061089a610bd5565b6001600160a01b0390811682526020808301939093526040918201600090812091871680825291909352912080547fffffffffffffffffffffffffffffffffffffffffffffffffffffffffffffff0016921515929092179091556108fc610bd5565b6001600160a01b03167f17307eab39ab6107e8899845ad3d59bd9653f200f220920489ca2b5937696c31836040516109349190611e6f565b60405180910390a35050565b6001600160a01b03918216600090815260026020908152604080832093909416825291909152205460ff1690565b6001600160a01b0384166109945760405162461bcd60e51b815260040161025690612095565b61099c610bd5565b6001600160a01b0316856001600160a01b031614806109c257506109c285610203610bd5565b6109de5760405162461bcd60e51b815260040161025690612001565b60006109e8610bd5565b9050610a088187876109f988610fe8565b610a0288610fe8565b87610652565b610a1184610bd9565b15610a6a576001600160a01b0386166000908152600460205260409020610a389085610be6565b506001600160a01b0385166000908152600460205260409020610a5b9085610bf2565b50610a6860058587610bfe565b505b610ab1836040518060600160405280602a815260200161255f602a913960008781526001602090815260408083206001600160a01b038d1684529091529020549190610c14565b60008581526001602090815260408083206001600160a01b038b81168552925280832093909355871681522054610ae89084610cab565b60008581526001602090815260408083206001600160a01b03808b168086529190935292819020939093559151909188811691908416907fc3d58168c5ae7397731d063d5bbf3d657854427343f4c083240f7aacaa2d0f6290610b4e9089908990612386565b60405180910390a461065281878787878761102c565b60006001600160a01b038216610b8c5760405162461bcd60e51b815260040161025690611f47565b6001600160a01b0382166000908152600460205260409020610284905b600061028482611165565b60006103af8383611169565b6000610bcd8484846111cd565b949350505050565b3390565b600061028460058361125a565b60006103af8383611266565b60006103af838361134a565b6000610bcd84846001600160a01b038516611394565b60008184841115610ca35760405162461bcd60e51b81526004018080602001828103825283818151815260200191508051906020019080838360005b83811015610c68578181015183820152602001610c50565b50505050905090810190601f168015610c955780820380516001836020036101000a031916815260200191505b509250505060405180910390fd5b505050900390565b6000828201838110156103af576040805162461bcd60e51b815260206004820152601b60248201527f536166654d6174683a206164646974696f6e206f766572666c6f770000000000604482015290519081900360640190fd5b610d17846001600160a01b031661142b565b15610652576040517fbc197c810000000000000000000000000000000000000000000000000000000081526001600160a01b0385169063bc197c8190610d699089908990889088908890600401611d8d565b602060405180830381600087803b158015610d8357600080fd5b505af1925050508015610dd1575060408051601f3d9081017fffffffffffffffffffffffffffffffffffffffffffffffffffffffffffffffe0168201909252610dce91810190611c68565b60015b610e1a57610ddd6123dc565b80610de85750610e02565b8060405162461bcd60e51b81526004016102569190611e7a565b60405162461bcd60e51b815260040161025690611e8d565b7fffffffff0000000000000000000000000000000000000000000000000000000081167fbc197c810000000000000000000000000000000000000000000000000000000014610e7b5760405162461bcd60e51b815260040161025690611eea565b50505050505050565b6000610e8f84610b64565b90508260005b82811015610f44576000610ea9878361038d565b6000818152600860205260409020600201549091506001600160a01b0386811691161415610f3b57600860008281526020019081526020016000206001015483019250610ef887826001611431565b6000818152600860205260408120818155600181019190915560020180547fffffffffffffffffffffffff00000000000000000000000000000000000000001690555b50600101610e95565b50610f63856009546001604051806020016040528060008152506115a9565b6040805160608101825242815260208082019384526001600160a01b039586168284019081526009805460009081526008909352939091209151825592516001808301919091559251600290910180547fffffffffffffffffffffffff0000000000000000000000000000000000000000169190951617909355825401909155505050565b60408051600180825281830190925260609182919060208083019080368337019050509050828160008151811061101b57fe5b602090810291909101015292915050565b61103e846001600160a01b031661142b565b15610652576040517ff23a6e610000000000000000000000000000000000000000000000000000000081526001600160a01b0385169063f23a6e61906110909089908990889088908890600401611deb565b602060405180830381600087803b1580156110aa57600080fd5b505af19250505080156110f8575060408051601f3d9081017fffffffffffffffffffffffffffffffffffffffffffffffffffffffffffffffe01682019092526110f591810190611c68565b60015b61110457610ddd6123dc565b7fffffffff0000000000000000000000000000000000000000000000000000000081167ff23a6e610000000000000000000000000000000000000000000000000000000014610e7b5760405162461bcd60e51b815260040161025690611eea565b5490565b815460009082106111ab5760405162461bcd60e51b81526004018080602001828103825260228152602001806124ef6022913960400191505060405180910390fd5b8260000182815481106111ba57fe5b9060005260206000200154905092915050565b6000828152600184016020526040812054828161122b5760405162461bcd60e51b8152602060048201818152835160248401528351909283926044909101919085019080838360008315610c68578181015183820152602001610c50565b5084600001600182038154811061123e57fe5b9060005260206000209060020201600101549150509392505050565b60006103af838361173f565b600081815260018301602052604081205480156113405783547fffffffffffffffffffffffffffffffffffffffffffffffffffffffffffffffff80830191908101906000908790839081106112b757fe5b90600052602060002001549050808760000184815481106112d457fe5b60009182526020808320909101929092558281526001898101909252604090209084019055865487908061130457fe5b60019003818190600052602060002001600090559055866001016000878152602001908152602001600020600090556001945050505050610284565b6000915050610284565b6000611356838361173f565b61138c57508154600181810184556000848152602080822090930184905584548482528286019093526040902091909155610284565b506000610284565b6000828152600184016020526040812054806113f95750506040805180820182528381526020808201848152865460018181018955600089815284812095516002909302909501918255915190820155865486845281880190925292909120556103af565b8285600001600183038154811061140c57fe5b90600052602060002090600202016001018190555060009150506103af565b3b151590565b6001600160a01b0383166114575760405162461bcd60e51b81526004016102569061214f565b6000611461610bd5565b90506114918185600061147387610fe8565b61147c87610fe8565b60405180602001604052806000815250610652565b81156114c7576001600160a01b03841660009081526004602052604090206114b99084610be6565b506114c5600584611757565b505b61150e826040518060600160405280602481526020016125116024913960008681526001602090815260408083206001600160a01b038b1684529091529020549190610c14565b60008481526001602090815260408083206001600160a01b03891684528252808320939093558582526003905220546115479083611763565b6000848152600360205260408082209290925590516001600160a01b0386811691908416907fc3d58168c5ae7397731d063d5bbf3d657854427343f4c083240f7aacaa2d0f629061159b9088908890612386565b60405180910390a450505050565b6001600160a01b0384166115cf5760405162461bcd60e51b815260040161025690612320565b8115806115e257506115e083610bd9565b155b6115fe5760405162461bcd60e51b8152600401610256906121ac565b6000611608610bd5565b905061161a816000876109f988610fe8565b826001148015611630575061162e846117a5565b155b15611666576001600160a01b03851660009081526004602052604090206116579085610bf2565b5061166460058587610bfe565b505b60008481526001602090815260408083206001600160a01b03891684529091529020546116939084610cab565b60008581526001602090815260408083206001600160a01b038a1684528252808320939093558682526003905220546116cc9084610cab565b6000858152600360205260408082209290925590516001600160a01b038088169291908416907fc3d58168c5ae7397731d063d5bbf3d657854427343f4c083240f7aacaa2d0f62906117219089908990612386565b60405180910390a46117388160008787878761102c565b5050505050565b60009081526001919091016020526040902054151590565b60006103af83836117b9565b60006103af83836040518060400160405280601e81526020017f536166654d6174683a207375627472616374696f6e206f766572666c6f770000815250610c14565b600090815260036020526040902054151590565b600081815260018301602052604081205480156113405783547fffffffffffffffffffffffffffffffffffffffffffffffffffffffffffffffff808301919081019060009087908390811061180a57fe5b906000526020600020906002020190508087600001848154811061182a57fe5b60009182526020808320845460029093020191825560019384015491840191909155835482528983019052604090209084019055865487908061186957fe5b6000828152602080822060027fffffffffffffffffffffffffffffffffffffffffffffffffffffffffffffffff90940193840201828155600190810183905592909355888152898201909252604082209190915594506102849350505050565b80356001600160a01b03811681146102c057600080fd5b600082601f8301126118f0578081fd5b81356119036118fe826123b8565b612394565b81815291506020808301908481018184028601820187101561192457600080fd5b60005b8481101561194357813584529282019290820190600101611927565b505050505092915050565b600082601f83011261195e578081fd5b813567ffffffffffffffff81111561197257fe5b6119a360207fffffffffffffffffffffffffffffffffffffffffffffffffffffffffffffffe0601f84011601612394565b91508082528360208285010111156119ba57600080fd5b8060208401602084013760009082016020015292915050565b6000602082840312156119e4578081fd5b6103af826118c9565b600080604083850312156119ff578081fd5b611a08836118c9565b9150611a16602084016118c9565b90509250929050565b600080600080600060a08688031215611a36578081fd5b611a3f866118c9565b9450611a4d602087016118c9565b9350604086013567ffffffffffffffff80821115611a69578283fd5b611a7589838a016118e0565b94506060880135915080821115611a8a578283fd5b611a9689838a016118e0565b93506080880135915080821115611aab578283fd5b50611ab88882890161194e565b9150509295509295909350565b600080600080600060a08688031215611adc578081fd5b611ae5866118c9565b9450611af3602087016118c9565b93506040860135925060608601359150608086013567ffffffffffffffff811115611b1c578182fd5b611ab88882890161194e565b60008060408385031215611b3a578182fd5b611b43836118c9565b915060208301358015158114611b57578182fd5b809150509250929050565b60008060408385031215611b74578182fd5b611b7d836118c9565b946020939093013593505050565b60008060408385031215611b9d578182fd5b823567ffffffffffffffff80821115611bb4578384fd5b818501915085601f830112611bc7578384fd5b8135611bd56118fe826123b8565b80828252602080830192508086018a828387028901011115611bf5578889fd5b8896505b84871015611c1e57611c0a816118c9565b845260019690960195928101928101611bf9565b509096508701359350505080821115611c35578283fd5b50611c42858286016118e0565b9150509250929050565b600060208284031215611c5d578081fd5b81356103af816124bd565b600060208284031215611c79578081fd5b81516103af816124bd565b600060208284031215611c95578081fd5b5035919050565b600060208284031215611cad578081fd5b5051919050565b60008060408385031215611cc6578182fd5b82359150611a16602084016118c9565b6000815180845260208085019450808401835b83811015611d0557815187529582019590820190600101611ce9565b509495945050505050565b60008151808452815b81811015611d3557602081850181015186830182015201611d19565b81811115611d465782602083870101525b50601f017fffffffffffffffffffffffffffffffffffffffffffffffffffffffffffffffe0169290920160200192915050565b6001600160a01b0391909116815260200190565b60006001600160a01b03808816835280871660208401525060a06040830152611db960a0830186611cd6565b8281036060840152611dcb8186611cd6565b90508281036080840152611ddf8185611d10565b98975050505050505050565b60006001600160a01b03808816835280871660208401525084604083015283606083015260a06080830152611e2360a0830184611d10565b979650505050505050565b6000602082526103af6020830184611cd6565b600060408252611e546040830185611cd6565b8281036020840152611e668185611cd6565b95945050505050565b901515815260200190565b6000602082526103af6020830184611d10565b60208082526034908201527f455243313135353a207472616e7366657220746f206e6f6e204552433131353560408201527f526563656976657220696d706c656d656e746572000000000000000000000000606082015260800190565b60208082526028908201527f455243313135353a204552433131353552656365697665722072656a6563746560408201527f6420746f6b656e73000000000000000000000000000000000000000000000000606082015260800190565b6020808252602b908201527f455243313135353a2062616c616e636520717565727920666f7220746865207a60408201527f65726f2061646472657373000000000000000000000000000000000000000000606082015260800190565b60208082526031908201527f455243313135353a2062617463682062616c616e636520717565727920666f7260408201527f20746865207a65726f2061646472657373000000000000000000000000000000606082015260800190565b60208082526029908201527f455243313135353a2063616c6c6572206973206e6f74206f776e6572206e6f7260408201527f20617070726f7665640000000000000000000000000000000000000000000000606082015260800190565b60208082526012908201527f496e73756666696369656e742066756e64730000000000000000000000000000604082015260600190565b60208082526025908201527f455243313135353a207472616e7366657220746f20746865207a65726f20616460408201527f6472657373000000000000000000000000000000000000000000000000000000606082015260800190565b60208082526032908201527f455243313135353a207472616e736665722063616c6c6572206973206e6f742060408201527f6f776e6572206e6f7220617070726f7665640000000000000000000000000000606082015260800190565b60208082526023908201527f455243313135353a206275726e2066726f6d20746865207a65726f206164647260408201527f6573730000000000000000000000000000000000000000000000000000000000606082015260800190565b60208082526021908201527f455243313135353a204e465420746f6b656e20616c7265616479206d696e746560408201527f6400000000000000000000000000000000000000000000000000000000000000606082015260800190565b60208082526029908201527f455243313135353a2073657474696e6720617070726f76616c2073746174757360408201527f20666f722073656c660000000000000000000000000000000000000000000000606082015260800190565b60208082526029908201527f455243313135353a206163636f756e747320616e6420696473206c656e67746860408201527f206d69736d617463680000000000000000000000000000000000000000000000606082015260800190565b60208082526028908201527f455243313135353a2069647320616e6420616d6f756e7473206c656e6774682060408201527f6d69736d61746368000000000000000000000000000000000000000000000000606082015260800190565b60208082526021908201527f455243313135353a206d696e7420746f20746865207a65726f2061646472657360408201527f7300000000000000000000000000000000000000000000000000000000000000606082015260800190565b90815260200190565b918252602082015260400190565b60405181810167ffffffffffffffff811182821017156123b057fe5b604052919050565b600067ffffffffffffffff8211156123cc57fe5b5060209081020190565b60e01c90565b600060443d10156123ec5761038a565b600481823e6308c379a061240082516123d6565b1461240a5761038a565b6040517ffffffffffffffffffffffffffffffffffffffffffffffffffffffffffffffffc3d016004823e80513d67ffffffffffffffff8160248401118184111715612458575050505061038a565b82840192508251915080821115612472575050505061038a565b503d8301602082840101111561248a5750505061038a565b601f017fffffffffffffffffffffffffffffffffffffffffffffffffffffffffffffffe016810160200160405291505090565b7fffffffff00000000000000000000000000000000000000000000000000000000811681146124eb57600080fd5b5056fe456e756d657261626c655365743a20696e646578206f7574206f6620626f756e6473455243313135353a206275726e20616d6f756e7420657863656564732062616c616e6365455243313135353a206f776e657220717565727920666f72206e6f6e6578697374656e7420746f6b656e455243313135353a20696e73756666696369656e742062616c616e636520666f72207472616e73666572a2646970667358221220c8dc4ba801f93a944eea9446338111dd943e07301839937d9f33f590e79791d964736f6c63430007040033",
  "immutableReferences": {},
  "source": "// SPDX-License-Identifier: MIT\npragma solidity ^0.7.4;\npragma experimental ABIEncoderV2;\n\nimport \"./tokens/CustomERC1155.sol\";\nimport \"./PolicyBook.sol\";\n\ncontract BmiDAIStaking is CustomERC1155 {\n    struct StakingInfo {\n        uint256 stakingStartTime;        \n        uint256 bmiDAIAmount;\n        address policyBookAddress;\n    }\n    \n    mapping(uint256 => StakingInfo) private _stakersPool; // NFT => INFO\n    \n    uint256 private _currentNFTMintID = 1;\n\n    constructor() CustomERC1155(\"\") {\n    }\n\n    function _mintNFT(\n        address _staker,        \n        uint256 _amount,\n        address _policyBookAddress\n    ) private {                \n        uint256 stakerBalance = balanceOfNFT(_staker);\n        uint256 totalAmount = _amount;\n\n        for (uint256 i = 0; i < stakerBalance; i++) {\n            uint256 tokenIndex = tokenOfOwnerByIndexNFT(_staker, i);            \n\n            if (_stakersPool[tokenIndex].policyBookAddress == _policyBookAddress) {\n                totalAmount += _stakersPool[tokenIndex].bmiDAIAmount;\n                \n                _burn(_staker, tokenIndex, 1);\n                delete _stakersPool[tokenIndex];\n            }\n        }\n\n        _mint(_staker, _currentNFTMintID, 1, \"\");\n        _stakersPool[_currentNFTMintID] = StakingInfo(block.timestamp, totalAmount, _policyBookAddress); \n\n        _currentNFTMintID++;\n    }    \n\n    function stakeDAIx(uint256 _amount, address _policyBookAddress) external {\n        require(\n            _amount <= IERC20(_policyBookAddress).balanceOf(_msgSender()),\n            \"Insufficient funds\"\n        );        \n       \n        _mintNFT(_msgSender(), _amount, _policyBookAddress);\n\n        // transfer dai to yield generator\n    }\n\n    function withdrawProfit() external {\n        // from the mock Yield Generator\n    }\n}\n",
  "sourcePath": "/home/artem/Projects/Distributed_Lab/Applicature/bridgemutual-core/contracts/BmiDAIStaking.sol",
  "compiler": {
    "name": "solc",
    "version": "0.7.4+commit.3f05b770.Emscripten.clang"
  },
  "schemaVersion": "3.3.3",
  "updatedAt": "2021-01-21T13:29:38.822Z",
  "devdoc": {
    "kind": "dev",
    "methods": {
      "balanceOf(address,uint256)": {
        "details": "Returns the amount of tokens of token type `id` owned by `account`. Requirements: - `account` cannot be the zero address."
      },
      "balanceOfBatch(address[],uint256[])": {
        "details": "xref:ROOT:erc1155.adoc#batch-operations[Batched] version of {balanceOf}. Requirements: - `accounts` and `ids` must have the same length."
      },
      "isApprovedForAll(address,address)": {
        "details": "Returns true if `operator` is approved to transfer ``account``'s tokens. See {setApprovalForAll}."
      },
      "safeBatchTransferFrom(address,address,uint256[],uint256[],bytes)": {
        "details": "xref:ROOT:erc1155.adoc#batch-operations[Batched] version of {safeTransferFrom}. Emits a {TransferBatch} event. Requirements: - `ids` and `amounts` must have the same length. - If `to` refers to a smart contract, it must implement {IERC1155Receiver-onERC1155BatchReceived} and return the acceptance magic value."
      },
      "safeTransferFrom(address,address,uint256,uint256,bytes)": {
        "details": "Transfers `amount` tokens of token type `id` from `from` to `to`. Emits a {TransferSingle} event. Requirements: - `to` cannot be the zero address. - If the caller is not `from`, it must be have been approved to spend ``from``'s tokens via {setApprovalForAll}. - `from` must have a balance of tokens of type `id` of at least `amount`. - If `to` refers to a smart contract, it must implement {IERC1155Receiver-onERC1155Received} and return the acceptance magic value."
      },
      "setApprovalForAll(address,bool)": {
        "details": "Grants or revokes permission to `operator` to transfer the caller's tokens, according to `approved`, Emits an {ApprovalForAll} event. Requirements: - `operator` cannot be the caller."
      },
      "supportsInterface(bytes4)": {
        "details": "See {IERC165-supportsInterface}. Time complexity O(1), guaranteed to always use less than 30 000 gas."
      }
    },
    "version": 1
  },
  "userdoc": {
    "kind": "user",
    "methods": {},
    "version": 1
  }
}