{
  "contractName": "BmiDAIStaking",
  "abi": [
    {
      "inputs": [],
      "stateMutability": "nonpayable",
      "type": "constructor"
    },
    {
      "anonymous": false,
      "inputs": [
        {
          "indexed": true,
          "internalType": "address",
          "name": "account",
          "type": "address"
        },
        {
          "indexed": true,
          "internalType": "address",
          "name": "operator",
          "type": "address"
        },
        {
          "indexed": false,
          "internalType": "bool",
          "name": "approved",
          "type": "bool"
        }
      ],
      "name": "ApprovalForAll",
      "type": "event"
    },
    {
      "anonymous": false,
      "inputs": [
        {
          "indexed": false,
          "internalType": "uint256",
          "name": "id",
          "type": "uint256"
        },
        {
          "indexed": false,
          "internalType": "address",
          "name": "to",
          "type": "address"
        }
      ],
      "name": "NFTMinted",
      "type": "event"
    },
    {
      "anonymous": false,
      "inputs": [
        {
          "indexed": true,
          "internalType": "address",
          "name": "previousOwner",
          "type": "address"
        },
        {
          "indexed": true,
          "internalType": "address",
          "name": "newOwner",
          "type": "address"
        }
      ],
      "name": "OwnershipTransferred",
      "type": "event"
    },
    {
      "anonymous": false,
      "inputs": [
        {
          "indexed": true,
          "internalType": "address",
          "name": "operator",
          "type": "address"
        },
        {
          "indexed": true,
          "internalType": "address",
          "name": "from",
          "type": "address"
        },
        {
          "indexed": true,
          "internalType": "address",
          "name": "to",
          "type": "address"
        },
        {
          "indexed": false,
          "internalType": "uint256[]",
          "name": "ids",
          "type": "uint256[]"
        },
        {
          "indexed": false,
          "internalType": "uint256[]",
          "name": "values",
          "type": "uint256[]"
        }
      ],
      "name": "TransferBatch",
      "type": "event"
    },
    {
      "anonymous": false,
      "inputs": [
        {
          "indexed": true,
          "internalType": "address",
          "name": "operator",
          "type": "address"
        },
        {
          "indexed": true,
          "internalType": "address",
          "name": "from",
          "type": "address"
        },
        {
          "indexed": true,
          "internalType": "address",
          "name": "to",
          "type": "address"
        },
        {
          "indexed": false,
          "internalType": "uint256",
          "name": "id",
          "type": "uint256"
        },
        {
          "indexed": false,
          "internalType": "uint256",
          "name": "value",
          "type": "uint256"
        }
      ],
      "name": "TransferSingle",
      "type": "event"
    },
    {
      "anonymous": false,
      "inputs": [
        {
          "indexed": false,
          "internalType": "string",
          "name": "value",
          "type": "string"
        },
        {
          "indexed": true,
          "internalType": "uint256",
          "name": "id",
          "type": "uint256"
        }
      ],
      "name": "URI",
      "type": "event"
    },
    {
      "inputs": [
        {
          "internalType": "address",
          "name": "account",
          "type": "address"
        },
        {
          "internalType": "uint256",
          "name": "id",
          "type": "uint256"
        }
      ],
      "name": "balanceOf",
      "outputs": [
        {
          "internalType": "uint256",
          "name": "",
          "type": "uint256"
        }
      ],
      "stateMutability": "view",
      "type": "function",
      "constant": true
    },
    {
      "inputs": [
        {
          "internalType": "address[]",
          "name": "accounts",
          "type": "address[]"
        },
        {
          "internalType": "uint256[]",
          "name": "ids",
          "type": "uint256[]"
        }
      ],
      "name": "balanceOfBatch",
      "outputs": [
        {
          "internalType": "uint256[]",
          "name": "",
          "type": "uint256[]"
        }
      ],
      "stateMutability": "view",
      "type": "function",
      "constant": true
    },
    {
      "inputs": [
        {
          "internalType": "address",
          "name": "owner",
          "type": "address"
        }
      ],
      "name": "balanceOfNFT",
      "outputs": [
        {
          "internalType": "uint256",
          "name": "",
          "type": "uint256"
        }
      ],
      "stateMutability": "view",
      "type": "function",
      "constant": true
    },
    {
      "inputs": [],
      "name": "bmiToken",
      "outputs": [
        {
          "internalType": "contract IERC20",
          "name": "",
          "type": "address"
        }
      ],
      "stateMutability": "view",
      "type": "function",
      "constant": true
    },
    {
      "inputs": [],
      "name": "contractsRegistry",
      "outputs": [
        {
          "internalType": "contract ContractsRegistry",
          "name": "",
          "type": "address"
        }
      ],
      "stateMutability": "view",
      "type": "function",
      "constant": true
    },
    {
      "inputs": [],
      "name": "daiToken",
      "outputs": [
        {
          "internalType": "contract IERC20",
          "name": "",
          "type": "address"
        }
      ],
      "stateMutability": "view",
      "type": "function",
      "constant": true
    },
    {
      "inputs": [],
      "name": "defiYieldGenerator",
      "outputs": [
        {
          "internalType": "contract DefiYieldGenerator",
          "name": "",
          "type": "address"
        }
      ],
      "stateMutability": "view",
      "type": "function",
      "constant": true
    },
    {
      "inputs": [
        {
          "internalType": "address",
          "name": "account",
          "type": "address"
        },
        {
          "internalType": "address",
          "name": "operator",
          "type": "address"
        }
      ],
      "name": "isApprovedForAll",
      "outputs": [
        {
          "internalType": "bool",
          "name": "",
          "type": "bool"
        }
      ],
      "stateMutability": "view",
      "type": "function",
      "constant": true
    },
    {
      "inputs": [],
      "name": "owner",
      "outputs": [
        {
          "internalType": "address",
          "name": "",
          "type": "address"
        }
      ],
      "stateMutability": "view",
      "type": "function",
      "constant": true
    },
    {
      "inputs": [
        {
          "internalType": "uint256",
          "name": "tokenId",
          "type": "uint256"
        }
      ],
      "name": "ownerOfNFT",
      "outputs": [
        {
          "internalType": "address",
          "name": "",
          "type": "address"
        }
      ],
      "stateMutability": "view",
      "type": "function",
      "constant": true
    },
    {
      "inputs": [],
      "name": "renounceOwnership",
      "outputs": [],
      "stateMutability": "nonpayable",
      "type": "function"
    },
    {
      "inputs": [
        {
          "internalType": "address",
          "name": "from",
          "type": "address"
        },
        {
          "internalType": "address",
          "name": "to",
          "type": "address"
        },
        {
          "internalType": "uint256[]",
          "name": "ids",
          "type": "uint256[]"
        },
        {
          "internalType": "uint256[]",
          "name": "amounts",
          "type": "uint256[]"
        },
        {
          "internalType": "bytes",
          "name": "data",
          "type": "bytes"
        }
      ],
      "name": "safeBatchTransferFrom",
      "outputs": [],
      "stateMutability": "nonpayable",
      "type": "function"
    },
    {
      "inputs": [
        {
          "internalType": "address",
          "name": "from",
          "type": "address"
        },
        {
          "internalType": "address",
          "name": "to",
          "type": "address"
        },
        {
          "internalType": "uint256",
          "name": "id",
          "type": "uint256"
        },
        {
          "internalType": "uint256",
          "name": "amount",
          "type": "uint256"
        },
        {
          "internalType": "bytes",
          "name": "data",
          "type": "bytes"
        }
      ],
      "name": "safeTransferFrom",
      "outputs": [],
      "stateMutability": "nonpayable",
      "type": "function"
    },
    {
      "inputs": [
        {
          "internalType": "address",
          "name": "operator",
          "type": "address"
        },
        {
          "internalType": "bool",
          "name": "approved",
          "type": "bool"
        }
      ],
      "name": "setApprovalForAll",
      "outputs": [],
      "stateMutability": "nonpayable",
      "type": "function"
    },
    {
      "inputs": [
        {
          "internalType": "bytes4",
          "name": "interfaceId",
          "type": "bytes4"
        }
      ],
      "name": "supportsInterface",
      "outputs": [
        {
          "internalType": "bool",
          "name": "",
          "type": "bool"
        }
      ],
      "stateMutability": "view",
      "type": "function",
      "constant": true
    },
    {
      "inputs": [
        {
          "internalType": "address",
          "name": "owner",
          "type": "address"
        },
        {
          "internalType": "uint256",
          "name": "index",
          "type": "uint256"
        }
      ],
      "name": "tokenOfOwnerByIndexNFT",
      "outputs": [
        {
          "internalType": "uint256",
          "name": "",
          "type": "uint256"
        }
      ],
      "stateMutability": "view",
      "type": "function",
      "constant": true
    },
    {
      "inputs": [],
      "name": "totalSupply",
      "outputs": [
        {
          "internalType": "uint256",
          "name": "",
          "type": "uint256"
        }
      ],
      "stateMutability": "view",
      "type": "function",
      "constant": true
    },
    {
      "inputs": [
        {
          "internalType": "address",
          "name": "newOwner",
          "type": "address"
        }
      ],
      "name": "transferOwnership",
      "outputs": [],
      "stateMutability": "nonpayable",
      "type": "function"
    },
    {
      "inputs": [
        {
          "internalType": "uint256",
          "name": "",
          "type": "uint256"
        }
      ],
      "name": "uri",
      "outputs": [
        {
          "internalType": "string",
          "name": "",
          "type": "string"
        }
      ],
      "stateMutability": "view",
      "type": "function",
      "constant": true
    },
    {
      "inputs": [
        {
          "internalType": "contract ContractsRegistry",
          "name": "_contractsRegistry",
          "type": "address"
        }
      ],
      "name": "initRegistry",
      "outputs": [],
      "stateMutability": "nonpayable",
      "type": "function"
    },
    {
      "inputs": [
        {
          "internalType": "uint256",
          "name": "_amount",
          "type": "uint256"
        },
        {
          "internalType": "contract IPolicyBook",
          "name": "_policyBook",
          "type": "address"
        }
      ],
      "name": "stakeDAIx",
      "outputs": [],
      "stateMutability": "nonpayable",
      "type": "function"
    },
    {
      "inputs": [
        {
          "internalType": "uint256",
          "name": "tokenID",
          "type": "uint256"
        }
      ],
      "name": "withdrawBMIProfit",
      "outputs": [],
      "stateMutability": "nonpayable",
      "type": "function"
    },
    {
      "inputs": [
        {
          "internalType": "uint256",
          "name": "tokenID",
          "type": "uint256"
        }
      ],
      "name": "withdrawFundsWithProfit",
      "outputs": [],
      "stateMutability": "nonpayable",
      "type": "function"
    },
    {
      "inputs": [
        {
          "internalType": "uint256",
          "name": "tokenID",
          "type": "uint256"
        },
        {
          "internalType": "uint256",
          "name": "amount",
          "type": "uint256"
        }
      ],
      "name": "increaseBmiProfit",
      "outputs": [],
      "stateMutability": "nonpayable",
      "type": "function"
    },
    {
      "inputs": [
        {
          "internalType": "uint256",
          "name": "tokenID",
          "type": "uint256"
        }
      ],
      "name": "getStakingInfoByTokenID",
      "outputs": [
        {
          "components": [
            {
              "internalType": "uint256",
              "name": "stakingStartTime",
              "type": "uint256"
            },
            {
              "internalType": "uint256",
              "name": "stakedDaiAmount",
              "type": "uint256"
            },
            {
              "internalType": "address",
              "name": "policyBookAddress",
              "type": "address"
            },
            {
              "internalType": "uint256",
              "name": "bmiProfit",
              "type": "uint256"
            }
          ],
          "internalType": "struct IBmiDaiStaking.StakingInfo",
          "name": "_stakingInfo",
          "type": "tuple"
        }
      ],
      "stateMutability": "view",
      "type": "function",
      "constant": true
    }
  ],
  "bytecode": "0x60806040526001600e553480156200001657600080fd5b50604080516020810190915260008152620000386301ffc9a760e01b620000c8565b62000043816200014d565b62000055636cdb3d1360e11b620000c8565b620000676303a24d0760e21b620000c8565b5060006200007462000166565b600880546001600160a01b0319166001600160a01b038316908117909155604051919250906000907f8be0079c531659141344cd1fd0a4f28419497f9722a3daafe3b4186f6b6457e0908290a35062000216565b6001600160e01b0319808216141562000128576040805162461bcd60e51b815260206004820152601c60248201527f4552433136353a20696e76616c696420696e7465726661636520696400000000604482015290519081900360640190fd5b6001600160e01b0319166000908152602081905260409020805460ff19166001179055565b8051620001629060079060208401906200016a565b5050565b3390565b828054600181600116156101000203166002900490600052602060002090601f016020900481019282620001a25760008555620001ed565b82601f10620001bd57805160ff1916838001178555620001ed565b82800160010185558215620001ed579182015b82811115620001ed578251825591602001919060010190620001d0565b50620001fb929150620001ff565b5090565b5b80821115620001fb576000815560010162000200565b6137a980620002266000396000f3fe608060405234801561001057600080fd5b50600436106101a25760003560e01c80638da5cb5b116100ee578063d0a43afd11610097578063e985e9c511610071578063e985e9c514610342578063f242432a14610355578063f2fde38b14610368578063f5b100ea1461037b576101a2565b8063d0a43afd1461031f578063d77379f114610332578063d98d0c7e1461033a576101a2565b8063be22f546116100c8578063be22f546146102f1578063cc199391146102f9578063cd30a9761461030c576101a2565b80638da5cb5b146102c3578063a22cb465146102cb578063a7fa3c7f146102de576101a2565b80632d8a746e11610150578063715018a61161012a578063715018a6146102a057806381927714146102a8578063843fe5f0146102bb576101a2565b80632d8a746e1461024b5780632eb2c2d61461026b5780634e1273f414610280576101a2565b80630e89341c116101815780630e89341c1461021057806318160ddd146102305780631dcb46f614610238576101a2565b8062fdd58e146101a757806301ffc9a7146101d0578063076befe7146101f0575b600080fd5b6101ba6101b5366004612a0b565b61038e565b6040516101c791906134d4565b60405180910390f35b6101e36101de366004612b15565b6103ea565b6040516101c79190612dc5565b6102036101fe366004612bc0565b610421565b6040516101c791906134a0565b61022361021e366004612bc0565b61049c565b6040516101c79190612dd0565b6101ba610552565b6101ba610246366004612a0b565b610564565b61025e610259366004612bc0565b61058d565b6040516101c79190612c9b565b61027e6102793660046128cd565b6105b5565b005b61029361028e366004612a36565b610831565b6040516101c79190612d8d565b61027e610971565b61027e6102b6366004612bf0565b610a3d565b61025e610c62565b61025e610c71565b61027e6102d93660046129de565b610c80565b61027e6102ec366004612bc0565b610d6c565b61025e6110df565b61027e610307366004612c14565b6110ee565b61027e61031a366004612bc0565b611143565b61027e61032d36600461285d565b61126a565b61025e611694565b61025e6116a3565b6101e3610350366004612895565b6116b2565b61027e610363366004612977565b6116e0565b61027e61037636600461285d565b6118d6565b6101ba61038936600461285d565b6119f9565b60006001600160a01b0383166103bf5760405162461bcd60e51b81526004016103b690612ed4565b60405180910390fd5b5060008181526001602090815260408083206001600160a01b03861684529091529020545b92915050565b7fffffffff000000000000000000000000000000000000000000000000000000001660009081526020819052604090205460ff1690565b610429612770565b61043282611a42565b61044e5760405162461bcd60e51b81526004016103b690612f8e565b506000908152600d602090815260409182902082516080810184528154815260018201549281019290925260028101546001600160a01b031692820192909252600390910154606082015290565b60078054604080516020601f60027fffffffffffffffffffffffffffffffffffffffffffffffffffffffffffffffff6101006001881615020190951694909404938401819004810282018101909252828152606093909290918301828280156105465780601f1061051b57610100808354040283529160200191610546565b820191906000526020600020905b81548152906001019060200180831161052957829003601f168201915b50505050509050919050565b600061055e6005611a4f565b90505b90565b6001600160a01b03821660009081526004602052604081206105869083611a5a565b9392505050565b60006103e4826040518060600160405280602a8152602001613720602a913960059190611a66565b81518351146105d65760405162461bcd60e51b81526004016103b690613389565b6001600160a01b0384166105fc5760405162461bcd60e51b81526004016103b6906130c7565b610604611a7b565b6001600160a01b0316856001600160a01b0316148061062a575061062a85610350611a7b565b6106465760405162461bcd60e51b81526004016103b690613124565b6000610650611a7b565b9050610660818787878787610829565b60005b84518110156107c357600085828151811061067a57fe5b60200260200101519050600085838151811061069257fe5b602002602001015190506106a582611a42565b156106fe576001600160a01b03891660009081526004602052604090206106cc9083611a7f565b506001600160a01b03881660009081526004602052604090206106ef9083611a8b565b506106fc6005838a611a97565b505b610761816040518060600160405280602a815260200161374a602a91396001600086815260200190815260200160002060008d6001600160a01b03166001600160a01b0316815260200190815260200160002054611aad9092919063ffffffff16565b60008381526001602090815260408083206001600160a01b038e811685529252808320939093558a16815220546107989082611b44565b60009283526001602081815260408086206001600160a01b038d168752909152909320555001610663565b50846001600160a01b0316866001600160a01b0316826001600160a01b03167f4a39dc06d4c0dbc64b70af90fd698a233a518aa5d07e595d983b8c0526c8f7fb8787604051610813929190612da0565b60405180910390a4610829818787878787611b9e565b505050505050565b606081518351146108545760405162461bcd60e51b81526004016103b69061332c565b6060835167ffffffffffffffff8111801561086e57600080fd5b50604051908082528060200260200182016040528015610898578160200160208202803683370190505b50905060005b84518110156109695760006001600160a01b03168582815181106108be57fe5b60200260200101516001600160a01b031614156108ed5760405162461bcd60e51b81526004016103b690612f31565b600160008583815181106108fd57fe5b60200260200101518152602001908152602001600020600086838151811061092157fe5b60200260200101516001600160a01b03166001600160a01b031681526020019081526020016000205482828151811061095657fe5b602090810291909101015260010161089e565b509392505050565b610979611a7b565b6008546001600160a01b039081169116146109db576040805162461bcd60e51b815260206004820181905260248201527f4f776e61626c653a2063616c6c6572206973206e6f7420746865206f776e6572604482015290519081900360640190fd5b6008546040516000916001600160a01b0316907f8be0079c531659141344cd1fd0a4f28419497f9722a3daafe3b4186f6b6457e0908390a3600880547fffffffffffffffffffffffff0000000000000000000000000000000000000000169055565b806001600160a01b03166370a08231610a54611a7b565b6040518263ffffffff1660e01b8152600401610a709190612c9b565b60206040518083038186803b158015610a8857600080fd5b505afa158015610a9c573d6000803e3d6000fd5b505050506040513d601f19601f82011682018060405250810190610ac09190612bd8565b821115610adf5760405162461bcd60e51b81526004016103b690613090565b600a54600c546040517f23b872dd0000000000000000000000000000000000000000000000000000000081526000926001600160a01b03908116926323b872dd92610b3292879216908890600401612caf565b602060405180830381600087803b158015610b4c57600080fd5b505af1158015610b60573d6000803e3d6000fd5b505050506040513d601f19601f82011682018060405250810190610b849190612af9565b905080610ba35760405162461bcd60e51b81526004016103b690612fc5565b816001600160a01b03166323b872dd610bba611a7b565b30866040518463ffffffff1660e01b8152600401610bda93929190612caf565b602060405180830381600087803b158015610bf457600080fd5b505af1158015610c08573d6000803e3d6000fd5b505050506040513d601f19601f82011682018060405250810190610c2c9190612af9565b905080610c4b5760405162461bcd60e51b81526004016103b690613272565b610c5d610c56611a7b565b8484611cff565b505050565b600c546001600160a01b031681565b6008546001600160a01b031690565b816001600160a01b0316610c92611a7b565b6001600160a01b03161415610cb95760405162461bcd60e51b81526004016103b6906132cf565b8060026000610cc6611a7b565b6001600160a01b0390811682526020808301939093526040918201600090812091871680825291909352912080547fffffffffffffffffffffffffffffffffffffffffffffffffffffffffffffff001692151592909217909155610d28611a7b565b6001600160a01b03167f17307eab39ab6107e8899845ad3d59bd9653f200f220920489ca2b5937696c3183604051610d609190612dc5565b60405180910390a35050565b6000818152600d60205260409020546276a700014211610d9e5760405162461bcd60e51b81526004016103b690613059565b610da6611a7b565b6001600160a01b0316610db88261058d565b6001600160a01b031614610dde5760405162461bcd60e51b81526004016103b690612e9d565b610de6612770565b506000818152600d6020908152604080832081516080810183528154815260018201549381019390935260028101546001600160a01b0390811692840192909252600301546060830152600b54600c54929392908216916323b872dd9116610e4c611a7b565b6000878152600d6020526040908190206003015490517fffffffff0000000000000000000000000000000000000000000000000000000060e086901b168152610e9a93929190600401612caf565b602060405180830381600087803b158015610eb457600080fd5b505af1158015610ec8573d6000803e3d6000fd5b505050506040513d601f19601f82011682018060405250810190610eec9190612af9565b905080610f0b5760405162461bcd60e51b81526004016103b690613181565b600a54600c54604080850151602086015191517f23b872dd0000000000000000000000000000000000000000000000000000000081526001600160a01b03948516946323b872dd94610f639491169291600401612caf565b602060405180830381600087803b158015610f7d57600080fd5b505af1158015610f91573d6000803e3d6000fd5b505050506040513d601f19601f82011682018060405250810190610fb59190612af9565b905080610fd45760405162461bcd60e51b81526004016103b690612fc5565b81604001516001600160a01b031663a9059cbb610fef611a7b565b84602001516040518363ffffffff1660e01b8152600401611011929190612cd3565b602060405180830381600087803b15801561102b57600080fd5b505af115801561103f573d6000803e3d6000fd5b505050506040513d601f19601f820116820180604052508101906110639190612af9565b9050806110825760405162461bcd60e51b81526004016103b690613272565b61109561108d611a7b565b846001611ead565b50506000908152600d60205260408120818155600181018290556002810180547fffffffffffffffffffffffff000000000000000000000000000000000000000016905560030155565b600a546001600160a01b031681565b600c546001600160a01b0316611102611a7b565b6001600160a01b0316146111285760405162461bcd60e51b81526004016103b690613443565b6000918252600d602052604090912060030180549091019055565b61114b611a7b565b6001600160a01b031661115d8261058d565b6001600160a01b0316146111835760405162461bcd60e51b81526004016103b690612e9d565b600b54600c546000916001600160a01b03908116916323b872dd91166111a7611a7b565b6000868152600d6020526040908190206003015490517fffffffff0000000000000000000000000000000000000000000000000000000060e086901b1681526111f593929190600401612caf565b602060405180830381600087803b15801561120f57600080fd5b505af1158015611223573d6000803e3d6000fd5b505050506040513d601f19601f820116820180604052508101906112479190612af9565b9050806112665760405162461bcd60e51b81526004016103b690613181565b5050565b611272611a7b565b6008546001600160a01b039081169116146112d4576040805162461bcd60e51b815260206004820181905260248201527f4f776e61626c653a2063616c6c6572206973206e6f7420746865206f776e6572604482015290519081900360640190fd5b600980547fffffffffffffffffffffffff0000000000000000000000000000000000000000166001600160a01b038316908117909155604080517fa45611b60000000000000000000000000000000000000000000000000000000081529051633581777391839163a45611b691600480820192600092909190829003018186803b15801561136157600080fd5b505afa158015611375573d6000803e3d6000fd5b505050506040513d6000823e601f3d908101601f1916820160405261139d9190810190612b4d565b6040518263ffffffff1660e01b81526004016113b99190612dd0565b60206040518083038186803b1580156113d157600080fd5b505afa1580156113e5573d6000803e3d6000fd5b505050506040513d601f19601f820116820180604052508101906114099190612879565b600a60006101000a8154816001600160a01b0302191690836001600160a01b03160217905550806001600160a01b03166335817773826001600160a01b03166327c300af6040518163ffffffff1660e01b815260040160006040518083038186803b15801561147757600080fd5b505afa15801561148b573d6000803e3d6000fd5b505050506040513d6000823e601f3d908101601f191682016040526114b39190810190612b4d565b6040518263ffffffff1660e01b81526004016114cf9190612dd0565b60206040518083038186803b1580156114e757600080fd5b505afa1580156114fb573d6000803e3d6000fd5b505050506040513d601f19601f8201168201806040525081019061151f9190612879565b600b80547fffffffffffffffffffffffff0000000000000000000000000000000000000000166001600160a01b03928316179055600954604080517fc0ed452f00000000000000000000000000000000000000000000000000000000815290519190921691633581777391839163c0ed452f916004808301926000929190829003018186803b1580156115b157600080fd5b505afa1580156115c5573d6000803e3d6000fd5b505050506040513d6000823e601f3d908101601f191682016040526115ed9190810190612b4d565b6040518263ffffffff1660e01b81526004016116099190612dd0565b60206040518083038186803b15801561162157600080fd5b505afa158015611635573d6000803e3d6000fd5b505050506040513d601f19601f820116820180604052508101906116599190612879565b600c80547fffffffffffffffffffffffff0000000000000000000000000000000000000000166001600160a01b039290921691909117905550565b600b546001600160a01b031681565b6009546001600160a01b031681565b6001600160a01b03918216600090815260026020908152604080832093909416825291909152205460ff1690565b6001600160a01b0384166117065760405162461bcd60e51b81526004016103b6906130c7565b61170e611a7b565b6001600160a01b0316856001600160a01b03161480611734575061173485610350611a7b565b6117505760405162461bcd60e51b81526004016103b690612ffc565b600061175a611a7b565b905061177a81878761176b88612025565b61177488612025565b87610829565b61178384611a42565b156117dc576001600160a01b03861660009081526004602052604090206117aa9085611a7f565b506001600160a01b03851660009081526004602052604090206117cd9085611a8b565b506117da60058587611a97565b505b611823836040518060600160405280602a815260200161374a602a913960008781526001602090815260408083206001600160a01b038d1684529091529020549190611aad565b60008581526001602090815260408083206001600160a01b038b8116855292528083209390935587168152205461185a9084611b44565b60008581526001602090815260408083206001600160a01b03808b168086529190935292819020939093559151909188811691908416907fc3d58168c5ae7397731d063d5bbf3d657854427343f4c083240f7aacaa2d0f62906118c090899089906134f4565b60405180910390a4610829818787878787612069565b6118de611a7b565b6008546001600160a01b03908116911614611940576040805162461bcd60e51b815260206004820181905260248201527f4f776e61626c653a2063616c6c6572206973206e6f7420746865206f776e6572604482015290519081900360640190fd5b6001600160a01b0381166119855760405162461bcd60e51b81526004018080602001828103825260268152602001806136d66026913960400191505060405180910390fd5b6008546040516001600160a01b038084169216907f8be0079c531659141344cd1fd0a4f28419497f9722a3daafe3b4186f6b6457e090600090a3600880547fffffffffffffffffffffffff0000000000000000000000000000000000000000166001600160a01b0392909216919091179055565b60006001600160a01b038216611a215760405162461bcd60e51b81526004016103b690612ed4565b6001600160a01b03821660009081526004602052604090206103e490611a4f565b60006103e4600583612184565b60006103e482612190565b60006105868383612194565b6000611a738484846121f8565b949350505050565b3390565b60006105868383612285565b60006105868383612369565b6000611a7384846001600160a01b0385166123b3565b60008184841115611b3c5760405162461bcd60e51b81526004018080602001828103825283818151815260200191508051906020019080838360005b83811015611b01578181015183820152602001611ae9565b50505050905090810190601f168015611b2e5780820380516001836020036101000a031916815260200191505b509250505060405180910390fd5b505050900390565b600082820183811015610586576040805162461bcd60e51b815260206004820152601b60248201527f536166654d6174683a206164646974696f6e206f766572666c6f770000000000604482015290519081900360640190fd5b611bb0846001600160a01b031661244a565b15610829576040517fbc197c810000000000000000000000000000000000000000000000000000000081526001600160a01b0385169063bc197c8190611c029089908990889088908890600401612cec565b602060405180830381600087803b158015611c1c57600080fd5b505af1925050508015611c4c575060408051601f3d908101601f19168201909252611c4991810190612b31565b60015b611c9557611c5861359c565b80611c635750611c7d565b8060405162461bcd60e51b81526004016103b69190612dd0565b60405162461bcd60e51b81526004016103b690612de3565b7fffffffff0000000000000000000000000000000000000000000000000000000081167fbc197c810000000000000000000000000000000000000000000000000000000014611cf65760405162461bcd60e51b81526004016103b690612e40565b50505050505050565b6000611d0a846119f9565b90508260005b82811015611dc3576000611d248783610564565b6000818152600d60205260409020600201549091506001600160a01b0386811691161415611dba57600d60008281526020019081526020016000206001015483019250611d7387826001611ead565b6000818152600d60205260408120818155600181018290556002810180547fffffffffffffffffffffffff0000000000000000000000000000000000000000169055600301555b50600101611d10565b50611de285600e54600160405180602001604052806000815250612450565b6040805160808101825242815260208082018481526001600160a01b03878116848601908152600060608601818152600e80548352600d909652908790209551865592516001860155516002850180547fffffffffffffffffffffffff00000000000000000000000000000000000000001691909216179055516003909201919091555490517f0176f203df400d7bd5f1b1c9ef36c16709bf3b5d9fd35f000a6bae32393f66c391611e959188906134dd565b60405180910390a15050600e80546001019055505050565b6001600160a01b038316611ed35760405162461bcd60e51b81526004016103b6906131b8565b6000611edd611a7b565b9050611f0d81856000611eef87612025565b611ef887612025565b60405180602001604052806000815250610829565b8115611f43576001600160a01b0384166000908152600460205260409020611f359084611a7f565b50611f416005846125e6565b505b611f8a826040518060600160405280602481526020016136fc6024913960008681526001602090815260408083206001600160a01b038b1684529091529020549190611aad565b60008481526001602090815260408083206001600160a01b0389168452825280832093909355858252600390522054611fc390836125f2565b6000848152600360205260408082209290925590516001600160a01b0386811691908416907fc3d58168c5ae7397731d063d5bbf3d657854427343f4c083240f7aacaa2d0f629061201790889088906134f4565b60405180910390a450505050565b60408051600180825281830190925260609182919060208083019080368337019050509050828160008151811061205857fe5b602090810291909101015292915050565b61207b846001600160a01b031661244a565b15610829576040517ff23a6e610000000000000000000000000000000000000000000000000000000081526001600160a01b0385169063f23a6e61906120cd9089908990889088908890600401612d4a565b602060405180830381600087803b1580156120e757600080fd5b505af1925050508015612117575060408051601f3d908101601f1916820190925261211491810190612b31565b60015b61212357611c5861359c565b7fffffffff0000000000000000000000000000000000000000000000000000000081167ff23a6e610000000000000000000000000000000000000000000000000000000014611cf65760405162461bcd60e51b81526004016103b690612e40565b60006105868383612634565b5490565b815460009082106121d65760405162461bcd60e51b81526004018080602001828103825260228152602001806136b46022913960400191505060405180910390fd5b8260000182815481106121e557fe5b9060005260206000200154905092915050565b600082815260018401602052604081205482816122565760405162461bcd60e51b8152602060048201818152835160248401528351909283926044909101919085019080838360008315611b01578181015183820152602001611ae9565b5084600001600182038154811061226957fe5b9060005260206000209060020201600101549150509392505050565b6000818152600183016020526040812054801561235f5783547fffffffffffffffffffffffffffffffffffffffffffffffffffffffffffffffff80830191908101906000908790839081106122d657fe5b90600052602060002001549050808760000184815481106122f357fe5b60009182526020808320909101929092558281526001898101909252604090209084019055865487908061232357fe5b600190038181906000526020600020016000905590558660010160008781526020019081526020016000206000905560019450505050506103e4565b60009150506103e4565b60006123758383612634565b6123ab575081546001818101845560008481526020808220909301849055845484825282860190935260409020919091556103e4565b5060006103e4565b600082815260018401602052604081205480612418575050604080518082018252838152602080820184815286546001818101895560008981528481209551600290930290950191825591519082015586548684528188019092529290912055610586565b8285600001600183038154811061242b57fe5b9060005260206000209060020201600101819055506000915050610586565b3b151590565b6001600160a01b0384166124765760405162461bcd60e51b81526004016103b6906133e6565b811580612489575061248783611a42565b155b6124a55760405162461bcd60e51b81526004016103b690613215565b60006124af611a7b565b90506124c18160008761176b88612025565b8260011480156124d757506124d58461264c565b155b1561250d576001600160a01b03851660009081526004602052604090206124fe9085611a8b565b5061250b60058587611a97565b505b60008481526001602090815260408083206001600160a01b038916845290915290205461253a9084611b44565b60008581526001602090815260408083206001600160a01b038a1684528252808320939093558682526003905220546125739084611b44565b6000858152600360205260408082209290925590516001600160a01b038088169291908416907fc3d58168c5ae7397731d063d5bbf3d657854427343f4c083240f7aacaa2d0f62906125c890899089906134f4565b60405180910390a46125df81600087878787612069565b5050505050565b60006105868383612660565b600061058683836040518060400160405280601e81526020017f536166654d6174683a207375627472616374696f6e206f766572666c6f770000815250611aad565b60009081526001919091016020526040902054151590565b600090815260036020526040902054151590565b6000818152600183016020526040812054801561235f5783547fffffffffffffffffffffffffffffffffffffffffffffffffffffffffffffffff80830191908101906000908790839081106126b157fe5b90600052602060002090600202019050808760000184815481106126d157fe5b60009182526020808320845460029093020191825560019384015491840191909155835482528983019052604090209084019055865487908061271057fe5b6000828152602080822060027fffffffffffffffffffffffffffffffffffffffffffffffffffffffffffffffff90940193840201828155600190810183905592909355888152898201909252604082209190915594506103e49350505050565b6040518060800160405280600081526020016000815260200160006001600160a01b03168152602001600081525090565b600082601f8301126127b1578081fd5b81356127c46127bf82613526565b613502565b8181529150602080830190848101818402860182018710156127e557600080fd5b60005b84811015612804578135845292820192908201906001016127e8565b505050505092915050565b600082601f83011261281f578081fd5b813561282d6127bf82613544565b915080825283602082850101111561284457600080fd5b8060208401602084013760009082016020015292915050565b60006020828403121561286e578081fd5b81356105868161365f565b60006020828403121561288a578081fd5b81516105868161365f565b600080604083850312156128a7578081fd5b82356128b28161365f565b915060208301356128c28161365f565b809150509250929050565b600080600080600060a086880312156128e4578081fd5b85356128ef8161365f565b945060208601356128ff8161365f565b9350604086013567ffffffffffffffff8082111561291b578283fd5b61292789838a016127a1565b9450606088013591508082111561293c578283fd5b61294889838a016127a1565b9350608088013591508082111561295d578283fd5b5061296a8882890161280f565b9150509295509295909350565b600080600080600060a0868803121561298e578081fd5b85356129998161365f565b945060208601356129a98161365f565b93506040860135925060608601359150608086013567ffffffffffffffff8111156129d2578182fd5b61296a8882890161280f565b600080604083850312156129f0578182fd5b82356129fb8161365f565b915060208301356128c281613677565b60008060408385031215612a1d578182fd5b8235612a288161365f565b946020939093013593505050565b60008060408385031215612a48578182fd5b823567ffffffffffffffff80821115612a5f578384fd5b818501915085601f830112612a72578384fd5b8135612a806127bf82613526565b80828252602080830192508086018a828387028901011115612aa0578889fd5b8896505b84871015612acb578035612ab78161365f565b845260019690960195928101928101612aa4565b509096508701359350505080821115612ae2578283fd5b50612aef858286016127a1565b9150509250929050565b600060208284031215612b0a578081fd5b815161058681613677565b600060208284031215612b26578081fd5b813561058681613685565b600060208284031215612b42578081fd5b815161058681613685565b600060208284031215612b5e578081fd5b815167ffffffffffffffff811115612b74578182fd5b8201601f81018413612b84578182fd5b8051612b926127bf82613544565b818152856020838501011115612ba6578384fd5b612bb7826020830160208601613566565b95945050505050565b600060208284031215612bd1578081fd5b5035919050565b600060208284031215612be9578081fd5b5051919050565b60008060408385031215612c02578182fd5b8235915060208301356128c28161365f565b60008060408385031215612c26578182fd5b50508035926020909101359150565b6000815180845260208085019450808401835b83811015612c6457815187529582019590820190600101612c48565b509495945050505050565b60008151808452612c87816020860160208601613566565b601f01601f19169290920160200192915050565b6001600160a01b0391909116815260200190565b6001600160a01b039384168152919092166020820152604081019190915260600190565b6001600160a01b03929092168252602082015260400190565b60006001600160a01b03808816835280871660208401525060a06040830152612d1860a0830186612c35565b8281036060840152612d2a8186612c35565b90508281036080840152612d3e8185612c6f565b98975050505050505050565b60006001600160a01b03808816835280871660208401525084604083015283606083015260a06080830152612d8260a0830184612c6f565b979650505050505050565b6000602082526105866020830184612c35565b600060408252612db36040830185612c35565b8281036020840152612bb78185612c35565b901515815260200190565b6000602082526105866020830184612c6f565b60208082526034908201527f455243313135353a207472616e7366657220746f206e6f6e204552433131353560408201527f526563656976657220696d706c656d656e746572000000000000000000000000606082015260800190565b60208082526028908201527f455243313135353a204552433131353552656365697665722072656a6563746560408201527f6420746f6b656e73000000000000000000000000000000000000000000000000606082015260800190565b60208082526016908201527f4e6f7420616e204e465420746f6b656e206f776e657200000000000000000000604082015260600190565b6020808252602b908201527f455243313135353a2062616c616e636520717565727920666f7220746865207a60408201527f65726f2061646472657373000000000000000000000000000000000000000000606082015260800190565b60208082526031908201527f455243313135353a2062617463682062616c616e636520717565727920666f7260408201527f20746865207a65726f2061646472657373000000000000000000000000000000606082015260800190565b6020808252601e908201527f4e46542077697468207375636820494420646f65736e27742065786973740000604082015260600190565b6020808252601d908201527f4661696c656420746f207472616e736665722044414920746f6b656e73000000604082015260600190565b60208082526029908201527f455243313135353a2063616c6c6572206973206e6f74206f776e6572206e6f7260408201527f20617070726f7665640000000000000000000000000000000000000000000000606082015260800190565b6020808252601c908201527f46756e647320617265206c6f636b656420666f722033206d6f6e746800000000604082015260600190565b60208082526012908201527f496e73756666696369656e742066756e64730000000000000000000000000000604082015260600190565b60208082526025908201527f455243313135353a207472616e7366657220746f20746865207a65726f20616460408201527f6472657373000000000000000000000000000000000000000000000000000000606082015260800190565b60208082526032908201527f455243313135353a207472616e736665722063616c6c6572206973206e6f742060408201527f6f776e6572206e6f7220617070726f7665640000000000000000000000000000606082015260800190565b6020808252601d908201527f4661696c656420746f207472616e7366657220424d4920746f6b656e73000000604082015260600190565b60208082526023908201527f455243313135353a206275726e2066726f6d20746865207a65726f206164647260408201527f6573730000000000000000000000000000000000000000000000000000000000606082015260800190565b60208082526021908201527f455243313135353a204e465420746f6b656e20616c7265616479206d696e746560408201527f6400000000000000000000000000000000000000000000000000000000000000606082015260800190565b60208082526021908201527f4661696c656420746f207472616e7366657220626d694441497820746f6b656e60408201527f7300000000000000000000000000000000000000000000000000000000000000606082015260800190565b60208082526029908201527f455243313135353a2073657474696e6720617070726f76616c2073746174757360408201527f20666f722073656c660000000000000000000000000000000000000000000000606082015260800190565b60208082526029908201527f455243313135353a206163636f756e747320616e6420696473206c656e67746860408201527f206d69736d617463680000000000000000000000000000000000000000000000606082015260800190565b60208082526028908201527f455243313135353a2069647320616e6420616d6f756e7473206c656e6774682060408201527f6d69736d61746368000000000000000000000000000000000000000000000000606082015260800190565b60208082526021908201527f455243313135353a206d696e7420746f20746865207a65726f2061646472657360408201527f7300000000000000000000000000000000000000000000000000000000000000606082015260800190565b6020808252602c908201527f4f6e6c792067656e657261746f7220697320616c6c6f77656420746f20696e6360408201527f72656173652070726f6669740000000000000000000000000000000000000000606082015260800190565b81518152602080830151908201526040808301516001600160a01b0316908201526060918201519181019190915260800190565b90815260200190565b9182526001600160a01b0316602082015260400190565b918252602082015260400190565b60405181810167ffffffffffffffff8111828210171561351e57fe5b604052919050565b600067ffffffffffffffff82111561353a57fe5b5060209081020190565b600067ffffffffffffffff82111561355857fe5b50601f01601f191660200190565b60005b83811015613581578181015183820152602001613569565b83811115613590576000848401525b50505050565b60e01c90565b600060443d10156135ac57610561565b600481823e6308c379a06135c08251613596565b146135ca57610561565b6040517ffffffffffffffffffffffffffffffffffffffffffffffffffffffffffffffffc3d016004823e80513d67ffffffffffffffff81602484011181841117156136185750505050610561565b828401925082519150808211156136325750505050610561565b503d8301602082840101111561364a57505050610561565b601f01601f1916810160200160405291505090565b6001600160a01b038116811461367457600080fd5b50565b801515811461367457600080fd5b7fffffffff000000000000000000000000000000000000000000000000000000008116811461367457600080fdfe456e756d657261626c655365743a20696e646578206f7574206f6620626f756e64734f776e61626c653a206e6577206f776e657220697320746865207a65726f2061646472657373455243313135353a206275726e20616d6f756e7420657863656564732062616c616e6365455243313135353a206f776e657220717565727920666f72206e6f6e6578697374656e7420746f6b656e455243313135353a20696e73756666696369656e742062616c616e636520666f72207472616e73666572a2646970667358221220c2a5ef817d8d277393133ad3ae884413d06fea5be92c005f1ba300c0b978a4ae64736f6c63430007040033",
  "immutableReferences": {},
  "source": "// SPDX-License-Identifier: MIT\npragma solidity ^0.7.4;\npragma experimental ABIEncoderV2;\n\nimport \"@openzeppelin/contracts/access/Ownable.sol\";\n\nimport \"./interfaces/IBmiDaiStaking.sol\";\nimport \"./interfaces/IPolicyBook.sol\";\n\nimport \"./tokens/ERC1155.sol\";\nimport \"./PolicyBook.sol\";\nimport \"./ContractsRegistry.sol\";\nimport \"./DefiYieldGenerator.sol\";\n\ncontract BmiDAIStaking is IBmiDaiStaking, ERC1155, Ownable {     \n    uint256 constant private THREE_MONTH = 3 * 30 days;\n    \n    ContractsRegistry public contractsRegistry;\n\n    IERC20 public daiToken;\n    IERC20 public bmiToken;\n    DefiYieldGenerator public defiYieldGenerator;\n    \n    mapping(uint256 => StakingInfo) private _stakersPool; // NFT => INFO\n    \n    uint256 private _currentNFTMintID = 1;\n\n    event NFTMinted(uint256 id, address to);\n\n    modifier onlyDefiYieldGenerator() {\n        require (_msgSender() == address(defiYieldGenerator), \"Only generator is allowed to increase profit\");\n        _;\n    }\n\n    constructor() ERC1155(\"\") {}\n\n    function initRegistry(ContractsRegistry _contractsRegistry) external onlyOwner {\n        contractsRegistry = _contractsRegistry;\n\n        daiToken = IERC20(_contractsRegistry.getContract(_contractsRegistry.getDAIName()));\n        bmiToken = IERC20(_contractsRegistry.getContract(_contractsRegistry.getBMIName()));\n        defiYieldGenerator = DefiYieldGenerator(contractsRegistry.getContract(contractsRegistry.getYieldGeneratorName()));\n    }\n\n    function _mintNFT(\n        address _staker,        \n        uint256 _amount,\n        address _policyBookAddress\n    ) private {                \n        uint256 stakerBalance = balanceOfNFT(_staker);\n        uint256 totalAmount = _amount;\n\n        for (uint256 i = 0; i < stakerBalance; i++) {\n            uint256 tokenID = tokenOfOwnerByIndexNFT(_staker, i);            \n\n            if (_stakersPool[tokenID].policyBookAddress == _policyBookAddress) {\n                totalAmount += _stakersPool[tokenID].stakedDaiAmount;\n                \n                _burn(_staker, tokenID, 1);\n                delete _stakersPool[tokenID];\n            }\n        }\n\n        _mint(_staker, _currentNFTMintID, 1, \"\");\n        _stakersPool[_currentNFTMintID] = StakingInfo(block.timestamp, totalAmount, _policyBookAddress, 0); \n\n        emit NFTMinted(_currentNFTMintID, _staker);\n\n        _currentNFTMintID++;\n    }    \n\n    function stakeDAIx(uint256 _amount, IPolicyBook _policyBook) external override {\n        require(\n            _amount <= _policyBook.balanceOf(_msgSender()),\n            \"Insufficient funds\"\n        );                    \n\n        // transfer DAI from PolicyBook to yield generator\n        bool success = daiToken.transferFrom(address(_policyBook), address(defiYieldGenerator), _amount);        \n        require(success, \"Failed to transfer DAI tokens\");\n\n        // transfer bmiDAIx from user to staking\n        success = _policyBook.transferFrom(_msgSender(), address(this), _amount);        \n        require(success, \"Failed to transfer bmiDAIx tokens\");\n\n        _mintNFT(_msgSender(), _amount, address(_policyBook));\n    }\n\n    function withdrawBMIProfit(uint256 tokenID) external override {\n        require (ownerOfNFT(tokenID) == _msgSender(), \"Not an NFT token owner\");\n\n        // transfer bmi profit from YieldGenerator to user\n        bool success = bmiToken.transferFrom(address(defiYieldGenerator), _msgSender(), _stakersPool[tokenID].bmiProfit);\n        require(success, \"Failed to transfer BMI tokens\");\n    }\n\n    function withdrawFundsWithProfit(uint256 tokenID) external override {\n        require (block.timestamp > _stakersPool[tokenID].stakingStartTime + THREE_MONTH, \"Funds are locked for 3 month\");\n        require (ownerOfNFT(tokenID) == _msgSender(), \"Not an NFT token owner\");\n       \n        IBmiDaiStaking.StakingInfo memory stakingInfo = _stakersPool[tokenID];\n\n        // transfer bmi profit from YieldGenerator to the user\n        bool success = bmiToken.transferFrom(address(defiYieldGenerator), _msgSender(), _stakersPool[tokenID].bmiProfit);\n        require(success, \"Failed to transfer BMI tokens\");\n\n        // transfer DAI from YieldGenerator to PolicyBook\n        success = daiToken.transferFrom(address(defiYieldGenerator), stakingInfo.policyBookAddress, stakingInfo.stakedDaiAmount);\n        require(success, \"Failed to transfer DAI tokens\");   \n\n        // transfer bmiDAIx from staking to the user\n        success = IERC20(stakingInfo.policyBookAddress).transfer(_msgSender(), stakingInfo.stakedDaiAmount);\n        require(success, \"Failed to transfer bmiDAIx tokens\");\n\n        _burn(_msgSender(), tokenID, 1);\n        delete _stakersPool[tokenID];\n    }\n\n    function increaseBmiProfit(uint256 tokenID, uint256 amount) external override onlyDefiYieldGenerator {        \n        _stakersPool[tokenID].bmiProfit = _stakersPool[tokenID].bmiProfit + amount;\n    }\n\n    function getStakingInfoByTokenID(uint256 tokenID) external view override returns (IBmiDaiStaking.StakingInfo memory _stakingInfo) {\n        require (_existsNFT(tokenID), \"NFT with such ID doesn't exist\");\n\n        return _stakersPool[tokenID];\n    }\n}\n",
  "sourcePath": "/home/artem/Projects/Distributed_Lab/Applicature/bridgemutual-core/contracts/BmiDAIStaking.sol",
  "compiler": {
    "name": "solc",
    "version": "0.7.4+commit.3f05b770.Emscripten.clang"
  },
  "schemaVersion": "3.3.3",
  "updatedAt": "2021-01-22T16:22:26.235Z",
  "networkType": "ethereum",
  "devdoc": {
    "kind": "dev",
    "methods": {
      "balanceOf(address,uint256)": {
        "details": "Returns the amount of tokens of token type `id` owned by `account`. Requirements: - `account` cannot be the zero address."
      },
      "balanceOfBatch(address[],uint256[])": {
        "details": "xref:ROOT:erc1155.adoc#batch-operations[Batched] version of {balanceOf}. Requirements: - `accounts` and `ids` must have the same length."
      },
      "isApprovedForAll(address,address)": {
        "details": "Returns true if `operator` is approved to transfer ``account``'s tokens. See {setApprovalForAll}."
      },
      "owner()": {
        "details": "Returns the address of the current owner."
      },
      "renounceOwnership()": {
        "details": "Leaves the contract without owner. It will not be possible to call `onlyOwner` functions anymore. Can only be called by the current owner. NOTE: Renouncing ownership will leave the contract without an owner, thereby removing any functionality that is only available to the owner."
      },
      "safeBatchTransferFrom(address,address,uint256[],uint256[],bytes)": {
        "details": "xref:ROOT:erc1155.adoc#batch-operations[Batched] version of {safeTransferFrom}. Emits a {TransferBatch} event. Requirements: - `ids` and `amounts` must have the same length. - If `to` refers to a smart contract, it must implement {IERC1155Receiver-onERC1155BatchReceived} and return the acceptance magic value."
      },
      "safeTransferFrom(address,address,uint256,uint256,bytes)": {
        "details": "Transfers `amount` tokens of token type `id` from `from` to `to`. Emits a {TransferSingle} event. Requirements: - `to` cannot be the zero address. - If the caller is not `from`, it must be have been approved to spend ``from``'s tokens via {setApprovalForAll}. - `from` must have a balance of tokens of type `id` of at least `amount`. - If `to` refers to a smart contract, it must implement {IERC1155Receiver-onERC1155Received} and return the acceptance magic value."
      },
      "setApprovalForAll(address,bool)": {
        "details": "Grants or revokes permission to `operator` to transfer the caller's tokens, according to `approved`, Emits an {ApprovalForAll} event. Requirements: - `operator` cannot be the caller."
      },
      "supportsInterface(bytes4)": {
        "details": "See {IERC165-supportsInterface}. Time complexity O(1), guaranteed to always use less than 30 000 gas."
      },
      "transferOwnership(address)": {
        "details": "Transfers ownership of the contract to a new account (`newOwner`). Can only be called by the current owner."
      }
    },
    "version": 1
  },
  "userdoc": {
    "kind": "user",
    "methods": {},
    "version": 1
  }
}