{
  "contractName": "BMIDAIStaking",
  "abi": [
    {
      "anonymous": false,
      "inputs": [
        {
          "indexed": true,
          "internalType": "address",
          "name": "previousOwner",
          "type": "address"
        },
        {
          "indexed": true,
          "internalType": "address",
          "name": "newOwner",
          "type": "address"
        }
      ],
      "name": "OwnershipTransferred",
      "type": "event"
    },
    {
      "anonymous": false,
      "inputs": [
        {
          "indexed": false,
          "internalType": "uint256",
          "name": "id",
          "type": "uint256"
        },
        {
          "indexed": false,
          "internalType": "address",
          "name": "policyBookAddress",
          "type": "address"
        }
      ],
      "name": "StakingNFTBurned",
      "type": "event"
    },
    {
      "anonymous": false,
      "inputs": [
        {
          "indexed": false,
          "internalType": "uint256",
          "name": "id",
          "type": "uint256"
        },
        {
          "indexed": false,
          "internalType": "address",
          "name": "policyBookAddress",
          "type": "address"
        },
        {
          "indexed": false,
          "internalType": "address",
          "name": "to",
          "type": "address"
        }
      ],
      "name": "StakingNFTMinted",
      "type": "event"
    },
    {
      "inputs": [],
      "name": "bmiToken",
      "outputs": [
        {
          "internalType": "contract IERC20",
          "name": "",
          "type": "address"
        }
      ],
      "stateMutability": "view",
      "type": "function"
    },
    {
      "inputs": [],
      "name": "contractsRegistry",
      "outputs": [
        {
          "internalType": "contract ContractsRegistry",
          "name": "",
          "type": "address"
        }
      ],
      "stateMutability": "view",
      "type": "function"
    },
    {
      "inputs": [],
      "name": "daiToken",
      "outputs": [
        {
          "internalType": "contract IERC20",
          "name": "",
          "type": "address"
        }
      ],
      "stateMutability": "view",
      "type": "function"
    },
    {
      "inputs": [],
      "name": "defiYieldGenerator",
      "outputs": [
        {
          "internalType": "contract DefiYieldGenerator",
          "name": "",
          "type": "address"
        }
      ],
      "stateMutability": "view",
      "type": "function"
    },
    {
      "inputs": [],
      "name": "owner",
      "outputs": [
        {
          "internalType": "address",
          "name": "",
          "type": "address"
        }
      ],
      "stateMutability": "view",
      "type": "function"
    },
    {
      "inputs": [],
      "name": "renounceOwnership",
      "outputs": [],
      "stateMutability": "nonpayable",
      "type": "function"
    },
    {
      "inputs": [
        {
          "internalType": "address",
          "name": "newOwner",
          "type": "address"
        }
      ],
      "name": "transferOwnership",
      "outputs": [],
      "stateMutability": "nonpayable",
      "type": "function"
    },
    {
      "inputs": [
        {
          "internalType": "contract ContractsRegistry",
          "name": "_contractsRegistry",
          "type": "address"
        }
      ],
      "name": "initRegistry",
      "outputs": [],
      "stateMutability": "nonpayable",
      "type": "function"
    },
    {
      "inputs": [
        {
          "internalType": "uint256",
          "name": "_amount",
          "type": "uint256"
        },
        {
          "internalType": "contract PolicyBook",
          "name": "_policyBook",
          "type": "address"
        }
      ],
      "name": "stakeDAIx",
      "outputs": [],
      "stateMutability": "nonpayable",
      "type": "function"
    },
    {
      "inputs": [
        {
          "internalType": "uint256",
          "name": "tokenID",
          "type": "uint256"
        }
      ],
      "name": "withdrawBMIProfit",
      "outputs": [],
      "stateMutability": "nonpayable",
      "type": "function"
    },
    {
      "inputs": [
        {
          "internalType": "uint256",
          "name": "tokenID",
          "type": "uint256"
        }
      ],
      "name": "withdrawFundsWithProfit",
      "outputs": [],
      "stateMutability": "nonpayable",
      "type": "function"
    },
    {
      "inputs": [
        {
          "internalType": "uint256",
          "name": "tokenID",
          "type": "uint256"
        }
      ],
      "name": "stakingInfoByToken",
      "outputs": [
        {
          "components": [
            {
              "internalType": "uint256",
              "name": "stakingStartTime",
              "type": "uint256"
            },
            {
              "internalType": "uint256",
              "name": "stakedDaiAmount",
              "type": "uint256"
            },
            {
              "internalType": "contract PolicyBook",
              "name": "policyBook",
              "type": "address"
            }
          ],
          "internalType": "struct BMIDAIStaking.StakingInfo",
          "name": "",
          "type": "tuple"
        }
      ],
      "stateMutability": "view",
      "type": "function"
    },
    {
      "inputs": [
        {
          "internalType": "address",
          "name": "owner",
          "type": "address"
        }
      ],
      "name": "howManyStakings",
      "outputs": [
        {
          "internalType": "uint256",
          "name": "",
          "type": "uint256"
        }
      ],
      "stateMutability": "view",
      "type": "function"
    },
    {
      "inputs": [
        {
          "internalType": "address",
          "name": "owner",
          "type": "address"
        }
      ],
      "name": "getStakingTokensByOwner",
      "outputs": [
        {
          "internalType": "uint256[]",
          "name": "",
          "type": "uint256[]"
        }
      ],
      "stateMutability": "view",
      "type": "function"
    }
  ],
  "bytecode": "0x6080604052600260075534801561001557600080fd5b50600061002061006f565b600080546001600160a01b0319166001600160a01b0383169081178255604051929350917f8be0079c531659141344cd1fd0a4f28419497f9722a3daafe3b4186f6b6457e0908290a350610073565b3390565b611e57806100826000396000f3fe608060405234801561001057600080fd5b50600436106100ea5760003560e01c8063a7fa3c7f1161008c578063d0a43afd11610066578063d0a43afd146101c0578063d77379f1146101d3578063d98d0c7e146101db578063f2fde38b146101e3576100ea565b8063a7fa3c7f14610192578063be22f546146101a5578063cd30a976146101ad576100ea565b806381927714116100c85780638192771414610142578063843fe5f0146101555780638da5cb5b1461016a57806396344eaf14610172576100ea565b806312ed9d29146100ef57806369c5408614610118578063715018a614610138575b600080fd5b6101026100fd3660046118e1565b6101f6565b60405161010f9190611d44565b60405180910390f35b61012b6101263660046118e1565b61024e565b60405161010f9190611aef565b6101406102f7565b005b610140610150366004611a1e565b6103c3565b61015d610547565b60405161010f9190611a4d565b61015d610556565b6101856101803660046119ee565b610565565b60405161010f9190611d1a565b6101406101a03660046119ee565b6105af565b61015d610b1c565b6101406101bb3660046119ee565b610b2b565b6101406101ce3660046118e1565b610d6d565b61015d6111f1565b61015d611200565b6101406101f13660046118e1565b61120f565b60006001600160a01b0382166102275760405162461bcd60e51b815260040161021e90611bbb565b60405180910390fd5b6001600160a01b038216600090815260056020526040902061024890611331565b92915050565b6060600061025b836101f6565b905060608167ffffffffffffffff8111801561027657600080fd5b506040519080825280602002602001820160405280156102a0578160200160208202803683370190505b50905060005b828110156102ef576001600160a01b03851660009081526005602052604090206102d0908261133c565b8282815181106102dc57fe5b60209081029190910101526001016102a6565b509392505050565b6102ff61134f565b6000546001600160a01b03908116911614610361576040805162461bcd60e51b815260206004820181905260248201527f4f776e61626c653a2063616c6c6572206973206e6f7420746865206f776e6572604482015290519081900360640190fd5b600080546040516001600160a01b03909116907f8be0079c531659141344cd1fd0a4f28419497f9722a3daafe3b4186f6b6457e0908390a3600080547fffffffffffffffffffffffff0000000000000000000000000000000000000000169055565b600254600480546040517f23b872dd0000000000000000000000000000000000000000000000000000000081526000936001600160a01b03908116936323b872dd9361041793889390911691899101611a61565b602060405180830381600087803b15801561043157600080fd5b505af1158015610445573d6000803e3d6000fd5b505050506040513d601f19601f820116820180604052508101906104699190611919565b9050806104885760405162461bcd60e51b815260040161021e90611c18565b816001600160a01b03166323b872dd61049f61134f565b30866040518463ffffffff1660e01b81526004016104bf93929190611a61565b602060405180830381600087803b1580156104d957600080fd5b505af11580156104ed573d6000803e3d6000fd5b505050506040513d601f19601f820116820180604052508101906105119190611919565b9050806105305760405162461bcd60e51b815260040161021e90611cbd565b61054261053b61134f565b8484611353565b505050565b6004546001600160a01b031681565b6000546001600160a01b031690565b61056d6118b7565b50600090815260066020908152604091829020825160608101845281548152600182015492810192909252600201546001600160a01b03169181019190915290565b6000818152600660205260409020546276a7000142116105e15760405162461bcd60e51b815260040161021e90611c4f565b6105e961134f565b600082815260066020526040908190206002015490517f2d8a746e0000000000000000000000000000000000000000000000000000000081526001600160a01b039283169290911690632d8a746e90610646908590600401611d44565b60206040518083038186803b15801561065e57600080fd5b505afa158015610672573d6000803e3d6000fd5b505050506040513d601f19601f8201168201806040525081019061069691906118fd565b6001600160a01b0316146106bc5760405162461bcd60e51b815260040161021e90611b84565b6106c46118b7565b506000818152600660209081526040808320815160608101835281548152600182015493810193909352600201546001600160a01b0390811691830191909152600354600454929392908216916323b872dd911661072061134f565b6004805460008981526006602052604090819020805460019091015491517ff6b15fe60000000000000000000000000000000000000000000000000000000081526001600160a01b039093169363f6b15fe69361077e939101611d83565b602060405180830381600087803b15801561079857600080fd5b505af11580156107ac573d6000803e3d6000fd5b505050506040513d601f19601f820116820180604052508101906107d09190611a06565b6040518463ffffffff1660e01b81526004016107ee93929190611a61565b602060405180830381600087803b15801561080857600080fd5b505af115801561081c573d6000803e3d6000fd5b505050506040513d601f19601f820116820180604052508101906108409190611919565b90508061085f5760405162461bcd60e51b815260040161021e90611c86565b60025460048054604080860151602087015191517f23b872dd0000000000000000000000000000000000000000000000000000000081526001600160a01b03958616956323b872dd956108b795909116939101611a61565b602060405180830381600087803b1580156108d157600080fd5b505af11580156108e5573d6000803e3d6000fd5b505050506040513d601f19601f820116820180604052508101906109099190611919565b9050806109285760405162461bcd60e51b815260040161021e90611c18565b81604001516001600160a01b031663a9059cbb61094361134f565b84602001516040518363ffffffff1660e01b8152600401610965929190611a85565b602060405180830381600087803b15801561097f57600080fd5b505af1158015610993573d6000803e3d6000fd5b505050506040513d601f19601f820116820180604052508101906109b79190611919565b9050806109d65760405162461bcd60e51b815260040161021e90611cbd565b6000838152600660205260409020600201546001600160a01b0316631cc509fd6109fe61134f565b8560016040518463ffffffff1660e01b8152600401610a1f93929190611a9e565b600060405180830381600087803b158015610a3957600080fd5b505af1158015610a4d573d6000803e3d6000fd5b50505050610a808360056000610a6161134f565b6001600160a01b031681526020810191909152604001600020906116f1565b50600083815260066020526040908190206002015490517f86ef8fcef996b7ddf091f470e8f3ab619ca323d0aa2329e3d0f7c00d0d7f8c0191610ace9186916001600160a01b031690611d4d565b60405180910390a150506000908152600660205260408120818155600181019190915560020180547fffffffffffffffffffffffff0000000000000000000000000000000000000000169055565b6002546001600160a01b031681565b610b3361134f565b600082815260066020526040908190206002015490517f2d8a746e0000000000000000000000000000000000000000000000000000000081526001600160a01b039283169290911690632d8a746e90610b90908590600401611d44565b60206040518083038186803b158015610ba857600080fd5b505afa158015610bbc573d6000803e3d6000fd5b505050506040513d601f19601f82011682018060405250810190610be091906118fd565b6001600160a01b031614610c065760405162461bcd60e51b815260040161021e90611b84565b6003546004546000916001600160a01b03908116916323b872dd9116610c2a61134f565b6004805460008881526006602052604090819020805460019091015491517ff6b15fe60000000000000000000000000000000000000000000000000000000081526001600160a01b039093169363f6b15fe693610c88939101611d83565b602060405180830381600087803b158015610ca257600080fd5b505af1158015610cb6573d6000803e3d6000fd5b505050506040513d601f19601f82011682018060405250810190610cda9190611a06565b6040518463ffffffff1660e01b8152600401610cf893929190611a61565b602060405180830381600087803b158015610d1257600080fd5b505af1158015610d26573d6000803e3d6000fd5b505050506040513d601f19601f82011682018060405250810190610d4a9190611919565b905080610d695760405162461bcd60e51b815260040161021e90611c86565b5050565b610d7561134f565b6000546001600160a01b03908116911614610dd7576040805162461bcd60e51b815260206004820181905260248201527f4f776e61626c653a2063616c6c6572206973206e6f7420746865206f776e6572604482015290519081900360640190fd5b600180547fffffffffffffffffffffffff0000000000000000000000000000000000000000166001600160a01b038316908117909155604080517fa45611b60000000000000000000000000000000000000000000000000000000081529051633581777391839163a45611b691600480820192600092909190829003018186803b158015610e6457600080fd5b505afa158015610e78573d6000803e3d6000fd5b505050506040513d6000823e601f3d9081017fffffffffffffffffffffffffffffffffffffffffffffffffffffffffffffffe0168201604052610ebe9190810190611939565b6040518263ffffffff1660e01b8152600401610eda9190611b33565b60206040518083038186803b158015610ef257600080fd5b505afa158015610f06573d6000803e3d6000fd5b505050506040513d601f19601f82011682018060405250810190610f2a91906118fd565b600260006101000a8154816001600160a01b0302191690836001600160a01b03160217905550806001600160a01b03166335817773826001600160a01b03166327c300af6040518163ffffffff1660e01b815260040160006040518083038186803b158015610f9857600080fd5b505afa158015610fac573d6000803e3d6000fd5b505050506040513d6000823e601f3d9081017fffffffffffffffffffffffffffffffffffffffffffffffffffffffffffffffe0168201604052610ff29190810190611939565b6040518263ffffffff1660e01b815260040161100e9190611b33565b60206040518083038186803b15801561102657600080fd5b505afa15801561103a573d6000803e3d6000fd5b505050506040513d601f19601f8201168201806040525081019061105e91906118fd565b600380547fffffffffffffffffffffffff0000000000000000000000000000000000000000166001600160a01b03928316179055600154604080517fc0ed452f00000000000000000000000000000000000000000000000000000000815290519190921691633581777391839163c0ed452f916004808301926000929190829003018186803b1580156110f057600080fd5b505afa158015611104573d6000803e3d6000fd5b505050506040513d6000823e601f3d9081017fffffffffffffffffffffffffffffffffffffffffffffffffffffffffffffffe016820160405261114a9190810190611939565b6040518263ffffffff1660e01b81526004016111669190611b33565b60206040518083038186803b15801561117e57600080fd5b505afa158015611192573d6000803e3d6000fd5b505050506040513d601f19601f820116820180604052508101906111b691906118fd565b600480547fffffffffffffffffffffffff0000000000000000000000000000000000000000166001600160a01b039290921691909117905550565b6003546001600160a01b031681565b6001546001600160a01b031681565b61121761134f565b6000546001600160a01b03908116911614611279576040805162461bcd60e51b815260206004820181905260248201527f4f776e61626c653a2063616c6c6572206973206e6f7420746865206f776e6572604482015290519081900360640190fd5b6001600160a01b0381166112be5760405162461bcd60e51b8152600401808060200182810382526026815260200180611dfc6026913960400191505060405180910390fd5b600080546040516001600160a01b03808516939216917f8be0079c531659141344cd1fd0a4f28419497f9722a3daafe3b4186f6b6457e091a3600080547fffffffffffffffffffffffff0000000000000000000000000000000000000000166001600160a01b0392909216919091179055565b6000610248826116fd565b60006113488383611701565b9392505050565b3390565b6040517ff5b100ea0000000000000000000000000000000000000000000000000000000081526000906001600160a01b0383169063f5b100ea9061139b908790600401611a4d565b60206040518083038186803b1580156113b357600080fd5b505afa1580156113c7573d6000803e3d6000fd5b505050506040513d601f19601f820116820180604052508101906113eb9190611a06565b90508260005b82811015611595576040517f1dcb46f60000000000000000000000000000000000000000000000000000000081526000906001600160a01b03861690631dcb46f690611443908a908690600401611a85565b60206040518083038186803b15801561145b57600080fd5b505afa15801561146f573d6000803e3d6000fd5b505050506040513d601f19601f820116820180604052508101906114939190611a06565b6000818152600660205260409081902060019081015491517f1cc509fd00000000000000000000000000000000000000000000000000000000815295909101949192506001600160a01b03871691631cc509fd916114f7918b918691600401611a9e565b600060405180830381600087803b15801561151157600080fd5b505af1158015611525573d6000803e3d6000fd5b5050506001600160a01b038816600090815260056020526040902061154b9150826116f1565b50600090815260066020526040812081815560018082019290925560020180547fffffffffffffffffffffffff0000000000000000000000000000000000000000169055016113f1565b506007546040517f4b6411810000000000000000000000000000000000000000000000000000000081526001600160a01b03851691634b641181916115e1918991600190600401611abf565b600060405180830381600087803b1580156115fb57600080fd5b505af115801561160f573d6000803e3d6000fd5b50506040805160608101825242815260208082018681526001600160a01b038981168486019081526007805460009081526006865287812096518755935160018701559051600290950180547fffffffffffffffffffffffff000000000000000000000000000000000000000016958316959095179094559254928b1681526005909152919091206116a393509150611765565b507f36200d06a5134b8842f6a7aee4c9a2a2e4834bf38af1eb011719654f03449d1660075484876040516116d993929190611d64565b60405180910390a15050600780546001019055505050565b60006113488383611771565b5490565b815460009082106117435760405162461bcd60e51b8152600401808060200182810382526022815260200180611dda6022913960400191505060405180910390fd5b82600001828154811061175257fe5b9060005260206000200154905092915050565b60006113488383611855565b6000818152600183016020526040812054801561184b5783547fffffffffffffffffffffffffffffffffffffffffffffffffffffffffffffffff80830191908101906000908790839081106117c257fe5b90600052602060002001549050808760000184815481106117df57fe5b60009182526020808320909101929092558281526001898101909252604090209084019055865487908061180f57fe5b60019003818190600052602060002001600090559055866001016000878152602001908152602001600020600090556001945050505050610248565b6000915050610248565b6000611861838361189f565b61189757508154600181810184556000848152602080822090930184905584548482528286019093526040902091909155610248565b506000610248565b60009081526001919091016020526040902054151590565b6040518060600160405280600081526020016000815260200160006001600160a01b031681525090565b6000602082840312156118f2578081fd5b813561134881611dc1565b60006020828403121561190e578081fd5b815161134881611dc1565b60006020828403121561192a578081fd5b81518015158114611348578182fd5b60006020828403121561194a578081fd5b815167ffffffffffffffff80821115611961578283fd5b818401915084601f830112611974578283fd5b81518181111561198057fe5b60405160207fffffffffffffffffffffffffffffffffffffffffffffffffffffffffffffffe0601f84011682010181811084821117156119bc57fe5b6040528181528382016020018710156119d3578485fd5b6119e4826020830160208701611d91565b9695505050505050565b6000602082840312156119ff578081fd5b5035919050565b600060208284031215611a17578081fd5b5051919050565b60008060408385031215611a30578081fd5b823591506020830135611a4281611dc1565b809150509250929050565b6001600160a01b0391909116815260200190565b6001600160a01b039384168152919092166020820152604081019190915260600190565b6001600160a01b03929092168252602082015260400190565b6001600160a01b039390931683526020830191909152604082015260600190565b6001600160a01b039390931683526020830191909152604082015260806060820181905260009082015260a00190565b6020808252825182820181905260009190848201906040850190845b81811015611b2757835183529284019291840191600101611b0b565b50909695505050505050565b6000602082528251806020840152611b52816040850160208701611d91565b601f017fffffffffffffffffffffffffffffffffffffffffffffffffffffffffffffffe0169190910160400192915050565b60208082526016908201527f4e6f7420616e204e465420746f6b656e206f776e657200000000000000000000604082015260600190565b6020808252602b908201527f455243313135353a2062616c616e636520717565727920666f7220746865207a60408201527f65726f2061646472657373000000000000000000000000000000000000000000606082015260800190565b6020808252601d908201527f4661696c656420746f207472616e736665722044414920746f6b656e73000000604082015260600190565b6020808252601c908201527f46756e647320617265206c6f636b656420666f722033206d6f6e746800000000604082015260600190565b6020808252601d908201527f4661696c656420746f207472616e7366657220424d4920746f6b656e73000000604082015260600190565b60208082526021908201527f4661696c656420746f207472616e7366657220626d694441497820746f6b656e60408201527f7300000000000000000000000000000000000000000000000000000000000000606082015260800190565b81518152602080830151908201526040918201516001600160a01b03169181019190915260600190565b90815260200190565b9182526001600160a01b0316602082015260400190565b9283526001600160a01b03918216602084015216604082015260600190565b918252602082015260400190565b60005b83811015611dac578181015183820152602001611d94565b83811115611dbb576000848401525b50505050565b6001600160a01b0381168114611dd657600080fd5b5056fe456e756d657261626c655365743a20696e646578206f7574206f6620626f756e64734f776e61626c653a206e6577206f776e657220697320746865207a65726f2061646472657373a26469706673582212202de3388d0812b26f81951f02d15243adf27dffc892eff13b18575750c58a149564736f6c63430007040033",
  "immutableReferences": {},
  "source": "// SPDX-License-Identifier: MIT\npragma solidity ^0.7.4;\npragma experimental ABIEncoderV2;\n\nimport \"@openzeppelin/contracts/utils/EnumerableSet.sol\";\nimport \"@openzeppelin/contracts/access/Ownable.sol\";\n\nimport \"./PolicyBook.sol\";\nimport \"./ContractsRegistry.sol\";\nimport \"./DefiYieldGenerator.sol\";\n\ncontract BMIDAIStaking is Ownable {\n    struct StakingInfo {\n        uint256 stakingStartTime;\n        uint256 stakedDaiAmount;\n        PolicyBook policyBook;\n    }\n\n    using EnumerableSet for EnumerableSet.UintSet;\n\n    uint256 constant private THREE_MONTH = 3 * 30 days;\n    \n    ContractsRegistry public contractsRegistry;\n\n    IERC20 public daiToken;\n    IERC20 public bmiToken;\n    DefiYieldGenerator public defiYieldGenerator;\n    \n    mapping (address => EnumerableSet.UintSet) private _holderTokens;\n    mapping(uint256 => StakingInfo) private _stakersPool; // NFT => INFO\n    \n    /// @dev crutial to start from 2\n    uint256 private _currentNFTMintID = 2; \n\n    event StakingNFTMinted(uint256 id, address policyBookAddress, address to);\n    event StakingNFTBurned(uint256 id, address policyBookAddress);\n\n    modifier onlyDefiYieldGenerator() {\n        require (_msgSender() == address(defiYieldGenerator), \"Only generator is allowed to increase profit\");\n        _;\n    }\n\n    function initRegistry(ContractsRegistry _contractsRegistry) external onlyOwner {\n        contractsRegistry = _contractsRegistry;\n\n        daiToken = IERC20(_contractsRegistry.getContract(_contractsRegistry.getDAIName()));\n        bmiToken = IERC20(_contractsRegistry.getContract(_contractsRegistry.getBMIName()));\n        defiYieldGenerator = DefiYieldGenerator(contractsRegistry.getContract(contractsRegistry.getYieldGeneratorName()));\n    }\n\n    function _mintNFT(\n        address _staker,        \n        uint256 _amount,\n        PolicyBook _policyBook\n    ) private {             \n        uint256 stakerBalance = _policyBook.balanceOfNFT(_staker);\n        uint256 totalAmount = _amount;\n\n        for (uint256 i = 0; i < stakerBalance; i++) {\n            uint256 tokenID = _policyBook.tokenOfOwnerByIndexNFT(_staker, i);            \n            \n            totalAmount += _stakersPool[tokenID].stakedDaiAmount;\n                \n            _policyBook.burnNFT(_staker, tokenID, 1);\n            _holderTokens[_staker].remove(tokenID);\n            delete _stakersPool[tokenID];\n        }\n\n        _policyBook.mintNFT(_staker, _currentNFTMintID, 1, \"\");\n\n        _stakersPool[_currentNFTMintID] = StakingInfo(block.timestamp, totalAmount, _policyBook);\n        _holderTokens[_staker].add(_currentNFTMintID);\n\n        emit StakingNFTMinted(_currentNFTMintID, address(_policyBook), _staker);\n\n        _currentNFTMintID++;\n    }    \n\n    function stakeDAIx(uint256 _amount, PolicyBook _policyBook) external {\n        // transfer DAI from PolicyBook to yield generator\n        bool success = daiToken.transferFrom(address(_policyBook), address(defiYieldGenerator), _amount);        \n        require(success, \"Failed to transfer DAI tokens\");\n\n        // transfer bmiDAIx from user to staking\n        success = _policyBook.transferFrom(_msgSender(), address(this), _amount);        \n        require(success, \"Failed to transfer bmiDAIx tokens\");\n\n        _mintNFT(_msgSender(), _amount, _policyBook);\n    }\n\n    function withdrawBMIProfit(uint256 tokenID) external {\n        require (_stakersPool[tokenID].policyBook.ownerOfNFT(tokenID) == _msgSender(), \"Not an NFT token owner\");\n\n        // transfer bmi profit from YieldGenerator to user\n        bool success = bmiToken.transferFrom(address(defiYieldGenerator), _msgSender(), defiYieldGenerator.getProfit(_stakersPool[tokenID].stakingStartTime, _stakersPool[tokenID].stakedDaiAmount));\n        require(success, \"Failed to transfer BMI tokens\");\n    }\n\n    function withdrawFundsWithProfit(uint256 tokenID) external {\n        require (block.timestamp > _stakersPool[tokenID].stakingStartTime + THREE_MONTH, \"Funds are locked for 3 month\");\n        require (_stakersPool[tokenID].policyBook.ownerOfNFT(tokenID) == _msgSender(), \"Not an NFT token owner\");\n       \n        StakingInfo memory stakingInfo = _stakersPool[tokenID];\n\n        // transfer bmi profit from YieldGenerator to user\n        bool success = bmiToken.transferFrom(address(defiYieldGenerator), _msgSender(), defiYieldGenerator.getProfit(_stakersPool[tokenID].stakingStartTime, _stakersPool[tokenID].stakedDaiAmount));\n        require(success, \"Failed to transfer BMI tokens\");\n\n        // transfer DAI from YieldGenerator to PolicyBook\n        success = daiToken.transferFrom(address(defiYieldGenerator), address(stakingInfo.policyBook), stakingInfo.stakedDaiAmount);\n        require(success, \"Failed to transfer DAI tokens\");   \n\n        // transfer bmiDAIx from staking to the user\n        success = stakingInfo.policyBook.transfer(_msgSender(), stakingInfo.stakedDaiAmount);\n        require(success, \"Failed to transfer bmiDAIx tokens\");\n\n        _stakersPool[tokenID].policyBook.burnNFT(_msgSender(), tokenID, 1);\n        \n        _holderTokens[_msgSender()].remove(tokenID);\n\n        emit StakingNFTBurned(tokenID, address(_stakersPool[tokenID].policyBook));\n\n        delete _stakersPool[tokenID];        \n    }       \n\n    function stakingInfoByToken(uint256 tokenID) public view returns (StakingInfo memory) {\n        return _stakersPool[tokenID];\n    }\n\n    function howManyStakings(address owner) public view returns (uint256) {\n        require(owner != address(0), \"ERC1155: balance query for the zero address\");\n\n        return _holderTokens[owner].length();\n    }\n\n    function getStakingTokensByOwner(address owner) public view returns (uint256[] memory) {\n        uint256 size = howManyStakings(owner);\n        \n        uint256[] memory tokens = new uint256[](size);\n\n        for (uint256 i = 0; i < size; i++)\n        {\n            tokens[i] = _holderTokens[owner].at(i);\n        }\n\n        return tokens;          \n    }\n}\n",
  "sourcePath": "/home/artem/Projects/Distributed_Lab/Applicature/bridgemutual-core/contracts/BMIDAIStaking.sol",
  "compiler": {
    "name": "solc",
    "version": "0.7.4+commit.3f05b770.Emscripten.clang"
  },
  "schemaVersion": "3.3.3",
  "updatedAt": "2021-01-26T15:28:29.537Z",
  "devdoc": {
    "kind": "dev",
    "methods": {
      "owner()": {
        "details": "Returns the address of the current owner."
      },
      "renounceOwnership()": {
        "details": "Leaves the contract without owner. It will not be possible to call `onlyOwner` functions anymore. Can only be called by the current owner. NOTE: Renouncing ownership will leave the contract without an owner, thereby removing any functionality that is only available to the owner."
      },
      "transferOwnership(address)": {
        "details": "Transfers ownership of the contract to a new account (`newOwner`). Can only be called by the current owner."
      }
    },
    "stateVariables": {
      "_currentNFTMintID": {
        "details": "crutial to start from 2"
      }
    },
    "version": 1
  },
  "userdoc": {
    "kind": "user",
    "methods": {},
    "version": 1
  }
}