{
  "contractName": "BmiDAIStaking",
  "abi": [
    {
      "inputs": [],
      "stateMutability": "nonpayable",
      "type": "constructor"
    },
    {
      "anonymous": false,
      "inputs": [
        {
          "indexed": true,
          "internalType": "address",
          "name": "account",
          "type": "address"
        },
        {
          "indexed": true,
          "internalType": "address",
          "name": "operator",
          "type": "address"
        },
        {
          "indexed": false,
          "internalType": "bool",
          "name": "approved",
          "type": "bool"
        }
      ],
      "name": "ApprovalForAll",
      "type": "event"
    },
    {
      "anonymous": false,
      "inputs": [
        {
          "indexed": true,
          "internalType": "address",
          "name": "operator",
          "type": "address"
        },
        {
          "indexed": true,
          "internalType": "address",
          "name": "from",
          "type": "address"
        },
        {
          "indexed": true,
          "internalType": "address",
          "name": "to",
          "type": "address"
        },
        {
          "indexed": false,
          "internalType": "uint256[]",
          "name": "ids",
          "type": "uint256[]"
        },
        {
          "indexed": false,
          "internalType": "uint256[]",
          "name": "values",
          "type": "uint256[]"
        }
      ],
      "name": "TransferBatch",
      "type": "event"
    },
    {
      "anonymous": false,
      "inputs": [
        {
          "indexed": true,
          "internalType": "address",
          "name": "operator",
          "type": "address"
        },
        {
          "indexed": true,
          "internalType": "address",
          "name": "from",
          "type": "address"
        },
        {
          "indexed": true,
          "internalType": "address",
          "name": "to",
          "type": "address"
        },
        {
          "indexed": false,
          "internalType": "uint256",
          "name": "id",
          "type": "uint256"
        },
        {
          "indexed": false,
          "internalType": "uint256",
          "name": "value",
          "type": "uint256"
        }
      ],
      "name": "TransferSingle",
      "type": "event"
    },
    {
      "anonymous": false,
      "inputs": [
        {
          "indexed": false,
          "internalType": "string",
          "name": "value",
          "type": "string"
        },
        {
          "indexed": true,
          "internalType": "uint256",
          "name": "id",
          "type": "uint256"
        }
      ],
      "name": "URI",
      "type": "event"
    },
    {
      "inputs": [
        {
          "internalType": "address",
          "name": "account",
          "type": "address"
        },
        {
          "internalType": "uint256",
          "name": "id",
          "type": "uint256"
        }
      ],
      "name": "balanceOf",
      "outputs": [
        {
          "internalType": "uint256",
          "name": "",
          "type": "uint256"
        }
      ],
      "stateMutability": "view",
      "type": "function"
    },
    {
      "inputs": [
        {
          "internalType": "address[]",
          "name": "accounts",
          "type": "address[]"
        },
        {
          "internalType": "uint256[]",
          "name": "ids",
          "type": "uint256[]"
        }
      ],
      "name": "balanceOfBatch",
      "outputs": [
        {
          "internalType": "uint256[]",
          "name": "",
          "type": "uint256[]"
        }
      ],
      "stateMutability": "view",
      "type": "function"
    },
    {
      "inputs": [
        {
          "internalType": "address",
          "name": "account",
          "type": "address"
        },
        {
          "internalType": "address",
          "name": "operator",
          "type": "address"
        }
      ],
      "name": "isApprovedForAll",
      "outputs": [
        {
          "internalType": "bool",
          "name": "",
          "type": "bool"
        }
      ],
      "stateMutability": "view",
      "type": "function"
    },
    {
      "inputs": [
        {
          "internalType": "uint256",
          "name": "tokenId",
          "type": "uint256"
        }
      ],
      "name": "ownerOf",
      "outputs": [
        {
          "internalType": "address",
          "name": "",
          "type": "address"
        }
      ],
      "stateMutability": "view",
      "type": "function"
    },
    {
      "inputs": [
        {
          "internalType": "address",
          "name": "from",
          "type": "address"
        },
        {
          "internalType": "address",
          "name": "to",
          "type": "address"
        },
        {
          "internalType": "uint256[]",
          "name": "ids",
          "type": "uint256[]"
        },
        {
          "internalType": "uint256[]",
          "name": "amounts",
          "type": "uint256[]"
        },
        {
          "internalType": "bytes",
          "name": "data",
          "type": "bytes"
        }
      ],
      "name": "safeBatchTransferFrom",
      "outputs": [],
      "stateMutability": "nonpayable",
      "type": "function"
    },
    {
      "inputs": [
        {
          "internalType": "address",
          "name": "from",
          "type": "address"
        },
        {
          "internalType": "address",
          "name": "to",
          "type": "address"
        },
        {
          "internalType": "uint256",
          "name": "id",
          "type": "uint256"
        },
        {
          "internalType": "uint256",
          "name": "amount",
          "type": "uint256"
        },
        {
          "internalType": "bytes",
          "name": "data",
          "type": "bytes"
        }
      ],
      "name": "safeTransferFrom",
      "outputs": [],
      "stateMutability": "nonpayable",
      "type": "function"
    },
    {
      "inputs": [
        {
          "internalType": "address",
          "name": "operator",
          "type": "address"
        },
        {
          "internalType": "bool",
          "name": "approved",
          "type": "bool"
        }
      ],
      "name": "setApprovalForAll",
      "outputs": [],
      "stateMutability": "nonpayable",
      "type": "function"
    },
    {
      "inputs": [
        {
          "internalType": "bytes4",
          "name": "interfaceId",
          "type": "bytes4"
        }
      ],
      "name": "supportsInterface",
      "outputs": [
        {
          "internalType": "bool",
          "name": "",
          "type": "bool"
        }
      ],
      "stateMutability": "view",
      "type": "function"
    },
    {
      "inputs": [
        {
          "internalType": "address",
          "name": "owner",
          "type": "address"
        },
        {
          "internalType": "uint256",
          "name": "index",
          "type": "uint256"
        }
      ],
      "name": "tokenOfOwnerByIndex",
      "outputs": [
        {
          "internalType": "uint256",
          "name": "",
          "type": "uint256"
        }
      ],
      "stateMutability": "view",
      "type": "function"
    },
    {
      "inputs": [
        {
          "internalType": "address",
          "name": "owner",
          "type": "address"
        }
      ],
      "name": "totalBalanceOf",
      "outputs": [
        {
          "internalType": "uint256",
          "name": "",
          "type": "uint256"
        }
      ],
      "stateMutability": "view",
      "type": "function"
    },
    {
      "inputs": [],
      "name": "totalSupply",
      "outputs": [
        {
          "internalType": "uint256",
          "name": "",
          "type": "uint256"
        }
      ],
      "stateMutability": "view",
      "type": "function"
    },
    {
      "inputs": [
        {
          "internalType": "uint256",
          "name": "",
          "type": "uint256"
        }
      ],
      "name": "uri",
      "outputs": [
        {
          "internalType": "string",
          "name": "",
          "type": "string"
        }
      ],
      "stateMutability": "view",
      "type": "function"
    },
    {
      "inputs": [
        {
          "internalType": "uint256",
          "name": "_amount",
          "type": "uint256"
        },
        {
          "internalType": "address",
          "name": "_policyBookAddress",
          "type": "address"
        }
      ],
      "name": "stakeDAIx",
      "outputs": [],
      "stateMutability": "nonpayable",
      "type": "function"
    },
    {
      "inputs": [],
      "name": "withdrawProfit",
      "outputs": [],
      "stateMutability": "nonpayable",
      "type": "function"
    }
  ],
  "bytecode": "0x608060405260016008553480156200001657600080fd5b50604080516020810190915260008152620000386301ffc9a760e01b6200006e565b6200004381620000f3565b62000055636cdb3d1360e11b6200006e565b620000676303a24d0760e21b6200006e565b50620001b8565b6001600160e01b03198082161415620000ce576040805162461bcd60e51b815260206004820152601c60248201527f4552433136353a20696e76616c696420696e7465726661636520696400000000604482015290519081900360640190fd5b6001600160e01b0319166000908152602081905260409020805460ff19166001179055565b8051620001089060069060208401906200010c565b5050565b828054600181600116156101000203166002900490600052602060002090601f0160209004810192826200014457600085556200018f565b82601f106200015f57805160ff19168380011785556200018f565b828001600101855582156200018f579182015b828111156200018f57825182559160200191906001019062000172565b506200019d929150620001a1565b5090565b5b808211156200019d5760008155600101620001a2565b61250d80620001c86000396000f3fe608060405234801561001057600080fd5b50600436106100e95760003560e01c80634e1273f41161008c578063959499b611610066578063959499b6146101ed578063a22cb465146101f5578063e985e9c514610208578063f242432a1461021b576100e9565b80634e1273f41461019a5780636352211e146101ba57806381927714146101da576100e9565b806318160ddd116100c857806318160ddd146101575780632eb2c2d61461015f5780632f745c59146101745780634b0ee02a14610187576100e9565b8062fdd58e146100ee57806301ffc9a7146101175780630e89341c14610137575b600080fd5b6101016100fc366004611aa0565b61022e565b60405161010e91906122cc565b60405180910390f35b61012a610125366004611b8a565b61028a565b60405161010e9190611dad565b61014a610145366004611bc2565b6102c5565b60405161010e9190611db8565b61010161037b565b61017261016d36600461195d565b61038d565b005b610101610182366004611aa0565b61060f565b610101610195366004611911565b610638565b6101ad6101a8366004611ac9565b610681565b60405161010e9190611d6c565b6101cd6101c8366004611bc2565b6107c1565b60405161010e9190611cb7565b6101726101e8366004611bf2565b6107e9565b6101726108a1565b610172610203366004611a66565b6108a3565b61012a61021636600461192b565b61098f565b610172610229366004611a03565b6109bd565b60006001600160a01b03831661025f5760405162461bcd60e51b815260040161025690611e85565b60405180910390fd5b5060008181526001602090815260408083206001600160a01b03861684529091529020545b92915050565b7fffffffff00000000000000000000000000000000000000000000000000000000811660009081526020819052604090205460ff165b919050565b60068054604080516020601f60027fffffffffffffffffffffffffffffffffffffffffffffffffffffffffffffffff61010060018816150201909516949094049384018190048102820181019092528281526060939092909183018282801561036f5780601f106103445761010080835404028352916020019161036f565b820191906000526020600020905b81548152906001019060200180831161035257829003601f168201915b50505050509050919050565b60006103876004610ba4565b90505b90565b81518351146103ae5760405162461bcd60e51b8152600401610256906121db565b6001600160a01b0384166103d45760405162461bcd60e51b81526004016102569061200a565b6103dc610baf565b6001600160a01b0316856001600160a01b03161480610402575061040285610216610baf565b61041e5760405162461bcd60e51b815260040161025690612067565b6000610428610baf565b9050610438818787878787610607565b60005b84518110156105a157600085828151811061045257fe5b60200260200101519050600085838151811061046a57fe5b602002602001015190506104ab82600360008c6001600160a01b03166001600160a01b03168152602001908152602001600020610bb390919063ffffffff16565b506001600160a01b03881660009081526003602052604090206104ce9083610bbf565b506104db6004838a610bcb565b5061053f816040518060600160405280602a81526020016124ae602a91396001600086815260200190815260200160002060008d6001600160a01b03166001600160a01b0316815260200190815260200160002054610be99092919063ffffffff16565b60008381526001602090815260408083206001600160a01b038e811685529252808320939093558a16815220546105769082610c80565b60009283526001602081815260408086206001600160a01b038d16875290915290932055500161043b565b50846001600160a01b0316866001600160a01b0316826001600160a01b03167f4a39dc06d4c0dbc64b70af90fd698a233a518aa5d07e595d983b8c0526c8f7fb87876040516105f1929190611d7f565b60405180910390a4610607818787878787610cda565b505050505050565b6001600160a01b03821660009081526003602052604081206106319083610e59565b9392505050565b60006001600160a01b0382166106605760405162461bcd60e51b815260040161025690611e85565b6001600160a01b038216600090815260036020526040902061028490610ba4565b606081518351146106a45760405162461bcd60e51b81526004016102569061217e565b6060835167ffffffffffffffff811180156106be57600080fd5b506040519080825280602002602001820160405280156106e8578160200160208202803683370190505b50905060005b84518110156107b95760006001600160a01b031685828151811061070e57fe5b60200260200101516001600160a01b0316141561073d5760405162461bcd60e51b815260040161025690611ee2565b6001600085838151811061074d57fe5b60200260200101518152602001908152602001600020600086838151811061077157fe5b60200260200101516001600160a01b03166001600160a01b03168152602001908152602001600020548282815181106107a657fe5b60209081029190910101526001016106ee565b509392505050565b6000610284826040518060600160405280602a8152602001612484602a913960049190610e65565b806001600160a01b03166370a08231610800610baf565b6040518263ffffffff1660e01b815260040161081c9190611cb7565b60206040518083038186803b15801561083457600080fd5b505afa158015610848573d6000803e3d6000fd5b505050506040513d601f19601f8201168201806040525081019061086c9190611bda565b82111561088b5760405162461bcd60e51b815260040161025690611fd3565b61089d610896610baf565b8383610e72565b5050565b565b816001600160a01b03166108b5610baf565b6001600160a01b031614156108dc5760405162461bcd60e51b815260040161025690612121565b80600260006108e9610baf565b6001600160a01b0390811682526020808301939093526040918201600090812091871680825291909352912080547fffffffffffffffffffffffffffffffffffffffffffffffffffffffffffffff00169215159290921790915561094b610baf565b6001600160a01b03167f17307eab39ab6107e8899845ad3d59bd9653f200f220920489ca2b5937696c31836040516109839190611dad565b60405180910390a35050565b6001600160a01b03918216600090815260026020908152604080832093909416825291909152205460ff1690565b6001600160a01b0384166109e35760405162461bcd60e51b81526004016102569061200a565b6109eb610baf565b6001600160a01b0316856001600160a01b03161480610a115750610a1185610216610baf565b610a2d5760405162461bcd60e51b815260040161025690611f76565b6000610a37610baf565b9050610a57818787610a4888610fd6565b610a5188610fd6565b87610607565b6001600160a01b0386166000908152600360205260409020610a799085610bb3565b506001600160a01b0385166000908152600360205260409020610a9c9085610bbf565b50610aa960048587610bcb565b50610af1836040518060600160405280602a81526020016124ae602a913960008781526001602090815260408083206001600160a01b038d1684529091529020549190610be9565b60008581526001602090815260408083206001600160a01b038b81168552925280832093909355871681522054610b289084610c80565b60008581526001602090815260408083206001600160a01b03808b168086529190935292819020939093559151909188811691908416907fc3d58168c5ae7397731d063d5bbf3d657854427343f4c083240f7aacaa2d0f6290610b8e90899089906122d5565b60405180910390a461060781878787878761101a565b600061028482611153565b3390565b60006106318383611157565b6000610631838361123b565b6000610be184846001600160a01b038516611285565b949350505050565b60008184841115610c785760405162461bcd60e51b81526004018080602001828103825283818151815260200191508051906020019080838360005b83811015610c3d578181015183820152602001610c25565b50505050905090810190601f168015610c6a5780820380516001836020036101000a031916815260200191505b509250505060405180910390fd5b505050900390565b600082820183811015610631576040805162461bcd60e51b815260206004820152601b60248201527f536166654d6174683a206164646974696f6e206f766572666c6f770000000000604482015290519081900360640190fd5b610cec846001600160a01b031661131c565b15610607576040517fbc197c810000000000000000000000000000000000000000000000000000000081526001600160a01b0385169063bc197c8190610d3e9089908990889088908890600401611ccb565b602060405180830381600087803b158015610d5857600080fd5b505af1925050508015610da6575060408051601f3d9081017fffffffffffffffffffffffffffffffffffffffffffffffffffffffffffffffe0168201909252610da391810190611ba6565b60015b610def57610db261232b565b80610dbd5750610dd7565b8060405162461bcd60e51b81526004016102569190611db8565b60405162461bcd60e51b815260040161025690611dcb565b7fffffffff0000000000000000000000000000000000000000000000000000000081167fbc197c810000000000000000000000000000000000000000000000000000000014610e505760405162461bcd60e51b815260040161025690611e28565b50505050505050565b60006106318383611322565b6000610be1848484611386565b6000610e7d84610638565b90508260005b82811015610f32576000610e97878361060f565b6000818152600760205260409020600201549091506001600160a01b0386811691161415610f2957600760008281526020019081526020016000206001015483019250610ee687826001611413565b6000818152600760205260408120818155600181019190915560020180547fffffffffffffffffffffffff00000000000000000000000000000000000000001690555b50600101610e83565b50610f5185600854600160405180602001604052806000815250611558565b6040805160608101825242815260208082019384526001600160a01b039586168284019081526008805460009081526007909352939091209151825592516001808301919091559251600290910180547fffffffffffffffffffffffff0000000000000000000000000000000000000000169190951617909355825401909155505050565b60408051600180825281830190925260609182919060208083019080368337019050509050828160008151811061100957fe5b602090810291909101015292915050565b61102c846001600160a01b031661131c565b15610607576040517ff23a6e610000000000000000000000000000000000000000000000000000000081526001600160a01b0385169063f23a6e619061107e9089908990889088908890600401611d29565b602060405180830381600087803b15801561109857600080fd5b505af19250505080156110e6575060408051601f3d9081017fffffffffffffffffffffffffffffffffffffffffffffffffffffffffffffffe01682019092526110e391810190611ba6565b60015b6110f257610db261232b565b7fffffffff0000000000000000000000000000000000000000000000000000000081167ff23a6e610000000000000000000000000000000000000000000000000000000014610e505760405162461bcd60e51b815260040161025690611e28565b5490565b600081815260018301602052604081205480156112315783547fffffffffffffffffffffffffffffffffffffffffffffffffffffffffffffffff80830191908101906000908790839081106111a857fe5b90600052602060002001549050808760000184815481106111c557fe5b6000918252602080832090910192909255828152600189810190925260409020908401905586548790806111f557fe5b60019003818190600052602060002001600090559055866001016000878152602001908152602001600020600090556001945050505050610284565b6000915050610284565b600061124783836116ba565b61127d57508154600181810184556000848152602080822090930184905584548482528286019093526040902091909155610284565b506000610284565b6000828152600184016020526040812054806112ea575050604080518082018252838152602080820184815286546001818101895560008981528481209551600290930290950191825591519082015586548684528188019092529290912055610631565b828560000160018303815481106112fd57fe5b9060005260206000209060020201600101819055506000915050610631565b3b151590565b815460009082106113645760405162461bcd60e51b815260040180806020018281038252602281526020018061243e6022913960400191505060405180910390fd5b82600001828154811061137357fe5b9060005260206000200154905092915050565b600082815260018401602052604081205482816113e45760405162461bcd60e51b8152602060048201818152835160248401528351909283926044909101919085019080838360008315610c3d578181015183820152602001610c25565b508460000160018203815481106113f757fe5b9060005260206000209060020201600101549150509392505050565b6001600160a01b0383166114395760405162461bcd60e51b8152600401610256906120c4565b6000611443610baf565b90506114738185600061145587610fd6565b61145e87610fd6565b60405180602001604052806000815250610607565b6001600160a01b03841660009081526003602052604090206114959084610bb3565b506114a16004846116d2565b506114e9826040518060600160405280602481526020016124606024913960008681526001602090815260408083206001600160a01b038b1684529091529020549190610be9565b60008481526001602090815260408083206001600160a01b03808a16808652919093528184209490945551919291908416907fc3d58168c5ae7397731d063d5bbf3d657854427343f4c083240f7aacaa2d0f629061154a90889088906122d5565b60405180910390a450505050565b6001600160a01b03841661157e5760405162461bcd60e51b815260040161025690612238565b611587836116de565b156115a45760405162461bcd60e51b815260040161025690612295565b60018211156115c55760405162461bcd60e51b815260040161025690611f3f565b60006115cf610baf565b90506115e181600087610a4888610fd6565b6001600160a01b03851660009081526003602052604090206116039085610bbf565b5061161060048587610bcb565b5060008481526001602090815260408083206001600160a01b038916845290915290205461163e9084610c80565b60008581526001602090815260408083206001600160a01b03808b16808652919093528184209490945551908416907fc3d58168c5ae7397731d063d5bbf3d657854427343f4c083240f7aacaa2d0f629061169c90899089906122d5565b60405180910390a46116b38160008787878761101a565b5050505050565b60009081526001919091016020526040902054151590565b600061063183836116eb565b60006102846004836117fb565b600081815260018301602052604081205480156112315783547fffffffffffffffffffffffffffffffffffffffffffffffffffffffffffffffff808301919081019060009087908390811061173c57fe5b906000526020600020906002020190508087600001848154811061175c57fe5b60009182526020808320845460029093020191825560019384015491840191909155835482528983019052604090209084019055865487908061179b57fe5b6000828152602080822060027fffffffffffffffffffffffffffffffffffffffffffffffffffffffffffffffff90940193840201828155600190810183905592909355888152898201909252604082209190915594506102849350505050565b600061063183836116ba565b80356001600160a01b03811681146102c057600080fd5b600082601f83011261182e578081fd5b813561184161183c82612307565b6122e3565b81815291506020808301908481018184028601820187101561186257600080fd5b60005b8481101561188157813584529282019290820190600101611865565b505050505092915050565b600082601f83011261189c578081fd5b813567ffffffffffffffff8111156118b057fe5b6118e160207fffffffffffffffffffffffffffffffffffffffffffffffffffffffffffffffe0601f840116016122e3565b91508082528360208285010111156118f857600080fd5b8060208401602084013760009082016020015292915050565b600060208284031215611922578081fd5b61063182611807565b6000806040838503121561193d578081fd5b61194683611807565b915061195460208401611807565b90509250929050565b600080600080600060a08688031215611974578081fd5b61197d86611807565b945061198b60208701611807565b9350604086013567ffffffffffffffff808211156119a7578283fd5b6119b389838a0161181e565b945060608801359150808211156119c8578283fd5b6119d489838a0161181e565b935060808801359150808211156119e9578283fd5b506119f68882890161188c565b9150509295509295909350565b600080600080600060a08688031215611a1a578081fd5b611a2386611807565b9450611a3160208701611807565b93506040860135925060608601359150608086013567ffffffffffffffff811115611a5a578182fd5b6119f68882890161188c565b60008060408385031215611a78578182fd5b611a8183611807565b915060208301358015158114611a95578182fd5b809150509250929050565b60008060408385031215611ab2578182fd5b611abb83611807565b946020939093013593505050565b60008060408385031215611adb578182fd5b823567ffffffffffffffff80821115611af2578384fd5b818501915085601f830112611b05578384fd5b8135611b1361183c82612307565b80828252602080830192508086018a828387028901011115611b33578889fd5b8896505b84871015611b5c57611b4881611807565b845260019690960195928101928101611b37565b509096508701359350505080821115611b73578283fd5b50611b808582860161181e565b9150509250929050565b600060208284031215611b9b578081fd5b81356106318161240c565b600060208284031215611bb7578081fd5b81516106318161240c565b600060208284031215611bd3578081fd5b5035919050565b600060208284031215611beb578081fd5b5051919050565b60008060408385031215611c04578182fd5b8235915061195460208401611807565b6000815180845260208085019450808401835b83811015611c4357815187529582019590820190600101611c27565b509495945050505050565b60008151808452815b81811015611c7357602081850181015186830182015201611c57565b81811115611c845782602083870101525b50601f017fffffffffffffffffffffffffffffffffffffffffffffffffffffffffffffffe0169290920160200192915050565b6001600160a01b0391909116815260200190565b60006001600160a01b03808816835280871660208401525060a06040830152611cf760a0830186611c14565b8281036060840152611d098186611c14565b90508281036080840152611d1d8185611c4e565b98975050505050505050565b60006001600160a01b03808816835280871660208401525084604083015283606083015260a06080830152611d6160a0830184611c4e565b979650505050505050565b6000602082526106316020830184611c14565b600060408252611d926040830185611c14565b8281036020840152611da48185611c14565b95945050505050565b901515815260200190565b6000602082526106316020830184611c4e565b60208082526034908201527f455243313135353a207472616e7366657220746f206e6f6e204552433131353560408201527f526563656976657220696d706c656d656e746572000000000000000000000000606082015260800190565b60208082526028908201527f455243313135353a204552433131353552656365697665722072656a6563746560408201527f6420746f6b656e73000000000000000000000000000000000000000000000000606082015260800190565b6020808252602b908201527f455243313135353a2062616c616e636520717565727920666f7220746865207a60408201527f65726f2061646472657373000000000000000000000000000000000000000000606082015260800190565b60208082526031908201527f455243313135353a2062617463682062616c616e636520717565727920666f7260408201527f20746865207a65726f2061646472657373000000000000000000000000000000606082015260800190565b6020808252601c908201527f455243313135353a204e465473206172652073696e676c65746f6e7300000000604082015260600190565b60208082526029908201527f455243313135353a2063616c6c6572206973206e6f74206f776e6572206e6f7260408201527f20617070726f7665640000000000000000000000000000000000000000000000606082015260800190565b60208082526012908201527f496e73756666696369656e742066756e64730000000000000000000000000000604082015260600190565b60208082526025908201527f455243313135353a207472616e7366657220746f20746865207a65726f20616460408201527f6472657373000000000000000000000000000000000000000000000000000000606082015260800190565b60208082526032908201527f455243313135353a207472616e736665722063616c6c6572206973206e6f742060408201527f6f776e6572206e6f7220617070726f7665640000000000000000000000000000606082015260800190565b60208082526023908201527f455243313135353a206275726e2066726f6d20746865207a65726f206164647260408201527f6573730000000000000000000000000000000000000000000000000000000000606082015260800190565b60208082526029908201527f455243313135353a2073657474696e6720617070726f76616c2073746174757360408201527f20666f722073656c660000000000000000000000000000000000000000000000606082015260800190565b60208082526029908201527f455243313135353a206163636f756e747320616e6420696473206c656e67746860408201527f206d69736d617463680000000000000000000000000000000000000000000000606082015260800190565b60208082526028908201527f455243313135353a2069647320616e6420616d6f756e7473206c656e6774682060408201527f6d69736d61746368000000000000000000000000000000000000000000000000606082015260800190565b60208082526021908201527f455243313135353a206d696e7420746f20746865207a65726f2061646472657360408201527f7300000000000000000000000000000000000000000000000000000000000000606082015260800190565b6020808252601d908201527f455243313135353a20746f6b656e20616c7265616479206d696e746564000000604082015260600190565b90815260200190565b918252602082015260400190565b60405181810167ffffffffffffffff811182821017156122ff57fe5b604052919050565b600067ffffffffffffffff82111561231b57fe5b5060209081020190565b60e01c90565b600060443d101561233b5761038a565b600481823e6308c379a061234f8251612325565b146123595761038a565b6040517ffffffffffffffffffffffffffffffffffffffffffffffffffffffffffffffffc3d016004823e80513d67ffffffffffffffff81602484011181841117156123a7575050505061038a565b828401925082519150808211156123c1575050505061038a565b503d830160208284010111156123d95750505061038a565b601f017fffffffffffffffffffffffffffffffffffffffffffffffffffffffffffffffe016810160200160405291505090565b7fffffffff000000000000000000000000000000000000000000000000000000008116811461243a57600080fd5b5056fe456e756d657261626c655365743a20696e646578206f7574206f6620626f756e6473455243313135353a206275726e20616d6f756e7420657863656564732062616c616e6365455243313135353a206f776e657220717565727920666f72206e6f6e6578697374656e7420746f6b656e455243313135353a20696e73756666696369656e742062616c616e636520666f72207472616e73666572a2646970667358221220a2d438aaf0a4f50cef8ec591d626c0d412899a12d14e9882e4dd8f0d942608d164736f6c63430007040033",
  "immutableReferences": {},
  "source": "// SPDX-License-Identifier: MIT\npragma solidity ^0.7.4;\npragma experimental ABIEncoderV2;\n\nimport \"./tokens/CustomERC1155.sol\";\nimport \"./PolicyBook.sol\";\n\ncontract BmiDAIStaking is CustomERC1155 {\n    struct StakingInfo {\n        uint256 stakingStartTime;        \n        uint256 bmiDAIAmount;\n        address policyBookAddress;\n    }\n    \n    mapping(uint256 => StakingInfo) private _stakersPool; // NFT => INFO\n    \n    uint256 private _currentNFTMintID = 1;\n\n    constructor() CustomERC1155(\"\") {\n    }\n\n    function _mintNFT(\n        address _staker,        \n        uint256 _amount,\n        address _policyBookAddress\n    ) private {                \n        uint256 stakerBalance = totalBalanceOf(_staker);\n        uint256 totalAmount = _amount;\n\n        for (uint256 i = 0; i < stakerBalance; i++) {\n            uint256 tokenIndex = tokenOfOwnerByIndex(_staker, i);            \n\n            if (_stakersPool[tokenIndex].policyBookAddress == _policyBookAddress) {\n                totalAmount += _stakersPool[tokenIndex].bmiDAIAmount;\n                \n                _burn(_staker, tokenIndex, 1);\n                delete _stakersPool[tokenIndex];\n            }\n        }\n\n        _mint(_staker, _currentNFTMintID, 1, \"\");\n        _stakersPool[_currentNFTMintID] = StakingInfo(block.timestamp, totalAmount, _policyBookAddress); \n\n        _currentNFTMintID++;\n    }    \n\n    function stakeDAIx(uint256 _amount, address _policyBookAddress) external {\n        require(\n            _amount <= IERC20(_policyBookAddress).balanceOf(_msgSender()),\n            \"Insufficient funds\"\n        );        \n       \n        _mintNFT(_msgSender(), _amount, _policyBookAddress);\n\n        // transfer dai to yield generator\n    }\n\n    function withdrawProfit() external {\n        // from the mock Yield Generator\n    }\n}\n",
  "sourcePath": "/home/artem/Projects/Distributed_Lab/Applicature/bridgemutual-core/contracts/BmiDAIStaking.sol",
  "compiler": {
    "name": "solc",
    "version": "0.7.4+commit.3f05b770.Emscripten.clang"
  },
  "schemaVersion": "3.3.3",
  "updatedAt": "2021-01-20T19:02:06.562Z",
  "devdoc": {
    "kind": "dev",
    "methods": {
      "balanceOf(address,uint256)": {
        "details": "Returns the amount of tokens of token type `id` owned by `account`. Requirements: - `account` cannot be the zero address."
      },
      "balanceOfBatch(address[],uint256[])": {
        "details": "xref:ROOT:erc1155.adoc#batch-operations[Batched] version of {balanceOf}. Requirements: - `accounts` and `ids` must have the same length."
      },
      "isApprovedForAll(address,address)": {
        "details": "Returns true if `operator` is approved to transfer ``account``'s tokens. See {setApprovalForAll}."
      },
      "safeBatchTransferFrom(address,address,uint256[],uint256[],bytes)": {
        "details": "xref:ROOT:erc1155.adoc#batch-operations[Batched] version of {safeTransferFrom}. Emits a {TransferBatch} event. Requirements: - `ids` and `amounts` must have the same length. - If `to` refers to a smart contract, it must implement {IERC1155Receiver-onERC1155BatchReceived} and return the acceptance magic value."
      },
      "safeTransferFrom(address,address,uint256,uint256,bytes)": {
        "details": "Transfers `amount` tokens of token type `id` from `from` to `to`. Emits a {TransferSingle} event. Requirements: - `to` cannot be the zero address. - If the caller is not `from`, it must be have been approved to spend ``from``'s tokens via {setApprovalForAll}. - `from` must have a balance of tokens of type `id` of at least `amount`. - If `to` refers to a smart contract, it must implement {IERC1155Receiver-onERC1155Received} and return the acceptance magic value."
      },
      "setApprovalForAll(address,bool)": {
        "details": "Grants or revokes permission to `operator` to transfer the caller's tokens, according to `approved`, Emits an {ApprovalForAll} event. Requirements: - `operator` cannot be the caller."
      },
      "supportsInterface(bytes4)": {
        "details": "See {IERC165-supportsInterface}. Time complexity O(1), guaranteed to always use less than 30 000 gas."
      }
    },
    "version": 1
  },
  "userdoc": {
    "kind": "user",
    "methods": {},
    "version": 1
  }
}