{
  "contractName": "BmiDAIStaking",
  "abi": [
    {
      "inputs": [],
      "stateMutability": "nonpayable",
      "type": "constructor"
    },
    {
      "anonymous": false,
      "inputs": [
        {
          "indexed": true,
          "internalType": "address",
          "name": "owner",
          "type": "address"
        },
        {
          "indexed": true,
          "internalType": "address",
          "name": "approved",
          "type": "address"
        },
        {
          "indexed": true,
          "internalType": "uint256",
          "name": "tokenId",
          "type": "uint256"
        }
      ],
      "name": "Approval",
      "type": "event"
    },
    {
      "anonymous": false,
      "inputs": [
        {
          "indexed": true,
          "internalType": "address",
          "name": "owner",
          "type": "address"
        },
        {
          "indexed": true,
          "internalType": "address",
          "name": "operator",
          "type": "address"
        },
        {
          "indexed": false,
          "internalType": "bool",
          "name": "approved",
          "type": "bool"
        }
      ],
      "name": "ApprovalForAll",
      "type": "event"
    },
    {
      "anonymous": false,
      "inputs": [
        {
          "indexed": true,
          "internalType": "address",
          "name": "from",
          "type": "address"
        },
        {
          "indexed": true,
          "internalType": "address",
          "name": "to",
          "type": "address"
        },
        {
          "indexed": true,
          "internalType": "uint256",
          "name": "tokenId",
          "type": "uint256"
        }
      ],
      "name": "Transfer",
      "type": "event"
    },
    {
      "inputs": [
        {
          "internalType": "address",
          "name": "to",
          "type": "address"
        },
        {
          "internalType": "uint256",
          "name": "tokenId",
          "type": "uint256"
        }
      ],
      "name": "approve",
      "outputs": [],
      "stateMutability": "nonpayable",
      "type": "function"
    },
    {
      "inputs": [
        {
          "internalType": "address",
          "name": "owner",
          "type": "address"
        }
      ],
      "name": "balanceOf",
      "outputs": [
        {
          "internalType": "uint256",
          "name": "",
          "type": "uint256"
        }
      ],
      "stateMutability": "view",
      "type": "function"
    },
    {
      "inputs": [],
      "name": "baseURI",
      "outputs": [
        {
          "internalType": "string",
          "name": "",
          "type": "string"
        }
      ],
      "stateMutability": "view",
      "type": "function"
    },
    {
      "inputs": [
        {
          "internalType": "uint256",
          "name": "tokenId",
          "type": "uint256"
        }
      ],
      "name": "getApproved",
      "outputs": [
        {
          "internalType": "address",
          "name": "",
          "type": "address"
        }
      ],
      "stateMutability": "view",
      "type": "function"
    },
    {
      "inputs": [
        {
          "internalType": "address",
          "name": "owner",
          "type": "address"
        },
        {
          "internalType": "address",
          "name": "operator",
          "type": "address"
        }
      ],
      "name": "isApprovedForAll",
      "outputs": [
        {
          "internalType": "bool",
          "name": "",
          "type": "bool"
        }
      ],
      "stateMutability": "view",
      "type": "function"
    },
    {
      "inputs": [],
      "name": "name",
      "outputs": [
        {
          "internalType": "string",
          "name": "",
          "type": "string"
        }
      ],
      "stateMutability": "view",
      "type": "function"
    },
    {
      "inputs": [
        {
          "internalType": "uint256",
          "name": "tokenId",
          "type": "uint256"
        }
      ],
      "name": "ownerOf",
      "outputs": [
        {
          "internalType": "address",
          "name": "",
          "type": "address"
        }
      ],
      "stateMutability": "view",
      "type": "function"
    },
    {
      "inputs": [
        {
          "internalType": "address",
          "name": "from",
          "type": "address"
        },
        {
          "internalType": "address",
          "name": "to",
          "type": "address"
        },
        {
          "internalType": "uint256",
          "name": "tokenId",
          "type": "uint256"
        }
      ],
      "name": "safeTransferFrom",
      "outputs": [],
      "stateMutability": "nonpayable",
      "type": "function"
    },
    {
      "inputs": [
        {
          "internalType": "address",
          "name": "from",
          "type": "address"
        },
        {
          "internalType": "address",
          "name": "to",
          "type": "address"
        },
        {
          "internalType": "uint256",
          "name": "tokenId",
          "type": "uint256"
        },
        {
          "internalType": "bytes",
          "name": "_data",
          "type": "bytes"
        }
      ],
      "name": "safeTransferFrom",
      "outputs": [],
      "stateMutability": "nonpayable",
      "type": "function"
    },
    {
      "inputs": [
        {
          "internalType": "address",
          "name": "operator",
          "type": "address"
        },
        {
          "internalType": "bool",
          "name": "approved",
          "type": "bool"
        }
      ],
      "name": "setApprovalForAll",
      "outputs": [],
      "stateMutability": "nonpayable",
      "type": "function"
    },
    {
      "inputs": [
        {
          "internalType": "bytes4",
          "name": "interfaceId",
          "type": "bytes4"
        }
      ],
      "name": "supportsInterface",
      "outputs": [
        {
          "internalType": "bool",
          "name": "",
          "type": "bool"
        }
      ],
      "stateMutability": "view",
      "type": "function"
    },
    {
      "inputs": [],
      "name": "symbol",
      "outputs": [
        {
          "internalType": "string",
          "name": "",
          "type": "string"
        }
      ],
      "stateMutability": "view",
      "type": "function"
    },
    {
      "inputs": [
        {
          "internalType": "uint256",
          "name": "index",
          "type": "uint256"
        }
      ],
      "name": "tokenByIndex",
      "outputs": [
        {
          "internalType": "uint256",
          "name": "",
          "type": "uint256"
        }
      ],
      "stateMutability": "view",
      "type": "function"
    },
    {
      "inputs": [
        {
          "internalType": "address",
          "name": "owner",
          "type": "address"
        },
        {
          "internalType": "uint256",
          "name": "index",
          "type": "uint256"
        }
      ],
      "name": "tokenOfOwnerByIndex",
      "outputs": [
        {
          "internalType": "uint256",
          "name": "",
          "type": "uint256"
        }
      ],
      "stateMutability": "view",
      "type": "function"
    },
    {
      "inputs": [
        {
          "internalType": "uint256",
          "name": "tokenId",
          "type": "uint256"
        }
      ],
      "name": "tokenURI",
      "outputs": [
        {
          "internalType": "string",
          "name": "",
          "type": "string"
        }
      ],
      "stateMutability": "view",
      "type": "function"
    },
    {
      "inputs": [],
      "name": "totalSupply",
      "outputs": [
        {
          "internalType": "uint256",
          "name": "",
          "type": "uint256"
        }
      ],
      "stateMutability": "view",
      "type": "function"
    },
    {
      "inputs": [
        {
          "internalType": "address",
          "name": "from",
          "type": "address"
        },
        {
          "internalType": "address",
          "name": "to",
          "type": "address"
        },
        {
          "internalType": "uint256",
          "name": "tokenId",
          "type": "uint256"
        }
      ],
      "name": "transferFrom",
      "outputs": [],
      "stateMutability": "nonpayable",
      "type": "function"
    },
    {
      "inputs": [
        {
          "internalType": "uint256",
          "name": "amount",
          "type": "uint256"
        },
        {
          "internalType": "contract PolicyBook",
          "name": "policyBook",
          "type": "address"
        }
      ],
      "name": "stakeDAIx",
      "outputs": [],
      "stateMutability": "nonpayable",
      "type": "function"
    },
    {
      "inputs": [],
      "name": "withdrawProfit",
      "outputs": [],
      "stateMutability": "nonpayable",
      "type": "function"
    }
  ],
  "bytecode": "0x60806040526001600b553480156200001657600080fd5b50604080518082018252601481527f4272696467654d757475616c207374616b696e6700000000000000000000000060208083019190915282518084019093526003835262424d5360e81b9083015290620000786301ffc9a760e01b620000e2565b81516200008d90600690602085019062000167565b508051620000a390600790602084019062000167565b50620000b66380ac58cd60e01b620000e2565b620000c8635b5e139f60e01b620000e2565b620000da63780e9d6360e01b620000e2565b505062000213565b6001600160e01b0319808216141562000142576040805162461bcd60e51b815260206004820152601c60248201527f4552433136353a20696e76616c696420696e7465726661636520696400000000604482015290519081900360640190fd5b6001600160e01b0319166000908152602081905260409020805460ff19166001179055565b828054600181600116156101000203166002900490600052602060002090601f0160209004810192826200019f5760008555620001ea565b82601f10620001ba57805160ff1916838001178555620001ea565b82800160010185558215620001ea579182015b82811115620001ea578251825591602001919060010190620001cd565b50620001f8929150620001fc565b5090565b5b80821115620001f85760008155600101620001fd565b6124c680620002236000396000f3fe608060405234801561001057600080fd5b50600436106101515760003560e01c80636352211e116100cd57806395d89b4111610081578063b88d4fde11610066578063b88d4fde1461028e578063c87b56dd146102a1578063e985e9c5146102b457610151565b806395d89b4114610273578063a22cb4651461027b57610151565b806370a08231116100b257806370a08231146102455780638192771414610258578063959499b61461026b57610151565b80636352211e1461022a5780636c0360eb1461023d57610151565b806318160ddd116101245780632f745c59116101095780632f745c59146101f157806342842e0e146102045780634f6ccce71461021757610151565b806318160ddd146101c957806323b872dd146101de57610151565b806301ffc9a71461015657806306fdde031461017f578063081812fc14610194578063095ea7b3146101b4575b600080fd5b6101696101643660046120b0565b6102c7565b6040516101769190612165565b60405180910390f35b610187610302565b6040516101769190612170565b6101a76101a23660046120f0565b610398565b6040516101769190612144565b6101c76101c2366004612085565b610407565b005b6101d1610511565b6040516101769190612218565b6101c76101ec366004611f32565b610522565b6101d16101ff366004612085565b610579565b6101c7610212366004611f32565b6105b1565b6101d16102253660046120f0565b6105cc565b6101a76102383660046120f0565b6105e2565b61018761060a565b6101d1610253366004611ede565b61066b565b6101c7610266366004612120565b6106ed565b6101c76107bb565b6101876107bd565b6101c7610289366004612054565b61081e565b6101c761029c366004611f72565b610975565b6101876102af3660046120f0565b6109d3565b6101696102c2366004611efa565b610cb6565b7fffffffff00000000000000000000000000000000000000000000000000000000811660009081526020819052604090205460ff165b919050565b60068054604080516020601f600260001961010060018816150201909516949094049384018190048102820181019092528281526060939092909183018282801561038e5780601f106103635761010080835404028352916020019161038e565b820191906000526020600020905b81548152906001019060200180831161037157829003601f168201915b5050505050905090565b60006103a382610cf1565b6103de5760405162461bcd60e51b815260040180806020018281038252602c8152602001806123bb602c913960400191505060405180910390fd5b5060009081526004602052604090205473ffffffffffffffffffffffffffffffffffffffff1690565b6000610412826105e2565b90508073ffffffffffffffffffffffffffffffffffffffff168373ffffffffffffffffffffffffffffffffffffffff16141561047f5760405162461bcd60e51b815260040180806020018281038252602181526020018061243f6021913960400191505060405180910390fd5b8073ffffffffffffffffffffffffffffffffffffffff1661049e610cfe565b73ffffffffffffffffffffffffffffffffffffffff1614806104c757506104c7816102c2610cfe565b6105025760405162461bcd60e51b815260040180806020018281038252603881526020018061230e6038913960400191505060405180910390fd5b61050c8383610d02565b505050565b600061051d6002610da2565b905090565b61053361052d610cfe565b82610dad565b61056e5760405162461bcd60e51b81526004018080602001828103825260318152602001806124606031913960400191505060405180910390fd5b61050c838383610e85565b73ffffffffffffffffffffffffffffffffffffffff821660009081526001602052604081206105a8908361102c565b90505b92915050565b61050c83838360405180602001604052806000815250610975565b6000806105da600284611038565b509392505050565b60006105ab826040518060600160405280602981526020016123706029913960029190611054565b60098054604080516020601f600260001961010060018816150201909516949094049384018190048102820181019092528281526060939092909183018282801561038e5780601f106103635761010080835404028352916020019161038e565b600073ffffffffffffffffffffffffffffffffffffffff82166106bf5760405162461bcd60e51b815260040180806020018281038252602a815260200180612346602a913960400191505060405180910390fd5b73ffffffffffffffffffffffffffffffffffffffff821660009081526001602052604090206105ab90610da2565b8073ffffffffffffffffffffffffffffffffffffffff166370a08231610711610cfe565b6040518263ffffffff1660e01b815260040161072d9190612144565b60206040518083038186803b15801561074557600080fd5b505afa158015610759573d6000803e3d6000fd5b505050506040513d601f19601f8201168201806040525081019061077d9190612108565b8211156107a55760405162461bcd60e51b815260040161079c906121e1565b60405180910390fd5b6107b76107b0610cfe565b838361106b565b5050565b565b60078054604080516020601f600260001961010060018816150201909516949094049384018190048102820181019092528281526060939092909183018282801561038e5780601f106103635761010080835404028352916020019161038e565b610826610cfe565b73ffffffffffffffffffffffffffffffffffffffff168273ffffffffffffffffffffffffffffffffffffffff1614156108a6576040805162461bcd60e51b815260206004820152601960248201527f4552433732313a20617070726f766520746f2063616c6c657200000000000000604482015290519081900360640190fd5b80600560006108b3610cfe565b73ffffffffffffffffffffffffffffffffffffffff90811682526020808301939093526040918201600090812091871680825291909352912080547fffffffffffffffffffffffffffffffffffffffffffffffffffffffffffffff001692151592909217909155610922610cfe565b73ffffffffffffffffffffffffffffffffffffffff167f17307eab39ab6107e8899845ad3d59bd9653f200f220920489ca2b5937696c318360405180821515815260200191505060405180910390a35050565b610986610980610cfe565b83610dad565b6109c15760405162461bcd60e51b81526004018080602001828103825260318152602001806124606031913960400191505060405180910390fd5b6109cd848484846111d0565b50505050565b60606109de82610cf1565b610a195760405162461bcd60e51b815260040180806020018281038252602f815260200180612410602f913960400191505060405180910390fd5b60008281526008602090815260409182902080548351601f6002600019610100600186161502019093169290920491820184900484028101840190945280845260609392830182828015610aae5780601f10610a8357610100808354040283529160200191610aae565b820191906000526020600020905b815481529060010190602001808311610a9157829003601f168201915b505060095493945050505060026000196101006001841615020190911604610ad75790506102fd565b805115610bc6576009816040516020018083805460018160011615610100020316600290048015610b3f5780601f10610b1d576101008083540402835291820191610b3f565b820191906000526020600020905b815481529060010190602001808311610b2b575b5050825160208401908083835b60208310610b8957805182527fffffffffffffffffffffffffffffffffffffffffffffffffffffffffffffffe09092019160209182019101610b4c565b6001836020036101000a038019825116818451168082178552505050505050905001925050506040516020818303038152906040529150506102fd565b6009610bd184611222565b6040516020018083805460018160011615610100020316600290048015610c2f5780601f10610c0d576101008083540402835291820191610c2f565b820191906000526020600020905b815481529060010190602001808311610c1b575b5050825160208401908083835b60208310610c7957805182527fffffffffffffffffffffffffffffffffffffffffffffffffffffffffffffffe09092019160209182019101610c3c565b6001836020036101000a03801982511681845116808217855250505050505090500192505050604051602081830303815290604052915050919050565b73ffffffffffffffffffffffffffffffffffffffff918216600090815260056020908152604080832093909416825291909152205460ff1690565b60006105ab600283611331565b3390565b600081815260046020526040902080547fffffffffffffffffffffffff00000000000000000000000000000000000000001673ffffffffffffffffffffffffffffffffffffffff84169081179091558190610d5c826105e2565b73ffffffffffffffffffffffffffffffffffffffff167f8c5be1e5ebec7d5bd14f71427d1e84f3dd0314c0f7b2291e5b200ac8c7c3b92560405160405180910390a45050565b60006105ab8261133d565b6000610db882610cf1565b610df35760405162461bcd60e51b815260040180806020018281038252602c8152602001806122e2602c913960400191505060405180910390fd5b6000610dfe836105e2565b90508073ffffffffffffffffffffffffffffffffffffffff168473ffffffffffffffffffffffffffffffffffffffff161480610e6d57508373ffffffffffffffffffffffffffffffffffffffff16610e5584610398565b73ffffffffffffffffffffffffffffffffffffffff16145b80610e7d5750610e7d8185610cb6565b949350505050565b8273ffffffffffffffffffffffffffffffffffffffff16610ea5826105e2565b73ffffffffffffffffffffffffffffffffffffffff1614610ef75760405162461bcd60e51b81526004018080602001828103825260298152602001806123e76029913960400191505060405180910390fd5b73ffffffffffffffffffffffffffffffffffffffff8216610f495760405162461bcd60e51b81526004018080602001828103825260248152602001806122986024913960400191505060405180910390fd5b610f5483838361050c565b610f5f600082610d02565b73ffffffffffffffffffffffffffffffffffffffff83166000908152600160205260409020610f8e9082611341565b5073ffffffffffffffffffffffffffffffffffffffff82166000908152600160205260409020610fbe908261134d565b50610fcb60028284611359565b50808273ffffffffffffffffffffffffffffffffffffffff168473ffffffffffffffffffffffffffffffffffffffff167fddf252ad1be2c89b69c2b068fc378daa952ba7f163c4a11628f55a4df523b3ef60405160405180910390a4505050565b60006105a8838361137c565b600080808061104786866113e0565b9097909650945050505050565b600061106184848461145b565b90505b9392505050565b60006110768461066b565b90508260005b828110156111315760006110908783610579565b6000818152600a602052604090206002015490915073ffffffffffffffffffffffffffffffffffffffff86811691161415611128576000818152600a602052604090206001015492909201916110e581611525565b6000818152600a60205260408120818155600181019190915560020180547fffffffffffffffffffffffff00000000000000000000000000000000000000001690555b5060010161107c565b5061113e85600b5461160c565b60408051606081018252428152602080820193845273ffffffffffffffffffffffffffffffffffffffff958616828401908152600b80546000908152600a909352939091209151825592516001808301919091559251600290910180547fffffffffffffffffffffffff0000000000000000000000000000000000000000169190951617909355825401909155505050565b6111db848484610e85565b6111e784848484611626565b6109cd5760405162461bcd60e51b81526004018080602001828103825260328152602001806122666032913960400191505060405180910390fd5b606081611263575060408051808201909152600181527f300000000000000000000000000000000000000000000000000000000000000060208201526102fd565b8160005b811561127b57600101600a82049150611267565b60608167ffffffffffffffff8111801561129457600080fd5b506040519080825280601f01601f1916602001820160405280156112bf576020820181803683370190505b50859350905060001982015b831561132857600a840660300160f81b828280600190039350815181106112ee57fe5b60200101907effffffffffffffffffffffffffffffffffffffffffffffffffffffffffffff1916908160001a905350600a840493506112cb565b50949350505050565b60006105a88383611836565b5490565b60006105a8838361184e565b60006105a88383611914565b6000611061848473ffffffffffffffffffffffffffffffffffffffff851661195e565b815460009082106113be5760405162461bcd60e51b81526004018080602001828103825260228152602001806122446022913960400191505060405180910390fd5b8260000182815481106113cd57fe5b9060005260206000200154905092915050565b8154600090819083106114245760405162461bcd60e51b81526004018080602001828103825260228152602001806123996022913960400191505060405180910390fd5b600084600001848154811061143557fe5b906000526020600020906002020190508060000154816001015492509250509250929050565b600082815260018401602052604081205482816114f65760405162461bcd60e51b81526004018080602001828103825283818151815260200191508051906020019080838360005b838110156114bb5781810151838201526020016114a3565b50505050905090810190601f1680156114e85780820380516001836020036101000a031916815260200191505b509250505060405180910390fd5b5084600001600182038154811061150957fe5b9060005260206000209060020201600101549150509392505050565b6000611530826105e2565b905061153e8160008461050c565b611549600083610d02565b600082815260086020526040902054600260001961010060018416150201909116041561158757600082815260086020526040812061158791611e7e565b73ffffffffffffffffffffffffffffffffffffffff811660009081526001602052604090206115b69083611341565b506115c26002836119f5565b50604051829060009073ffffffffffffffffffffffffffffffffffffffff8416907fddf252ad1be2c89b69c2b068fc378daa952ba7f163c4a11628f55a4df523b3ef908390a45050565b6107b7828260405180602001604052806000815250611a01565b60006116478473ffffffffffffffffffffffffffffffffffffffff16611a53565b61165357506001610e7d565b60606117cb7f150b7a0200000000000000000000000000000000000000000000000000000000611681610cfe565b888787604051602401808573ffffffffffffffffffffffffffffffffffffffff1681526020018473ffffffffffffffffffffffffffffffffffffffff16815260200183815260200180602001828103825283818151815260200191508051906020019080838360005b838110156117025781810151838201526020016116ea565b50505050905090810190601f16801561172f5780820380516001836020036101000a031916815260200191505b5095505050505050604051602081830303815290604052907bffffffffffffffffffffffffffffffffffffffffffffffffffffffff19166020820180517bffffffffffffffffffffffffffffffffffffffffffffffffffffffff83818316178352505050506040518060600160405280603281526020016122666032913973ffffffffffffffffffffffffffffffffffffffff88169190611a59565b905060008180602001905160208110156117e457600080fd5b50517fffffffff00000000000000000000000000000000000000000000000000000000167f150b7a02000000000000000000000000000000000000000000000000000000001492505050949350505050565b60009081526001919091016020526040902054151590565b6000818152600183016020526040812054801561190a578354600019808301919081019060009087908390811061188157fe5b906000526020600020015490508087600001848154811061189e57fe5b6000918252602080832090910192909255828152600189810190925260409020908401905586548790806118ce57fe5b600190038181906000526020600020016000905590558660010160008781526020019081526020016000206000905560019450505050506105ab565b60009150506105ab565b60006119208383611836565b611956575081546001818101845560008481526020808220909301849055845484825282860190935260409020919091556105ab565b5060006105ab565b6000828152600184016020526040812054806119c3575050604080518082018252838152602080820184815286546001818101895560008981528481209551600290930290950191825591519082015586548684528188019092529290912055611064565b828560000160018303815481106119d657fe5b9060005260206000209060020201600101819055506000915050611064565b60006105a88383611a68565b611a0b8383611b3c565b611a186000848484611626565b61050c5760405162461bcd60e51b81526004018080602001828103825260328152602001806122666032913960400191505060405180910390fd5b3b151590565b60606110618484600085611c91565b6000818152600183016020526040812054801561190a5783546000198083019190810190600090879083908110611a9b57fe5b9060005260206000209060020201905080876000018481548110611abb57fe5b600091825260208083208454600290930201918255600193840154918401919091558354825289830190526040902090840190558654879080611afa57fe5b60008281526020808220600260001990940193840201828155600190810183905592909355888152898201909252604082209190915594506105ab9350505050565b73ffffffffffffffffffffffffffffffffffffffff8216611ba4576040805162461bcd60e51b815260206004820181905260248201527f4552433732313a206d696e7420746f20746865207a65726f2061646472657373604482015290519081900360640190fd5b611bad81610cf1565b15611bff576040805162461bcd60e51b815260206004820152601c60248201527f4552433732313a20746f6b656e20616c7265616479206d696e74656400000000604482015290519081900360640190fd5b611c0b6000838361050c565b73ffffffffffffffffffffffffffffffffffffffff82166000908152600160205260409020611c3a908261134d565b50611c4760028284611359565b50604051819073ffffffffffffffffffffffffffffffffffffffff8416906000907fddf252ad1be2c89b69c2b068fc378daa952ba7f163c4a11628f55a4df523b3ef908290a45050565b606082471015611cd25760405162461bcd60e51b81526004018080602001828103825260268152602001806122bc6026913960400191505060405180910390fd5b611cdb85611a53565b611d2c576040805162461bcd60e51b815260206004820152601d60248201527f416464726573733a2063616c6c20746f206e6f6e2d636f6e7472616374000000604482015290519081900360640190fd5b600060608673ffffffffffffffffffffffffffffffffffffffff1685876040518082805190602001908083835b60208310611d9657805182527fffffffffffffffffffffffffffffffffffffffffffffffffffffffffffffffe09092019160209182019101611d59565b6001836020036101000a03801982511681845116808217855250505050505090500191505060006040518083038185875af1925050503d8060008114611df8576040519150601f19603f3d011682016040523d82523d6000602084013e611dfd565b606091505b5091509150611e0d828286611e18565b979650505050505050565b60608315611e27575081611064565b825115611e375782518084602001fd5b60405162461bcd60e51b81526020600482018181528451602484015284518593919283926044019190850190808383600083156114bb5781810151838201526020016114a3565b50805460018160011615610100020316600290046000825580601f10611ea45750611ec2565b601f016020900490600052602060002090810190611ec29190611ec5565b50565b5b80821115611eda5760008155600101611ec6565b5090565b600060208284031215611eef578081fd5b813561106481612221565b60008060408385031215611f0c578081fd5b8235611f1781612221565b91506020830135611f2781612221565b809150509250929050565b600080600060608486031215611f46578081fd5b8335611f5181612221565b92506020840135611f6181612221565b929592945050506040919091013590565b60008060008060808587031215611f87578081fd5b8435611f9281612221565b9350602085810135611fa381612221565b935060408601359250606086013567ffffffffffffffff80821115611fc6578384fd5b818801915088601f830112611fd9578384fd5b813581811115611fe557fe5b604051847fffffffffffffffffffffffffffffffffffffffffffffffffffffffffffffffe0601f840116820101818110848211171561202057fe5b60405281815283820185018b1015612036578586fd5b81858501868301379081019093019390935250939692955090935050565b60008060408385031215612066578182fd5b823561207181612221565b915060208301358015158114611f27578182fd5b60008060408385031215612097578182fd5b82356120a281612221565b946020939093013593505050565b6000602082840312156120c1578081fd5b81357fffffffff0000000000000000000000000000000000000000000000000000000081168114611064578182fd5b600060208284031215612101578081fd5b5035919050565b600060208284031215612119578081fd5b5051919050565b60008060408385031215612132578182fd5b823591506020830135611f2781612221565b73ffffffffffffffffffffffffffffffffffffffff91909116815260200190565b901515815260200190565b6000602080835283518082850152825b8181101561219c57858101830151858201604001528201612180565b818111156121ad5783604083870101525b50601f017fffffffffffffffffffffffffffffffffffffffffffffffffffffffffffffffe016929092016040019392505050565b60208082526012908201527f496e73756666696369656e742066756e64730000000000000000000000000000604082015260600190565b90815260200190565b73ffffffffffffffffffffffffffffffffffffffff81168114611ec257600080fdfe456e756d657261626c655365743a20696e646578206f7574206f6620626f756e64734552433732313a207472616e7366657220746f206e6f6e20455243373231526563656976657220696d706c656d656e7465724552433732313a207472616e7366657220746f20746865207a65726f2061646472657373416464726573733a20696e73756666696369656e742062616c616e636520666f722063616c6c4552433732313a206f70657261746f7220717565727920666f72206e6f6e6578697374656e7420746f6b656e4552433732313a20617070726f76652063616c6c6572206973206e6f74206f776e6572206e6f7220617070726f76656420666f7220616c6c4552433732313a2062616c616e636520717565727920666f7220746865207a65726f20616464726573734552433732313a206f776e657220717565727920666f72206e6f6e6578697374656e7420746f6b656e456e756d657261626c654d61703a20696e646578206f7574206f6620626f756e64734552433732313a20617070726f76656420717565727920666f72206e6f6e6578697374656e7420746f6b656e4552433732313a207472616e73666572206f6620746f6b656e2074686174206973206e6f74206f776e4552433732314d657461646174613a2055524920717565727920666f72206e6f6e6578697374656e7420746f6b656e4552433732313a20617070726f76616c20746f2063757272656e74206f776e65724552433732313a207472616e736665722063616c6c6572206973206e6f74206f776e6572206e6f7220617070726f766564a26469706673582212205eff542f2a8c15f2fb1a149daed35888969eec0ada045d81564e9c31883182fc64736f6c63430007040033",
  "immutableReferences": {},
  "source": "// SPDX-License-Identifier: MIT\npragma solidity ^0.7.4;\npragma experimental ABIEncoderV2;\n\nimport \"@openzeppelin/contracts/token/ERC721/ERC721.sol\";\nimport \"./PolicyBook.sol\";\n\ncontract BmiDAIStaking is ERC721 {\n    struct StakingInfo {\n        uint256 stakingStartTime;        \n        uint256 bmiDAIAmount;\n        address policyBookAddress;\n    }\n    \n    mapping(uint256 => StakingInfo) stakersPool; // NFT => INFO\n    \n    uint256 currentNFTMintID = 1;\n\n    constructor() ERC721(\"BridgeMutual staking\", \"BMS\") {\n    }\n\n    function mintNFT(\n        address staker,        \n        uint256 amount,\n        address policyBookAddress\n    ) private {                \n        uint256 stakerBalance = balanceOf(staker);\n        uint256 totalAmount = amount;\n\n        for (uint256 i = 0; i < stakerBalance; i++) {\n            uint256 tokenIndex = tokenOfOwnerByIndex(staker, i);            \n\n            if (stakersPool[tokenIndex].policyBookAddress == policyBookAddress) {\n                totalAmount += stakersPool[tokenIndex].bmiDAIAmount;\n                \n                _burn(tokenIndex);\n                delete stakersPool[tokenIndex];\n            }\n        }\n\n        _safeMint(staker, currentNFTMintID);\n        stakersPool[currentNFTMintID] = StakingInfo(block.timestamp, totalAmount, policyBookAddress); \n\n        currentNFTMintID++;\n    }    \n\n    function stakeDAIx(uint256 amount, PolicyBook policyBook) external {\n        require(\n            amount <= policyBook.balanceOf(_msgSender()),\n            \"Insufficient funds\"\n        );        \n       \n        mintNFT(_msgSender(), amount, address(policyBook));\n\n        // transfer dai to yield generator\n    }\n\n    function withdrawProfit() external {\n        // from the mock Yield Generator\n    }\n}\n",
  "sourcePath": "/home/artem/Projects/Distributed_Lab/Applicature/bridgemutual-core/contracts/BmiDAIStaking.sol",
  "compiler": {
    "name": "solc",
    "version": "0.7.4+commit.3f05b770.Emscripten.clang"
  },
  "schemaVersion": "3.3.3",
  "updatedAt": "2021-01-20T13:13:02.872Z",
  "devdoc": {
    "kind": "dev",
    "methods": {
      "approve(address,uint256)": {
        "details": "See {IERC721-approve}."
      },
      "balanceOf(address)": {
        "details": "See {IERC721-balanceOf}."
      },
      "baseURI()": {
        "details": "Returns the base URI set via {_setBaseURI}. This will be automatically added as a prefix in {tokenURI} to each token's URI, or to the token ID if no specific URI is set for that token ID."
      },
      "getApproved(uint256)": {
        "details": "See {IERC721-getApproved}."
      },
      "isApprovedForAll(address,address)": {
        "details": "See {IERC721-isApprovedForAll}."
      },
      "name()": {
        "details": "See {IERC721Metadata-name}."
      },
      "ownerOf(uint256)": {
        "details": "See {IERC721-ownerOf}."
      },
      "safeTransferFrom(address,address,uint256)": {
        "details": "See {IERC721-safeTransferFrom}."
      },
      "safeTransferFrom(address,address,uint256,bytes)": {
        "details": "See {IERC721-safeTransferFrom}."
      },
      "setApprovalForAll(address,bool)": {
        "details": "See {IERC721-setApprovalForAll}."
      },
      "supportsInterface(bytes4)": {
        "details": "See {IERC165-supportsInterface}. Time complexity O(1), guaranteed to always use less than 30 000 gas."
      },
      "symbol()": {
        "details": "See {IERC721Metadata-symbol}."
      },
      "tokenByIndex(uint256)": {
        "details": "See {IERC721Enumerable-tokenByIndex}."
      },
      "tokenOfOwnerByIndex(address,uint256)": {
        "details": "See {IERC721Enumerable-tokenOfOwnerByIndex}."
      },
      "tokenURI(uint256)": {
        "details": "See {IERC721Metadata-tokenURI}."
      },
      "totalSupply()": {
        "details": "See {IERC721Enumerable-totalSupply}."
      },
      "transferFrom(address,address,uint256)": {
        "details": "See {IERC721-transferFrom}."
      }
    },
    "version": 1
  },
  "userdoc": {
    "kind": "user",
    "methods": {},
    "version": 1
  }
}