{
  "contractName": "BMIDAIStaking",
  "abi": [
    {
      "anonymous": false,
      "inputs": [
        {
          "indexed": true,
          "internalType": "address",
          "name": "previousOwner",
          "type": "address"
        },
        {
          "indexed": true,
          "internalType": "address",
          "name": "newOwner",
          "type": "address"
        }
      ],
      "name": "OwnershipTransferred",
      "type": "event"
    },
    {
      "anonymous": false,
      "inputs": [
        {
          "indexed": false,
          "internalType": "uint256",
          "name": "id",
          "type": "uint256"
        },
        {
          "indexed": false,
          "internalType": "uint256",
          "name": "amount",
          "type": "uint256"
        },
        {
          "indexed": false,
          "internalType": "address",
          "name": "to",
          "type": "address"
        }
      ],
      "name": "StakingBMIProfitWithdrawn",
      "type": "event"
    },
    {
      "anonymous": false,
      "inputs": [
        {
          "indexed": false,
          "internalType": "uint256",
          "name": "id",
          "type": "uint256"
        },
        {
          "indexed": false,
          "internalType": "address",
          "name": "to",
          "type": "address"
        }
      ],
      "name": "StakingFundsWithdrawn",
      "type": "event"
    },
    {
      "anonymous": false,
      "inputs": [
        {
          "indexed": false,
          "internalType": "uint256",
          "name": "id",
          "type": "uint256"
        },
        {
          "indexed": false,
          "internalType": "address",
          "name": "policyBookAddress",
          "type": "address"
        }
      ],
      "name": "StakingNFTBurned",
      "type": "event"
    },
    {
      "anonymous": false,
      "inputs": [
        {
          "indexed": false,
          "internalType": "uint256",
          "name": "id",
          "type": "uint256"
        },
        {
          "indexed": false,
          "internalType": "address",
          "name": "policyBookAddress",
          "type": "address"
        },
        {
          "indexed": false,
          "internalType": "address",
          "name": "to",
          "type": "address"
        }
      ],
      "name": "StakingNFTMinted",
      "type": "event"
    },
    {
      "inputs": [],
      "name": "bmiToken",
      "outputs": [
        {
          "internalType": "contract IERC20",
          "name": "",
          "type": "address"
        }
      ],
      "stateMutability": "view",
      "type": "function"
    },
    {
      "inputs": [],
      "name": "contractsRegistry",
      "outputs": [
        {
          "internalType": "contract ContractsRegistry",
          "name": "",
          "type": "address"
        }
      ],
      "stateMutability": "view",
      "type": "function"
    },
    {
      "inputs": [],
      "name": "daiToken",
      "outputs": [
        {
          "internalType": "contract IERC20",
          "name": "",
          "type": "address"
        }
      ],
      "stateMutability": "view",
      "type": "function"
    },
    {
      "inputs": [],
      "name": "defiYieldGenerator",
      "outputs": [
        {
          "internalType": "contract DefiYieldGenerator",
          "name": "",
          "type": "address"
        }
      ],
      "stateMutability": "view",
      "type": "function"
    },
    {
      "inputs": [],
      "name": "owner",
      "outputs": [
        {
          "internalType": "address",
          "name": "",
          "type": "address"
        }
      ],
      "stateMutability": "view",
      "type": "function"
    },
    {
      "inputs": [],
      "name": "renounceOwnership",
      "outputs": [],
      "stateMutability": "nonpayable",
      "type": "function"
    },
    {
      "inputs": [
        {
          "internalType": "address",
          "name": "newOwner",
          "type": "address"
        }
      ],
      "name": "transferOwnership",
      "outputs": [],
      "stateMutability": "nonpayable",
      "type": "function"
    },
    {
      "inputs": [
        {
          "internalType": "contract ContractsRegistry",
          "name": "_contractsRegistry",
          "type": "address"
        }
      ],
      "name": "initRegistry",
      "outputs": [],
      "stateMutability": "nonpayable",
      "type": "function"
    },
    {
      "inputs": [],
      "name": "makeDefiYieldGeneratorApproveStakingWithdrowal",
      "outputs": [],
      "stateMutability": "nonpayable",
      "type": "function"
    },
    {
      "inputs": [
        {
          "internalType": "uint256",
          "name": "_amount",
          "type": "uint256"
        },
        {
          "internalType": "contract PolicyBook",
          "name": "_policyBook",
          "type": "address"
        }
      ],
      "name": "stakeDAIx",
      "outputs": [],
      "stateMutability": "nonpayable",
      "type": "function"
    },
    {
      "inputs": [
        {
          "internalType": "uint256",
          "name": "tokenID",
          "type": "uint256"
        }
      ],
      "name": "withdrawBMIProfit",
      "outputs": [],
      "stateMutability": "nonpayable",
      "type": "function"
    },
    {
      "inputs": [
        {
          "internalType": "uint256",
          "name": "tokenID",
          "type": "uint256"
        }
      ],
      "name": "withdrawFundsWithProfit",
      "outputs": [],
      "stateMutability": "nonpayable",
      "type": "function"
    },
    {
      "inputs": [
        {
          "internalType": "uint256",
          "name": "tokenID",
          "type": "uint256"
        }
      ],
      "name": "stakingInfoByToken",
      "outputs": [
        {
          "components": [
            {
              "internalType": "uint256",
              "name": "stakingStartTime",
              "type": "uint256"
            },
            {
              "internalType": "uint256",
              "name": "stakedDaiAmount",
              "type": "uint256"
            },
            {
              "internalType": "contract PolicyBook",
              "name": "policyBook",
              "type": "address"
            }
          ],
          "internalType": "struct BMIDAIStaking.StakingInfo",
          "name": "",
          "type": "tuple"
        }
      ],
      "stateMutability": "view",
      "type": "function"
    },
    {
      "inputs": [
        {
          "internalType": "address",
          "name": "owner",
          "type": "address"
        }
      ],
      "name": "howManyStakings",
      "outputs": [
        {
          "internalType": "uint256",
          "name": "",
          "type": "uint256"
        }
      ],
      "stateMutability": "view",
      "type": "function"
    },
    {
      "inputs": [
        {
          "internalType": "address",
          "name": "owner",
          "type": "address"
        }
      ],
      "name": "getStakingTokensByOwner",
      "outputs": [
        {
          "internalType": "uint256[]",
          "name": "",
          "type": "uint256[]"
        }
      ],
      "stateMutability": "view",
      "type": "function"
    }
  ],
  "bytecode": "0x6080604052600260075534801561001557600080fd5b50600061002061006f565b600080546001600160a01b0319166001600160a01b0383169081178255604051929350917f8be0079c531659141344cd1fd0a4f28419497f9722a3daafe3b4186f6b6457e0908290a350610073565b3390565b612225806100826000396000f3fe608060405234801561001057600080fd5b50600436106100f55760003560e01c806396344eaf11610097578063d0a43afd11610066578063d0a43afd146101d3578063d77379f1146101e6578063d98d0c7e146101ee578063f2fde38b146101f6576100f5565b806396344eaf14610185578063a7fa3c7f146101a5578063be22f546146101b8578063cd30a976146101c0576100f5565b8063727cfca2116100d3578063727cfca21461014d5780638192771414610155578063843fe5f0146101685780638da5cb5b1461017d576100f5565b806312ed9d29146100fa57806369c5408614610123578063715018a614610143575b600080fd5b61010d610108366004611bc5565b610209565b60405161011a91906120f7565b60405180910390f35b610136610131366004611bc5565b610261565b60405161011a9190611dd3565b61014b61030a565b005b61014b6103d6565b61014b610163366004611d02565b61052a565b6101706106ae565b60405161011a9190611d31565b6101706106bd565b610198610193366004611cd2565b6106cc565b60405161011a91906120cd565b61014b6101b3366004611cd2565b610741565b610170610d54565b61014b6101ce366004611cd2565b610d63565b61014b6101e1366004611bc5565b611018565b61017061149c565b6101706114ab565b61014b610204366004611bc5565b6114ba565b60006001600160a01b03821661023a5760405162461bcd60e51b815260040161023190612013565b60405180910390fd5b6001600160a01b038216600090815260056020526040902061025b906115dc565b92915050565b6060600061026e83610209565b905060608167ffffffffffffffff8111801561028957600080fd5b506040519080825280602002602001820160405280156102b3578160200160208202803683370190505b50905060005b82811015610302576001600160a01b03851660009081526005602052604090206102e390826115e7565b8282815181106102ef57fe5b60209081029190910101526001016102b9565b509392505050565b6103126115fa565b6000546001600160a01b03908116911614610374576040805162461bcd60e51b815260206004820181905260248201527f4f776e61626c653a2063616c6c6572206973206e6f7420746865206f776e6572604482015290519081900360640190fd5b600080546040516001600160a01b03909116907f8be0079c531659141344cd1fd0a4f28419497f9722a3daafe3b4186f6b6457e0908390a3600080547fffffffffffffffffffffffff0000000000000000000000000000000000000000169055565b6103de6115fa565b6000546001600160a01b03908116911614610440576040805162461bcd60e51b815260206004820181905260248201527f4f776e61626c653a2063616c6c6572206973206e6f7420746865206f776e6572604482015290519081900360640190fd5b60048054604080517f5d3581cd00000000000000000000000000000000000000000000000000000000815290516001600160a01b0390921692635d3581cd92828201926000929082900301818387803b15801561049c57600080fd5b505af11580156104b0573d6000803e3d6000fd5b505060048054604080517fa2ac7ac600000000000000000000000000000000000000000000000000000000815290516001600160a01b03909216945063a2ac7ac69350808301926000929182900301818387803b15801561051057600080fd5b505af1158015610524573d6000803e3d6000fd5b50505050565b600254600480546040517f23b872dd0000000000000000000000000000000000000000000000000000000081526000936001600160a01b03908116936323b872dd9361057e93889390911691899101611d45565b602060405180830381600087803b15801561059857600080fd5b505af11580156105ac573d6000803e3d6000fd5b505050506040513d601f19601f820116820180604052508101906105d09190611bfd565b9050806105ef5760405162461bcd60e51b815260040161023190611f22565b816001600160a01b03166323b872dd6106066115fa565b30866040518463ffffffff1660e01b815260040161062693929190611d45565b602060405180830381600087803b15801561064057600080fd5b505af1158015610654573d6000803e3d6000fd5b505050506040513d601f19601f820116820180604052508101906106789190611bfd565b9050806106975760405162461bcd60e51b815260040161023190611e68565b6106a96106a26115fa565b84846115fe565b505050565b6004546001600160a01b031681565b6000546001600160a01b031690565b6106d4611b9b565b6000828152600660205260409020546106ff5760405162461bcd60e51b815260040161023190611ec5565b50600090815260066020908152604091829020825160608101845281548152600182015492810192909252600201546001600160a01b03169181019190915290565b60008181526006602052604090205461076c5760405162461bcd60e51b815260040161023190611ec5565b6000818152600660205260409020546276a70001421161079e5760405162461bcd60e51b815260040161023190611f7f565b6107a66115fa565b600082815260066020526040908190206002015490517f2d8a746e0000000000000000000000000000000000000000000000000000000081526001600160a01b039283169290911690632d8a746e906108039085906004016120f7565b60206040518083038186803b15801561081b57600080fd5b505afa15801561082f573d6000803e3d6000fd5b505050506040513d601f19601f820116820180604052508101906108539190611be1565b6001600160a01b0316146108795760405162461bcd60e51b815260040161023190611fdc565b610881611b9b565b5060008181526006602081815260408084208151606081018352815480825260018301548286018190526002909301546001600160a01b0390811683860152600480548a8a529790965293517ff6b15fe60000000000000000000000000000000000000000000000000000000081529196959093169363f6b15fe69361090b939092909101612136565b602060405180830381600087803b15801561092557600080fd5b505af1158015610939573d6000803e3d6000fd5b505050506040513d601f19601f8201168201806040525081019061095d9190611cea565b6003546004549192506000916001600160a01b03918216916323b872dd91166109846115fa565b856040518463ffffffff1660e01b81526004016109a393929190611d45565b602060405180830381600087803b1580156109bd57600080fd5b505af11580156109d1573d6000803e3d6000fd5b505050506040513d601f19601f820116820180604052508101906109f59190611bfd565b905080610a145760405162461bcd60e51b815260040161023190612070565b7f6f3bc53c439831dcd2b75923de17810a3f59ac0293eac66284a2012f2d586d778483610a3f6115fa565b604051610a4e93929190612144565b60405180910390a160025460048054604080870151602088015191517f23b872dd0000000000000000000000000000000000000000000000000000000081526001600160a01b03958616956323b872dd95610aae95909116939101611d45565b602060405180830381600087803b158015610ac857600080fd5b505af1158015610adc573d6000803e3d6000fd5b505050506040513d601f19601f82011682018060405250810190610b009190611bfd565b905080610b1f5760405162461bcd60e51b815260040161023190611f22565b82604001516001600160a01b031663a9059cbb610b3a6115fa565b85602001516040518363ffffffff1660e01b8152600401610b5c929190611d69565b602060405180830381600087803b158015610b7657600080fd5b505af1158015610b8a573d6000803e3d6000fd5b505050506040513d601f19601f82011682018060405250810190610bae9190611bfd565b905080610bcd5760405162461bcd60e51b815260040161023190611e68565b7f465fbde1e28a129f34bb008f5721b0f847ab2411fac9026fb49cdfc2b94b7f1384610bf76115fa565b604051610c05929190612100565b60405180910390a16000848152600660205260409020600201546001600160a01b0316631cc509fd610c356115fa565b8660016040518463ffffffff1660e01b8152600401610c5693929190611d82565b600060405180830381600087803b158015610c7057600080fd5b505af1158015610c84573d6000803e3d6000fd5b50505050610cb78460056000610c986115fa565b6001600160a01b031681526020810191909152604001600020906119d5565b50600084815260066020526040908190206002015490517f86ef8fcef996b7ddf091f470e8f3ab619ca323d0aa2329e3d0f7c00d0d7f8c0191610d059187916001600160a01b031690612100565b60405180910390a15050506000908152600660205260408120818155600181019190915560020180547fffffffffffffffffffffffff0000000000000000000000000000000000000000169055565b6002546001600160a01b031681565b600081815260066020526040902054610d8e5760405162461bcd60e51b815260040161023190611ec5565b610d966115fa565b600082815260066020526040908190206002015490517f2d8a746e0000000000000000000000000000000000000000000000000000000081526001600160a01b039283169290911690632d8a746e90610df39085906004016120f7565b60206040518083038186803b158015610e0b57600080fd5b505afa158015610e1f573d6000803e3d6000fd5b505050506040513d601f19601f82011682018060405250810190610e439190611be1565b6001600160a01b031614610e695760405162461bcd60e51b815260040161023190611fdc565b60048054600083815260066020526040808220805460019091015491517ff6b15fe600000000000000000000000000000000000000000000000000000000815292946001600160a01b039094169363f6b15fe693610ec8939101612136565b602060405180830381600087803b158015610ee257600080fd5b505af1158015610ef6573d6000803e3d6000fd5b505050506040513d601f19601f82011682018060405250810190610f1a9190611cea565b6003546004549192506000916001600160a01b03918216916323b872dd9116610f416115fa565b856040518463ffffffff1660e01b8152600401610f6093929190611d45565b602060405180830381600087803b158015610f7a57600080fd5b505af1158015610f8e573d6000803e3d6000fd5b505050506040513d601f19601f82011682018060405250810190610fb29190611bfd565b905080610fd15760405162461bcd60e51b815260040161023190612070565b7f6f3bc53c439831dcd2b75923de17810a3f59ac0293eac66284a2012f2d586d778383610ffc6115fa565b60405161100b93929190612144565b60405180910390a1505050565b6110206115fa565b6000546001600160a01b03908116911614611082576040805162461bcd60e51b815260206004820181905260248201527f4f776e61626c653a2063616c6c6572206973206e6f7420746865206f776e6572604482015290519081900360640190fd5b600180547fffffffffffffffffffffffff0000000000000000000000000000000000000000166001600160a01b038316908117909155604080517fa45611b60000000000000000000000000000000000000000000000000000000081529051633581777391839163a45611b691600480820192600092909190829003018186803b15801561110f57600080fd5b505afa158015611123573d6000803e3d6000fd5b505050506040513d6000823e601f3d9081017fffffffffffffffffffffffffffffffffffffffffffffffffffffffffffffffe01682016040526111699190810190611c1d565b6040518263ffffffff1660e01b81526004016111859190611e17565b60206040518083038186803b15801561119d57600080fd5b505afa1580156111b1573d6000803e3d6000fd5b505050506040513d601f19601f820116820180604052508101906111d59190611be1565b600260006101000a8154816001600160a01b0302191690836001600160a01b03160217905550806001600160a01b03166335817773826001600160a01b03166327c300af6040518163ffffffff1660e01b815260040160006040518083038186803b15801561124357600080fd5b505afa158015611257573d6000803e3d6000fd5b505050506040513d6000823e601f3d9081017fffffffffffffffffffffffffffffffffffffffffffffffffffffffffffffffe016820160405261129d9190810190611c1d565b6040518263ffffffff1660e01b81526004016112b99190611e17565b60206040518083038186803b1580156112d157600080fd5b505afa1580156112e5573d6000803e3d6000fd5b505050506040513d601f19601f820116820180604052508101906113099190611be1565b600380547fffffffffffffffffffffffff0000000000000000000000000000000000000000166001600160a01b03928316179055600154604080517fc0ed452f00000000000000000000000000000000000000000000000000000000815290519190921691633581777391839163c0ed452f916004808301926000929190829003018186803b15801561139b57600080fd5b505afa1580156113af573d6000803e3d6000fd5b505050506040513d6000823e601f3d9081017fffffffffffffffffffffffffffffffffffffffffffffffffffffffffffffffe01682016040526113f59190810190611c1d565b6040518263ffffffff1660e01b81526004016114119190611e17565b60206040518083038186803b15801561142957600080fd5b505afa15801561143d573d6000803e3d6000fd5b505050506040513d601f19601f820116820180604052508101906114619190611be1565b600480547fffffffffffffffffffffffff0000000000000000000000000000000000000000166001600160a01b039290921691909117905550565b6003546001600160a01b031681565b6001546001600160a01b031681565b6114c26115fa565b6000546001600160a01b03908116911614611524576040805162461bcd60e51b815260206004820181905260248201527f4f776e61626c653a2063616c6c6572206973206e6f7420746865206f776e6572604482015290519081900360640190fd5b6001600160a01b0381166115695760405162461bcd60e51b81526004018080602001828103825260268152602001806121ca6026913960400191505060405180910390fd5b600080546040516001600160a01b03808516939216917f8be0079c531659141344cd1fd0a4f28419497f9722a3daafe3b4186f6b6457e091a3600080547fffffffffffffffffffffffff0000000000000000000000000000000000000000166001600160a01b0392909216919091179055565b600061025b826119e1565b60006115f383836119e5565b9392505050565b3390565b6040517ff5b100ea0000000000000000000000000000000000000000000000000000000081526000906001600160a01b0383169063f5b100ea90611646908790600401611d31565b60206040518083038186803b15801561165e57600080fd5b505afa158015611672573d6000803e3d6000fd5b505050506040513d601f19601f820116820180604052508101906116969190611cea565b90508260005b82811015611879576040517f1dcb46f60000000000000000000000000000000000000000000000000000000081526000906001600160a01b03861690631dcb46f6906116ee908a908690600401611d69565b60206040518083038186803b15801561170657600080fd5b505afa15801561171a573d6000803e3d6000fd5b505050506040513d601f19601f8201168201806040525081019061173e9190611cea565b6000818152600660205260409081902060019081015491517f1cc509fd00000000000000000000000000000000000000000000000000000000815295909101949192506001600160a01b03871691631cc509fd916117a2918b918691600401611d82565b600060405180830381600087803b1580156117bc57600080fd5b505af11580156117d0573d6000803e3d6000fd5b505050507f86ef8fcef996b7ddf091f470e8f3ab619ca323d0aa2329e3d0f7c00d0d7f8c018186604051611805929190612100565b60405180910390a16001600160a01b038716600090815260056020526040902061182f90826119d5565b50600090815260066020526040812081815560018082019290925560020180547fffffffffffffffffffffffff00000000000000000000000000000000000000001690550161169c565b506007546040517f4b6411810000000000000000000000000000000000000000000000000000000081526001600160a01b03851691634b641181916118c5918991600190600401611da3565b600060405180830381600087803b1580156118df57600080fd5b505af11580156118f3573d6000803e3d6000fd5b50506040805160608101825242815260208082018681526001600160a01b038981168486019081526007805460009081526006865287812096518755935160018701559051600290950180547fffffffffffffffffffffffff000000000000000000000000000000000000000016958316959095179094559254928b16815260059091529190912061198793509150611a49565b507f36200d06a5134b8842f6a7aee4c9a2a2e4834bf38af1eb011719654f03449d1660075484876040516119bd93929190612117565b60405180910390a15050600780546001019055505050565b60006115f38383611a55565b5490565b81546000908210611a275760405162461bcd60e51b81526004018080602001828103825260228152602001806121a86022913960400191505060405180910390fd5b826000018281548110611a3657fe5b9060005260206000200154905092915050565b60006115f38383611b39565b60008181526001830160205260408120548015611b2f5783547fffffffffffffffffffffffffffffffffffffffffffffffffffffffffffffffff8083019190810190600090879083908110611aa657fe5b9060005260206000200154905080876000018481548110611ac357fe5b600091825260208083209091019290925582815260018981019092526040902090840190558654879080611af357fe5b6001900381819060005260206000200160009055905586600101600087815260200190815260200160002060009055600194505050505061025b565b600091505061025b565b6000611b458383611b83565b611b7b5750815460018181018455600084815260208082209093018490558454848252828601909352604090209190915561025b565b50600061025b565b60009081526001919091016020526040902054151590565b6040518060600160405280600081526020016000815260200160006001600160a01b031681525090565b600060208284031215611bd6578081fd5b81356115f38161218f565b600060208284031215611bf2578081fd5b81516115f38161218f565b600060208284031215611c0e578081fd5b815180151581146115f3578182fd5b600060208284031215611c2e578081fd5b815167ffffffffffffffff80821115611c45578283fd5b818401915084601f830112611c58578283fd5b815181811115611c6457fe5b60405160207fffffffffffffffffffffffffffffffffffffffffffffffffffffffffffffffe0601f8401168201018181108482111715611ca057fe5b604052818152838201602001871015611cb7578485fd5b611cc8826020830160208701612163565b9695505050505050565b600060208284031215611ce3578081fd5b5035919050565b600060208284031215611cfb578081fd5b5051919050565b60008060408385031215611d14578081fd5b823591506020830135611d268161218f565b809150509250929050565b6001600160a01b0391909116815260200190565b6001600160a01b039384168152919092166020820152604081019190915260600190565b6001600160a01b03929092168252602082015260400190565b6001600160a01b039390931683526020830191909152604082015260600190565b6001600160a01b039390931683526020830191909152604082015260806060820181905260009082015260a00190565b6020808252825182820181905260009190848201906040850190845b81811015611e0b57835183529284019291840191600101611def565b50909695505050505050565b6000602082528251806020840152611e36816040850160208701612163565b601f017fffffffffffffffffffffffffffffffffffffffffffffffffffffffffffffffe0169190910160400192915050565b6020808252602a908201527f5374616b696e673a204661696c656420746f207472616e7366657220626d694460408201527f41497820746f6b656e7300000000000000000000000000000000000000000000606082015260800190565b60208082526029908201527f5374616b696e673a2074686973207374616b696e6720746f6b656e20646f657360408201527f6e27742065786973740000000000000000000000000000000000000000000000606082015260800190565b60208082526026908201527f5374616b696e673a204661696c656420746f207472616e73666572204441492060408201527f746f6b656e730000000000000000000000000000000000000000000000000000606082015260800190565b60208082526025908201527f5374616b696e673a2046756e647320617265206c6f636b656420666f7220332060408201527f6d6f6e7468000000000000000000000000000000000000000000000000000000606082015260800190565b6020808252601f908201527f5374616b696e673a204e6f7420616e204e465420746f6b656e206f776e657200604082015260600190565b6020808252602b908201527f5374616b696e673a2062616c616e636520717565727920666f7220746865207a60408201527f65726f2061646472657373000000000000000000000000000000000000000000606082015260800190565b60208082526026908201527f5374616b696e673a204661696c656420746f207472616e7366657220424d492060408201527f746f6b656e730000000000000000000000000000000000000000000000000000606082015260800190565b81518152602080830151908201526040918201516001600160a01b03169181019190915260600190565b90815260200190565b9182526001600160a01b0316602082015260400190565b9283526001600160a01b03918216602084015216604082015260600190565b918252602082015260400190565b92835260208301919091526001600160a01b0316604082015260600190565b60005b8381101561217e578181015183820152602001612166565b838111156105245750506000910152565b6001600160a01b03811681146121a457600080fd5b5056fe456e756d657261626c655365743a20696e646578206f7574206f6620626f756e64734f776e61626c653a206e6577206f776e657220697320746865207a65726f2061646472657373a2646970667358221220e7a431823823be660e78edc6314ccfdd05421b5c4bc9ea0d0a3ed794d693183064736f6c63430007040033",
  "immutableReferences": {},
  "source": "// SPDX-License-Identifier: MIT\npragma solidity ^0.7.4;\npragma experimental ABIEncoderV2;\n\nimport \"@openzeppelin/contracts/utils/EnumerableSet.sol\";\nimport \"@openzeppelin/contracts/access/Ownable.sol\";\n\nimport \"./PolicyBook.sol\";\nimport \"./ContractsRegistry.sol\";\nimport \"./DefiYieldGenerator.sol\";\n\ncontract BMIDAIStaking is Ownable {\n    struct StakingInfo {\n        uint256 stakingStartTime;\n        uint256 stakedDaiAmount;\n        PolicyBook policyBook;\n    }\n\n    using EnumerableSet for EnumerableSet.UintSet;\n\n    uint256 constant private THREE_MONTH = 3 * 30 days;\n    \n    ContractsRegistry public contractsRegistry;\n\n    IERC20 public daiToken;\n    IERC20 public bmiToken;\n    DefiYieldGenerator public defiYieldGenerator;\n    \n    mapping (address => EnumerableSet.UintSet) private _holderTokens;\n    mapping(uint256 => StakingInfo) private _stakersPool; // NFT => INFO\n    \n    /// @dev cruial to start from 2\n    uint256 private _currentNFTMintID = 2; \n\n    event StakingNFTMinted(uint256 id, address policyBookAddress, address to);\n    event StakingNFTBurned(uint256 id, address policyBookAddress);\n    event StakingBMIProfitWithdrawn(uint256 id, uint256 amount, address to);\n    event StakingFundsWithdrawn(uint256 id, address to);\n\n    function initRegistry(ContractsRegistry _contractsRegistry) external onlyOwner {\n        contractsRegistry = _contractsRegistry;\n\n        daiToken = IERC20(_contractsRegistry.getContract(_contractsRegistry.getDAIName()));\n        bmiToken = IERC20(_contractsRegistry.getContract(_contractsRegistry.getBMIName()));\n        defiYieldGenerator = \n            DefiYieldGenerator(contractsRegistry.getContract(contractsRegistry.getYieldGeneratorName()));\n    }\n\n    function makeDefiYieldGeneratorApproveStakingWithdrowal() external onlyOwner {\n        defiYieldGenerator.approveAllDAITokensForStakingWithdrowal();\n        defiYieldGenerator.approveAllBMITokensForStakingWithdrowal();\n    }\n\n    function _mintNFT(\n        address _staker,        \n        uint256 _amount,\n        PolicyBook _policyBook\n    ) private {             \n        uint256 stakerBalance = _policyBook.balanceOfNFT(_staker);\n        uint256 totalAmount = _amount;\n\n        for (uint256 i = 0; i < stakerBalance; i++) {\n            uint256 tokenID = _policyBook.tokenOfOwnerByIndexNFT(_staker, i);            \n            \n            totalAmount += _stakersPool[tokenID].stakedDaiAmount;\n                \n            _policyBook.burnNFT(_staker, tokenID, 1);\n\n            emit StakingNFTBurned(tokenID, address(_policyBook));\n\n            _holderTokens[_staker].remove(tokenID);\n            delete _stakersPool[tokenID];\n        }\n\n        _policyBook.mintNFT(_staker, _currentNFTMintID, 1, \"\");\n\n        _stakersPool[_currentNFTMintID] = StakingInfo(block.timestamp, totalAmount, _policyBook);\n        _holderTokens[_staker].add(_currentNFTMintID);\n\n        emit StakingNFTMinted(_currentNFTMintID, address(_policyBook), _staker);\n\n        _currentNFTMintID++;\n    }    \n\n    function stakeDAIx(uint256 _amount, PolicyBook _policyBook) external {\n        // transfer DAI from PolicyBook to yield generator\n        bool success = daiToken.transferFrom(address(_policyBook), address(defiYieldGenerator), _amount);        \n        require(success, \"Staking: Failed to transfer DAI tokens\");\n\n        // transfer bmiDAIx from user to staking\n        success = _policyBook.transferFrom(_msgSender(), address(this), _amount);        \n        require(success, \"Staking: Failed to transfer bmiDAIx tokens\");\n\n        _mintNFT(_msgSender(), _amount, _policyBook);\n    }\n\n    function withdrawBMIProfit(uint256 tokenID) external {\n        require(_stakersPool[tokenID].stakingStartTime != 0, \n            \"Staking: this staking token doesn't exist\");\n        require (_stakersPool[tokenID].policyBook.ownerOfNFT(tokenID) == _msgSender(), \n            \"Staking: Not an NFT token owner\");\n\n        uint256 profit = defiYieldGenerator.getProfit(\n            _stakersPool[tokenID].stakingStartTime, \n            _stakersPool[tokenID].stakedDaiAmount\n        );\n\n        // transfer bmi profit from YieldGenerator to user\n        bool success = bmiToken.transferFrom(address(defiYieldGenerator), _msgSender(), profit);\n        require(success, \"Staking: Failed to transfer BMI tokens\");\n\n        emit StakingBMIProfitWithdrawn(tokenID, profit, _msgSender());\n    }\n\n    function withdrawFundsWithProfit(uint256 tokenID) external {\n        require(_stakersPool[tokenID].stakingStartTime != 0, \"Staking: this staking token doesn't exist\");\n        require (block.timestamp > _stakersPool[tokenID].stakingStartTime + THREE_MONTH, \n            \"Staking: Funds are locked for 3 month\");        \n        require (_stakersPool[tokenID].policyBook.ownerOfNFT(tokenID) == _msgSender(), \n            \"Staking: Not an NFT token owner\");\n       \n        StakingInfo memory stakingInfo = _stakersPool[tokenID];\n\n        uint256 profit = defiYieldGenerator.getProfit(\n            _stakersPool[tokenID].stakingStartTime,\n            _stakersPool[tokenID].stakedDaiAmount\n        );\n\n        // transfer bmi profit from YieldGenerator to the user\n        bool success = bmiToken.transferFrom(address(defiYieldGenerator), _msgSender(), profit);\n        require(success, \"Staking: Failed to transfer BMI tokens\");\n\n        emit StakingBMIProfitWithdrawn(tokenID, profit, _msgSender());\n\n        // transfer DAI from YieldGenerator to PolicyBook\n        success = daiToken.transferFrom(\n            address(defiYieldGenerator), \n            address(stakingInfo.policyBook), \n            stakingInfo.stakedDaiAmount\n        );\n        require(success, \"Staking: Failed to transfer DAI tokens\");   \n\n        // transfer bmiDAIx from staking to the user\n        success = stakingInfo.policyBook.transfer(_msgSender(), stakingInfo.stakedDaiAmount);\n        require(success, \"Staking: Failed to transfer bmiDAIx tokens\");\n\n        emit StakingFundsWithdrawn(tokenID, _msgSender());\n\n        _stakersPool[tokenID].policyBook.burnNFT(_msgSender(), tokenID, 1);\n\n        _holderTokens[_msgSender()].remove(tokenID);\n\n        emit StakingNFTBurned(tokenID, address(_stakersPool[tokenID].policyBook));\n\n        delete _stakersPool[tokenID];        \n    }       \n\n    function stakingInfoByToken(uint256 tokenID) public view returns (StakingInfo memory) {\n        require(_stakersPool[tokenID].stakingStartTime != 0, \"Staking: this staking token doesn't exist\");\n\n        return _stakersPool[tokenID];\n    }\n\n    function howManyStakings(address owner) public view returns (uint256) {\n        require(owner != address(0), \"Staking: balance query for the zero address\");\n\n        return _holderTokens[owner].length();\n    }\n\n    function getStakingTokensByOwner(address owner) public view returns (uint256[] memory) {\n        uint256 size = howManyStakings(owner);\n        \n        uint256[] memory tokens = new uint256[](size);\n\n        for (uint256 i = 0; i < size; i++)\n        {\n            tokens[i] = _holderTokens[owner].at(i);\n        }\n\n        return tokens;          \n    }\n}\n",
  "sourcePath": "/home/artem/Projects/Distributed_Lab/Applicature/bridgemutual-core/contracts/BMIDAIStaking.sol",
  "compiler": {
    "name": "solc",
    "version": "0.7.4+commit.3f05b770.Emscripten.clang"
  },
  "schemaVersion": "3.3.3",
  "updatedAt": "2021-01-27T14:17:23.919Z",
  "devdoc": {
    "kind": "dev",
    "methods": {
      "owner()": {
        "details": "Returns the address of the current owner."
      },
      "renounceOwnership()": {
        "details": "Leaves the contract without owner. It will not be possible to call `onlyOwner` functions anymore. Can only be called by the current owner. NOTE: Renouncing ownership will leave the contract without an owner, thereby removing any functionality that is only available to the owner."
      },
      "transferOwnership(address)": {
        "details": "Transfers ownership of the contract to a new account (`newOwner`). Can only be called by the current owner."
      }
    },
    "stateVariables": {
      "_currentNFTMintID": {
        "details": "cruial to start from 2"
      }
    },
    "version": 1
  },
  "userdoc": {
    "kind": "user",
    "methods": {},
    "version": 1
  }
}