{
  "contractName": "BMITokenVesting",
  "abi": [
    {
      "anonymous": false,
      "inputs": [
        {
          "indexed": true,
          "internalType": "address",
          "name": "previousOwner",
          "type": "address"
        },
        {
          "indexed": true,
          "internalType": "address",
          "name": "newOwner",
          "type": "address"
        }
      ],
      "name": "OwnershipTransferred",
      "type": "event"
    },
    {
      "anonymous": false,
      "inputs": [
        {
          "indexed": false,
          "internalType": "contract IERC20",
          "name": "token",
          "type": "address"
        }
      ],
      "name": "TokenSet",
      "type": "event"
    },
    {
      "anonymous": false,
      "inputs": [
        {
          "indexed": false,
          "internalType": "uint256",
          "name": "vestingId",
          "type": "uint256"
        }
      ],
      "name": "VestingAdded",
      "type": "event"
    },
    {
      "anonymous": false,
      "inputs": [
        {
          "indexed": false,
          "internalType": "uint256",
          "name": "vestingId",
          "type": "uint256"
        }
      ],
      "name": "VestingCanceled",
      "type": "event"
    },
    {
      "anonymous": false,
      "inputs": [
        {
          "indexed": false,
          "internalType": "uint256",
          "name": "vestingId",
          "type": "uint256"
        },
        {
          "indexed": false,
          "internalType": "uint256",
          "name": "amount",
          "type": "uint256"
        }
      ],
      "name": "VestingWithdraw",
      "type": "event"
    },
    {
      "inputs": [],
      "name": "amountInVestings",
      "outputs": [
        {
          "internalType": "uint256",
          "name": "",
          "type": "uint256"
        }
      ],
      "stateMutability": "view",
      "type": "function"
    },
    {
      "inputs": [],
      "name": "owner",
      "outputs": [
        {
          "internalType": "address",
          "name": "",
          "type": "address"
        }
      ],
      "stateMutability": "view",
      "type": "function"
    },
    {
      "inputs": [],
      "name": "renounceOwnership",
      "outputs": [],
      "stateMutability": "nonpayable",
      "type": "function"
    },
    {
      "inputs": [],
      "name": "token",
      "outputs": [
        {
          "internalType": "contract IERC20",
          "name": "",
          "type": "address"
        }
      ],
      "stateMutability": "view",
      "type": "function"
    },
    {
      "inputs": [
        {
          "internalType": "address",
          "name": "newOwner",
          "type": "address"
        }
      ],
      "name": "transferOwnership",
      "outputs": [],
      "stateMutability": "nonpayable",
      "type": "function"
    },
    {
      "inputs": [],
      "name": "vestingCount",
      "outputs": [
        {
          "internalType": "uint256",
          "name": "",
          "type": "uint256"
        }
      ],
      "stateMutability": "view",
      "type": "function"
    },
    {
      "inputs": [
        {
          "internalType": "contract IERC20",
          "name": "_token",
          "type": "address"
        }
      ],
      "name": "setToken",
      "outputs": [],
      "stateMutability": "nonpayable",
      "type": "function"
    },
    {
      "inputs": [
        {
          "internalType": "address",
          "name": "_beneficiary",
          "type": "address"
        },
        {
          "internalType": "uint256",
          "name": "_amount",
          "type": "uint256"
        },
        {
          "internalType": "uint256",
          "name": "_startDate",
          "type": "uint256"
        },
        {
          "internalType": "uint256",
          "name": "_periodInMonth",
          "type": "uint256"
        },
        {
          "internalType": "uint256",
          "name": "_amountPerPeriod",
          "type": "uint256"
        },
        {
          "internalType": "uint256",
          "name": "_cliffInPeriods",
          "type": "uint256"
        },
        {
          "internalType": "bool",
          "name": "_isCancelable",
          "type": "bool"
        }
      ],
      "name": "createVesting",
      "outputs": [
        {
          "internalType": "uint256",
          "name": "vestingId",
          "type": "uint256"
        }
      ],
      "stateMutability": "nonpayable",
      "type": "function"
    },
    {
      "inputs": [
        {
          "internalType": "uint256",
          "name": "_vestingId",
          "type": "uint256"
        }
      ],
      "name": "cancelVesting",
      "outputs": [],
      "stateMutability": "nonpayable",
      "type": "function"
    },
    {
      "inputs": [
        {
          "internalType": "uint256",
          "name": "_vestingId",
          "type": "uint256"
        }
      ],
      "name": "withdrawFromVesting",
      "outputs": [],
      "stateMutability": "nonpayable",
      "type": "function"
    },
    {
      "inputs": [],
      "name": "withdrawExcessiveTokens",
      "outputs": [],
      "stateMutability": "nonpayable",
      "type": "function"
    },
    {
      "inputs": [],
      "name": "getTokensAvailable",
      "outputs": [
        {
          "internalType": "uint256",
          "name": "",
          "type": "uint256"
        }
      ],
      "stateMutability": "view",
      "type": "function"
    },
    {
      "inputs": [
        {
          "internalType": "uint256",
          "name": "_vestingId",
          "type": "uint256"
        }
      ],
      "name": "getVestingById",
      "outputs": [
        {
          "internalType": "bool",
          "name": "isValid",
          "type": "bool"
        },
        {
          "internalType": "address",
          "name": "beneficiary",
          "type": "address"
        },
        {
          "internalType": "uint256",
          "name": "amount",
          "type": "uint256"
        },
        {
          "internalType": "uint256",
          "name": "startDate",
          "type": "uint256"
        },
        {
          "internalType": "uint256",
          "name": "periodInMonth",
          "type": "uint256"
        },
        {
          "internalType": "uint256",
          "name": "amountPerPeriod",
          "type": "uint256"
        },
        {
          "internalType": "uint256",
          "name": "cliffInPeriods",
          "type": "uint256"
        },
        {
          "internalType": "uint256",
          "name": "paidAmount",
          "type": "uint256"
        },
        {
          "internalType": "bool",
          "name": "isCancelable",
          "type": "bool"
        }
      ],
      "stateMutability": "view",
      "type": "function"
    }
  ],
  "bytecode": "0x608060405234801561001057600080fd5b50600061001b61006a565b600080546001600160a01b0319166001600160a01b0383169081178255604051929350917f8be0079c531659141344cd1fd0a4f28419497f9722a3daafe3b4186f6b6457e0908290a35061006e565b3390565b6111ca8061007d6000396000f3fe608060405234801561001057600080fd5b50600436106100df5760003560e01c8063a15f74a21161008c578063cfe10abc11610066578063cfe10abc1461020f578063d83c14841461028c578063f2fde38b14610294578063fc0c546a146102c7576100df565b8063a15f74a2146101cd578063a5dee4eb146101ea578063aaa5ad6114610207576100df565b8063715018a6116100bd578063715018a61461018c578063887eb130146101945780638da5cb5b1461019c576100df565b80630c1c7a37146100e4578063144fa6d71461014f57806367718acd14610184575b600080fd5b61013d600480360360e08110156100fa57600080fd5b5073ffffffffffffffffffffffffffffffffffffffff8135169060208101359060408101359060608101359060808101359060a08101359060c0013515156102cf565b60408051918252519081900360200190f35b6101826004803603602081101561016557600080fd5b503573ffffffffffffffffffffffffffffffffffffffff16610542565b005b6101826106a3565b6101826107c9565b61013d6108af565b6101a46108b5565b6040805173ffffffffffffffffffffffffffffffffffffffff9092168252519081900360200190f35b610182600480360360208110156101e357600080fd5b50356108d1565b6101826004803603602081101561020057600080fd5b5035610a8d565b61013d610c16565b61022c6004803603602081101561022557600080fd5b5035610cc9565b604080519915158a5273ffffffffffffffffffffffffffffffffffffffff90981660208a0152888801969096526060880194909452608087019290925260a086015260c085015260e0840152151561010083015251908190036101200190f35b61013d610d31565b610182600480360360208110156102aa57600080fd5b503573ffffffffffffffffffffffffffffffffffffffff16610d37565b6101a4610e8d565b60006102d9610ea9565b60005473ffffffffffffffffffffffffffffffffffffffff908116911614610348576040805162461bcd60e51b815260206004820181905260248201527f4f776e61626c653a2063616c6c6572206973206e6f7420746865206f776e6572604482015290519081900360640190fd5b86610351610c16565b10156103a4576040805162461bcd60e51b815260206004820152601160248201527f4e6f7420656e6f75676820746f6b656e73000000000000000000000000000000604482015290519081900360640190fd5b8660046000828254019250508190555060035490506040518061012001604052806001151581526020018973ffffffffffffffffffffffffffffffffffffffff168152602001888152602001878152602001868152602001858152602001848152602001600081526020018315158152506002600083815260200190815260200160002060008201518160000160006101000a81548160ff02191690831515021790555060208201518160000160016101000a81548173ffffffffffffffffffffffffffffffffffffffff021916908373ffffffffffffffffffffffffffffffffffffffff16021790555060408201518160010155606082015181600201556080820151816003015560a0820151816004015560c0820151816005015560e082015181600601556101008201518160070160006101000a81548160ff02191690831515021790555090505060016003600082825401925050819055507f7fc35119d3b3c2716103649a77c63b4a0062583d6c5dff44606e5333ba40771b816040518082815260200191505060405180910390a1979650505050505050565b61054a610ea9565b60005473ffffffffffffffffffffffffffffffffffffffff9081169116146105b9576040805162461bcd60e51b815260206004820181905260248201527f4f776e61626c653a2063616c6c6572206973206e6f7420746865206f776e6572604482015290519081900360640190fd5b60015473ffffffffffffffffffffffffffffffffffffffff1615610624576040805162461bcd60e51b815260206004820152601460248201527f746f6b656e20697320616c726561647920736574000000000000000000000000604482015290519081900360640190fd5b600180547fffffffffffffffffffffffff00000000000000000000000000000000000000001673ffffffffffffffffffffffffffffffffffffffff838116919091179182905560408051929091168252517fa07c91c183e42229e705a9795a1c06d76528b673788b849597364528c96eefb7916020908290030190a150565b6106ab610ea9565b60005473ffffffffffffffffffffffffffffffffffffffff90811691161461071a576040805162461bcd60e51b815260206004820181905260248201527f4f776e61626c653a2063616c6c6572206973206e6f7420746865206f776e6572604482015290519081900360640190fd5b60015473ffffffffffffffffffffffffffffffffffffffff1663a9059cbb6107406108b5565b610748610c16565b6040518363ffffffff1660e01b8152600401808373ffffffffffffffffffffffffffffffffffffffff16815260200182815260200192505050602060405180830381600087803b15801561079b57600080fd5b505af11580156107af573d6000803e3d6000fd5b505050506040513d60208110156107c557600080fd5b5050565b6107d1610ea9565b60005473ffffffffffffffffffffffffffffffffffffffff908116911614610840576040805162461bcd60e51b815260206004820181905260248201527f4f776e61626c653a2063616c6c6572206973206e6f7420746865206f776e6572604482015290519081900360640190fd5b6000805460405173ffffffffffffffffffffffffffffffffffffffff909116907f8be0079c531659141344cd1fd0a4f28419497f9722a3daafe3b4186f6b6457e0908390a3600080547fffffffffffffffffffffffff0000000000000000000000000000000000000000169055565b60035481565b60005473ffffffffffffffffffffffffffffffffffffffff1690565b6108d9610ea9565b60005473ffffffffffffffffffffffffffffffffffffffff908116911614610948576040805162461bcd60e51b815260206004820181905260248201527f4f776e61626c653a2063616c6c6572206973206e6f7420746865206f776e6572604482015290519081900360640190fd5b6000818152600260205260409020805460ff166109ac576040805162461bcd60e51b815260206004820181905260248201527f56657374696e6720646f65736e74206578697374206f722063616e63656c6564604482015290519081900360640190fd5b600781015460ff16610a05576040805162461bcd60e51b815260206004820152601960248201527f56657374696e67206973206e6f742063616e63656c61626c6500000000000000604482015290519081900360640190fd5b80547fffffffffffffffffffffffffffffffffffffffffffffffffffffffffffffff0016815560068101546001820154600091610a429190610ead565b600454909150610a529082610ead565b6004556040805184815290517fd148b0dd94807c97b817d5020a2f49c1908f919b9a57633081d9d6d11ba99be09181900360200190a1505050565b6000818152600260205260409020805460ff16610af1576040805162461bcd60e51b815260206004820181905260248201527f56657374696e6720646f65736e74206578697374206f722063616e63656c6564604482015290519081900360640190fd5b6000610b0a8260060154610b0484610ef8565b90610ead565b60068301805482019055600454909150610b249082610ead565b60049081556001548354604080517fa9059cbb00000000000000000000000000000000000000000000000000000000815273ffffffffffffffffffffffffffffffffffffffff610100909304831694810194909452602484018590525191169163a9059cbb9160448083019260209291908290030181600087803b158015610bab57600080fd5b505af1158015610bbf573d6000803e3d6000fd5b505050506040513d6020811015610bd557600080fd5b5050604080518481526020810183905281517ee5b3e20f5be59dfdc5df050a8674b471b4f787e3d8c23c5504fd5438f891b7929181900390910190a1505050565b60048054600154604080517f70a08231000000000000000000000000000000000000000000000000000000008152309481019490945251600093610cc4939273ffffffffffffffffffffffffffffffffffffffff16916370a0823191602480820192602092909190829003018186803b158015610c9257600080fd5b505afa158015610ca6573d6000803e3d6000fd5b505050506040513d6020811015610cbc57600080fd5b505190610ead565b905090565b60009081526002602081905260409091208054600182015492820154600383015460048401546005850154600686015460079096015460ff8087169961010090970473ffffffffffffffffffffffffffffffffffffffff169897959694959394929392911690565b60045481565b610d3f610ea9565b60005473ffffffffffffffffffffffffffffffffffffffff908116911614610dae576040805162461bcd60e51b815260206004820181905260248201527f4f776e61626c653a2063616c6c6572206973206e6f7420746865206f776e6572604482015290519081900360640190fd5b73ffffffffffffffffffffffffffffffffffffffff8116610e005760405162461bcd60e51b815260040180806020018281038252602681526020018061114e6026913960400191505060405180910390fd5b6000805460405173ffffffffffffffffffffffffffffffffffffffff808516939216917f8be0079c531659141344cd1fd0a4f28419497f9722a3daafe3b4186f6b6457e091a3600080547fffffffffffffffffffffffff00000000000000000000000000000000000000001673ffffffffffffffffffffffffffffffffffffffff92909216919091179055565b60015473ffffffffffffffffffffffffffffffffffffffff1681565b3390565b6000610eef83836040518060400160405280601e81526020017f536166654d6174683a207375627472616374696f6e206f766572666c6f770000815250610f50565b90505b92915050565b600080610f0483610fe7565b905082600501548111610f1b576000915050610f4b565b6004830154600090610f2d908361103c565b9050610f4684600101548261109590919063ffffffff16565b925050505b919050565b60008184841115610fdf5760405162461bcd60e51b81526004018080602001828103825283818151815260200191508051906020019080838360005b83811015610fa4578181015183820152602001610f8c565b50505050905090810190601f168015610fd15780820380516001836020036101000a031916815260200191505b509250505060405180910390fd5b505050900390565b60004282600201541115610ffd57506000610f4b565b60038201546000906110129062278d0061103c565b90506110358161102f856002015442610ead90919063ffffffff16565b906110ab565b9392505050565b60008261104b57506000610ef2565b8282028284828161105857fe5b0414610eef5760405162461bcd60e51b81526004018080602001828103825260218152602001806111746021913960400191505060405180910390fd5b60008183106110a45781610eef565b5090919050565b6000610eef83836040518060400160405280601a81526020017f536166654d6174683a206469766973696f6e206279207a65726f000000000000815250600081836111375760405162461bcd60e51b8152602060048201818152835160248401528351909283926044909101919085019080838360008315610fa4578181015183820152602001610f8c565b50600083858161114357fe5b049594505050505056fe4f776e61626c653a206e6577206f776e657220697320746865207a65726f2061646472657373536166654d6174683a206d756c7469706c69636174696f6e206f766572666c6f77a264697066735822122075721e9fffd06d33e1ce94dfc70d33f7845bfa49b73e98b7b3f7504e22e3a80c64736f6c63430007040033",
  "immutableReferences": {},
  "source": "// SPDX-License-Identifier: MIT\npragma solidity ^0.7.4;\n\nimport \"@openzeppelin/contracts/token/ERC20/SafeERC20.sol\";\nimport \"@openzeppelin/contracts/access/Ownable.sol\";\nimport \"@openzeppelin/contracts/math/Math.sol\";\nimport \"@openzeppelin/contracts/math/SafeMath.sol\";\n\ncontract BMITokenVesting is Ownable {\n  using Math for uint256;\n  using SafeMath for uint256;\n  using SafeERC20 for IERC20;\n\n  struct Vesting {\n    bool isValid;\n    address beneficiary;\n    uint256 amount;\n    uint256 startDate;\n    uint256 periodInMonth;\n    uint256 amountPerPeriod;\n    uint256 cliffInPeriods;\n    uint256 paidAmount;\n    bool isCancelable;\n  }\n\n  IERC20 public token;\n  mapping(uint256 => Vesting) private vestings;\n  uint256 public vestingCount;\n  uint256 public amountInVestings;\n\n  event TokenSet(IERC20 token);\n  event VestingAdded(uint256 vestingId);\n  event VestingCanceled(uint256 vestingId);\n  event VestingWithdraw(uint256 vestingId, uint256 amount);\n\n  function setToken(IERC20 _token) external onlyOwner {\n    require(address(token) == address(0), \"token is already set\");\n    token = _token;\n    emit TokenSet(token);\n  }\n\n  function createVesting(\n    address _beneficiary,\n    uint256 _amount,\n    uint256 _startDate,\n    uint256 _periodInMonth,\n    uint256 _amountPerPeriod,\n    uint256 _cliffInPeriods,\n    bool _isCancelable\n  ) external onlyOwner returns (uint256 vestingId) {\n    require(getTokensAvailable() >= _amount, \"Not enough tokens\");\n\n    amountInVestings += _amount;\n\n    vestingId = vestingCount;\n    vestings[vestingId] = Vesting({\n      isValid: true,\n      beneficiary: _beneficiary,\n      amount: _amount,\n      startDate: _startDate,\n      periodInMonth: _periodInMonth,\n      amountPerPeriod: _amountPerPeriod,\n      cliffInPeriods: _cliffInPeriods,\n      paidAmount: 0,\n      isCancelable: _isCancelable\n    });\n    vestingCount += 1;\n\n    emit VestingAdded(vestingId);\n  }\n\n  function cancelVesting(uint256 _vestingId) external onlyOwner {\n    Vesting storage vesting = vestings[_vestingId];\n    require(vesting.isValid, \"Vesting doesnt exist or canceled\");\n    require(vesting.isCancelable, \"Vesting is not cancelable\");\n\n    vesting.isValid = false;\n    uint256 amountReleased = vesting.amount.sub(vesting.paidAmount);\n    amountInVestings = amountInVestings.sub(amountReleased);\n\n    emit VestingCanceled(_vestingId);\n  }\n\n  function withdrawFromVesting(uint256 _vestingId) external {\n    Vesting storage vesting = vestings[_vestingId];\n    require(vesting.isValid, \"Vesting doesnt exist or canceled\");\n\n    uint256 amountToPay = calculateAvailableAmount(vesting).sub(vesting.paidAmount);\n    vesting.paidAmount += amountToPay;\n    amountInVestings = amountInVestings.sub(amountToPay);\n    token.transfer(vesting.beneficiary, amountToPay);\n\n    emit VestingWithdraw(_vestingId, amountToPay);\n  }\n\n  function calculateAvailableAmount(Vesting storage _vesting) private view returns (uint256) {\n    uint256 elapsedPeriods = calculateElapsedPeriods(_vesting);\n    if (elapsedPeriods <= _vesting.cliffInPeriods) return 0;\n    uint256 amountAvailable = _vesting.amountPerPeriod.mul(elapsedPeriods);\n    return amountAvailable.min(_vesting.amount);\n  }\n\n  function calculateElapsedPeriods(Vesting storage _vesting) private view returns (uint256) {\n    if (_vesting.startDate > block.timestamp) return 0;\n    uint256 periodInSeconds = _vesting.periodInMonth.mul(1 days * 30);\n    return block.timestamp.sub(_vesting.startDate).div(periodInSeconds);\n  }\n\n  function withdrawExcessiveTokens() external onlyOwner {\n    token.transfer(owner(), getTokensAvailable());\n  }\n\n  function getTokensAvailable() public view returns (uint256) {\n    return token.balanceOf(address(this)).sub(amountInVestings);\n  }\n\n  function getVestingById(uint256 _vestingId)\n    public\n    view\n    returns (\n      bool isValid,\n      address beneficiary,\n      uint256 amount,\n      uint256 startDate,\n      uint256 periodInMonth,\n      uint256 amountPerPeriod,\n      uint256 cliffInPeriods,\n      uint256 paidAmount,\n      bool isCancelable\n    )\n  {\n    Vesting storage vesting = vestings[_vestingId];\n    isValid = vesting.isValid;\n    beneficiary = vesting.beneficiary;\n    amount = vesting.amount;\n    startDate = vesting.startDate;\n    periodInMonth = vesting.periodInMonth;\n    amountPerPeriod = vesting.amountPerPeriod;\n    cliffInPeriods = vesting.cliffInPeriods;\n    paidAmount = vesting.paidAmount;\n    isCancelable = vesting.isCancelable;\n  }\n}\n",
  "sourcePath": "/home/artem/Projects/Distributed_Lab/Applicature/bridgemutual-core/contracts/BMITokenVesting.sol",
  "compiler": {
    "name": "solc",
    "version": "0.7.4+commit.3f05b770.Emscripten.clang"
  },
  "schemaVersion": "3.3.3",
  "updatedAt": "2021-01-27T14:17:23.942Z",
  "devdoc": {
    "kind": "dev",
    "methods": {
      "owner()": {
        "details": "Returns the address of the current owner."
      },
      "renounceOwnership()": {
        "details": "Leaves the contract without owner. It will not be possible to call `onlyOwner` functions anymore. Can only be called by the current owner. NOTE: Renouncing ownership will leave the contract without an owner, thereby removing any functionality that is only available to the owner."
      },
      "transferOwnership(address)": {
        "details": "Transfers ownership of the contract to a new account (`newOwner`). Can only be called by the current owner."
      }
    },
    "version": 1
  },
  "userdoc": {
    "kind": "user",
    "methods": {},
    "version": 1
  }
}