{
  "contractName": "ContractsRegistry",
  "abi": [
    {
      "inputs": [],
      "stateMutability": "nonpayable",
      "type": "constructor"
    },
    {
      "anonymous": false,
      "inputs": [
        {
          "indexed": true,
          "internalType": "address",
          "name": "previousOwner",
          "type": "address"
        },
        {
          "indexed": true,
          "internalType": "address",
          "name": "newOwner",
          "type": "address"
        }
      ],
      "name": "OwnershipTransferred",
      "type": "event"
    },
    {
      "anonymous": false,
      "inputs": [
        {
          "indexed": true,
          "internalType": "bytes32",
          "name": "role",
          "type": "bytes32"
        },
        {
          "indexed": true,
          "internalType": "bytes32",
          "name": "previousAdminRole",
          "type": "bytes32"
        },
        {
          "indexed": true,
          "internalType": "bytes32",
          "name": "newAdminRole",
          "type": "bytes32"
        }
      ],
      "name": "RoleAdminChanged",
      "type": "event"
    },
    {
      "anonymous": false,
      "inputs": [
        {
          "indexed": true,
          "internalType": "bytes32",
          "name": "role",
          "type": "bytes32"
        },
        {
          "indexed": true,
          "internalType": "address",
          "name": "account",
          "type": "address"
        },
        {
          "indexed": true,
          "internalType": "address",
          "name": "sender",
          "type": "address"
        }
      ],
      "name": "RoleGranted",
      "type": "event"
    },
    {
      "anonymous": false,
      "inputs": [
        {
          "indexed": true,
          "internalType": "bytes32",
          "name": "role",
          "type": "bytes32"
        },
        {
          "indexed": true,
          "internalType": "address",
          "name": "account",
          "type": "address"
        },
        {
          "indexed": true,
          "internalType": "address",
          "name": "sender",
          "type": "address"
        }
      ],
      "name": "RoleRevoked",
      "type": "event"
    },
    {
      "inputs": [],
      "name": "DEFAULT_ADMIN_ROLE",
      "outputs": [
        {
          "internalType": "bytes32",
          "name": "",
          "type": "bytes32"
        }
      ],
      "stateMutability": "view",
      "type": "function",
      "constant": true
    },
    {
      "inputs": [],
      "name": "REGISTRY_ADMIN_ROLE",
      "outputs": [
        {
          "internalType": "bytes32",
          "name": "",
          "type": "bytes32"
        }
      ],
      "stateMutability": "view",
      "type": "function",
      "constant": true
    },
    {
      "inputs": [
        {
          "internalType": "bytes32",
          "name": "role",
          "type": "bytes32"
        }
      ],
      "name": "getRoleAdmin",
      "outputs": [
        {
          "internalType": "bytes32",
          "name": "",
          "type": "bytes32"
        }
      ],
      "stateMutability": "view",
      "type": "function",
      "constant": true
    },
    {
      "inputs": [
        {
          "internalType": "bytes32",
          "name": "role",
          "type": "bytes32"
        },
        {
          "internalType": "uint256",
          "name": "index",
          "type": "uint256"
        }
      ],
      "name": "getRoleMember",
      "outputs": [
        {
          "internalType": "address",
          "name": "",
          "type": "address"
        }
      ],
      "stateMutability": "view",
      "type": "function",
      "constant": true
    },
    {
      "inputs": [
        {
          "internalType": "bytes32",
          "name": "role",
          "type": "bytes32"
        }
      ],
      "name": "getRoleMemberCount",
      "outputs": [
        {
          "internalType": "uint256",
          "name": "",
          "type": "uint256"
        }
      ],
      "stateMutability": "view",
      "type": "function",
      "constant": true
    },
    {
      "inputs": [
        {
          "internalType": "bytes32",
          "name": "role",
          "type": "bytes32"
        },
        {
          "internalType": "address",
          "name": "account",
          "type": "address"
        }
      ],
      "name": "grantRole",
      "outputs": [],
      "stateMutability": "nonpayable",
      "type": "function"
    },
    {
      "inputs": [
        {
          "internalType": "bytes32",
          "name": "role",
          "type": "bytes32"
        },
        {
          "internalType": "address",
          "name": "account",
          "type": "address"
        }
      ],
      "name": "hasRole",
      "outputs": [
        {
          "internalType": "bool",
          "name": "",
          "type": "bool"
        }
      ],
      "stateMutability": "view",
      "type": "function",
      "constant": true
    },
    {
      "inputs": [],
      "name": "owner",
      "outputs": [
        {
          "internalType": "address",
          "name": "",
          "type": "address"
        }
      ],
      "stateMutability": "view",
      "type": "function",
      "constant": true
    },
    {
      "inputs": [],
      "name": "renounceOwnership",
      "outputs": [],
      "stateMutability": "nonpayable",
      "type": "function"
    },
    {
      "inputs": [
        {
          "internalType": "bytes32",
          "name": "role",
          "type": "bytes32"
        },
        {
          "internalType": "address",
          "name": "account",
          "type": "address"
        }
      ],
      "name": "renounceRole",
      "outputs": [],
      "stateMutability": "nonpayable",
      "type": "function"
    },
    {
      "inputs": [
        {
          "internalType": "bytes32",
          "name": "role",
          "type": "bytes32"
        },
        {
          "internalType": "address",
          "name": "account",
          "type": "address"
        }
      ],
      "name": "revokeRole",
      "outputs": [],
      "stateMutability": "nonpayable",
      "type": "function"
    },
    {
      "inputs": [
        {
          "internalType": "address",
          "name": "newOwner",
          "type": "address"
        }
      ],
      "name": "transferOwnership",
      "outputs": [],
      "stateMutability": "nonpayable",
      "type": "function"
    },
    {
      "inputs": [],
      "name": "getDAIName",
      "outputs": [
        {
          "internalType": "string",
          "name": "",
          "type": "string"
        }
      ],
      "stateMutability": "pure",
      "type": "function",
      "constant": true
    },
    {
      "inputs": [],
      "name": "getBMIName",
      "outputs": [
        {
          "internalType": "string",
          "name": "",
          "type": "string"
        }
      ],
      "stateMutability": "pure",
      "type": "function",
      "constant": true
    },
    {
      "inputs": [],
      "name": "getPolicyBookRegistryName",
      "outputs": [
        {
          "internalType": "string",
          "name": "",
          "type": "string"
        }
      ],
      "stateMutability": "pure",
      "type": "function",
      "constant": true
    },
    {
      "inputs": [],
      "name": "getPolicyBookFabricName",
      "outputs": [
        {
          "internalType": "string",
          "name": "",
          "type": "string"
        }
      ],
      "stateMutability": "pure",
      "type": "function",
      "constant": true
    },
    {
      "inputs": [],
      "name": "getBmiDAIStakingName",
      "outputs": [
        {
          "internalType": "string",
          "name": "",
          "type": "string"
        }
      ],
      "stateMutability": "pure",
      "type": "function",
      "constant": true
    },
    {
      "inputs": [],
      "name": "getYieldGeneratorName",
      "outputs": [
        {
          "internalType": "string",
          "name": "",
          "type": "string"
        }
      ],
      "stateMutability": "pure",
      "type": "function",
      "constant": true
    },
    {
      "inputs": [
        {
          "internalType": "string",
          "name": "_name",
          "type": "string"
        }
      ],
      "name": "getContract",
      "outputs": [
        {
          "internalType": "address",
          "name": "",
          "type": "address"
        }
      ],
      "stateMutability": "view",
      "type": "function",
      "constant": true
    },
    {
      "inputs": [
        {
          "internalType": "string",
          "name": "_name",
          "type": "string"
        },
        {
          "internalType": "address",
          "name": "_contractAddress",
          "type": "address"
        }
      ],
      "name": "addContractRegistry",
      "outputs": [],
      "stateMutability": "nonpayable",
      "type": "function"
    },
    {
      "inputs": [
        {
          "internalType": "string",
          "name": "_name",
          "type": "string"
        },
        {
          "internalType": "address",
          "name": "_contractAddress",
          "type": "address"
        }
      ],
      "name": "modifyContractRegistry",
      "outputs": [],
      "stateMutability": "nonpayable",
      "type": "function"
    },
    {
      "inputs": [
        {
          "internalType": "string",
          "name": "_name",
          "type": "string"
        }
      ],
      "name": "deleteContractRegistry",
      "outputs": [],
      "stateMutability": "nonpayable",
      "type": "function"
    }
  ],
  "bytecode": "0x60806040523480156200001157600080fd5b5060006200001e620000cf565b600080546001600160a01b0319166001600160a01b0383169081178255604051929350917f8be0079c531659141344cd1fd0a4f28419497f9722a3daafe3b4186f6b6457e0908290a3506200009d7fbb28eb1a0cfabcecf96003fab466159bc2e051e49d79baf049890044e907244062000097620000d3565b620000e2565b620000c97fbb28eb1a0cfabcecf96003fab466159bc2e051e49d79baf049890044e907244080620000f2565b62000246565b3390565b6000546001600160a01b031690565b620000ee828262000144565b5050565b600082815260016020526040808220600201549051839285917fbd79b86ffe0ab8e8776151514217cd7cacd52c909f66475c3af44e129f0b00ff9190a460009182526001602052604090912060020155565b60008281526001602090815260409091206200016b91839062000c15620001bf821b17901c565b15620000ee576200017b620000cf565b6001600160a01b0316816001600160a01b0316837f2f8788117e7eff1d82e926ec794901d17c78024a50270940304540a733656f0d60405160405180910390a45050565b6000620001d6836001600160a01b038416620001df565b90505b92915050565b6000620001ed83836200022e565b6200022557508154600181810184556000848152602080822090930184905584548482528286019093526040902091909155620001d9565b506000620001d9565b60009081526001919091016020526040902054151590565b61141880620002566000396000f3fe608060405234801561001057600080fd5b50600436106101825760003560e01c80639010d07c116100d8578063bf584c4b1161008c578063d547741f11610066578063d547741f146102c1578063d8f99552146102d4578063f2fde38b146102e757610182565b8063bf584c4b1461029e578063c0ed452f146102a6578063ca15c873146102ae57610182565b80639a763eec116100bd5780639a763eec1461027b578063a217fddf1461028e578063a45611b61461029657610182565b80639010d07c1461024857806391d148541461025b57610182565b8063358177731161013a578063634f0eab11610114578063634f0eab14610230578063715018a6146102385780638da5cb5b1461024057610182565b806335817773146101f557806336568abe146102155780633d2886a01461022857610182565b80632743430e1161016b5780632743430e146101c557806327c300af146101da5780632f2ff15d146101e257610182565b80630492574714610187578063248a9ca3146101a5575b600080fd5b61018f6102fa565b60405161019c9190611135565b60405180910390f35b6101b86101b3366004611002565b610331565b60405161019c919061112c565b6101d86101d33660046110a1565b610349565b005b61018f61048d565b6101d86101f036600461101a565b6104c4565b610208610203366004611066565b61052b565b60405161019c9190611100565b6101d861022336600461101a565b6105c4565b61018f61063f565b61018f610676565b6101d86106ad565b610208610793565b610208610256366004611045565b6107af565b61026e61026936600461101a565b6107d0565b60405161019c9190611121565b6101d86102893660046110a1565b6107e8565b6101b86108ce565b61018f6108d3565b6101b861090a565b61018f61092e565b6101b86102bc366004611002565b610965565b6101d86102cf36600461101a565b61097c565b6101d86102e2366004611066565b6109d5565b6101d86102f5366004610fe8565b610abf565b60408051808201909152601481527f504f4c4943595f424f4f4b5f5245474953545259000000000000000000000000602082015290565b6000818152600160205260409020600201545b919050565b6103737fbb28eb1a0cfabcecf96003fab466159bc2e051e49d79baf049890044e9072440336107d0565b6103985760405162461bcd60e51b815260040161038f9061127f565b60405180910390fd5b73ffffffffffffffffffffffffffffffffffffffff81166103cb5760405162461bcd60e51b815260040161038f906111c5565b6000826040516020016103de91906110e4565b60408051601f1981840301815291815281516020928301206000818152600290935291205490915073ffffffffffffffffffffffffffffffffffffffff16156104395760405162461bcd60e51b815260040161038f90611168565b600090815260026020526040902080547fffffffffffffffffffffffff00000000000000000000000000000000000000001673ffffffffffffffffffffffffffffffffffffffff9290921691909117905550565b60408051808201909152600381527f424d490000000000000000000000000000000000000000000000000000000000602082015290565b6000828152600160205260409020600201546104e290610269610c37565b61051d5760405162461bcd60e51b815260040180806020018281038252602f81526020018061132f602f913960400191505060405180910390fd5b6105278282610c3b565b5050565b6000808260405160200161053f91906110e4565b60408051601f1981840301815291815281516020928301206000818152600290935291205490915073ffffffffffffffffffffffffffffffffffffffff166105995760405162461bcd60e51b815260040161038f90611222565b60009081526002602052604090205473ffffffffffffffffffffffffffffffffffffffff1692915050565b6105cc610c37565b73ffffffffffffffffffffffffffffffffffffffff168173ffffffffffffffffffffffffffffffffffffffff16146106355760405162461bcd60e51b815260040180806020018281038252602f8152602001806113b4602f913960400191505060405180910390fd5b6105278282610cbe565b60408051808201909152600f81527f424d495f4441495f5354414b494e470000000000000000000000000000000000602082015290565b60408051808201909152601281527f504f4c4943595f424f4f4b5f4641425249430000000000000000000000000000602082015290565b6106b5610c37565b60005473ffffffffffffffffffffffffffffffffffffffff908116911614610724576040805162461bcd60e51b815260206004820181905260248201527f4f776e61626c653a2063616c6c6572206973206e6f7420746865206f776e6572604482015290519081900360640190fd5b6000805460405173ffffffffffffffffffffffffffffffffffffffff909116907f8be0079c531659141344cd1fd0a4f28419497f9722a3daafe3b4186f6b6457e0908390a3600080547fffffffffffffffffffffffff0000000000000000000000000000000000000000169055565b60005473ffffffffffffffffffffffffffffffffffffffff1690565b60008281526001602052604081206107c79083610d41565b90505b92915050565b60008281526001602052604081206107c79083610d4d565b6108127fbb28eb1a0cfabcecf96003fab466159bc2e051e49d79baf049890044e9072440336107d0565b61082e5760405162461bcd60e51b815260040161038f9061127f565b73ffffffffffffffffffffffffffffffffffffffff81166108615760405162461bcd60e51b815260040161038f906111c5565b60008260405160200161087491906110e4565b60408051601f1981840301815291815281516020928301206000818152600290935291205490915073ffffffffffffffffffffffffffffffffffffffff166104395760405162461bcd60e51b815260040161038f90611222565b600081565b60408051808201909152600381527f4441490000000000000000000000000000000000000000000000000000000000602082015290565b7fbb28eb1a0cfabcecf96003fab466159bc2e051e49d79baf049890044e907244081565b60408051808201909152601481527f444546495f5949454c445f47454e455241544f52000000000000000000000000602082015290565b60008181526001602052604081206107ca90610d6f565b60008281526001602052604090206002015461099a90610269610c37565b6106355760405162461bcd60e51b81526004018080602001828103825260308152602001806113846030913960400191505060405180910390fd5b6109ff7fbb28eb1a0cfabcecf96003fab466159bc2e051e49d79baf049890044e9072440336107d0565b610a1b5760405162461bcd60e51b815260040161038f9061127f565b600081604051602001610a2e91906110e4565b60408051601f1981840301815291815281516020928301206000818152600290935291205490915073ffffffffffffffffffffffffffffffffffffffff16610a885760405162461bcd60e51b815260040161038f90611222565b600090815260026020526040902080547fffffffffffffffffffffffff000000000000000000000000000000000000000016905550565b610ac7610c37565b60005473ffffffffffffffffffffffffffffffffffffffff908116911614610b36576040805162461bcd60e51b815260206004820181905260248201527f4f776e61626c653a2063616c6c6572206973206e6f7420746865206f776e6572604482015290519081900360640190fd5b73ffffffffffffffffffffffffffffffffffffffff8116610b885760405162461bcd60e51b815260040180806020018281038252602681526020018061135e6026913960400191505060405180910390fd5b6000805460405173ffffffffffffffffffffffffffffffffffffffff808516939216917f8be0079c531659141344cd1fd0a4f28419497f9722a3daafe3b4186f6b6457e091a3600080547fffffffffffffffffffffffff00000000000000000000000000000000000000001673ffffffffffffffffffffffffffffffffffffffff92909216919091179055565b60006107c78373ffffffffffffffffffffffffffffffffffffffff8416610d7a565b3390565b6000828152600160205260409020610c539082610c15565b1561052757610c60610c37565b73ffffffffffffffffffffffffffffffffffffffff168173ffffffffffffffffffffffffffffffffffffffff16837f2f8788117e7eff1d82e926ec794901d17c78024a50270940304540a733656f0d60405160405180910390a45050565b6000828152600160205260409020610cd69082610dc4565b1561052757610ce3610c37565b73ffffffffffffffffffffffffffffffffffffffff168173ffffffffffffffffffffffffffffffffffffffff16837ff6391f5c32d9c69d2a47ea670b442974b53935d1edc7fd64eb21e047a839171b60405160405180910390a45050565b60006107c78383610de6565b60006107c78373ffffffffffffffffffffffffffffffffffffffff8416610e4a565b60006107ca82610e62565b6000610d868383610e4a565b610dbc575081546001818101845560008481526020808220909301849055845484825282860190935260409020919091556107ca565b5060006107ca565b60006107c78373ffffffffffffffffffffffffffffffffffffffff8416610e66565b81546000908210610e285760405162461bcd60e51b815260040180806020018281038252602281526020018061130d6022913960400191505060405180910390fd5b826000018281548110610e3757fe5b9060005260206000200154905092915050565b60009081526001919091016020526040902054151590565b5490565b60008181526001830160205260408120548015610f405783547fffffffffffffffffffffffffffffffffffffffffffffffffffffffffffffffff8083019190810190600090879083908110610eb757fe5b9060005260206000200154905080876000018481548110610ed457fe5b600091825260208083209091019290925582815260018981019092526040902090840190558654879080610f0457fe5b600190038181906000526020600020016000905590558660010160008781526020019081526020016000206000905560019450505050506107ca565b60009150506107ca565b803573ffffffffffffffffffffffffffffffffffffffff8116811461034457600080fd5b600082601f830112610f7e578081fd5b813567ffffffffffffffff80821115610f9357fe5b6040516020601f19601f8501168201018181108382111715610fb157fe5b604052828152925082848301602001861015610fcc57600080fd5b8260208601602083013760006020848301015250505092915050565b600060208284031215610ff9578081fd5b6107c782610f4a565b600060208284031215611013578081fd5b5035919050565b6000806040838503121561102c578081fd5b8235915061103c60208401610f4a565b90509250929050565b60008060408385031215611057578182fd5b50508035926020909101359150565b600060208284031215611077578081fd5b813567ffffffffffffffff81111561108d578182fd5b61109984828501610f6e565b949350505050565b600080604083850312156110b3578182fd5b823567ffffffffffffffff8111156110c9578283fd5b6110d585828601610f6e565b92505061103c60208401610f4a565b600082516110f68184602087016112dc565b9190910192915050565b73ffffffffffffffffffffffffffffffffffffffff91909116815260200190565b901515815260200190565b90815260200190565b60006020825282518060208401526111548160408501602087016112dc565b601f01601f19169190910160400192915050565b6020808252602e908201527f436f6e74726163747352656769737472793a2054686973206d617070696e672060408201527f616c726561647920657869737473000000000000000000000000000000000000606082015260800190565b6020808252602c908201527f436f6e74726163747352656769737472793a204e756c6c20616464726573732060408201527f697320666f7262696464656e0000000000000000000000000000000000000000606082015260800190565b6020808252602d908201527f436f6e74726163747352656769737472793a2054686973206d617070696e672060408201527f646f65736e277420657869737400000000000000000000000000000000000000606082015260800190565b60208082526029908201527f436f6e74726163747352656769737472793a2043616c6c6572206973206e6f7460408201527f20616e2061646d696e0000000000000000000000000000000000000000000000606082015260800190565b60005b838110156112f75781810151838201526020016112df565b83811115611306576000848401525b5050505056fe456e756d657261626c655365743a20696e646578206f7574206f6620626f756e6473416363657373436f6e74726f6c3a2073656e646572206d75737420626520616e2061646d696e20746f206772616e744f776e61626c653a206e6577206f776e657220697320746865207a65726f2061646472657373416363657373436f6e74726f6c3a2073656e646572206d75737420626520616e2061646d696e20746f207265766f6b65416363657373436f6e74726f6c3a2063616e206f6e6c792072656e6f756e636520726f6c657320666f722073656c66a2646970667358221220dd320e21f19512d61a6d51260ed2d8f930806a637447fdbae3ec50427bec4cce64736f6c63430007040033",
  "immutableReferences": {},
  "source": "// SPDX-License-Identifier: MIT\npragma solidity ^0.7.4;\npragma experimental ABIEncoderV2;\n\nimport \"@openzeppelin/contracts/access/AccessControl.sol\";\nimport \"@openzeppelin/contracts/access/Ownable.sol\";\n\ncontract ContractsRegistry is Ownable, AccessControl {\n    mapping (bytes32 => address) private _contracts;\n\n    bytes32 public constant REGISTRY_ADMIN_ROLE = keccak256(\"REGISTRY_ADMIN_ROLE\");\n\n    string constant private POLICY_BOOK_REGISTRY_NAME = \"POLICY_BOOK_REGISTRY\";  \n    string constant private POLICY_BOOK_FABRIC_NAME = \"POLICY_BOOK_FABRIC\";        \n    string constant private BMI_DAI_STAKING_NAME = \"BMI_DAI_STAKING\";\n    string constant private YIELD_GENERATOR_NAME = \"DEFI_YIELD_GENERATOR\";\n    string constant private DAI_NAME = \"DAI\";\n    string constant private BMI_NAME = \"BMI\";\n\n    modifier onlyAdmin() {\n        require(hasRole(REGISTRY_ADMIN_ROLE, msg.sender), \"ContractsRegistry: Caller is not an admin\");\n        _;\n    }\n\n    constructor() {\n        _setupRole(REGISTRY_ADMIN_ROLE, owner());        \n        _setRoleAdmin(REGISTRY_ADMIN_ROLE, REGISTRY_ADMIN_ROLE);\n    }\n\n    function getDAIName() external pure returns (string memory) {\n        return DAI_NAME;\n    }\n\n    function getBMIName() external pure returns (string memory) {\n        return BMI_NAME;\n    }\n\n    function getPolicyBookRegistryName() external pure returns (string memory) {\n        return POLICY_BOOK_REGISTRY_NAME;\n    }\n\n    function getPolicyBookFabricName() external pure returns (string memory) {\n        return POLICY_BOOK_FABRIC_NAME;\n    }\n\n    function getBmiDAIStakingName() external pure returns (string memory) {\n        return BMI_DAI_STAKING_NAME;\n    }\n\n    function getYieldGeneratorName() external pure returns (string memory) {\n        return YIELD_GENERATOR_NAME;\n    }\n\n    function getContract(string memory _name) public view returns (address) {\n        bytes32 bytesName = keccak256(abi.encodePacked(_name));\n\n        require(_contracts[bytesName] != address(0), \"ContractsRegistry: This mapping doesn't exist\");\n\n        return _contracts[bytesName];\n    }\n\n    function addContractRegistry(string memory _name, address _contractAddress) public onlyAdmin {\n        require(_contractAddress != address(0), \"ContractsRegistry: Null address is forbidden\");        \n\n        bytes32 bytesName = keccak256(abi.encodePacked(_name));\n\n        require(_contracts[bytesName] == address(0), \"ContractsRegistry: This mapping already exists\");\n\n        _contracts[bytesName] = _contractAddress;\n    }\n\n    function modifyContractRegistry(string memory _name, address _contractAddress) public onlyAdmin {\n        require(_contractAddress != address(0), \"ContractsRegistry: Null address is forbidden\");        \n\n        bytes32 bytesName = keccak256(abi.encodePacked(_name));\n\n        require(_contracts[bytesName] != address(0), \"ContractsRegistry: This mapping doesn't exist\");\n\n        _contracts[bytesName] = _contractAddress;\n    }\n\n    function deleteContractRegistry(string memory _name) public onlyAdmin {\n        bytes32 bytesName = keccak256(abi.encodePacked(_name));\n\n        require(_contracts[bytesName] != address(0), \"ContractsRegistry: This mapping doesn't exist\");\n\n        delete _contracts[bytesName];\n    }    \n}",
  "sourcePath": "/home/artem/Projects/Distributed_Lab/Applicature/bridgemutual-core/contracts/ContractsRegistry.sol",
  "compiler": {
    "name": "solc",
    "version": "0.7.4+commit.3f05b770.Emscripten.clang"
  },
  "schemaVersion": "3.3.3",
  "updatedAt": "2021-01-22T16:22:28.206Z",
  "networkType": "ethereum",
  "devdoc": {
    "kind": "dev",
    "methods": {
      "getRoleAdmin(bytes32)": {
        "details": "Returns the admin role that controls `role`. See {grantRole} and {revokeRole}. To change a role's admin, use {_setRoleAdmin}."
      },
      "getRoleMember(bytes32,uint256)": {
        "details": "Returns one of the accounts that have `role`. `index` must be a value between 0 and {getRoleMemberCount}, non-inclusive. Role bearers are not sorted in any particular way, and their ordering may change at any point. WARNING: When using {getRoleMember} and {getRoleMemberCount}, make sure you perform all queries on the same block. See the following https://forum.openzeppelin.com/t/iterating-over-elements-on-enumerableset-in-openzeppelin-contracts/2296[forum post] for more information."
      },
      "getRoleMemberCount(bytes32)": {
        "details": "Returns the number of accounts that have `role`. Can be used together with {getRoleMember} to enumerate all bearers of a role."
      },
      "grantRole(bytes32,address)": {
        "details": "Grants `role` to `account`. If `account` had not been already granted `role`, emits a {RoleGranted} event. Requirements: - the caller must have ``role``'s admin role."
      },
      "hasRole(bytes32,address)": {
        "details": "Returns `true` if `account` has been granted `role`."
      },
      "owner()": {
        "details": "Returns the address of the current owner."
      },
      "renounceOwnership()": {
        "details": "Leaves the contract without owner. It will not be possible to call `onlyOwner` functions anymore. Can only be called by the current owner. NOTE: Renouncing ownership will leave the contract without an owner, thereby removing any functionality that is only available to the owner."
      },
      "renounceRole(bytes32,address)": {
        "details": "Revokes `role` from the calling account. Roles are often managed via {grantRole} and {revokeRole}: this function's purpose is to provide a mechanism for accounts to lose their privileges if they are compromised (such as when a trusted device is misplaced). If the calling account had been granted `role`, emits a {RoleRevoked} event. Requirements: - the caller must be `account`."
      },
      "revokeRole(bytes32,address)": {
        "details": "Revokes `role` from `account`. If `account` had been granted `role`, emits a {RoleRevoked} event. Requirements: - the caller must have ``role``'s admin role."
      },
      "transferOwnership(address)": {
        "details": "Transfers ownership of the contract to a new account (`newOwner`). Can only be called by the current owner."
      }
    },
    "version": 1
  },
  "userdoc": {
    "kind": "user",
    "methods": {},
    "version": 1
  }
}