{
  "contractName": "ContractsRegistry",
  "abi": [
    {
      "inputs": [],
      "stateMutability": "nonpayable",
      "type": "constructor"
    },
    {
      "anonymous": false,
      "inputs": [
        {
          "indexed": true,
          "internalType": "address",
          "name": "previousOwner",
          "type": "address"
        },
        {
          "indexed": true,
          "internalType": "address",
          "name": "newOwner",
          "type": "address"
        }
      ],
      "name": "OwnershipTransferred",
      "type": "event"
    },
    {
      "anonymous": false,
      "inputs": [
        {
          "indexed": true,
          "internalType": "bytes32",
          "name": "role",
          "type": "bytes32"
        },
        {
          "indexed": true,
          "internalType": "bytes32",
          "name": "previousAdminRole",
          "type": "bytes32"
        },
        {
          "indexed": true,
          "internalType": "bytes32",
          "name": "newAdminRole",
          "type": "bytes32"
        }
      ],
      "name": "RoleAdminChanged",
      "type": "event"
    },
    {
      "anonymous": false,
      "inputs": [
        {
          "indexed": true,
          "internalType": "bytes32",
          "name": "role",
          "type": "bytes32"
        },
        {
          "indexed": true,
          "internalType": "address",
          "name": "account",
          "type": "address"
        },
        {
          "indexed": true,
          "internalType": "address",
          "name": "sender",
          "type": "address"
        }
      ],
      "name": "RoleGranted",
      "type": "event"
    },
    {
      "anonymous": false,
      "inputs": [
        {
          "indexed": true,
          "internalType": "bytes32",
          "name": "role",
          "type": "bytes32"
        },
        {
          "indexed": true,
          "internalType": "address",
          "name": "account",
          "type": "address"
        },
        {
          "indexed": true,
          "internalType": "address",
          "name": "sender",
          "type": "address"
        }
      ],
      "name": "RoleRevoked",
      "type": "event"
    },
    {
      "inputs": [],
      "name": "DEFAULT_ADMIN_ROLE",
      "outputs": [
        {
          "internalType": "bytes32",
          "name": "",
          "type": "bytes32"
        }
      ],
      "stateMutability": "view",
      "type": "function"
    },
    {
      "inputs": [],
      "name": "REGISTRY_ADMIN_ROLE",
      "outputs": [
        {
          "internalType": "bytes32",
          "name": "",
          "type": "bytes32"
        }
      ],
      "stateMutability": "view",
      "type": "function"
    },
    {
      "inputs": [
        {
          "internalType": "bytes32",
          "name": "role",
          "type": "bytes32"
        }
      ],
      "name": "getRoleAdmin",
      "outputs": [
        {
          "internalType": "bytes32",
          "name": "",
          "type": "bytes32"
        }
      ],
      "stateMutability": "view",
      "type": "function"
    },
    {
      "inputs": [
        {
          "internalType": "bytes32",
          "name": "role",
          "type": "bytes32"
        },
        {
          "internalType": "uint256",
          "name": "index",
          "type": "uint256"
        }
      ],
      "name": "getRoleMember",
      "outputs": [
        {
          "internalType": "address",
          "name": "",
          "type": "address"
        }
      ],
      "stateMutability": "view",
      "type": "function"
    },
    {
      "inputs": [
        {
          "internalType": "bytes32",
          "name": "role",
          "type": "bytes32"
        }
      ],
      "name": "getRoleMemberCount",
      "outputs": [
        {
          "internalType": "uint256",
          "name": "",
          "type": "uint256"
        }
      ],
      "stateMutability": "view",
      "type": "function"
    },
    {
      "inputs": [
        {
          "internalType": "bytes32",
          "name": "role",
          "type": "bytes32"
        },
        {
          "internalType": "address",
          "name": "account",
          "type": "address"
        }
      ],
      "name": "grantRole",
      "outputs": [],
      "stateMutability": "nonpayable",
      "type": "function"
    },
    {
      "inputs": [
        {
          "internalType": "bytes32",
          "name": "role",
          "type": "bytes32"
        },
        {
          "internalType": "address",
          "name": "account",
          "type": "address"
        }
      ],
      "name": "hasRole",
      "outputs": [
        {
          "internalType": "bool",
          "name": "",
          "type": "bool"
        }
      ],
      "stateMutability": "view",
      "type": "function"
    },
    {
      "inputs": [],
      "name": "owner",
      "outputs": [
        {
          "internalType": "address",
          "name": "",
          "type": "address"
        }
      ],
      "stateMutability": "view",
      "type": "function"
    },
    {
      "inputs": [],
      "name": "renounceOwnership",
      "outputs": [],
      "stateMutability": "nonpayable",
      "type": "function"
    },
    {
      "inputs": [
        {
          "internalType": "bytes32",
          "name": "role",
          "type": "bytes32"
        },
        {
          "internalType": "address",
          "name": "account",
          "type": "address"
        }
      ],
      "name": "renounceRole",
      "outputs": [],
      "stateMutability": "nonpayable",
      "type": "function"
    },
    {
      "inputs": [
        {
          "internalType": "bytes32",
          "name": "role",
          "type": "bytes32"
        },
        {
          "internalType": "address",
          "name": "account",
          "type": "address"
        }
      ],
      "name": "revokeRole",
      "outputs": [],
      "stateMutability": "nonpayable",
      "type": "function"
    },
    {
      "inputs": [
        {
          "internalType": "address",
          "name": "newOwner",
          "type": "address"
        }
      ],
      "name": "transferOwnership",
      "outputs": [],
      "stateMutability": "nonpayable",
      "type": "function"
    },
    {
      "inputs": [
        {
          "internalType": "string",
          "name": "_name",
          "type": "string"
        }
      ],
      "name": "getContract",
      "outputs": [
        {
          "internalType": "address",
          "name": "",
          "type": "address"
        }
      ],
      "stateMutability": "view",
      "type": "function"
    },
    {
      "inputs": [
        {
          "internalType": "string",
          "name": "_name",
          "type": "string"
        },
        {
          "internalType": "address",
          "name": "_contractAddress",
          "type": "address"
        }
      ],
      "name": "addContractRegistry",
      "outputs": [],
      "stateMutability": "nonpayable",
      "type": "function"
    },
    {
      "inputs": [
        {
          "internalType": "string",
          "name": "_name",
          "type": "string"
        },
        {
          "internalType": "address",
          "name": "_contractAddress",
          "type": "address"
        }
      ],
      "name": "modifyContractRegistry",
      "outputs": [],
      "stateMutability": "nonpayable",
      "type": "function"
    },
    {
      "inputs": [
        {
          "internalType": "string",
          "name": "_name",
          "type": "string"
        }
      ],
      "name": "deleteContractRegistry",
      "outputs": [],
      "stateMutability": "nonpayable",
      "type": "function"
    }
  ],
  "bytecode": "0x60806040523480156200001157600080fd5b5060006200001e620000cf565b600080546001600160a01b0319166001600160a01b0383169081178255604051929350917f8be0079c531659141344cd1fd0a4f28419497f9722a3daafe3b4186f6b6457e0908290a3506200009d7fbb28eb1a0cfabcecf96003fab466159bc2e051e49d79baf049890044e907244062000097620000d3565b620000e2565b620000c97fbb28eb1a0cfabcecf96003fab466159bc2e051e49d79baf049890044e907244080620000f2565b62000246565b3390565b6000546001600160a01b031690565b620000ee828262000144565b5050565b600082815260016020526040808220600201549051839285917fbd79b86ffe0ab8e8776151514217cd7cacd52c909f66475c3af44e129f0b00ff9190a460009182526001602052604090912060020155565b60008281526001602090815260409091206200016b91839062000a84620001bf821b17901c565b15620000ee576200017b620000cf565b6001600160a01b0316816001600160a01b0316837f2f8788117e7eff1d82e926ec794901d17c78024a50270940304540a733656f0d60405160405180910390a45050565b6000620001d6836001600160a01b038416620001df565b90505b92915050565b6000620001ed83836200022e565b6200022557508154600181810184556000848152602080822090930184905584548482528286019093526040902091909155620001d9565b506000620001d9565b60009081526001919091016020526040902054151590565b6111c780620002566000396000f3fe608060405234801561001057600080fd5b50600436106101005760003560e01c806391d1485411610097578063ca15c87311610066578063ca15c873146101ef578063d547741f14610202578063d8f9955214610215578063f2fde38b1461022857610100565b806391d14854146101ac5780639a763eec146101cc578063a217fddf146101df578063bf584c4b146101e757610100565b806336568abe116100d357806336568abe14610176578063715018a6146101895780638da5cb5b146101915780639010d07c1461019957610100565b8063248a9ca3146101055780632743430e1461012e5780632f2ff15d146101435780633581777314610156575b600080fd5b610118610113366004610e8f565b61023b565b6040516101259190610fd6565b60405180910390f35b61014161013c366004610f2e565b610253565b005b610141610151366004610ea7565b6103b5565b610169610164366004610ef3565b61041c565b6040516101259190610faa565b610141610184366004610ea7565b6104d3565b61014161054e565b610169610634565b6101696101a7366004610ed2565b610650565b6101bf6101ba366004610ea7565b610671565b6040516101259190610fcb565b6101416101da366004610f2e565b610689565b61011861078d565b610118610792565b6101186101fd366004610e8f565b6107b6565b610141610210366004610ea7565b6107cd565b610141610223366004610ef3565b610826565b610141610236366004610e75565b61092e565b6000818152600160205260409020600201545b919050565b61027d7fbb28eb1a0cfabcecf96003fab466159bc2e051e49d79baf049890044e907244033610671565b6102a25760405162461bcd60e51b815260040161029990611084565b60405180910390fd5b73ffffffffffffffffffffffffffffffffffffffff81166102d55760405162461bcd60e51b81526004016102999061104d565b6000826040516020016102e89190610f71565b604080517fffffffffffffffffffffffffffffffffffffffffffffffffffffffffffffffe081840301815291815281516020928301206000818152600290935291205490915073ffffffffffffffffffffffffffffffffffffffff16156103615760405162461bcd60e51b815260040161029990611016565b600090815260026020526040902080547fffffffffffffffffffffffff00000000000000000000000000000000000000001673ffffffffffffffffffffffffffffffffffffffff9290921691909117905550565b6000828152600160205260409020600201546103d3906101ba610aa6565b61040e5760405162461bcd60e51b815260040180806020018281038252602f8152602001806110de602f913960400191505060405180910390fd5b6104188282610aaa565b5050565b600080826040516020016104309190610f71565b604080517fffffffffffffffffffffffffffffffffffffffffffffffffffffffffffffffe081840301815291815281516020928301206000818152600290935291205490915073ffffffffffffffffffffffffffffffffffffffff166104a85760405162461bcd60e51b815260040161029990610fdf565b60009081526002602052604090205473ffffffffffffffffffffffffffffffffffffffff1692915050565b6104db610aa6565b73ffffffffffffffffffffffffffffffffffffffff168173ffffffffffffffffffffffffffffffffffffffff16146105445760405162461bcd60e51b815260040180806020018281038252602f815260200180611163602f913960400191505060405180910390fd5b6104188282610b2d565b610556610aa6565b60005473ffffffffffffffffffffffffffffffffffffffff9081169116146105c5576040805162461bcd60e51b815260206004820181905260248201527f4f776e61626c653a2063616c6c6572206973206e6f7420746865206f776e6572604482015290519081900360640190fd5b6000805460405173ffffffffffffffffffffffffffffffffffffffff909116907f8be0079c531659141344cd1fd0a4f28419497f9722a3daafe3b4186f6b6457e0908390a3600080547fffffffffffffffffffffffff0000000000000000000000000000000000000000169055565b60005473ffffffffffffffffffffffffffffffffffffffff1690565b60008281526001602052604081206106689083610bb0565b90505b92915050565b60008281526001602052604081206106689083610bbc565b6106b37fbb28eb1a0cfabcecf96003fab466159bc2e051e49d79baf049890044e907244033610671565b6106cf5760405162461bcd60e51b815260040161029990611084565b73ffffffffffffffffffffffffffffffffffffffff81166107025760405162461bcd60e51b81526004016102999061104d565b6000826040516020016107159190610f71565b604080517fffffffffffffffffffffffffffffffffffffffffffffffffffffffffffffffe081840301815291815281516020928301206000818152600290935291205490915073ffffffffffffffffffffffffffffffffffffffff166103615760405162461bcd60e51b815260040161029990610fdf565b600081565b7fbb28eb1a0cfabcecf96003fab466159bc2e051e49d79baf049890044e907244081565b600081815260016020526040812061066b90610bde565b6000828152600160205260409020600201546107eb906101ba610aa6565b6105445760405162461bcd60e51b81526004018080602001828103825260308152602001806111336030913960400191505060405180910390fd5b6108507fbb28eb1a0cfabcecf96003fab466159bc2e051e49d79baf049890044e907244033610671565b61086c5760405162461bcd60e51b815260040161029990611084565b60008160405160200161087f9190610f71565b604080517fffffffffffffffffffffffffffffffffffffffffffffffffffffffffffffffe081840301815291815281516020928301206000818152600290935291205490915073ffffffffffffffffffffffffffffffffffffffff166108f75760405162461bcd60e51b815260040161029990610fdf565b600090815260026020526040902080547fffffffffffffffffffffffff000000000000000000000000000000000000000016905550565b610936610aa6565b60005473ffffffffffffffffffffffffffffffffffffffff9081169116146109a5576040805162461bcd60e51b815260206004820181905260248201527f4f776e61626c653a2063616c6c6572206973206e6f7420746865206f776e6572604482015290519081900360640190fd5b73ffffffffffffffffffffffffffffffffffffffff81166109f75760405162461bcd60e51b815260040180806020018281038252602681526020018061110d6026913960400191505060405180910390fd5b6000805460405173ffffffffffffffffffffffffffffffffffffffff808516939216917f8be0079c531659141344cd1fd0a4f28419497f9722a3daafe3b4186f6b6457e091a3600080547fffffffffffffffffffffffff00000000000000000000000000000000000000001673ffffffffffffffffffffffffffffffffffffffff92909216919091179055565b60006106688373ffffffffffffffffffffffffffffffffffffffff8416610be9565b3390565b6000828152600160205260409020610ac29082610a84565b1561041857610acf610aa6565b73ffffffffffffffffffffffffffffffffffffffff168173ffffffffffffffffffffffffffffffffffffffff16837f2f8788117e7eff1d82e926ec794901d17c78024a50270940304540a733656f0d60405160405180910390a45050565b6000828152600160205260409020610b459082610c33565b1561041857610b52610aa6565b73ffffffffffffffffffffffffffffffffffffffff168173ffffffffffffffffffffffffffffffffffffffff16837ff6391f5c32d9c69d2a47ea670b442974b53935d1edc7fd64eb21e047a839171b60405160405180910390a45050565b60006106688383610c55565b60006106688373ffffffffffffffffffffffffffffffffffffffff8416610cb9565b600061066b82610cd1565b6000610bf58383610cb9565b610c2b5750815460018181018455600084815260208082209093018490558454848252828601909352604090209190915561066b565b50600061066b565b60006106688373ffffffffffffffffffffffffffffffffffffffff8416610cd5565b81546000908210610c975760405162461bcd60e51b81526004018080602001828103825260228152602001806110bc6022913960400191505060405180910390fd5b826000018281548110610ca657fe5b9060005260206000200154905092915050565b60009081526001919091016020526040902054151590565b5490565b60008181526001830160205260408120548015610daf5783547fffffffffffffffffffffffffffffffffffffffffffffffffffffffffffffffff8083019190810190600090879083908110610d2657fe5b9060005260206000200154905080876000018481548110610d4357fe5b600091825260208083209091019290925582815260018981019092526040902090840190558654879080610d7357fe5b6001900381819060005260206000200160009055905586600101600087815260200190815260200160002060009055600194505050505061066b565b600091505061066b565b803573ffffffffffffffffffffffffffffffffffffffff8116811461024e57600080fd5b600082601f830112610ded578081fd5b813567ffffffffffffffff80821115610e0257fe5b60405160207fffffffffffffffffffffffffffffffffffffffffffffffffffffffffffffffe0601f8501168201018181108382111715610e3e57fe5b604052828152925082848301602001861015610e5957600080fd5b8260208601602083013760006020848301015250505092915050565b600060208284031215610e86578081fd5b61066882610db9565b600060208284031215610ea0578081fd5b5035919050565b60008060408385031215610eb9578081fd5b82359150610ec960208401610db9565b90509250929050565b60008060408385031215610ee4578182fd5b50508035926020909101359150565b600060208284031215610f04578081fd5b813567ffffffffffffffff811115610f1a578182fd5b610f2684828501610ddd565b949350505050565b60008060408385031215610f40578182fd5b823567ffffffffffffffff811115610f56578283fd5b610f6285828601610ddd565b925050610ec960208401610db9565b60008251815b81811015610f915760208186018101518583015201610f77565b81811115610f9f5782828501525b509190910192915050565b73ffffffffffffffffffffffffffffffffffffffff91909116815260200190565b901515815260200190565b90815260200190565b6020808252601a908201527f54686973206d617070696e6720646f65736e2774206578697374000000000000604082015260600190565b6020808252601b908201527f54686973206d617070696e6720616c7265616479206578697374730000000000604082015260600190565b60208082526019908201527f4e756c6c206164647265737320697320666f7262696464656e00000000000000604082015260600190565b60208082526016908201527f43616c6c6572206973206e6f7420616e2061646465720000000000000000000060408201526060019056fe456e756d657261626c655365743a20696e646578206f7574206f6620626f756e6473416363657373436f6e74726f6c3a2073656e646572206d75737420626520616e2061646d696e20746f206772616e744f776e61626c653a206e6577206f776e657220697320746865207a65726f2061646472657373416363657373436f6e74726f6c3a2073656e646572206d75737420626520616e2061646d696e20746f207265766f6b65416363657373436f6e74726f6c3a2063616e206f6e6c792072656e6f756e636520726f6c657320666f722073656c66a2646970667358221220c03d4ba8b3f6f2380fd30b441a1d0b6a94551d63c4fa6eb84e0150ac85600ecb64736f6c63430007040033",
  "immutableReferences": {},
  "source": "// SPDX-License-Identifier: MIT\npragma solidity ^0.7.4;\npragma experimental ABIEncoderV2;\n\nimport \"@openzeppelin/contracts/access/AccessControl.sol\";\nimport \"@openzeppelin/contracts/access/Ownable.sol\";\n\ncontract ContractsRegistry is Ownable, AccessControl {\n    mapping (bytes32 => address) private _contracts;\n\n    bytes32 public constant REGISTRY_ADMIN_ROLE = keccak256(\"REGISTRY_ADMIN_ROLE\");\n\n    modifier onlyAdmin() {\n        require(hasRole(REGISTRY_ADMIN_ROLE, msg.sender), \"Caller is not an adder\");\n        _;\n    }\n\n    constructor() {\n        _setupRole(REGISTRY_ADMIN_ROLE, owner());        \n        _setRoleAdmin(REGISTRY_ADMIN_ROLE, REGISTRY_ADMIN_ROLE);\n    }\n\n    function getContract(string memory _name) public view returns (address) {\n        bytes32 bytesName = keccak256(abi.encodePacked(_name));\n\n        require(_contracts[bytesName] != address(0), \"This mapping doesn't exist\");\n\n        return _contracts[bytesName];\n    }\n\n    function addContractRegistry(string memory _name, address _contractAddress) public onlyAdmin {\n        require(_contractAddress != address(0), \"Null address is forbidden\");        \n\n        bytes32 bytesName = keccak256(abi.encodePacked(_name));\n\n        require(_contracts[bytesName] == address(0), \"This mapping already exists\");\n\n        _contracts[bytesName] = _contractAddress;\n    }\n\n    function modifyContractRegistry(string memory _name, address _contractAddress) public onlyAdmin {\n        require(_contractAddress != address(0), \"Null address is forbidden\");        \n\n        bytes32 bytesName = keccak256(abi.encodePacked(_name));\n\n        require(_contracts[bytesName] != address(0), \"This mapping doesn't exist\");\n\n        _contracts[bytesName] = _contractAddress;\n    }\n\n    function deleteContractRegistry(string memory _name) public onlyAdmin {\n        bytes32 bytesName = keccak256(abi.encodePacked(_name));\n\n        require(_contracts[bytesName] != address(0), \"This mapping doesn't exist\");\n\n        delete _contracts[bytesName];\n    }\n}",
  "sourcePath": "/home/artem/Projects/Distributed_Lab/Applicature/bridgemutual-core/contracts/ContractsRegistry.sol",
  "compiler": {
    "name": "solc",
    "version": "0.7.4+commit.3f05b770.Emscripten.clang"
  },
  "schemaVersion": "3.3.3",
  "updatedAt": "2021-01-21T13:29:38.834Z",
  "devdoc": {
    "kind": "dev",
    "methods": {
      "getRoleAdmin(bytes32)": {
        "details": "Returns the admin role that controls `role`. See {grantRole} and {revokeRole}. To change a role's admin, use {_setRoleAdmin}."
      },
      "getRoleMember(bytes32,uint256)": {
        "details": "Returns one of the accounts that have `role`. `index` must be a value between 0 and {getRoleMemberCount}, non-inclusive. Role bearers are not sorted in any particular way, and their ordering may change at any point. WARNING: When using {getRoleMember} and {getRoleMemberCount}, make sure you perform all queries on the same block. See the following https://forum.openzeppelin.com/t/iterating-over-elements-on-enumerableset-in-openzeppelin-contracts/2296[forum post] for more information."
      },
      "getRoleMemberCount(bytes32)": {
        "details": "Returns the number of accounts that have `role`. Can be used together with {getRoleMember} to enumerate all bearers of a role."
      },
      "grantRole(bytes32,address)": {
        "details": "Grants `role` to `account`. If `account` had not been already granted `role`, emits a {RoleGranted} event. Requirements: - the caller must have ``role``'s admin role."
      },
      "hasRole(bytes32,address)": {
        "details": "Returns `true` if `account` has been granted `role`."
      },
      "owner()": {
        "details": "Returns the address of the current owner."
      },
      "renounceOwnership()": {
        "details": "Leaves the contract without owner. It will not be possible to call `onlyOwner` functions anymore. Can only be called by the current owner. NOTE: Renouncing ownership will leave the contract without an owner, thereby removing any functionality that is only available to the owner."
      },
      "renounceRole(bytes32,address)": {
        "details": "Revokes `role` from the calling account. Roles are often managed via {grantRole} and {revokeRole}: this function's purpose is to provide a mechanism for accounts to lose their privileges if they are compromised (such as when a trusted device is misplaced). If the calling account had been granted `role`, emits a {RoleRevoked} event. Requirements: - the caller must be `account`."
      },
      "revokeRole(bytes32,address)": {
        "details": "Revokes `role` from `account`. If `account` had been granted `role`, emits a {RoleRevoked} event. Requirements: - the caller must have ``role``'s admin role."
      },
      "transferOwnership(address)": {
        "details": "Transfers ownership of the contract to a new account (`newOwner`). Can only be called by the current owner."
      }
    },
    "version": 1
  },
  "userdoc": {
    "kind": "user",
    "methods": {},
    "version": 1
  }
}