{
  "contractName": "ContractsRegistry",
  "abi": [
    {
      "inputs": [],
      "stateMutability": "nonpayable",
      "type": "constructor"
    },
    {
      "anonymous": false,
      "inputs": [
        {
          "indexed": true,
          "internalType": "address",
          "name": "previousOwner",
          "type": "address"
        },
        {
          "indexed": true,
          "internalType": "address",
          "name": "newOwner",
          "type": "address"
        }
      ],
      "name": "OwnershipTransferred",
      "type": "event"
    },
    {
      "anonymous": false,
      "inputs": [
        {
          "indexed": true,
          "internalType": "bytes32",
          "name": "role",
          "type": "bytes32"
        },
        {
          "indexed": true,
          "internalType": "bytes32",
          "name": "previousAdminRole",
          "type": "bytes32"
        },
        {
          "indexed": true,
          "internalType": "bytes32",
          "name": "newAdminRole",
          "type": "bytes32"
        }
      ],
      "name": "RoleAdminChanged",
      "type": "event"
    },
    {
      "anonymous": false,
      "inputs": [
        {
          "indexed": true,
          "internalType": "bytes32",
          "name": "role",
          "type": "bytes32"
        },
        {
          "indexed": true,
          "internalType": "address",
          "name": "account",
          "type": "address"
        },
        {
          "indexed": true,
          "internalType": "address",
          "name": "sender",
          "type": "address"
        }
      ],
      "name": "RoleGranted",
      "type": "event"
    },
    {
      "anonymous": false,
      "inputs": [
        {
          "indexed": true,
          "internalType": "bytes32",
          "name": "role",
          "type": "bytes32"
        },
        {
          "indexed": true,
          "internalType": "address",
          "name": "account",
          "type": "address"
        },
        {
          "indexed": true,
          "internalType": "address",
          "name": "sender",
          "type": "address"
        }
      ],
      "name": "RoleRevoked",
      "type": "event"
    },
    {
      "inputs": [],
      "name": "DEFAULT_ADMIN_ROLE",
      "outputs": [
        {
          "internalType": "bytes32",
          "name": "",
          "type": "bytes32"
        }
      ],
      "stateMutability": "view",
      "type": "function"
    },
    {
      "inputs": [],
      "name": "REGISTRY_ADMIN_ROLE",
      "outputs": [
        {
          "internalType": "bytes32",
          "name": "",
          "type": "bytes32"
        }
      ],
      "stateMutability": "view",
      "type": "function"
    },
    {
      "inputs": [
        {
          "internalType": "bytes32",
          "name": "role",
          "type": "bytes32"
        }
      ],
      "name": "getRoleAdmin",
      "outputs": [
        {
          "internalType": "bytes32",
          "name": "",
          "type": "bytes32"
        }
      ],
      "stateMutability": "view",
      "type": "function"
    },
    {
      "inputs": [
        {
          "internalType": "bytes32",
          "name": "role",
          "type": "bytes32"
        },
        {
          "internalType": "uint256",
          "name": "index",
          "type": "uint256"
        }
      ],
      "name": "getRoleMember",
      "outputs": [
        {
          "internalType": "address",
          "name": "",
          "type": "address"
        }
      ],
      "stateMutability": "view",
      "type": "function"
    },
    {
      "inputs": [
        {
          "internalType": "bytes32",
          "name": "role",
          "type": "bytes32"
        }
      ],
      "name": "getRoleMemberCount",
      "outputs": [
        {
          "internalType": "uint256",
          "name": "",
          "type": "uint256"
        }
      ],
      "stateMutability": "view",
      "type": "function"
    },
    {
      "inputs": [
        {
          "internalType": "bytes32",
          "name": "role",
          "type": "bytes32"
        },
        {
          "internalType": "address",
          "name": "account",
          "type": "address"
        }
      ],
      "name": "grantRole",
      "outputs": [],
      "stateMutability": "nonpayable",
      "type": "function"
    },
    {
      "inputs": [
        {
          "internalType": "bytes32",
          "name": "role",
          "type": "bytes32"
        },
        {
          "internalType": "address",
          "name": "account",
          "type": "address"
        }
      ],
      "name": "hasRole",
      "outputs": [
        {
          "internalType": "bool",
          "name": "",
          "type": "bool"
        }
      ],
      "stateMutability": "view",
      "type": "function"
    },
    {
      "inputs": [],
      "name": "owner",
      "outputs": [
        {
          "internalType": "address",
          "name": "",
          "type": "address"
        }
      ],
      "stateMutability": "view",
      "type": "function"
    },
    {
      "inputs": [],
      "name": "renounceOwnership",
      "outputs": [],
      "stateMutability": "nonpayable",
      "type": "function"
    },
    {
      "inputs": [
        {
          "internalType": "bytes32",
          "name": "role",
          "type": "bytes32"
        },
        {
          "internalType": "address",
          "name": "account",
          "type": "address"
        }
      ],
      "name": "renounceRole",
      "outputs": [],
      "stateMutability": "nonpayable",
      "type": "function"
    },
    {
      "inputs": [
        {
          "internalType": "bytes32",
          "name": "role",
          "type": "bytes32"
        },
        {
          "internalType": "address",
          "name": "account",
          "type": "address"
        }
      ],
      "name": "revokeRole",
      "outputs": [],
      "stateMutability": "nonpayable",
      "type": "function"
    },
    {
      "inputs": [
        {
          "internalType": "address",
          "name": "newOwner",
          "type": "address"
        }
      ],
      "name": "transferOwnership",
      "outputs": [],
      "stateMutability": "nonpayable",
      "type": "function"
    },
    {
      "inputs": [],
      "name": "getDAIName",
      "outputs": [
        {
          "internalType": "string",
          "name": "",
          "type": "string"
        }
      ],
      "stateMutability": "pure",
      "type": "function"
    },
    {
      "inputs": [],
      "name": "getBMIName",
      "outputs": [
        {
          "internalType": "string",
          "name": "",
          "type": "string"
        }
      ],
      "stateMutability": "pure",
      "type": "function"
    },
    {
      "inputs": [],
      "name": "getPolicyBookRegistryName",
      "outputs": [
        {
          "internalType": "string",
          "name": "",
          "type": "string"
        }
      ],
      "stateMutability": "pure",
      "type": "function"
    },
    {
      "inputs": [],
      "name": "getPolicyBookFabricName",
      "outputs": [
        {
          "internalType": "string",
          "name": "",
          "type": "string"
        }
      ],
      "stateMutability": "pure",
      "type": "function"
    },
    {
      "inputs": [],
      "name": "getBmiDAIStakingName",
      "outputs": [
        {
          "internalType": "string",
          "name": "",
          "type": "string"
        }
      ],
      "stateMutability": "pure",
      "type": "function"
    },
    {
      "inputs": [],
      "name": "getYieldGeneratorName",
      "outputs": [
        {
          "internalType": "string",
          "name": "",
          "type": "string"
        }
      ],
      "stateMutability": "pure",
      "type": "function"
    },
    {
      "inputs": [
        {
          "internalType": "string",
          "name": "_name",
          "type": "string"
        }
      ],
      "name": "getContract",
      "outputs": [
        {
          "internalType": "address",
          "name": "",
          "type": "address"
        }
      ],
      "stateMutability": "view",
      "type": "function"
    },
    {
      "inputs": [
        {
          "internalType": "string",
          "name": "_name",
          "type": "string"
        },
        {
          "internalType": "address",
          "name": "_contractAddress",
          "type": "address"
        }
      ],
      "name": "addContractRegistry",
      "outputs": [],
      "stateMutability": "nonpayable",
      "type": "function"
    },
    {
      "inputs": [
        {
          "internalType": "string",
          "name": "_name",
          "type": "string"
        }
      ],
      "name": "deleteContractRegistry",
      "outputs": [],
      "stateMutability": "nonpayable",
      "type": "function"
    }
  ],
  "bytecode": "0x60806040523480156200001157600080fd5b5060006200001e620000cf565b600080546001600160a01b0319166001600160a01b0383169081178255604051929350917f8be0079c531659141344cd1fd0a4f28419497f9722a3daafe3b4186f6b6457e0908290a3506200009d7fbb28eb1a0cfabcecf96003fab466159bc2e051e49d79baf049890044e907244062000097620000d3565b620000e2565b620000c97fbb28eb1a0cfabcecf96003fab466159bc2e051e49d79baf049890044e907244080620000f2565b62000246565b3390565b6000546001600160a01b031690565b620000ee828262000144565b5050565b600082815260016020526040808220600201549051839285917fbd79b86ffe0ab8e8776151514217cd7cacd52c909f66475c3af44e129f0b00ff9190a460009182526001602052604090912060020155565b60008281526001602090815260409091206200016b91839062000b28620001bf821b17901c565b15620000ee576200017b620000cf565b6001600160a01b0316816001600160a01b0316837f2f8788117e7eff1d82e926ec794901d17c78024a50270940304540a733656f0d60405160405180910390a45050565b6000620001d6836001600160a01b038416620001df565b90505b92915050565b6000620001ed83836200022e565b6200022557508154600181810184556000848152602080822090930184905584548482528286019093526040902091909155620001d9565b506000620001d9565b60009081526001919091016020526040902054151590565b61130a80620002566000396000f3fe608060405234801561001057600080fd5b50600436106101775760003560e01c80638da5cb5b116100d8578063bf584c4b1161008c578063d547741f11610066578063d547741f146102a3578063d8f99552146102b6578063f2fde38b146102c957610177565b8063bf584c4b14610280578063c0ed452f14610288578063ca15c8731461029057610177565b806391d14854116100bd57806391d1485414610250578063a217fddf14610270578063a45611b61461027857610177565b80638da5cb5b146102355780639010d07c1461023d57610177565b8063358177731161012f5780633d2886a0116101145780633d2886a01461021d578063634f0eab14610225578063715018a61461022d57610177565b806335817773146101ea57806336568abe1461020a57610177565b80632743430e116101605780632743430e146101ba57806327c300af146101cf5780632f2ff15d146101d757610177565b8063049257471461017c578063248a9ca31461019a575b600080fd5b6101846102dc565b6040516101919190611066565b60405180910390f35b6101ad6101a8366004610f33565b610313565b604051610191919061105d565b6101cd6101c8366004610fd2565b61032b565b005b61018461044a565b6101cd6101e5366004610f4b565b610481565b6101fd6101f8366004610f97565b6104e8565b6040516101919190611031565b6101cd610218366004610f4b565b61059f565b61018461061a565b610184610651565b6101cd610688565b6101fd61076e565b6101fd61024b366004610f76565b61078a565b61026361025e366004610f4b565b6107ab565b6040516101919190611052565b6101ad6107c3565b6101846107c8565b6101ad6107ff565b610184610823565b6101ad61029e366004610f33565b61085a565b6101cd6102b1366004610f4b565b610871565b6101cd6102c4366004610f97565b6108ca565b6101cd6102d7366004610f19565b6109d2565b60408051808201909152600881527f5245474953545259000000000000000000000000000000000000000000000000602082015290565b6000818152600160205260409020600201545b919050565b6103557fbb28eb1a0cfabcecf96003fab466159bc2e051e49d79baf049890044e9072440336107ab565b61037a5760405162461bcd60e51b815260040161037190611171565b60405180910390fd5b73ffffffffffffffffffffffffffffffffffffffff81166103ad5760405162461bcd60e51b8152600401610371906110b7565b6000826040516020016103c09190611015565b604080518083037fffffffffffffffffffffffffffffffffffffffffffffffffffffffffffffffe0018152918152815160209283012060009081526002909252902080547fffffffffffffffffffffffff00000000000000000000000000000000000000001673ffffffffffffffffffffffffffffffffffffffff93909316929092179091555050565b60408051808201909152600381527f424d490000000000000000000000000000000000000000000000000000000000602082015290565b60008281526001602052604090206002015461049f9061025e610b4a565b6104da5760405162461bcd60e51b815260040180806020018281038252602f815260200180611221602f913960400191505060405180910390fd5b6104e48282610b4e565b5050565b600080826040516020016104fc9190611015565b604080517fffffffffffffffffffffffffffffffffffffffffffffffffffffffffffffffe081840301815291815281516020928301206000818152600290935291205490915073ffffffffffffffffffffffffffffffffffffffff166105745760405162461bcd60e51b815260040161037190611114565b60009081526002602052604090205473ffffffffffffffffffffffffffffffffffffffff1692915050565b6105a7610b4a565b73ffffffffffffffffffffffffffffffffffffffff168173ffffffffffffffffffffffffffffffffffffffff16146106105760405162461bcd60e51b815260040180806020018281038252602f8152602001806112a6602f913960400191505060405180910390fd5b6104e48282610bd1565b60408051808201909152600781527f5354414b494e4700000000000000000000000000000000000000000000000000602082015290565b60408051808201909152600681527f4641425249430000000000000000000000000000000000000000000000000000602082015290565b610690610b4a565b60005473ffffffffffffffffffffffffffffffffffffffff9081169116146106ff576040805162461bcd60e51b815260206004820181905260248201527f4f776e61626c653a2063616c6c6572206973206e6f7420746865206f776e6572604482015290519081900360640190fd5b6000805460405173ffffffffffffffffffffffffffffffffffffffff909116907f8be0079c531659141344cd1fd0a4f28419497f9722a3daafe3b4186f6b6457e0908390a3600080547fffffffffffffffffffffffff0000000000000000000000000000000000000000169055565b60005473ffffffffffffffffffffffffffffffffffffffff1690565b60008281526001602052604081206107a29083610c54565b90505b92915050565b60008281526001602052604081206107a29083610c60565b600081565b60408051808201909152600381527f4441490000000000000000000000000000000000000000000000000000000000602082015290565b7fbb28eb1a0cfabcecf96003fab466159bc2e051e49d79baf049890044e907244081565b60408051808201909152600f81527f5949454c445f47454e455241544f520000000000000000000000000000000000602082015290565b60008181526001602052604081206107a590610c82565b60008281526001602052604090206002015461088f9061025e610b4a565b6106105760405162461bcd60e51b81526004018080602001828103825260308152602001806112766030913960400191505060405180910390fd5b6108f47fbb28eb1a0cfabcecf96003fab466159bc2e051e49d79baf049890044e9072440336107ab565b6109105760405162461bcd60e51b815260040161037190611171565b6000816040516020016109239190611015565b604080517fffffffffffffffffffffffffffffffffffffffffffffffffffffffffffffffe081840301815291815281516020928301206000818152600290935291205490915073ffffffffffffffffffffffffffffffffffffffff1661099b5760405162461bcd60e51b815260040161037190611114565b600090815260026020526040902080547fffffffffffffffffffffffff000000000000000000000000000000000000000016905550565b6109da610b4a565b60005473ffffffffffffffffffffffffffffffffffffffff908116911614610a49576040805162461bcd60e51b815260206004820181905260248201527f4f776e61626c653a2063616c6c6572206973206e6f7420746865206f776e6572604482015290519081900360640190fd5b73ffffffffffffffffffffffffffffffffffffffff8116610a9b5760405162461bcd60e51b81526004018080602001828103825260268152602001806112506026913960400191505060405180910390fd5b6000805460405173ffffffffffffffffffffffffffffffffffffffff808516939216917f8be0079c531659141344cd1fd0a4f28419497f9722a3daafe3b4186f6b6457e091a3600080547fffffffffffffffffffffffff00000000000000000000000000000000000000001673ffffffffffffffffffffffffffffffffffffffff92909216919091179055565b60006107a28373ffffffffffffffffffffffffffffffffffffffff8416610c8d565b3390565b6000828152600160205260409020610b669082610b28565b156104e457610b73610b4a565b73ffffffffffffffffffffffffffffffffffffffff168173ffffffffffffffffffffffffffffffffffffffff16837f2f8788117e7eff1d82e926ec794901d17c78024a50270940304540a733656f0d60405160405180910390a45050565b6000828152600160205260409020610be99082610cd7565b156104e457610bf6610b4a565b73ffffffffffffffffffffffffffffffffffffffff168173ffffffffffffffffffffffffffffffffffffffff16837ff6391f5c32d9c69d2a47ea670b442974b53935d1edc7fd64eb21e047a839171b60405160405180910390a45050565b60006107a28383610cf9565b60006107a28373ffffffffffffffffffffffffffffffffffffffff8416610d5d565b60006107a582610d75565b6000610c998383610d5d565b610ccf575081546001818101845560008481526020808220909301849055845484825282860190935260409020919091556107a5565b5060006107a5565b60006107a28373ffffffffffffffffffffffffffffffffffffffff8416610d79565b81546000908210610d3b5760405162461bcd60e51b81526004018080602001828103825260228152602001806111ff6022913960400191505060405180910390fd5b826000018281548110610d4a57fe5b9060005260206000200154905092915050565b60009081526001919091016020526040902054151590565b5490565b60008181526001830160205260408120548015610e535783547fffffffffffffffffffffffffffffffffffffffffffffffffffffffffffffffff8083019190810190600090879083908110610dca57fe5b9060005260206000200154905080876000018481548110610de757fe5b600091825260208083209091019290925582815260018981019092526040902090840190558654879080610e1757fe5b600190038181906000526020600020016000905590558660010160008781526020019081526020016000206000905560019450505050506107a5565b60009150506107a5565b803573ffffffffffffffffffffffffffffffffffffffff8116811461032657600080fd5b600082601f830112610e91578081fd5b813567ffffffffffffffff80821115610ea657fe5b60405160207fffffffffffffffffffffffffffffffffffffffffffffffffffffffffffffffe0601f8501168201018181108382111715610ee257fe5b604052828152925082848301602001861015610efd57600080fd5b8260208601602083013760006020848301015250505092915050565b600060208284031215610f2a578081fd5b6107a282610e5d565b600060208284031215610f44578081fd5b5035919050565b60008060408385031215610f5d578081fd5b82359150610f6d60208401610e5d565b90509250929050565b60008060408385031215610f88578182fd5b50508035926020909101359150565b600060208284031215610fa8578081fd5b813567ffffffffffffffff811115610fbe578182fd5b610fca84828501610e81565b949350505050565b60008060408385031215610fe4578182fd5b823567ffffffffffffffff811115610ffa578283fd5b61100685828601610e81565b925050610f6d60208401610e5d565b600082516110278184602087016111ce565b9190910192915050565b73ffffffffffffffffffffffffffffffffffffffff91909116815260200190565b901515815260200190565b90815260200190565b60006020825282518060208401526110858160408501602087016111ce565b601f017fffffffffffffffffffffffffffffffffffffffffffffffffffffffffffffffe0169190910160400192915050565b6020808252602c908201527f436f6e74726163747352656769737472793a204e756c6c20616464726573732060408201527f697320666f7262696464656e0000000000000000000000000000000000000000606082015260800190565b6020808252602d908201527f436f6e74726163747352656769737472793a2054686973206d617070696e672060408201527f646f65736e277420657869737400000000000000000000000000000000000000606082015260800190565b60208082526029908201527f436f6e74726163747352656769737472793a2043616c6c6572206973206e6f7460408201527f20616e2061646d696e0000000000000000000000000000000000000000000000606082015260800190565b60005b838110156111e95781810151838201526020016111d1565b838111156111f8576000848401525b5050505056fe456e756d657261626c655365743a20696e646578206f7574206f6620626f756e6473416363657373436f6e74726f6c3a2073656e646572206d75737420626520616e2061646d696e20746f206772616e744f776e61626c653a206e6577206f776e657220697320746865207a65726f2061646472657373416363657373436f6e74726f6c3a2073656e646572206d75737420626520616e2061646d696e20746f207265766f6b65416363657373436f6e74726f6c3a2063616e206f6e6c792072656e6f756e636520726f6c657320666f722073656c66a2646970667358221220d73cc6345ffeeb90e2bb8c730aa6d8149e5a1e02fd6b9e9d42fda79c4d26335364736f6c63430007040033",
  "immutableReferences": {},
  "source": "// SPDX-License-Identifier: MIT\npragma solidity ^0.7.4;\npragma experimental ABIEncoderV2;\n\nimport \"@openzeppelin/contracts/access/AccessControl.sol\";\nimport \"@openzeppelin/contracts/access/Ownable.sol\";\n\ncontract ContractsRegistry is Ownable, AccessControl {\n    mapping (bytes32 => address) private _contracts;\n\n    bytes32 public constant REGISTRY_ADMIN_ROLE = keccak256(\"REGISTRY_ADMIN_ROLE\");\n\n    string constant private POLICY_BOOK_REGISTRY_NAME = \"REGISTRY\";  \n    string constant private POLICY_BOOK_FABRIC_NAME = \"FABRIC\";        \n    string constant private BMI_DAI_STAKING_NAME = \"STAKING\";\n    string constant private YIELD_GENERATOR_NAME = \"YIELD_GENERATOR\";\n    string constant private DAI_NAME = \"DAI\";\n    string constant private BMI_NAME = \"BMI\";\n\n    modifier onlyAdmin() {\n        require(hasRole(REGISTRY_ADMIN_ROLE, msg.sender), \"ContractsRegistry: Caller is not an admin\");\n        _;\n    }\n\n    constructor() {\n        _setupRole(REGISTRY_ADMIN_ROLE, owner());        \n        _setRoleAdmin(REGISTRY_ADMIN_ROLE, REGISTRY_ADMIN_ROLE);\n    }\n\n    function getDAIName() external pure returns (string memory) {\n        return DAI_NAME;\n    }\n\n    function getBMIName() external pure returns (string memory) {\n        return BMI_NAME;\n    }\n\n    function getPolicyBookRegistryName() external pure returns (string memory) {\n        return POLICY_BOOK_REGISTRY_NAME;\n    }\n\n    function getPolicyBookFabricName() external pure returns (string memory) {\n        return POLICY_BOOK_FABRIC_NAME;\n    }\n\n    function getBmiDAIStakingName() external pure returns (string memory) {\n        return BMI_DAI_STAKING_NAME;\n    }\n\n    function getYieldGeneratorName() external pure returns (string memory) {\n        return YIELD_GENERATOR_NAME;\n    }\n\n    function getContract(string memory _name) public view returns (address) {\n        bytes32 bytesName = keccak256(abi.encodePacked(_name));\n\n        require(_contracts[bytesName] != address(0), \"ContractsRegistry: This mapping doesn't exist\");\n\n        return _contracts[bytesName];\n    }\n\n    function addContractRegistry(string memory _name, address _contractAddress) public onlyAdmin {\n        require(_contractAddress != address(0), \"ContractsRegistry: Null address is forbidden\");        \n\n        bytes32 bytesName = keccak256(abi.encodePacked(_name));\n        _contracts[bytesName] = _contractAddress;\n    }\n\n    function deleteContractRegistry(string memory _name) public onlyAdmin {\n        bytes32 bytesName = keccak256(abi.encodePacked(_name));\n\n        require(_contracts[bytesName] != address(0), \"ContractsRegistry: This mapping doesn't exist\");\n\n        delete _contracts[bytesName];\n    }    \n}",
  "sourcePath": "/home/artem/Projects/Distributed_Lab/Applicature/bridgemutual-core/contracts/ContractsRegistry.sol",
  "compiler": {
    "name": "solc",
    "version": "0.7.4+commit.3f05b770.Emscripten.clang"
  },
  "schemaVersion": "3.3.3",
  "updatedAt": "2021-01-28T11:21:06.123Z",
  "devdoc": {
    "kind": "dev",
    "methods": {
      "getRoleAdmin(bytes32)": {
        "details": "Returns the admin role that controls `role`. See {grantRole} and {revokeRole}. To change a role's admin, use {_setRoleAdmin}."
      },
      "getRoleMember(bytes32,uint256)": {
        "details": "Returns one of the accounts that have `role`. `index` must be a value between 0 and {getRoleMemberCount}, non-inclusive. Role bearers are not sorted in any particular way, and their ordering may change at any point. WARNING: When using {getRoleMember} and {getRoleMemberCount}, make sure you perform all queries on the same block. See the following https://forum.openzeppelin.com/t/iterating-over-elements-on-enumerableset-in-openzeppelin-contracts/2296[forum post] for more information."
      },
      "getRoleMemberCount(bytes32)": {
        "details": "Returns the number of accounts that have `role`. Can be used together with {getRoleMember} to enumerate all bearers of a role."
      },
      "grantRole(bytes32,address)": {
        "details": "Grants `role` to `account`. If `account` had not been already granted `role`, emits a {RoleGranted} event. Requirements: - the caller must have ``role``'s admin role."
      },
      "hasRole(bytes32,address)": {
        "details": "Returns `true` if `account` has been granted `role`."
      },
      "owner()": {
        "details": "Returns the address of the current owner."
      },
      "renounceOwnership()": {
        "details": "Leaves the contract without owner. It will not be possible to call `onlyOwner` functions anymore. Can only be called by the current owner. NOTE: Renouncing ownership will leave the contract without an owner, thereby removing any functionality that is only available to the owner."
      },
      "renounceRole(bytes32,address)": {
        "details": "Revokes `role` from the calling account. Roles are often managed via {grantRole} and {revokeRole}: this function's purpose is to provide a mechanism for accounts to lose their privileges if they are compromised (such as when a trusted device is misplaced). If the calling account had been granted `role`, emits a {RoleRevoked} event. Requirements: - the caller must be `account`."
      },
      "revokeRole(bytes32,address)": {
        "details": "Revokes `role` from `account`. If `account` had been granted `role`, emits a {RoleRevoked} event. Requirements: - the caller must have ``role``'s admin role."
      },
      "transferOwnership(address)": {
        "details": "Transfers ownership of the contract to a new account (`newOwner`). Can only be called by the current owner."
      }
    },
    "version": 1
  },
  "userdoc": {
    "kind": "user",
    "methods": {},
    "version": 1
  }
}