{
  "contractName": "ContractsRegistry",
  "abi": [
    {
      "inputs": [],
      "stateMutability": "nonpayable",
      "type": "constructor"
    },
    {
      "anonymous": false,
      "inputs": [
        {
          "indexed": true,
          "internalType": "address",
          "name": "previousOwner",
          "type": "address"
        },
        {
          "indexed": true,
          "internalType": "address",
          "name": "newOwner",
          "type": "address"
        }
      ],
      "name": "OwnershipTransferred",
      "type": "event"
    },
    {
      "anonymous": false,
      "inputs": [
        {
          "indexed": true,
          "internalType": "bytes32",
          "name": "role",
          "type": "bytes32"
        },
        {
          "indexed": true,
          "internalType": "bytes32",
          "name": "previousAdminRole",
          "type": "bytes32"
        },
        {
          "indexed": true,
          "internalType": "bytes32",
          "name": "newAdminRole",
          "type": "bytes32"
        }
      ],
      "name": "RoleAdminChanged",
      "type": "event"
    },
    {
      "anonymous": false,
      "inputs": [
        {
          "indexed": true,
          "internalType": "bytes32",
          "name": "role",
          "type": "bytes32"
        },
        {
          "indexed": true,
          "internalType": "address",
          "name": "account",
          "type": "address"
        },
        {
          "indexed": true,
          "internalType": "address",
          "name": "sender",
          "type": "address"
        }
      ],
      "name": "RoleGranted",
      "type": "event"
    },
    {
      "anonymous": false,
      "inputs": [
        {
          "indexed": true,
          "internalType": "bytes32",
          "name": "role",
          "type": "bytes32"
        },
        {
          "indexed": true,
          "internalType": "address",
          "name": "account",
          "type": "address"
        },
        {
          "indexed": true,
          "internalType": "address",
          "name": "sender",
          "type": "address"
        }
      ],
      "name": "RoleRevoked",
      "type": "event"
    },
    {
      "inputs": [],
      "name": "DEFAULT_ADMIN_ROLE",
      "outputs": [
        {
          "internalType": "bytes32",
          "name": "",
          "type": "bytes32"
        }
      ],
      "stateMutability": "view",
      "type": "function"
    },
    {
      "inputs": [],
      "name": "REGISTRY_ADMIN_ROLE",
      "outputs": [
        {
          "internalType": "bytes32",
          "name": "",
          "type": "bytes32"
        }
      ],
      "stateMutability": "view",
      "type": "function"
    },
    {
      "inputs": [
        {
          "internalType": "bytes32",
          "name": "role",
          "type": "bytes32"
        }
      ],
      "name": "getRoleAdmin",
      "outputs": [
        {
          "internalType": "bytes32",
          "name": "",
          "type": "bytes32"
        }
      ],
      "stateMutability": "view",
      "type": "function"
    },
    {
      "inputs": [
        {
          "internalType": "bytes32",
          "name": "role",
          "type": "bytes32"
        },
        {
          "internalType": "uint256",
          "name": "index",
          "type": "uint256"
        }
      ],
      "name": "getRoleMember",
      "outputs": [
        {
          "internalType": "address",
          "name": "",
          "type": "address"
        }
      ],
      "stateMutability": "view",
      "type": "function"
    },
    {
      "inputs": [
        {
          "internalType": "bytes32",
          "name": "role",
          "type": "bytes32"
        }
      ],
      "name": "getRoleMemberCount",
      "outputs": [
        {
          "internalType": "uint256",
          "name": "",
          "type": "uint256"
        }
      ],
      "stateMutability": "view",
      "type": "function"
    },
    {
      "inputs": [
        {
          "internalType": "bytes32",
          "name": "role",
          "type": "bytes32"
        },
        {
          "internalType": "address",
          "name": "account",
          "type": "address"
        }
      ],
      "name": "grantRole",
      "outputs": [],
      "stateMutability": "nonpayable",
      "type": "function"
    },
    {
      "inputs": [
        {
          "internalType": "bytes32",
          "name": "role",
          "type": "bytes32"
        },
        {
          "internalType": "address",
          "name": "account",
          "type": "address"
        }
      ],
      "name": "hasRole",
      "outputs": [
        {
          "internalType": "bool",
          "name": "",
          "type": "bool"
        }
      ],
      "stateMutability": "view",
      "type": "function"
    },
    {
      "inputs": [],
      "name": "owner",
      "outputs": [
        {
          "internalType": "address",
          "name": "",
          "type": "address"
        }
      ],
      "stateMutability": "view",
      "type": "function"
    },
    {
      "inputs": [],
      "name": "renounceOwnership",
      "outputs": [],
      "stateMutability": "nonpayable",
      "type": "function"
    },
    {
      "inputs": [
        {
          "internalType": "bytes32",
          "name": "role",
          "type": "bytes32"
        },
        {
          "internalType": "address",
          "name": "account",
          "type": "address"
        }
      ],
      "name": "renounceRole",
      "outputs": [],
      "stateMutability": "nonpayable",
      "type": "function"
    },
    {
      "inputs": [
        {
          "internalType": "bytes32",
          "name": "role",
          "type": "bytes32"
        },
        {
          "internalType": "address",
          "name": "account",
          "type": "address"
        }
      ],
      "name": "revokeRole",
      "outputs": [],
      "stateMutability": "nonpayable",
      "type": "function"
    },
    {
      "inputs": [
        {
          "internalType": "address",
          "name": "newOwner",
          "type": "address"
        }
      ],
      "name": "transferOwnership",
      "outputs": [],
      "stateMutability": "nonpayable",
      "type": "function"
    },
    {
      "inputs": [],
      "name": "getDAIName",
      "outputs": [
        {
          "internalType": "string",
          "name": "",
          "type": "string"
        }
      ],
      "stateMutability": "pure",
      "type": "function"
    },
    {
      "inputs": [],
      "name": "getBMIName",
      "outputs": [
        {
          "internalType": "string",
          "name": "",
          "type": "string"
        }
      ],
      "stateMutability": "pure",
      "type": "function"
    },
    {
      "inputs": [],
      "name": "getPolicyBookRegistryName",
      "outputs": [
        {
          "internalType": "string",
          "name": "",
          "type": "string"
        }
      ],
      "stateMutability": "pure",
      "type": "function"
    },
    {
      "inputs": [],
      "name": "getPolicyBookFabricName",
      "outputs": [
        {
          "internalType": "string",
          "name": "",
          "type": "string"
        }
      ],
      "stateMutability": "pure",
      "type": "function"
    },
    {
      "inputs": [],
      "name": "getBmiDAIStakingName",
      "outputs": [
        {
          "internalType": "string",
          "name": "",
          "type": "string"
        }
      ],
      "stateMutability": "pure",
      "type": "function"
    },
    {
      "inputs": [],
      "name": "getYieldGeneratorName",
      "outputs": [
        {
          "internalType": "string",
          "name": "",
          "type": "string"
        }
      ],
      "stateMutability": "pure",
      "type": "function"
    },
    {
      "inputs": [],
      "name": "getLiquidityMiningNFTName",
      "outputs": [
        {
          "internalType": "string",
          "name": "",
          "type": "string"
        }
      ],
      "stateMutability": "pure",
      "type": "function"
    },
    {
      "inputs": [],
      "name": "getLiquidityMiningName",
      "outputs": [
        {
          "internalType": "string",
          "name": "",
          "type": "string"
        }
      ],
      "stateMutability": "pure",
      "type": "function"
    },
    {
      "inputs": [
        {
          "internalType": "string",
          "name": "_name",
          "type": "string"
        }
      ],
      "name": "getContract",
      "outputs": [
        {
          "internalType": "address",
          "name": "",
          "type": "address"
        }
      ],
      "stateMutability": "view",
      "type": "function"
    },
    {
      "inputs": [
        {
          "internalType": "string",
          "name": "_name",
          "type": "string"
        },
        {
          "internalType": "address",
          "name": "_contractAddress",
          "type": "address"
        }
      ],
      "name": "addContractRegistry",
      "outputs": [],
      "stateMutability": "nonpayable",
      "type": "function"
    },
    {
      "inputs": [
        {
          "internalType": "string",
          "name": "_name",
          "type": "string"
        }
      ],
      "name": "deleteContractRegistry",
      "outputs": [],
      "stateMutability": "nonpayable",
      "type": "function"
    }
  ],
  "bytecode": "0x60806040523480156200001157600080fd5b5060006200001e620000cf565b600080546001600160a01b0319166001600160a01b0383169081178255604051929350917f8be0079c531659141344cd1fd0a4f28419497f9722a3daafe3b4186f6b6457e0908290a3506200009d7fbb28eb1a0cfabcecf96003fab466159bc2e051e49d79baf049890044e907244062000097620000d3565b620000e2565b620000c97fbb28eb1a0cfabcecf96003fab466159bc2e051e49d79baf049890044e907244080620000f2565b62000246565b3390565b6000546001600160a01b031690565b620000ee828262000144565b5050565b600082815260016020526040808220600201549051839285917fbd79b86ffe0ab8e8776151514217cd7cacd52c909f66475c3af44e129f0b00ff9190a460009182526001602052604090912060020155565b60008281526001602090815260409091206200016b91839062000bbc620001bf821b17901c565b15620000ee576200017b620000cf565b6001600160a01b0316816001600160a01b0316837f2f8788117e7eff1d82e926ec794901d17c78024a50270940304540a733656f0d60405160405180910390a45050565b6000620001d6836001600160a01b038416620001df565b90505b92915050565b6000620001ed83836200022e565b6200022557508154600181810184556000848152602080822090930184905584548482528286019093526040902091909155620001d9565b506000620001d9565b60009081526001919091016020526040902054151590565b61139e80620002566000396000f3fe608060405234801561001057600080fd5b506004361061018d5760003560e01c80639010d07c116100e3578063c0ed452f1161008c578063d8f9955211610066578063d8f99552146102d4578063f2fde38b146102e7578063f427c05e146102fa5761018d565b8063c0ed452f146102a6578063ca15c873146102ae578063d547741f146102c15761018d565b8063a44df29f116100bd578063a44df29f1461028e578063a45611b614610296578063bf584c4b1461029e5761018d565b80639010d07c1461025357806391d1485414610266578063a217fddf146102865761018d565b80633581777311610145578063634f0eab1161011f578063634f0eab1461023b578063715018a6146102435780638da5cb5b1461024b5761018d565b8063358177731461020057806336568abe146102205780633d2886a0146102335761018d565b80632743430e116101765780632743430e146101d057806327c300af146101e55780632f2ff15d146101ed5761018d565b80630492574714610192578063248a9ca3146101b0575b600080fd5b61019a610302565b6040516101a791906110fa565b60405180910390f35b6101c36101be366004610fc7565b610339565b6040516101a791906110f1565b6101e36101de366004611066565b610351565b005b61019a610470565b6101e36101fb366004610fdf565b6104a7565b61021361020e36600461102b565b61050e565b6040516101a791906110c5565b6101e361022e366004610fdf565b6105c5565b61019a610640565b61019a610677565b6101e36106ae565b610213610794565b61021361026136600461100a565b6107b0565b610279610274366004610fdf565b6107d1565b6040516101a791906110e6565b6101c36107e9565b61019a6107ee565b61019a610825565b6101c361085c565b61019a610880565b6101c36102bc366004610fc7565b6108b7565b6101e36102cf366004610fdf565b6108ce565b6101e36102e236600461102b565b610927565b6101e36102f5366004610fad565b610a2f565b61019a610b85565b60408051808201909152600881527f5245474953545259000000000000000000000000000000000000000000000000602082015290565b6000818152600160205260409020600201545b919050565b61037b7fbb28eb1a0cfabcecf96003fab466159bc2e051e49d79baf049890044e9072440336107d1565b6103a05760405162461bcd60e51b815260040161039790611205565b60405180910390fd5b73ffffffffffffffffffffffffffffffffffffffff81166103d35760405162461bcd60e51b81526004016103979061114b565b6000826040516020016103e691906110a9565b604080518083037fffffffffffffffffffffffffffffffffffffffffffffffffffffffffffffffe0018152918152815160209283012060009081526002909252902080547fffffffffffffffffffffffff00000000000000000000000000000000000000001673ffffffffffffffffffffffffffffffffffffffff93909316929092179091555050565b60408051808201909152600381527f424d490000000000000000000000000000000000000000000000000000000000602082015290565b6000828152600160205260409020600201546104c590610274610bde565b6105005760405162461bcd60e51b815260040180806020018281038252602f8152602001806112b5602f913960400191505060405180910390fd5b61050a8282610be2565b5050565b6000808260405160200161052291906110a9565b604080517fffffffffffffffffffffffffffffffffffffffffffffffffffffffffffffffe081840301815291815281516020928301206000818152600290935291205490915073ffffffffffffffffffffffffffffffffffffffff1661059a5760405162461bcd60e51b8152600401610397906111a8565b60009081526002602052604090205473ffffffffffffffffffffffffffffffffffffffff1692915050565b6105cd610bde565b73ffffffffffffffffffffffffffffffffffffffff168173ffffffffffffffffffffffffffffffffffffffff16146106365760405162461bcd60e51b815260040180806020018281038252602f81526020018061133a602f913960400191505060405180910390fd5b61050a8282610c65565b60408051808201909152600781527f5354414b494e4700000000000000000000000000000000000000000000000000602082015290565b60408051808201909152600681527f4641425249430000000000000000000000000000000000000000000000000000602082015290565b6106b6610bde565b60005473ffffffffffffffffffffffffffffffffffffffff908116911614610725576040805162461bcd60e51b815260206004820181905260248201527f4f776e61626c653a2063616c6c6572206973206e6f7420746865206f776e6572604482015290519081900360640190fd5b6000805460405173ffffffffffffffffffffffffffffffffffffffff909116907f8be0079c531659141344cd1fd0a4f28419497f9722a3daafe3b4186f6b6457e0908390a3600080547fffffffffffffffffffffffff0000000000000000000000000000000000000000169055565b60005473ffffffffffffffffffffffffffffffffffffffff1690565b60008281526001602052604081206107c89083610ce8565b90505b92915050565b60008281526001602052604081206107c89083610cf4565b600081565b60408051808201909152601481527f4c49515549444954595f4d494e494e475f4e4654000000000000000000000000602082015290565b60408051808201909152600381527f4441490000000000000000000000000000000000000000000000000000000000602082015290565b7fbb28eb1a0cfabcecf96003fab466159bc2e051e49d79baf049890044e907244081565b60408051808201909152600f81527f5949454c445f47454e455241544f520000000000000000000000000000000000602082015290565b60008181526001602052604081206107cb90610d16565b6000828152600160205260409020600201546108ec90610274610bde565b6106365760405162461bcd60e51b815260040180806020018281038252603081526020018061130a6030913960400191505060405180910390fd5b6109517fbb28eb1a0cfabcecf96003fab466159bc2e051e49d79baf049890044e9072440336107d1565b61096d5760405162461bcd60e51b815260040161039790611205565b60008160405160200161098091906110a9565b604080517fffffffffffffffffffffffffffffffffffffffffffffffffffffffffffffffe081840301815291815281516020928301206000818152600290935291205490915073ffffffffffffffffffffffffffffffffffffffff166109f85760405162461bcd60e51b8152600401610397906111a8565b600090815260026020526040902080547fffffffffffffffffffffffff000000000000000000000000000000000000000016905550565b610a37610bde565b60005473ffffffffffffffffffffffffffffffffffffffff908116911614610aa6576040805162461bcd60e51b815260206004820181905260248201527f4f776e61626c653a2063616c6c6572206973206e6f7420746865206f776e6572604482015290519081900360640190fd5b73ffffffffffffffffffffffffffffffffffffffff8116610af85760405162461bcd60e51b81526004018080602001828103825260268152602001806112e46026913960400191505060405180910390fd5b6000805460405173ffffffffffffffffffffffffffffffffffffffff808516939216917f8be0079c531659141344cd1fd0a4f28419497f9722a3daafe3b4186f6b6457e091a3600080547fffffffffffffffffffffffff00000000000000000000000000000000000000001673ffffffffffffffffffffffffffffffffffffffff92909216919091179055565b60408051808201909152601081527f4c49515549444954595f4d494e494e4700000000000000000000000000000000602082015290565b60006107c88373ffffffffffffffffffffffffffffffffffffffff8416610d21565b3390565b6000828152600160205260409020610bfa9082610bbc565b1561050a57610c07610bde565b73ffffffffffffffffffffffffffffffffffffffff168173ffffffffffffffffffffffffffffffffffffffff16837f2f8788117e7eff1d82e926ec794901d17c78024a50270940304540a733656f0d60405160405180910390a45050565b6000828152600160205260409020610c7d9082610d6b565b1561050a57610c8a610bde565b73ffffffffffffffffffffffffffffffffffffffff168173ffffffffffffffffffffffffffffffffffffffff16837ff6391f5c32d9c69d2a47ea670b442974b53935d1edc7fd64eb21e047a839171b60405160405180910390a45050565b60006107c88383610d8d565b60006107c88373ffffffffffffffffffffffffffffffffffffffff8416610df1565b60006107cb82610e09565b6000610d2d8383610df1565b610d63575081546001818101845560008481526020808220909301849055845484825282860190935260409020919091556107cb565b5060006107cb565b60006107c88373ffffffffffffffffffffffffffffffffffffffff8416610e0d565b81546000908210610dcf5760405162461bcd60e51b81526004018080602001828103825260228152602001806112936022913960400191505060405180910390fd5b826000018281548110610dde57fe5b9060005260206000200154905092915050565b60009081526001919091016020526040902054151590565b5490565b60008181526001830160205260408120548015610ee75783547fffffffffffffffffffffffffffffffffffffffffffffffffffffffffffffffff8083019190810190600090879083908110610e5e57fe5b9060005260206000200154905080876000018481548110610e7b57fe5b600091825260208083209091019290925582815260018981019092526040902090840190558654879080610eab57fe5b600190038181906000526020600020016000905590558660010160008781526020019081526020016000206000905560019450505050506107cb565b60009150506107cb565b803573ffffffffffffffffffffffffffffffffffffffff8116811461034c57600080fd5b600082601f830112610f25578081fd5b813567ffffffffffffffff80821115610f3a57fe5b60405160207fffffffffffffffffffffffffffffffffffffffffffffffffffffffffffffffe0601f8501168201018181108382111715610f7657fe5b604052828152925082848301602001861015610f9157600080fd5b8260208601602083013760006020848301015250505092915050565b600060208284031215610fbe578081fd5b6107c882610ef1565b600060208284031215610fd8578081fd5b5035919050565b60008060408385031215610ff1578081fd5b8235915061100160208401610ef1565b90509250929050565b6000806040838503121561101c578182fd5b50508035926020909101359150565b60006020828403121561103c578081fd5b813567ffffffffffffffff811115611052578182fd5b61105e84828501610f15565b949350505050565b60008060408385031215611078578182fd5b823567ffffffffffffffff81111561108e578283fd5b61109a85828601610f15565b92505061100160208401610ef1565b600082516110bb818460208701611262565b9190910192915050565b73ffffffffffffffffffffffffffffffffffffffff91909116815260200190565b901515815260200190565b90815260200190565b6000602082528251806020840152611119816040850160208701611262565b601f017fffffffffffffffffffffffffffffffffffffffffffffffffffffffffffffffe0169190910160400192915050565b6020808252602c908201527f436f6e74726163747352656769737472793a204e756c6c20616464726573732060408201527f697320666f7262696464656e0000000000000000000000000000000000000000606082015260800190565b6020808252602d908201527f436f6e74726163747352656769737472793a2054686973206d617070696e672060408201527f646f65736e277420657869737400000000000000000000000000000000000000606082015260800190565b60208082526029908201527f436f6e74726163747352656769737472793a2043616c6c6572206973206e6f7460408201527f20616e2061646d696e0000000000000000000000000000000000000000000000606082015260800190565b60005b8381101561127d578181015183820152602001611265565b8381111561128c576000848401525b5050505056fe456e756d657261626c655365743a20696e646578206f7574206f6620626f756e6473416363657373436f6e74726f6c3a2073656e646572206d75737420626520616e2061646d696e20746f206772616e744f776e61626c653a206e6577206f776e657220697320746865207a65726f2061646472657373416363657373436f6e74726f6c3a2073656e646572206d75737420626520616e2061646d696e20746f207265766f6b65416363657373436f6e74726f6c3a2063616e206f6e6c792072656e6f756e636520726f6c657320666f722073656c66a26469706673582212209be451150dc5be8a5d17b75999437d682ca1d194481f3359c4de84dc4de8408c64736f6c63430007040033",
  "immutableReferences": {},
  "source": "// SPDX-License-Identifier: MIT\npragma solidity ^0.7.4;\npragma experimental ABIEncoderV2;\n\nimport \"@openzeppelin/contracts/access/AccessControl.sol\";\nimport \"@openzeppelin/contracts/access/Ownable.sol\";\n\ncontract ContractsRegistry is Ownable, AccessControl {\n    mapping (bytes32 => address) private _contracts;\n\n    bytes32 public constant REGISTRY_ADMIN_ROLE = keccak256(\"REGISTRY_ADMIN_ROLE\");\n\n    string constant private POLICY_BOOK_REGISTRY_NAME = \"REGISTRY\";  \n    string constant private POLICY_BOOK_FABRIC_NAME = \"FABRIC\";        \n    string constant private BMI_DAI_STAKING_NAME = \"STAKING\";\n    string constant private YIELD_GENERATOR_NAME = \"YIELD_GENERATOR\";\n    string constant private DAI_NAME = \"DAI\";\n    string constant private BMI_NAME = \"BMI\";\n    string constant private LIQUIDITY_MINING_NFT_NAME = \"LIQUIDITY_MINING_NFT\";\n    string constant private LIQUIDITY_MINING_NAME = \"LIQUIDITY_MINING\";\n\n    modifier onlyAdmin() {\n        require(hasRole(REGISTRY_ADMIN_ROLE, msg.sender), \"ContractsRegistry: Caller is not an admin\");\n        _;\n    }\n\n    constructor() {\n        _setupRole(REGISTRY_ADMIN_ROLE, owner());        \n        _setRoleAdmin(REGISTRY_ADMIN_ROLE, REGISTRY_ADMIN_ROLE);\n    }\n\n    function getDAIName() external pure returns (string memory) {\n        return DAI_NAME;\n    }\n\n    function getBMIName() external pure returns (string memory) {\n        return BMI_NAME;\n    }\n\n    function getPolicyBookRegistryName() external pure returns (string memory) {\n        return POLICY_BOOK_REGISTRY_NAME;\n    }\n\n    function getPolicyBookFabricName() external pure returns (string memory) {\n        return POLICY_BOOK_FABRIC_NAME;\n    }\n\n    function getBmiDAIStakingName() external pure returns (string memory) {\n        return BMI_DAI_STAKING_NAME;\n    }\n\n    function getYieldGeneratorName() external pure returns (string memory) {\n        return YIELD_GENERATOR_NAME;\n    }\n\n    function getLiquidityMiningNFTName() external pure returns (string memory) {\n        return LIQUIDITY_MINING_NFT_NAME;\n    }\n\n    function getLiquidityMiningName() external pure returns (string memory) {\n        return LIQUIDITY_MINING_NAME;\n    }\n\n    function getContract(string memory _name) public view returns (address) {\n        bytes32 bytesName = keccak256(abi.encodePacked(_name));\n\n        require(_contracts[bytesName] != address(0), \"ContractsRegistry: This mapping doesn't exist\");\n\n        return _contracts[bytesName];\n    }\n\n    function addContractRegistry(string memory _name, address _contractAddress) public onlyAdmin {\n        require(_contractAddress != address(0), \"ContractsRegistry: Null address is forbidden\");        \n\n        bytes32 bytesName = keccak256(abi.encodePacked(_name));\n        _contracts[bytesName] = _contractAddress;\n    }\n\n    function deleteContractRegistry(string memory _name) public onlyAdmin {\n        bytes32 bytesName = keccak256(abi.encodePacked(_name));\n\n        require(_contracts[bytesName] != address(0), \"ContractsRegistry: This mapping doesn't exist\");\n\n        delete _contracts[bytesName];\n    }    \n}",
  "sourcePath": "/home/oleg/go/src/github.com/Bridge-Mutual/bridgemutual-core/contracts/ContractRegistry.sol",
  "compiler": {
    "name": "solc",
    "version": "0.7.4+commit.3f05b770.Emscripten.clang"
  },
  "schemaVersion": "3.3.3",
  "updatedAt": "2021-01-27T09:58:45.861Z",
  "devdoc": {
    "kind": "dev",
    "methods": {
      "getRoleAdmin(bytes32)": {
        "details": "Returns the admin role that controls `role`. See {grantRole} and {revokeRole}. To change a role's admin, use {_setRoleAdmin}."
      },
      "getRoleMember(bytes32,uint256)": {
        "details": "Returns one of the accounts that have `role`. `index` must be a value between 0 and {getRoleMemberCount}, non-inclusive. Role bearers are not sorted in any particular way, and their ordering may change at any point. WARNING: When using {getRoleMember} and {getRoleMemberCount}, make sure you perform all queries on the same block. See the following https://forum.openzeppelin.com/t/iterating-over-elements-on-enumerableset-in-openzeppelin-contracts/2296[forum post] for more information."
      },
      "getRoleMemberCount(bytes32)": {
        "details": "Returns the number of accounts that have `role`. Can be used together with {getRoleMember} to enumerate all bearers of a role."
      },
      "grantRole(bytes32,address)": {
        "details": "Grants `role` to `account`. If `account` had not been already granted `role`, emits a {RoleGranted} event. Requirements: - the caller must have ``role``'s admin role."
      },
      "hasRole(bytes32,address)": {
        "details": "Returns `true` if `account` has been granted `role`."
      },
      "owner()": {
        "details": "Returns the address of the current owner."
      },
      "renounceOwnership()": {
        "details": "Leaves the contract without owner. It will not be possible to call `onlyOwner` functions anymore. Can only be called by the current owner. NOTE: Renouncing ownership will leave the contract without an owner, thereby removing any functionality that is only available to the owner."
      },
      "renounceRole(bytes32,address)": {
        "details": "Revokes `role` from the calling account. Roles are often managed via {grantRole} and {revokeRole}: this function's purpose is to provide a mechanism for accounts to lose their privileges if they are compromised (such as when a trusted device is misplaced). If the calling account had been granted `role`, emits a {RoleRevoked} event. Requirements: - the caller must be `account`."
      },
      "revokeRole(bytes32,address)": {
        "details": "Revokes `role` from `account`. If `account` had been granted `role`, emits a {RoleRevoked} event. Requirements: - the caller must have ``role``'s admin role."
      },
      "transferOwnership(address)": {
        "details": "Transfers ownership of the contract to a new account (`newOwner`). Can only be called by the current owner."
      }
    },
    "version": 1
  },
  "userdoc": {
    "kind": "user",
    "methods": {},
    "version": 1
  }
}