{
  "contractName": "CustomERC1155",
  "abi": [
    {
      "inputs": [
        {
          "internalType": "string",
          "name": "uri_",
          "type": "string"
        }
      ],
      "stateMutability": "nonpayable",
      "type": "constructor"
    },
    {
      "anonymous": false,
      "inputs": [
        {
          "indexed": true,
          "internalType": "address",
          "name": "account",
          "type": "address"
        },
        {
          "indexed": true,
          "internalType": "address",
          "name": "operator",
          "type": "address"
        },
        {
          "indexed": false,
          "internalType": "bool",
          "name": "approved",
          "type": "bool"
        }
      ],
      "name": "ApprovalForAll",
      "type": "event"
    },
    {
      "anonymous": false,
      "inputs": [
        {
          "indexed": true,
          "internalType": "address",
          "name": "operator",
          "type": "address"
        },
        {
          "indexed": true,
          "internalType": "address",
          "name": "from",
          "type": "address"
        },
        {
          "indexed": true,
          "internalType": "address",
          "name": "to",
          "type": "address"
        },
        {
          "indexed": false,
          "internalType": "uint256[]",
          "name": "ids",
          "type": "uint256[]"
        },
        {
          "indexed": false,
          "internalType": "uint256[]",
          "name": "values",
          "type": "uint256[]"
        }
      ],
      "name": "TransferBatch",
      "type": "event"
    },
    {
      "anonymous": false,
      "inputs": [
        {
          "indexed": true,
          "internalType": "address",
          "name": "operator",
          "type": "address"
        },
        {
          "indexed": true,
          "internalType": "address",
          "name": "from",
          "type": "address"
        },
        {
          "indexed": true,
          "internalType": "address",
          "name": "to",
          "type": "address"
        },
        {
          "indexed": false,
          "internalType": "uint256",
          "name": "id",
          "type": "uint256"
        },
        {
          "indexed": false,
          "internalType": "uint256",
          "name": "value",
          "type": "uint256"
        }
      ],
      "name": "TransferSingle",
      "type": "event"
    },
    {
      "anonymous": false,
      "inputs": [
        {
          "indexed": false,
          "internalType": "string",
          "name": "value",
          "type": "string"
        },
        {
          "indexed": true,
          "internalType": "uint256",
          "name": "id",
          "type": "uint256"
        }
      ],
      "name": "URI",
      "type": "event"
    },
    {
      "inputs": [
        {
          "internalType": "bytes4",
          "name": "interfaceId",
          "type": "bytes4"
        }
      ],
      "name": "supportsInterface",
      "outputs": [
        {
          "internalType": "bool",
          "name": "",
          "type": "bool"
        }
      ],
      "stateMutability": "view",
      "type": "function"
    },
    {
      "inputs": [
        {
          "internalType": "uint256",
          "name": "",
          "type": "uint256"
        }
      ],
      "name": "uri",
      "outputs": [
        {
          "internalType": "string",
          "name": "",
          "type": "string"
        }
      ],
      "stateMutability": "view",
      "type": "function"
    },
    {
      "inputs": [
        {
          "internalType": "address",
          "name": "owner",
          "type": "address"
        }
      ],
      "name": "balanceOfNFT",
      "outputs": [
        {
          "internalType": "uint256",
          "name": "",
          "type": "uint256"
        }
      ],
      "stateMutability": "view",
      "type": "function"
    },
    {
      "inputs": [
        {
          "internalType": "uint256",
          "name": "tokenId",
          "type": "uint256"
        }
      ],
      "name": "ownerOfNFT",
      "outputs": [
        {
          "internalType": "address",
          "name": "",
          "type": "address"
        }
      ],
      "stateMutability": "view",
      "type": "function"
    },
    {
      "inputs": [
        {
          "internalType": "address",
          "name": "owner",
          "type": "address"
        },
        {
          "internalType": "uint256",
          "name": "index",
          "type": "uint256"
        }
      ],
      "name": "tokenOfOwnerByIndexNFT",
      "outputs": [
        {
          "internalType": "uint256",
          "name": "",
          "type": "uint256"
        }
      ],
      "stateMutability": "view",
      "type": "function"
    },
    {
      "inputs": [],
      "name": "totalSupply",
      "outputs": [
        {
          "internalType": "uint256",
          "name": "",
          "type": "uint256"
        }
      ],
      "stateMutability": "view",
      "type": "function"
    },
    {
      "inputs": [
        {
          "internalType": "address",
          "name": "account",
          "type": "address"
        },
        {
          "internalType": "uint256",
          "name": "id",
          "type": "uint256"
        }
      ],
      "name": "balanceOf",
      "outputs": [
        {
          "internalType": "uint256",
          "name": "",
          "type": "uint256"
        }
      ],
      "stateMutability": "view",
      "type": "function"
    },
    {
      "inputs": [
        {
          "internalType": "address[]",
          "name": "accounts",
          "type": "address[]"
        },
        {
          "internalType": "uint256[]",
          "name": "ids",
          "type": "uint256[]"
        }
      ],
      "name": "balanceOfBatch",
      "outputs": [
        {
          "internalType": "uint256[]",
          "name": "",
          "type": "uint256[]"
        }
      ],
      "stateMutability": "view",
      "type": "function"
    },
    {
      "inputs": [
        {
          "internalType": "address",
          "name": "operator",
          "type": "address"
        },
        {
          "internalType": "bool",
          "name": "approved",
          "type": "bool"
        }
      ],
      "name": "setApprovalForAll",
      "outputs": [],
      "stateMutability": "nonpayable",
      "type": "function"
    },
    {
      "inputs": [
        {
          "internalType": "address",
          "name": "account",
          "type": "address"
        },
        {
          "internalType": "address",
          "name": "operator",
          "type": "address"
        }
      ],
      "name": "isApprovedForAll",
      "outputs": [
        {
          "internalType": "bool",
          "name": "",
          "type": "bool"
        }
      ],
      "stateMutability": "view",
      "type": "function"
    },
    {
      "inputs": [
        {
          "internalType": "address",
          "name": "from",
          "type": "address"
        },
        {
          "internalType": "address",
          "name": "to",
          "type": "address"
        },
        {
          "internalType": "uint256",
          "name": "id",
          "type": "uint256"
        },
        {
          "internalType": "uint256",
          "name": "amount",
          "type": "uint256"
        },
        {
          "internalType": "bytes",
          "name": "data",
          "type": "bytes"
        }
      ],
      "name": "safeTransferFrom",
      "outputs": [],
      "stateMutability": "nonpayable",
      "type": "function"
    },
    {
      "inputs": [
        {
          "internalType": "address",
          "name": "from",
          "type": "address"
        },
        {
          "internalType": "address",
          "name": "to",
          "type": "address"
        },
        {
          "internalType": "uint256[]",
          "name": "ids",
          "type": "uint256[]"
        },
        {
          "internalType": "uint256[]",
          "name": "amounts",
          "type": "uint256[]"
        },
        {
          "internalType": "bytes",
          "name": "data",
          "type": "bytes"
        }
      ],
      "name": "safeBatchTransferFrom",
      "outputs": [],
      "stateMutability": "nonpayable",
      "type": "function"
    }
  ],
  "bytecode": "0x60806040523480156200001157600080fd5b5060405162002207380380620022078339810160408190526200003491620001c6565b620000466301ffc9a760e01b6200007c565b620000518162000101565b62000063636cdb3d1360e11b6200007c565b620000756303a24d0760e21b6200007c565b5062000285565b6001600160e01b03198082161415620000dc576040805162461bcd60e51b815260206004820152601c60248201527f4552433136353a20696e76616c696420696e7465726661636520696400000000604482015290519081900360640190fd5b6001600160e01b0319166000908152602081905260409020805460ff19166001179055565b8051620001169060079060208401906200011a565b5050565b828054600181600116156101000203166002900490600052602060002090601f0160209004810192826200015257600085556200019d565b82601f106200016d57805160ff19168380011785556200019d565b828001600101855582156200019d579182015b828111156200019d57825182559160200191906001019062000180565b50620001ab929150620001af565b5090565b5b80821115620001ab5760008155600101620001b0565b60006020808385031215620001d9578182fd5b82516001600160401b0380821115620001f0578384fd5b818501915085601f83011262000204578384fd5b8151818111156200021157fe5b604051601f8201601f19168101850183811182821017156200022f57fe5b604052818152838201850188101562000246578586fd5b8592505b818310156200026957838301850151818401860152918401916200024a565b818311156200027a57858583830101525b979650505050505050565b611f7280620002956000396000f3fe608060405234801561001057600080fd5b50600436106100d35760003560e01c80632eb2c2d611610081578063e985e9c51161005b578063e985e9c5146101c4578063f242432a146101d7578063f5b100ea146101ea576100d3565b80632eb2c2d61461017c5780634e1273f414610191578063a22cb465146101b1576100d3565b806318160ddd116100b257806318160ddd146101415780631dcb46f6146101495780632d8a746e1461015c576100d3565b8062fdd58e146100d857806301ffc9a7146101015780630e89341c14610121575b600080fd5b6100eb6100e636600461169b565b6101fd565b6040516100f89190611d55565b60405180910390f35b61011461010f366004611785565b610273565b6040516100f89190611995565b61013461012f3660046117bd565b6102ae565b6040516100f891906119a0565b6100eb610364565b6100eb61015736600461169b565b610376565b61016f61016a3660046117bd565b6103ac565b6040516100f89190611878565b61018f61018a366004611558565b6103d4565b005b6101a461019f3660046116c4565b6106ec565b6040516100f89190611954565b61018f6101bf366004611661565b610860565b6101146101d2366004611526565b610980565b61018f6101e53660046115fe565b6109bb565b6100eb6101f836600461150c565b610c19565b600073ffffffffffffffffffffffffffffffffffffffff831661023b5760405162461bcd60e51b815260040161023290611a6d565b60405180910390fd5b50600081815260016020908152604080832073ffffffffffffffffffffffffffffffffffffffff861684529091529020545b92915050565b7fffffffff00000000000000000000000000000000000000000000000000000000811660009081526020819052604090205460ff165b919050565b60078054604080516020601f60027fffffffffffffffffffffffffffffffffffffffffffffffffffffffffffffffff6101006001881615020190951694909404938401819004810282018101909252828152606093909290918301828280156103585780601f1061032d57610100808354040283529160200191610358565b820191906000526020600020905b81548152906001019060200180831161033b57829003601f168201915b50505050509050919050565b60006103706005610c78565b90505b90565b73ffffffffffffffffffffffffffffffffffffffff821660009081526004602052604081206103a59083610c83565b9392505050565b600061026d826040518060600160405280602a8152602001611ee9602a913960059190610c8f565b81518351146103f55760405162461bcd60e51b815260040161023290611cf8565b73ffffffffffffffffffffffffffffffffffffffff84166104285760405162461bcd60e51b815260040161023290611b84565b610430610ca4565b73ffffffffffffffffffffffffffffffffffffffff168573ffffffffffffffffffffffffffffffffffffffff1614806104705750610470856101d2610ca4565b61048c5760405162461bcd60e51b815260040161023290611be1565b6000610496610ca4565b90506104a68187878787876106e4565b60005b84518110156106575760008582815181106104c057fe5b6020026020010151905060008583815181106104d857fe5b602002602001015190506104eb82610ca8565b1561055e5773ffffffffffffffffffffffffffffffffffffffff8916600090815260046020526040902061051f9083610cb5565b5073ffffffffffffffffffffffffffffffffffffffff8816600090815260046020526040902061054f9083610cc1565b5061055c6005838a610ccd565b505b6105db816040518060600160405280602a8152602001611f13602a91396001600086815260200190815260200160002060008d73ffffffffffffffffffffffffffffffffffffffff1673ffffffffffffffffffffffffffffffffffffffff16815260200190815260200160002054610cf09092919063ffffffff16565b600083815260016020908152604080832073ffffffffffffffffffffffffffffffffffffffff8e811685529252808320939093558a168152205461061f9082610d87565b600092835260016020818152604080862073ffffffffffffffffffffffffffffffffffffffff8d1687529091529093205550016104a9565b508473ffffffffffffffffffffffffffffffffffffffff168673ffffffffffffffffffffffffffffffffffffffff168273ffffffffffffffffffffffffffffffffffffffff167f4a39dc06d4c0dbc64b70af90fd698a233a518aa5d07e595d983b8c0526c8f7fb87876040516106ce929190611967565b60405180910390a46106e4818787878787610de1565b505050505050565b6060815183511461070f5760405162461bcd60e51b815260040161023290611c9b565b6060835167ffffffffffffffff8111801561072957600080fd5b50604051908082528060200260200182016040528015610753578160200160208202803683370190505b50905060005b845181101561085857600073ffffffffffffffffffffffffffffffffffffffff1685828151811061078657fe5b602002602001015173ffffffffffffffffffffffffffffffffffffffff1614156107c25760405162461bcd60e51b815260040161023290611aca565b600160008583815181106107d257fe5b6020026020010151815260200190815260200160002060008683815181106107f657fe5b602002602001015173ffffffffffffffffffffffffffffffffffffffff1673ffffffffffffffffffffffffffffffffffffffff1681526020019081526020016000205482828151811061084557fe5b6020908102919091010152600101610759565b509392505050565b8173ffffffffffffffffffffffffffffffffffffffff1661087f610ca4565b73ffffffffffffffffffffffffffffffffffffffff1614156108b35760405162461bcd60e51b815260040161023290611c3e565b80600260006108c0610ca4565b73ffffffffffffffffffffffffffffffffffffffff90811682526020808301939093526040918201600090812091871680825291909352912080547fffffffffffffffffffffffffffffffffffffffffffffffffffffffffffffff00169215159290921790915561092f610ca4565b73ffffffffffffffffffffffffffffffffffffffff167f17307eab39ab6107e8899845ad3d59bd9653f200f220920489ca2b5937696c31836040516109749190611995565b60405180910390a35050565b73ffffffffffffffffffffffffffffffffffffffff918216600090815260026020908152604080832093909416825291909152205460ff1690565b73ffffffffffffffffffffffffffffffffffffffff84166109ee5760405162461bcd60e51b815260040161023290611b84565b6109f6610ca4565b73ffffffffffffffffffffffffffffffffffffffff168573ffffffffffffffffffffffffffffffffffffffff161480610a365750610a36856101d2610ca4565b610a525760405162461bcd60e51b815260040161023290611b27565b6000610a5c610ca4565b9050610a7c818787610a6d88610f7a565b610a7688610f7a565b876106e4565b610a8584610ca8565b15610af85773ffffffffffffffffffffffffffffffffffffffff86166000908152600460205260409020610ab99085610cb5565b5073ffffffffffffffffffffffffffffffffffffffff85166000908152600460205260409020610ae99085610cc1565b50610af660058587610ccd565b505b610b4c836040518060600160405280602a8152602001611f13602a9139600087815260016020908152604080832073ffffffffffffffffffffffffffffffffffffffff8d1684529091529020549190610cf0565b600085815260016020908152604080832073ffffffffffffffffffffffffffffffffffffffff8b81168552925280832093909355871681522054610b909084610d87565b600085815260016020908152604080832073ffffffffffffffffffffffffffffffffffffffff808b168086529190935292819020939093559151909188811691908416907fc3d58168c5ae7397731d063d5bbf3d657854427343f4c083240f7aacaa2d0f6290610c039089908990611d5e565b60405180910390a46106e4818787878787610fbe565b600073ffffffffffffffffffffffffffffffffffffffff8216610c4e5760405162461bcd60e51b815260040161023290611a6d565b73ffffffffffffffffffffffffffffffffffffffff8216600090815260046020526040902061026d905b600061026d82611111565b60006103a58383611115565b6000610c9c848484611179565b949350505050565b3390565b600061026d600583611206565b60006103a58383611212565b60006103a583836112f6565b6000610c9c848473ffffffffffffffffffffffffffffffffffffffff8516611340565b60008184841115610d7f5760405162461bcd60e51b81526004018080602001828103825283818151815260200191508051906020019080838360005b83811015610d44578181015183820152602001610d2c565b50505050905090810190601f168015610d715780820380516001836020036101000a031916815260200191505b509250505060405180910390fd5b505050900390565b6000828201838110156103a5576040805162461bcd60e51b815260206004820152601b60248201527f536166654d6174683a206164646974696f6e206f766572666c6f770000000000604482015290519081900360640190fd5b610e008473ffffffffffffffffffffffffffffffffffffffff166113d7565b156106e4576040517fbc197c8100000000000000000000000000000000000000000000000000000000815273ffffffffffffffffffffffffffffffffffffffff85169063bc197c8190610e5f9089908990889088908890600401611899565b602060405180830381600087803b158015610e7957600080fd5b505af1925050508015610ec7575060408051601f3d9081017fffffffffffffffffffffffffffffffffffffffffffffffffffffffffffffffe0168201909252610ec4918101906117a1565b60015b610f1057610ed3611db4565b80610ede5750610ef8565b8060405162461bcd60e51b815260040161023291906119a0565b60405162461bcd60e51b8152600401610232906119b3565b7fffffffff0000000000000000000000000000000000000000000000000000000081167fbc197c810000000000000000000000000000000000000000000000000000000014610f715760405162461bcd60e51b815260040161023290611a10565b50505050505050565b604080516001808252818301909252606091829190602080830190803683370190505090508281600081518110610fad57fe5b602090810291909101015292915050565b610fdd8473ffffffffffffffffffffffffffffffffffffffff166113d7565b156106e4576040517ff23a6e6100000000000000000000000000000000000000000000000000000000815273ffffffffffffffffffffffffffffffffffffffff85169063f23a6e619061103c9089908990889088908890600401611904565b602060405180830381600087803b15801561105657600080fd5b505af19250505080156110a4575060408051601f3d9081017fffffffffffffffffffffffffffffffffffffffffffffffffffffffffffffffe01682019092526110a1918101906117a1565b60015b6110b057610ed3611db4565b7fffffffff0000000000000000000000000000000000000000000000000000000081167ff23a6e610000000000000000000000000000000000000000000000000000000014610f715760405162461bcd60e51b815260040161023290611a10565b5490565b815460009082106111575760405162461bcd60e51b8152600401808060200182810382526022815260200180611ec76022913960400191505060405180910390fd5b82600001828154811061116657fe5b9060005260206000200154905092915050565b600082815260018401602052604081205482816111d75760405162461bcd60e51b8152602060048201818152835160248401528351909283926044909101919085019080838360008315610d44578181015183820152602001610d2c565b508460000160018203815481106111ea57fe5b9060005260206000209060020201600101549150509392505050565b60006103a583836113dd565b600081815260018301602052604081205480156112ec5783547fffffffffffffffffffffffffffffffffffffffffffffffffffffffffffffffff808301919081019060009087908390811061126357fe5b906000526020600020015490508087600001848154811061128057fe5b6000918252602080832090910192909255828152600189810190925260409020908401905586548790806112b057fe5b6001900381819060005260206000200160009055905586600101600087815260200190815260200160002060009055600194505050505061026d565b600091505061026d565b600061130283836113dd565b6113385750815460018181018455600084815260208082209093018490558454848252828601909352604090209190915561026d565b50600061026d565b6000828152600184016020526040812054806113a55750506040805180820182528381526020808201848152865460018181018955600089815284812095516002909302909501918255915190820155865486845281880190925292909120556103a5565b828560000160018303815481106113b857fe5b90600052602060002090600202016001018190555060009150506103a5565b3b151590565b60009081526001919091016020526040902054151590565b803573ffffffffffffffffffffffffffffffffffffffff811681146102a957600080fd5b600082601f830112611429578081fd5b813561143c61143782611d90565b611d6c565b81815291506020808301908481018184028601820187101561145d57600080fd5b60005b8481101561147c57813584529282019290820190600101611460565b505050505092915050565b600082601f830112611497578081fd5b813567ffffffffffffffff8111156114ab57fe5b6114dc60207fffffffffffffffffffffffffffffffffffffffffffffffffffffffffffffffe0601f84011601611d6c565b91508082528360208285010111156114f357600080fd5b8060208401602084013760009082016020015292915050565b60006020828403121561151d578081fd5b6103a5826113f5565b60008060408385031215611538578081fd5b611541836113f5565b915061154f602084016113f5565b90509250929050565b600080600080600060a0868803121561156f578081fd5b611578866113f5565b9450611586602087016113f5565b9350604086013567ffffffffffffffff808211156115a2578283fd5b6115ae89838a01611419565b945060608801359150808211156115c3578283fd5b6115cf89838a01611419565b935060808801359150808211156115e4578283fd5b506115f188828901611487565b9150509295509295909350565b600080600080600060a08688031215611615578081fd5b61161e866113f5565b945061162c602087016113f5565b93506040860135925060608601359150608086013567ffffffffffffffff811115611655578182fd5b6115f188828901611487565b60008060408385031215611673578182fd5b61167c836113f5565b915060208301358015158114611690578182fd5b809150509250929050565b600080604083850312156116ad578182fd5b6116b6836113f5565b946020939093013593505050565b600080604083850312156116d6578182fd5b823567ffffffffffffffff808211156116ed578384fd5b818501915085601f830112611700578384fd5b813561170e61143782611d90565b80828252602080830192508086018a82838702890101111561172e578889fd5b8896505b8487101561175757611743816113f5565b845260019690960195928101928101611732565b50909650870135935050508082111561176e578283fd5b5061177b85828601611419565b9150509250929050565b600060208284031215611796578081fd5b81356103a581611e95565b6000602082840312156117b2578081fd5b81516103a581611e95565b6000602082840312156117ce578081fd5b5035919050565b6000815180845260208085019450808401835b83811015611804578151875295820195908201906001016117e8565b509495945050505050565b60008151808452815b8181101561183457602081850181015186830182015201611818565b818111156118455782602083870101525b50601f017fffffffffffffffffffffffffffffffffffffffffffffffffffffffffffffffe0169290920160200192915050565b73ffffffffffffffffffffffffffffffffffffffff91909116815260200190565b600073ffffffffffffffffffffffffffffffffffffffff808816835280871660208401525060a060408301526118d260a08301866117d5565b82810360608401526118e481866117d5565b905082810360808401526118f8818561180f565b98975050505050505050565b600073ffffffffffffffffffffffffffffffffffffffff808816835280871660208401525084604083015283606083015260a0608083015261194960a083018461180f565b979650505050505050565b6000602082526103a560208301846117d5565b60006040825261197a60408301856117d5565b828103602084015261198c81856117d5565b95945050505050565b901515815260200190565b6000602082526103a5602083018461180f565b60208082526034908201527f455243313135353a207472616e7366657220746f206e6f6e204552433131353560408201527f526563656976657220696d706c656d656e746572000000000000000000000000606082015260800190565b60208082526028908201527f455243313135353a204552433131353552656365697665722072656a6563746560408201527f6420746f6b656e73000000000000000000000000000000000000000000000000606082015260800190565b6020808252602b908201527f455243313135353a2062616c616e636520717565727920666f7220746865207a60408201527f65726f2061646472657373000000000000000000000000000000000000000000606082015260800190565b60208082526031908201527f455243313135353a2062617463682062616c616e636520717565727920666f7260408201527f20746865207a65726f2061646472657373000000000000000000000000000000606082015260800190565b60208082526029908201527f455243313135353a2063616c6c6572206973206e6f74206f776e6572206e6f7260408201527f20617070726f7665640000000000000000000000000000000000000000000000606082015260800190565b60208082526025908201527f455243313135353a207472616e7366657220746f20746865207a65726f20616460408201527f6472657373000000000000000000000000000000000000000000000000000000606082015260800190565b60208082526032908201527f455243313135353a207472616e736665722063616c6c6572206973206e6f742060408201527f6f776e6572206e6f7220617070726f7665640000000000000000000000000000606082015260800190565b60208082526029908201527f455243313135353a2073657474696e6720617070726f76616c2073746174757360408201527f20666f722073656c660000000000000000000000000000000000000000000000606082015260800190565b60208082526029908201527f455243313135353a206163636f756e747320616e6420696473206c656e67746860408201527f206d69736d617463680000000000000000000000000000000000000000000000606082015260800190565b60208082526028908201527f455243313135353a2069647320616e6420616d6f756e7473206c656e6774682060408201527f6d69736d61746368000000000000000000000000000000000000000000000000606082015260800190565b90815260200190565b918252602082015260400190565b60405181810167ffffffffffffffff81118282101715611d8857fe5b604052919050565b600067ffffffffffffffff821115611da457fe5b5060209081020190565b60e01c90565b600060443d1015611dc457610373565b600481823e6308c379a0611dd88251611dae565b14611de257610373565b6040517ffffffffffffffffffffffffffffffffffffffffffffffffffffffffffffffffc3d016004823e80513d67ffffffffffffffff8160248401118184111715611e305750505050610373565b82840192508251915080821115611e4a5750505050610373565b503d83016020828401011115611e6257505050610373565b601f017fffffffffffffffffffffffffffffffffffffffffffffffffffffffffffffffe016810160200160405291505090565b7fffffffff0000000000000000000000000000000000000000000000000000000081168114611ec357600080fd5b5056fe456e756d657261626c655365743a20696e646578206f7574206f6620626f756e6473455243313135353a206f776e657220717565727920666f72206e6f6e6578697374656e7420746f6b656e455243313135353a20696e73756666696369656e742062616c616e636520666f72207472616e73666572a26469706673582212202cd1fb916b096d1d1d4c00a29e216f24131bb610d6a529e648da82d8488c9c5864736f6c63430007040033",
  "immutableReferences": {},
  "source": "// SPDX-License-Identifier: MIT\npragma solidity ^0.7.4;\npragma experimental ABIEncoderV2;\n\nimport \"@openzeppelin/contracts/utils/EnumerableSet.sol\";\nimport \"@openzeppelin/contracts/utils/EnumerableMap.sol\";\n\nimport \"@openzeppelin/contracts/token/ERC1155/IERC1155.sol\";\nimport \"@openzeppelin/contracts/token/ERC1155/IERC1155MetadataURI.sol\";\nimport \"@openzeppelin/contracts/token/ERC1155/IERC1155Receiver.sol\";\nimport \"@openzeppelin/contracts/GSN/Context.sol\";\nimport \"@openzeppelin/contracts/introspection/ERC165.sol\";\nimport \"@openzeppelin/contracts/math/SafeMath.sol\";\nimport \"@openzeppelin/contracts/utils/Address.sol\";\n\ncontract CustomERC1155 is Context, ERC165, IERC1155, IERC1155MetadataURI {\n    using SafeMath for uint256;\n    using Address for address;\n    \n    mapping (uint256 => mapping(address => uint256)) private _balances;    \n    mapping (address => mapping(address => bool)) private _operatorApprovals;\n\n    mapping (uint256 => uint256) _mintedTokens;\n\n    using EnumerableSet for EnumerableSet.UintSet;\n    using EnumerableMap for EnumerableMap.UintToAddressMap;    \n\n    mapping (address => EnumerableSet.UintSet) private _holderTokens;\n    EnumerableMap.UintToAddressMap private _tokenOwners;   \n\n    string private _uri;\n\n    bytes4 private constant _INTERFACE_ID_ERC1155 = 0xd9b67a26;\n    bytes4 private constant _INTERFACE_ID_ERC1155_METADATA_URI = 0x0e89341c;\n\n    constructor (string memory uri_) public {\n        _setURI(uri_);\n        \n        _registerInterface(_INTERFACE_ID_ERC1155);        \n        _registerInterface(_INTERFACE_ID_ERC1155_METADATA_URI);\n    }\n\n    function uri(uint256) external view override returns (string memory) {\n        return _uri;\n    }\n\n    function balanceOfNFT(address owner) public view returns (uint256) {\n        require(owner != address(0), \"ERC1155: balance query for the zero address\");\n\n        return _holderTokens[owner].length();\n    }\n\n    function ownerOfNFT(uint256 tokenId) public view returns (address) {\n        return _tokenOwners.get(tokenId, \"ERC1155: owner query for nonexistent token\");\n    }\n\n    function tokenOfOwnerByIndexNFT(address owner, uint256 index) public view returns (uint256) {\n        return _holderTokens[owner].at(index);\n    }\n\n    function totalSupply() public view returns (uint256) {        \n        return _tokenOwners.length();\n    }\n\n    function balanceOf(address account, uint256 id) public view override returns (uint256) {\n        require(account != address(0), \"ERC1155: balance query for the zero address\");\n        return _balances[id][account];\n    }\n\n    function balanceOfBatch(\n        address[] memory accounts,\n        uint256[] memory ids\n    )\n        public\n        view\n        override\n        returns (uint256[] memory)\n    {\n        require(accounts.length == ids.length, \"ERC1155: accounts and ids length mismatch\");\n\n        uint256[] memory batchBalances = new uint256[](accounts.length);\n\n        for (uint256 i = 0; i < accounts.length; ++i) {\n            require(accounts[i] != address(0), \"ERC1155: batch balance query for the zero address\");\n            batchBalances[i] = _balances[ids[i]][accounts[i]];\n        }\n\n        return batchBalances;\n    }\n\n    function setApprovalForAll(address operator, bool approved) public virtual override {\n        require(_msgSender() != operator, \"ERC1155: setting approval status for self\");\n\n        _operatorApprovals[_msgSender()][operator] = approved;\n        emit ApprovalForAll(_msgSender(), operator, approved);\n    }\n\n    function isApprovedForAll(address account, address operator) public view override returns (bool) {\n        return _operatorApprovals[account][operator];\n    }\n\n    function safeTransferFrom(\n        address from,\n        address to,\n        uint256 id,\n        uint256 amount,\n        bytes memory data\n    )\n        public\n        virtual\n        override\n    {\n        require(to != address(0), \"ERC1155: transfer to the zero address\");\n        require(\n            from == _msgSender() || isApprovedForAll(from, _msgSender()),\n            \"ERC1155: caller is not owner nor approved\"\n        );\n\n        address operator = _msgSender();\n\n        _beforeTokenTransfer(operator, from, to, _asSingletonArray(id), _asSingletonArray(amount), data);\n\n        if (_existsNFT(id)) {\n            _holderTokens[from].remove(id);\n            _holderTokens[to].add(id);\n\n            _tokenOwners.set(id, to);\n        }\n\n        _balances[id][from] = _balances[id][from].sub(amount, \"ERC1155: insufficient balance for transfer\");\n        _balances[id][to] = _balances[id][to].add(amount);\n\n        emit TransferSingle(operator, from, to, id, amount);\n\n        _doSafeTransferAcceptanceCheck(operator, from, to, id, amount, data);\n    }\n\n    function safeBatchTransferFrom(\n        address from,\n        address to,\n        uint256[] memory ids,\n        uint256[] memory amounts,\n        bytes memory data\n    )\n        public\n        virtual\n        override\n    {\n        require(ids.length == amounts.length, \"ERC1155: ids and amounts length mismatch\");\n        require(to != address(0), \"ERC1155: transfer to the zero address\");\n        require(\n            from == _msgSender() || isApprovedForAll(from, _msgSender()),\n            \"ERC1155: transfer caller is not owner nor approved\"\n        );\n\n        address operator = _msgSender();\n\n        _beforeTokenTransfer(operator, from, to, ids, amounts, data);\n\n        for (uint256 i = 0; i < ids.length; ++i) {\n            uint256 id = ids[i];\n            uint256 amount = amounts[i];\n\n            if (_existsNFT(id)) {\n                _holderTokens[from].remove(id);\n                _holderTokens[to].add(id);\n\n                _tokenOwners.set(id, to);\n            }\n\n            _balances[id][from] = _balances[id][from].sub(\n                amount,\n                \"ERC1155: insufficient balance for transfer\"\n            );\n            _balances[id][to] = _balances[id][to].add(amount);\n        }\n\n        emit TransferBatch(operator, from, to, ids, amounts);\n\n        _doSafeBatchTransferAcceptanceCheck(operator, from, to, ids, amounts, data);\n    }\n\n    function _setURI(string memory newuri) internal virtual {\n        _uri = newuri;\n    }\n\n    function _existsToken(uint256 id) internal view returns (bool) {\n        return _mintedTokens[id] > 0;\n    }\n\n    function _existsNFT(uint256 id) internal view returns (bool) {\n        return _tokenOwners.contains(id);\n    }\n   \n    function _mint(address account, uint256 id, uint256 amount, bytes memory data) internal virtual {\n        require(account != address(0), \"ERC1155: mint to the zero address\");\n        require(amount == 0 || !_existsNFT(id), \"ERC1155: NFT token already minted\");                \n\n        address operator = _msgSender();\n\n        _beforeTokenTransfer(operator, address(0), account, _asSingletonArray(id), _asSingletonArray(amount), data);\n\n        if (amount == 1 && !_existsToken(id)) {\n            _holderTokens[account].add(id);\n            _tokenOwners.set(id, account);\n        }\n\n        _balances[id][account] = _balances[id][account].add(amount);\n        _mintedTokens[id] = _mintedTokens[id].add(amount);\n        \n        emit TransferSingle(operator, address(0), account, id, amount);\n\n        _doSafeTransferAcceptanceCheck(operator, address(0), account, id, amount, data);\n    }\n   \n    function _mintBatch(address to, uint256[] memory ids, uint256[] memory amounts, bytes memory data) internal virtual {\n        require(to != address(0), \"ERC1155: mint to the zero address\");\n        require(ids.length == amounts.length, \"ERC1155: ids and amounts length mismatch\");\n\n        address operator = _msgSender();\n\n        _beforeTokenTransfer(operator, address(0), to, ids, amounts, data);\n\n        for (uint i = 0; i < ids.length; i++) {\n            uint256 id = ids[i];\n\n            require(amounts[i] == 0 || !_existsNFT(id), \"ERC1155: NFT token already minted\");\n\n            if (amounts[i] == 1 && !_existsToken(id)) {\n                _holderTokens[to].add(id);\n                _tokenOwners.set(id, to);\n            }\n\n            _balances[id][to] = amounts[i].add(_balances[id][to]);\n            _mintedTokens[id] = _mintedTokens[id].add(amounts[i]);\n        }\n\n        emit TransferBatch(operator, address(0), to, ids, amounts);\n\n        _doSafeBatchTransferAcceptanceCheck(operator, address(0), to, ids, amounts, data);\n    }\n  \n    function _burn(address account, uint256 id, uint256 amount) internal virtual {\n        require(account != address(0), \"ERC1155: burn from the zero address\");\n\n        address operator = _msgSender();\n\n        _beforeTokenTransfer(operator, account, address(0), _asSingletonArray(id), _asSingletonArray(amount), \"\");                \n\n        if (amount > 0) {\n            _holderTokens[account].remove(id);\n            _tokenOwners.remove(id);\n        }\n\n        _balances[id][account] = _balances[id][account].sub(\n            amount,\n            \"ERC1155: burn amount exceeds balance\"\n        );     \n\n        _mintedTokens[id] = _mintedTokens[id].sub(amount);\n\n        emit TransferSingle(operator, account, address(0), id, amount);\n    }\n\n    function _burnBatch(address account, uint256[] memory ids, uint256[] memory amounts) internal virtual {\n        require(account != address(0), \"ERC1155: burn from the zero address\");\n        require(ids.length == amounts.length, \"ERC1155: ids and amounts length mismatch\");\n\n        address operator = _msgSender();\n\n        _beforeTokenTransfer(operator, account, address(0), ids, amounts, \"\");\n\n        for (uint i = 0; i < ids.length; i++) {\n            uint256 id = ids[i];\n            \n            _holderTokens[account].remove(id);\n            _tokenOwners.remove(id);\n\n            _balances[id][account] = _balances[id][account].sub(\n                amounts[i],\n                \"ERC1155: burn amount exceeds balance\"\n            );            \n\n            _mintedTokens[id] = _mintedTokens[id].sub(amounts[i]);\n        }\n\n        emit TransferBatch(operator, account, address(0), ids, amounts);\n    }\n\n    function _beforeTokenTransfer(\n        address operator,\n        address from,\n        address to,\n        uint256[] memory ids,\n        uint256[] memory amounts,\n        bytes memory data\n    )\n        internal virtual\n    { }\n\n    function _doSafeTransferAcceptanceCheck(\n        address operator,\n        address from,\n        address to,\n        uint256 id,\n        uint256 amount,\n        bytes memory data\n    )\n        private\n    {\n        if (to.isContract()) {\n            try IERC1155Receiver(to).onERC1155Received(operator, from, id, amount, data) returns (bytes4 response) {\n                if (response != IERC1155Receiver(to).onERC1155Received.selector) {\n                    revert(\"ERC1155: ERC1155Receiver rejected tokens\");\n                }\n            } catch Error(string memory reason) {\n                revert(reason);\n            } catch {\n                revert(\"ERC1155: transfer to non ERC1155Receiver implementer\");\n            }\n        }\n    }\n\n    function _doSafeBatchTransferAcceptanceCheck(\n        address operator,\n        address from,\n        address to,\n        uint256[] memory ids,\n        uint256[] memory amounts,\n        bytes memory data\n    )\n        private\n    {\n        if (to.isContract()) {\n            try IERC1155Receiver(to).onERC1155BatchReceived(operator, from, ids, amounts, data) returns (bytes4 response) {\n                if (response != IERC1155Receiver(to).onERC1155BatchReceived.selector) {\n                    revert(\"ERC1155: ERC1155Receiver rejected tokens\");\n                }\n            } catch Error(string memory reason) {\n                revert(reason);\n            } catch {\n                revert(\"ERC1155: transfer to non ERC1155Receiver implementer\");\n            }\n        }\n    }\n\n    function _asSingletonArray(uint256 element) private pure returns (uint256[] memory) {\n        uint256[] memory array = new uint256[](1);\n        array[0] = element;\n\n        return array;\n    }\n}\n",
  "sourcePath": "/home/artem/Projects/Distributed_Lab/Applicature/bridgemutual-core/contracts/tokens/CustomERC1155.sol",
  "compiler": {
    "name": "solc",
    "version": "0.7.4+commit.3f05b770.Emscripten.clang"
  },
  "schemaVersion": "3.3.3",
  "updatedAt": "2021-01-21T13:29:38.947Z",
  "devdoc": {
    "kind": "dev",
    "methods": {
      "balanceOf(address,uint256)": {
        "details": "Returns the amount of tokens of token type `id` owned by `account`. Requirements: - `account` cannot be the zero address."
      },
      "balanceOfBatch(address[],uint256[])": {
        "details": "xref:ROOT:erc1155.adoc#batch-operations[Batched] version of {balanceOf}. Requirements: - `accounts` and `ids` must have the same length."
      },
      "isApprovedForAll(address,address)": {
        "details": "Returns true if `operator` is approved to transfer ``account``'s tokens. See {setApprovalForAll}."
      },
      "safeBatchTransferFrom(address,address,uint256[],uint256[],bytes)": {
        "details": "xref:ROOT:erc1155.adoc#batch-operations[Batched] version of {safeTransferFrom}. Emits a {TransferBatch} event. Requirements: - `ids` and `amounts` must have the same length. - If `to` refers to a smart contract, it must implement {IERC1155Receiver-onERC1155BatchReceived} and return the acceptance magic value."
      },
      "safeTransferFrom(address,address,uint256,uint256,bytes)": {
        "details": "Transfers `amount` tokens of token type `id` from `from` to `to`. Emits a {TransferSingle} event. Requirements: - `to` cannot be the zero address. - If the caller is not `from`, it must be have been approved to spend ``from``'s tokens via {setApprovalForAll}. - `from` must have a balance of tokens of type `id` of at least `amount`. - If `to` refers to a smart contract, it must implement {IERC1155Receiver-onERC1155Received} and return the acceptance magic value."
      },
      "setApprovalForAll(address,bool)": {
        "details": "Grants or revokes permission to `operator` to transfer the caller's tokens, according to `approved`, Emits an {ApprovalForAll} event. Requirements: - `operator` cannot be the caller."
      },
      "supportsInterface(bytes4)": {
        "details": "See {IERC165-supportsInterface}. Time complexity O(1), guaranteed to always use less than 30 000 gas."
      }
    },
    "version": 1
  },
  "userdoc": {
    "kind": "user",
    "methods": {},
    "version": 1
  }
}