{
  "contractName": "CustomERC1155",
  "abi": [
    {
      "inputs": [
        {
          "internalType": "string",
          "name": "uri_",
          "type": "string"
        }
      ],
      "stateMutability": "nonpayable",
      "type": "constructor"
    },
    {
      "anonymous": false,
      "inputs": [
        {
          "indexed": true,
          "internalType": "address",
          "name": "account",
          "type": "address"
        },
        {
          "indexed": true,
          "internalType": "address",
          "name": "operator",
          "type": "address"
        },
        {
          "indexed": false,
          "internalType": "bool",
          "name": "approved",
          "type": "bool"
        }
      ],
      "name": "ApprovalForAll",
      "type": "event"
    },
    {
      "anonymous": false,
      "inputs": [
        {
          "indexed": true,
          "internalType": "address",
          "name": "operator",
          "type": "address"
        },
        {
          "indexed": true,
          "internalType": "address",
          "name": "from",
          "type": "address"
        },
        {
          "indexed": true,
          "internalType": "address",
          "name": "to",
          "type": "address"
        },
        {
          "indexed": false,
          "internalType": "uint256[]",
          "name": "ids",
          "type": "uint256[]"
        },
        {
          "indexed": false,
          "internalType": "uint256[]",
          "name": "values",
          "type": "uint256[]"
        }
      ],
      "name": "TransferBatch",
      "type": "event"
    },
    {
      "anonymous": false,
      "inputs": [
        {
          "indexed": true,
          "internalType": "address",
          "name": "operator",
          "type": "address"
        },
        {
          "indexed": true,
          "internalType": "address",
          "name": "from",
          "type": "address"
        },
        {
          "indexed": true,
          "internalType": "address",
          "name": "to",
          "type": "address"
        },
        {
          "indexed": false,
          "internalType": "uint256",
          "name": "id",
          "type": "uint256"
        },
        {
          "indexed": false,
          "internalType": "uint256",
          "name": "value",
          "type": "uint256"
        }
      ],
      "name": "TransferSingle",
      "type": "event"
    },
    {
      "anonymous": false,
      "inputs": [
        {
          "indexed": false,
          "internalType": "string",
          "name": "value",
          "type": "string"
        },
        {
          "indexed": true,
          "internalType": "uint256",
          "name": "id",
          "type": "uint256"
        }
      ],
      "name": "URI",
      "type": "event"
    },
    {
      "inputs": [
        {
          "internalType": "bytes4",
          "name": "interfaceId",
          "type": "bytes4"
        }
      ],
      "name": "supportsInterface",
      "outputs": [
        {
          "internalType": "bool",
          "name": "",
          "type": "bool"
        }
      ],
      "stateMutability": "view",
      "type": "function"
    },
    {
      "inputs": [
        {
          "internalType": "uint256",
          "name": "",
          "type": "uint256"
        }
      ],
      "name": "uri",
      "outputs": [
        {
          "internalType": "string",
          "name": "",
          "type": "string"
        }
      ],
      "stateMutability": "view",
      "type": "function"
    },
    {
      "inputs": [
        {
          "internalType": "address",
          "name": "owner",
          "type": "address"
        }
      ],
      "name": "totalBalanceOf",
      "outputs": [
        {
          "internalType": "uint256",
          "name": "",
          "type": "uint256"
        }
      ],
      "stateMutability": "view",
      "type": "function"
    },
    {
      "inputs": [
        {
          "internalType": "uint256",
          "name": "tokenId",
          "type": "uint256"
        }
      ],
      "name": "ownerOf",
      "outputs": [
        {
          "internalType": "address",
          "name": "",
          "type": "address"
        }
      ],
      "stateMutability": "view",
      "type": "function"
    },
    {
      "inputs": [
        {
          "internalType": "address",
          "name": "owner",
          "type": "address"
        },
        {
          "internalType": "uint256",
          "name": "index",
          "type": "uint256"
        }
      ],
      "name": "tokenOfOwnerByIndex",
      "outputs": [
        {
          "internalType": "uint256",
          "name": "",
          "type": "uint256"
        }
      ],
      "stateMutability": "view",
      "type": "function"
    },
    {
      "inputs": [],
      "name": "totalSupply",
      "outputs": [
        {
          "internalType": "uint256",
          "name": "",
          "type": "uint256"
        }
      ],
      "stateMutability": "view",
      "type": "function"
    },
    {
      "inputs": [
        {
          "internalType": "address",
          "name": "account",
          "type": "address"
        },
        {
          "internalType": "uint256",
          "name": "id",
          "type": "uint256"
        }
      ],
      "name": "balanceOf",
      "outputs": [
        {
          "internalType": "uint256",
          "name": "",
          "type": "uint256"
        }
      ],
      "stateMutability": "view",
      "type": "function"
    },
    {
      "inputs": [
        {
          "internalType": "address[]",
          "name": "accounts",
          "type": "address[]"
        },
        {
          "internalType": "uint256[]",
          "name": "ids",
          "type": "uint256[]"
        }
      ],
      "name": "balanceOfBatch",
      "outputs": [
        {
          "internalType": "uint256[]",
          "name": "",
          "type": "uint256[]"
        }
      ],
      "stateMutability": "view",
      "type": "function"
    },
    {
      "inputs": [
        {
          "internalType": "address",
          "name": "operator",
          "type": "address"
        },
        {
          "internalType": "bool",
          "name": "approved",
          "type": "bool"
        }
      ],
      "name": "setApprovalForAll",
      "outputs": [],
      "stateMutability": "nonpayable",
      "type": "function"
    },
    {
      "inputs": [
        {
          "internalType": "address",
          "name": "account",
          "type": "address"
        },
        {
          "internalType": "address",
          "name": "operator",
          "type": "address"
        }
      ],
      "name": "isApprovedForAll",
      "outputs": [
        {
          "internalType": "bool",
          "name": "",
          "type": "bool"
        }
      ],
      "stateMutability": "view",
      "type": "function"
    },
    {
      "inputs": [
        {
          "internalType": "address",
          "name": "from",
          "type": "address"
        },
        {
          "internalType": "address",
          "name": "to",
          "type": "address"
        },
        {
          "internalType": "uint256",
          "name": "id",
          "type": "uint256"
        },
        {
          "internalType": "uint256",
          "name": "amount",
          "type": "uint256"
        },
        {
          "internalType": "bytes",
          "name": "data",
          "type": "bytes"
        }
      ],
      "name": "safeTransferFrom",
      "outputs": [],
      "stateMutability": "nonpayable",
      "type": "function"
    },
    {
      "inputs": [
        {
          "internalType": "address",
          "name": "from",
          "type": "address"
        },
        {
          "internalType": "address",
          "name": "to",
          "type": "address"
        },
        {
          "internalType": "uint256[]",
          "name": "ids",
          "type": "uint256[]"
        },
        {
          "internalType": "uint256[]",
          "name": "amounts",
          "type": "uint256[]"
        },
        {
          "internalType": "bytes",
          "name": "data",
          "type": "bytes"
        }
      ],
      "name": "safeBatchTransferFrom",
      "outputs": [],
      "stateMutability": "nonpayable",
      "type": "function"
    }
  ],
  "bytecode": "0x60806040523480156200001157600080fd5b50604051620021f6380380620021f68339810160408190526200003491620001c6565b620000466301ffc9a760e01b6200007c565b620000518162000101565b62000063636cdb3d1360e11b6200007c565b620000756303a24d0760e21b6200007c565b5062000285565b6001600160e01b03198082161415620000dc576040805162461bcd60e51b815260206004820152601c60248201527f4552433136353a20696e76616c696420696e7465726661636520696400000000604482015290519081900360640190fd5b6001600160e01b0319166000908152602081905260409020805460ff19166001179055565b8051620001169060069060208401906200011a565b5050565b828054600181600116156101000203166002900490600052602060002090601f0160209004810192826200015257600085556200019d565b82601f106200016d57805160ff19168380011785556200019d565b828001600101855582156200019d579182015b828111156200019d57825182559160200191906001019062000180565b50620001ab929150620001af565b5090565b5b80821115620001ab5760008155600101620001b0565b60006020808385031215620001d9578182fd5b82516001600160401b0380821115620001f0578384fd5b818501915085601f83011262000204578384fd5b8151818111156200021157fe5b604051601f8201601f19168101850183811182821017156200022f57fe5b604052818152838201850188101562000246578586fd5b8592505b818310156200026957838301850151818401860152918401916200024a565b818311156200027a57858583830101525b979650505050505050565b611f6180620002956000396000f3fe608060405234801561001057600080fd5b50600436106100d35760003560e01c80634b0ee02a11610081578063a22cb4651161005b578063a22cb465146101c4578063e985e9c5146101d7578063f242432a146101ea576100d3565b80634b0ee02a146101715780634e1273f4146101845780636352211e146101a4576100d3565b806318160ddd116100b257806318160ddd146101415780632eb2c2d6146101495780632f745c591461015e576100d3565b8062fdd58e146100d857806301ffc9a7146101015780630e89341c14610121575b600080fd5b6100eb6100e636600461168a565b6101fd565b6040516100f89190611d44565b60405180910390f35b61011461010f366004611774565b610273565b6040516100f89190611984565b61013461012f3660046117ac565b6102ae565b6040516100f8919061198f565b6100eb610364565b61015c610157366004611547565b610376565b005b6100eb61016c36600461168a565b6106a1565b6100eb61017f3660046114fb565b6106d7565b6101976101923660046116b3565b61073a565b6040516100f89190611943565b6101b76101b23660046117ac565b6108ae565b6040516100f89190611867565b61015c6101d2366004611650565b6108d6565b6101146101e5366004611515565b6109f6565b61015c6101f83660046115ed565b610a31565b600073ffffffffffffffffffffffffffffffffffffffff831661023b5760405162461bcd60e51b815260040161023290611a5c565b60405180910390fd5b50600081815260016020908152604080832073ffffffffffffffffffffffffffffffffffffffff861684529091529020545b92915050565b7fffffffff00000000000000000000000000000000000000000000000000000000811660009081526020819052604090205460ff165b919050565b60068054604080516020601f60027fffffffffffffffffffffffffffffffffffffffffffffffffffffffffffffffff6101006001881615020190951694909404938401819004810282018101909252828152606093909290918301828280156103585780601f1061032d57610100808354040283529160200191610358565b820191906000526020600020905b81548152906001019060200180831161033b57829003601f168201915b50505050509050919050565b60006103706004610c80565b90505b90565b81518351146103975760405162461bcd60e51b815260040161023290611ce7565b73ffffffffffffffffffffffffffffffffffffffff84166103ca5760405162461bcd60e51b815260040161023290611b73565b6103d2610c8b565b73ffffffffffffffffffffffffffffffffffffffff168573ffffffffffffffffffffffffffffffffffffffff1614806104125750610412856101e5610c8b565b61042e5760405162461bcd60e51b815260040161023290611bd0565b6000610438610c8b565b9050610448818787878787610699565b60005b845181101561060c57600085828151811061046257fe5b60200260200101519050600085838151811061047a57fe5b602002602001015190506104d582600360008c73ffffffffffffffffffffffffffffffffffffffff1673ffffffffffffffffffffffffffffffffffffffff168152602001908152602001600020610c8f90919063ffffffff16565b5073ffffffffffffffffffffffffffffffffffffffff881660009081526003602052604090206105059083610c9b565b506105126004838a610ca7565b50610590816040518060600160405280602a8152602001611f02602a91396001600086815260200190815260200160002060008d73ffffffffffffffffffffffffffffffffffffffff1673ffffffffffffffffffffffffffffffffffffffff16815260200190815260200160002054610cd29092919063ffffffff16565b600083815260016020908152604080832073ffffffffffffffffffffffffffffffffffffffff8e811685529252808320939093558a16815220546105d49082610d69565b600092835260016020818152604080862073ffffffffffffffffffffffffffffffffffffffff8d16875290915290932055500161044b565b508473ffffffffffffffffffffffffffffffffffffffff168673ffffffffffffffffffffffffffffffffffffffff168273ffffffffffffffffffffffffffffffffffffffff167f4a39dc06d4c0dbc64b70af90fd698a233a518aa5d07e595d983b8c0526c8f7fb8787604051610683929190611956565b60405180910390a4610699818787878787610dc3565b505050505050565b73ffffffffffffffffffffffffffffffffffffffff821660009081526003602052604081206106d09083610f5c565b9392505050565b600073ffffffffffffffffffffffffffffffffffffffff821661070c5760405162461bcd60e51b815260040161023290611a5c565b73ffffffffffffffffffffffffffffffffffffffff8216600090815260036020526040902061026d90610c80565b6060815183511461075d5760405162461bcd60e51b815260040161023290611c8a565b6060835167ffffffffffffffff8111801561077757600080fd5b506040519080825280602002602001820160405280156107a1578160200160208202803683370190505b50905060005b84518110156108a657600073ffffffffffffffffffffffffffffffffffffffff168582815181106107d457fe5b602002602001015173ffffffffffffffffffffffffffffffffffffffff1614156108105760405162461bcd60e51b815260040161023290611ab9565b6001600085838151811061082057fe5b60200260200101518152602001908152602001600020600086838151811061084457fe5b602002602001015173ffffffffffffffffffffffffffffffffffffffff1673ffffffffffffffffffffffffffffffffffffffff1681526020019081526020016000205482828151811061089357fe5b60209081029190910101526001016107a7565b509392505050565b600061026d826040518060600160405280602a8152602001611ed8602a913960049190610f68565b8173ffffffffffffffffffffffffffffffffffffffff166108f5610c8b565b73ffffffffffffffffffffffffffffffffffffffff1614156109295760405162461bcd60e51b815260040161023290611c2d565b8060026000610936610c8b565b73ffffffffffffffffffffffffffffffffffffffff90811682526020808301939093526040918201600090812091871680825291909352912080547fffffffffffffffffffffffffffffffffffffffffffffffffffffffffffffff0016921515929092179091556109a5610c8b565b73ffffffffffffffffffffffffffffffffffffffff167f17307eab39ab6107e8899845ad3d59bd9653f200f220920489ca2b5937696c31836040516109ea9190611984565b60405180910390a35050565b73ffffffffffffffffffffffffffffffffffffffff918216600090815260026020908152604080832093909416825291909152205460ff1690565b73ffffffffffffffffffffffffffffffffffffffff8416610a645760405162461bcd60e51b815260040161023290611b73565b610a6c610c8b565b73ffffffffffffffffffffffffffffffffffffffff168573ffffffffffffffffffffffffffffffffffffffff161480610aac5750610aac856101e5610c8b565b610ac85760405162461bcd60e51b815260040161023290611b16565b6000610ad2610c8b565b9050610af2818787610ae388610f75565b610aec88610f75565b87610699565b73ffffffffffffffffffffffffffffffffffffffff86166000908152600360205260409020610b219085610c8f565b5073ffffffffffffffffffffffffffffffffffffffff85166000908152600360205260409020610b519085610c9b565b50610b5e60048587610ca7565b50610bb3836040518060600160405280602a8152602001611f02602a9139600087815260016020908152604080832073ffffffffffffffffffffffffffffffffffffffff8d1684529091529020549190610cd2565b600085815260016020908152604080832073ffffffffffffffffffffffffffffffffffffffff8b81168552925280832093909355871681522054610bf79084610d69565b600085815260016020908152604080832073ffffffffffffffffffffffffffffffffffffffff808b168086529190935292819020939093559151909188811691908416907fc3d58168c5ae7397731d063d5bbf3d657854427343f4c083240f7aacaa2d0f6290610c6a9089908990611d4d565b60405180910390a4610699818787878787610fb9565b600061026d8261110c565b3390565b60006106d08383611110565b60006106d083836111f4565b6000610cca848473ffffffffffffffffffffffffffffffffffffffff851661123e565b949350505050565b60008184841115610d615760405162461bcd60e51b81526004018080602001828103825283818151815260200191508051906020019080838360005b83811015610d26578181015183820152602001610d0e565b50505050905090810190601f168015610d535780820380516001836020036101000a031916815260200191505b509250505060405180910390fd5b505050900390565b6000828201838110156106d0576040805162461bcd60e51b815260206004820152601b60248201527f536166654d6174683a206164646974696f6e206f766572666c6f770000000000604482015290519081900360640190fd5b610de28473ffffffffffffffffffffffffffffffffffffffff166112d5565b15610699576040517fbc197c8100000000000000000000000000000000000000000000000000000000815273ffffffffffffffffffffffffffffffffffffffff85169063bc197c8190610e419089908990889088908890600401611888565b602060405180830381600087803b158015610e5b57600080fd5b505af1925050508015610ea9575060408051601f3d9081017fffffffffffffffffffffffffffffffffffffffffffffffffffffffffffffffe0168201909252610ea691810190611790565b60015b610ef257610eb5611da3565b80610ec05750610eda565b8060405162461bcd60e51b8152600401610232919061198f565b60405162461bcd60e51b8152600401610232906119a2565b7fffffffff0000000000000000000000000000000000000000000000000000000081167fbc197c810000000000000000000000000000000000000000000000000000000014610f535760405162461bcd60e51b8152600401610232906119ff565b50505050505050565b60006106d083836112db565b6000610cca84848461133f565b604080516001808252818301909252606091829190602080830190803683370190505090508281600081518110610fa857fe5b602090810291909101015292915050565b610fd88473ffffffffffffffffffffffffffffffffffffffff166112d5565b15610699576040517ff23a6e6100000000000000000000000000000000000000000000000000000000815273ffffffffffffffffffffffffffffffffffffffff85169063f23a6e619061103790899089908890889088906004016118f3565b602060405180830381600087803b15801561105157600080fd5b505af192505050801561109f575060408051601f3d9081017fffffffffffffffffffffffffffffffffffffffffffffffffffffffffffffffe016820190925261109c91810190611790565b60015b6110ab57610eb5611da3565b7fffffffff0000000000000000000000000000000000000000000000000000000081167ff23a6e610000000000000000000000000000000000000000000000000000000014610f535760405162461bcd60e51b8152600401610232906119ff565b5490565b600081815260018301602052604081205480156111ea5783547fffffffffffffffffffffffffffffffffffffffffffffffffffffffffffffffff808301919081019060009087908390811061116157fe5b906000526020600020015490508087600001848154811061117e57fe5b6000918252602080832090910192909255828152600189810190925260409020908401905586548790806111ae57fe5b6001900381819060005260206000200160009055905586600101600087815260200190815260200160002060009055600194505050505061026d565b600091505061026d565b600061120083836113cc565b6112365750815460018181018455600084815260208082209093018490558454848252828601909352604090209190915561026d565b50600061026d565b6000828152600184016020526040812054806112a35750506040805180820182528381526020808201848152865460018181018955600089815284812095516002909302909501918255915190820155865486845281880190925292909120556106d0565b828560000160018303815481106112b657fe5b90600052602060002090600202016001018190555060009150506106d0565b3b151590565b8154600090821061131d5760405162461bcd60e51b8152600401808060200182810382526022815260200180611eb66022913960400191505060405180910390fd5b82600001828154811061132c57fe5b9060005260206000200154905092915050565b6000828152600184016020526040812054828161139d5760405162461bcd60e51b8152602060048201818152835160248401528351909283926044909101919085019080838360008315610d26578181015183820152602001610d0e565b508460000160018203815481106113b057fe5b9060005260206000209060020201600101549150509392505050565b60009081526001919091016020526040902054151590565b803573ffffffffffffffffffffffffffffffffffffffff811681146102a957600080fd5b600082601f830112611418578081fd5b813561142b61142682611d7f565b611d5b565b81815291506020808301908481018184028601820187101561144c57600080fd5b60005b8481101561146b5781358452928201929082019060010161144f565b505050505092915050565b600082601f830112611486578081fd5b813567ffffffffffffffff81111561149a57fe5b6114cb60207fffffffffffffffffffffffffffffffffffffffffffffffffffffffffffffffe0601f84011601611d5b565b91508082528360208285010111156114e257600080fd5b8060208401602084013760009082016020015292915050565b60006020828403121561150c578081fd5b6106d0826113e4565b60008060408385031215611527578081fd5b611530836113e4565b915061153e602084016113e4565b90509250929050565b600080600080600060a0868803121561155e578081fd5b611567866113e4565b9450611575602087016113e4565b9350604086013567ffffffffffffffff80821115611591578283fd5b61159d89838a01611408565b945060608801359150808211156115b2578283fd5b6115be89838a01611408565b935060808801359150808211156115d3578283fd5b506115e088828901611476565b9150509295509295909350565b600080600080600060a08688031215611604578081fd5b61160d866113e4565b945061161b602087016113e4565b93506040860135925060608601359150608086013567ffffffffffffffff811115611644578182fd5b6115e088828901611476565b60008060408385031215611662578182fd5b61166b836113e4565b91506020830135801515811461167f578182fd5b809150509250929050565b6000806040838503121561169c578182fd5b6116a5836113e4565b946020939093013593505050565b600080604083850312156116c5578182fd5b823567ffffffffffffffff808211156116dc578384fd5b818501915085601f8301126116ef578384fd5b81356116fd61142682611d7f565b80828252602080830192508086018a82838702890101111561171d578889fd5b8896505b8487101561174657611732816113e4565b845260019690960195928101928101611721565b50909650870135935050508082111561175d578283fd5b5061176a85828601611408565b9150509250929050565b600060208284031215611785578081fd5b81356106d081611e84565b6000602082840312156117a1578081fd5b81516106d081611e84565b6000602082840312156117bd578081fd5b5035919050565b6000815180845260208085019450808401835b838110156117f3578151875295820195908201906001016117d7565b509495945050505050565b60008151808452815b8181101561182357602081850181015186830182015201611807565b818111156118345782602083870101525b50601f017fffffffffffffffffffffffffffffffffffffffffffffffffffffffffffffffe0169290920160200192915050565b73ffffffffffffffffffffffffffffffffffffffff91909116815260200190565b600073ffffffffffffffffffffffffffffffffffffffff808816835280871660208401525060a060408301526118c160a08301866117c4565b82810360608401526118d381866117c4565b905082810360808401526118e781856117fe565b98975050505050505050565b600073ffffffffffffffffffffffffffffffffffffffff808816835280871660208401525084604083015283606083015260a0608083015261193860a08301846117fe565b979650505050505050565b6000602082526106d060208301846117c4565b60006040825261196960408301856117c4565b828103602084015261197b81856117c4565b95945050505050565b901515815260200190565b6000602082526106d060208301846117fe565b60208082526034908201527f455243313135353a207472616e7366657220746f206e6f6e204552433131353560408201527f526563656976657220696d706c656d656e746572000000000000000000000000606082015260800190565b60208082526028908201527f455243313135353a204552433131353552656365697665722072656a6563746560408201527f6420746f6b656e73000000000000000000000000000000000000000000000000606082015260800190565b6020808252602b908201527f455243313135353a2062616c616e636520717565727920666f7220746865207a60408201527f65726f2061646472657373000000000000000000000000000000000000000000606082015260800190565b60208082526031908201527f455243313135353a2062617463682062616c616e636520717565727920666f7260408201527f20746865207a65726f2061646472657373000000000000000000000000000000606082015260800190565b60208082526029908201527f455243313135353a2063616c6c6572206973206e6f74206f776e6572206e6f7260408201527f20617070726f7665640000000000000000000000000000000000000000000000606082015260800190565b60208082526025908201527f455243313135353a207472616e7366657220746f20746865207a65726f20616460408201527f6472657373000000000000000000000000000000000000000000000000000000606082015260800190565b60208082526032908201527f455243313135353a207472616e736665722063616c6c6572206973206e6f742060408201527f6f776e6572206e6f7220617070726f7665640000000000000000000000000000606082015260800190565b60208082526029908201527f455243313135353a2073657474696e6720617070726f76616c2073746174757360408201527f20666f722073656c660000000000000000000000000000000000000000000000606082015260800190565b60208082526029908201527f455243313135353a206163636f756e747320616e6420696473206c656e67746860408201527f206d69736d617463680000000000000000000000000000000000000000000000606082015260800190565b60208082526028908201527f455243313135353a2069647320616e6420616d6f756e7473206c656e6774682060408201527f6d69736d61746368000000000000000000000000000000000000000000000000606082015260800190565b90815260200190565b918252602082015260400190565b60405181810167ffffffffffffffff81118282101715611d7757fe5b604052919050565b600067ffffffffffffffff821115611d9357fe5b5060209081020190565b60e01c90565b600060443d1015611db357610373565b600481823e6308c379a0611dc78251611d9d565b14611dd157610373565b6040517ffffffffffffffffffffffffffffffffffffffffffffffffffffffffffffffffc3d016004823e80513d67ffffffffffffffff8160248401118184111715611e1f5750505050610373565b82840192508251915080821115611e395750505050610373565b503d83016020828401011115611e5157505050610373565b601f017fffffffffffffffffffffffffffffffffffffffffffffffffffffffffffffffe016810160200160405291505090565b7fffffffff0000000000000000000000000000000000000000000000000000000081168114611eb257600080fd5b5056fe456e756d657261626c655365743a20696e646578206f7574206f6620626f756e6473455243313135353a206f776e657220717565727920666f72206e6f6e6578697374656e7420746f6b656e455243313135353a20696e73756666696369656e742062616c616e636520666f72207472616e73666572a2646970667358221220c1e9f632805ffc03e75b8559faebc79bd8fc987b45ae41b23bc4adf930cbdbea64736f6c63430007040033",
  "immutableReferences": {},
  "source": "// SPDX-License-Identifier: MIT\npragma solidity ^0.7.4;\npragma experimental ABIEncoderV2;\n\nimport \"@openzeppelin/contracts/utils/EnumerableSet.sol\";\nimport \"@openzeppelin/contracts/utils/EnumerableMap.sol\";\n\nimport \"@openzeppelin/contracts/token/ERC1155/IERC1155.sol\";\nimport \"@openzeppelin/contracts/token/ERC1155/IERC1155MetadataURI.sol\";\nimport \"@openzeppelin/contracts/token/ERC1155/IERC1155Receiver.sol\";\nimport \"@openzeppelin/contracts/GSN/Context.sol\";\nimport \"@openzeppelin/contracts/introspection/ERC165.sol\";\nimport \"@openzeppelin/contracts/math/SafeMath.sol\";\nimport \"@openzeppelin/contracts/utils/Address.sol\";\n\ncontract CustomERC1155 is Context, ERC165, IERC1155, IERC1155MetadataURI {\n    using SafeMath for uint256;\n    using Address for address;\n    \n    mapping (uint256 => mapping(address => uint256)) private _balances;    \n    mapping (address => mapping(address => bool)) private _operatorApprovals;\n\n    using EnumerableSet for EnumerableSet.UintSet;\n    using EnumerableMap for EnumerableMap.UintToAddressMap;    \n\n    mapping (address => EnumerableSet.UintSet) private _holderTokens;\n    EnumerableMap.UintToAddressMap private _tokenOwners;   \n\n    string private _uri;\n\n    bytes4 private constant _INTERFACE_ID_ERC1155 = 0xd9b67a26;\n    bytes4 private constant _INTERFACE_ID_ERC1155_METADATA_URI = 0x0e89341c;\n\n    constructor (string memory uri_) public {\n        _setURI(uri_);\n        \n        _registerInterface(_INTERFACE_ID_ERC1155);        \n        _registerInterface(_INTERFACE_ID_ERC1155_METADATA_URI);\n    }\n\n    function uri(uint256) external view override returns (string memory) {\n        return _uri;\n    }\n\n    function totalBalanceOf(address owner) public view returns (uint256) {\n        require(owner != address(0), \"ERC1155: balance query for the zero address\");\n\n        return _holderTokens[owner].length();\n    }\n\n    function ownerOf(uint256 tokenId) public view returns (address) {\n        return _tokenOwners.get(tokenId, \"ERC1155: owner query for nonexistent token\");\n    }\n\n    function tokenOfOwnerByIndex(address owner, uint256 index) public view returns (uint256) {\n        return _holderTokens[owner].at(index);\n    }\n\n    function totalSupply() public view returns (uint256) {        \n        return _tokenOwners.length();\n    }\n\n    function balanceOf(address account, uint256 id) public view override returns (uint256) {\n        require(account != address(0), \"ERC1155: balance query for the zero address\");\n        return _balances[id][account];\n    }\n\n    function balanceOfBatch(\n        address[] memory accounts,\n        uint256[] memory ids\n    )\n        public\n        view\n        override\n        returns (uint256[] memory)\n    {\n        require(accounts.length == ids.length, \"ERC1155: accounts and ids length mismatch\");\n\n        uint256[] memory batchBalances = new uint256[](accounts.length);\n\n        for (uint256 i = 0; i < accounts.length; ++i) {\n            require(accounts[i] != address(0), \"ERC1155: batch balance query for the zero address\");\n            batchBalances[i] = _balances[ids[i]][accounts[i]];\n        }\n\n        return batchBalances;\n    }\n\n    function setApprovalForAll(address operator, bool approved) public virtual override {\n        require(_msgSender() != operator, \"ERC1155: setting approval status for self\");\n\n        _operatorApprovals[_msgSender()][operator] = approved;\n        emit ApprovalForAll(_msgSender(), operator, approved);\n    }\n\n    function isApprovedForAll(address account, address operator) public view override returns (bool) {\n        return _operatorApprovals[account][operator];\n    }\n\n    function safeTransferFrom(\n        address from,\n        address to,\n        uint256 id,\n        uint256 amount,\n        bytes memory data\n    )\n        public\n        virtual\n        override\n    {\n        require(to != address(0), \"ERC1155: transfer to the zero address\");\n        require(\n            from == _msgSender() || isApprovedForAll(from, _msgSender()),\n            \"ERC1155: caller is not owner nor approved\"\n        );\n\n        address operator = _msgSender();\n\n        _beforeTokenTransfer(operator, from, to, _asSingletonArray(id), _asSingletonArray(amount), data);\n\n        _holderTokens[from].remove(id);\n        _holderTokens[to].add(id);\n\n        _tokenOwners.set(id, to);\n\n        _balances[id][from] = _balances[id][from].sub(amount, \"ERC1155: insufficient balance for transfer\");\n        _balances[id][to] = _balances[id][to].add(amount);\n\n        emit TransferSingle(operator, from, to, id, amount);\n\n        _doSafeTransferAcceptanceCheck(operator, from, to, id, amount, data);\n    }\n\n    function safeBatchTransferFrom(\n        address from,\n        address to,\n        uint256[] memory ids,\n        uint256[] memory amounts,\n        bytes memory data\n    )\n        public\n        virtual\n        override\n    {\n        require(ids.length == amounts.length, \"ERC1155: ids and amounts length mismatch\");\n        require(to != address(0), \"ERC1155: transfer to the zero address\");\n        require(\n            from == _msgSender() || isApprovedForAll(from, _msgSender()),\n            \"ERC1155: transfer caller is not owner nor approved\"\n        );\n\n        address operator = _msgSender();\n\n        _beforeTokenTransfer(operator, from, to, ids, amounts, data);\n\n        for (uint256 i = 0; i < ids.length; ++i) {\n            uint256 id = ids[i];\n            uint256 amount = amounts[i];\n\n            _holderTokens[from].remove(id);\n            _holderTokens[to].add(id);\n\n            _tokenOwners.set(id, to);\n\n            _balances[id][from] = _balances[id][from].sub(\n                amount,\n                \"ERC1155: insufficient balance for transfer\"\n            );\n            _balances[id][to] = _balances[id][to].add(amount);\n        }\n\n        emit TransferBatch(operator, from, to, ids, amounts);\n\n        _doSafeBatchTransferAcceptanceCheck(operator, from, to, ids, amounts, data);\n    }\n\n    function _setURI(string memory newuri) internal virtual {\n        _uri = newuri;\n    }\n\n    function _exists(uint256 tokenId) internal view returns (bool) {\n        return _tokenOwners.contains(tokenId);\n    }\n   \n    function _mint(address account, uint256 id, uint256 amount, bytes memory data) internal virtual {\n        require(account != address(0), \"ERC1155: mint to the zero address\");\n        require(!_exists(id), \"ERC1155: token already minted\");\n        require(amount <= 1, \"ERC1155: NFTs are singletons\");\n\n        address operator = _msgSender();\n\n        _beforeTokenTransfer(operator, address(0), account, _asSingletonArray(id), _asSingletonArray(amount), data);\n\n        _holderTokens[account].add(id);\n        _tokenOwners.set(id, account);\n\n        _balances[id][account] = _balances[id][account].add(amount);\n        emit TransferSingle(operator, address(0), account, id, amount);\n\n        _doSafeTransferAcceptanceCheck(operator, address(0), account, id, amount, data);\n    }\n   \n    function _mintBatch(address to, uint256[] memory ids, uint256[] memory amounts, bytes memory data) internal virtual {\n        require(to != address(0), \"ERC1155: mint to the zero address\");\n        require(ids.length == amounts.length, \"ERC1155: ids and amounts length mismatch\");\n\n        address operator = _msgSender();\n\n        _beforeTokenTransfer(operator, address(0), to, ids, amounts, data);\n\n        for (uint i = 0; i < ids.length; i++) {\n            require(!_exists(ids[i]), \"ERC1155: token already minted\");\n            require(amounts[i] <= 1, \"ERC1155: NFTs are singletons\");\n\n            _holderTokens[to].add(ids[i]);\n            _tokenOwners.set(ids[i], to);\n\n            _balances[ids[i]][to] = amounts[i].add(_balances[ids[i]][to]);\n        }\n\n        emit TransferBatch(operator, address(0), to, ids, amounts);\n\n        _doSafeBatchTransferAcceptanceCheck(operator, address(0), to, ids, amounts, data);\n    }\n  \n    function _burn(address account, uint256 id, uint256 amount) internal virtual {\n        require(account != address(0), \"ERC1155: burn from the zero address\");\n\n        address operator = _msgSender();\n\n        _beforeTokenTransfer(operator, account, address(0), _asSingletonArray(id), _asSingletonArray(amount), \"\");        \n        \n        _holderTokens[account].remove(id);\n        _tokenOwners.remove(id);\n\n        _balances[id][account] = _balances[id][account].sub(\n            amount,\n            \"ERC1155: burn amount exceeds balance\"\n        );\n\n        emit TransferSingle(operator, account, address(0), id, amount);\n    }\n\n    function _burnBatch(address account, uint256[] memory ids, uint256[] memory amounts) internal virtual {\n        require(account != address(0), \"ERC1155: burn from the zero address\");\n        require(ids.length == amounts.length, \"ERC1155: ids and amounts length mismatch\");\n\n        address operator = _msgSender();\n\n        _beforeTokenTransfer(operator, account, address(0), ids, amounts, \"\");\n\n        for (uint i = 0; i < ids.length; i++) {\n            _holderTokens[account].remove(ids[i]);\n            _tokenOwners.remove(ids[i]);\n\n            _balances[ids[i]][account] = _balances[ids[i]][account].sub(\n                amounts[i],\n                \"ERC1155: burn amount exceeds balance\"\n            );\n        }\n\n        emit TransferBatch(operator, account, address(0), ids, amounts);\n    }\n\n    function _beforeTokenTransfer(\n        address operator,\n        address from,\n        address to,\n        uint256[] memory ids,\n        uint256[] memory amounts,\n        bytes memory data\n    )\n        internal virtual\n    { }\n\n    function _doSafeTransferAcceptanceCheck(\n        address operator,\n        address from,\n        address to,\n        uint256 id,\n        uint256 amount,\n        bytes memory data\n    )\n        private\n    {\n        if (to.isContract()) {\n            try IERC1155Receiver(to).onERC1155Received(operator, from, id, amount, data) returns (bytes4 response) {\n                if (response != IERC1155Receiver(to).onERC1155Received.selector) {\n                    revert(\"ERC1155: ERC1155Receiver rejected tokens\");\n                }\n            } catch Error(string memory reason) {\n                revert(reason);\n            } catch {\n                revert(\"ERC1155: transfer to non ERC1155Receiver implementer\");\n            }\n        }\n    }\n\n    function _doSafeBatchTransferAcceptanceCheck(\n        address operator,\n        address from,\n        address to,\n        uint256[] memory ids,\n        uint256[] memory amounts,\n        bytes memory data\n    )\n        private\n    {\n        if (to.isContract()) {\n            try IERC1155Receiver(to).onERC1155BatchReceived(operator, from, ids, amounts, data) returns (bytes4 response) {\n                if (response != IERC1155Receiver(to).onERC1155BatchReceived.selector) {\n                    revert(\"ERC1155: ERC1155Receiver rejected tokens\");\n                }\n            } catch Error(string memory reason) {\n                revert(reason);\n            } catch {\n                revert(\"ERC1155: transfer to non ERC1155Receiver implementer\");\n            }\n        }\n    }\n\n    function _asSingletonArray(uint256 element) private pure returns (uint256[] memory) {\n        uint256[] memory array = new uint256[](1);\n        array[0] = element;\n\n        return array;\n    }\n}\n",
  "sourcePath": "/home/artem/Projects/Distributed_Lab/Applicature/bridgemutual-core/contracts/tokens/CustomERC1155.sol",
  "compiler": {
    "name": "solc",
    "version": "0.7.4+commit.3f05b770.Emscripten.clang"
  },
  "schemaVersion": "3.3.3",
  "updatedAt": "2021-01-20T19:02:06.635Z",
  "devdoc": {
    "kind": "dev",
    "methods": {
      "balanceOf(address,uint256)": {
        "details": "Returns the amount of tokens of token type `id` owned by `account`. Requirements: - `account` cannot be the zero address."
      },
      "balanceOfBatch(address[],uint256[])": {
        "details": "xref:ROOT:erc1155.adoc#batch-operations[Batched] version of {balanceOf}. Requirements: - `accounts` and `ids` must have the same length."
      },
      "isApprovedForAll(address,address)": {
        "details": "Returns true if `operator` is approved to transfer ``account``'s tokens. See {setApprovalForAll}."
      },
      "safeBatchTransferFrom(address,address,uint256[],uint256[],bytes)": {
        "details": "xref:ROOT:erc1155.adoc#batch-operations[Batched] version of {safeTransferFrom}. Emits a {TransferBatch} event. Requirements: - `ids` and `amounts` must have the same length. - If `to` refers to a smart contract, it must implement {IERC1155Receiver-onERC1155BatchReceived} and return the acceptance magic value."
      },
      "safeTransferFrom(address,address,uint256,uint256,bytes)": {
        "details": "Transfers `amount` tokens of token type `id` from `from` to `to`. Emits a {TransferSingle} event. Requirements: - `to` cannot be the zero address. - If the caller is not `from`, it must be have been approved to spend ``from``'s tokens via {setApprovalForAll}. - `from` must have a balance of tokens of type `id` of at least `amount`. - If `to` refers to a smart contract, it must implement {IERC1155Receiver-onERC1155Received} and return the acceptance magic value."
      },
      "setApprovalForAll(address,bool)": {
        "details": "Grants or revokes permission to `operator` to transfer the caller's tokens, according to `approved`, Emits an {ApprovalForAll} event. Requirements: - `operator` cannot be the caller."
      },
      "supportsInterface(bytes4)": {
        "details": "See {IERC165-supportsInterface}. Time complexity O(1), guaranteed to always use less than 30 000 gas."
      }
    },
    "version": 1
  },
  "userdoc": {
    "kind": "user",
    "methods": {},
    "version": 1
  }
}