{
  "contractName": "DefiYieldGenerator",
  "abi": [
    {
      "anonymous": false,
      "inputs": [
        {
          "indexed": true,
          "internalType": "address",
          "name": "previousOwner",
          "type": "address"
        },
        {
          "indexed": true,
          "internalType": "address",
          "name": "newOwner",
          "type": "address"
        }
      ],
      "name": "OwnershipTransferred",
      "type": "event"
    },
    {
      "inputs": [],
      "name": "bmiDaiStakingAddress",
      "outputs": [
        {
          "internalType": "address",
          "name": "",
          "type": "address"
        }
      ],
      "stateMutability": "view",
      "type": "function",
      "constant": true
    },
    {
      "inputs": [],
      "name": "bmiToken",
      "outputs": [
        {
          "internalType": "contract IERC20",
          "name": "",
          "type": "address"
        }
      ],
      "stateMutability": "view",
      "type": "function",
      "constant": true
    },
    {
      "inputs": [],
      "name": "contractsRegistry",
      "outputs": [
        {
          "internalType": "contract ContractsRegistry",
          "name": "",
          "type": "address"
        }
      ],
      "stateMutability": "view",
      "type": "function",
      "constant": true
    },
    {
      "inputs": [],
      "name": "daiToken",
      "outputs": [
        {
          "internalType": "contract IERC20",
          "name": "",
          "type": "address"
        }
      ],
      "stateMutability": "view",
      "type": "function",
      "constant": true
    },
    {
      "inputs": [],
      "name": "owner",
      "outputs": [
        {
          "internalType": "address",
          "name": "",
          "type": "address"
        }
      ],
      "stateMutability": "view",
      "type": "function",
      "constant": true
    },
    {
      "inputs": [],
      "name": "renounceOwnership",
      "outputs": [],
      "stateMutability": "nonpayable",
      "type": "function"
    },
    {
      "inputs": [
        {
          "internalType": "address",
          "name": "newOwner",
          "type": "address"
        }
      ],
      "name": "transferOwnership",
      "outputs": [],
      "stateMutability": "nonpayable",
      "type": "function"
    },
    {
      "inputs": [
        {
          "internalType": "contract ContractsRegistry",
          "name": "_contractsRegistry",
          "type": "address"
        }
      ],
      "name": "initRegistry",
      "outputs": [],
      "stateMutability": "nonpayable",
      "type": "function"
    },
    {
      "inputs": [],
      "name": "approveAllDaiTokensForStakingWithdrowal",
      "outputs": [],
      "stateMutability": "nonpayable",
      "type": "function"
    },
    {
      "inputs": [],
      "name": "approveAllBMITokensForStakingWithdrowal",
      "outputs": [],
      "stateMutability": "nonpayable",
      "type": "function"
    },
    {
      "inputs": [
        {
          "internalType": "uint256",
          "name": "stakingStartTime",
          "type": "uint256"
        },
        {
          "internalType": "uint256",
          "name": "stakedDAIAmount",
          "type": "uint256"
        }
      ],
      "name": "getProfit",
      "outputs": [
        {
          "internalType": "uint256",
          "name": "",
          "type": "uint256"
        }
      ],
      "stateMutability": "nonpayable",
      "type": "function"
    }
  ],
  "bytecode": "0x608060405234801561001057600080fd5b50600061001b61006a565b600080546001600160a01b0319166001600160a01b0383169081178255604051929350917f8be0079c531659141344cd1fd0a4f28419497f9722a3daafe3b4186f6b6457e0908290a35061006e565b3390565b61107b8061007d6000396000f3fe608060405234801561001057600080fd5b50600436106100c95760003560e01c8063be22f54611610081578063d98d0c7e1161005b578063d98d0c7e14610131578063f2fde38b14610139578063f6b15fe61461014c576100c9565b8063be22f5461461010e578063d0a43afd14610116578063d77379f114610129576100c9565b80638da5cb5b116100b25780638da5cb5b146100e05780639effd687146100fe578063a2ac7ac614610106576100c9565b8063333399bc146100ce578063715018a6146100d8575b600080fd5b6100d661016c565b005b6100d6610312565b6100e8610412565b6040516100f59190610e61565b60405180910390f35b6100e861042e565b6100d661044a565b6100e86105e4565b6100d6610124366004610d2c565b610600565b6100e8610b09565b6100e8610b25565b6100d6610147366004610d2c565b610b41565b61015f61015a366004610e40565b610ccb565b6040516100f59190610fc4565b610174610d28565b60005473ffffffffffffffffffffffffffffffffffffffff9081169116146101fd57604080517f08c379a000000000000000000000000000000000000000000000000000000000815260206004820181905260248201527f4f776e61626c653a2063616c6c6572206973206e6f7420746865206f776e6572604482015290519081900360640190fd5b600254600480546040517f095ea7b300000000000000000000000000000000000000000000000000000000815260009373ffffffffffffffffffffffffffffffffffffffff9081169363095ea7b39361027b939216917fffffffffffffffffffffffffffffffffffffffffffffffffffffffffffffffff9101610e82565b602060405180830381600087803b15801561029557600080fd5b505af11580156102a9573d6000803e3d6000fd5b505050506040513d601f19601f820116820180604052508101906102cd9190610d6b565b90508061030f576040517f08c379a000000000000000000000000000000000000000000000000000000000815260040161030690610f56565b60405180910390fd5b50565b61031a610d28565b60005473ffffffffffffffffffffffffffffffffffffffff9081169116146103a357604080517f08c379a000000000000000000000000000000000000000000000000000000000815260206004820181905260248201527f4f776e61626c653a2063616c6c6572206973206e6f7420746865206f776e6572604482015290519081900360640190fd5b6000805460405173ffffffffffffffffffffffffffffffffffffffff909116907f8be0079c531659141344cd1fd0a4f28419497f9722a3daafe3b4186f6b6457e0908390a3600080547fffffffffffffffffffffffff0000000000000000000000000000000000000000169055565b60005473ffffffffffffffffffffffffffffffffffffffff1690565b60045473ffffffffffffffffffffffffffffffffffffffff1681565b610452610d28565b60005473ffffffffffffffffffffffffffffffffffffffff9081169116146104db57604080517f08c379a000000000000000000000000000000000000000000000000000000000815260206004820181905260248201527f4f776e61626c653a2063616c6c6572206973206e6f7420746865206f776e6572604482015290519081900360640190fd5b600354600480546040517f095ea7b300000000000000000000000000000000000000000000000000000000815260009373ffffffffffffffffffffffffffffffffffffffff9081169363095ea7b393610559939216917fffffffffffffffffffffffffffffffffffffffffffffffffffffffffffffffff9101610e82565b602060405180830381600087803b15801561057357600080fd5b505af1158015610587573d6000803e3d6000fd5b505050506040513d601f19601f820116820180604052508101906105ab9190610d6b565b90508061030f576040517f08c379a000000000000000000000000000000000000000000000000000000000815260040161030690610f8d565b60025473ffffffffffffffffffffffffffffffffffffffff1681565b610608610d28565b60005473ffffffffffffffffffffffffffffffffffffffff90811691161461069157604080517f08c379a000000000000000000000000000000000000000000000000000000000815260206004820181905260248201527f4f776e61626c653a2063616c6c6572206973206e6f7420746865206f776e6572604482015290519081900360640190fd5b600180547fffffffffffffffffffffffff00000000000000000000000000000000000000001673ffffffffffffffffffffffffffffffffffffffff8316908117909155604080517fa45611b60000000000000000000000000000000000000000000000000000000081529051633581777391839163a45611b691600480820192600092909190829003018186803b15801561072b57600080fd5b505afa15801561073f573d6000803e3d6000fd5b505050506040513d6000823e601f3d9081017fffffffffffffffffffffffffffffffffffffffffffffffffffffffffffffffe01682016040526107859190810190610d8b565b6040518263ffffffff1660e01b81526004016107a19190610ea8565b60206040518083038186803b1580156107b957600080fd5b505afa1580156107cd573d6000803e3d6000fd5b505050506040513d601f19601f820116820180604052508101906107f19190610d4f565b600260006101000a81548173ffffffffffffffffffffffffffffffffffffffff021916908373ffffffffffffffffffffffffffffffffffffffff1602179055508073ffffffffffffffffffffffffffffffffffffffff1663358177738273ffffffffffffffffffffffffffffffffffffffff166327c300af6040518163ffffffff1660e01b815260040160006040518083038186803b15801561089357600080fd5b505afa1580156108a7573d6000803e3d6000fd5b505050506040513d6000823e601f3d9081017fffffffffffffffffffffffffffffffffffffffffffffffffffffffffffffffe01682016040526108ed9190810190610d8b565b6040518263ffffffff1660e01b81526004016109099190610ea8565b60206040518083038186803b15801561092157600080fd5b505afa158015610935573d6000803e3d6000fd5b505050506040513d601f19601f820116820180604052508101906109599190610d4f565b600360006101000a81548173ffffffffffffffffffffffffffffffffffffffff021916908373ffffffffffffffffffffffffffffffffffffffff1602179055508073ffffffffffffffffffffffffffffffffffffffff1663358177738273ffffffffffffffffffffffffffffffffffffffff16633d2886a06040518163ffffffff1660e01b815260040160006040518083038186803b1580156109fb57600080fd5b505afa158015610a0f573d6000803e3d6000fd5b505050506040513d6000823e601f3d9081017fffffffffffffffffffffffffffffffffffffffffffffffffffffffffffffffe0168201604052610a559190810190610d8b565b6040518263ffffffff1660e01b8152600401610a719190610ea8565b60206040518083038186803b158015610a8957600080fd5b505afa158015610a9d573d6000803e3d6000fd5b505050506040513d601f19601f82011682018060405250810190610ac19190610d4f565b600480547fffffffffffffffffffffffff00000000000000000000000000000000000000001673ffffffffffffffffffffffffffffffffffffffff9290921691909117905550565b60035473ffffffffffffffffffffffffffffffffffffffff1681565b60015473ffffffffffffffffffffffffffffffffffffffff1681565b610b49610d28565b60005473ffffffffffffffffffffffffffffffffffffffff908116911614610bd257604080517f08c379a000000000000000000000000000000000000000000000000000000000815260206004820181905260248201527f4f776e61626c653a2063616c6c6572206973206e6f7420746865206f776e6572604482015290519081900360640190fd5b73ffffffffffffffffffffffffffffffffffffffff8116610c3e576040517f08c379a00000000000000000000000000000000000000000000000000000000081526004018080602001828103825260268152602001806110206026913960400191505060405180910390fd5b6000805460405173ffffffffffffffffffffffffffffffffffffffff808516939216917f8be0079c531659141344cd1fd0a4f28419497f9722a3daafe3b4186f6b6457e091a3600080547fffffffffffffffffffffffff00000000000000000000000000000000000000001673ffffffffffffffffffffffffffffffffffffffff92909216919091179055565b60045460009073ffffffffffffffffffffffffffffffffffffffff163314610d1f576040517f08c379a000000000000000000000000000000000000000000000000000000000815260040161030690610ef9565b50600092915050565b3390565b600060208284031215610d3d578081fd5b8135610d4881610ffd565b9392505050565b600060208284031215610d60578081fd5b8151610d4881610ffd565b600060208284031215610d7c578081fd5b81518015158114610d48578182fd5b600060208284031215610d9c578081fd5b815167ffffffffffffffff80821115610db3578283fd5b818401915084601f830112610dc6578283fd5b815181811115610dd257fe5b60405160207fffffffffffffffffffffffffffffffffffffffffffffffffffffffffffffffe0601f8401168201018181108482111715610e0e57fe5b604052818152838201602001871015610e25578485fd5b610e36826020830160208701610fcd565b9695505050505050565b60008060408385031215610e52578081fd5b50508035926020909101359150565b73ffffffffffffffffffffffffffffffffffffffff91909116815260200190565b73ffffffffffffffffffffffffffffffffffffffff929092168252602082015260400190565b6000602082528251806020840152610ec7816040850160208701610fcd565b601f017fffffffffffffffffffffffffffffffffffffffffffffffffffffffffffffffe0169190910160400192915050565b6020808252602b908201527f446566695969656c6447656e657261746f723a2063616c6c6572206973206e6f60408201527f742061207374616b696e67000000000000000000000000000000000000000000606082015260800190565b6020808252601c908201527f4661696c656420746f20617070726f76652044414920746f6b656e7300000000604082015260600190565b6020808252601c908201527f4661696c656420746f20617070726f766520424d4920746f6b656e7300000000604082015260600190565b90815260200190565b60005b83811015610fe8578181015183820152602001610fd0565b83811115610ff7576000848401525b50505050565b73ffffffffffffffffffffffffffffffffffffffff8116811461030f57600080fdfe4f776e61626c653a206e6577206f776e657220697320746865207a65726f2061646472657373a264697066735822122050660c89abe3fd1726998a72205a95d0f8797dccb072bb4be3f1ea8746d06adc64736f6c63430007040033",
  "immutableReferences": {},
  "source": "// SPDX-License-Identifier: MIT\npragma solidity ^0.7.4;\npragma experimental ABIEncoderV2;\n\nimport \"@openzeppelin/contracts/access/Ownable.sol\";\nimport \"@openzeppelin/contracts/token/ERC20/IERC20.sol\";\n\nimport \"./ContractsRegistry.sol\";\n\ncontract DefiYieldGenerator is Ownable {\n    uint256 constant private MAX_INT = 2**256 - 1;\n\n    ContractsRegistry public contractsRegistry;\n\n    IERC20 public daiToken;\n    IERC20 public bmiToken;\n    address public bmiDaiStakingAddress;\n\n    modifier onlyStaking() {\n        require (msg.sender == bmiDaiStakingAddress, \"DefiYieldGenerator: caller is not a staking\");\n        _;\n    }\n\n    function initRegistry(ContractsRegistry _contractsRegistry) external onlyOwner {\n        contractsRegistry = _contractsRegistry;\n        \n        daiToken = IERC20(_contractsRegistry.getContract(_contractsRegistry.getDAIName()));\n        bmiToken = IERC20(_contractsRegistry.getContract(_contractsRegistry.getBMIName()));\n        bmiDaiStakingAddress = _contractsRegistry.getContract(_contractsRegistry.getBmiDAIStakingName());\n    }\n\n    function approveAllDaiTokensForStakingWithdrowal() external onlyOwner {\n        bool success = daiToken.approve(bmiDaiStakingAddress, MAX_INT);\n\n        require(success, \"Failed to approve DAI tokens\");\n    }\n\n    function approveAllBMITokensForStakingWithdrowal() external onlyOwner {\n        bool success = bmiToken.approve(bmiDaiStakingAddress, MAX_INT);\n\n        require(success, \"Failed to approve BMI tokens\");\n    }\n    \n// TODO\n    function getProfit(uint256 stakingStartTime, uint256 stakedDAIAmount) external onlyStaking returns (uint256) {        \n        return 0;\n    }\n}",
  "sourcePath": "/home/artem/Projects/Distributed_Lab/Applicature/bridgemutual-core/contracts/DefiYieldGenerator.sol",
  "compiler": {
    "name": "solc",
    "version": "0.7.4+commit.3f05b770.Emscripten.clang"
  },
  "schemaVersion": "3.3.3",
  "updatedAt": "2021-01-26T15:28:36.412Z",
  "networkType": "ethereum",
  "devdoc": {
    "kind": "dev",
    "methods": {
      "owner()": {
        "details": "Returns the address of the current owner."
      },
      "renounceOwnership()": {
        "details": "Leaves the contract without owner. It will not be possible to call `onlyOwner` functions anymore. Can only be called by the current owner. NOTE: Renouncing ownership will leave the contract without an owner, thereby removing any functionality that is only available to the owner."
      },
      "transferOwnership(address)": {
        "details": "Transfers ownership of the contract to a new account (`newOwner`). Can only be called by the current owner."
      }
    },
    "version": 1
  },
  "userdoc": {
    "kind": "user",
    "methods": {},
    "version": 1
  }
}