{
  "contractName": "DefiYieldGenerator",
  "abi": [
    {
      "anonymous": false,
      "inputs": [
        {
          "indexed": true,
          "internalType": "address",
          "name": "previousOwner",
          "type": "address"
        },
        {
          "indexed": true,
          "internalType": "address",
          "name": "newOwner",
          "type": "address"
        }
      ],
      "name": "OwnershipTransferred",
      "type": "event"
    },
    {
      "inputs": [],
      "name": "bmiDaiStaking",
      "outputs": [
        {
          "internalType": "contract IBmiDaiStaking",
          "name": "",
          "type": "address"
        }
      ],
      "stateMutability": "view",
      "type": "function",
      "constant": true
    },
    {
      "inputs": [],
      "name": "bmiToken",
      "outputs": [
        {
          "internalType": "contract IERC20",
          "name": "",
          "type": "address"
        }
      ],
      "stateMutability": "view",
      "type": "function",
      "constant": true
    },
    {
      "inputs": [],
      "name": "contractsRegistry",
      "outputs": [
        {
          "internalType": "contract ContractsRegistry",
          "name": "",
          "type": "address"
        }
      ],
      "stateMutability": "view",
      "type": "function",
      "constant": true
    },
    {
      "inputs": [],
      "name": "daiToken",
      "outputs": [
        {
          "internalType": "contract IERC20",
          "name": "",
          "type": "address"
        }
      ],
      "stateMutability": "view",
      "type": "function",
      "constant": true
    },
    {
      "inputs": [],
      "name": "owner",
      "outputs": [
        {
          "internalType": "address",
          "name": "",
          "type": "address"
        }
      ],
      "stateMutability": "view",
      "type": "function",
      "constant": true
    },
    {
      "inputs": [],
      "name": "renounceOwnership",
      "outputs": [],
      "stateMutability": "nonpayable",
      "type": "function"
    },
    {
      "inputs": [
        {
          "internalType": "address",
          "name": "newOwner",
          "type": "address"
        }
      ],
      "name": "transferOwnership",
      "outputs": [],
      "stateMutability": "nonpayable",
      "type": "function"
    },
    {
      "inputs": [
        {
          "internalType": "contract ContractsRegistry",
          "name": "_contractsRegistry",
          "type": "address"
        }
      ],
      "name": "initRegistry",
      "outputs": [],
      "stateMutability": "nonpayable",
      "type": "function"
    },
    {
      "inputs": [],
      "name": "approveAllDaiTokensForStakingWithdrowal",
      "outputs": [],
      "stateMutability": "nonpayable",
      "type": "function"
    },
    {
      "inputs": [],
      "name": "approveAllBMITokensForStakingWithdrowal",
      "outputs": [],
      "stateMutability": "nonpayable",
      "type": "function"
    },
    {
      "inputs": [
        {
          "internalType": "uint256",
          "name": "tokenID",
          "type": "uint256"
        }
      ],
      "name": "updateProfitBMITokensFor",
      "outputs": [],
      "stateMutability": "nonpayable",
      "type": "function"
    }
  ],
  "bytecode": "0x608060405234801561001057600080fd5b50600061001b61006a565b600080546001600160a01b0319166001600160a01b0383169081178255604051929350917f8be0079c531659141344cd1fd0a4f28419497f9722a3daafe3b4186f6b6457e0908290a35061006e565b3390565b61118f8061007d6000396000f3fe608060405234801561001057600080fd5b50600436106100c95760003560e01c8063a2ac7ac611610081578063d77379f11161005b578063d77379f11461013c578063d98d0c7e14610144578063f2fde38b1461014c576100c9565b8063a2ac7ac614610119578063be22f54614610121578063d0a43afd14610129576100c9565b8063537a436e116100b2578063537a436e146100eb578063715018a6146101095780638da5cb5b14610111576100c9565b806318022438146100ce578063333399bc146100e3575b600080fd5b6100e16100dc366004610fac565b61015f565b005b6100e161028a565b6100f3610430565b6040516101009190610fc4565b60405180910390f35b6100e161044c565b6100f361054c565b6100e1610568565b6100f3610702565b6100e1610137366004610e31565b61071e565b6100f3610c27565b6100f3610c43565b6100e161015a366004610e31565b610c5f565b610167610df3565b600480546040517f076befe700000000000000000000000000000000000000000000000000000000815273ffffffffffffffffffffffffffffffffffffffff9091169163076befe7916101bc918691016110ca565b60806040518083038186803b1580156101d457600080fd5b505afa1580156101e8573d6000803e3d6000fd5b505050506040513d601f19601f8201168201806040525081019061020c9190610f45565b60045490915073ffffffffffffffffffffffffffffffffffffffff1663cc1993918361023784610de9565b6040518363ffffffff1660e01b81526004016102549291906110d3565b600060405180830381600087803b15801561026e57600080fd5b505af1158015610282573d6000803e3d6000fd5b505050505050565b610292610def565b60005473ffffffffffffffffffffffffffffffffffffffff90811691161461031b57604080517f08c379a000000000000000000000000000000000000000000000000000000000815260206004820181905260248201527f4f776e61626c653a2063616c6c6572206973206e6f7420746865206f776e6572604482015290519081900360640190fd5b600254600480546040517f095ea7b300000000000000000000000000000000000000000000000000000000815260009373ffffffffffffffffffffffffffffffffffffffff9081169363095ea7b393610399939216917fffffffffffffffffffffffffffffffffffffffffffffffffffffffffffffffff9101610fe5565b602060405180830381600087803b1580156103b357600080fd5b505af11580156103c7573d6000803e3d6000fd5b505050506040513d601f19601f820116820180604052508101906103eb9190610e70565b90508061042d576040517f08c379a00000000000000000000000000000000000000000000000000000000081526004016104249061105c565b60405180910390fd5b50565b60045473ffffffffffffffffffffffffffffffffffffffff1681565b610454610def565b60005473ffffffffffffffffffffffffffffffffffffffff9081169116146104dd57604080517f08c379a000000000000000000000000000000000000000000000000000000000815260206004820181905260248201527f4f776e61626c653a2063616c6c6572206973206e6f7420746865206f776e6572604482015290519081900360640190fd5b6000805460405173ffffffffffffffffffffffffffffffffffffffff909116907f8be0079c531659141344cd1fd0a4f28419497f9722a3daafe3b4186f6b6457e0908390a3600080547fffffffffffffffffffffffff0000000000000000000000000000000000000000169055565b60005473ffffffffffffffffffffffffffffffffffffffff1690565b610570610def565b60005473ffffffffffffffffffffffffffffffffffffffff9081169116146105f957604080517f08c379a000000000000000000000000000000000000000000000000000000000815260206004820181905260248201527f4f776e61626c653a2063616c6c6572206973206e6f7420746865206f776e6572604482015290519081900360640190fd5b600354600480546040517f095ea7b300000000000000000000000000000000000000000000000000000000815260009373ffffffffffffffffffffffffffffffffffffffff9081169363095ea7b393610677939216917fffffffffffffffffffffffffffffffffffffffffffffffffffffffffffffffff9101610fe5565b602060405180830381600087803b15801561069157600080fd5b505af11580156106a5573d6000803e3d6000fd5b505050506040513d601f19601f820116820180604052508101906106c99190610e70565b90508061042d576040517f08c379a000000000000000000000000000000000000000000000000000000000815260040161042490611093565b60025473ffffffffffffffffffffffffffffffffffffffff1681565b610726610def565b60005473ffffffffffffffffffffffffffffffffffffffff9081169116146107af57604080517f08c379a000000000000000000000000000000000000000000000000000000000815260206004820181905260248201527f4f776e61626c653a2063616c6c6572206973206e6f7420746865206f776e6572604482015290519081900360640190fd5b600180547fffffffffffffffffffffffff00000000000000000000000000000000000000001673ffffffffffffffffffffffffffffffffffffffff8316908117909155604080517fa45611b60000000000000000000000000000000000000000000000000000000081529051633581777391839163a45611b691600480820192600092909190829003018186803b15801561084957600080fd5b505afa15801561085d573d6000803e3d6000fd5b505050506040513d6000823e601f3d9081017fffffffffffffffffffffffffffffffffffffffffffffffffffffffffffffffe01682016040526108a39190810190610e90565b6040518263ffffffff1660e01b81526004016108bf919061100b565b60206040518083038186803b1580156108d757600080fd5b505afa1580156108eb573d6000803e3d6000fd5b505050506040513d601f19601f8201168201806040525081019061090f9190610e54565b600260006101000a81548173ffffffffffffffffffffffffffffffffffffffff021916908373ffffffffffffffffffffffffffffffffffffffff1602179055508073ffffffffffffffffffffffffffffffffffffffff1663358177738273ffffffffffffffffffffffffffffffffffffffff166327c300af6040518163ffffffff1660e01b815260040160006040518083038186803b1580156109b157600080fd5b505afa1580156109c5573d6000803e3d6000fd5b505050506040513d6000823e601f3d9081017fffffffffffffffffffffffffffffffffffffffffffffffffffffffffffffffe0168201604052610a0b9190810190610e90565b6040518263ffffffff1660e01b8152600401610a27919061100b565b60206040518083038186803b158015610a3f57600080fd5b505afa158015610a53573d6000803e3d6000fd5b505050506040513d601f19601f82011682018060405250810190610a779190610e54565b600360006101000a81548173ffffffffffffffffffffffffffffffffffffffff021916908373ffffffffffffffffffffffffffffffffffffffff1602179055508073ffffffffffffffffffffffffffffffffffffffff1663358177738273ffffffffffffffffffffffffffffffffffffffff16633d2886a06040518163ffffffff1660e01b815260040160006040518083038186803b158015610b1957600080fd5b505afa158015610b2d573d6000803e3d6000fd5b505050506040513d6000823e601f3d9081017fffffffffffffffffffffffffffffffffffffffffffffffffffffffffffffffe0168201604052610b739190810190610e90565b6040518263ffffffff1660e01b8152600401610b8f919061100b565b60206040518083038186803b158015610ba757600080fd5b505afa158015610bbb573d6000803e3d6000fd5b505050506040513d601f19601f82011682018060405250810190610bdf9190610e54565b600480547fffffffffffffffffffffffff00000000000000000000000000000000000000001673ffffffffffffffffffffffffffffffffffffffff9290921691909117905550565b60035473ffffffffffffffffffffffffffffffffffffffff1681565b60015473ffffffffffffffffffffffffffffffffffffffff1681565b610c67610def565b60005473ffffffffffffffffffffffffffffffffffffffff908116911614610cf057604080517f08c379a000000000000000000000000000000000000000000000000000000000815260206004820181905260248201527f4f776e61626c653a2063616c6c6572206973206e6f7420746865206f776e6572604482015290519081900360640190fd5b73ffffffffffffffffffffffffffffffffffffffff8116610d5c576040517f08c379a00000000000000000000000000000000000000000000000000000000081526004018080602001828103825260268152602001806111346026913960400191505060405180910390fd5b6000805460405173ffffffffffffffffffffffffffffffffffffffff808516939216917f8be0079c531659141344cd1fd0a4f28419497f9722a3daafe3b4186f6b6457e091a3600080547fffffffffffffffffffffffff00000000000000000000000000000000000000001673ffffffffffffffffffffffffffffffffffffffff92909216919091179055565b50600090565b3390565b60405180608001604052806000815260200160008152602001600073ffffffffffffffffffffffffffffffffffffffff168152602001600081525090565b600060208284031215610e42578081fd5b8135610e4d81611111565b9392505050565b600060208284031215610e65578081fd5b8151610e4d81611111565b600060208284031215610e81578081fd5b81518015158114610e4d578182fd5b600060208284031215610ea1578081fd5b815167ffffffffffffffff80821115610eb8578283fd5b818401915084601f830112610ecb578283fd5b815181811115610ed757fe5b60405160207fffffffffffffffffffffffffffffffffffffffffffffffffffffffffffffffe0601f8401168201018181108482111715610f1357fe5b604052818152838201602001871015610f2a578485fd5b610f3b8260208301602087016110e1565b9695505050505050565b600060808284031215610f56578081fd5b6040516080810181811067ffffffffffffffff82111715610f7357fe5b806040525082518152602083015160208201526040830151610f9481611111565b60408201526060928301519281019290925250919050565b600060208284031215610fbd578081fd5b5035919050565b73ffffffffffffffffffffffffffffffffffffffff91909116815260200190565b73ffffffffffffffffffffffffffffffffffffffff929092168252602082015260400190565b600060208252825180602084015261102a8160408501602087016110e1565b601f017fffffffffffffffffffffffffffffffffffffffffffffffffffffffffffffffe0169190910160400192915050565b6020808252601c908201527f4661696c656420746f20617070726f76652044414920746f6b656e7300000000604082015260600190565b6020808252601c908201527f4661696c656420746f20617070726f766520424d4920746f6b656e7300000000604082015260600190565b90815260200190565b918252602082015260400190565b60005b838110156110fc5781810151838201526020016110e4565b8381111561110b576000848401525b50505050565b73ffffffffffffffffffffffffffffffffffffffff8116811461042d57600080fdfe4f776e61626c653a206e6577206f776e657220697320746865207a65726f2061646472657373a2646970667358221220859952bc78b2b5643ff278d60915ce649080a8af6156b74a66be3579d372ad8664736f6c63430007040033",
  "immutableReferences": {},
  "source": "// SPDX-License-Identifier: MIT\npragma solidity ^0.7.4;\npragma experimental ABIEncoderV2;\n\nimport \"@openzeppelin/contracts/access/Ownable.sol\";\nimport \"@openzeppelin/contracts/token/ERC20/IERC20.sol\";\n\nimport \"./interfaces/IBmiDaiStaking.sol\";\n\nimport \"./ContractsRegistry.sol\";\n\ncontract DefiYieldGenerator is Ownable {\n    uint256 constant private MAX_INT = 2**256 - 1;\n\n    ContractsRegistry public contractsRegistry;\n\n    IERC20 public daiToken;\n    IERC20 public bmiToken;\n    IBmiDaiStaking public bmiDaiStaking;\n\n    function initRegistry(ContractsRegistry _contractsRegistry) external onlyOwner {\n        contractsRegistry = _contractsRegistry;\n        \n        daiToken = IERC20(_contractsRegistry.getContract(_contractsRegistry.getDAIName()));\n        bmiToken = IERC20(_contractsRegistry.getContract(_contractsRegistry.getBMIName()));\n        bmiDaiStaking = IBmiDaiStaking(_contractsRegistry.getContract(_contractsRegistry.getBmiDAIStakingName()));\n    }\n\n    function approveAllDaiTokensForStakingWithdrowal() external onlyOwner {\n        bool success = daiToken.approve(address(bmiDaiStaking), MAX_INT);\n\n        require(success, \"Failed to approve DAI tokens\");\n    }\n\n    function approveAllBMITokensForStakingWithdrowal() external onlyOwner {\n        bool success = bmiToken.approve(address(bmiDaiStaking), MAX_INT);\n\n        require(success, \"Failed to approve BMI tokens\");\n    }\n    \n// TODO\n    function updateProfitBMITokensFor(uint256 tokenID) external {\n        // Add bmi tokens to this address, then =>\n\n        IBmiDaiStaking.StakingInfo memory stakingInfo = bmiDaiStaking.getStakingInfoByTokenID(tokenID);\n\n        bmiDaiStaking.increaseBmiProfit(tokenID, generateProfit(stakingInfo));\n    }\n\n// TODO\n    function generateProfit(IBmiDaiStaking.StakingInfo memory stakingInfo) private pure returns (uint256) {        \n        return 0;\n    }\n}",
  "sourcePath": "/home/artem/Projects/Distributed_Lab/Applicature/bridgemutual-core/contracts/DefiYieldGenerator.sol",
  "compiler": {
    "name": "solc",
    "version": "0.7.4+commit.3f05b770.Emscripten.clang"
  },
  "schemaVersion": "3.3.3",
  "updatedAt": "2021-01-22T16:22:26.248Z",
  "networkType": "ethereum",
  "devdoc": {
    "kind": "dev",
    "methods": {
      "owner()": {
        "details": "Returns the address of the current owner."
      },
      "renounceOwnership()": {
        "details": "Leaves the contract without owner. It will not be possible to call `onlyOwner` functions anymore. Can only be called by the current owner. NOTE: Renouncing ownership will leave the contract without an owner, thereby removing any functionality that is only available to the owner."
      },
      "transferOwnership(address)": {
        "details": "Transfers ownership of the contract to a new account (`newOwner`). Can only be called by the current owner."
      }
    },
    "version": 1
  },
  "userdoc": {
    "kind": "user",
    "methods": {},
    "version": 1
  }
}