{
  "contractName": "DefiYieldGenerator",
  "abi": [
    {
      "anonymous": false,
      "inputs": [
        {
          "indexed": true,
          "internalType": "address",
          "name": "previousOwner",
          "type": "address"
        },
        {
          "indexed": true,
          "internalType": "address",
          "name": "newOwner",
          "type": "address"
        }
      ],
      "name": "OwnershipTransferred",
      "type": "event"
    },
    {
      "inputs": [],
      "name": "bmiDaiStakingAddress",
      "outputs": [
        {
          "internalType": "address",
          "name": "",
          "type": "address"
        }
      ],
      "stateMutability": "view",
      "type": "function"
    },
    {
      "inputs": [],
      "name": "bmiToken",
      "outputs": [
        {
          "internalType": "contract IERC20",
          "name": "",
          "type": "address"
        }
      ],
      "stateMutability": "view",
      "type": "function"
    },
    {
      "inputs": [],
      "name": "contractsRegistry",
      "outputs": [
        {
          "internalType": "contract ContractsRegistry",
          "name": "",
          "type": "address"
        }
      ],
      "stateMutability": "view",
      "type": "function"
    },
    {
      "inputs": [],
      "name": "daiToken",
      "outputs": [
        {
          "internalType": "contract IERC20",
          "name": "",
          "type": "address"
        }
      ],
      "stateMutability": "view",
      "type": "function"
    },
    {
      "inputs": [],
      "name": "owner",
      "outputs": [
        {
          "internalType": "address",
          "name": "",
          "type": "address"
        }
      ],
      "stateMutability": "view",
      "type": "function"
    },
    {
      "inputs": [],
      "name": "renounceOwnership",
      "outputs": [],
      "stateMutability": "nonpayable",
      "type": "function"
    },
    {
      "inputs": [
        {
          "internalType": "address",
          "name": "newOwner",
          "type": "address"
        }
      ],
      "name": "transferOwnership",
      "outputs": [],
      "stateMutability": "nonpayable",
      "type": "function"
    },
    {
      "inputs": [
        {
          "internalType": "contract ContractsRegistry",
          "name": "_contractsRegistry",
          "type": "address"
        }
      ],
      "name": "initRegistry",
      "outputs": [],
      "stateMutability": "nonpayable",
      "type": "function"
    },
    {
      "inputs": [],
      "name": "approveAllDAITokensForStakingWithdrowal",
      "outputs": [],
      "stateMutability": "nonpayable",
      "type": "function"
    },
    {
      "inputs": [],
      "name": "approveAllBMITokensForStakingWithdrowal",
      "outputs": [],
      "stateMutability": "nonpayable",
      "type": "function"
    },
    {
      "inputs": [
        {
          "internalType": "uint256",
          "name": "stakingStartTime",
          "type": "uint256"
        },
        {
          "internalType": "uint256",
          "name": "stakedDAIAmount",
          "type": "uint256"
        }
      ],
      "name": "getProfit",
      "outputs": [
        {
          "internalType": "uint256",
          "name": "",
          "type": "uint256"
        }
      ],
      "stateMutability": "nonpayable",
      "type": "function"
    }
  ],
  "bytecode": "0x608060405234801561001057600080fd5b50600061001b61006a565b600080546001600160a01b0319166001600160a01b0383169081178255604051929350917f8be0079c531659141344cd1fd0a4f28419497f9722a3daafe3b4186f6b6457e0908290a35061006e565b3390565b610fcd8061007d6000396000f3fe608060405234801561001057600080fd5b50600436106100c95760003560e01c8063be22f54611610081578063d98d0c7e1161005b578063d98d0c7e14610131578063f2fde38b14610139578063f6b15fe61461014c576100c9565b8063be22f5461461010e578063d0a43afd14610116578063d77379f114610129576100c9565b80638da5cb5b116100b25780638da5cb5b146100e05780639effd687146100fe578063a2ac7ac614610106576100c9565b80635d3581cd146100ce578063715018a6146100d8575b600080fd5b6100d661016c565b005b6100d66102bb565b6100e86103bb565b6040516100f59190610db3565b60405180910390f35b6100e86103d7565b6100d66103f3565b6100e8610536565b6100d6610124366004610c7e565b610552565b6100e8610a5b565b6100e8610a77565b6100d6610147366004610c7e565b610a93565b61015f61015a366004610d92565b610c1d565b6040516100f59190610f16565b60045473ffffffffffffffffffffffffffffffffffffffff1633146101c6576040517f08c379a00000000000000000000000000000000000000000000000000000000081526004016101bd90610e82565b60405180910390fd5b60025460009073ffffffffffffffffffffffffffffffffffffffff1663095ea7b36101ef610c7a565b7fffffffffffffffffffffffffffffffffffffffffffffffffffffffffffffffff6040518363ffffffff1660e01b815260040161022d929190610dd4565b602060405180830381600087803b15801561024757600080fd5b505af115801561025b573d6000803e3d6000fd5b505050506040513d601f19601f8201168201806040525081019061027f9190610cbd565b9050806102b8576040517f08c379a00000000000000000000000000000000000000000000000000000000081526004016101bd90610e4b565b50565b6102c3610c7a565b60005473ffffffffffffffffffffffffffffffffffffffff90811691161461034c57604080517f08c379a000000000000000000000000000000000000000000000000000000000815260206004820181905260248201527f4f776e61626c653a2063616c6c6572206973206e6f7420746865206f776e6572604482015290519081900360640190fd5b6000805460405173ffffffffffffffffffffffffffffffffffffffff909116907f8be0079c531659141344cd1fd0a4f28419497f9722a3daafe3b4186f6b6457e0908390a3600080547fffffffffffffffffffffffff0000000000000000000000000000000000000000169055565b60005473ffffffffffffffffffffffffffffffffffffffff1690565b60045473ffffffffffffffffffffffffffffffffffffffff1681565b60045473ffffffffffffffffffffffffffffffffffffffff163314610444576040517f08c379a00000000000000000000000000000000000000000000000000000000081526004016101bd90610e82565b60035460009073ffffffffffffffffffffffffffffffffffffffff1663095ea7b361046d610c7a565b7fffffffffffffffffffffffffffffffffffffffffffffffffffffffffffffffff6040518363ffffffff1660e01b81526004016104ab929190610dd4565b602060405180830381600087803b1580156104c557600080fd5b505af11580156104d9573d6000803e3d6000fd5b505050506040513d601f19601f820116820180604052508101906104fd9190610cbd565b9050806102b8576040517f08c379a00000000000000000000000000000000000000000000000000000000081526004016101bd90610edf565b60025473ffffffffffffffffffffffffffffffffffffffff1681565b61055a610c7a565b60005473ffffffffffffffffffffffffffffffffffffffff9081169116146105e357604080517f08c379a000000000000000000000000000000000000000000000000000000000815260206004820181905260248201527f4f776e61626c653a2063616c6c6572206973206e6f7420746865206f776e6572604482015290519081900360640190fd5b600180547fffffffffffffffffffffffff00000000000000000000000000000000000000001673ffffffffffffffffffffffffffffffffffffffff8316908117909155604080517fa45611b60000000000000000000000000000000000000000000000000000000081529051633581777391839163a45611b691600480820192600092909190829003018186803b15801561067d57600080fd5b505afa158015610691573d6000803e3d6000fd5b505050506040513d6000823e601f3d9081017fffffffffffffffffffffffffffffffffffffffffffffffffffffffffffffffe01682016040526106d79190810190610cdd565b6040518263ffffffff1660e01b81526004016106f39190610dfa565b60206040518083038186803b15801561070b57600080fd5b505afa15801561071f573d6000803e3d6000fd5b505050506040513d601f19601f820116820180604052508101906107439190610ca1565b600260006101000a81548173ffffffffffffffffffffffffffffffffffffffff021916908373ffffffffffffffffffffffffffffffffffffffff1602179055508073ffffffffffffffffffffffffffffffffffffffff1663358177738273ffffffffffffffffffffffffffffffffffffffff166327c300af6040518163ffffffff1660e01b815260040160006040518083038186803b1580156107e557600080fd5b505afa1580156107f9573d6000803e3d6000fd5b505050506040513d6000823e601f3d9081017fffffffffffffffffffffffffffffffffffffffffffffffffffffffffffffffe016820160405261083f9190810190610cdd565b6040518263ffffffff1660e01b815260040161085b9190610dfa565b60206040518083038186803b15801561087357600080fd5b505afa158015610887573d6000803e3d6000fd5b505050506040513d601f19601f820116820180604052508101906108ab9190610ca1565b600360006101000a81548173ffffffffffffffffffffffffffffffffffffffff021916908373ffffffffffffffffffffffffffffffffffffffff1602179055508073ffffffffffffffffffffffffffffffffffffffff1663358177738273ffffffffffffffffffffffffffffffffffffffff16633d2886a06040518163ffffffff1660e01b815260040160006040518083038186803b15801561094d57600080fd5b505afa158015610961573d6000803e3d6000fd5b505050506040513d6000823e601f3d9081017fffffffffffffffffffffffffffffffffffffffffffffffffffffffffffffffe01682016040526109a79190810190610cdd565b6040518263ffffffff1660e01b81526004016109c39190610dfa565b60206040518083038186803b1580156109db57600080fd5b505afa1580156109ef573d6000803e3d6000fd5b505050506040513d601f19601f82011682018060405250810190610a139190610ca1565b600480547fffffffffffffffffffffffff00000000000000000000000000000000000000001673ffffffffffffffffffffffffffffffffffffffff9290921691909117905550565b60035473ffffffffffffffffffffffffffffffffffffffff1681565b60015473ffffffffffffffffffffffffffffffffffffffff1681565b610a9b610c7a565b60005473ffffffffffffffffffffffffffffffffffffffff908116911614610b2457604080517f08c379a000000000000000000000000000000000000000000000000000000000815260206004820181905260248201527f4f776e61626c653a2063616c6c6572206973206e6f7420746865206f776e6572604482015290519081900360640190fd5b73ffffffffffffffffffffffffffffffffffffffff8116610b90576040517f08c379a0000000000000000000000000000000000000000000000000000000008152600401808060200182810382526026815260200180610f726026913960400191505060405180910390fd5b6000805460405173ffffffffffffffffffffffffffffffffffffffff808516939216917f8be0079c531659141344cd1fd0a4f28419497f9722a3daafe3b4186f6b6457e091a3600080547fffffffffffffffffffffffff00000000000000000000000000000000000000001673ffffffffffffffffffffffffffffffffffffffff92909216919091179055565b60045460009073ffffffffffffffffffffffffffffffffffffffff163314610c71576040517f08c379a00000000000000000000000000000000000000000000000000000000081526004016101bd90610e82565b50600092915050565b3390565b600060208284031215610c8f578081fd5b8135610c9a81610f4f565b9392505050565b600060208284031215610cb2578081fd5b8151610c9a81610f4f565b600060208284031215610cce578081fd5b81518015158114610c9a578182fd5b600060208284031215610cee578081fd5b815167ffffffffffffffff80821115610d05578283fd5b818401915084601f830112610d18578283fd5b815181811115610d2457fe5b60405160207fffffffffffffffffffffffffffffffffffffffffffffffffffffffffffffffe0601f8401168201018181108482111715610d6057fe5b604052818152838201602001871015610d77578485fd5b610d88826020830160208701610f1f565b9695505050505050565b60008060408385031215610da4578081fd5b50508035926020909101359150565b73ffffffffffffffffffffffffffffffffffffffff91909116815260200190565b73ffffffffffffffffffffffffffffffffffffffff929092168252602082015260400190565b6000602082528251806020840152610e19816040850160208701610f1f565b601f017fffffffffffffffffffffffffffffffffffffffffffffffffffffffffffffffe0169190910160400192915050565b6020808252601c908201527f4661696c656420746f20617070726f76652044414920746f6b656e7300000000604082015260600190565b60208082526034908201527f446566695969656c6447656e657261746f723a2063616c6c6572206973206e6f60408201527f742061207374616b696e6720636f6e7472616374000000000000000000000000606082015260800190565b6020808252601c908201527f4661696c656420746f20617070726f766520424d4920746f6b656e7300000000604082015260600190565b90815260200190565b60005b83811015610f3a578181015183820152602001610f22565b83811115610f49576000848401525b50505050565b73ffffffffffffffffffffffffffffffffffffffff811681146102b857600080fdfe4f776e61626c653a206e6577206f776e657220697320746865207a65726f2061646472657373a26469706673582212208b64c12c9432cc9c5423c4f80ec466faa2f0205c0fabeb7b455ae91d5268bbd864736f6c63430007040033",
  "immutableReferences": {},
  "source": "// SPDX-License-Identifier: MIT\npragma solidity ^0.7.4;\npragma experimental ABIEncoderV2;\n\nimport \"@openzeppelin/contracts/access/Ownable.sol\";\nimport \"@openzeppelin/contracts/token/ERC20/IERC20.sol\";\n\nimport \"./ContractsRegistry.sol\";\n\ncontract DefiYieldGenerator is Ownable {\n    uint256 constant private MAX_INT = 2**256 - 1;\n\n    ContractsRegistry public contractsRegistry;\n\n    IERC20 public daiToken;\n    IERC20 public bmiToken;\n    address public bmiDaiStakingAddress;\n\n    modifier onlyStaking() {\n        require (msg.sender == bmiDaiStakingAddress, \"DefiYieldGenerator: caller is not a staking contract\");\n        _;\n    }\n\n    function initRegistry(ContractsRegistry _contractsRegistry) external onlyOwner {\n        contractsRegistry = _contractsRegistry;\n        \n        daiToken = IERC20(_contractsRegistry.getContract(_contractsRegistry.getDAIName()));\n        bmiToken = IERC20(_contractsRegistry.getContract(_contractsRegistry.getBMIName()));\n        bmiDaiStakingAddress = _contractsRegistry.getContract(_contractsRegistry.getBmiDAIStakingName());\n    }\n\n    function approveAllDAITokensForStakingWithdrowal() external onlyStaking {\n        bool success = daiToken.approve(_msgSender(), MAX_INT);\n\n        require(success, \"Failed to approve DAI tokens\");\n    }\n\n    function approveAllBMITokensForStakingWithdrowal() external onlyStaking {\n        bool success = bmiToken.approve(_msgSender(), MAX_INT);\n\n        require(success, \"Failed to approve BMI tokens\");\n    }\n    \n// TODO\n    function getProfit(\n        uint256 stakingStartTime, \n        uint256 stakedDAIAmount\n    ) external onlyStaking returns (uint256) {        \n        return 0;\n    }\n}",
  "sourcePath": "/home/artem/Projects/Distributed_Lab/Applicature/bridgemutual-core/contracts/DefiYieldGenerator.sol",
  "compiler": {
    "name": "solc",
    "version": "0.7.4+commit.3f05b770.Emscripten.clang"
  },
  "schemaVersion": "3.3.3",
  "updatedAt": "2021-01-27T14:17:23.959Z",
  "devdoc": {
    "kind": "dev",
    "methods": {
      "owner()": {
        "details": "Returns the address of the current owner."
      },
      "renounceOwnership()": {
        "details": "Leaves the contract without owner. It will not be possible to call `onlyOwner` functions anymore. Can only be called by the current owner. NOTE: Renouncing ownership will leave the contract without an owner, thereby removing any functionality that is only available to the owner."
      },
      "transferOwnership(address)": {
        "details": "Transfers ownership of the contract to a new account (`newOwner`). Can only be called by the current owner."
      }
    },
    "version": 1
  },
  "userdoc": {
    "kind": "user",
    "methods": {},
    "version": 1
  }
}