{
  "contractName": "ERC1155Mock",
  "abi": [
    {
      "inputs": [],
      "stateMutability": "nonpayable",
      "type": "constructor"
    },
    {
      "anonymous": false,
      "inputs": [
        {
          "indexed": true,
          "internalType": "address",
          "name": "owner",
          "type": "address"
        },
        {
          "indexed": true,
          "internalType": "address",
          "name": "spender",
          "type": "address"
        },
        {
          "indexed": false,
          "internalType": "uint256",
          "name": "value",
          "type": "uint256"
        }
      ],
      "name": "Approval",
      "type": "event"
    },
    {
      "anonymous": false,
      "inputs": [
        {
          "indexed": true,
          "internalType": "address",
          "name": "account",
          "type": "address"
        },
        {
          "indexed": true,
          "internalType": "address",
          "name": "operator",
          "type": "address"
        },
        {
          "indexed": false,
          "internalType": "bool",
          "name": "approved",
          "type": "bool"
        }
      ],
      "name": "ApprovalForAll",
      "type": "event"
    },
    {
      "anonymous": false,
      "inputs": [
        {
          "indexed": true,
          "internalType": "address",
          "name": "from",
          "type": "address"
        },
        {
          "indexed": true,
          "internalType": "address",
          "name": "to",
          "type": "address"
        },
        {
          "indexed": false,
          "internalType": "uint256",
          "name": "value",
          "type": "uint256"
        }
      ],
      "name": "Transfer",
      "type": "event"
    },
    {
      "anonymous": false,
      "inputs": [
        {
          "indexed": true,
          "internalType": "address",
          "name": "operator",
          "type": "address"
        },
        {
          "indexed": true,
          "internalType": "address",
          "name": "from",
          "type": "address"
        },
        {
          "indexed": true,
          "internalType": "address",
          "name": "to",
          "type": "address"
        },
        {
          "indexed": false,
          "internalType": "uint256[]",
          "name": "ids",
          "type": "uint256[]"
        },
        {
          "indexed": false,
          "internalType": "uint256[]",
          "name": "values",
          "type": "uint256[]"
        }
      ],
      "name": "TransferBatch",
      "type": "event"
    },
    {
      "anonymous": false,
      "inputs": [
        {
          "indexed": true,
          "internalType": "address",
          "name": "operator",
          "type": "address"
        },
        {
          "indexed": true,
          "internalType": "address",
          "name": "from",
          "type": "address"
        },
        {
          "indexed": true,
          "internalType": "address",
          "name": "to",
          "type": "address"
        },
        {
          "indexed": false,
          "internalType": "uint256",
          "name": "id",
          "type": "uint256"
        },
        {
          "indexed": false,
          "internalType": "uint256",
          "name": "value",
          "type": "uint256"
        }
      ],
      "name": "TransferSingle",
      "type": "event"
    },
    {
      "anonymous": false,
      "inputs": [
        {
          "indexed": false,
          "internalType": "string",
          "name": "value",
          "type": "string"
        },
        {
          "indexed": true,
          "internalType": "uint256",
          "name": "id",
          "type": "uint256"
        }
      ],
      "name": "URI",
      "type": "event"
    },
    {
      "inputs": [
        {
          "internalType": "address",
          "name": "owner",
          "type": "address"
        },
        {
          "internalType": "address",
          "name": "spender",
          "type": "address"
        }
      ],
      "name": "allowance",
      "outputs": [
        {
          "internalType": "uint256",
          "name": "",
          "type": "uint256"
        }
      ],
      "stateMutability": "view",
      "type": "function"
    },
    {
      "inputs": [
        {
          "internalType": "address",
          "name": "spender",
          "type": "address"
        },
        {
          "internalType": "uint256",
          "name": "amount",
          "type": "uint256"
        }
      ],
      "name": "approve",
      "outputs": [
        {
          "internalType": "bool",
          "name": "",
          "type": "bool"
        }
      ],
      "stateMutability": "nonpayable",
      "type": "function"
    },
    {
      "inputs": [
        {
          "internalType": "address",
          "name": "account",
          "type": "address"
        },
        {
          "internalType": "uint256",
          "name": "id",
          "type": "uint256"
        }
      ],
      "name": "balanceOf",
      "outputs": [
        {
          "internalType": "uint256",
          "name": "",
          "type": "uint256"
        }
      ],
      "stateMutability": "view",
      "type": "function"
    },
    {
      "inputs": [
        {
          "internalType": "address",
          "name": "account",
          "type": "address"
        }
      ],
      "name": "balanceOf",
      "outputs": [
        {
          "internalType": "uint256",
          "name": "",
          "type": "uint256"
        }
      ],
      "stateMutability": "view",
      "type": "function"
    },
    {
      "inputs": [
        {
          "internalType": "address[]",
          "name": "accounts",
          "type": "address[]"
        },
        {
          "internalType": "uint256[]",
          "name": "ids",
          "type": "uint256[]"
        }
      ],
      "name": "balanceOfBatch",
      "outputs": [
        {
          "internalType": "uint256[]",
          "name": "",
          "type": "uint256[]"
        }
      ],
      "stateMutability": "view",
      "type": "function"
    },
    {
      "inputs": [
        {
          "internalType": "address",
          "name": "owner",
          "type": "address"
        }
      ],
      "name": "balanceOfNFT",
      "outputs": [
        {
          "internalType": "uint256",
          "name": "",
          "type": "uint256"
        }
      ],
      "stateMutability": "view",
      "type": "function"
    },
    {
      "inputs": [],
      "name": "decimals",
      "outputs": [
        {
          "internalType": "uint8",
          "name": "",
          "type": "uint8"
        }
      ],
      "stateMutability": "view",
      "type": "function"
    },
    {
      "inputs": [
        {
          "internalType": "address",
          "name": "spender",
          "type": "address"
        },
        {
          "internalType": "uint256",
          "name": "subtractedValue",
          "type": "uint256"
        }
      ],
      "name": "decreaseAllowance",
      "outputs": [
        {
          "internalType": "bool",
          "name": "",
          "type": "bool"
        }
      ],
      "stateMutability": "nonpayable",
      "type": "function"
    },
    {
      "inputs": [
        {
          "internalType": "address",
          "name": "spender",
          "type": "address"
        },
        {
          "internalType": "uint256",
          "name": "addedValue",
          "type": "uint256"
        }
      ],
      "name": "increaseAllowance",
      "outputs": [
        {
          "internalType": "bool",
          "name": "",
          "type": "bool"
        }
      ],
      "stateMutability": "nonpayable",
      "type": "function"
    },
    {
      "inputs": [
        {
          "internalType": "address",
          "name": "account",
          "type": "address"
        },
        {
          "internalType": "address",
          "name": "operator",
          "type": "address"
        }
      ],
      "name": "isApprovedForAll",
      "outputs": [
        {
          "internalType": "bool",
          "name": "",
          "type": "bool"
        }
      ],
      "stateMutability": "view",
      "type": "function"
    },
    {
      "inputs": [],
      "name": "name",
      "outputs": [
        {
          "internalType": "string",
          "name": "",
          "type": "string"
        }
      ],
      "stateMutability": "view",
      "type": "function"
    },
    {
      "inputs": [
        {
          "internalType": "uint256",
          "name": "tokenId",
          "type": "uint256"
        }
      ],
      "name": "ownerOfNFT",
      "outputs": [
        {
          "internalType": "address",
          "name": "",
          "type": "address"
        }
      ],
      "stateMutability": "view",
      "type": "function"
    },
    {
      "inputs": [
        {
          "internalType": "address",
          "name": "from",
          "type": "address"
        },
        {
          "internalType": "address",
          "name": "to",
          "type": "address"
        },
        {
          "internalType": "uint256[]",
          "name": "ids",
          "type": "uint256[]"
        },
        {
          "internalType": "uint256[]",
          "name": "amounts",
          "type": "uint256[]"
        },
        {
          "internalType": "bytes",
          "name": "data",
          "type": "bytes"
        }
      ],
      "name": "safeBatchTransferFrom",
      "outputs": [],
      "stateMutability": "nonpayable",
      "type": "function"
    },
    {
      "inputs": [
        {
          "internalType": "address",
          "name": "from",
          "type": "address"
        },
        {
          "internalType": "address",
          "name": "to",
          "type": "address"
        },
        {
          "internalType": "uint256",
          "name": "id",
          "type": "uint256"
        },
        {
          "internalType": "uint256",
          "name": "amount",
          "type": "uint256"
        },
        {
          "internalType": "bytes",
          "name": "data",
          "type": "bytes"
        }
      ],
      "name": "safeTransferFrom",
      "outputs": [],
      "stateMutability": "nonpayable",
      "type": "function"
    },
    {
      "inputs": [
        {
          "internalType": "address",
          "name": "operator",
          "type": "address"
        },
        {
          "internalType": "bool",
          "name": "approved",
          "type": "bool"
        }
      ],
      "name": "setApprovalForAll",
      "outputs": [],
      "stateMutability": "nonpayable",
      "type": "function"
    },
    {
      "inputs": [
        {
          "internalType": "bytes4",
          "name": "interfaceId",
          "type": "bytes4"
        }
      ],
      "name": "supportsInterface",
      "outputs": [
        {
          "internalType": "bool",
          "name": "",
          "type": "bool"
        }
      ],
      "stateMutability": "view",
      "type": "function"
    },
    {
      "inputs": [],
      "name": "symbol",
      "outputs": [
        {
          "internalType": "string",
          "name": "",
          "type": "string"
        }
      ],
      "stateMutability": "view",
      "type": "function"
    },
    {
      "inputs": [
        {
          "internalType": "address",
          "name": "owner",
          "type": "address"
        },
        {
          "internalType": "uint256",
          "name": "index",
          "type": "uint256"
        }
      ],
      "name": "tokenOfOwnerByIndexNFT",
      "outputs": [
        {
          "internalType": "uint256",
          "name": "",
          "type": "uint256"
        }
      ],
      "stateMutability": "view",
      "type": "function"
    },
    {
      "inputs": [],
      "name": "totalSupply",
      "outputs": [
        {
          "internalType": "uint256",
          "name": "",
          "type": "uint256"
        }
      ],
      "stateMutability": "view",
      "type": "function"
    },
    {
      "inputs": [],
      "name": "totalSupplyNFT",
      "outputs": [
        {
          "internalType": "uint256",
          "name": "",
          "type": "uint256"
        }
      ],
      "stateMutability": "view",
      "type": "function"
    },
    {
      "inputs": [
        {
          "internalType": "address",
          "name": "recipient",
          "type": "address"
        },
        {
          "internalType": "uint256",
          "name": "amount",
          "type": "uint256"
        }
      ],
      "name": "transfer",
      "outputs": [
        {
          "internalType": "bool",
          "name": "",
          "type": "bool"
        }
      ],
      "stateMutability": "nonpayable",
      "type": "function"
    },
    {
      "inputs": [
        {
          "internalType": "address",
          "name": "sender",
          "type": "address"
        },
        {
          "internalType": "address",
          "name": "recipient",
          "type": "address"
        },
        {
          "internalType": "uint256",
          "name": "amount",
          "type": "uint256"
        }
      ],
      "name": "transferFrom",
      "outputs": [
        {
          "internalType": "bool",
          "name": "",
          "type": "bool"
        }
      ],
      "stateMutability": "nonpayable",
      "type": "function"
    },
    {
      "inputs": [
        {
          "internalType": "uint256",
          "name": "id",
          "type": "uint256"
        },
        {
          "internalType": "uint256",
          "name": "amount",
          "type": "uint256"
        }
      ],
      "name": "mint",
      "outputs": [],
      "stateMutability": "nonpayable",
      "type": "function"
    },
    {
      "inputs": [
        {
          "internalType": "uint256[]",
          "name": "ids",
          "type": "uint256[]"
        },
        {
          "internalType": "uint256[]",
          "name": "amounts",
          "type": "uint256[]"
        }
      ],
      "name": "mintBatch",
      "outputs": [],
      "stateMutability": "nonpayable",
      "type": "function"
    },
    {
      "inputs": [
        {
          "internalType": "uint256",
          "name": "id",
          "type": "uint256"
        },
        {
          "internalType": "uint256",
          "name": "amount",
          "type": "uint256"
        }
      ],
      "name": "burn",
      "outputs": [],
      "stateMutability": "nonpayable",
      "type": "function"
    },
    {
      "inputs": [
        {
          "internalType": "uint256[]",
          "name": "ids",
          "type": "uint256[]"
        },
        {
          "internalType": "uint256[]",
          "name": "amounts",
          "type": "uint256[]"
        }
      ],
      "name": "burnBatch",
      "outputs": [],
      "stateMutability": "nonpayable",
      "type": "function"
    }
  ],
  "bytecode": "0x60806040523480156200001157600080fd5b50604080518082018252600b81526a455243313135354d6f636b60a81b602080830191909152825180840190935260058352644d3131353560d81b9083015290620000636301ffc9a760e01b62000089565b6200006f82826200010e565b62000081636cdb3d1360e11b62000089565b5050620001f7565b6001600160e01b03198082161415620000e9576040805162461bcd60e51b815260206004820152601c60248201527f4552433136353a20696e76616c696420696e7465726661636520696400000000604482015290519081900360640190fd5b6001600160e01b0319166000908152602081905260409020805460ff19166001179055565b8151620001239060019060208501906200014b565b508051620001399060029060208401906200014b565b50506003805460ff1916601217905550565b828054600181600116156101000203166002900490600052602060002090601f016020900481019282620001835760008555620001ce565b82601f106200019e57805160ff1916838001178555620001ce565b82800160010185558215620001ce579182015b82811115620001ce578251825591602001919060010190620001b1565b50620001dc929150620001e0565b5090565b5b80821115620001dc5760008155600101620001e1565b61308f80620002076000396000f3fe608060405234801561001057600080fd5b50600436106101ad5760003560e01c806370a08231116100ee578063b0ea6a8411610097578063dd62ed3e11610071578063dd62ed3e14610376578063e985e9c514610389578063f242432a1461039c578063f5b100ea146103af576101ad565b8063b0ea6a8414610348578063b390c0ab14610350578063d351cfdc14610363576101ad565b8063a22cb465116100c8578063a22cb4651461030f578063a457c2d714610322578063a9059cbb14610335576101ad565b806370a08231146102e157806383ca4b6f146102f457806395d89b4114610307576101ad565b80631dcb46f61161015b5780632eb2c2d6116101355780632eb2c2d614610286578063313ce5671461029957806339509351146102ae5780634e1273f4146102c1576101ad565b80631dcb46f61461024057806323b872dd146102535780632d8a746e14610266576101ad565b8063095ea7b31161018c578063095ea7b31461021057806318160ddd146102235780631b2ef1ca1461022b576101ad565b8062fdd58e146101b257806301ffc9a7146101db57806306fdde03146101fb575b600080fd5b6101c56101c0366004612444565b6103c2565b6040516101d29190612dcd565b60405180910390f35b6101ee6101e9366004612578565b61041e565b6040516101d29190612782565b610203610459565b6040516101d2919061278d565b6101ee61021e366004612444565b610504565b6101c5610521565b61023e6102393660046125c8565b610551565b005b6101c561024e366004612444565b610577565b6101ee61026136600461236c565b6105a0565b6102796102743660046125b0565b610627565b6040516101d2919061268c565b61023e6102943660046122c6565b61064f565b6102a16108e4565b6040516101d29190612de4565b6101ee6102bc366004612444565b6108ed565b6102d46102cf36600461246d565b61093b565b6040516101d29190612741565b6101c56102ef36600461227a565b610a7b565b61023e61030236600461252e565b610ab5565b610203610ac7565b61023e61031d36600461240a565b610b3d565b6101ee610330366004612444565b610c29565b6101ee610343366004612444565b610c91565b6101c5610ca5565b61023e61035e3660046125c8565b610cb6565b61023e61037136600461252e565b610cc8565b6101c5610384366004612294565b610cea565b6101ee610397366004612294565b610d15565b61023e6103aa3660046123a7565b610d43565b6101c56103bd36600461227a565b610f4d565b60006001600160a01b0383166103f35760405162461bcd60e51b81526004016103ea906128b7565b60405180910390fd5b5060008181526005602090815260408083206001600160a01b03861684529091529020545b92915050565b7fffffffff00000000000000000000000000000000000000000000000000000000811660009081526020819052604090205460ff165b919050565b60018054604080516020600284861615610100027fffffffffffffffffffffffffffffffffffffffffffffffffffffffffffffffff0190941693909304601f810184900484028201840190925281815292918301828280156104fc5780601f106104d1576101008083540402835291602001916104fc565b820191906000526020600020905b8154815290600101906020018083116104df57829003601f168201915b505050505081565b6000610518610511610f96565b8484610f9a565b50600192915050565b600160005260046020527fabd6e7cb50984ff9c2f3e18a2660c3353dadf4e3291deeb275dae2cd1e44fe05545b90565b61057361055c610f96565b83836040518060200160405280600081525061104e565b5050565b6001600160a01b038216600090815260086020526040812061059990836111f1565b9392505050565b60006105ad8484846111fd565b61061d846105b9610f96565b6106188560405180606001604052806028815260200161300d602891396001600160a01b038a166000908152600760205260408120906105f7610f96565b6001600160a01b03168152602081019190915260400160002054919061136f565b610f9a565b5060019392505050565b6000610418826040518060600160405280602a8152602001612fb9602a913960099190611406565b81518351146106705760405162461bcd60e51b81526004016103ea90612d13565b6001600160a01b0384166106965760405162461bcd60e51b81526004016103ea90612a2b565b61069e610f96565b6001600160a01b0316856001600160a01b031614806106c457506106c485610397610f96565b6106e05760405162461bcd60e51b81526004016103ea90612a88565b60006106ea610f96565b90506106fa8187878787876108dc565b60005b845181101561087657600085828151811061071457fe5b60200260200101519050600085838151811061072c57fe5b60200260200101519050600182141561074a5761074a89898361141b565b61075382611420565b156107ac576001600160a01b038916600090815260086020526040902061077a908361142d565b506001600160a01b038816600090815260086020526040902061079d9083611439565b506107aa6009838a611445565b505b61080f816040518060600160405280602a8152602001612fe3602a91396005600086815260200190815260200160002060008d6001600160a01b03166001600160a01b031681526020019081526020016000205461136f9092919063ffffffff16565b60008381526005602090815260408083206001600160a01b038e811685529252808320939093558a1681522054610846908261145b565b60009283526005602090815260408085206001600160a01b038c16865290915290922091909155506001016106fd565b50846001600160a01b0316866001600160a01b0316826001600160a01b03167f4a39dc06d4c0dbc64b70af90fd698a233a518aa5d07e595d983b8c0526c8f7fb87876040516108c6929190612754565b60405180910390a46108dc8187878787876114b5565b505050505050565b60035460ff1681565b60006105186108fa610f96565b84610618856007600061090b610f96565b6001600160a01b03908116825260208083019390935260409182016000908120918c16815292529020549061145b565b6060815183511461095e5760405162461bcd60e51b81526004016103ea90612cb6565b6060835167ffffffffffffffff8111801561097857600080fd5b506040519080825280602002602001820160405280156109a2578160200160208202803683370190505b50905060005b8451811015610a735760006001600160a01b03168582815181106109c857fe5b60200260200101516001600160a01b031614156109f75760405162461bcd60e51b81526004016103ea90612914565b60056000858381518110610a0757fe5b602002602001015181526020019081526020016000206000868381518110610a2b57fe5b60200260200101516001600160a01b03166001600160a01b0316815260200190815260200160002054828281518110610a6057fe5b60209081029190910101526001016109a8565b509392505050565b6001600160a01b031660009081527f1471eb6eb2c5e789fc3de43f8ce62938c7d1836ec861730447e2ada8fd81017b602052604090205490565b610573610ac0610f96565b8383611634565b600280546040805160206001841615610100027fffffffffffffffffffffffffffffffffffffffffffffffffffffffffffffffff01909316849004601f810184900484028201840190925281815292918301828280156104fc5780601f106104d1576101008083540402835291602001916104fc565b816001600160a01b0316610b4f610f96565b6001600160a01b03161415610b765760405162461bcd60e51b81526004016103ea90612c59565b8060066000610b83610f96565b6001600160a01b0390811682526020808301939093526040918201600090812091871680825291909352912080547fffffffffffffffffffffffffffffffffffffffffffffffffffffffffffffff001692151592909217909155610be5610f96565b6001600160a01b03167f17307eab39ab6107e8899845ad3d59bd9653f200f220920489ca2b5937696c3183604051610c1d9190612782565b60405180910390a35050565b6000610518610c36610f96565b84610618856040518060600160405280602581526020016130356025913960076000610c60610f96565b6001600160a01b03908116825260208083019390935260409182016000908120918d1681529252902054919061136f565b6000610518610c9e610f96565b84846111fd565b6000610cb16009611815565b905090565b610573610cc1610f96565b8383611820565b610573610cd3610f96565b83836040518060200160405280600081525061198a565b6001600160a01b03918216600090815260076020908152604080832093909416825291909152205490565b6001600160a01b03918216600090815260066020908152604080832093909416825291909152205460ff1690565b6001600160a01b038416610d695760405162461bcd60e51b81526004016103ea90612a2b565b610d71610f96565b6001600160a01b0316856001600160a01b03161480610d975750610d9785610397610f96565b610db35760405162461bcd60e51b81526004016103ea906129ce565b6000610dbd610f96565b9050610ddd818787610dce88611b9d565b610dd788611b9d565b876108dc565b6001841415610df157610df186868561141b565b610dfa84611420565b15610e53576001600160a01b0386166000908152600860205260409020610e21908561142d565b506001600160a01b0385166000908152600860205260409020610e449085611439565b50610e5160098587611445565b505b610e9a836040518060600160405280602a8152602001612fe3602a913960008781526005602090815260408083206001600160a01b038d168452909152902054919061136f565b60008581526005602090815260408083206001600160a01b038b81168552925280832093909355871681522054610ed1908461145b565b60008581526005602090815260408083206001600160a01b03808b168086529190935292819020939093559151909188811691908416907fc3d58168c5ae7397731d063d5bbf3d657854427343f4c083240f7aacaa2d0f6290610f379089908990612dd6565b60405180910390a46108dc818787878787611be1565b60006001600160a01b038216610f755760405162461bcd60e51b81526004016103ea906128b7565b6001600160a01b038216600090815260086020526040902061041890611815565b3390565b6001600160a01b038316610fc05760405162461bcd60e51b81526004016103ea90612bfc565b6001600160a01b038216610fe65760405162461bcd60e51b81526004016103ea90612971565b6001600160a01b0380841660008181526007602090815260408083209487168084529490915290819020849055517f8c5be1e5ebec7d5bd14f71427d1e84f3dd0314c0f7b2291e5b200ac8c7c3b92590611041908590612dcd565b60405180910390a3505050565b6001600160a01b0384166110745760405162461bcd60e51b81526004016103ea90612d70565b811580611087575061108583611420565b155b6110a35760405162461bcd60e51b81526004016103ea90612b42565b60006110ad610f96565b90506110bf81600087610dce88611b9d565b8260011480156110d557506110d384611d1a565b155b80156110e2575060018414155b15611118576001600160a01b03851660009081526008602052604090206111099085611439565b5061111660098587611445565b505b60008481526005602090815260408083206001600160a01b0389168452909152902054611145908461145b565b60008581526005602090815260408083206001600160a01b038a16845282528083209390935586825260049052205461117e908461145b565b6000858152600460205260408082209290925590516001600160a01b038088169291908416907fc3d58168c5ae7397731d063d5bbf3d657854427343f4c083240f7aacaa2d0f62906111d39089908990612dd6565b60405180910390a46111ea81600087878787611be1565b5050505050565b60006105998383611d2e565b6001600160a01b0383166112235760405162461bcd60e51b81526004016103ea90612b9f565b6001600160a01b0382166112495760405162461bcd60e51b81526004016103ea906127fd565b61125483838361141b565b6112b081604051806060016040528060268152602001612f93602691396001600160a01b03861660009081527f1471eb6eb2c5e789fc3de43f8ce62938c7d1836ec861730447e2ada8fd81017b6020526040902054919061136f565b6001600160a01b0384811660009081527f1471eb6eb2c5e789fc3de43f8ce62938c7d1836ec861730447e2ada8fd81017b602052604080822093909355908416815220546112fe908261145b565b6001600160a01b0380841660008181527f1471eb6eb2c5e789fc3de43f8ce62938c7d1836ec861730447e2ada8fd81017b602052604090819020939093559151908516907fddf252ad1be2c89b69c2b068fc378daa952ba7f163c4a11628f55a4df523b3ef90611041908590612dcd565b600081848411156113fe5760405162461bcd60e51b81526004018080602001828103825283818151815260200191508051906020019080838360005b838110156113c35781810151838201526020016113ab565b50505050905090810190601f1680156113f05780820380516001836020036101000a031916815260200191505b509250505060405180910390fd5b505050900390565b6000611413848484611d92565b949350505050565b505050565b6000610418600983611e1f565b60006105998383611e2b565b60006105998383611f0f565b600061141384846001600160a01b038516611f59565b600082820183811015610599576040805162461bcd60e51b815260206004820152601b60248201527f536166654d6174683a206164646974696f6e206f766572666c6f770000000000604482015290519081900360640190fd5b6114c7846001600160a01b0316611ff0565b156108dc576040517fbc197c810000000000000000000000000000000000000000000000000000000081526001600160a01b0385169063bc197c819061151990899089908890889088906004016126a0565b602060405180830381600087803b15801561153357600080fd5b505af1925050508015611581575060408051601f3d9081017fffffffffffffffffffffffffffffffffffffffffffffffffffffffffffffffe016820190925261157e91810190612594565b60015b6115ca5761158d612e3a565b8061159857506115b2565b8060405162461bcd60e51b81526004016103ea919061278d565b60405162461bcd60e51b81526004016103ea906127a0565b7fffffffff0000000000000000000000000000000000000000000000000000000081167fbc197c81000000000000000000000000000000000000000000000000000000001461162b5760405162461bcd60e51b81526004016103ea9061285a565b50505050505050565b6001600160a01b03831661165a5760405162461bcd60e51b81526004016103ea90612ae5565b805182511461167b5760405162461bcd60e51b81526004016103ea90612d13565b6000611685610f96565b90506116a5818560008686604051806020016040528060008152506108dc565b60005b83518110156117b65760008482815181106116bf57fe5b6020026020010151905060008483815181106116d757fe5b60200260200101519050600081111561171a576001600160a01b038716600090815260086020526040902061170c908361142d565b50611718600983611ff6565b505b61176181604051806060016040528060248152602001612f6f6024913960008581526005602090815260408083206001600160a01b038e168452909152902054919061136f565b60008381526005602090815260408083206001600160a01b038c16845282528083209390935584825260049052205461179a9082612002565b60009283526004602052604090922091909155506001016116a8565b5060006001600160a01b0316846001600160a01b0316826001600160a01b03167f4a39dc06d4c0dbc64b70af90fd698a233a518aa5d07e595d983b8c0526c8f7fb8686604051611807929190612754565b60405180910390a450505050565b600061041882612044565b6001600160a01b0383166118465760405162461bcd60e51b81526004016103ea90612ae5565b6000611850610f96565b90506118808185600061186287611b9d565b61186b87611b9d565b604051806020016040528060008152506108dc565b81156118b6576001600160a01b03841660009081526008602052604090206118a8908461142d565b506118b4600984611ff6565b505b6118fd82604051806060016040528060248152602001612f6f6024913960008681526005602090815260408083206001600160a01b038b168452909152902054919061136f565b60008481526005602090815260408083206001600160a01b03891684528252808320939093558582526004905220546119369083612002565b6000848152600460205260408082209290925590516001600160a01b0386811691908416907fc3d58168c5ae7397731d063d5bbf3d657854427343f4c083240f7aacaa2d0f62906118079088908890612dd6565b6001600160a01b0384166119b05760405162461bcd60e51b81526004016103ea90612d70565b81518351146119d15760405162461bcd60e51b81526004016103ea90612d13565b60006119db610f96565b90506119ec816000878787876108dc565b60005b8451811015611b35576000858281518110611a0657fe5b602002602001015190506000858381518110611a1e57fe5b602002602001015190508060001480611a3d5750611a3b82611420565b155b611a595760405162461bcd60e51b81526004016103ea90612b42565b806001148015611a6f5750611a6d82611d1a565b155b8015611a7c575060018214155b15611ab2576001600160a01b0388166000908152600860205260409020611aa39083611439565b50611ab06009838a611445565b505b60008281526005602090815260408083206001600160a01b038c168452909152902054611ae090829061145b565b60008381526005602090815260408083206001600160a01b038d168452825280832093909355848252600490522054611b19908261145b565b60009283526004602052604090922091909155506001016119ef565b50846001600160a01b031660006001600160a01b0316826001600160a01b03167f4a39dc06d4c0dbc64b70af90fd698a233a518aa5d07e595d983b8c0526c8f7fb8787604051611b86929190612754565b60405180910390a46111ea816000878787876114b5565b604080516001808252818301909252606091829190602080830190803683370190505090508281600081518110611bd057fe5b602090810291909101015292915050565b611bf3846001600160a01b0316611ff0565b156108dc576040517ff23a6e610000000000000000000000000000000000000000000000000000000081526001600160a01b0385169063f23a6e6190611c4590899089908890889088906004016126fe565b602060405180830381600087803b158015611c5f57600080fd5b505af1925050508015611cad575060408051601f3d9081017fffffffffffffffffffffffffffffffffffffffffffffffffffffffffffffffe0168201909252611caa91810190612594565b60015b611cb95761158d612e3a565b7fffffffff0000000000000000000000000000000000000000000000000000000081167ff23a6e61000000000000000000000000000000000000000000000000000000001461162b5760405162461bcd60e51b81526004016103ea9061285a565b600090815260046020526040902054151590565b81546000908210611d705760405162461bcd60e51b8152600401808060200182810382526022815260200180612f4d6022913960400191505060405180910390fd5b826000018281548110611d7f57fe5b9060005260206000200154905092915050565b60008281526001840160205260408120548281611df05760405162461bcd60e51b81526020600482018181528351602484015283519092839260449091019190850190808383600083156113c35781810151838201526020016113ab565b50846000016001820381548110611e0357fe5b9060005260206000209060020201600101549150509392505050565b60006105998383612048565b60008181526001830160205260408120548015611f055783547fffffffffffffffffffffffffffffffffffffffffffffffffffffffffffffffff8083019190810190600090879083908110611e7c57fe5b9060005260206000200154905080876000018481548110611e9957fe5b600091825260208083209091019290925582815260018981019092526040902090840190558654879080611ec957fe5b60019003818190600052602060002001600090559055866001016000878152602001908152602001600020600090556001945050505050610418565b6000915050610418565b6000611f1b8383612048565b611f5157508154600181810184556000848152602080822090930184905584548482528286019093526040902091909155610418565b506000610418565b600082815260018401602052604081205480611fbe575050604080518082018252838152602080820184815286546001818101895560008981528481209551600290930290950191825591519082015586548684528188019092529290912055610599565b82856000016001830381548110611fd157fe5b9060005260206000209060020201600101819055506000915050610599565b3b151590565b60006105998383612060565b600061059983836040518060400160405280601e81526020017f536166654d6174683a207375627472616374696f6e206f766572666c6f77000081525061136f565b5490565b60009081526001919091016020526040902054151590565b60008181526001830160205260408120548015611f055783547fffffffffffffffffffffffffffffffffffffffffffffffffffffffffffffffff80830191908101906000908790839081106120b157fe5b90600052602060002090600202019050808760000184815481106120d157fe5b60009182526020808320845460029093020191825560019384015491840191909155835482528983019052604090209084019055865487908061211057fe5b6000828152602080822060027fffffffffffffffffffffffffffffffffffffffffffffffffffffffffffffffff90940193840201828155600190810183905592909355888152898201909252604082209190915594506104189350505050565b80356001600160a01b038116811461045457600080fd5b600082601f830112612197578081fd5b81356121aa6121a582612e16565b612df2565b8181529150602080830190848101818402860182018710156121cb57600080fd5b60005b848110156121ea578135845292820192908201906001016121ce565b505050505092915050565b600082601f830112612205578081fd5b813567ffffffffffffffff81111561221957fe5b61224a60207fffffffffffffffffffffffffffffffffffffffffffffffffffffffffffffffe0601f84011601612df2565b915080825283602082850101111561226157600080fd5b8060208401602084013760009082016020015292915050565b60006020828403121561228b578081fd5b61059982612170565b600080604083850312156122a6578081fd5b6122af83612170565b91506122bd60208401612170565b90509250929050565b600080600080600060a086880312156122dd578081fd5b6122e686612170565b94506122f460208701612170565b9350604086013567ffffffffffffffff80821115612310578283fd5b61231c89838a01612187565b94506060880135915080821115612331578283fd5b61233d89838a01612187565b93506080880135915080821115612352578283fd5b5061235f888289016121f5565b9150509295509295909350565b600080600060608486031215612380578283fd5b61238984612170565b925061239760208501612170565b9150604084013590509250925092565b600080600080600060a086880312156123be578081fd5b6123c786612170565b94506123d560208701612170565b93506040860135925060608601359150608086013567ffffffffffffffff8111156123fe578182fd5b61235f888289016121f5565b6000806040838503121561241c578182fd5b61242583612170565b915060208301358015158114612439578182fd5b809150509250929050565b60008060408385031215612456578182fd5b61245f83612170565b946020939093013593505050565b6000806040838503121561247f578182fd5b823567ffffffffffffffff80821115612496578384fd5b818501915085601f8301126124a9578384fd5b81356124b76121a582612e16565b80828252602080830192508086018a8283870289010111156124d7578889fd5b8896505b84871015612500576124ec81612170565b8452600196909601959281019281016124db565b509096508701359350505080821115612517578283fd5b5061252485828601612187565b9150509250929050565b60008060408385031215612540578182fd5b823567ffffffffffffffff80821115612557578384fd5b61256386838701612187565b93506020850135915080821115612517578283fd5b600060208284031215612589578081fd5b813561059981612f1b565b6000602082840312156125a5578081fd5b815161059981612f1b565b6000602082840312156125c1578081fd5b5035919050565b600080604083850312156125da578182fd5b50508035926020909101359150565b6000815180845260208085019450808401835b83811015612618578151875295820195908201906001016125fc565b509495945050505050565b60008151808452815b818110156126485760208185018101518683018201520161262c565b818111156126595782602083870101525b50601f017fffffffffffffffffffffffffffffffffffffffffffffffffffffffffffffffe0169290920160200192915050565b6001600160a01b0391909116815260200190565b60006001600160a01b03808816835280871660208401525060a060408301526126cc60a08301866125e9565b82810360608401526126de81866125e9565b905082810360808401526126f28185612623565b98975050505050505050565b60006001600160a01b03808816835280871660208401525084604083015283606083015260a0608083015261273660a0830184612623565b979650505050505050565b60006020825261059960208301846125e9565b60006040825261276760408301856125e9565b828103602084015261277981856125e9565b95945050505050565b901515815260200190565b6000602082526105996020830184612623565b60208082526034908201527f455243313135353a207472616e7366657220746f206e6f6e204552433131353560408201527f526563656976657220696d706c656d656e746572000000000000000000000000606082015260800190565b60208082526023908201527f45524332303a207472616e7366657220746f20746865207a65726f206164647260408201527f6573730000000000000000000000000000000000000000000000000000000000606082015260800190565b60208082526028908201527f455243313135353a204552433131353552656365697665722072656a6563746560408201527f6420746f6b656e73000000000000000000000000000000000000000000000000606082015260800190565b6020808252602b908201527f455243313135353a2062616c616e636520717565727920666f7220746865207a60408201527f65726f2061646472657373000000000000000000000000000000000000000000606082015260800190565b60208082526031908201527f455243313135353a2062617463682062616c616e636520717565727920666f7260408201527f20746865207a65726f2061646472657373000000000000000000000000000000606082015260800190565b60208082526022908201527f45524332303a20617070726f766520746f20746865207a65726f20616464726560408201527f7373000000000000000000000000000000000000000000000000000000000000606082015260800190565b60208082526029908201527f455243313135353a2063616c6c6572206973206e6f74206f776e6572206e6f7260408201527f20617070726f7665640000000000000000000000000000000000000000000000606082015260800190565b60208082526025908201527f455243313135353a207472616e7366657220746f20746865207a65726f20616460408201527f6472657373000000000000000000000000000000000000000000000000000000606082015260800190565b60208082526032908201527f455243313135353a207472616e736665722063616c6c6572206973206e6f742060408201527f6f776e6572206e6f7220617070726f7665640000000000000000000000000000606082015260800190565b60208082526023908201527f455243313135353a206275726e2066726f6d20746865207a65726f206164647260408201527f6573730000000000000000000000000000000000000000000000000000000000606082015260800190565b60208082526021908201527f455243313135353a204e465420746f6b656e20616c7265616479206d696e746560408201527f6400000000000000000000000000000000000000000000000000000000000000606082015260800190565b60208082526025908201527f45524332303a207472616e736665722066726f6d20746865207a65726f20616460408201527f6472657373000000000000000000000000000000000000000000000000000000606082015260800190565b60208082526024908201527f45524332303a20617070726f76652066726f6d20746865207a65726f2061646460408201527f7265737300000000000000000000000000000000000000000000000000000000606082015260800190565b60208082526029908201527f455243313135353a2073657474696e6720617070726f76616c2073746174757360408201527f20666f722073656c660000000000000000000000000000000000000000000000606082015260800190565b60208082526029908201527f455243313135353a206163636f756e747320616e6420696473206c656e67746860408201527f206d69736d617463680000000000000000000000000000000000000000000000606082015260800190565b60208082526028908201527f455243313135353a2069647320616e6420616d6f756e7473206c656e6774682060408201527f6d69736d61746368000000000000000000000000000000000000000000000000606082015260800190565b60208082526021908201527f455243313135353a206d696e7420746f20746865207a65726f2061646472657360408201527f7300000000000000000000000000000000000000000000000000000000000000606082015260800190565b90815260200190565b918252602082015260400190565b60ff91909116815260200190565b60405181810167ffffffffffffffff81118282101715612e0e57fe5b604052919050565b600067ffffffffffffffff821115612e2a57fe5b5060209081020190565b60e01c90565b600060443d1015612e4a5761054e565b600481823e6308c379a0612e5e8251612e34565b14612e685761054e565b6040517ffffffffffffffffffffffffffffffffffffffffffffffffffffffffffffffffc3d016004823e80513d67ffffffffffffffff8160248401118184111715612eb6575050505061054e565b82840192508251915080821115612ed0575050505061054e565b503d83016020828401011115612ee85750505061054e565b601f017fffffffffffffffffffffffffffffffffffffffffffffffffffffffffffffffe016810160200160405291505090565b7fffffffff0000000000000000000000000000000000000000000000000000000081168114612f4957600080fd5b5056fe456e756d657261626c655365743a20696e646578206f7574206f6620626f756e6473455243313135353a206275726e20616d6f756e7420657863656564732062616c616e636545524332303a207472616e7366657220616d6f756e7420657863656564732062616c616e6365455243313135353a206f776e657220717565727920666f72206e6f6e6578697374656e7420746f6b656e455243313135353a20696e73756666696369656e742062616c616e636520666f72207472616e7366657245524332303a207472616e7366657220616d6f756e74206578636565647320616c6c6f77616e636545524332303a2064656372656173656420616c6c6f77616e63652062656c6f77207a65726fa2646970667358221220649cfac07a1788b149bd9dc9fb4f14258f879a725b5c2ba5cfa276eda52700d664736f6c63430007040033",
  "immutableReferences": {},
  "source": "// SPDX-License-Identifier: MIT\npragma solidity ^0.7.4;\npragma experimental ABIEncoderV2;\n\nimport \"../tokens/ERC1155.sol\";\n\ncontract ERC1155Mock is ERC1155 {\n\n    constructor() ERC1155(\"ERC1155Mock\", \"M1155\") {}\n\n    function mint(uint256 id, uint256 amount) public {\n        _mint(_msgSender(), id, amount, \"\");\n    }\n\n    function mintBatch(uint256[] memory ids, uint256[] memory amounts) public {\n        _mintBatch(_msgSender(), ids, amounts, \"\");\n    }\n\n    function burn(uint256 id, uint256 amount) public {\n        _burn(_msgSender(), id, amount);\n    }\n\n    function burnBatch(uint256[] memory ids, uint256[] memory amounts) public {\n        _burnBatch(_msgSender(), ids, amounts);\n    }\n}",
  "sourcePath": "/home/artem/Projects/Distributed_Lab/Applicature/bridgemutual-core/contracts/mock/ERC1155Mock.sol",
  "compiler": {
    "name": "solc",
    "version": "0.7.4+commit.3f05b770.Emscripten.clang"
  },
  "schemaVersion": "3.3.3",
  "updatedAt": "2021-01-28T11:21:06.249Z",
  "devdoc": {
    "kind": "dev",
    "methods": {
      "balanceOf(address,uint256)": {
        "details": "Returns the amount of tokens of token type `id` owned by `account`. Requirements: - `account` cannot be the zero address."
      },
      "balanceOfBatch(address[],uint256[])": {
        "details": "xref:ROOT:erc1155.adoc#batch-operations[Batched] version of {balanceOf}. Requirements: - `accounts` and `ids` must have the same length."
      },
      "isApprovedForAll(address,address)": {
        "details": "Returns true if `operator` is approved to transfer ``account``'s tokens. See {setApprovalForAll}."
      },
      "safeBatchTransferFrom(address,address,uint256[],uint256[],bytes)": {
        "details": "xref:ROOT:erc1155.adoc#batch-operations[Batched] version of {safeTransferFrom}. Emits a {TransferBatch} event. Requirements: - `ids` and `amounts` must have the same length. - If `to` refers to a smart contract, it must implement {IERC1155Receiver-onERC1155BatchReceived} and return the acceptance magic value."
      },
      "safeTransferFrom(address,address,uint256,uint256,bytes)": {
        "details": "Transfers `amount` tokens of token type `id` from `from` to `to`. Emits a {TransferSingle} event. Requirements: - `to` cannot be the zero address. - If the caller is not `from`, it must be have been approved to spend ``from``'s tokens via {setApprovalForAll}. - `from` must have a balance of tokens of type `id` of at least `amount`. - If `to` refers to a smart contract, it must implement {IERC1155Receiver-onERC1155Received} and return the acceptance magic value."
      },
      "setApprovalForAll(address,bool)": {
        "details": "Grants or revokes permission to `operator` to transfer the caller's tokens, according to `approved`, Emits an {ApprovalForAll} event. Requirements: - `operator` cannot be the caller."
      },
      "supportsInterface(bytes4)": {
        "details": "See {IERC165-supportsInterface}. Time complexity O(1), guaranteed to always use less than 30 000 gas."
      },
      "transferFrom(address,address,uint256)": {
        "details": "Moves `amount` tokens from `sender` to `recipient` using the allowance mechanism. `amount` is then deducted from the caller's allowance. Returns a boolean value indicating whether the operation succeeded. Emits a {Transfer} event."
      }
    },
    "version": 1
  },
  "userdoc": {
    "kind": "user",
    "methods": {
      "allowance(address,address)": {
        "notice": "From ERC20"
      },
      "approve(address,uint256)": {
        "notice": "From ERC20"
      },
      "balanceOf(address)": {
        "notice": "From ERC20"
      },
      "decreaseAllowance(address,uint256)": {
        "notice": "From ERC20"
      },
      "increaseAllowance(address,uint256)": {
        "notice": "From ERC20"
      },
      "totalSupply()": {
        "notice": "From ERC20"
      },
      "transfer(address,uint256)": {
        "notice": "From ERC20"
      }
    },
    "version": 1
  }
}