{
  "contractName": "ERC1155",
  "abi": [
    {
      "inputs": [
        {
          "internalType": "string",
          "name": "name_",
          "type": "string"
        },
        {
          "internalType": "string",
          "name": "symbol_",
          "type": "string"
        }
      ],
      "stateMutability": "nonpayable",
      "type": "constructor"
    },
    {
      "anonymous": false,
      "inputs": [
        {
          "indexed": true,
          "internalType": "address",
          "name": "owner",
          "type": "address"
        },
        {
          "indexed": true,
          "internalType": "address",
          "name": "spender",
          "type": "address"
        },
        {
          "indexed": false,
          "internalType": "uint256",
          "name": "value",
          "type": "uint256"
        }
      ],
      "name": "Approval",
      "type": "event"
    },
    {
      "anonymous": false,
      "inputs": [
        {
          "indexed": true,
          "internalType": "address",
          "name": "account",
          "type": "address"
        },
        {
          "indexed": true,
          "internalType": "address",
          "name": "operator",
          "type": "address"
        },
        {
          "indexed": false,
          "internalType": "bool",
          "name": "approved",
          "type": "bool"
        }
      ],
      "name": "ApprovalForAll",
      "type": "event"
    },
    {
      "anonymous": false,
      "inputs": [
        {
          "indexed": true,
          "internalType": "address",
          "name": "from",
          "type": "address"
        },
        {
          "indexed": true,
          "internalType": "address",
          "name": "to",
          "type": "address"
        },
        {
          "indexed": false,
          "internalType": "uint256",
          "name": "value",
          "type": "uint256"
        }
      ],
      "name": "Transfer",
      "type": "event"
    },
    {
      "anonymous": false,
      "inputs": [
        {
          "indexed": true,
          "internalType": "address",
          "name": "operator",
          "type": "address"
        },
        {
          "indexed": true,
          "internalType": "address",
          "name": "from",
          "type": "address"
        },
        {
          "indexed": true,
          "internalType": "address",
          "name": "to",
          "type": "address"
        },
        {
          "indexed": false,
          "internalType": "uint256[]",
          "name": "ids",
          "type": "uint256[]"
        },
        {
          "indexed": false,
          "internalType": "uint256[]",
          "name": "values",
          "type": "uint256[]"
        }
      ],
      "name": "TransferBatch",
      "type": "event"
    },
    {
      "anonymous": false,
      "inputs": [
        {
          "indexed": true,
          "internalType": "address",
          "name": "operator",
          "type": "address"
        },
        {
          "indexed": true,
          "internalType": "address",
          "name": "from",
          "type": "address"
        },
        {
          "indexed": true,
          "internalType": "address",
          "name": "to",
          "type": "address"
        },
        {
          "indexed": false,
          "internalType": "uint256",
          "name": "id",
          "type": "uint256"
        },
        {
          "indexed": false,
          "internalType": "uint256",
          "name": "value",
          "type": "uint256"
        }
      ],
      "name": "TransferSingle",
      "type": "event"
    },
    {
      "anonymous": false,
      "inputs": [
        {
          "indexed": false,
          "internalType": "string",
          "name": "value",
          "type": "string"
        },
        {
          "indexed": true,
          "internalType": "uint256",
          "name": "id",
          "type": "uint256"
        }
      ],
      "name": "URI",
      "type": "event"
    },
    {
      "inputs": [],
      "name": "decimals",
      "outputs": [
        {
          "internalType": "uint8",
          "name": "",
          "type": "uint8"
        }
      ],
      "stateMutability": "view",
      "type": "function"
    },
    {
      "inputs": [],
      "name": "name",
      "outputs": [
        {
          "internalType": "string",
          "name": "",
          "type": "string"
        }
      ],
      "stateMutability": "view",
      "type": "function"
    },
    {
      "inputs": [
        {
          "internalType": "bytes4",
          "name": "interfaceId",
          "type": "bytes4"
        }
      ],
      "name": "supportsInterface",
      "outputs": [
        {
          "internalType": "bool",
          "name": "",
          "type": "bool"
        }
      ],
      "stateMutability": "view",
      "type": "function"
    },
    {
      "inputs": [],
      "name": "symbol",
      "outputs": [
        {
          "internalType": "string",
          "name": "",
          "type": "string"
        }
      ],
      "stateMutability": "view",
      "type": "function"
    },
    {
      "inputs": [
        {
          "internalType": "address",
          "name": "owner",
          "type": "address"
        }
      ],
      "name": "balanceOfNFT",
      "outputs": [
        {
          "internalType": "uint256",
          "name": "",
          "type": "uint256"
        }
      ],
      "stateMutability": "view",
      "type": "function"
    },
    {
      "inputs": [
        {
          "internalType": "uint256",
          "name": "tokenId",
          "type": "uint256"
        }
      ],
      "name": "ownerOfNFT",
      "outputs": [
        {
          "internalType": "address",
          "name": "",
          "type": "address"
        }
      ],
      "stateMutability": "view",
      "type": "function"
    },
    {
      "inputs": [
        {
          "internalType": "address",
          "name": "owner",
          "type": "address"
        },
        {
          "internalType": "uint256",
          "name": "index",
          "type": "uint256"
        }
      ],
      "name": "tokenOfOwnerByIndexNFT",
      "outputs": [
        {
          "internalType": "uint256",
          "name": "",
          "type": "uint256"
        }
      ],
      "stateMutability": "view",
      "type": "function"
    },
    {
      "inputs": [],
      "name": "totalSupplyNFT",
      "outputs": [
        {
          "internalType": "uint256",
          "name": "",
          "type": "uint256"
        }
      ],
      "stateMutability": "view",
      "type": "function"
    },
    {
      "inputs": [],
      "name": "totalSupply",
      "outputs": [
        {
          "internalType": "uint256",
          "name": "",
          "type": "uint256"
        }
      ],
      "stateMutability": "view",
      "type": "function"
    },
    {
      "inputs": [
        {
          "internalType": "address",
          "name": "account",
          "type": "address"
        }
      ],
      "name": "balanceOf",
      "outputs": [
        {
          "internalType": "uint256",
          "name": "",
          "type": "uint256"
        }
      ],
      "stateMutability": "view",
      "type": "function"
    },
    {
      "inputs": [
        {
          "internalType": "address",
          "name": "account",
          "type": "address"
        },
        {
          "internalType": "uint256",
          "name": "id",
          "type": "uint256"
        }
      ],
      "name": "balanceOf",
      "outputs": [
        {
          "internalType": "uint256",
          "name": "",
          "type": "uint256"
        }
      ],
      "stateMutability": "view",
      "type": "function"
    },
    {
      "inputs": [
        {
          "internalType": "address[]",
          "name": "accounts",
          "type": "address[]"
        },
        {
          "internalType": "uint256[]",
          "name": "ids",
          "type": "uint256[]"
        }
      ],
      "name": "balanceOfBatch",
      "outputs": [
        {
          "internalType": "uint256[]",
          "name": "",
          "type": "uint256[]"
        }
      ],
      "stateMutability": "view",
      "type": "function"
    },
    {
      "inputs": [
        {
          "internalType": "address",
          "name": "operator",
          "type": "address"
        },
        {
          "internalType": "bool",
          "name": "approved",
          "type": "bool"
        }
      ],
      "name": "setApprovalForAll",
      "outputs": [],
      "stateMutability": "nonpayable",
      "type": "function"
    },
    {
      "inputs": [
        {
          "internalType": "address",
          "name": "account",
          "type": "address"
        },
        {
          "internalType": "address",
          "name": "operator",
          "type": "address"
        }
      ],
      "name": "isApprovedForAll",
      "outputs": [
        {
          "internalType": "bool",
          "name": "",
          "type": "bool"
        }
      ],
      "stateMutability": "view",
      "type": "function"
    },
    {
      "inputs": [
        {
          "internalType": "address",
          "name": "spender",
          "type": "address"
        },
        {
          "internalType": "uint256",
          "name": "addedValue",
          "type": "uint256"
        }
      ],
      "name": "increaseAllowance",
      "outputs": [
        {
          "internalType": "bool",
          "name": "",
          "type": "bool"
        }
      ],
      "stateMutability": "nonpayable",
      "type": "function"
    },
    {
      "inputs": [
        {
          "internalType": "address",
          "name": "spender",
          "type": "address"
        },
        {
          "internalType": "uint256",
          "name": "subtractedValue",
          "type": "uint256"
        }
      ],
      "name": "decreaseAllowance",
      "outputs": [
        {
          "internalType": "bool",
          "name": "",
          "type": "bool"
        }
      ],
      "stateMutability": "nonpayable",
      "type": "function"
    },
    {
      "inputs": [
        {
          "internalType": "address",
          "name": "owner",
          "type": "address"
        },
        {
          "internalType": "address",
          "name": "spender",
          "type": "address"
        }
      ],
      "name": "allowance",
      "outputs": [
        {
          "internalType": "uint256",
          "name": "",
          "type": "uint256"
        }
      ],
      "stateMutability": "view",
      "type": "function"
    },
    {
      "inputs": [
        {
          "internalType": "address",
          "name": "spender",
          "type": "address"
        },
        {
          "internalType": "uint256",
          "name": "amount",
          "type": "uint256"
        }
      ],
      "name": "approve",
      "outputs": [
        {
          "internalType": "bool",
          "name": "",
          "type": "bool"
        }
      ],
      "stateMutability": "nonpayable",
      "type": "function"
    },
    {
      "inputs": [
        {
          "internalType": "address",
          "name": "recipient",
          "type": "address"
        },
        {
          "internalType": "uint256",
          "name": "amount",
          "type": "uint256"
        }
      ],
      "name": "transfer",
      "outputs": [
        {
          "internalType": "bool",
          "name": "",
          "type": "bool"
        }
      ],
      "stateMutability": "nonpayable",
      "type": "function"
    },
    {
      "inputs": [
        {
          "internalType": "address",
          "name": "sender",
          "type": "address"
        },
        {
          "internalType": "address",
          "name": "recipient",
          "type": "address"
        },
        {
          "internalType": "uint256",
          "name": "amount",
          "type": "uint256"
        }
      ],
      "name": "transferFrom",
      "outputs": [
        {
          "internalType": "bool",
          "name": "",
          "type": "bool"
        }
      ],
      "stateMutability": "nonpayable",
      "type": "function"
    },
    {
      "inputs": [
        {
          "internalType": "address",
          "name": "from",
          "type": "address"
        },
        {
          "internalType": "address",
          "name": "to",
          "type": "address"
        },
        {
          "internalType": "uint256",
          "name": "id",
          "type": "uint256"
        },
        {
          "internalType": "uint256",
          "name": "amount",
          "type": "uint256"
        },
        {
          "internalType": "bytes",
          "name": "data",
          "type": "bytes"
        }
      ],
      "name": "safeTransferFrom",
      "outputs": [],
      "stateMutability": "nonpayable",
      "type": "function"
    },
    {
      "inputs": [
        {
          "internalType": "address",
          "name": "from",
          "type": "address"
        },
        {
          "internalType": "address",
          "name": "to",
          "type": "address"
        },
        {
          "internalType": "uint256[]",
          "name": "ids",
          "type": "uint256[]"
        },
        {
          "internalType": "uint256[]",
          "name": "amounts",
          "type": "uint256[]"
        },
        {
          "internalType": "bytes",
          "name": "data",
          "type": "bytes"
        }
      ],
      "name": "safeBatchTransferFrom",
      "outputs": [],
      "stateMutability": "nonpayable",
      "type": "function"
    }
  ],
  "bytecode": "0x60806040523480156200001157600080fd5b50604051620028863803806200288683398101604081905262000034916200027d565b620000466301ffc9a760e01b6200006c565b620000528282620000f1565b62000064636cdb3d1360e11b6200006c565b5050620002e4565b6001600160e01b03198082161415620000cc576040805162461bcd60e51b815260206004820152601c60248201527f4552433136353a20696e76616c696420696e7465726661636520696400000000604482015290519081900360640190fd5b6001600160e01b0319166000908152602081905260409020805460ff19166001179055565b8151620001069060019060208501906200012e565b5080516200011c9060029060208401906200012e565b50506003805460ff1916601217905550565b828054600181600116156101000203166002900490600052602060002090601f016020900481019282620001665760008555620001b1565b82601f106200018157805160ff1916838001178555620001b1565b82800160010185558215620001b1579182015b82811115620001b157825182559160200191906001019062000194565b50620001bf929150620001c3565b5090565b5b80821115620001bf5760008155600101620001c4565b600082601f830112620001eb578081fd5b81516001600160401b03808211156200020057fe5b6040516020601f8401601f19168201810183811183821017156200022057fe5b806040525081945083825286818588010111156200023d57600080fd5b600092505b8383101562000261578583018101518284018201529182019162000242565b83831115620002735760008185840101525b5050505092915050565b6000806040838503121562000290578182fd5b82516001600160401b0380821115620002a7578384fd5b620002b586838701620001da565b93506020850151915080821115620002cb578283fd5b50620002da85828601620001da565b9150509250929050565b61259280620002f46000396000f3fe608060405234801561001057600080fd5b50600436106101815760003560e01c80634e1273f4116100d8578063a9059cbb1161008c578063e985e9c511610066578063e985e9c514610311578063f242432a14610324578063f5b100ea1461033757610181565b8063a9059cbb146102e3578063b0ea6a84146102f6578063dd62ed3e146102fe57610181565b806395d89b41116100bd57806395d89b41146102b5578063a22cb465146102bd578063a457c2d7146102d057610181565b80634e1273f41461028257806370a08231146102a257610181565b80631dcb46f61161013a5780632eb2c2d6116101145780632eb2c2d614610245578063313ce5671461025a578063395093511461026f57610181565b80631dcb46f6146101ff57806323b872dd146102125780632d8a746e1461022557610181565b806306fdde031161016b57806306fdde03146101cf578063095ea7b3146101e457806318160ddd146101f757610181565b8062fdd58e1461018657806301ffc9a7146101af575b600080fd5b610199610194366004611aed565b61034a565b6040516101a691906122f4565b60405180910390f35b6101c26101bd366004611bd7565b6103a6565b6040516101a69190611dc0565b6101d76103e1565b6040516101a69190611dcb565b6101c26101f2366004611aed565b61048c565b6101996104a9565b61019961020d366004611aed565b6104d9565b6101c2610220366004611a15565b610502565b610238610233366004611c0f565b610589565b6040516101a69190611cca565b61025861025336600461196f565b6105b1565b005b610262610846565b6040516101a6919061230b565b6101c261027d366004611aed565b61084f565b610295610290366004611b16565b61089d565b6040516101a69190611d7f565b6101996102b0366004611923565b6109dd565b6101d7610a17565b6102586102cb366004611ab3565b610a8d565b6101c26102de366004611aed565b610b79565b6101c26102f1366004611aed565b610be1565b610199610bf5565b61019961030c36600461193d565b610c06565b6101c261031f36600461193d565b610c31565b610258610332366004611a50565b610c5f565b610199610345366004611923565b610e69565b60006001600160a01b03831661037b5760405162461bcd60e51b815260040161037290611ef5565b60405180910390fd5b5060008181526005602090815260408083206001600160a01b03861684529091529020545b92915050565b7fffffffff00000000000000000000000000000000000000000000000000000000811660009081526020819052604090205460ff165b919050565b60018054604080516020600284861615610100027fffffffffffffffffffffffffffffffffffffffffffffffffffffffffffffffff0190941693909304601f810184900484028201840190925281815292918301828280156104845780601f1061045957610100808354040283529160200191610484565b820191906000526020600020905b81548152906001019060200180831161046757829003601f168201915b505050505081565b60006104a0610499610eb2565b8484610eb6565b50600192915050565b600160005260046020527fabd6e7cb50984ff9c2f3e18a2660c3353dadf4e3291deeb275dae2cd1e44fe05545b90565b6001600160a01b03821660009081526008602052604081206104fb9083610f6a565b9392505050565b600061050f848484610f76565b61057f8461051b610eb2565b61057a85604051806060016040528060288152602001612510602891396001600160a01b038a16600090815260076020526040812090610559610eb2565b6001600160a01b0316815260208101919091526040016000205491906110e8565b610eb6565b5060019392505050565b60006103a0826040518060600160405280602a81526020016124bc602a91396009919061117f565b81518351146105d25760405162461bcd60e51b815260040161037290612297565b6001600160a01b0384166105f85760405162461bcd60e51b815260040161037290612069565b610600610eb2565b6001600160a01b0316856001600160a01b0316148061062657506106268561031f610eb2565b6106425760405162461bcd60e51b8152600401610372906120c6565b600061064c610eb2565b905061065c81878787878761083e565b60005b84518110156107d857600085828151811061067657fe5b60200260200101519050600085838151811061068e57fe5b6020026020010151905060018214156106ac576106ac898983611194565b6106b582611199565b1561070e576001600160a01b03891660009081526008602052604090206106dc90836111a6565b506001600160a01b03881660009081526008602052604090206106ff90836111b2565b5061070c6009838a6111be565b505b610771816040518060600160405280602a81526020016124e6602a91396005600086815260200190815260200160002060008d6001600160a01b03166001600160a01b03168152602001908152602001600020546110e89092919063ffffffff16565b60008381526005602090815260408083206001600160a01b038e811685529252808320939093558a16815220546107a890826111d4565b60009283526005602090815260408085206001600160a01b038c168652909152909220919091555060010161065f565b50846001600160a01b0316866001600160a01b0316826001600160a01b03167f4a39dc06d4c0dbc64b70af90fd698a233a518aa5d07e595d983b8c0526c8f7fb8787604051610828929190611d92565b60405180910390a461083e81878787878761122e565b505050505050565b60035460ff1681565b60006104a061085c610eb2565b8461057a856007600061086d610eb2565b6001600160a01b03908116825260208083019390935260409182016000908120918c1681529252902054906111d4565b606081518351146108c05760405162461bcd60e51b81526004016103729061223a565b6060835167ffffffffffffffff811180156108da57600080fd5b50604051908082528060200260200182016040528015610904578160200160208202803683370190505b50905060005b84518110156109d55760006001600160a01b031685828151811061092a57fe5b60200260200101516001600160a01b031614156109595760405162461bcd60e51b815260040161037290611f52565b6005600085838151811061096957fe5b60200260200101518152602001908152602001600020600086838151811061098d57fe5b60200260200101516001600160a01b03166001600160a01b03168152602001908152602001600020548282815181106109c257fe5b602090810291909101015260010161090a565b509392505050565b6001600160a01b031660009081527f1471eb6eb2c5e789fc3de43f8ce62938c7d1836ec861730447e2ada8fd81017b602052604090205490565b600280546040805160206001841615610100027fffffffffffffffffffffffffffffffffffffffffffffffffffffffffffffffff01909316849004601f810184900484028201840190925281815292918301828280156104845780601f1061045957610100808354040283529160200191610484565b816001600160a01b0316610a9f610eb2565b6001600160a01b03161415610ac65760405162461bcd60e51b8152600401610372906121dd565b8060066000610ad3610eb2565b6001600160a01b0390811682526020808301939093526040918201600090812091871680825291909352912080547fffffffffffffffffffffffffffffffffffffffffffffffffffffffffffffff001692151592909217909155610b35610eb2565b6001600160a01b03167f17307eab39ab6107e8899845ad3d59bd9653f200f220920489ca2b5937696c3183604051610b6d9190611dc0565b60405180910390a35050565b60006104a0610b86610eb2565b8461057a856040518060600160405280602581526020016125386025913960076000610bb0610eb2565b6001600160a01b03908116825260208083019390935260409182016000908120918d168152925290205491906110e8565b60006104a0610bee610eb2565b8484610f76565b6000610c0160096113ad565b905090565b6001600160a01b03918216600090815260076020908152604080832093909416825291909152205490565b6001600160a01b03918216600090815260066020908152604080832093909416825291909152205460ff1690565b6001600160a01b038416610c855760405162461bcd60e51b815260040161037290612069565b610c8d610eb2565b6001600160a01b0316856001600160a01b03161480610cb35750610cb38561031f610eb2565b610ccf5760405162461bcd60e51b81526004016103729061200c565b6000610cd9610eb2565b9050610cf9818787610cea886113b8565b610cf3886113b8565b8761083e565b6001841415610d0d57610d0d868685611194565b610d1684611199565b15610d6f576001600160a01b0386166000908152600860205260409020610d3d90856111a6565b506001600160a01b0385166000908152600860205260409020610d6090856111b2565b50610d6d600985876111be565b505b610db6836040518060600160405280602a81526020016124e6602a913960008781526005602090815260408083206001600160a01b038d16845290915290205491906110e8565b60008581526005602090815260408083206001600160a01b038b81168552925280832093909355871681522054610ded90846111d4565b60008581526005602090815260408083206001600160a01b03808b168086529190935292819020939093559151909188811691908416907fc3d58168c5ae7397731d063d5bbf3d657854427343f4c083240f7aacaa2d0f6290610e5390899089906122fd565b60405180910390a461083e8187878787876113fc565b60006001600160a01b038216610e915760405162461bcd60e51b815260040161037290611ef5565b6001600160a01b03821660009081526008602052604090206103a0906113ad565b3390565b6001600160a01b038316610edc5760405162461bcd60e51b815260040161037290612180565b6001600160a01b038216610f025760405162461bcd60e51b815260040161037290611faf565b6001600160a01b0380841660008181526007602090815260408083209487168084529490915290819020849055517f8c5be1e5ebec7d5bd14f71427d1e84f3dd0314c0f7b2291e5b200ac8c7c3b92590610f5d9085906122f4565b60405180910390a3505050565b60006104fb8383611535565b6001600160a01b038316610f9c5760405162461bcd60e51b815260040161037290612123565b6001600160a01b038216610fc25760405162461bcd60e51b815260040161037290611e3b565b610fcd838383611194565b61102981604051806060016040528060268152602001612496602691396001600160a01b03861660009081527f1471eb6eb2c5e789fc3de43f8ce62938c7d1836ec861730447e2ada8fd81017b602052604090205491906110e8565b6001600160a01b0384811660009081527f1471eb6eb2c5e789fc3de43f8ce62938c7d1836ec861730447e2ada8fd81017b6020526040808220939093559084168152205461107790826111d4565b6001600160a01b0380841660008181527f1471eb6eb2c5e789fc3de43f8ce62938c7d1836ec861730447e2ada8fd81017b602052604090819020939093559151908516907fddf252ad1be2c89b69c2b068fc378daa952ba7f163c4a11628f55a4df523b3ef90610f5d9085906122f4565b600081848411156111775760405162461bcd60e51b81526004018080602001828103825283818151815260200191508051906020019080838360005b8381101561113c578181015183820152602001611124565b50505050905090810190601f1680156111695780820380516001836020036101000a031916815260200191505b509250505060405180910390fd5b505050900390565b600061118c848484611599565b949350505050565b505050565b60006103a0600983611626565b60006104fb8383611632565b60006104fb8383611716565b600061118c84846001600160a01b038516611760565b6000828201838110156104fb576040805162461bcd60e51b815260206004820152601b60248201527f536166654d6174683a206164646974696f6e206f766572666c6f770000000000604482015290519081900360640190fd5b611240846001600160a01b03166117f7565b1561083e576040517fbc197c810000000000000000000000000000000000000000000000000000000081526001600160a01b0385169063bc197c81906112929089908990889088908890600401611cde565b602060405180830381600087803b1580156112ac57600080fd5b505af19250505080156112fa575060408051601f3d9081017fffffffffffffffffffffffffffffffffffffffffffffffffffffffffffffffe01682019092526112f791810190611bf3565b60015b61134357611306612361565b80611311575061132b565b8060405162461bcd60e51b81526004016103729190611dcb565b60405162461bcd60e51b815260040161037290611dde565b7fffffffff0000000000000000000000000000000000000000000000000000000081167fbc197c8100000000000000000000000000000000000000000000000000000000146113a45760405162461bcd60e51b815260040161037290611e98565b50505050505050565b60006103a0826117fd565b6040805160018082528183019092526060918291906020808301908036833701905050905082816000815181106113eb57fe5b602090810291909101015292915050565b61140e846001600160a01b03166117f7565b1561083e576040517ff23a6e610000000000000000000000000000000000000000000000000000000081526001600160a01b0385169063f23a6e61906114609089908990889088908890600401611d3c565b602060405180830381600087803b15801561147a57600080fd5b505af19250505080156114c8575060408051601f3d9081017fffffffffffffffffffffffffffffffffffffffffffffffffffffffffffffffe01682019092526114c591810190611bf3565b60015b6114d457611306612361565b7fffffffff0000000000000000000000000000000000000000000000000000000081167ff23a6e6100000000000000000000000000000000000000000000000000000000146113a45760405162461bcd60e51b815260040161037290611e98565b815460009082106115775760405162461bcd60e51b81526004018080602001828103825260228152602001806124746022913960400191505060405180910390fd5b82600001828154811061158657fe5b9060005260206000200154905092915050565b600082815260018401602052604081205482816115f75760405162461bcd60e51b815260206004820181815283516024840152835190928392604490910191908501908083836000831561113c578181015183820152602001611124565b5084600001600182038154811061160a57fe5b9060005260206000209060020201600101549150509392505050565b60006104fb8383611801565b6000818152600183016020526040812054801561170c5783547fffffffffffffffffffffffffffffffffffffffffffffffffffffffffffffffff808301919081019060009087908390811061168357fe5b90600052602060002001549050808760000184815481106116a057fe5b6000918252602080832090910192909255828152600189810190925260409020908401905586548790806116d057fe5b600190038181906000526020600020016000905590558660010160008781526020019081526020016000206000905560019450505050506103a0565b60009150506103a0565b60006117228383611801565b611758575081546001818101845560008481526020808220909301849055845484825282860190935260409020919091556103a0565b5060006103a0565b6000828152600184016020526040812054806117c55750506040805180820182528381526020808201848152865460018181018955600089815284812095516002909302909501918255915190820155865486845281880190925292909120556104fb565b828560000160018303815481106117d857fe5b90600052602060002090600202016001018190555060009150506104fb565b3b151590565b5490565b60009081526001919091016020526040902054151590565b80356001600160a01b03811681146103dc57600080fd5b600082601f830112611840578081fd5b813561185361184e8261233d565b612319565b81815291506020808301908481018184028601820187101561187457600080fd5b60005b8481101561189357813584529282019290820190600101611877565b505050505092915050565b600082601f8301126118ae578081fd5b813567ffffffffffffffff8111156118c257fe5b6118f360207fffffffffffffffffffffffffffffffffffffffffffffffffffffffffffffffe0601f84011601612319565b915080825283602082850101111561190a57600080fd5b8060208401602084013760009082016020015292915050565b600060208284031215611934578081fd5b6104fb82611819565b6000806040838503121561194f578081fd5b61195883611819565b915061196660208401611819565b90509250929050565b600080600080600060a08688031215611986578081fd5b61198f86611819565b945061199d60208701611819565b9350604086013567ffffffffffffffff808211156119b9578283fd5b6119c589838a01611830565b945060608801359150808211156119da578283fd5b6119e689838a01611830565b935060808801359150808211156119fb578283fd5b50611a088882890161189e565b9150509295509295909350565b600080600060608486031215611a29578283fd5b611a3284611819565b9250611a4060208501611819565b9150604084013590509250925092565b600080600080600060a08688031215611a67578081fd5b611a7086611819565b9450611a7e60208701611819565b93506040860135925060608601359150608086013567ffffffffffffffff811115611aa7578182fd5b611a088882890161189e565b60008060408385031215611ac5578182fd5b611ace83611819565b915060208301358015158114611ae2578182fd5b809150509250929050565b60008060408385031215611aff578182fd5b611b0883611819565b946020939093013593505050565b60008060408385031215611b28578182fd5b823567ffffffffffffffff80821115611b3f578384fd5b818501915085601f830112611b52578384fd5b8135611b6061184e8261233d565b80828252602080830192508086018a828387028901011115611b80578889fd5b8896505b84871015611ba957611b9581611819565b845260019690960195928101928101611b84565b509096508701359350505080821115611bc0578283fd5b50611bcd85828601611830565b9150509250929050565b600060208284031215611be8578081fd5b81356104fb81612442565b600060208284031215611c04578081fd5b81516104fb81612442565b600060208284031215611c20578081fd5b5035919050565b6000815180845260208085019450808401835b83811015611c5657815187529582019590820190600101611c3a565b509495945050505050565b60008151808452815b81811015611c8657602081850181015186830182015201611c6a565b81811115611c975782602083870101525b50601f017fffffffffffffffffffffffffffffffffffffffffffffffffffffffffffffffe0169290920160200192915050565b6001600160a01b0391909116815260200190565b60006001600160a01b03808816835280871660208401525060a06040830152611d0a60a0830186611c27565b8281036060840152611d1c8186611c27565b90508281036080840152611d308185611c61565b98975050505050505050565b60006001600160a01b03808816835280871660208401525084604083015283606083015260a06080830152611d7460a0830184611c61565b979650505050505050565b6000602082526104fb6020830184611c27565b600060408252611da56040830185611c27565b8281036020840152611db78185611c27565b95945050505050565b901515815260200190565b6000602082526104fb6020830184611c61565b60208082526034908201527f455243313135353a207472616e7366657220746f206e6f6e204552433131353560408201527f526563656976657220696d706c656d656e746572000000000000000000000000606082015260800190565b60208082526023908201527f45524332303a207472616e7366657220746f20746865207a65726f206164647260408201527f6573730000000000000000000000000000000000000000000000000000000000606082015260800190565b60208082526028908201527f455243313135353a204552433131353552656365697665722072656a6563746560408201527f6420746f6b656e73000000000000000000000000000000000000000000000000606082015260800190565b6020808252602b908201527f455243313135353a2062616c616e636520717565727920666f7220746865207a60408201527f65726f2061646472657373000000000000000000000000000000000000000000606082015260800190565b60208082526031908201527f455243313135353a2062617463682062616c616e636520717565727920666f7260408201527f20746865207a65726f2061646472657373000000000000000000000000000000606082015260800190565b60208082526022908201527f45524332303a20617070726f766520746f20746865207a65726f20616464726560408201527f7373000000000000000000000000000000000000000000000000000000000000606082015260800190565b60208082526029908201527f455243313135353a2063616c6c6572206973206e6f74206f776e6572206e6f7260408201527f20617070726f7665640000000000000000000000000000000000000000000000606082015260800190565b60208082526025908201527f455243313135353a207472616e7366657220746f20746865207a65726f20616460408201527f6472657373000000000000000000000000000000000000000000000000000000606082015260800190565b60208082526032908201527f455243313135353a207472616e736665722063616c6c6572206973206e6f742060408201527f6f776e6572206e6f7220617070726f7665640000000000000000000000000000606082015260800190565b60208082526025908201527f45524332303a207472616e736665722066726f6d20746865207a65726f20616460408201527f6472657373000000000000000000000000000000000000000000000000000000606082015260800190565b60208082526024908201527f45524332303a20617070726f76652066726f6d20746865207a65726f2061646460408201527f7265737300000000000000000000000000000000000000000000000000000000606082015260800190565b60208082526029908201527f455243313135353a2073657474696e6720617070726f76616c2073746174757360408201527f20666f722073656c660000000000000000000000000000000000000000000000606082015260800190565b60208082526029908201527f455243313135353a206163636f756e747320616e6420696473206c656e67746860408201527f206d69736d617463680000000000000000000000000000000000000000000000606082015260800190565b60208082526028908201527f455243313135353a2069647320616e6420616d6f756e7473206c656e6774682060408201527f6d69736d61746368000000000000000000000000000000000000000000000000606082015260800190565b90815260200190565b918252602082015260400190565b60ff91909116815260200190565b60405181810167ffffffffffffffff8111828210171561233557fe5b604052919050565b600067ffffffffffffffff82111561235157fe5b5060209081020190565b60e01c90565b600060443d1015612371576104d6565b600481823e6308c379a0612385825161235b565b1461238f576104d6565b6040517ffffffffffffffffffffffffffffffffffffffffffffffffffffffffffffffffc3d016004823e80513d67ffffffffffffffff81602484011181841117156123dd57505050506104d6565b828401925082519150808211156123f757505050506104d6565b503d8301602082840101111561240f575050506104d6565b601f017fffffffffffffffffffffffffffffffffffffffffffffffffffffffffffffffe016810160200160405291505090565b7fffffffff000000000000000000000000000000000000000000000000000000008116811461247057600080fd5b5056fe456e756d657261626c655365743a20696e646578206f7574206f6620626f756e647345524332303a207472616e7366657220616d6f756e7420657863656564732062616c616e6365455243313135353a206f776e657220717565727920666f72206e6f6e6578697374656e7420746f6b656e455243313135353a20696e73756666696369656e742062616c616e636520666f72207472616e7366657245524332303a207472616e7366657220616d6f756e74206578636565647320616c6c6f77616e636545524332303a2064656372656173656420616c6c6f77616e63652062656c6f77207a65726fa2646970667358221220909b64a8c22a3d34571760028b705c76fb59a8c985be8e2a5526fdb05dbeaef264736f6c63430007040033",
  "immutableReferences": {},
  "source": "// SPDX-License-Identifier: MIT\npragma solidity ^0.7.4;\npragma experimental ABIEncoderV2;\n\nimport \"@openzeppelin/contracts/utils/EnumerableSet.sol\";\nimport \"@openzeppelin/contracts/utils/EnumerableMap.sol\";\n\nimport \"@openzeppelin/contracts/token/ERC20/IERC20.sol\";\nimport \"@openzeppelin/contracts/token/ERC1155/IERC1155.sol\";\nimport \"@openzeppelin/contracts/token/ERC1155/IERC1155Receiver.sol\";\nimport \"@openzeppelin/contracts/GSN/Context.sol\";\nimport \"@openzeppelin/contracts/introspection/ERC165.sol\";\nimport \"@openzeppelin/contracts/math/SafeMath.sol\";\nimport \"@openzeppelin/contracts/utils/Address.sol\";\n\ncontract ERC1155 is Context, ERC165, IERC1155, IERC20 {\n    using SafeMath for uint256;\n    using Address for address;\n\n    using EnumerableSet for EnumerableSet.UintSet;\n    using EnumerableMap for EnumerableMap.UintToAddressMap;\n\n    bytes4 private constant _INTERFACE_ID_ERC1155 = 0xd9b67a26;    \n\n    string public name;\n    string public symbol;\n    uint8 public decimals;\n\n    uint256 private constant ERC20_ID = 1;\n\n    /// @dev tokens total supplies\n    mapping (uint256 => uint256) private _mintedTokens;\n\n    /// @dev at index 1 ERC20 bmiDAIx token is stored\n    mapping (uint256 => mapping(address => uint256)) private _balances;    \n    mapping (address => mapping(address => bool)) private _operatorApprovals;\n\n    mapping (address => mapping (address => uint256)) private _erc20Allowances;\n\n    mapping (address => EnumerableSet.UintSet) private _nftHolderTokens;\n    EnumerableMap.UintToAddressMap private _nftTokenOwners;   \n\n    constructor (string memory name_, string memory symbol_) {        \n        _setERC20Description(name_, symbol_);\n\n        _registerInterface(_INTERFACE_ID_ERC1155);\n    }    \n\n    function balanceOfNFT(address owner) public view returns (uint256) {\n        require(owner != address(0), \"ERC1155: balance query for the zero address\");\n\n        return _nftHolderTokens[owner].length();\n    }\n\n    function ownerOfNFT(uint256 tokenId) public view returns (address) {\n        return _nftTokenOwners.get(tokenId, \"ERC1155: owner query for nonexistent token\");\n    }\n\n    function tokenOfOwnerByIndexNFT(address owner, uint256 index) public view returns (uint256) {\n        return _nftHolderTokens[owner].at(index);\n    }\n\n    function totalSupplyNFT() public view returns (uint256) {        \n        return _nftTokenOwners.length();\n    }\n\n    /// @notice From ERC20\n    function totalSupply() public view override returns (uint256) {\n        return _mintedTokens[ERC20_ID];\n    }\n\n    /// @notice From ERC20\n    function balanceOf(address account) public view override returns (uint256) {\n        return _balances[ERC20_ID][account];\n    }\n\n    function balanceOf(address account, uint256 id) public view override returns (uint256) {\n        require(account != address(0), \"ERC1155: balance query for the zero address\");\n        return _balances[id][account];\n    }\n\n    function balanceOfBatch(\n        address[] memory accounts,\n        uint256[] memory ids\n    )\n        public\n        view\n        override\n        returns (uint256[] memory)\n    {\n        require(accounts.length == ids.length, \"ERC1155: accounts and ids length mismatch\");\n\n        uint256[] memory batchBalances = new uint256[](accounts.length);\n\n        for (uint256 i = 0; i < accounts.length; ++i) {\n            require(accounts[i] != address(0), \"ERC1155: batch balance query for the zero address\");\n            batchBalances[i] = _balances[ids[i]][accounts[i]];\n        }\n\n        return batchBalances;\n    }\n\n    function setApprovalForAll(address operator, bool approved) public virtual override {\n        require(_msgSender() != operator, \"ERC1155: setting approval status for self\");\n\n        _operatorApprovals[_msgSender()][operator] = approved;\n        emit ApprovalForAll(_msgSender(), operator, approved);\n    }\n\n    function isApprovedForAll(address account, address operator) public view override returns (bool) {\n        return _operatorApprovals[account][operator];\n    }\n\n    /// @notice From ERC20\n    function increaseAllowance(address spender, uint256 addedValue) public virtual returns (bool) {\n        _approve(_msgSender(), spender, _erc20Allowances[_msgSender()][spender].add(addedValue));\n        return true;\n    }\n\n    /// @notice From ERC20\n    function decreaseAllowance(address spender, uint256 subtractedValue) public virtual returns (bool) {\n        _approve(_msgSender(), spender, _erc20Allowances[_msgSender()][spender].sub(subtractedValue, \n            \"ERC20: decreased allowance below zero\"));\n        return true;\n    }\n\n    /// @notice From ERC20\n    function allowance(address owner, address spender) public view virtual override returns (uint256) {\n        return _erc20Allowances[owner][spender];\n    }\n\n    /// @notice From ERC20\n    function approve(address spender, uint256 amount) public virtual override returns (bool) {\n        _approve(_msgSender(), spender, amount);\n        return true;\n    }\n\n    /// @notice From ERC20\n    function transfer(address recipient, uint256 amount) public virtual override returns (bool) {\n        _transfer(_msgSender(), recipient, amount);\n        return true;\n    }   \n\n    // From ERC20\n    function transferFrom(address sender, address recipient, uint256 amount) public virtual override returns (bool) {\n        _transfer(sender, recipient, amount);\n        _approve(sender, _msgSender(), _erc20Allowances[sender][_msgSender()].sub(amount, \n            \"ERC20: transfer amount exceeds allowance\"));\n        return true;\n    }\n\n    function safeTransferFrom(\n        address from,\n        address to,\n        uint256 id,\n        uint256 amount,\n        bytes memory data\n    )\n        public\n        virtual\n        override\n    {\n        require(to != address(0), \"ERC1155: transfer to the zero address\");\n        require(\n            from == _msgSender() || isApprovedForAll(from, _msgSender()),\n            \"ERC1155: caller is not owner nor approved\"\n        );\n\n        address operator = _msgSender();\n\n        _beforeERC1155TokenTransfer(operator, from, to, _asSingletonArray(id), _asSingletonArray(amount), data);\n\n        if (id == ERC20_ID) {\n           _beforeERC20TokenTransfer(from, to, amount); \n        }\n\n        if (_existsNFT(id)) {\n            _nftHolderTokens[from].remove(id);\n            _nftHolderTokens[to].add(id);\n\n            _nftTokenOwners.set(id, to);\n        }\n\n        _balances[id][from] = _balances[id][from].sub(amount, \"ERC1155: insufficient balance for transfer\");\n        _balances[id][to] = _balances[id][to].add(amount);\n\n        emit TransferSingle(operator, from, to, id, amount);\n\n        _doSafeTransferAcceptanceCheck(operator, from, to, id, amount, data);\n    }\n\n    function safeBatchTransferFrom(\n        address from,\n        address to,\n        uint256[] memory ids,\n        uint256[] memory amounts,\n        bytes memory data\n    )\n        public\n        virtual\n        override\n    {\n        require(ids.length == amounts.length, \"ERC1155: ids and amounts length mismatch\");\n        require(to != address(0), \"ERC1155: transfer to the zero address\");\n        require(\n            from == _msgSender() || isApprovedForAll(from, _msgSender()),\n            \"ERC1155: transfer caller is not owner nor approved\"\n        );\n\n        address operator = _msgSender();\n\n        _beforeERC1155TokenTransfer(operator, from, to, ids, amounts, data);\n\n        for (uint256 i = 0; i < ids.length; ++i) {\n            uint256 id = ids[i];\n            uint256 amount = amounts[i];\n\n            if (id == ERC20_ID) {\n                _beforeERC20TokenTransfer(from, to, amount); \n            }\n\n            if (_existsNFT(id)) {\n                _nftHolderTokens[from].remove(id);\n                _nftHolderTokens[to].add(id);\n\n                _nftTokenOwners.set(id, to);\n            }\n\n            _balances[id][from] = _balances[id][from].sub(\n                amount,\n                \"ERC1155: insufficient balance for transfer\"\n            );\n            _balances[id][to] = _balances[id][to].add(amount);\n        }\n\n        emit TransferBatch(operator, from, to, ids, amounts);\n\n        _doSafeBatchTransferAcceptanceCheck(operator, from, to, ids, amounts, data);\n    }    \n\n    function _setERC20Description(string memory name_, string memory symbol_) internal virtual {\n        name = name_;\n        symbol = symbol_;\n        decimals = 18;\n    }\n\n    function _existsToken(uint256 id) internal view returns (bool) {\n        return _mintedTokens[id] > 0;\n    }\n\n    function _existsNFT(uint256 id) internal view returns (bool) {\n        return _nftTokenOwners.contains(id);\n    }\n\n    /// @notice From ERC20\n    function _approve(address owner, address spender, uint256 amount) internal virtual {\n        require(owner != address(0), \"ERC20: approve from the zero address\");\n        require(spender != address(0), \"ERC20: approve to the zero address\");\n\n        _erc20Allowances[owner][spender] = amount;\n        emit Approval(owner, spender, amount);\n    }\n\n    /// @notice From ERC20\n    function _transfer(address sender, address recipient, uint256 amount) internal virtual {\n        require(sender != address(0), \"ERC20: transfer from the zero address\");\n        require(recipient != address(0), \"ERC20: transfer to the zero address\");\n\n        _beforeERC20TokenTransfer(sender, recipient, amount);\n\n        _balances[ERC20_ID][sender] = _balances[ERC20_ID][sender].sub(amount, \"ERC20: transfer amount exceeds balance\");\n        _balances[ERC20_ID][recipient] = _balances[ERC20_ID][recipient].add(amount);\n        emit Transfer(sender, recipient, amount);\n    }\n\n    function _mintERC20(address account, uint256 amount) internal virtual {\n        require(account != address(0), \"ERC20: mint to the zero address\");\n\n        _beforeERC20TokenTransfer(address(0), account, amount);\n        \n        _balances[ERC20_ID][account] = _balances[ERC20_ID][account].add(amount);\n        _mintedTokens[ERC20_ID] = _mintedTokens[ERC20_ID].add(amount);\n\n        emit Transfer(address(0), account, amount);\n    }    \n   \n    function _mint(address account, uint256 id, uint256 amount, bytes memory data) internal virtual {\n        require(account != address(0), \"ERC1155: mint to the zero address\");        \n        require(amount == 0 || !_existsNFT(id), \"ERC1155: NFT token already minted\");                \n\n        address operator = _msgSender();\n\n        _beforeERC1155TokenTransfer(\n            operator, \n            address(0), \n            account, \n            _asSingletonArray(id), \n            _asSingletonArray(amount), \n            data\n        );\n\n        if (amount == 1 && !_existsToken(id) && id != ERC20_ID) {\n            _nftHolderTokens[account].add(id);\n            _nftTokenOwners.set(id, account);\n        }\n\n        _balances[id][account] = _balances[id][account].add(amount);\n        _mintedTokens[id] = _mintedTokens[id].add(amount);\n        \n        emit TransferSingle(operator, address(0), account, id, amount);\n\n        _doSafeTransferAcceptanceCheck(operator, address(0), account, id, amount, data);\n    }\n   \n    function _mintBatch(\n        address account, \n        uint256[] memory ids, \n        uint256[] memory amounts, \n        bytes memory data\n    ) internal virtual {\n        require(account != address(0), \"ERC1155: mint to the zero address\");\n        require(ids.length == amounts.length, \"ERC1155: ids and amounts length mismatch\");\n\n        address operator = _msgSender();\n\n        _beforeERC1155TokenTransfer(operator, address(0), account, ids, amounts, data);\n\n        for (uint i = 0; i < ids.length; i++) {\n            uint256 id = ids[i];\n            uint256 amount = amounts[i];\n            \n            require(amount == 0 || !_existsNFT(id), \"ERC1155: NFT token already minted\");\n\n            if (amount == 1 && !_existsToken(id) && id != ERC20_ID) {\n                _nftHolderTokens[account].add(id);\n                _nftTokenOwners.set(id, account);\n            }\n\n            _balances[id][account] = amount.add(_balances[id][account]);\n            _mintedTokens[id] = _mintedTokens[id].add(amount);\n        }\n\n        emit TransferBatch(operator, address(0), account, ids, amounts);\n\n        _doSafeBatchTransferAcceptanceCheck(operator, address(0), account, ids, amounts, data);\n    }\n\n    function _burnERC20(address account, uint256 amount) internal virtual {\n        require(account != address(0), \"ERC20: burn from the zero address\");\n\n        _beforeERC20TokenTransfer(account, address(0), amount);\n\n        _balances[ERC20_ID][account] = _balances[ERC20_ID][account].sub(amount, \"ERC20: burn amount exceeds balance\");\n        _mintedTokens[ERC20_ID] = _mintedTokens[ERC20_ID].sub(amount);\n\n        emit Transfer(account, address(0), amount);\n    }\n  \n    function _burn(address account, uint256 id, uint256 amount) internal virtual {\n        require(account != address(0), \"ERC1155: burn from the zero address\");\n\n        address operator = _msgSender();\n\n        _beforeERC1155TokenTransfer(\n            operator, \n            account, \n            address(0), \n            _asSingletonArray(id), \n            _asSingletonArray(amount), \n            \"\"\n        );                \n\n        if (amount > 0) {\n            _nftHolderTokens[account].remove(id);\n            _nftTokenOwners.remove(id);\n        }\n\n        _balances[id][account] = _balances[id][account].sub(\n            amount,\n            \"ERC1155: burn amount exceeds balance\"\n        );     \n\n        _mintedTokens[id] = _mintedTokens[id].sub(amount);\n\n        emit TransferSingle(operator, account, address(0), id, amount);\n    }\n\n    function _burnBatch(address account, uint256[] memory ids, uint256[] memory amounts) internal virtual {\n        require(account != address(0), \"ERC1155: burn from the zero address\");\n        require(ids.length == amounts.length, \"ERC1155: ids and amounts length mismatch\");\n\n        address operator = _msgSender();\n\n        _beforeERC1155TokenTransfer(operator, account, address(0), ids, amounts, \"\");\n\n        for (uint i = 0; i < ids.length; i++) {\n            uint256 id = ids[i];\n            uint256 amount = amounts[i];\n\n            if (amount > 0) {\n                _nftHolderTokens[account].remove(id);\n                _nftTokenOwners.remove(id);\n            }\n\n            _balances[id][account] = _balances[id][account].sub(\n                amount,\n                \"ERC1155: burn amount exceeds balance\"\n            );            \n\n            _mintedTokens[id] = _mintedTokens[id].sub(amount);\n        }\n\n        emit TransferBatch(operator, account, address(0), ids, amounts);\n    }\n\n    // From ERC20\n    function _beforeERC20TokenTransfer(address from, address to, uint256 amount) internal virtual { }\n\n    function _beforeERC1155TokenTransfer(\n        address operator,\n        address from,\n        address to,\n        uint256[] memory ids,\n        uint256[] memory amounts,\n        bytes memory data\n    )\n        internal virtual\n    { }\n\n    function _doSafeTransferAcceptanceCheck(\n        address operator,\n        address from,\n        address to,\n        uint256 id,\n        uint256 amount,\n        bytes memory data\n    )\n        private\n    {\n        if (to.isContract()) {\n            try IERC1155Receiver(to).onERC1155Received(operator, from, id, amount, data) returns (bytes4 response) {\n                if (response != IERC1155Receiver(to).onERC1155Received.selector) {\n                    revert(\"ERC1155: ERC1155Receiver rejected tokens\");\n                }\n            } catch Error(string memory reason) {\n                revert(reason);\n            } catch {\n                revert(\"ERC1155: transfer to non ERC1155Receiver implementer\");\n            }\n        }\n    }\n\n    function _doSafeBatchTransferAcceptanceCheck(\n        address operator,\n        address from,\n        address to,\n        uint256[] memory ids,\n        uint256[] memory amounts,\n        bytes memory data\n    )\n        private\n    {\n        if (to.isContract()) {\n            try IERC1155Receiver(to).onERC1155BatchReceived(\n                operator, \n                from, \n                ids, \n                amounts, \n                data\n            ) returns (bytes4 response) {\n                if (response != IERC1155Receiver(to).onERC1155BatchReceived.selector) {\n                    revert(\"ERC1155: ERC1155Receiver rejected tokens\");\n                }\n            } catch Error(string memory reason) {\n                revert(reason);\n            } catch {\n                revert(\"ERC1155: transfer to non ERC1155Receiver implementer\");\n            }\n        }\n    }\n\n    function _asSingletonArray(uint256 element) private pure returns (uint256[] memory) {\n        uint256[] memory array = new uint256[](1);\n        array[0] = element;\n\n        return array;\n    }\n}\n",
  "sourcePath": "/home/artem/Projects/Distributed_Lab/Applicature/bridgemutual-core/contracts/tokens/ERC1155.sol",
  "compiler": {
    "name": "solc",
    "version": "0.7.4+commit.3f05b770.Emscripten.clang"
  },
  "schemaVersion": "3.3.3",
  "updatedAt": "2021-01-28T11:21:06.298Z",
  "devdoc": {
    "kind": "dev",
    "methods": {
      "balanceOf(address,uint256)": {
        "details": "Returns the amount of tokens of token type `id` owned by `account`. Requirements: - `account` cannot be the zero address."
      },
      "balanceOfBatch(address[],uint256[])": {
        "details": "xref:ROOT:erc1155.adoc#batch-operations[Batched] version of {balanceOf}. Requirements: - `accounts` and `ids` must have the same length."
      },
      "isApprovedForAll(address,address)": {
        "details": "Returns true if `operator` is approved to transfer ``account``'s tokens. See {setApprovalForAll}."
      },
      "safeBatchTransferFrom(address,address,uint256[],uint256[],bytes)": {
        "details": "xref:ROOT:erc1155.adoc#batch-operations[Batched] version of {safeTransferFrom}. Emits a {TransferBatch} event. Requirements: - `ids` and `amounts` must have the same length. - If `to` refers to a smart contract, it must implement {IERC1155Receiver-onERC1155BatchReceived} and return the acceptance magic value."
      },
      "safeTransferFrom(address,address,uint256,uint256,bytes)": {
        "details": "Transfers `amount` tokens of token type `id` from `from` to `to`. Emits a {TransferSingle} event. Requirements: - `to` cannot be the zero address. - If the caller is not `from`, it must be have been approved to spend ``from``'s tokens via {setApprovalForAll}. - `from` must have a balance of tokens of type `id` of at least `amount`. - If `to` refers to a smart contract, it must implement {IERC1155Receiver-onERC1155Received} and return the acceptance magic value."
      },
      "setApprovalForAll(address,bool)": {
        "details": "Grants or revokes permission to `operator` to transfer the caller's tokens, according to `approved`, Emits an {ApprovalForAll} event. Requirements: - `operator` cannot be the caller."
      },
      "supportsInterface(bytes4)": {
        "details": "See {IERC165-supportsInterface}. Time complexity O(1), guaranteed to always use less than 30 000 gas."
      },
      "transferFrom(address,address,uint256)": {
        "details": "Moves `amount` tokens from `sender` to `recipient` using the allowance mechanism. `amount` is then deducted from the caller's allowance. Returns a boolean value indicating whether the operation succeeded. Emits a {Transfer} event."
      }
    },
    "stateVariables": {
      "_balances": {
        "details": "at index 1 ERC20 bmiDAIx token is stored"
      },
      "_mintedTokens": {
        "details": "tokens total supplies"
      }
    },
    "version": 1
  },
  "userdoc": {
    "kind": "user",
    "methods": {
      "allowance(address,address)": {
        "notice": "From ERC20"
      },
      "approve(address,uint256)": {
        "notice": "From ERC20"
      },
      "balanceOf(address)": {
        "notice": "From ERC20"
      },
      "decreaseAllowance(address,uint256)": {
        "notice": "From ERC20"
      },
      "increaseAllowance(address,uint256)": {
        "notice": "From ERC20"
      },
      "totalSupply()": {
        "notice": "From ERC20"
      },
      "transfer(address,uint256)": {
        "notice": "From ERC20"
      }
    },
    "version": 1
  }
}