{
  "contractName": "ERC1155MintableBurnable",
  "abi": [
    {
      "inputs": [
        {
          "internalType": "string",
          "name": "uri_",
          "type": "string"
        }
      ],
      "stateMutability": "nonpayable",
      "type": "constructor"
    },
    {
      "anonymous": false,
      "inputs": [
        {
          "indexed": true,
          "internalType": "address",
          "name": "account",
          "type": "address"
        },
        {
          "indexed": true,
          "internalType": "address",
          "name": "operator",
          "type": "address"
        },
        {
          "indexed": false,
          "internalType": "bool",
          "name": "approved",
          "type": "bool"
        }
      ],
      "name": "ApprovalForAll",
      "type": "event"
    },
    {
      "anonymous": false,
      "inputs": [
        {
          "indexed": true,
          "internalType": "address",
          "name": "previousOwner",
          "type": "address"
        },
        {
          "indexed": true,
          "internalType": "address",
          "name": "newOwner",
          "type": "address"
        }
      ],
      "name": "OwnershipTransferred",
      "type": "event"
    },
    {
      "anonymous": false,
      "inputs": [
        {
          "indexed": true,
          "internalType": "address",
          "name": "operator",
          "type": "address"
        },
        {
          "indexed": true,
          "internalType": "address",
          "name": "from",
          "type": "address"
        },
        {
          "indexed": true,
          "internalType": "address",
          "name": "to",
          "type": "address"
        },
        {
          "indexed": false,
          "internalType": "uint256[]",
          "name": "ids",
          "type": "uint256[]"
        },
        {
          "indexed": false,
          "internalType": "uint256[]",
          "name": "values",
          "type": "uint256[]"
        }
      ],
      "name": "TransferBatch",
      "type": "event"
    },
    {
      "anonymous": false,
      "inputs": [
        {
          "indexed": true,
          "internalType": "address",
          "name": "operator",
          "type": "address"
        },
        {
          "indexed": true,
          "internalType": "address",
          "name": "from",
          "type": "address"
        },
        {
          "indexed": true,
          "internalType": "address",
          "name": "to",
          "type": "address"
        },
        {
          "indexed": false,
          "internalType": "uint256",
          "name": "id",
          "type": "uint256"
        },
        {
          "indexed": false,
          "internalType": "uint256",
          "name": "value",
          "type": "uint256"
        }
      ],
      "name": "TransferSingle",
      "type": "event"
    },
    {
      "anonymous": false,
      "inputs": [
        {
          "indexed": false,
          "internalType": "string",
          "name": "value",
          "type": "string"
        },
        {
          "indexed": true,
          "internalType": "uint256",
          "name": "id",
          "type": "uint256"
        }
      ],
      "name": "URI",
      "type": "event"
    },
    {
      "inputs": [
        {
          "internalType": "address",
          "name": "account",
          "type": "address"
        },
        {
          "internalType": "uint256",
          "name": "id",
          "type": "uint256"
        }
      ],
      "name": "balanceOf",
      "outputs": [
        {
          "internalType": "uint256",
          "name": "",
          "type": "uint256"
        }
      ],
      "stateMutability": "view",
      "type": "function"
    },
    {
      "inputs": [
        {
          "internalType": "address[]",
          "name": "accounts",
          "type": "address[]"
        },
        {
          "internalType": "uint256[]",
          "name": "ids",
          "type": "uint256[]"
        }
      ],
      "name": "balanceOfBatch",
      "outputs": [
        {
          "internalType": "uint256[]",
          "name": "",
          "type": "uint256[]"
        }
      ],
      "stateMutability": "view",
      "type": "function"
    },
    {
      "inputs": [
        {
          "internalType": "address",
          "name": "owner",
          "type": "address"
        }
      ],
      "name": "balanceOfNFT",
      "outputs": [
        {
          "internalType": "uint256",
          "name": "",
          "type": "uint256"
        }
      ],
      "stateMutability": "view",
      "type": "function"
    },
    {
      "inputs": [
        {
          "internalType": "address",
          "name": "account",
          "type": "address"
        },
        {
          "internalType": "address",
          "name": "operator",
          "type": "address"
        }
      ],
      "name": "isApprovedForAll",
      "outputs": [
        {
          "internalType": "bool",
          "name": "",
          "type": "bool"
        }
      ],
      "stateMutability": "view",
      "type": "function"
    },
    {
      "inputs": [],
      "name": "owner",
      "outputs": [
        {
          "internalType": "address",
          "name": "",
          "type": "address"
        }
      ],
      "stateMutability": "view",
      "type": "function"
    },
    {
      "inputs": [
        {
          "internalType": "uint256",
          "name": "tokenId",
          "type": "uint256"
        }
      ],
      "name": "ownerOfNFT",
      "outputs": [
        {
          "internalType": "address",
          "name": "",
          "type": "address"
        }
      ],
      "stateMutability": "view",
      "type": "function"
    },
    {
      "inputs": [],
      "name": "renounceOwnership",
      "outputs": [],
      "stateMutability": "nonpayable",
      "type": "function"
    },
    {
      "inputs": [
        {
          "internalType": "address",
          "name": "from",
          "type": "address"
        },
        {
          "internalType": "address",
          "name": "to",
          "type": "address"
        },
        {
          "internalType": "uint256[]",
          "name": "ids",
          "type": "uint256[]"
        },
        {
          "internalType": "uint256[]",
          "name": "amounts",
          "type": "uint256[]"
        },
        {
          "internalType": "bytes",
          "name": "data",
          "type": "bytes"
        }
      ],
      "name": "safeBatchTransferFrom",
      "outputs": [],
      "stateMutability": "nonpayable",
      "type": "function"
    },
    {
      "inputs": [
        {
          "internalType": "address",
          "name": "from",
          "type": "address"
        },
        {
          "internalType": "address",
          "name": "to",
          "type": "address"
        },
        {
          "internalType": "uint256",
          "name": "id",
          "type": "uint256"
        },
        {
          "internalType": "uint256",
          "name": "amount",
          "type": "uint256"
        },
        {
          "internalType": "bytes",
          "name": "data",
          "type": "bytes"
        }
      ],
      "name": "safeTransferFrom",
      "outputs": [],
      "stateMutability": "nonpayable",
      "type": "function"
    },
    {
      "inputs": [
        {
          "internalType": "address",
          "name": "operator",
          "type": "address"
        },
        {
          "internalType": "bool",
          "name": "approved",
          "type": "bool"
        }
      ],
      "name": "setApprovalForAll",
      "outputs": [],
      "stateMutability": "nonpayable",
      "type": "function"
    },
    {
      "inputs": [
        {
          "internalType": "bytes4",
          "name": "interfaceId",
          "type": "bytes4"
        }
      ],
      "name": "supportsInterface",
      "outputs": [
        {
          "internalType": "bool",
          "name": "",
          "type": "bool"
        }
      ],
      "stateMutability": "view",
      "type": "function"
    },
    {
      "inputs": [
        {
          "internalType": "address",
          "name": "owner",
          "type": "address"
        },
        {
          "internalType": "uint256",
          "name": "index",
          "type": "uint256"
        }
      ],
      "name": "tokenOfOwnerByIndexNFT",
      "outputs": [
        {
          "internalType": "uint256",
          "name": "",
          "type": "uint256"
        }
      ],
      "stateMutability": "view",
      "type": "function"
    },
    {
      "inputs": [],
      "name": "totalSupply",
      "outputs": [
        {
          "internalType": "uint256",
          "name": "",
          "type": "uint256"
        }
      ],
      "stateMutability": "view",
      "type": "function"
    },
    {
      "inputs": [
        {
          "internalType": "address",
          "name": "newOwner",
          "type": "address"
        }
      ],
      "name": "transferOwnership",
      "outputs": [],
      "stateMutability": "nonpayable",
      "type": "function"
    },
    {
      "inputs": [
        {
          "internalType": "uint256",
          "name": "",
          "type": "uint256"
        }
      ],
      "name": "uri",
      "outputs": [
        {
          "internalType": "string",
          "name": "",
          "type": "string"
        }
      ],
      "stateMutability": "view",
      "type": "function"
    },
    {
      "inputs": [
        {
          "internalType": "address",
          "name": "account",
          "type": "address"
        },
        {
          "internalType": "uint256",
          "name": "id",
          "type": "uint256"
        },
        {
          "internalType": "uint256",
          "name": "amount",
          "type": "uint256"
        },
        {
          "internalType": "bytes",
          "name": "data",
          "type": "bytes"
        }
      ],
      "name": "mint",
      "outputs": [],
      "stateMutability": "nonpayable",
      "type": "function"
    },
    {
      "inputs": [
        {
          "internalType": "address",
          "name": "account",
          "type": "address"
        },
        {
          "internalType": "uint256[]",
          "name": "ids",
          "type": "uint256[]"
        },
        {
          "internalType": "uint256[]",
          "name": "amounts",
          "type": "uint256[]"
        },
        {
          "internalType": "bytes",
          "name": "data",
          "type": "bytes"
        }
      ],
      "name": "mintBatch",
      "outputs": [],
      "stateMutability": "nonpayable",
      "type": "function"
    },
    {
      "inputs": [
        {
          "internalType": "address",
          "name": "account",
          "type": "address"
        },
        {
          "internalType": "uint256",
          "name": "id",
          "type": "uint256"
        },
        {
          "internalType": "uint256",
          "name": "amount",
          "type": "uint256"
        }
      ],
      "name": "burn",
      "outputs": [],
      "stateMutability": "nonpayable",
      "type": "function"
    },
    {
      "inputs": [
        {
          "internalType": "address",
          "name": "account",
          "type": "address"
        },
        {
          "internalType": "uint256[]",
          "name": "ids",
          "type": "uint256[]"
        },
        {
          "internalType": "uint256[]",
          "name": "amounts",
          "type": "uint256[]"
        }
      ],
      "name": "burnBatch",
      "outputs": [],
      "stateMutability": "nonpayable",
      "type": "function"
    }
  ],
  "bytecode": "0x60806040523480156200001157600080fd5b50604051620030be380380620030be833981016040819052620000349162000226565b80620000476301ffc9a760e01b620000d8565b62000052816200015d565b62000064636cdb3d1360e11b620000d8565b620000766303a24d0760e21b620000d8565b5060006200008362000176565b600880546001600160a01b0319166001600160a01b038316908117909155604051919250906000907f8be0079c531659141344cd1fd0a4f28419497f9722a3daafe3b4186f6b6457e0908290a35050620002e5565b6001600160e01b0319808216141562000138576040805162461bcd60e51b815260206004820152601c60248201527f4552433136353a20696e76616c696420696e7465726661636520696400000000604482015290519081900360640190fd5b6001600160e01b0319166000908152602081905260409020805460ff19166001179055565b8051620001729060079060208401906200017a565b5050565b3390565b828054600181600116156101000203166002900490600052602060002090601f016020900481019282620001b25760008555620001fd565b82601f10620001cd57805160ff1916838001178555620001fd565b82800160010185558215620001fd579182015b82811115620001fd578251825591602001919060010190620001e0565b506200020b9291506200020f565b5090565b5b808211156200020b576000815560010162000210565b6000602080838503121562000239578182fd5b82516001600160401b038082111562000250578384fd5b818501915085601f83011262000264578384fd5b8151818111156200027157fe5b604051601f8201601f19168101850183811182821017156200028f57fe5b6040528181528382018501881015620002a6578586fd5b8592505b81831015620002c95783830185015181840186015291840191620002aa565b81831115620002da57858583830101525b979650505050505050565b612dc980620002f56000396000f3fe608060405234801561001057600080fd5b50600436106101505760003560e01c80636b20c454116100cd578063e985e9c511610081578063f2fde38b11610066578063f2fde38b146102b0578063f5298aca146102c3578063f5b100ea146102d657610150565b8063e985e9c51461028a578063f242432a1461029d57610150565b8063731133e9116100b2578063731133e91461025c5780638da5cb5b1461026f578063a22cb4651461027757610150565b80636b20c45414610241578063715018a61461025457610150565b80631dcb46f6116101245780632d8a746e116101095780632d8a746e146101ee5780632eb2c2d61461020e5780634e1273f41461022157610150565b80631dcb46f6146101c65780631f7fdffa146101d957610150565b8062fdd58e1461015557806301ffc9a71461017e5780630e89341c1461019e57806318160ddd146101be575b600080fd5b610168610163366004612333565b6102e9565b6040516101759190612b62565b60405180910390f35b61019161018c3660046124a2565b610345565b604051610175919061268b565b6101b16101ac3660046124da565b610380565b6040516101759190612696565b610168610436565b6101686101d4366004612333565b610448565b6101ec6101e7366004612264565b610471565b005b6102016101fc3660046124da565b6104ed565b6040516101759190612595565b6101ec61021c3660046120ea565b610515565b61023461022f3660046123e1565b610791565b604051610175919061264a565b6101ec61024f3660046121f3565b6108d1565b6101ec61094b565b6101ec61026a36600461238e565b610a17565b610201610a8d565b6101ec6102853660046122f9565b610a9c565b6101916102983660046120b8565b610b88565b6101ec6102ab366004612190565b610bb6565b6101ec6102be36600461209e565b610dac565b6101ec6102d136600461235c565b610ecf565b6101686102e436600461209e565b610f44565b60006001600160a01b03831661031a5760405162461bcd60e51b815260040161031190612763565b60405180910390fd5b5060008181526001602090815260408083206001600160a01b03861684529091529020545b92915050565b7fffffffff00000000000000000000000000000000000000000000000000000000811660009081526020819052604090205460ff165b919050565b60078054604080516020601f60027fffffffffffffffffffffffffffffffffffffffffffffffffffffffffffffffff61010060018816150201909516949094049384018190048102820181019092528281526060939092909183018282801561042a5780601f106103ff5761010080835404028352916020019161042a565b820191906000526020600020905b81548152906001019060200180831161040d57829003601f168201915b50505050509050919050565b60006104426005610f89565b90505b90565b6001600160a01b038216600090815260046020526040812061046a9083610f94565b9392505050565b610479610fa0565b6008546001600160a01b039081169116146104db576040805162461bcd60e51b815260206004820181905260248201527f4f776e61626c653a2063616c6c6572206973206e6f7420746865206f776e6572604482015290519081900360640190fd5b6104e784848484610fa4565b50505050565b600061033f826040518060600160405280602a8152602001612d40602a9139600591906111ff565b81518351146105365760405162461bcd60e51b815260040161031190612aa8565b6001600160a01b03841661055c5760405162461bcd60e51b81526004016103119061287a565b610564610fa0565b6001600160a01b0316856001600160a01b0316148061058a575061058a85610298610fa0565b6105a65760405162461bcd60e51b8152600401610311906128d7565b60006105b0610fa0565b90506105c0818787878787610789565b60005b84518110156107235760008582815181106105da57fe5b6020026020010151905060008583815181106105f257fe5b6020026020010151905061060582611214565b1561065e576001600160a01b038916600090815260046020526040902061062c9083611221565b506001600160a01b038816600090815260046020526040902061064f908361122d565b5061065c6005838a611239565b505b6106c1816040518060600160405280602a8152602001612d6a602a91396001600086815260200190815260200160002060008d6001600160a01b03166001600160a01b031681526020019081526020016000205461124f9092919063ffffffff16565b60008381526001602090815260408083206001600160a01b038e811685529252808320939093558a16815220546106f890826112e6565b60009283526001602081815260408086206001600160a01b038d1687529091529093205550016105c3565b50846001600160a01b0316866001600160a01b0316826001600160a01b03167f4a39dc06d4c0dbc64b70af90fd698a233a518aa5d07e595d983b8c0526c8f7fb878760405161077392919061265d565b60405180910390a4610789818787878787611340565b505050505050565b606081518351146107b45760405162461bcd60e51b815260040161031190612a4b565b6060835167ffffffffffffffff811180156107ce57600080fd5b506040519080825280602002602001820160405280156107f8578160200160208202803683370190505b50905060005b84518110156108c95760006001600160a01b031685828151811061081e57fe5b60200260200101516001600160a01b0316141561084d5760405162461bcd60e51b8152600401610311906127c0565b6001600085838151811061085d57fe5b60200260200101518152602001908152602001600020600086838151811061088157fe5b60200260200101516001600160a01b03166001600160a01b03168152602001908152602001600020548282815181106108b657fe5b60209081029190910101526001016107fe565b509392505050565b6108d9610fa0565b6008546001600160a01b0390811691161461093b576040805162461bcd60e51b815260206004820181905260248201527f4f776e61626c653a2063616c6c6572206973206e6f7420746865206f776e6572604482015290519081900360640190fd5b6109468383836114bf565b505050565b610953610fa0565b6008546001600160a01b039081169116146109b5576040805162461bcd60e51b815260206004820181905260248201527f4f776e61626c653a2063616c6c6572206973206e6f7420746865206f776e6572604482015290519081900360640190fd5b6008546040516000916001600160a01b0316907f8be0079c531659141344cd1fd0a4f28419497f9722a3daafe3b4186f6b6457e0908390a3600880547fffffffffffffffffffffffff0000000000000000000000000000000000000000169055565b610a1f610fa0565b6008546001600160a01b03908116911614610a81576040805162461bcd60e51b815260206004820181905260248201527f4f776e61626c653a2063616c6c6572206973206e6f7420746865206f776e6572604482015290519081900360640190fd5b6104e7848484846116c8565b6008546001600160a01b031690565b816001600160a01b0316610aae610fa0565b6001600160a01b03161415610ad55760405162461bcd60e51b8152600401610311906129ee565b8060026000610ae2610fa0565b6001600160a01b0390811682526020808301939093526040918201600090812091871680825291909352912080547fffffffffffffffffffffffffffffffffffffffffffffffffffffffffffffff001692151592909217909155610b44610fa0565b6001600160a01b03167f17307eab39ab6107e8899845ad3d59bd9653f200f220920489ca2b5937696c3183604051610b7c919061268b565b60405180910390a35050565b6001600160a01b03918216600090815260026020908152604080832093909416825291909152205460ff1690565b6001600160a01b038416610bdc5760405162461bcd60e51b81526004016103119061287a565b610be4610fa0565b6001600160a01b0316856001600160a01b03161480610c0a5750610c0a85610298610fa0565b610c265760405162461bcd60e51b81526004016103119061281d565b6000610c30610fa0565b9050610c50818787610c4188611857565b610c4a88611857565b87610789565b610c5984611214565b15610cb2576001600160a01b0386166000908152600460205260409020610c809085611221565b506001600160a01b0385166000908152600460205260409020610ca3908561122d565b50610cb060058587611239565b505b610cf9836040518060600160405280602a8152602001612d6a602a913960008781526001602090815260408083206001600160a01b038d168452909152902054919061124f565b60008581526001602090815260408083206001600160a01b038b81168552925280832093909355871681522054610d3090846112e6565b60008581526001602090815260408083206001600160a01b03808b168086529190935292819020939093559151909188811691908416907fc3d58168c5ae7397731d063d5bbf3d657854427343f4c083240f7aacaa2d0f6290610d969089908990612b6b565b60405180910390a461078981878787878761189b565b610db4610fa0565b6008546001600160a01b03908116911614610e16576040805162461bcd60e51b815260206004820181905260248201527f4f776e61626c653a2063616c6c6572206973206e6f7420746865206f776e6572604482015290519081900360640190fd5b6001600160a01b038116610e5b5760405162461bcd60e51b8152600401808060200182810382526026815260200180612cf66026913960400191505060405180910390fd5b6008546040516001600160a01b038084169216907f8be0079c531659141344cd1fd0a4f28419497f9722a3daafe3b4186f6b6457e090600090a3600880547fffffffffffffffffffffffff0000000000000000000000000000000000000000166001600160a01b0392909216919091179055565b610ed7610fa0565b6008546001600160a01b03908116911614610f39576040805162461bcd60e51b815260206004820181905260248201527f4f776e61626c653a2063616c6c6572206973206e6f7420746865206f776e6572604482015290519081900360640190fd5b6109468383836119d4565b60006001600160a01b038216610f6c5760405162461bcd60e51b815260040161031190612763565b6001600160a01b038216600090815260046020526040902061033f905b600061033f82611b3e565b600061046a8383611b42565b3390565b6001600160a01b038416610fca5760405162461bcd60e51b815260040161031190612b05565b8151835114610feb5760405162461bcd60e51b815260040161031190612aa8565b6000610ff5610fa0565b905061100681600087878787610789565b60005b845181101561119057600085828151811061102057fe5b6020026020010151905084828151811061103657fe5b602002602001015160001480611052575061105081611214565b155b61106e5760405162461bcd60e51b815260040161031190612991565b84828151811061107a57fe5b60200260200101516001148015611097575061109581611ba6565b155b156110cd576001600160a01b03871660009081526004602052604090206110be908261122d565b506110cb60058289611239565b505b60008181526001602090815260408083206001600160a01b038b1684529091529020548551611119919087908590811061110357fe5b60200260200101516112e690919063ffffffff16565b60008281526001602090815260408083206001600160a01b038c16845290915290205584516111789086908490811061114e57fe5b602002602001015160036000848152602001908152602001600020546112e690919063ffffffff16565b60009182526003602052604090912055600101611009565b50846001600160a01b031660006001600160a01b0316826001600160a01b03167f4a39dc06d4c0dbc64b70af90fd698a233a518aa5d07e595d983b8c0526c8f7fb87876040516111e192919061265d565b60405180910390a46111f881600087878787611340565b5050505050565b600061120c848484611bba565b949350505050565b600061033f600583611c47565b600061046a8383611c53565b600061046a8383611d37565b600061120c84846001600160a01b038516611d81565b600081848411156112de5760405162461bcd60e51b81526004018080602001828103825283818151815260200191508051906020019080838360005b838110156112a357818101518382015260200161128b565b50505050905090810190601f1680156112d05780820380516001836020036101000a031916815260200191505b509250505060405180910390fd5b505050900390565b60008282018381101561046a576040805162461bcd60e51b815260206004820152601b60248201527f536166654d6174683a206164646974696f6e206f766572666c6f770000000000604482015290519081900360640190fd5b611352846001600160a01b0316611e18565b15610789576040517fbc197c810000000000000000000000000000000000000000000000000000000081526001600160a01b0385169063bc197c81906113a490899089908890889088906004016125a9565b602060405180830381600087803b1580156113be57600080fd5b505af192505050801561140c575060408051601f3d9081017fffffffffffffffffffffffffffffffffffffffffffffffffffffffffffffffe0168201909252611409918101906124be565b60015b61145557611418612bc1565b80611423575061143d565b8060405162461bcd60e51b81526004016103119190612696565b60405162461bcd60e51b8152600401610311906126a9565b7fffffffff0000000000000000000000000000000000000000000000000000000081167fbc197c8100000000000000000000000000000000000000000000000000000000146114b65760405162461bcd60e51b815260040161031190612706565b50505050505050565b6001600160a01b0383166114e55760405162461bcd60e51b815260040161031190612934565b80518251146115065760405162461bcd60e51b815260040161031190612aa8565b6000611510610fa0565b905061153081856000868660405180602001604052806000815250610789565b60005b835181101561166957600084828151811061154a57fe5b6020026020010151905061158b8160046000896001600160a01b03166001600160a01b0316815260200190815260200160002061122190919063ffffffff16565b50611597600582611e1e565b506115f28483815181106115a757fe5b6020026020010151604051806060016040528060248152602001612d1c6024913960008481526001602090815260408083206001600160a01b038d168452909152902054919061124f565b60008281526001602090815260408083206001600160a01b038b16845290915290205583516116519085908490811061162757fe5b60200260200101516003600084815260200190815260200160002054611e2a90919063ffffffff16565b60009182526003602052604090912055600101611533565b5060006001600160a01b0316846001600160a01b0316826001600160a01b03167f4a39dc06d4c0dbc64b70af90fd698a233a518aa5d07e595d983b8c0526c8f7fb86866040516116ba92919061265d565b60405180910390a450505050565b6001600160a01b0384166116ee5760405162461bcd60e51b815260040161031190612b05565b81158061170157506116ff83611214565b155b61171d5760405162461bcd60e51b815260040161031190612991565b6000611727610fa0565b905061173981600087610c4188611857565b82600114801561174f575061174d84611ba6565b155b15611785576001600160a01b0385166000908152600460205260409020611776908561122d565b5061178360058587611239565b505b60008481526001602090815260408083206001600160a01b03891684529091529020546117b290846112e6565b60008581526001602090815260408083206001600160a01b038a1684528252808320939093558682526003905220546117eb90846112e6565b6000858152600360205260408082209290925590516001600160a01b038088169291908416907fc3d58168c5ae7397731d063d5bbf3d657854427343f4c083240f7aacaa2d0f62906118409089908990612b6b565b60405180910390a46111f88160008787878761189b565b60408051600180825281830190925260609182919060208083019080368337019050509050828160008151811061188a57fe5b602090810291909101015292915050565b6118ad846001600160a01b0316611e18565b15610789576040517ff23a6e610000000000000000000000000000000000000000000000000000000081526001600160a01b0385169063f23a6e61906118ff9089908990889088908890600401612607565b602060405180830381600087803b15801561191957600080fd5b505af1925050508015611967575060408051601f3d9081017fffffffffffffffffffffffffffffffffffffffffffffffffffffffffffffffe0168201909252611964918101906124be565b60015b61197357611418612bc1565b7fffffffff0000000000000000000000000000000000000000000000000000000081167ff23a6e6100000000000000000000000000000000000000000000000000000000146114b65760405162461bcd60e51b815260040161031190612706565b6001600160a01b0383166119fa5760405162461bcd60e51b815260040161031190612934565b6000611a04610fa0565b9050611a3481856000611a1687611857565b611a1f87611857565b60405180602001604052806000815250610789565b8115611a6a576001600160a01b0384166000908152600460205260409020611a5c9084611221565b50611a68600584611e1e565b505b611ab182604051806060016040528060248152602001612d1c6024913960008681526001602090815260408083206001600160a01b038b168452909152902054919061124f565b60008481526001602090815260408083206001600160a01b0389168452825280832093909355858252600390522054611aea9083611e2a565b6000848152600360205260408082209290925590516001600160a01b0386811691908416907fc3d58168c5ae7397731d063d5bbf3d657854427343f4c083240f7aacaa2d0f62906116ba9088908890612b6b565b5490565b81546000908210611b845760405162461bcd60e51b8152600401808060200182810382526022815260200180612cd46022913960400191505060405180910390fd5b826000018281548110611b9357fe5b9060005260206000200154905092915050565b600090815260036020526040902054151590565b60008281526001840160205260408120548281611c185760405162461bcd60e51b81526020600482018181528351602484015283519092839260449091019190850190808383600083156112a357818101518382015260200161128b565b50846000016001820381548110611c2b57fe5b9060005260206000209060020201600101549150509392505050565b600061046a8383611e6c565b60008181526001830160205260408120548015611d2d5783547fffffffffffffffffffffffffffffffffffffffffffffffffffffffffffffffff8083019190810190600090879083908110611ca457fe5b9060005260206000200154905080876000018481548110611cc157fe5b600091825260208083209091019290925582815260018981019092526040902090840190558654879080611cf157fe5b6001900381819060005260206000200160009055905586600101600087815260200190815260200160002060009055600194505050505061033f565b600091505061033f565b6000611d438383611e6c565b611d795750815460018181018455600084815260208082209093018490558454848252828601909352604090209190915561033f565b50600061033f565b600082815260018401602052604081205480611de657505060408051808201825283815260208082018481528654600181810189556000898152848120955160029093029095019182559151908201558654868452818801909252929091205561046a565b82856000016001830381548110611df957fe5b906000526020600020906002020160010181905550600091505061046a565b3b151590565b600061046a8383611e84565b600061046a83836040518060400160405280601e81526020017f536166654d6174683a207375627472616374696f6e206f766572666c6f77000081525061124f565b60009081526001919091016020526040902054151590565b60008181526001830160205260408120548015611d2d5783547fffffffffffffffffffffffffffffffffffffffffffffffffffffffffffffffff8083019190810190600090879083908110611ed557fe5b9060005260206000209060020201905080876000018481548110611ef557fe5b600091825260208083208454600290930201918255600193840154918401919091558354825289830190526040902090840190558654879080611f3457fe5b6000828152602080822060027fffffffffffffffffffffffffffffffffffffffffffffffffffffffffffffffff909401938402018281556001908101839055929093558881528982019092526040822091909155945061033f9350505050565b80356001600160a01b038116811461037b57600080fd5b600082601f830112611fbb578081fd5b8135611fce611fc982612b9d565b612b79565b818152915060208083019084810181840286018201871015611fef57600080fd5b60005b8481101561200e57813584529282019290820190600101611ff2565b505050505092915050565b600082601f830112612029578081fd5b813567ffffffffffffffff81111561203d57fe5b61206e60207fffffffffffffffffffffffffffffffffffffffffffffffffffffffffffffffe0601f84011601612b79565b915080825283602082850101111561208557600080fd5b8060208401602084013760009082016020015292915050565b6000602082840312156120af578081fd5b61046a82611f94565b600080604083850312156120ca578081fd5b6120d383611f94565b91506120e160208401611f94565b90509250929050565b600080600080600060a08688031215612101578081fd5b61210a86611f94565b945061211860208701611f94565b9350604086013567ffffffffffffffff80821115612134578283fd5b61214089838a01611fab565b94506060880135915080821115612155578283fd5b61216189838a01611fab565b93506080880135915080821115612176578283fd5b5061218388828901612019565b9150509295509295909350565b600080600080600060a086880312156121a7578081fd5b6121b086611f94565b94506121be60208701611f94565b93506040860135925060608601359150608086013567ffffffffffffffff8111156121e7578182fd5b61218388828901612019565b600080600060608486031215612207578283fd5b61221084611f94565b9250602084013567ffffffffffffffff8082111561222c578384fd5b61223887838801611fab565b9350604086013591508082111561224d578283fd5b5061225a86828701611fab565b9150509250925092565b60008060008060808587031215612279578384fd5b61228285611f94565b9350602085013567ffffffffffffffff8082111561229e578485fd5b6122aa88838901611fab565b945060408701359150808211156122bf578384fd5b6122cb88838901611fab565b935060608701359150808211156122e0578283fd5b506122ed87828801612019565b91505092959194509250565b6000806040838503121561230b578182fd5b61231483611f94565b915060208301358015158114612328578182fd5b809150509250929050565b60008060408385031215612345578182fd5b61234e83611f94565b946020939093013593505050565b600080600060608486031215612370578283fd5b61237984611f94565b95602085013595506040909401359392505050565b600080600080608085870312156123a3578384fd5b6123ac85611f94565b93506020850135925060408501359150606085013567ffffffffffffffff8111156123d5578182fd5b6122ed87828801612019565b600080604083850312156123f3578182fd5b823567ffffffffffffffff8082111561240a578384fd5b818501915085601f83011261241d578384fd5b813561242b611fc982612b9d565b80828252602080830192508086018a82838702890101111561244b578889fd5b8896505b848710156124745761246081611f94565b84526001969096019592810192810161244f565b50909650870135935050508082111561248b578283fd5b5061249885828601611fab565b9150509250929050565b6000602082840312156124b3578081fd5b813561046a81612ca2565b6000602082840312156124cf578081fd5b815161046a81612ca2565b6000602082840312156124eb578081fd5b5035919050565b6000815180845260208085019450808401835b8381101561252157815187529582019590820190600101612505565b509495945050505050565b60008151808452815b8181101561255157602081850181015186830182015201612535565b818111156125625782602083870101525b50601f017fffffffffffffffffffffffffffffffffffffffffffffffffffffffffffffffe0169290920160200192915050565b6001600160a01b0391909116815260200190565b60006001600160a01b03808816835280871660208401525060a060408301526125d560a08301866124f2565b82810360608401526125e781866124f2565b905082810360808401526125fb818561252c565b98975050505050505050565b60006001600160a01b03808816835280871660208401525084604083015283606083015260a0608083015261263f60a083018461252c565b979650505050505050565b60006020825261046a60208301846124f2565b60006040825261267060408301856124f2565b828103602084015261268281856124f2565b95945050505050565b901515815260200190565b60006020825261046a602083018461252c565b60208082526034908201527f455243313135353a207472616e7366657220746f206e6f6e204552433131353560408201527f526563656976657220696d706c656d656e746572000000000000000000000000606082015260800190565b60208082526028908201527f455243313135353a204552433131353552656365697665722072656a6563746560408201527f6420746f6b656e73000000000000000000000000000000000000000000000000606082015260800190565b6020808252602b908201527f455243313135353a2062616c616e636520717565727920666f7220746865207a60408201527f65726f2061646472657373000000000000000000000000000000000000000000606082015260800190565b60208082526031908201527f455243313135353a2062617463682062616c616e636520717565727920666f7260408201527f20746865207a65726f2061646472657373000000000000000000000000000000606082015260800190565b60208082526029908201527f455243313135353a2063616c6c6572206973206e6f74206f776e6572206e6f7260408201527f20617070726f7665640000000000000000000000000000000000000000000000606082015260800190565b60208082526025908201527f455243313135353a207472616e7366657220746f20746865207a65726f20616460408201527f6472657373000000000000000000000000000000000000000000000000000000606082015260800190565b60208082526032908201527f455243313135353a207472616e736665722063616c6c6572206973206e6f742060408201527f6f776e6572206e6f7220617070726f7665640000000000000000000000000000606082015260800190565b60208082526023908201527f455243313135353a206275726e2066726f6d20746865207a65726f206164647260408201527f6573730000000000000000000000000000000000000000000000000000000000606082015260800190565b60208082526021908201527f455243313135353a204e465420746f6b656e20616c7265616479206d696e746560408201527f6400000000000000000000000000000000000000000000000000000000000000606082015260800190565b60208082526029908201527f455243313135353a2073657474696e6720617070726f76616c2073746174757360408201527f20666f722073656c660000000000000000000000000000000000000000000000606082015260800190565b60208082526029908201527f455243313135353a206163636f756e747320616e6420696473206c656e67746860408201527f206d69736d617463680000000000000000000000000000000000000000000000606082015260800190565b60208082526028908201527f455243313135353a2069647320616e6420616d6f756e7473206c656e6774682060408201527f6d69736d61746368000000000000000000000000000000000000000000000000606082015260800190565b60208082526021908201527f455243313135353a206d696e7420746f20746865207a65726f2061646472657360408201527f7300000000000000000000000000000000000000000000000000000000000000606082015260800190565b90815260200190565b918252602082015260400190565b60405181810167ffffffffffffffff81118282101715612b9557fe5b604052919050565b600067ffffffffffffffff821115612bb157fe5b5060209081020190565b60e01c90565b600060443d1015612bd157610445565b600481823e6308c379a0612be58251612bbb565b14612bef57610445565b6040517ffffffffffffffffffffffffffffffffffffffffffffffffffffffffffffffffc3d016004823e80513d67ffffffffffffffff8160248401118184111715612c3d5750505050610445565b82840192508251915080821115612c575750505050610445565b503d83016020828401011115612c6f57505050610445565b601f017fffffffffffffffffffffffffffffffffffffffffffffffffffffffffffffffe016810160200160405291505090565b7fffffffff0000000000000000000000000000000000000000000000000000000081168114612cd057600080fd5b5056fe456e756d657261626c655365743a20696e646578206f7574206f6620626f756e64734f776e61626c653a206e6577206f776e657220697320746865207a65726f2061646472657373455243313135353a206275726e20616d6f756e7420657863656564732062616c616e6365455243313135353a206f776e657220717565727920666f72206e6f6e6578697374656e7420746f6b656e455243313135353a20696e73756666696369656e742062616c616e636520666f72207472616e73666572a2646970667358221220d850b4312276257d2a4d062bd988e1bd85039d6692f722801cd7bf5414930a4e64736f6c63430007040033",
  "immutableReferences": {},
  "source": "// SPDX-License-Identifier: MIT\npragma solidity ^0.7.4;\npragma experimental ABIEncoderV2;\n\nimport \"@openzeppelin/contracts/access/Ownable.sol\";\n\nimport \"./ERC1155.sol\";\n\ncontract ERC1155MintableBurnable is ERC1155, Ownable {\n    constructor(string memory uri_) ERC1155(uri_) {}\n\n    function mint(address account, uint256 id, uint256 amount, bytes memory data) external onlyOwner {\n        _mint(account, id, amount, data);\n    }\n\n    function mintBatch(address account, uint256[] memory ids, uint256[] memory amounts, bytes memory data) external onlyOwner {\n        _mintBatch(account, ids, amounts, data);\n    }\n\n    function burn(address account, uint256 id, uint256 amount) external onlyOwner {\n        _burn(account, id, amount);\n    }\n\n    function burnBatch(address account, uint256[] memory ids, uint256[] memory amounts) external onlyOwner {\n        _burnBatch(account, ids, amounts);\n    }\n}",
  "sourcePath": "/home/artem/Projects/Distributed_Lab/Applicature/bridgemutual-core/contracts/tokens/ERC1155MintableBurnable.sol",
  "compiler": {
    "name": "solc",
    "version": "0.7.4+commit.3f05b770.Emscripten.clang"
  },
  "schemaVersion": "3.3.3",
  "updatedAt": "2021-01-25T17:02:32.003Z",
  "devdoc": {
    "kind": "dev",
    "methods": {
      "balanceOf(address,uint256)": {
        "details": "Returns the amount of tokens of token type `id` owned by `account`. Requirements: - `account` cannot be the zero address."
      },
      "balanceOfBatch(address[],uint256[])": {
        "details": "xref:ROOT:erc1155.adoc#batch-operations[Batched] version of {balanceOf}. Requirements: - `accounts` and `ids` must have the same length."
      },
      "isApprovedForAll(address,address)": {
        "details": "Returns true if `operator` is approved to transfer ``account``'s tokens. See {setApprovalForAll}."
      },
      "owner()": {
        "details": "Returns the address of the current owner."
      },
      "renounceOwnership()": {
        "details": "Leaves the contract without owner. It will not be possible to call `onlyOwner` functions anymore. Can only be called by the current owner. NOTE: Renouncing ownership will leave the contract without an owner, thereby removing any functionality that is only available to the owner."
      },
      "safeBatchTransferFrom(address,address,uint256[],uint256[],bytes)": {
        "details": "xref:ROOT:erc1155.adoc#batch-operations[Batched] version of {safeTransferFrom}. Emits a {TransferBatch} event. Requirements: - `ids` and `amounts` must have the same length. - If `to` refers to a smart contract, it must implement {IERC1155Receiver-onERC1155BatchReceived} and return the acceptance magic value."
      },
      "safeTransferFrom(address,address,uint256,uint256,bytes)": {
        "details": "Transfers `amount` tokens of token type `id` from `from` to `to`. Emits a {TransferSingle} event. Requirements: - `to` cannot be the zero address. - If the caller is not `from`, it must be have been approved to spend ``from``'s tokens via {setApprovalForAll}. - `from` must have a balance of tokens of type `id` of at least `amount`. - If `to` refers to a smart contract, it must implement {IERC1155Receiver-onERC1155Received} and return the acceptance magic value."
      },
      "setApprovalForAll(address,bool)": {
        "details": "Grants or revokes permission to `operator` to transfer the caller's tokens, according to `approved`, Emits an {ApprovalForAll} event. Requirements: - `operator` cannot be the caller."
      },
      "supportsInterface(bytes4)": {
        "details": "See {IERC165-supportsInterface}. Time complexity O(1), guaranteed to always use less than 30 000 gas."
      },
      "transferOwnership(address)": {
        "details": "Transfers ownership of the contract to a new account (`newOwner`). Can only be called by the current owner."
      }
    },
    "version": 1
  },
  "userdoc": {
    "kind": "user",
    "methods": {},
    "version": 1
  }
}