{
  "contractName": "ERC1155Mock",
  "abi": [
    {
      "inputs": [],
      "stateMutability": "nonpayable",
      "type": "constructor"
    },
    {
      "anonymous": false,
      "inputs": [
        {
          "indexed": true,
          "internalType": "address",
          "name": "account",
          "type": "address"
        },
        {
          "indexed": true,
          "internalType": "address",
          "name": "operator",
          "type": "address"
        },
        {
          "indexed": false,
          "internalType": "bool",
          "name": "approved",
          "type": "bool"
        }
      ],
      "name": "ApprovalForAll",
      "type": "event"
    },
    {
      "anonymous": false,
      "inputs": [
        {
          "indexed": true,
          "internalType": "address",
          "name": "operator",
          "type": "address"
        },
        {
          "indexed": true,
          "internalType": "address",
          "name": "from",
          "type": "address"
        },
        {
          "indexed": true,
          "internalType": "address",
          "name": "to",
          "type": "address"
        },
        {
          "indexed": false,
          "internalType": "uint256[]",
          "name": "ids",
          "type": "uint256[]"
        },
        {
          "indexed": false,
          "internalType": "uint256[]",
          "name": "values",
          "type": "uint256[]"
        }
      ],
      "name": "TransferBatch",
      "type": "event"
    },
    {
      "anonymous": false,
      "inputs": [
        {
          "indexed": true,
          "internalType": "address",
          "name": "operator",
          "type": "address"
        },
        {
          "indexed": true,
          "internalType": "address",
          "name": "from",
          "type": "address"
        },
        {
          "indexed": true,
          "internalType": "address",
          "name": "to",
          "type": "address"
        },
        {
          "indexed": false,
          "internalType": "uint256",
          "name": "id",
          "type": "uint256"
        },
        {
          "indexed": false,
          "internalType": "uint256",
          "name": "value",
          "type": "uint256"
        }
      ],
      "name": "TransferSingle",
      "type": "event"
    },
    {
      "anonymous": false,
      "inputs": [
        {
          "indexed": false,
          "internalType": "string",
          "name": "value",
          "type": "string"
        },
        {
          "indexed": true,
          "internalType": "uint256",
          "name": "id",
          "type": "uint256"
        }
      ],
      "name": "URI",
      "type": "event"
    },
    {
      "inputs": [
        {
          "internalType": "address",
          "name": "account",
          "type": "address"
        },
        {
          "internalType": "uint256",
          "name": "id",
          "type": "uint256"
        }
      ],
      "name": "balanceOf",
      "outputs": [
        {
          "internalType": "uint256",
          "name": "",
          "type": "uint256"
        }
      ],
      "stateMutability": "view",
      "type": "function"
    },
    {
      "inputs": [
        {
          "internalType": "address[]",
          "name": "accounts",
          "type": "address[]"
        },
        {
          "internalType": "uint256[]",
          "name": "ids",
          "type": "uint256[]"
        }
      ],
      "name": "balanceOfBatch",
      "outputs": [
        {
          "internalType": "uint256[]",
          "name": "",
          "type": "uint256[]"
        }
      ],
      "stateMutability": "view",
      "type": "function"
    },
    {
      "inputs": [
        {
          "internalType": "address",
          "name": "owner",
          "type": "address"
        }
      ],
      "name": "balanceOfNFT",
      "outputs": [
        {
          "internalType": "uint256",
          "name": "",
          "type": "uint256"
        }
      ],
      "stateMutability": "view",
      "type": "function"
    },
    {
      "inputs": [
        {
          "internalType": "address",
          "name": "account",
          "type": "address"
        },
        {
          "internalType": "address",
          "name": "operator",
          "type": "address"
        }
      ],
      "name": "isApprovedForAll",
      "outputs": [
        {
          "internalType": "bool",
          "name": "",
          "type": "bool"
        }
      ],
      "stateMutability": "view",
      "type": "function"
    },
    {
      "inputs": [
        {
          "internalType": "uint256",
          "name": "tokenId",
          "type": "uint256"
        }
      ],
      "name": "ownerOfNFT",
      "outputs": [
        {
          "internalType": "address",
          "name": "",
          "type": "address"
        }
      ],
      "stateMutability": "view",
      "type": "function"
    },
    {
      "inputs": [
        {
          "internalType": "address",
          "name": "from",
          "type": "address"
        },
        {
          "internalType": "address",
          "name": "to",
          "type": "address"
        },
        {
          "internalType": "uint256[]",
          "name": "ids",
          "type": "uint256[]"
        },
        {
          "internalType": "uint256[]",
          "name": "amounts",
          "type": "uint256[]"
        },
        {
          "internalType": "bytes",
          "name": "data",
          "type": "bytes"
        }
      ],
      "name": "safeBatchTransferFrom",
      "outputs": [],
      "stateMutability": "nonpayable",
      "type": "function"
    },
    {
      "inputs": [
        {
          "internalType": "address",
          "name": "from",
          "type": "address"
        },
        {
          "internalType": "address",
          "name": "to",
          "type": "address"
        },
        {
          "internalType": "uint256",
          "name": "id",
          "type": "uint256"
        },
        {
          "internalType": "uint256",
          "name": "amount",
          "type": "uint256"
        },
        {
          "internalType": "bytes",
          "name": "data",
          "type": "bytes"
        }
      ],
      "name": "safeTransferFrom",
      "outputs": [],
      "stateMutability": "nonpayable",
      "type": "function"
    },
    {
      "inputs": [
        {
          "internalType": "address",
          "name": "operator",
          "type": "address"
        },
        {
          "internalType": "bool",
          "name": "approved",
          "type": "bool"
        }
      ],
      "name": "setApprovalForAll",
      "outputs": [],
      "stateMutability": "nonpayable",
      "type": "function"
    },
    {
      "inputs": [
        {
          "internalType": "bytes4",
          "name": "interfaceId",
          "type": "bytes4"
        }
      ],
      "name": "supportsInterface",
      "outputs": [
        {
          "internalType": "bool",
          "name": "",
          "type": "bool"
        }
      ],
      "stateMutability": "view",
      "type": "function"
    },
    {
      "inputs": [
        {
          "internalType": "address",
          "name": "owner",
          "type": "address"
        },
        {
          "internalType": "uint256",
          "name": "index",
          "type": "uint256"
        }
      ],
      "name": "tokenOfOwnerByIndexNFT",
      "outputs": [
        {
          "internalType": "uint256",
          "name": "",
          "type": "uint256"
        }
      ],
      "stateMutability": "view",
      "type": "function"
    },
    {
      "inputs": [],
      "name": "totalSupply",
      "outputs": [
        {
          "internalType": "uint256",
          "name": "",
          "type": "uint256"
        }
      ],
      "stateMutability": "view",
      "type": "function"
    },
    {
      "inputs": [
        {
          "internalType": "uint256",
          "name": "",
          "type": "uint256"
        }
      ],
      "name": "uri",
      "outputs": [
        {
          "internalType": "string",
          "name": "",
          "type": "string"
        }
      ],
      "stateMutability": "view",
      "type": "function"
    },
    {
      "inputs": [
        {
          "internalType": "uint256",
          "name": "id",
          "type": "uint256"
        },
        {
          "internalType": "uint256",
          "name": "amount",
          "type": "uint256"
        }
      ],
      "name": "mint",
      "outputs": [],
      "stateMutability": "nonpayable",
      "type": "function"
    },
    {
      "inputs": [
        {
          "internalType": "uint256[]",
          "name": "ids",
          "type": "uint256[]"
        },
        {
          "internalType": "uint256[]",
          "name": "amounts",
          "type": "uint256[]"
        }
      ],
      "name": "mintBatch",
      "outputs": [],
      "stateMutability": "nonpayable",
      "type": "function"
    },
    {
      "inputs": [
        {
          "internalType": "uint256",
          "name": "id",
          "type": "uint256"
        },
        {
          "internalType": "uint256",
          "name": "amount",
          "type": "uint256"
        }
      ],
      "name": "burn",
      "outputs": [],
      "stateMutability": "nonpayable",
      "type": "function"
    },
    {
      "inputs": [
        {
          "internalType": "uint256[]",
          "name": "ids",
          "type": "uint256[]"
        },
        {
          "internalType": "uint256[]",
          "name": "amounts",
          "type": "uint256[]"
        }
      ],
      "name": "burnBatch",
      "outputs": [],
      "stateMutability": "nonpayable",
      "type": "function"
    }
  ],
  "bytecode": "0x60806040523480156200001157600080fd5b50604080516020810190915260008152620000336301ffc9a760e01b62000069565b6200003e81620000ee565b62000050636cdb3d1360e11b62000069565b620000626303a24d0760e21b62000069565b50620001b3565b6001600160e01b03198082161415620000c9576040805162461bcd60e51b815260206004820152601c60248201527f4552433136353a20696e76616c696420696e7465726661636520696400000000604482015290519081900360640190fd5b6001600160e01b0319166000908152602081905260409020805460ff19166001179055565b80516200010390600790602084019062000107565b5050565b828054600181600116156101000203166002900490600052602060002090601f0160209004810192826200013f57600085556200018a565b82601f106200015a57805160ff19168380011785556200018a565b828001600101855582156200018a579182015b828111156200018a5782518255916020019190600101906200016d565b50620001989291506200019c565b5090565b5b808211156200019857600081556001016200019d565b61289c80620001c36000396000f3fe608060405234801561001057600080fd5b50600436106100ff5760003560e01c80634e1273f411610097578063d351cfdc11610066578063d351cfdc14610229578063e985e9c51461023c578063f242432a1461024f578063f5b100ea14610262576100ff565b80634e1273f4146101d057806383ca4b6f146101f0578063a22cb46514610203578063b390c0ab14610216576100ff565b80631b2ef1ca116100d35780631b2ef1ca146101755780631dcb46f61461018a5780632d8a746e1461019d5780632eb2c2d6146101bd576100ff565b8062fdd58e1461010457806301ffc9a71461012d5780630e89341c1461014d57806318160ddd1461016d575b600080fd5b610117610112366004611e46565b610275565b604051610124919061265b565b60405180910390f35b61014061013b366004611f7a565b6102d1565b6040516101249190612184565b61016061015b366004611fb2565b61030c565b604051610124919061218f565b6101176103c2565b610188610183366004611fca565b6103d4565b005b610117610198366004611e46565b6103fa565b6101b06101ab366004611fb2565b610423565b604051610124919061208e565b6101886101cb366004611d03565b61044b565b6101e36101de366004611e6f565b6106c7565b6040516101249190612143565b6101886101fe366004611f30565b610807565b610188610211366004611e0c565b610819565b610188610224366004611fca565b610905565b610188610237366004611f30565b610917565b61014061024a366004611cd1565b610939565b61018861025d366004611da9565b610967565b610117610270366004611cb7565b610b5d565b60006001600160a01b0383166102a65760405162461bcd60e51b815260040161029d9061225c565b60405180910390fd5b5060008181526001602090815260408083206001600160a01b03861684529091529020545b92915050565b7fffffffff00000000000000000000000000000000000000000000000000000000811660009081526020819052604090205460ff165b919050565b60078054604080516020601f60027fffffffffffffffffffffffffffffffffffffffffffffffffffffffffffffffff6101006001881615020190951694909404938401819004810282018101909252828152606093909290918301828280156103b65780601f1061038b576101008083540402835291602001916103b6565b820191906000526020600020905b81548152906001019060200180831161039957829003601f168201915b50505050509050919050565b60006103ce6005610ba2565b90505b90565b6103f66103df610bad565b838360405180602001604052806000815250610bb1565b5050565b6001600160a01b038216600090815260046020526040812061041c9083610d47565b9392505050565b60006102cb826040518060600160405280602a8152602001612813602a913960059190610d53565b815183511461046c5760405162461bcd60e51b815260040161029d906125a1565b6001600160a01b0384166104925760405162461bcd60e51b815260040161029d90612373565b61049a610bad565b6001600160a01b0316856001600160a01b031614806104c057506104c08561024a610bad565b6104dc5760405162461bcd60e51b815260040161029d906123d0565b60006104e6610bad565b90506104f68187878787876106bf565b60005b845181101561065957600085828151811061051057fe5b60200260200101519050600085838151811061052857fe5b6020026020010151905061053b82610d68565b15610594576001600160a01b03891660009081526004602052604090206105629083610d75565b506001600160a01b03881660009081526004602052604090206105859083610d81565b506105926005838a610d8d565b505b6105f7816040518060600160405280602a815260200161283d602a91396001600086815260200190815260200160002060008d6001600160a01b03166001600160a01b0316815260200190815260200160002054610da39092919063ffffffff16565b60008381526001602090815260408083206001600160a01b038e811685529252808320939093558a168152205461062e9082610e3a565b60009283526001602081815260408086206001600160a01b038d1687529091529093205550016104f9565b50846001600160a01b0316866001600160a01b0316826001600160a01b03167f4a39dc06d4c0dbc64b70af90fd698a233a518aa5d07e595d983b8c0526c8f7fb87876040516106a9929190612156565b60405180910390a46106bf818787878787610e94565b505050505050565b606081518351146106ea5760405162461bcd60e51b815260040161029d90612544565b6060835167ffffffffffffffff8111801561070457600080fd5b5060405190808252806020026020018201604052801561072e578160200160208202803683370190505b50905060005b84518110156107ff5760006001600160a01b031685828151811061075457fe5b60200260200101516001600160a01b031614156107835760405162461bcd60e51b815260040161029d906122b9565b6001600085838151811061079357fe5b6020026020010151815260200190815260200160002060008683815181106107b757fe5b60200260200101516001600160a01b03166001600160a01b03168152602001908152602001600020548282815181106107ec57fe5b6020908102919091010152600101610734565b509392505050565b6103f6610812610bad565b8383611013565b816001600160a01b031661082b610bad565b6001600160a01b031614156108525760405162461bcd60e51b815260040161029d906124e7565b806002600061085f610bad565b6001600160a01b0390811682526020808301939093526040918201600090812091871680825291909352912080547fffffffffffffffffffffffffffffffffffffffffffffffffffffffffffffff0016921515929092179091556108c1610bad565b6001600160a01b03167f17307eab39ab6107e8899845ad3d59bd9653f200f220920489ca2b5937696c31836040516108f99190612184565b60405180910390a35050565b6103f6610910610bad565b838361121c565b6103f6610922610bad565b838360405180602001604052806000815250611386565b6001600160a01b03918216600090815260026020908152604080832093909416825291909152205460ff1690565b6001600160a01b03841661098d5760405162461bcd60e51b815260040161029d90612373565b610995610bad565b6001600160a01b0316856001600160a01b031614806109bb57506109bb8561024a610bad565b6109d75760405162461bcd60e51b815260040161029d90612316565b60006109e1610bad565b9050610a018187876109f2886115da565b6109fb886115da565b876106bf565b610a0a84610d68565b15610a63576001600160a01b0386166000908152600460205260409020610a319085610d75565b506001600160a01b0385166000908152600460205260409020610a549085610d81565b50610a6160058587610d8d565b505b610aaa836040518060600160405280602a815260200161283d602a913960008781526001602090815260408083206001600160a01b038d1684529091529020549190610da3565b60008581526001602090815260408083206001600160a01b038b81168552925280832093909355871681522054610ae19084610e3a565b60008581526001602090815260408083206001600160a01b03808b168086529190935292819020939093559151909188811691908416907fc3d58168c5ae7397731d063d5bbf3d657854427343f4c083240f7aacaa2d0f6290610b479089908990612664565b60405180910390a46106bf81878787878761161e565b60006001600160a01b038216610b855760405162461bcd60e51b815260040161029d9061225c565b6001600160a01b03821660009081526004602052604090206102cb905b60006102cb82611757565b3390565b6001600160a01b038416610bd75760405162461bcd60e51b815260040161029d906125fe565b811580610bea5750610be883610d68565b155b610c065760405162461bcd60e51b815260040161029d9061248a565b6000610c10610bad565b9050610c22816000876109f2886115da565b826001148015610c385750610c368461175b565b155b15610c6e576001600160a01b0385166000908152600460205260409020610c5f9085610d81565b50610c6c60058587610d8d565b505b60008481526001602090815260408083206001600160a01b0389168452909152902054610c9b9084610e3a565b60008581526001602090815260408083206001600160a01b038a168452825280832093909355868252600390522054610cd49084610e3a565b6000858152600360205260408082209290925590516001600160a01b038088169291908416907fc3d58168c5ae7397731d063d5bbf3d657854427343f4c083240f7aacaa2d0f6290610d299089908990612664565b60405180910390a4610d408160008787878761161e565b5050505050565b600061041c838361176f565b6000610d608484846117d3565b949350505050565b60006102cb600583611860565b600061041c838361186c565b600061041c8383611950565b6000610d6084846001600160a01b03851661199a565b60008184841115610e325760405162461bcd60e51b81526004018080602001828103825283818151815260200191508051906020019080838360005b83811015610df7578181015183820152602001610ddf565b50505050905090810190601f168015610e245780820380516001836020036101000a031916815260200191505b509250505060405180910390fd5b505050900390565b60008282018381101561041c576040805162461bcd60e51b815260206004820152601b60248201527f536166654d6174683a206164646974696f6e206f766572666c6f770000000000604482015290519081900360640190fd5b610ea6846001600160a01b0316611a31565b156106bf576040517fbc197c810000000000000000000000000000000000000000000000000000000081526001600160a01b0385169063bc197c8190610ef890899089908890889088906004016120a2565b602060405180830381600087803b158015610f1257600080fd5b505af1925050508015610f60575060408051601f3d9081017fffffffffffffffffffffffffffffffffffffffffffffffffffffffffffffffe0168201909252610f5d91810190611f96565b60015b610fa957610f6c6126ba565b80610f775750610f91565b8060405162461bcd60e51b815260040161029d919061218f565b60405162461bcd60e51b815260040161029d906121a2565b7fffffffff0000000000000000000000000000000000000000000000000000000081167fbc197c81000000000000000000000000000000000000000000000000000000001461100a5760405162461bcd60e51b815260040161029d906121ff565b50505050505050565b6001600160a01b0383166110395760405162461bcd60e51b815260040161029d9061242d565b805182511461105a5760405162461bcd60e51b815260040161029d906125a1565b6000611064610bad565b9050611084818560008686604051806020016040528060008152506106bf565b60005b83518110156111bd57600084828151811061109e57fe5b602002602001015190506110df8160046000896001600160a01b03166001600160a01b03168152602001908152602001600020610d7590919063ffffffff16565b506110eb600582611a37565b506111468483815181106110fb57fe5b60200260200101516040518060600160405280602481526020016127ef6024913960008481526001602090815260408083206001600160a01b038d1684529091529020549190610da3565b60008281526001602090815260408083206001600160a01b038b16845290915290205583516111a59085908490811061117b57fe5b60200260200101516003600084815260200190815260200160002054611a4390919063ffffffff16565b60009182526003602052604090912055600101611087565b5060006001600160a01b0316846001600160a01b0316826001600160a01b03167f4a39dc06d4c0dbc64b70af90fd698a233a518aa5d07e595d983b8c0526c8f7fb868660405161120e929190612156565b60405180910390a450505050565b6001600160a01b0383166112425760405162461bcd60e51b815260040161029d9061242d565b600061124c610bad565b905061127c8185600061125e876115da565b611267876115da565b604051806020016040528060008152506106bf565b81156112b2576001600160a01b03841660009081526004602052604090206112a49084610d75565b506112b0600584611a37565b505b6112f9826040518060600160405280602481526020016127ef6024913960008681526001602090815260408083206001600160a01b038b1684529091529020549190610da3565b60008481526001602090815260408083206001600160a01b03891684528252808320939093558582526003905220546113329083611a43565b6000848152600360205260408082209290925590516001600160a01b0386811691908416907fc3d58168c5ae7397731d063d5bbf3d657854427343f4c083240f7aacaa2d0f629061120e9088908890612664565b6001600160a01b0384166113ac5760405162461bcd60e51b815260040161029d906125fe565b81518351146113cd5760405162461bcd60e51b815260040161029d906125a1565b60006113d7610bad565b90506113e8816000878787876106bf565b60005b845181101561157257600085828151811061140257fe5b6020026020010151905084828151811061141857fe5b602002602001015160001480611434575061143281610d68565b155b6114505760405162461bcd60e51b815260040161029d9061248a565b84828151811061145c57fe5b6020026020010151600114801561147957506114778161175b565b155b156114af576001600160a01b03871660009081526004602052604090206114a09082610d81565b506114ad60058289610d8d565b505b60008181526001602090815260408083206001600160a01b038b16845290915290205485516114fb91908790859081106114e557fe5b6020026020010151610e3a90919063ffffffff16565b60008281526001602090815260408083206001600160a01b038c168452909152902055845161155a9086908490811061153057fe5b60200260200101516003600084815260200190815260200160002054610e3a90919063ffffffff16565b600091825260036020526040909120556001016113eb565b50846001600160a01b031660006001600160a01b0316826001600160a01b03167f4a39dc06d4c0dbc64b70af90fd698a233a518aa5d07e595d983b8c0526c8f7fb87876040516115c3929190612156565b60405180910390a4610d4081600087878787610e94565b60408051600180825281830190925260609182919060208083019080368337019050509050828160008151811061160d57fe5b602090810291909101015292915050565b611630846001600160a01b0316611a31565b156106bf576040517ff23a6e610000000000000000000000000000000000000000000000000000000081526001600160a01b0385169063f23a6e61906116829089908990889088908890600401612100565b602060405180830381600087803b15801561169c57600080fd5b505af19250505080156116ea575060408051601f3d9081017fffffffffffffffffffffffffffffffffffffffffffffffffffffffffffffffe01682019092526116e791810190611f96565b60015b6116f657610f6c6126ba565b7fffffffff0000000000000000000000000000000000000000000000000000000081167ff23a6e61000000000000000000000000000000000000000000000000000000001461100a5760405162461bcd60e51b815260040161029d906121ff565b5490565b600090815260036020526040902054151590565b815460009082106117b15760405162461bcd60e51b81526004018080602001828103825260228152602001806127cd6022913960400191505060405180910390fd5b8260000182815481106117c057fe5b9060005260206000200154905092915050565b600082815260018401602052604081205482816118315760405162461bcd60e51b8152602060048201818152835160248401528351909283926044909101919085019080838360008315610df7578181015183820152602001610ddf565b5084600001600182038154811061184457fe5b9060005260206000209060020201600101549150509392505050565b600061041c8383611a85565b600081815260018301602052604081205480156119465783547fffffffffffffffffffffffffffffffffffffffffffffffffffffffffffffffff80830191908101906000908790839081106118bd57fe5b90600052602060002001549050808760000184815481106118da57fe5b60009182526020808320909101929092558281526001898101909252604090209084019055865487908061190a57fe5b600190038181906000526020600020016000905590558660010160008781526020019081526020016000206000905560019450505050506102cb565b60009150506102cb565b600061195c8383611a85565b611992575081546001818101845560008481526020808220909301849055845484825282860190935260409020919091556102cb565b5060006102cb565b6000828152600184016020526040812054806119ff57505060408051808201825283815260208082018481528654600181810189556000898152848120955160029093029095019182559151908201558654868452818801909252929091205561041c565b82856000016001830381548110611a1257fe5b906000526020600020906002020160010181905550600091505061041c565b3b151590565b600061041c8383611a9d565b600061041c83836040518060400160405280601e81526020017f536166654d6174683a207375627472616374696f6e206f766572666c6f770000815250610da3565b60009081526001919091016020526040902054151590565b600081815260018301602052604081205480156119465783547fffffffffffffffffffffffffffffffffffffffffffffffffffffffffffffffff8083019190810190600090879083908110611aee57fe5b9060005260206000209060020201905080876000018481548110611b0e57fe5b600091825260208083208454600290930201918255600193840154918401919091558354825289830190526040902090840190558654879080611b4d57fe5b6000828152602080822060027fffffffffffffffffffffffffffffffffffffffffffffffffffffffffffffffff90940193840201828155600190810183905592909355888152898201909252604082209190915594506102cb9350505050565b80356001600160a01b038116811461030757600080fd5b600082601f830112611bd4578081fd5b8135611be7611be282612696565b612672565b818152915060208083019084810181840286018201871015611c0857600080fd5b60005b84811015611c2757813584529282019290820190600101611c0b565b505050505092915050565b600082601f830112611c42578081fd5b813567ffffffffffffffff811115611c5657fe5b611c8760207fffffffffffffffffffffffffffffffffffffffffffffffffffffffffffffffe0601f84011601612672565b9150808252836020828501011115611c9e57600080fd5b8060208401602084013760009082016020015292915050565b600060208284031215611cc8578081fd5b61041c82611bad565b60008060408385031215611ce3578081fd5b611cec83611bad565b9150611cfa60208401611bad565b90509250929050565b600080600080600060a08688031215611d1a578081fd5b611d2386611bad565b9450611d3160208701611bad565b9350604086013567ffffffffffffffff80821115611d4d578283fd5b611d5989838a01611bc4565b94506060880135915080821115611d6e578283fd5b611d7a89838a01611bc4565b93506080880135915080821115611d8f578283fd5b50611d9c88828901611c32565b9150509295509295909350565b600080600080600060a08688031215611dc0578081fd5b611dc986611bad565b9450611dd760208701611bad565b93506040860135925060608601359150608086013567ffffffffffffffff811115611e00578182fd5b611d9c88828901611c32565b60008060408385031215611e1e578182fd5b611e2783611bad565b915060208301358015158114611e3b578182fd5b809150509250929050565b60008060408385031215611e58578182fd5b611e6183611bad565b946020939093013593505050565b60008060408385031215611e81578182fd5b823567ffffffffffffffff80821115611e98578384fd5b818501915085601f830112611eab578384fd5b8135611eb9611be282612696565b80828252602080830192508086018a828387028901011115611ed9578889fd5b8896505b84871015611f0257611eee81611bad565b845260019690960195928101928101611edd565b509096508701359350505080821115611f19578283fd5b50611f2685828601611bc4565b9150509250929050565b60008060408385031215611f42578182fd5b823567ffffffffffffffff80821115611f59578384fd5b611f6586838701611bc4565b93506020850135915080821115611f19578283fd5b600060208284031215611f8b578081fd5b813561041c8161279b565b600060208284031215611fa7578081fd5b815161041c8161279b565b600060208284031215611fc3578081fd5b5035919050565b60008060408385031215611fdc578182fd5b50508035926020909101359150565b6000815180845260208085019450808401835b8381101561201a57815187529582019590820190600101611ffe565b509495945050505050565b60008151808452815b8181101561204a5760208185018101518683018201520161202e565b8181111561205b5782602083870101525b50601f017fffffffffffffffffffffffffffffffffffffffffffffffffffffffffffffffe0169290920160200192915050565b6001600160a01b0391909116815260200190565b60006001600160a01b03808816835280871660208401525060a060408301526120ce60a0830186611feb565b82810360608401526120e08186611feb565b905082810360808401526120f48185612025565b98975050505050505050565b60006001600160a01b03808816835280871660208401525084604083015283606083015260a0608083015261213860a0830184612025565b979650505050505050565b60006020825261041c6020830184611feb565b6000604082526121696040830185611feb565b828103602084015261217b8185611feb565b95945050505050565b901515815260200190565b60006020825261041c6020830184612025565b60208082526034908201527f455243313135353a207472616e7366657220746f206e6f6e204552433131353560408201527f526563656976657220696d706c656d656e746572000000000000000000000000606082015260800190565b60208082526028908201527f455243313135353a204552433131353552656365697665722072656a6563746560408201527f6420746f6b656e73000000000000000000000000000000000000000000000000606082015260800190565b6020808252602b908201527f455243313135353a2062616c616e636520717565727920666f7220746865207a60408201527f65726f2061646472657373000000000000000000000000000000000000000000606082015260800190565b60208082526031908201527f455243313135353a2062617463682062616c616e636520717565727920666f7260408201527f20746865207a65726f2061646472657373000000000000000000000000000000606082015260800190565b60208082526029908201527f455243313135353a2063616c6c6572206973206e6f74206f776e6572206e6f7260408201527f20617070726f7665640000000000000000000000000000000000000000000000606082015260800190565b60208082526025908201527f455243313135353a207472616e7366657220746f20746865207a65726f20616460408201527f6472657373000000000000000000000000000000000000000000000000000000606082015260800190565b60208082526032908201527f455243313135353a207472616e736665722063616c6c6572206973206e6f742060408201527f6f776e6572206e6f7220617070726f7665640000000000000000000000000000606082015260800190565b60208082526023908201527f455243313135353a206275726e2066726f6d20746865207a65726f206164647260408201527f6573730000000000000000000000000000000000000000000000000000000000606082015260800190565b60208082526021908201527f455243313135353a204e465420746f6b656e20616c7265616479206d696e746560408201527f6400000000000000000000000000000000000000000000000000000000000000606082015260800190565b60208082526029908201527f455243313135353a2073657474696e6720617070726f76616c2073746174757360408201527f20666f722073656c660000000000000000000000000000000000000000000000606082015260800190565b60208082526029908201527f455243313135353a206163636f756e747320616e6420696473206c656e67746860408201527f206d69736d617463680000000000000000000000000000000000000000000000606082015260800190565b60208082526028908201527f455243313135353a2069647320616e6420616d6f756e7473206c656e6774682060408201527f6d69736d61746368000000000000000000000000000000000000000000000000606082015260800190565b60208082526021908201527f455243313135353a206d696e7420746f20746865207a65726f2061646472657360408201527f7300000000000000000000000000000000000000000000000000000000000000606082015260800190565b90815260200190565b918252602082015260400190565b60405181810167ffffffffffffffff8111828210171561268e57fe5b604052919050565b600067ffffffffffffffff8211156126aa57fe5b5060209081020190565b60e01c90565b600060443d10156126ca576103d1565b600481823e6308c379a06126de82516126b4565b146126e8576103d1565b6040517ffffffffffffffffffffffffffffffffffffffffffffffffffffffffffffffffc3d016004823e80513d67ffffffffffffffff816024840111818411171561273657505050506103d1565b8284019250825191508082111561275057505050506103d1565b503d83016020828401011115612768575050506103d1565b601f017fffffffffffffffffffffffffffffffffffffffffffffffffffffffffffffffe016810160200160405291505090565b7fffffffff00000000000000000000000000000000000000000000000000000000811681146127c957600080fd5b5056fe456e756d657261626c655365743a20696e646578206f7574206f6620626f756e6473455243313135353a206275726e20616d6f756e7420657863656564732062616c616e6365455243313135353a206f776e657220717565727920666f72206e6f6e6578697374656e7420746f6b656e455243313135353a20696e73756666696369656e742062616c616e636520666f72207472616e73666572a264697066735822122066d4a86bcab5f09bab8caab5a24c18d2a28338d4e7f9f7fb538f4f2e1b67614364736f6c63430007040033",
  "immutableReferences": {},
  "source": "// SPDX-License-Identifier: MIT\npragma solidity ^0.7.4;\npragma experimental ABIEncoderV2;\n\nimport \"../tokens/ERC1155.sol\";\n\ncontract ERC1155Mock is ERC1155 {\n\n    constructor() ERC1155(\"\") {}\n\n    function mint(uint256 id, uint256 amount) public {\n        _mint(_msgSender(), id, amount, \"\");\n    }\n\n    function mintBatch(uint256[] memory ids, uint256[] memory amounts) public {\n        _mintBatch(_msgSender(), ids, amounts, \"\");\n    }\n\n    function burn(uint256 id, uint256 amount) public {\n        _burn(_msgSender(), id, amount);\n    }\n\n    function burnBatch(uint256[] memory ids, uint256[] memory amounts) public {\n        _burnBatch(_msgSender(), ids, amounts);\n    }\n}",
  "sourcePath": "/home/artem/Projects/Distributed_Lab/Applicature/bridgemutual-core/contracts/mock/ERC1155Mock.sol",
  "compiler": {
    "name": "solc",
    "version": "0.7.4+commit.3f05b770.Emscripten.clang"
  },
  "schemaVersion": "3.3.3",
  "updatedAt": "2021-01-25T17:02:31.954Z",
  "devdoc": {
    "kind": "dev",
    "methods": {
      "balanceOf(address,uint256)": {
        "details": "Returns the amount of tokens of token type `id` owned by `account`. Requirements: - `account` cannot be the zero address."
      },
      "balanceOfBatch(address[],uint256[])": {
        "details": "xref:ROOT:erc1155.adoc#batch-operations[Batched] version of {balanceOf}. Requirements: - `accounts` and `ids` must have the same length."
      },
      "isApprovedForAll(address,address)": {
        "details": "Returns true if `operator` is approved to transfer ``account``'s tokens. See {setApprovalForAll}."
      },
      "safeBatchTransferFrom(address,address,uint256[],uint256[],bytes)": {
        "details": "xref:ROOT:erc1155.adoc#batch-operations[Batched] version of {safeTransferFrom}. Emits a {TransferBatch} event. Requirements: - `ids` and `amounts` must have the same length. - If `to` refers to a smart contract, it must implement {IERC1155Receiver-onERC1155BatchReceived} and return the acceptance magic value."
      },
      "safeTransferFrom(address,address,uint256,uint256,bytes)": {
        "details": "Transfers `amount` tokens of token type `id` from `from` to `to`. Emits a {TransferSingle} event. Requirements: - `to` cannot be the zero address. - If the caller is not `from`, it must be have been approved to spend ``from``'s tokens via {setApprovalForAll}. - `from` must have a balance of tokens of type `id` of at least `amount`. - If `to` refers to a smart contract, it must implement {IERC1155Receiver-onERC1155Received} and return the acceptance magic value."
      },
      "setApprovalForAll(address,bool)": {
        "details": "Grants or revokes permission to `operator` to transfer the caller's tokens, according to `approved`, Emits an {ApprovalForAll} event. Requirements: - `operator` cannot be the caller."
      },
      "supportsInterface(bytes4)": {
        "details": "See {IERC165-supportsInterface}. Time complexity O(1), guaranteed to always use less than 30 000 gas."
      }
    },
    "version": 1
  },
  "userdoc": {
    "kind": "user",
    "methods": {},
    "version": 1
  }
}