{
  "contractName": "ERC1155NFTMintableBurnable",
  "abi": [
    {
      "inputs": [
        {
          "internalType": "string",
          "name": "name_",
          "type": "string"
        },
        {
          "internalType": "string",
          "name": "symbol_",
          "type": "string"
        }
      ],
      "stateMutability": "nonpayable",
      "type": "constructor"
    },
    {
      "anonymous": false,
      "inputs": [
        {
          "indexed": true,
          "internalType": "address",
          "name": "owner",
          "type": "address"
        },
        {
          "indexed": true,
          "internalType": "address",
          "name": "spender",
          "type": "address"
        },
        {
          "indexed": false,
          "internalType": "uint256",
          "name": "value",
          "type": "uint256"
        }
      ],
      "name": "Approval",
      "type": "event"
    },
    {
      "anonymous": false,
      "inputs": [
        {
          "indexed": true,
          "internalType": "address",
          "name": "account",
          "type": "address"
        },
        {
          "indexed": true,
          "internalType": "address",
          "name": "operator",
          "type": "address"
        },
        {
          "indexed": false,
          "internalType": "bool",
          "name": "approved",
          "type": "bool"
        }
      ],
      "name": "ApprovalForAll",
      "type": "event"
    },
    {
      "anonymous": false,
      "inputs": [
        {
          "indexed": true,
          "internalType": "address",
          "name": "previousOwner",
          "type": "address"
        },
        {
          "indexed": true,
          "internalType": "address",
          "name": "newOwner",
          "type": "address"
        }
      ],
      "name": "OwnershipTransferred",
      "type": "event"
    },
    {
      "anonymous": false,
      "inputs": [
        {
          "indexed": true,
          "internalType": "address",
          "name": "from",
          "type": "address"
        },
        {
          "indexed": true,
          "internalType": "address",
          "name": "to",
          "type": "address"
        },
        {
          "indexed": false,
          "internalType": "uint256",
          "name": "value",
          "type": "uint256"
        }
      ],
      "name": "Transfer",
      "type": "event"
    },
    {
      "anonymous": false,
      "inputs": [
        {
          "indexed": true,
          "internalType": "address",
          "name": "operator",
          "type": "address"
        },
        {
          "indexed": true,
          "internalType": "address",
          "name": "from",
          "type": "address"
        },
        {
          "indexed": true,
          "internalType": "address",
          "name": "to",
          "type": "address"
        },
        {
          "indexed": false,
          "internalType": "uint256[]",
          "name": "ids",
          "type": "uint256[]"
        },
        {
          "indexed": false,
          "internalType": "uint256[]",
          "name": "values",
          "type": "uint256[]"
        }
      ],
      "name": "TransferBatch",
      "type": "event"
    },
    {
      "anonymous": false,
      "inputs": [
        {
          "indexed": true,
          "internalType": "address",
          "name": "operator",
          "type": "address"
        },
        {
          "indexed": true,
          "internalType": "address",
          "name": "from",
          "type": "address"
        },
        {
          "indexed": true,
          "internalType": "address",
          "name": "to",
          "type": "address"
        },
        {
          "indexed": false,
          "internalType": "uint256",
          "name": "id",
          "type": "uint256"
        },
        {
          "indexed": false,
          "internalType": "uint256",
          "name": "value",
          "type": "uint256"
        }
      ],
      "name": "TransferSingle",
      "type": "event"
    },
    {
      "anonymous": false,
      "inputs": [
        {
          "indexed": false,
          "internalType": "string",
          "name": "value",
          "type": "string"
        },
        {
          "indexed": true,
          "internalType": "uint256",
          "name": "id",
          "type": "uint256"
        }
      ],
      "name": "URI",
      "type": "event"
    },
    {
      "inputs": [
        {
          "internalType": "address",
          "name": "owner",
          "type": "address"
        },
        {
          "internalType": "address",
          "name": "spender",
          "type": "address"
        }
      ],
      "name": "allowance",
      "outputs": [
        {
          "internalType": "uint256",
          "name": "",
          "type": "uint256"
        }
      ],
      "stateMutability": "view",
      "type": "function"
    },
    {
      "inputs": [
        {
          "internalType": "address",
          "name": "spender",
          "type": "address"
        },
        {
          "internalType": "uint256",
          "name": "amount",
          "type": "uint256"
        }
      ],
      "name": "approve",
      "outputs": [
        {
          "internalType": "bool",
          "name": "",
          "type": "bool"
        }
      ],
      "stateMutability": "nonpayable",
      "type": "function"
    },
    {
      "inputs": [
        {
          "internalType": "address",
          "name": "account",
          "type": "address"
        },
        {
          "internalType": "uint256",
          "name": "id",
          "type": "uint256"
        }
      ],
      "name": "balanceOf",
      "outputs": [
        {
          "internalType": "uint256",
          "name": "",
          "type": "uint256"
        }
      ],
      "stateMutability": "view",
      "type": "function"
    },
    {
      "inputs": [
        {
          "internalType": "address",
          "name": "account",
          "type": "address"
        }
      ],
      "name": "balanceOf",
      "outputs": [
        {
          "internalType": "uint256",
          "name": "",
          "type": "uint256"
        }
      ],
      "stateMutability": "view",
      "type": "function"
    },
    {
      "inputs": [
        {
          "internalType": "address[]",
          "name": "accounts",
          "type": "address[]"
        },
        {
          "internalType": "uint256[]",
          "name": "ids",
          "type": "uint256[]"
        }
      ],
      "name": "balanceOfBatch",
      "outputs": [
        {
          "internalType": "uint256[]",
          "name": "",
          "type": "uint256[]"
        }
      ],
      "stateMutability": "view",
      "type": "function"
    },
    {
      "inputs": [
        {
          "internalType": "address",
          "name": "owner",
          "type": "address"
        }
      ],
      "name": "balanceOfNFT",
      "outputs": [
        {
          "internalType": "uint256",
          "name": "",
          "type": "uint256"
        }
      ],
      "stateMutability": "view",
      "type": "function"
    },
    {
      "inputs": [],
      "name": "decimals",
      "outputs": [
        {
          "internalType": "uint8",
          "name": "",
          "type": "uint8"
        }
      ],
      "stateMutability": "view",
      "type": "function"
    },
    {
      "inputs": [
        {
          "internalType": "address",
          "name": "spender",
          "type": "address"
        },
        {
          "internalType": "uint256",
          "name": "subtractedValue",
          "type": "uint256"
        }
      ],
      "name": "decreaseAllowance",
      "outputs": [
        {
          "internalType": "bool",
          "name": "",
          "type": "bool"
        }
      ],
      "stateMutability": "nonpayable",
      "type": "function"
    },
    {
      "inputs": [
        {
          "internalType": "address",
          "name": "spender",
          "type": "address"
        },
        {
          "internalType": "uint256",
          "name": "addedValue",
          "type": "uint256"
        }
      ],
      "name": "increaseAllowance",
      "outputs": [
        {
          "internalType": "bool",
          "name": "",
          "type": "bool"
        }
      ],
      "stateMutability": "nonpayable",
      "type": "function"
    },
    {
      "inputs": [
        {
          "internalType": "address",
          "name": "account",
          "type": "address"
        },
        {
          "internalType": "address",
          "name": "operator",
          "type": "address"
        }
      ],
      "name": "isApprovedForAll",
      "outputs": [
        {
          "internalType": "bool",
          "name": "",
          "type": "bool"
        }
      ],
      "stateMutability": "view",
      "type": "function"
    },
    {
      "inputs": [],
      "name": "name",
      "outputs": [
        {
          "internalType": "string",
          "name": "",
          "type": "string"
        }
      ],
      "stateMutability": "view",
      "type": "function"
    },
    {
      "inputs": [],
      "name": "owner",
      "outputs": [
        {
          "internalType": "address",
          "name": "",
          "type": "address"
        }
      ],
      "stateMutability": "view",
      "type": "function"
    },
    {
      "inputs": [
        {
          "internalType": "uint256",
          "name": "tokenId",
          "type": "uint256"
        }
      ],
      "name": "ownerOfNFT",
      "outputs": [
        {
          "internalType": "address",
          "name": "",
          "type": "address"
        }
      ],
      "stateMutability": "view",
      "type": "function"
    },
    {
      "inputs": [],
      "name": "renounceOwnership",
      "outputs": [],
      "stateMutability": "nonpayable",
      "type": "function"
    },
    {
      "inputs": [
        {
          "internalType": "address",
          "name": "from",
          "type": "address"
        },
        {
          "internalType": "address",
          "name": "to",
          "type": "address"
        },
        {
          "internalType": "uint256[]",
          "name": "ids",
          "type": "uint256[]"
        },
        {
          "internalType": "uint256[]",
          "name": "amounts",
          "type": "uint256[]"
        },
        {
          "internalType": "bytes",
          "name": "data",
          "type": "bytes"
        }
      ],
      "name": "safeBatchTransferFrom",
      "outputs": [],
      "stateMutability": "nonpayable",
      "type": "function"
    },
    {
      "inputs": [
        {
          "internalType": "address",
          "name": "from",
          "type": "address"
        },
        {
          "internalType": "address",
          "name": "to",
          "type": "address"
        },
        {
          "internalType": "uint256",
          "name": "id",
          "type": "uint256"
        },
        {
          "internalType": "uint256",
          "name": "amount",
          "type": "uint256"
        },
        {
          "internalType": "bytes",
          "name": "data",
          "type": "bytes"
        }
      ],
      "name": "safeTransferFrom",
      "outputs": [],
      "stateMutability": "nonpayable",
      "type": "function"
    },
    {
      "inputs": [
        {
          "internalType": "address",
          "name": "operator",
          "type": "address"
        },
        {
          "internalType": "bool",
          "name": "approved",
          "type": "bool"
        }
      ],
      "name": "setApprovalForAll",
      "outputs": [],
      "stateMutability": "nonpayable",
      "type": "function"
    },
    {
      "inputs": [
        {
          "internalType": "bytes4",
          "name": "interfaceId",
          "type": "bytes4"
        }
      ],
      "name": "supportsInterface",
      "outputs": [
        {
          "internalType": "bool",
          "name": "",
          "type": "bool"
        }
      ],
      "stateMutability": "view",
      "type": "function"
    },
    {
      "inputs": [],
      "name": "symbol",
      "outputs": [
        {
          "internalType": "string",
          "name": "",
          "type": "string"
        }
      ],
      "stateMutability": "view",
      "type": "function"
    },
    {
      "inputs": [
        {
          "internalType": "address",
          "name": "owner",
          "type": "address"
        },
        {
          "internalType": "uint256",
          "name": "index",
          "type": "uint256"
        }
      ],
      "name": "tokenOfOwnerByIndexNFT",
      "outputs": [
        {
          "internalType": "uint256",
          "name": "",
          "type": "uint256"
        }
      ],
      "stateMutability": "view",
      "type": "function"
    },
    {
      "inputs": [],
      "name": "totalSupply",
      "outputs": [
        {
          "internalType": "uint256",
          "name": "",
          "type": "uint256"
        }
      ],
      "stateMutability": "view",
      "type": "function"
    },
    {
      "inputs": [],
      "name": "totalSupplyNFT",
      "outputs": [
        {
          "internalType": "uint256",
          "name": "",
          "type": "uint256"
        }
      ],
      "stateMutability": "view",
      "type": "function"
    },
    {
      "inputs": [
        {
          "internalType": "address",
          "name": "recipient",
          "type": "address"
        },
        {
          "internalType": "uint256",
          "name": "amount",
          "type": "uint256"
        }
      ],
      "name": "transfer",
      "outputs": [
        {
          "internalType": "bool",
          "name": "",
          "type": "bool"
        }
      ],
      "stateMutability": "nonpayable",
      "type": "function"
    },
    {
      "inputs": [
        {
          "internalType": "address",
          "name": "sender",
          "type": "address"
        },
        {
          "internalType": "address",
          "name": "recipient",
          "type": "address"
        },
        {
          "internalType": "uint256",
          "name": "amount",
          "type": "uint256"
        }
      ],
      "name": "transferFrom",
      "outputs": [
        {
          "internalType": "bool",
          "name": "",
          "type": "bool"
        }
      ],
      "stateMutability": "nonpayable",
      "type": "function"
    },
    {
      "inputs": [
        {
          "internalType": "address",
          "name": "newOwner",
          "type": "address"
        }
      ],
      "name": "transferOwnership",
      "outputs": [],
      "stateMutability": "nonpayable",
      "type": "function"
    },
    {
      "inputs": [
        {
          "internalType": "address",
          "name": "account",
          "type": "address"
        },
        {
          "internalType": "uint256",
          "name": "id",
          "type": "uint256"
        },
        {
          "internalType": "uint256",
          "name": "amount",
          "type": "uint256"
        },
        {
          "internalType": "bytes",
          "name": "data",
          "type": "bytes"
        }
      ],
      "name": "mintNFT",
      "outputs": [],
      "stateMutability": "nonpayable",
      "type": "function"
    },
    {
      "inputs": [
        {
          "internalType": "address",
          "name": "account",
          "type": "address"
        },
        {
          "internalType": "uint256",
          "name": "id",
          "type": "uint256"
        },
        {
          "internalType": "uint256",
          "name": "amount",
          "type": "uint256"
        }
      ],
      "name": "burnNFT",
      "outputs": [],
      "stateMutability": "nonpayable",
      "type": "function"
    }
  ],
  "bytecode": "0x60806040523480156200001157600080fd5b50604051620032d7380380620032d78339810160408190526200003491620002e0565b8181620000486301ffc9a760e01b620000cb565b62000054828262000150565b62000066636cdb3d1360e11b620000cb565b5060009050620000756200018d565b600b80546001600160a01b0319166001600160a01b038316908117909155604051919250906000907f8be0079c531659141344cd1fd0a4f28419497f9722a3daafe3b4186f6b6457e0908290a350505062000347565b6001600160e01b031980821614156200012b576040805162461bcd60e51b815260206004820152601c60248201527f4552433136353a20696e76616c696420696e7465726661636520696400000000604482015290519081900360640190fd5b6001600160e01b0319166000908152602081905260409020805460ff19166001179055565b81516200016590600190602085019062000191565b5080516200017b90600290602084019062000191565b50506003805460ff1916601217905550565b3390565b828054600181600116156101000203166002900490600052602060002090601f016020900481019282620001c9576000855562000214565b82601f10620001e457805160ff191683800117855562000214565b8280016001018555821562000214579182015b8281111562000214578251825591602001919060010190620001f7565b506200022292915062000226565b5090565b5b8082111562000222576000815560010162000227565b600082601f8301126200024e578081fd5b81516001600160401b03808211156200026357fe5b6040516020601f8401601f19168201810183811183821017156200028357fe5b80604052508194508382528681858801011115620002a057600080fd5b600092505b83831015620002c45785830181015182840182015291820191620002a5565b83831115620002d65760008185840101525b5050505092915050565b60008060408385031215620002f3578182fd5b82516001600160401b03808211156200030a578384fd5b62000318868387016200023d565b935060208501519150808211156200032e578283fd5b506200033d858286016200023d565b9150509250929050565b612f8080620003576000396000f3fe608060405234801561001057600080fd5b50600436106101b85760003560e01c80634e1273f4116100f9578063a9059cbb11610097578063e985e9c511610071578063e985e9c51461037e578063f242432a14610391578063f2fde38b146103a4578063f5b100ea146103b7576101b8565b8063a9059cbb14610350578063b0ea6a8414610363578063dd62ed3e1461036b576101b8565b80638da5cb5b116100d35780638da5cb5b1461031a57806395d89b4114610322578063a22cb4651461032a578063a457c2d71461033d576101b8565b80634e1273f4146102df57806370a08231146102ff578063715018a614610312576101b8565b80631dcb46f6116101665780632eb2c2d6116101405780632eb2c2d614610291578063313ce567146102a457806339509351146102b95780634b641181146102cc576101b8565b80631dcb46f61461024b57806323b872dd1461025e5780632d8a746e14610271576101b8565b8063095ea7b311610197578063095ea7b31461021b57806318160ddd1461022e5780631cc509fd14610236576101b8565b8062fdd58e146101bd57806301ffc9a7146101e657806306fdde0314610206575b600080fd5b6101d06101cb3660046122e9565b6103ca565b6040516101dd9190612c98565b60405180910390f35b6101f96101f4366004612464565b610426565b6040516101dd919061264d565b61020e610461565b6040516101dd9190612658565b6101f96102293660046122e9565b61050c565b6101d0610529565b610249610244366004612312565b610559565b005b6101d06102593660046122e9565b6105d3565b6101f961026c366004612211565b6105fc565b61028461027f36600461249c565b610683565b6040516101dd9190612557565b61024961029f36600461216b565b6106ab565b6102ac610940565b6040516101dd9190612caf565b6101f96102c73660046122e9565b610949565b6102496102da366004612344565b610997565b6102f26102ed3660046123a3565b610a13565b6040516101dd919061260c565b6101d061030d36600461211f565b610b53565b610249610b8d565b610284610c59565b61020e610c68565b6102496103383660046122af565b610cde565b6101f961034b3660046122e9565b610dca565b6101f961035e3660046122e9565b610e32565b6101d0610e46565b6101d0610379366004612139565b610e57565b6101f961038c366004612139565b610e82565b61024961039f36600461224c565b610eb0565b6102496103b236600461211f565b6110ba565b6101d06103c536600461211f565b6111dd565b60006001600160a01b0383166103fb5760405162461bcd60e51b81526004016103f290612782565b60405180910390fd5b5060008181526005602090815260408083206001600160a01b03861684529091529020545b92915050565b7fffffffff00000000000000000000000000000000000000000000000000000000811660009081526020819052604090205460ff165b919050565b60018054604080516020600284861615610100027fffffffffffffffffffffffffffffffffffffffffffffffffffffffffffffffff0190941693909304601f810184900484028201840190925281815292918301828280156105045780601f106104d957610100808354040283529160200191610504565b820191906000526020600020905b8154815290600101906020018083116104e757829003601f168201915b505050505081565b6000610520610519611226565b848461122a565b50600192915050565b600160005260046020527fabd6e7cb50984ff9c2f3e18a2660c3353dadf4e3291deeb275dae2cd1e44fe05545b90565b610561611226565b600b546001600160a01b039081169116146105c3576040805162461bcd60e51b815260206004820181905260248201527f4f776e61626c653a2063616c6c6572206973206e6f7420746865206f776e6572604482015290519081900360640190fd5b6105ce8383836112de565b505050565b6001600160a01b03821660009081526008602052604081206105f59083611456565b9392505050565b6000610609848484611462565b61067984610615611226565b61067485604051806060016040528060288152602001612efe602891396001600160a01b038a16600090815260076020526040812090610653611226565b6001600160a01b0316815260208101919091526040016000205491906115d4565b61122a565b5060019392505050565b6000610420826040518060600160405280602a8152602001612eaa602a91396009919061166b565b81518351146106cc5760405162461bcd60e51b81526004016103f290612bde565b6001600160a01b0384166106f25760405162461bcd60e51b81526004016103f2906128f6565b6106fa611226565b6001600160a01b0316856001600160a01b0316148061072057506107208561038c611226565b61073c5760405162461bcd60e51b81526004016103f290612953565b6000610746611226565b9050610756818787878787610938565b60005b84518110156108d257600085828151811061077057fe5b60200260200101519050600085838151811061078857fe5b6020026020010151905060018214156107a6576107a68989836105ce565b6107af82611680565b15610808576001600160a01b03891660009081526008602052604090206107d6908361168d565b506001600160a01b03881660009081526008602052604090206107f99083611699565b506108066009838a6116a5565b505b61086b816040518060600160405280602a8152602001612ed4602a91396005600086815260200190815260200160002060008d6001600160a01b03166001600160a01b03168152602001908152602001600020546115d49092919063ffffffff16565b60008381526005602090815260408083206001600160a01b038e811685529252808320939093558a16815220546108a290826116bb565b60009283526005602090815260408085206001600160a01b038c1686529091529092209190915550600101610759565b50846001600160a01b0316866001600160a01b0316826001600160a01b03167f4a39dc06d4c0dbc64b70af90fd698a233a518aa5d07e595d983b8c0526c8f7fb878760405161092292919061261f565b60405180910390a4610938818787878787611715565b505050505050565b60035460ff1681565b6000610520610956611226565b846106748560076000610967611226565b6001600160a01b03908116825260208083019390935260409182016000908120918c1681529252902054906116bb565b61099f611226565b600b546001600160a01b03908116911614610a01576040805162461bcd60e51b815260206004820181905260248201527f4f776e61626c653a2063616c6c6572206973206e6f7420746865206f776e6572604482015290519081900360640190fd5b610a0d84848484611894565b50505050565b60608151835114610a365760405162461bcd60e51b81526004016103f290612b81565b6060835167ffffffffffffffff81118015610a5057600080fd5b50604051908082528060200260200182016040528015610a7a578160200160208202803683370190505b50905060005b8451811015610b4b5760006001600160a01b0316858281518110610aa057fe5b60200260200101516001600160a01b03161415610acf5760405162461bcd60e51b81526004016103f2906127df565b60056000858381518110610adf57fe5b602002602001015181526020019081526020016000206000868381518110610b0357fe5b60200260200101516001600160a01b03166001600160a01b0316815260200190815260200160002054828281518110610b3857fe5b6020908102919091010152600101610a80565b509392505050565b6001600160a01b031660009081527f1471eb6eb2c5e789fc3de43f8ce62938c7d1836ec861730447e2ada8fd81017b602052604090205490565b610b95611226565b600b546001600160a01b03908116911614610bf7576040805162461bcd60e51b815260206004820181905260248201527f4f776e61626c653a2063616c6c6572206973206e6f7420746865206f776e6572604482015290519081900360640190fd5b600b546040516000916001600160a01b0316907f8be0079c531659141344cd1fd0a4f28419497f9722a3daafe3b4186f6b6457e0908390a3600b80547fffffffffffffffffffffffff0000000000000000000000000000000000000000169055565b600b546001600160a01b031690565b600280546040805160206001841615610100027fffffffffffffffffffffffffffffffffffffffffffffffffffffffffffffffff01909316849004601f810184900484028201840190925281815292918301828280156105045780601f106104d957610100808354040283529160200191610504565b816001600160a01b0316610cf0611226565b6001600160a01b03161415610d175760405162461bcd60e51b81526004016103f290612b24565b8060066000610d24611226565b6001600160a01b0390811682526020808301939093526040918201600090812091871680825291909352912080547fffffffffffffffffffffffffffffffffffffffffffffffffffffffffffffff001692151592909217909155610d86611226565b6001600160a01b03167f17307eab39ab6107e8899845ad3d59bd9653f200f220920489ca2b5937696c3183604051610dbe919061264d565b60405180910390a35050565b6000610520610dd7611226565b8461067485604051806060016040528060258152602001612f266025913960076000610e01611226565b6001600160a01b03908116825260208083019390935260409182016000908120918d168152925290205491906115d4565b6000610520610e3f611226565b8484611462565b6000610e526009611a37565b905090565b6001600160a01b03918216600090815260076020908152604080832093909416825291909152205490565b6001600160a01b03918216600090815260066020908152604080832093909416825291909152205460ff1690565b6001600160a01b038416610ed65760405162461bcd60e51b81526004016103f2906128f6565b610ede611226565b6001600160a01b0316856001600160a01b03161480610f045750610f048561038c611226565b610f205760405162461bcd60e51b81526004016103f290612899565b6000610f2a611226565b9050610f4a818787610f3b88611a42565b610f4488611a42565b87610938565b6001841415610f5e57610f5e8686856105ce565b610f6784611680565b15610fc0576001600160a01b0386166000908152600860205260409020610f8e908561168d565b506001600160a01b0385166000908152600860205260409020610fb19085611699565b50610fbe600985876116a5565b505b611007836040518060600160405280602a8152602001612ed4602a913960008781526005602090815260408083206001600160a01b038d16845290915290205491906115d4565b60008581526005602090815260408083206001600160a01b038b8116855292528083209390935587168152205461103e90846116bb565b60008581526005602090815260408083206001600160a01b03808b168086529190935292819020939093559151909188811691908416907fc3d58168c5ae7397731d063d5bbf3d657854427343f4c083240f7aacaa2d0f62906110a49089908990612ca1565b60405180910390a4610938818787878787611a86565b6110c2611226565b600b546001600160a01b03908116911614611124576040805162461bcd60e51b815260206004820181905260248201527f4f776e61626c653a2063616c6c6572206973206e6f7420746865206f776e6572604482015290519081900360640190fd5b6001600160a01b0381166111695760405162461bcd60e51b8152600401808060200182810382526026815260200180612e3a6026913960400191505060405180910390fd5b600b546040516001600160a01b038084169216907f8be0079c531659141344cd1fd0a4f28419497f9722a3daafe3b4186f6b6457e090600090a3600b80547fffffffffffffffffffffffff0000000000000000000000000000000000000000166001600160a01b0392909216919091179055565b60006001600160a01b0382166112055760405162461bcd60e51b81526004016103f290612782565b6001600160a01b038216600090815260086020526040902061042090611a37565b3390565b6001600160a01b0383166112505760405162461bcd60e51b81526004016103f290612ac7565b6001600160a01b0382166112765760405162461bcd60e51b81526004016103f29061283c565b6001600160a01b0380841660008181526007602090815260408083209487168084529490915290819020849055517f8c5be1e5ebec7d5bd14f71427d1e84f3dd0314c0f7b2291e5b200ac8c7c3b925906112d1908590612c98565b60405180910390a3505050565b6001600160a01b0383166113045760405162461bcd60e51b81526004016103f2906129b0565b600061130e611226565b905061133e8185600061132087611a42565b61132987611a42565b60405180602001604052806000815250610938565b8115611374576001600160a01b0384166000908152600860205260409020611366908461168d565b50611372600984611bbf565b505b6113bb82604051806060016040528060248152602001612e606024913960008681526005602090815260408083206001600160a01b038b16845290915290205491906115d4565b60008481526005602090815260408083206001600160a01b03891684528252808320939093558582526004905220546113f49083611bcb565b6000848152600460205260408082209290925590516001600160a01b0386811691908416907fc3d58168c5ae7397731d063d5bbf3d657854427343f4c083240f7aacaa2d0f62906114489088908890612ca1565b60405180910390a450505050565b60006105f58383611c0d565b6001600160a01b0383166114885760405162461bcd60e51b81526004016103f290612a6a565b6001600160a01b0382166114ae5760405162461bcd60e51b81526004016103f2906126c8565b6114b98383836105ce565b61151581604051806060016040528060268152602001612e84602691396001600160a01b03861660009081527f1471eb6eb2c5e789fc3de43f8ce62938c7d1836ec861730447e2ada8fd81017b602052604090205491906115d4565b6001600160a01b0384811660009081527f1471eb6eb2c5e789fc3de43f8ce62938c7d1836ec861730447e2ada8fd81017b6020526040808220939093559084168152205461156390826116bb565b6001600160a01b0380841660008181527f1471eb6eb2c5e789fc3de43f8ce62938c7d1836ec861730447e2ada8fd81017b602052604090819020939093559151908516907fddf252ad1be2c89b69c2b068fc378daa952ba7f163c4a11628f55a4df523b3ef906112d1908590612c98565b600081848411156116635760405162461bcd60e51b81526004018080602001828103825283818151815260200191508051906020019080838360005b83811015611628578181015183820152602001611610565b50505050905090810190601f1680156116555780820380516001836020036101000a031916815260200191505b509250505060405180910390fd5b505050900390565b6000611678848484611c71565b949350505050565b6000610420600983611cfe565b60006105f58383611d0a565b60006105f58383611dee565b600061167884846001600160a01b038516611e38565b6000828201838110156105f5576040805162461bcd60e51b815260206004820152601b60248201527f536166654d6174683a206164646974696f6e206f766572666c6f770000000000604482015290519081900360640190fd5b611727846001600160a01b0316611ecf565b15610938576040517fbc197c810000000000000000000000000000000000000000000000000000000081526001600160a01b0385169063bc197c8190611779908990899088908890889060040161256b565b602060405180830381600087803b15801561179357600080fd5b505af19250505080156117e1575060408051601f3d9081017fffffffffffffffffffffffffffffffffffffffffffffffffffffffffffffffe01682019092526117de91810190612480565b60015b61182a576117ed612d05565b806117f85750611812565b8060405162461bcd60e51b81526004016103f29190612658565b60405162461bcd60e51b81526004016103f29061266b565b7fffffffff0000000000000000000000000000000000000000000000000000000081167fbc197c81000000000000000000000000000000000000000000000000000000001461188b5760405162461bcd60e51b81526004016103f290612725565b50505050505050565b6001600160a01b0384166118ba5760405162461bcd60e51b81526004016103f290612c3b565b8115806118cd57506118cb83611680565b155b6118e95760405162461bcd60e51b81526004016103f290612a0d565b60006118f3611226565b905061190581600087610f3b88611a42565b82600114801561191b575061191984611ed5565b155b8015611928575060018414155b1561195e576001600160a01b038516600090815260086020526040902061194f9085611699565b5061195c600985876116a5565b505b60008481526005602090815260408083206001600160a01b038916845290915290205461198b90846116bb565b60008581526005602090815260408083206001600160a01b038a1684528252808320939093558682526004905220546119c490846116bb565b6000858152600460205260408082209290925590516001600160a01b038088169291908416907fc3d58168c5ae7397731d063d5bbf3d657854427343f4c083240f7aacaa2d0f6290611a199089908990612ca1565b60405180910390a4611a3081600087878787611a86565b5050505050565b600061042082611ee9565b604080516001808252818301909252606091829190602080830190803683370190505090508281600081518110611a7557fe5b602090810291909101015292915050565b611a98846001600160a01b0316611ecf565b15610938576040517ff23a6e610000000000000000000000000000000000000000000000000000000081526001600160a01b0385169063f23a6e6190611aea90899089908890889088906004016125c9565b602060405180830381600087803b158015611b0457600080fd5b505af1925050508015611b52575060408051601f3d9081017fffffffffffffffffffffffffffffffffffffffffffffffffffffffffffffffe0168201909252611b4f91810190612480565b60015b611b5e576117ed612d05565b7fffffffff0000000000000000000000000000000000000000000000000000000081167ff23a6e61000000000000000000000000000000000000000000000000000000001461188b5760405162461bcd60e51b81526004016103f290612725565b60006105f58383611eed565b60006105f583836040518060400160405280601e81526020017f536166654d6174683a207375627472616374696f6e206f766572666c6f7700008152506115d4565b81546000908210611c4f5760405162461bcd60e51b8152600401808060200182810382526022815260200180612e186022913960400191505060405180910390fd5b826000018281548110611c5e57fe5b9060005260206000200154905092915050565b60008281526001840160205260408120548281611ccf5760405162461bcd60e51b8152602060048201818152835160248401528351909283926044909101919085019080838360008315611628578181015183820152602001611610565b50846000016001820381548110611ce257fe5b9060005260206000209060020201600101549150509392505050565b60006105f58383611ffd565b60008181526001830160205260408120548015611de45783547fffffffffffffffffffffffffffffffffffffffffffffffffffffffffffffffff8083019190810190600090879083908110611d5b57fe5b9060005260206000200154905080876000018481548110611d7857fe5b600091825260208083209091019290925582815260018981019092526040902090840190558654879080611da857fe5b60019003818190600052602060002001600090559055866001016000878152602001908152602001600020600090556001945050505050610420565b6000915050610420565b6000611dfa8383611ffd565b611e3057508154600181810184556000848152602080822090930184905584548482528286019093526040902091909155610420565b506000610420565b600082815260018401602052604081205480611e9d5750506040805180820182528381526020808201848152865460018181018955600089815284812095516002909302909501918255915190820155865486845281880190925292909120556105f5565b82856000016001830381548110611eb057fe5b90600052602060002090600202016001018190555060009150506105f5565b3b151590565b600090815260046020526040902054151590565b5490565b60008181526001830160205260408120548015611de45783547fffffffffffffffffffffffffffffffffffffffffffffffffffffffffffffffff8083019190810190600090879083908110611f3e57fe5b9060005260206000209060020201905080876000018481548110611f5e57fe5b600091825260208083208454600290930201918255600193840154918401919091558354825289830190526040902090840190558654879080611f9d57fe5b6000828152602080822060027fffffffffffffffffffffffffffffffffffffffffffffffffffffffffffffffff90940193840201828155600190810183905592909355888152898201909252604082209190915594506104209350505050565b60009081526001919091016020526040902054151590565b80356001600160a01b038116811461045c57600080fd5b600082601f83011261203c578081fd5b813561204f61204a82612ce1565b612cbd565b81815291506020808301908481018184028601820187101561207057600080fd5b60005b8481101561208f57813584529282019290820190600101612073565b505050505092915050565b600082601f8301126120aa578081fd5b813567ffffffffffffffff8111156120be57fe5b6120ef60207fffffffffffffffffffffffffffffffffffffffffffffffffffffffffffffffe0601f84011601612cbd565b915080825283602082850101111561210657600080fd5b8060208401602084013760009082016020015292915050565b600060208284031215612130578081fd5b6105f582612015565b6000806040838503121561214b578081fd5b61215483612015565b915061216260208401612015565b90509250929050565b600080600080600060a08688031215612182578081fd5b61218b86612015565b945061219960208701612015565b9350604086013567ffffffffffffffff808211156121b5578283fd5b6121c189838a0161202c565b945060608801359150808211156121d6578283fd5b6121e289838a0161202c565b935060808801359150808211156121f7578283fd5b506122048882890161209a565b9150509295509295909350565b600080600060608486031215612225578283fd5b61222e84612015565b925061223c60208501612015565b9150604084013590509250925092565b600080600080600060a08688031215612263578081fd5b61226c86612015565b945061227a60208701612015565b93506040860135925060608601359150608086013567ffffffffffffffff8111156122a3578182fd5b6122048882890161209a565b600080604083850312156122c1578182fd5b6122ca83612015565b9150602083013580151581146122de578182fd5b809150509250929050565b600080604083850312156122fb578182fd5b61230483612015565b946020939093013593505050565b600080600060608486031215612326578283fd5b61232f84612015565b95602085013595506040909401359392505050565b60008060008060808587031215612359578384fd5b61236285612015565b93506020850135925060408501359150606085013567ffffffffffffffff81111561238b578182fd5b6123978782880161209a565b91505092959194509250565b600080604083850312156123b5578182fd5b823567ffffffffffffffff808211156123cc578384fd5b818501915085601f8301126123df578384fd5b81356123ed61204a82612ce1565b80828252602080830192508086018a82838702890101111561240d578889fd5b8896505b848710156124365761242281612015565b845260019690960195928101928101612411565b50909650870135935050508082111561244d578283fd5b5061245a8582860161202c565b9150509250929050565b600060208284031215612475578081fd5b81356105f581612de6565b600060208284031215612491578081fd5b81516105f581612de6565b6000602082840312156124ad578081fd5b5035919050565b6000815180845260208085019450808401835b838110156124e3578151875295820195908201906001016124c7565b509495945050505050565b60008151808452815b81811015612513576020818501810151868301820152016124f7565b818111156125245782602083870101525b50601f017fffffffffffffffffffffffffffffffffffffffffffffffffffffffffffffffe0169290920160200192915050565b6001600160a01b0391909116815260200190565b60006001600160a01b03808816835280871660208401525060a0604083015261259760a08301866124b4565b82810360608401526125a981866124b4565b905082810360808401526125bd81856124ee565b98975050505050505050565b60006001600160a01b03808816835280871660208401525084604083015283606083015260a0608083015261260160a08301846124ee565b979650505050505050565b6000602082526105f560208301846124b4565b60006040825261263260408301856124b4565b828103602084015261264481856124b4565b95945050505050565b901515815260200190565b6000602082526105f560208301846124ee565b60208082526034908201527f455243313135353a207472616e7366657220746f206e6f6e204552433131353560408201527f526563656976657220696d706c656d656e746572000000000000000000000000606082015260800190565b60208082526023908201527f45524332303a207472616e7366657220746f20746865207a65726f206164647260408201527f6573730000000000000000000000000000000000000000000000000000000000606082015260800190565b60208082526028908201527f455243313135353a204552433131353552656365697665722072656a6563746560408201527f6420746f6b656e73000000000000000000000000000000000000000000000000606082015260800190565b6020808252602b908201527f455243313135353a2062616c616e636520717565727920666f7220746865207a60408201527f65726f2061646472657373000000000000000000000000000000000000000000606082015260800190565b60208082526031908201527f455243313135353a2062617463682062616c616e636520717565727920666f7260408201527f20746865207a65726f2061646472657373000000000000000000000000000000606082015260800190565b60208082526022908201527f45524332303a20617070726f766520746f20746865207a65726f20616464726560408201527f7373000000000000000000000000000000000000000000000000000000000000606082015260800190565b60208082526029908201527f455243313135353a2063616c6c6572206973206e6f74206f776e6572206e6f7260408201527f20617070726f7665640000000000000000000000000000000000000000000000606082015260800190565b60208082526025908201527f455243313135353a207472616e7366657220746f20746865207a65726f20616460408201527f6472657373000000000000000000000000000000000000000000000000000000606082015260800190565b60208082526032908201527f455243313135353a207472616e736665722063616c6c6572206973206e6f742060408201527f6f776e6572206e6f7220617070726f7665640000000000000000000000000000606082015260800190565b60208082526023908201527f455243313135353a206275726e2066726f6d20746865207a65726f206164647260408201527f6573730000000000000000000000000000000000000000000000000000000000606082015260800190565b60208082526021908201527f455243313135353a204e465420746f6b656e20616c7265616479206d696e746560408201527f6400000000000000000000000000000000000000000000000000000000000000606082015260800190565b60208082526025908201527f45524332303a207472616e736665722066726f6d20746865207a65726f20616460408201527f6472657373000000000000000000000000000000000000000000000000000000606082015260800190565b60208082526024908201527f45524332303a20617070726f76652066726f6d20746865207a65726f2061646460408201527f7265737300000000000000000000000000000000000000000000000000000000606082015260800190565b60208082526029908201527f455243313135353a2073657474696e6720617070726f76616c2073746174757360408201527f20666f722073656c660000000000000000000000000000000000000000000000606082015260800190565b60208082526029908201527f455243313135353a206163636f756e747320616e6420696473206c656e67746860408201527f206d69736d617463680000000000000000000000000000000000000000000000606082015260800190565b60208082526028908201527f455243313135353a2069647320616e6420616d6f756e7473206c656e6774682060408201527f6d69736d61746368000000000000000000000000000000000000000000000000606082015260800190565b60208082526021908201527f455243313135353a206d696e7420746f20746865207a65726f2061646472657360408201527f7300000000000000000000000000000000000000000000000000000000000000606082015260800190565b90815260200190565b918252602082015260400190565b60ff91909116815260200190565b60405181810167ffffffffffffffff81118282101715612cd957fe5b604052919050565b600067ffffffffffffffff821115612cf557fe5b5060209081020190565b60e01c90565b600060443d1015612d1557610556565b600481823e6308c379a0612d298251612cff565b14612d3357610556565b6040517ffffffffffffffffffffffffffffffffffffffffffffffffffffffffffffffffc3d016004823e80513d67ffffffffffffffff8160248401118184111715612d815750505050610556565b82840192508251915080821115612d9b5750505050610556565b503d83016020828401011115612db357505050610556565b601f017fffffffffffffffffffffffffffffffffffffffffffffffffffffffffffffffe016810160200160405291505090565b7fffffffff0000000000000000000000000000000000000000000000000000000081168114612e1457600080fd5b5056fe456e756d657261626c655365743a20696e646578206f7574206f6620626f756e64734f776e61626c653a206e6577206f776e657220697320746865207a65726f2061646472657373455243313135353a206275726e20616d6f756e7420657863656564732062616c616e636545524332303a207472616e7366657220616d6f756e7420657863656564732062616c616e6365455243313135353a206f776e657220717565727920666f72206e6f6e6578697374656e7420746f6b656e455243313135353a20696e73756666696369656e742062616c616e636520666f72207472616e7366657245524332303a207472616e7366657220616d6f756e74206578636565647320616c6c6f77616e636545524332303a2064656372656173656420616c6c6f77616e63652062656c6f77207a65726fa26469706673582212204ca905083eae3e172500d01e15030bf7b18a1027c35abe165bca2b42211f660c64736f6c63430007040033",
  "immutableReferences": {},
  "source": "// SPDX-License-Identifier: MIT\npragma solidity ^0.7.4;\npragma experimental ABIEncoderV2;\n\nimport \"@openzeppelin/contracts/access/Ownable.sol\";\n\nimport \"./ERC1155.sol\";\n\ncontract ERC1155NFTMintableBurnable is ERC1155, Ownable {\n    constructor (string memory name_, string memory symbol_) ERC1155(name_, symbol_) {}\n\n    function mintNFT(address account, uint256 id, uint256 amount, bytes memory data) external onlyOwner {\n        _mint(account, id, amount, data);\n    }\n\n    function burnNFT(address account, uint256 id, uint256 amount) external onlyOwner {\n        _burn(account, id, amount);\n    }\n}",
  "sourcePath": "/home/artem/Projects/Distributed_Lab/Applicature/bridgemutual-core/contracts/tokens/ERC1155NFTMintableBurnable.sol",
  "compiler": {
    "name": "solc",
    "version": "0.7.4+commit.3f05b770.Emscripten.clang"
  },
  "schemaVersion": "3.3.3",
  "updatedAt": "2021-01-28T11:21:06.331Z",
  "devdoc": {
    "kind": "dev",
    "methods": {
      "balanceOf(address,uint256)": {
        "details": "Returns the amount of tokens of token type `id` owned by `account`. Requirements: - `account` cannot be the zero address."
      },
      "balanceOfBatch(address[],uint256[])": {
        "details": "xref:ROOT:erc1155.adoc#batch-operations[Batched] version of {balanceOf}. Requirements: - `accounts` and `ids` must have the same length."
      },
      "isApprovedForAll(address,address)": {
        "details": "Returns true if `operator` is approved to transfer ``account``'s tokens. See {setApprovalForAll}."
      },
      "owner()": {
        "details": "Returns the address of the current owner."
      },
      "renounceOwnership()": {
        "details": "Leaves the contract without owner. It will not be possible to call `onlyOwner` functions anymore. Can only be called by the current owner. NOTE: Renouncing ownership will leave the contract without an owner, thereby removing any functionality that is only available to the owner."
      },
      "safeBatchTransferFrom(address,address,uint256[],uint256[],bytes)": {
        "details": "xref:ROOT:erc1155.adoc#batch-operations[Batched] version of {safeTransferFrom}. Emits a {TransferBatch} event. Requirements: - `ids` and `amounts` must have the same length. - If `to` refers to a smart contract, it must implement {IERC1155Receiver-onERC1155BatchReceived} and return the acceptance magic value."
      },
      "safeTransferFrom(address,address,uint256,uint256,bytes)": {
        "details": "Transfers `amount` tokens of token type `id` from `from` to `to`. Emits a {TransferSingle} event. Requirements: - `to` cannot be the zero address. - If the caller is not `from`, it must be have been approved to spend ``from``'s tokens via {setApprovalForAll}. - `from` must have a balance of tokens of type `id` of at least `amount`. - If `to` refers to a smart contract, it must implement {IERC1155Receiver-onERC1155Received} and return the acceptance magic value."
      },
      "setApprovalForAll(address,bool)": {
        "details": "Grants or revokes permission to `operator` to transfer the caller's tokens, according to `approved`, Emits an {ApprovalForAll} event. Requirements: - `operator` cannot be the caller."
      },
      "supportsInterface(bytes4)": {
        "details": "See {IERC165-supportsInterface}. Time complexity O(1), guaranteed to always use less than 30 000 gas."
      },
      "transferFrom(address,address,uint256)": {
        "details": "Moves `amount` tokens from `sender` to `recipient` using the allowance mechanism. `amount` is then deducted from the caller's allowance. Returns a boolean value indicating whether the operation succeeded. Emits a {Transfer} event."
      },
      "transferOwnership(address)": {
        "details": "Transfers ownership of the contract to a new account (`newOwner`). Can only be called by the current owner."
      }
    },
    "version": 1
  },
  "userdoc": {
    "kind": "user",
    "methods": {
      "allowance(address,address)": {
        "notice": "From ERC20"
      },
      "approve(address,uint256)": {
        "notice": "From ERC20"
      },
      "balanceOf(address)": {
        "notice": "From ERC20"
      },
      "decreaseAllowance(address,uint256)": {
        "notice": "From ERC20"
      },
      "increaseAllowance(address,uint256)": {
        "notice": "From ERC20"
      },
      "totalSupply()": {
        "notice": "From ERC20"
      },
      "transfer(address,uint256)": {
        "notice": "From ERC20"
      }
    },
    "version": 1
  }
}