{
  "contractName": "LiquidityMining",
  "abi": [
    {
      "inputs": [],
      "stateMutability": "nonpayable",
      "type": "constructor"
    },
    {
      "anonymous": false,
      "inputs": [
        {
          "indexed": false,
          "internalType": "uint256",
          "name": "_groupID",
          "type": "uint256"
        },
        {
          "indexed": false,
          "internalType": "uint256",
          "name": "_tokensAmount",
          "type": "uint256"
        },
        {
          "indexed": false,
          "internalType": "uint256",
          "name": "_newTotalGroupAmount",
          "type": "uint256"
        }
      ],
      "name": "DAIInvested",
      "type": "event"
    },
    {
      "anonymous": false,
      "inputs": [
        {
          "indexed": false,
          "internalType": "uint256",
          "name": "_index",
          "type": "uint256"
        },
        {
          "indexed": false,
          "internalType": "uint256",
          "name": "_prevGroupIndex",
          "type": "uint256"
        },
        {
          "indexed": false,
          "internalType": "uint256",
          "name": "_newGroupIndex",
          "type": "uint256"
        }
      ],
      "name": "LeaderboardUpdated",
      "type": "event"
    },
    {
      "anonymous": false,
      "inputs": [
        {
          "indexed": false,
          "internalType": "address",
          "name": "_address",
          "type": "address"
        },
        {
          "indexed": false,
          "internalType": "uint256",
          "name": "_nftIndex",
          "type": "uint256"
        }
      ],
      "name": "NFTSent",
      "type": "event"
    },
    {
      "anonymous": false,
      "inputs": [
        {
          "indexed": true,
          "internalType": "address",
          "name": "previousOwner",
          "type": "address"
        },
        {
          "indexed": true,
          "internalType": "address",
          "name": "newOwner",
          "type": "address"
        }
      ],
      "name": "OwnershipTransferred",
      "type": "event"
    },
    {
      "anonymous": false,
      "inputs": [
        {
          "indexed": false,
          "internalType": "uint256",
          "name": "_groupID",
          "type": "uint256"
        },
        {
          "indexed": false,
          "internalType": "address",
          "name": "_address",
          "type": "address"
        },
        {
          "indexed": false,
          "internalType": "uint256",
          "name": "_newCountOfMonth",
          "type": "uint256"
        },
        {
          "indexed": false,
          "internalType": "uint256",
          "name": "_newLastUpdate",
          "type": "uint256"
        }
      ],
      "name": "RewardInfoUpdated",
      "type": "event"
    },
    {
      "anonymous": false,
      "inputs": [
        {
          "indexed": false,
          "internalType": "uint256",
          "name": "_groupID",
          "type": "uint256"
        },
        {
          "indexed": false,
          "internalType": "address",
          "name": "_address",
          "type": "address"
        },
        {
          "indexed": false,
          "internalType": "uint256",
          "name": "_reward",
          "type": "uint256"
        }
      ],
      "name": "RewardSent",
      "type": "event"
    },
    {
      "inputs": [],
      "name": "LMNFT",
      "outputs": [
        {
          "internalType": "contract LiquidityMiningNFT",
          "name": "",
          "type": "address"
        }
      ],
      "stateMutability": "view",
      "type": "function",
      "constant": true
    },
    {
      "inputs": [],
      "name": "bmiToken",
      "outputs": [
        {
          "internalType": "contract ERC20",
          "name": "",
          "type": "address"
        }
      ],
      "stateMutability": "view",
      "type": "function",
      "constant": true
    },
    {
      "inputs": [],
      "name": "contractsRegistry",
      "outputs": [
        {
          "internalType": "contract ContractsRegistry",
          "name": "",
          "type": "address"
        }
      ],
      "stateMutability": "view",
      "type": "function",
      "constant": true
    },
    {
      "inputs": [],
      "name": "decimal",
      "outputs": [
        {
          "internalType": "uint256",
          "name": "",
          "type": "uint256"
        }
      ],
      "stateMutability": "view",
      "type": "function",
      "constant": true
    },
    {
      "inputs": [
        {
          "internalType": "uint256",
          "name": "",
          "type": "uint256"
        },
        {
          "internalType": "address",
          "name": "",
          "type": "address"
        }
      ],
      "name": "groups",
      "outputs": [
        {
          "internalType": "uint256",
          "name": "",
          "type": "uint256"
        }
      ],
      "stateMutability": "view",
      "type": "function",
      "constant": true
    },
    {
      "inputs": [],
      "name": "groupsCount",
      "outputs": [
        {
          "internalType": "uint256",
          "name": "",
          "type": "uint256"
        }
      ],
      "stateMutability": "view",
      "type": "function",
      "constant": true
    },
    {
      "inputs": [
        {
          "internalType": "uint256",
          "name": "",
          "type": "uint256"
        },
        {
          "internalType": "uint256",
          "name": "",
          "type": "uint256"
        }
      ],
      "name": "groupsLeaders",
      "outputs": [
        {
          "internalType": "address",
          "name": "",
          "type": "address"
        }
      ],
      "stateMutability": "view",
      "type": "function",
      "constant": true
    },
    {
      "inputs": [
        {
          "internalType": "uint256",
          "name": "",
          "type": "uint256"
        }
      ],
      "name": "leaderboard",
      "outputs": [
        {
          "internalType": "uint256",
          "name": "",
          "type": "uint256"
        }
      ],
      "stateMutability": "view",
      "type": "function",
      "constant": true
    },
    {
      "inputs": [],
      "name": "maxGroupLeadersSize",
      "outputs": [
        {
          "internalType": "uint256",
          "name": "",
          "type": "uint256"
        }
      ],
      "stateMutability": "view",
      "type": "function",
      "constant": true
    },
    {
      "inputs": [],
      "name": "maxLeaderboardSize",
      "outputs": [
        {
          "internalType": "uint256",
          "name": "",
          "type": "uint256"
        }
      ],
      "stateMutability": "view",
      "type": "function",
      "constant": true
    },
    {
      "inputs": [],
      "name": "maxMonthToGetReward",
      "outputs": [
        {
          "internalType": "uint256",
          "name": "",
          "type": "uint256"
        }
      ],
      "stateMutability": "view",
      "type": "function",
      "constant": true
    },
    {
      "inputs": [],
      "name": "owner",
      "outputs": [
        {
          "internalType": "address",
          "name": "",
          "type": "address"
        }
      ],
      "stateMutability": "view",
      "type": "function",
      "constant": true
    },
    {
      "inputs": [],
      "name": "renounceOwnership",
      "outputs": [],
      "stateMutability": "nonpayable",
      "type": "function"
    },
    {
      "inputs": [
        {
          "internalType": "uint256",
          "name": "",
          "type": "uint256"
        },
        {
          "internalType": "address",
          "name": "",
          "type": "address"
        }
      ],
      "name": "rewardInfos",
      "outputs": [
        {
          "internalType": "uint256",
          "name": "countOfMonth",
          "type": "uint256"
        },
        {
          "internalType": "uint256",
          "name": "lastUpdate",
          "type": "uint256"
        }
      ],
      "stateMutability": "view",
      "type": "function",
      "constant": true
    },
    {
      "inputs": [],
      "name": "startLiquidityMiningTime",
      "outputs": [
        {
          "internalType": "uint256",
          "name": "",
          "type": "uint256"
        }
      ],
      "stateMutability": "view",
      "type": "function",
      "constant": true
    },
    {
      "inputs": [
        {
          "internalType": "bytes4",
          "name": "interfaceId",
          "type": "bytes4"
        }
      ],
      "name": "supportsInterface",
      "outputs": [
        {
          "internalType": "bool",
          "name": "",
          "type": "bool"
        }
      ],
      "stateMutability": "view",
      "type": "function",
      "constant": true
    },
    {
      "inputs": [
        {
          "internalType": "uint256",
          "name": "",
          "type": "uint256"
        }
      ],
      "name": "totalGroupsAmount",
      "outputs": [
        {
          "internalType": "uint256",
          "name": "",
          "type": "uint256"
        }
      ],
      "stateMutability": "view",
      "type": "function",
      "constant": true
    },
    {
      "inputs": [
        {
          "internalType": "address",
          "name": "newOwner",
          "type": "address"
        }
      ],
      "name": "transferOwnership",
      "outputs": [],
      "stateMutability": "nonpayable",
      "type": "function"
    },
    {
      "inputs": [
        {
          "internalType": "contract ContractsRegistry",
          "name": "_contractsRegistry",
          "type": "address"
        }
      ],
      "name": "initRegistry",
      "outputs": [],
      "stateMutability": "nonpayable",
      "type": "function"
    },
    {
      "inputs": [],
      "name": "getLeaderboardSize",
      "outputs": [
        {
          "internalType": "uint256",
          "name": "",
          "type": "uint256"
        }
      ],
      "stateMutability": "view",
      "type": "function",
      "constant": true
    },
    {
      "inputs": [
        {
          "internalType": "uint256",
          "name": "_groupID",
          "type": "uint256"
        },
        {
          "internalType": "uint256",
          "name": "_tokensAmount",
          "type": "uint256"
        },
        {
          "internalType": "address",
          "name": "_policyBookAddr",
          "type": "address"
        }
      ],
      "name": "investDAI",
      "outputs": [],
      "stateMutability": "nonpayable",
      "type": "function"
    },
    {
      "inputs": [],
      "name": "distributeAllNFT",
      "outputs": [],
      "stateMutability": "nonpayable",
      "type": "function"
    },
    {
      "inputs": [
        {
          "internalType": "uint256",
          "name": "_groupID",
          "type": "uint256"
        }
      ],
      "name": "distributeNFT",
      "outputs": [
        {
          "internalType": "bool",
          "name": "",
          "type": "bool"
        }
      ],
      "stateMutability": "nonpayable",
      "type": "function"
    },
    {
      "inputs": [],
      "name": "getTotalReward",
      "outputs": [
        {
          "internalType": "uint256",
          "name": "",
          "type": "uint256"
        }
      ],
      "stateMutability": "nonpayable",
      "type": "function"
    },
    {
      "inputs": [
        {
          "internalType": "uint256",
          "name": "_groupID",
          "type": "uint256"
        }
      ],
      "name": "getRewardFromGroup",
      "outputs": [
        {
          "internalType": "uint256",
          "name": "",
          "type": "uint256"
        }
      ],
      "stateMutability": "nonpayable",
      "type": "function"
    },
    {
      "inputs": [],
      "name": "getEndLMTime",
      "outputs": [
        {
          "internalType": "uint256",
          "name": "",
          "type": "uint256"
        }
      ],
      "stateMutability": "view",
      "type": "function",
      "constant": true
    },
    {
      "inputs": [
        {
          "internalType": "address",
          "name": "operator",
          "type": "address"
        },
        {
          "internalType": "address",
          "name": "from",
          "type": "address"
        },
        {
          "internalType": "uint256",
          "name": "id",
          "type": "uint256"
        },
        {
          "internalType": "uint256",
          "name": "value",
          "type": "uint256"
        },
        {
          "internalType": "bytes",
          "name": "data",
          "type": "bytes"
        }
      ],
      "name": "onERC1155Received",
      "outputs": [
        {
          "internalType": "bytes4",
          "name": "",
          "type": "bytes4"
        }
      ],
      "stateMutability": "pure",
      "type": "function",
      "constant": true
    },
    {
      "inputs": [
        {
          "internalType": "address",
          "name": "operator",
          "type": "address"
        },
        {
          "internalType": "address",
          "name": "from",
          "type": "address"
        },
        {
          "internalType": "uint256[]",
          "name": "ids",
          "type": "uint256[]"
        },
        {
          "internalType": "uint256[]",
          "name": "values",
          "type": "uint256[]"
        },
        {
          "internalType": "bytes",
          "name": "data",
          "type": "bytes"
        }
      ],
      "name": "onERC1155BatchReceived",
      "outputs": [
        {
          "internalType": "bytes4",
          "name": "",
          "type": "bytes4"
        }
      ],
      "stateMutability": "pure",
      "type": "function",
      "constant": true
    }
  ],
  "bytecode": "0x6080604052600b600655600a60075560056008556b033b2e3c9fd0803ce80000006009553480156200003057600080fd5b50620000436301ffc9a760e01b620000be565b62000055630271189760e51b620000be565b60006200006162000143565b600180546001600160a01b0319166001600160a01b038316908117909155604051919250906000907f8be0079c531659141344cd1fd0a4f28419497f9722a3daafe3b4186f6b6457e0908290a35060016004554260055562000147565b6001600160e01b031980821614156200011e576040805162461bcd60e51b815260206004820152601c60248201527f4552433136353a20696e76616c696420696e7465726661636520696400000000604482015290519081900360640190fd5b6001600160e01b0319166000908152602081905260409020805460ff19166001179055565b3390565b6125e380620001576000396000f3fe608060405234801561001057600080fd5b50600436106101c45760003560e01c8063a58ed781116100f9578063e2804e9511610097578063f23a6e6111610071578063f23a6e6114610649578063f2fde38b146106ac578063f6301de7146106df578063fe2290a9146106fc576101c4565b8063e2804e9514610616578063e5528d9b1461061e578063f041df4614610641576101c4565b8063bf368399116100d3578063bf368399146105b6578063d0a43afd146105d3578063d77379f114610606578063d98d0c7e1461060e576101c4565b8063a58ed78114610322578063aebbb8a914610374578063bc197c81146103ad576101c4565b8063715018a611610166578063885e275011610140578063885e2750146102c45780638da5cb5b146102cc578063a04337ec146102fd578063a47f753a1461031a576101c4565b8063715018a6146102ac57806376809ce3146102b45780637d1fcbfa146102bc576101c4565b80631b3e4db1116101a25780631b3e4db1146102535780635c57e4ac1461025b57806361224eb1146102635780636c1e66ea146102a4576101c4565b806301ffc9a7146101c95780630cbd7e841461021c5780631359650014610236575b600080fd5b610208600480360360208110156101df57600080fd5b50357fffffffff0000000000000000000000000000000000000000000000000000000016610704565b604080519115158252519081900360200190f35b61022461073f565b60408051918252519081900360200190f35b6102246004803603602081101561024c57600080fd5b5035610757565b610224610769565b61022461076f565b6102a26004803603606081101561027957600080fd5b508035906020810135906040013573ffffffffffffffffffffffffffffffffffffffff16610775565b005b610224610932565b6102a2610938565b610224610a38565b610224610a3e565b610224610aac565b6102d4610ab2565b6040805173ffffffffffffffffffffffffffffffffffffffff9092168252519081900360200190f35b6102246004803603602081101561031357600080fd5b5035610ace565b6102a2610d7a565b61035b6004803603604081101561033857600080fd5b508035906020013573ffffffffffffffffffffffffffffffffffffffff16610dd7565b6040805192835260208301919091528051918290030190f35b6102246004803603604081101561038a57600080fd5b508035906020013573ffffffffffffffffffffffffffffffffffffffff16610dfb565b610581600480360360a08110156103c357600080fd5b73ffffffffffffffffffffffffffffffffffffffff823581169260208101359091169181019060608101604082013564010000000081111561040457600080fd5b82018360208201111561041657600080fd5b8035906020019184602083028401116401000000008311171561043857600080fd5b919080806020026020016040519081016040528093929190818152602001838360200280828437600092019190915250929594936020810193503591505064010000000081111561048857600080fd5b82018360208201111561049a57600080fd5b803590602001918460208302840111640100000000831117156104bc57600080fd5b919080806020026020016040519081016040528093929190818152602001838360200280828437600092019190915250929594936020810193503591505064010000000081111561050c57600080fd5b82018360208201111561051e57600080fd5b8035906020019184600183028401116401000000008311171561054057600080fd5b91908080601f016020809104026020016040519081016040528093929190818152602001838380828437600092019190915250929550610e18945050505050565b604080517fffffffff000000000000000000000000000000000000000000000000000000009092168252519081900360200190f35b610224600480360360208110156105cc57600080fd5b5035610e42565b6102a2600480360360208110156105e957600080fd5b503573ffffffffffffffffffffffffffffffffffffffff16610e63565b6102d4611416565b6102d4611432565b6102d461144e565b6102d46004803603604081101561063457600080fd5b508035906020013561146a565b6102246114af565b610581600480360360a081101561065f57600080fd5b73ffffffffffffffffffffffffffffffffffffffff823581169260208101359091169160408201359160608101359181019060a08101608082013564010000000081111561050c57600080fd5b6102a2600480360360208110156106c257600080fd5b503573ffffffffffffffffffffffffffffffffffffffff166114b5565b610208600480360360208110156106f557600080fd5b5035611640565b6102246117be565b7fffffffff00000000000000000000000000000000000000000000000000000000811660009081526020819052604090205460ff165b919050565b60055460009061075290621275006117c4565b905090565b600d6020526000908152604090205481565b60035490565b60085481565b61077d61073f565b42106107d4576040517f08c379a000000000000000000000000000000000000000000000000000000000815260040180806020018281038252604d81526020018061252f604d913960600191505060405180910390fd5b82806107e7575060048054600181019091555b6000818152600d602052604081205461080090856117c4565b6000838152600d60209081526040808320849055600c825280832033845290915290205490915061083190856117c4565b6000838152600c6020908152604080832033845290915290205561085482611841565b5061085e82611a80565b50604080518381526020810186905280820183905290517f5878e207b340ce027c3f02b4ca23a67aca93fa8e4e921a156c367fa9fcd68cf49181900360600190a1604080517fc91348c300000000000000000000000000000000000000000000000000000000815233600482015260248101869052905173ffffffffffffffffffffffffffffffffffffffff85169163c91348c391604480830192600092919082900301818387803b15801561091357600080fd5b505af1158015610927573d6000803e3d6000fd5b505050505050505050565b60065481565b610940611e33565b60015473ffffffffffffffffffffffffffffffffffffffff9081169116146109c957604080517f08c379a000000000000000000000000000000000000000000000000000000000815260206004820181905260248201527f4f776e61626c653a2063616c6c6572206973206e6f7420746865206f776e6572604482015290519081900360640190fd5b60015460405160009173ffffffffffffffffffffffffffffffffffffffff16907f8be0079c531659141344cd1fd0a4f28419497f9722a3daafe3b4186f6b6457e0908390a3600180547fffffffffffffffffffffffff0000000000000000000000000000000000000000169055565b60095481565b60008080805b600354811015610aa45760038181548110610a5b57fe5b6000918252602080832090910154808352600c8252604080842033855290925291205490925015610a9c57610a99610a9283610ace565b84906117c4565b92505b600101610a44565b509091505090565b60045481565b60015473ffffffffffffffffffffffffffffffffffffffff1690565b6000610ad861073f565b4211610b2f576040517f08c379a000000000000000000000000000000000000000000000000000000000815260040180806020018281038252603281526020018061257c6032913960400191505060405180910390fd5b610b3882611e37565b610b445750600061073a565b6000610b4f83611ebb565b9050610b596123fb565b506000838152600e60209081526040808320338452825280832081518083019092528054808352600190910154928201929092529190610b9a908490611fad565b6000868152600c60209081526040808320338452825280832054898452600d9092528220549293509091610bce9190612020565b90506000610bf1600954610beb8486611fad90919063ffffffff16565b90612048565b600a54604080517fa9059cbb00000000000000000000000000000000000000000000000000000000815233600482015260248101849052905192935073ffffffffffffffffffffffffffffffffffffffff9091169163a9059cbb916044808201926020929091908290030181600087803b158015610c6e57600080fd5b505af1158015610c82573d6000803e3d6000fd5b505050506040513d6020811015610c9857600080fd5b5051610d0557604080517f08c379a000000000000000000000000000000000000000000000000000000000815260206004820152601960248201527f4661696c656420746f207472616e7366657220746f6b656e7300000000000000604482015290519081900360640190fd5b6040805188815233602082015280820183905290517f2d2c3375da5b0a5f617bbcefa38e413a9ef5f70e50d0f9c5f6cc0adc3fa357799181900360600190a16000808552968752600e60209081526040808920338a528252909720845181559690930151600190960195909555509392505050565b6000805b600354811015610dd35760038181548110610d9557fe5b6000918252602080832090910154808352600c8252604080842033855290925291205490925015610dcb57610dc982611640565b505b600101610d7e565b5050565b600e6020908152600092835260408084209091529082529020805460019091015482565b600c60209081526000928352604080842090915290825290205481565b7fbc197c819b3e337a6f9652dd10becd7eef83032af3b9d958d3d42f669414662195945050505050565b60038181548110610e5257600080fd5b600091825260209091200154905081565b610e6b611e33565b60015473ffffffffffffffffffffffffffffffffffffffff908116911614610ef457604080517f08c379a000000000000000000000000000000000000000000000000000000000815260206004820181905260248201527f4f776e61626c653a2063616c6c6572206973206e6f7420746865206f776e6572604482015290519081900360640190fd5b600280547fffffffffffffffffffffffff00000000000000000000000000000000000000001673ffffffffffffffffffffffffffffffffffffffff8381169190911791829055604080517f27c300af0000000000000000000000000000000000000000000000000000000081529051929091169163358177739183916327c300af91600480820192600092909190829003018186803b158015610f9657600080fd5b505afa158015610faa573d6000803e3d6000fd5b505050506040513d6000823e601f3d9081017fffffffffffffffffffffffffffffffffffffffffffffffffffffffffffffffe01682016040526020811015610ff157600080fd5b810190808051604051939291908464010000000082111561101157600080fd5b90830190602082018581111561102657600080fd5b825164010000000081118282018810171561104057600080fd5b82525081516020918201929091019080838360005b8381101561106d578181015183820152602001611055565b50505050905090810190601f16801561109a5780820380516001836020036101000a031916815260200191505b506040525050506040518263ffffffff1660e01b81526004018080602001828103825283818151815260200191508051906020019080838360005b838110156110ed5781810151838201526020016110d5565b50505050905090810190601f16801561111a5780820380516001836020036101000a031916815260200191505b509250505060206040518083038186803b15801561113757600080fd5b505afa15801561114b573d6000803e3d6000fd5b505050506040513d602081101561116157600080fd5b5051600a80547fffffffffffffffffffffffff00000000000000000000000000000000000000001673ffffffffffffffffffffffffffffffffffffffff928316179055600254604080517fa44df29f00000000000000000000000000000000000000000000000000000000815290519190921691633581777391839163a44df29f916004808301926000929190829003018186803b15801561120257600080fd5b505afa158015611216573d6000803e3d6000fd5b505050506040513d6000823e601f3d9081017fffffffffffffffffffffffffffffffffffffffffffffffffffffffffffffffe0168201604052602081101561125d57600080fd5b810190808051604051939291908464010000000082111561127d57600080fd5b90830190602082018581111561129257600080fd5b82516401000000008111828201881017156112ac57600080fd5b82525081516020918201929091019080838360005b838110156112d95781810151838201526020016112c1565b50505050905090810190601f1680156113065780820380516001836020036101000a031916815260200191505b506040525050506040518263ffffffff1660e01b81526004018080602001828103825283818151815260200191508051906020019080838360005b83811015611359578181015183820152602001611341565b50505050905090810190601f1680156113865780820380516001836020036101000a031916815260200191505b509250505060206040518083038186803b1580156113a357600080fd5b505afa1580156113b7573d6000803e3d6000fd5b505050506040513d60208110156113cd57600080fd5b5051600b80547fffffffffffffffffffffffff00000000000000000000000000000000000000001673ffffffffffffffffffffffffffffffffffffffff90921691909117905550565b600a5473ffffffffffffffffffffffffffffffffffffffff1681565b60025473ffffffffffffffffffffffffffffffffffffffff1681565b600b5473ffffffffffffffffffffffffffffffffffffffff1681565b600f602052816000526040600020818154811061148657600080fd5b60009182526020909120015473ffffffffffffffffffffffffffffffffffffffff169150829050565b60075481565b6114bd611e33565b60015473ffffffffffffffffffffffffffffffffffffffff90811691161461154657604080517f08c379a000000000000000000000000000000000000000000000000000000000815260206004820181905260248201527f4f776e61626c653a2063616c6c6572206973206e6f7420746865206f776e6572604482015290519081900360640190fd5b73ffffffffffffffffffffffffffffffffffffffff81166115b2576040517f08c379a00000000000000000000000000000000000000000000000000000000081526004018080602001828103825260268152602001806124b56026913960400191505060405180910390fd5b60015460405173ffffffffffffffffffffffffffffffffffffffff8084169216907f8be0079c531659141344cd1fd0a4f28419497f9722a3daafe3b4186f6b6457e090600090a3600180547fffffffffffffffffffffffff00000000000000000000000000000000000000001673ffffffffffffffffffffffffffffffffffffffff92909216919091179055565b600061164a61073f565b42116116a1576040517f08c379a00000000000000000000000000000000000000000000000000000000081526004018080602001828103825260338152602001806124db6033913960400191505060405180910390fd5b6007546116ad8361208a565b14156116bb5750600061073a565b6006546000838152600f602090815260409182902080548351818402810184019094528084526060939283018282801561172b57602002820191906000526020600020905b815473ffffffffffffffffffffffffffffffffffffffff168152600190910190602001808311611700575b5050505050905060005b8151811015611795573373ffffffffffffffffffffffffffffffffffffffff1682828151811061176157fe5b602002602001015173ffffffffffffffffffffffffffffffffffffffff16141561178d57809250611795565b600101611735565b506006548214156117ab5760009250505061073a565b6117b4826120d1565b5060019392505050565b60055481565b60008282018381101561183857604080517f08c379a000000000000000000000000000000000000000000000000000000000815260206004820152601b60248201527f536166654d6174683a206164646974696f6e206f766572666c6f770000000000604482015290519081900360640190fd5b90505b92915050565b600354600090806118ca576003805460018101825560009182527fc2575a0e9e593c00f959f8c92f12db2869c3395a3b0502d05e2516446f71f85b01849055604080518281526020810192909252818101859052517fcbb6c6ae423a412fd87ff8232d5f76edecb3194550f98e7a30f7ecb5d0f842b19181900360600190a1600191505061073a565b60006118d58461208a565b60075490915060005b8381101561193b57600d6000600383815481106118f757fe5b9060005260206000200154815260200190815260200160002054600d60008881526020019081526020016000205411156119335780915061193b565b6001016118de565b5060075482141561197f57600380546001810182556000919091527fc2575a0e9e593c00f959f8c92f12db2869c3395a3b0502d05e2516446f71f85b810186905591505b80821015611993576001935050505061073a565b6000600382815481106119a257fe5b6000918252602082200154915086835b8581116119f857600381815481106119c657fe5b9060005260206000200154925081600382815481106119e157fe5b6000918252602090912001558291506001016119b2565b50600754611a079060016117c4565b6003541415611a32576003805480611a1b57fe5b600190038181906000526020600020016000905590555b60408051858152602081018590528082018a905290517fcbb6c6ae423a412fd87ff8232d5f76edecb3194550f98e7a30f7ecb5d0f842b19181900360600190a1506001979650505050505050565b6000818152600f602090815260408083208054825181850281018501909352808352606093830182828015611aeb57602002820191906000526020600020905b815473ffffffffffffffffffffffffffffffffffffffff168152600190910190602001808311611ac0575b5050835193945050508115159050611b4e575050506000818152600f602090815260408220805460018181018355918452919092200180547fffffffffffffffffffffffff0000000000000000000000000000000000000000163317905561073a565b6006548060005b83811015611bb4573373ffffffffffffffffffffffffffffffffffffffff16858281518110611b8057fe5b602002602001015173ffffffffffffffffffffffffffffffffffffffff161415611bac57809250611bb4565b600101611b55565b5060005b83811015611c3f57600c60008881526020019081526020016000206000868381518110611be157fe5b60209081029190910181015173ffffffffffffffffffffffffffffffffffffffff1682528181019290925260409081016000908120548a8252600c845282822033835290935220541115611c3757809150611c3f565b600101611bb8565b50600654821415611c94576000868152600f602090815260408220805460018101825590835291200180547fffffffffffffffffffffffff000000000000000000000000000000000000000016331790558291505b80821015611ca957600194505050505061073a565b6000868152600f602090815260409182902080548351818402810184019094528084529091830182828015611d1457602002820191906000526020600020905b815473ffffffffffffffffffffffffffffffffffffffff168152600190910190602001808311611ce9575b5093975060009350339250849150505b848111611d7e57868181518110611d3757fe5b6020026020010151925081878281518110611d4e57fe5b73ffffffffffffffffffffffffffffffffffffffff90921660209283029190910190910152829150600101611d24565b506000888152600f602090815260409091208751611d9e92890190612415565b50600654611dad9060016117c4565b86511415611e25576000888152600f60205260409020805480611dcc57fe5b60008281526020902081017fffffffffffffffffffffffffffffffffffffffffffffffffffffffffffffffff90810180547fffffffffffffffffffffffff00000000000000000000000000000000000000001690550190555b506001979650505050505050565b3390565b600080611e438361208a565b9050600754811415611e5957600091505061073a565b6000838152600c60209081526040808320338452909152902054611e8157600091505061073a565b611e8a83612209565b6000838152600e60209081526040808320338452909152902054611eb257600091505061073a565b50600192915050565b600080600a60009054906101000a900473ffffffffffffffffffffffffffffffffffffffff1673ffffffffffffffffffffffffffffffffffffffff1663313ce5676040518163ffffffff1660e01b815260040160206040518083038186803b158015611f2657600080fd5b505afa158015611f3a573d6000803e3d6000fd5b505050506040513d6020811015611f5057600080fd5b505160ff16600a0a90506000611f658461208a565b9050600081611f77575061c350611f9a565b600082118015611f875750600582105b15611f955750612710611f9a565b50610fa05b611fa48184611fad565b95945050505050565b600082611fbc5750600061183b565b82820282848281611fc957fe5b0414611838576040517f08c379a000000000000000000000000000000000000000000000000000000000815260040180806020018281038252602181526020018061250e6021913960400191505060405180910390fd5b60008161202f5750600061183b565b61183882610beb60095486611fad90919063ffffffff16565b600061183883836040518060400160405280601a81526020017f536166654d6174683a206469766973696f6e206279207a65726f00000000000081525061233f565b60035460075460009190825b828110156120c957600381815481106120ab57fe5b90600052602060002001548514156120c1578091505b600101612096565b509392505050565b6000816120e05750600161211f565b6000821180156120f05750600382105b156120fd5750600261211f565b6003821015801561210e5750600682105b1561211b5750600361211f565b5060045b600b54604080517ff242432a000000000000000000000000000000000000000000000000000000008152306004820152336024820152604481018490526001606482015260a06084820152600060a48201819052915173ffffffffffffffffffffffffffffffffffffffff9093169263f242432a9260e48084019391929182900301818387803b1580156121b257600080fd5b505af11580156121c6573d6000803e3d6000fd5b5050604080513381526020810185905281517f607dc088d776f10d22a60794926bd9ea1d9fc36a5603e266f90cc642423350089450908190039091019150a15050565b6122116123fb565b506000818152600e60209081526040808320338452825280832081518083019092528054825260010154918101919091529062278d009061225061073f565b90506000805b6008548110156122875761226d610a928583611fad565b8560200151111561227f576001909101905b600101612256565b50600854811461233857805b6008548110156122c1576122aa610a928583611fad565b4211156122b957845160010185525b600101612293565b504260208086019182526000878152600e82526040808220338084529084529181902088518082559451600190910181905581518a81529384019290925282810193909352606082015290517f6f67645189788843e2f59929943b27d92e7a778a78a2d9ab47746216c863d7379181900360800190a15b5050505050565b600081836123e5576040517f08c379a00000000000000000000000000000000000000000000000000000000081526004018080602001828103825283818151815260200191508051906020019080838360005b838110156123aa578181015183820152602001612392565b50505050905090810190601f1680156123d75780820380516001836020036101000a031916815260200191505b509250505060405180910390fd5b5060008385816123f157fe5b0495945050505050565b604051806040016040528060008152602001600081525090565b82805482825590600052602060002090810192821561248f579160200282015b8281111561248f57825182547fffffffffffffffffffffffff00000000000000000000000000000000000000001673ffffffffffffffffffffffffffffffffffffffff909116178255602090920191600190910190612435565b5061249b92915061249f565b5090565b5b8082111561249b57600081556001016124a056fe4f776e61626c653a206e6577206f776e657220697320746865207a65726f206164647265737332207765656b73206166746572206c6971756964697479206d696e696e672074696d6520686173206e6f742065787069726564536166654d6174683a206d756c7469706c69636174696f6e206f766572666c6f77497420697320696d706f737369626c6520746f20696e7665737420696e204441492061667465722074686520656e64206f6620746865206c6971756964697479206d696e696e67206576656e7432207765656b73206166746572206c6971756964697479206d696e696e672074696d6520686173206e6f7420657870697265a26469706673582212202d06153857b5ee86511dc385e1328d5109f0c7277705106a83d4e44403d52bfa64736f6c63430007040033",
  "immutableReferences": {},
  "source": "// SPDX-License-Identifier: MIT\npragma solidity ^0.7.4;\n\nimport \"@openzeppelin/contracts/math/SafeMath.sol\";\nimport \"@openzeppelin/contracts/access/Ownable.sol\";\nimport \"@openzeppelin/contracts/token/ERC20/IERC20.sol\";\nimport \"@openzeppelin/contracts/token/ERC20/ERC20.sol\";\nimport \"@openzeppelin/contracts/token/ERC1155/ERC1155Receiver.sol\";\n\nimport \"./interfaces/IPolicyBook.sol\";\n\nimport \"./ContractsRegistry.sol\";\nimport \"./LiquidityMiningNFT.sol\";\n\ncontract LiquidityMining is ERC1155Receiver, Ownable {\n    using SafeMath for uint256;\n\n    ContractsRegistry public contractsRegistry;\n\n    uint256[] public leaderboard;\n    uint256 public groupsCount;\n    uint256 public startLiquidityMiningTime;\n    uint256 public maxGroupLeadersSize = 11;\n    uint256 public maxLeaderboardSize = 10;\n    uint256 public maxMonthToGetReward = 5;\n    uint256 public decimal = 10**27;\n\n    ERC20 public bmiToken;\n    LiquidityMiningNFT public LMNFT;\n\n    struct RewardInfo {\n        uint256 countOfMonth;\n        uint256 lastUpdate;\n    }\n\n    constructor () {\n        groupsCount = 1;\n        startLiquidityMiningTime = block.timestamp;        \n    }\n\n    // ID => Address => InvestedAmount\n    mapping (uint256 => mapping (address => uint256)) public groups;\n\n    // ID => total invested amount in the group\n    mapping (uint256 => uint256) public totalGroupsAmount;\n\n    // ID => Address => info\n    mapping (uint256 => mapping (address => RewardInfo)) public rewardInfos;\n\n    // ID => Leaders accounts addresses\n    mapping (uint256 => address[]) public groupsLeaders;\n\n    event DAIInvested(uint256 _groupID, uint256 _tokensAmount, uint256 _newTotalGroupAmount);\n    event LeaderboardUpdated(uint256 _index, uint256 _prevGroupIndex, uint256 _newGroupIndex);\n    event RewardInfoUpdated(uint256 _groupID, address _address, uint256 _newCountOfMonth, uint256 _newLastUpdate);\n    event RewardSent(uint256 _groupID, address _address, uint256 _reward);\n    event NFTSent(address _address, uint256 _nftIndex);\n\n    function initRegistry(ContractsRegistry _contractsRegistry) external onlyOwner {\n        contractsRegistry = _contractsRegistry;  \n\n        bmiToken = ERC20(contractsRegistry.getContract(contractsRegistry.getBMIName()));\n        LMNFT = LiquidityMiningNFT(contractsRegistry.getContract(contractsRegistry.getLiquidityMiningNFTName()));\n    }\n\n    function getLeaderboardSize() external view returns (uint256) {\n        return leaderboard.length;\n    }\n\n    function investDAI(uint256 _groupID, uint256 _tokensAmount, address _policyBookAddr) external {\n        require(block.timestamp < getEndLMTime(),\n            \"It is impossible to invest in DAI after the end of the liquidity mining event\");\n\n        uint256 _id = _groupID;\n        if (_groupID == 0) {\n            _id = groupsCount++;\n        }\n\n        uint256 _totalGroupAmount = totalGroupsAmount[_id].add(_tokensAmount);\n\n        totalGroupsAmount[_id] = _totalGroupAmount;\n        groups[_id][msg.sender] = groups[_id][msg.sender].add(_tokensAmount);\n\n        _updateLeaderboard(_id);\n        _updateGroupLeaders(_id);\n\n        emit DAIInvested(_id, _tokensAmount, _totalGroupAmount);\n        IPolicyBook(_policyBookAddr).addLiquidityFromLM(msg.sender, _tokensAmount);\n    }\n\n    function distributeAllNFT() external {\n        uint256 _tmpGroupId;\n        for(uint256 i = 0; i < leaderboard.length; i++) {\n            _tmpGroupId = leaderboard[i];\n            if(groups[_tmpGroupId][msg.sender] > 0) {\n                distributeNFT(_tmpGroupId);\n            }\n        }\n    }\n\n    function distributeNFT(uint256 _groupID) public returns (bool){\n        require(block.timestamp > getEndLMTime(),\n            \"2 weeks after liquidity mining time has not expired\");\n\n        if (_getIndexInTheLeaderboard(_groupID) == maxLeaderboardSize) {\n            return false;\n        }\n\n        uint256 _foundIndex = maxGroupLeadersSize;\n        address[] memory _addresses = groupsLeaders[_groupID];\n\n        for (uint256 i = 0; i < _addresses.length; i++) {\n            if (_addresses[i] == msg.sender) {\n                _foundIndex = i;\n                break;\n            }\n        }\n\n        if (_foundIndex == maxGroupLeadersSize) {\n            return false;\n        }\n\n        _sendNFT(_foundIndex);\n\n        return true;\n    }\n\n    function getTotalReward() external returns (uint256) {\n        uint256 _totalReward;\n        uint256 _tmpGroupId;\n        for(uint256 i = 0; i < leaderboard.length; i++) {\n            _tmpGroupId = leaderboard[i];\n            if(groups[_tmpGroupId][msg.sender] > 0) {\n                _totalReward = _totalReward.add(getRewardFromGroup(_tmpGroupId));\n            }\n        }\n\n        return _totalReward;\n    }\n\n    function getRewardFromGroup(uint256 _groupID) public returns (uint256) {\n        require(block.timestamp > getEndLMTime(),\n            \"2 weeks after liquidity mining time has not expire\");\n        \n        if(!_checkAvailableReward(_groupID)) {\n            return 0;\n        }\n\n        uint256 _rewardPerMonth = _getRewardPerMonth(_groupID);\n        RewardInfo memory _rewardInfo = rewardInfos[_groupID][msg.sender];\n\n        uint256 _totalReward = _rewardPerMonth.mul(_rewardInfo.countOfMonth);\n        uint256 _userRewardPer = _calculatePercentage(groups[_groupID][msg.sender], totalGroupsAmount[_groupID]);\n        uint256 _userReward = _totalReward.mul(_userRewardPer).div(decimal);\n\n        require(bmiToken.transfer(msg.sender, _userReward), \"Failed to transfer tokens\");\n        emit RewardSent(_groupID, msg.sender, _userReward);\n\n        _rewardInfo.countOfMonth = 0;\n\n        rewardInfos[_groupID][msg.sender] = _rewardInfo;\n\n        return _userReward;\n    }\n\n    function _checkAvailableReward(uint256 _groupID) internal returns (bool) {\n        uint256 _currentGroupIndex = _getIndexInTheLeaderboard(_groupID);\n        if(_currentGroupIndex == maxLeaderboardSize) {\n            return false;\n        }\n\n        if(groups[_groupID][msg.sender] == 0) {\n            return false;\n        }\n\n        _updateRewardInfo(_groupID);\n\n        if (rewardInfos[_groupID][msg.sender].countOfMonth == 0) {\n            return false;\n        }\n\n        return true;\n    }\n\n    function getEndLMTime() public view returns (uint256) {\n        return startLiquidityMiningTime.add(2 weeks);\n    }\n\n    function _sendNFT(uint256 _index) internal {\n        uint256 _nftIndex;\n\n        if (_index == 0) {\n            _nftIndex = 1;\n        } else if (_index > 0 && _index < 3) {\n            _nftIndex = 2;\n        } else if (_index >= 3 && _index < 6) {\n            _nftIndex = 3;\n        } else {\n            _nftIndex = 4;\n        }\n    \n        LMNFT.safeTransferFrom(address(this), msg.sender, _nftIndex, 1, \"\");\n\n        emit NFTSent(msg.sender, _nftIndex);\n    }\n\n    function _calculatePercentage(uint256 _part, uint256 _amount) internal view returns (uint256) {\n        if (_amount == 0) {\n            return 0;\n        }\n        return _part.mul(decimal).div(_amount);\n    }\n\n    function _getRewardPerMonth(uint256 _groupID) internal view returns (uint256) {\n        uint256 _oneToken = 10 ** bmiToken.decimals();\n        uint256 _indexInTheLeaderboard = _getIndexInTheLeaderboard(_groupID);\n        uint256 _rewardPerMonth;\n\n        if(_indexInTheLeaderboard == 0) {\n            _rewardPerMonth = 50000;\n        } else if (_indexInTheLeaderboard > 0 && _indexInTheLeaderboard < 5) {\n            _rewardPerMonth = 10000;\n        } else {\n            _rewardPerMonth = 4000;\n        }\n\n        return _rewardPerMonth.mul(_oneToken);\n    }\n\n    function _updateRewardInfo(uint256 _groupID) internal {\n        RewardInfo memory _rewardInfo = rewardInfos[_groupID][msg.sender];\n        uint256 _oneMonth = 30 days;\n        uint256 _startRewardTime = getEndLMTime();\n\n        uint256 _countOfRewardedMonth;\n        for(uint256 i = 0; i < maxMonthToGetReward; i++) {\n            if(_rewardInfo.lastUpdate > _startRewardTime.add(_oneMonth.mul(i))) {\n                _countOfRewardedMonth++;\n            }\n        }\n\n        if (_countOfRewardedMonth != maxMonthToGetReward) {\n            for(uint256 i = _countOfRewardedMonth; i < maxMonthToGetReward; i++) {\n                if(block.timestamp > _startRewardTime.add(_oneMonth.mul(i))) {\n                    _rewardInfo.countOfMonth++;\n                }\n            }\n\n            _rewardInfo.lastUpdate = block.timestamp;\n\n            rewardInfos[_groupID][msg.sender] = _rewardInfo;\n            emit RewardInfoUpdated(_groupID, msg.sender, _rewardInfo.countOfMonth, _rewardInfo.lastUpdate);\n        }\n    }\n\n    function _getIndexInTheLeaderboard(uint256 _groupID) internal view returns (uint256) {\n        uint256 _leaderBoardLength = leaderboard.length;\n\n        uint256 _foundIndex = maxLeaderboardSize;\n        for(uint256 i = 0; i < _leaderBoardLength; i++) {\n            if(_groupID == leaderboard[i]) {\n                _foundIndex = i;\n            }\n        }\n\n        return _foundIndex;\n    }\n\n    function _updateLeaderboard(uint256 _groupID) internal returns (bool) {\n        uint256 _leaderBoardLength = leaderboard.length;\n\n        if(_leaderBoardLength == 0) {\n            leaderboard.push(_groupID);\n            emit LeaderboardUpdated(0, 0, _groupID);\n            return true;\n        }\n\n        uint256 _currentGroupIndex = _getIndexInTheLeaderboard(_groupID);\n        uint256 _foundLessIndex = maxLeaderboardSize;\n\n        for (uint256 i = 0; i < _leaderBoardLength; i++) {\n            if (totalGroupsAmount[_groupID] > totalGroupsAmount[leaderboard[i]]) {\n                _foundLessIndex = i;\n                break;\n            }\n        }\n\n        if(_currentGroupIndex == maxLeaderboardSize) {\n            _currentGroupIndex = leaderboard.length;\n            leaderboard.push(_groupID);\n        }\n\n        if(_currentGroupIndex < _foundLessIndex) {\n            return true;\n        }\n\n        uint256 _prevID = leaderboard[_foundLessIndex];\n        uint256 _tmpID;\n        uint256 _currentID = _groupID;\n        for (uint256 i = _foundLessIndex; i <= _currentGroupIndex; i++) {\n            _tmpID = leaderboard[i];\n            leaderboard[i] = _currentID;\n            _currentID = _tmpID;\n        }\n\n        if(leaderboard.length == maxLeaderboardSize.add(1)) {\n            leaderboard.pop();\n        }\n\n        emit LeaderboardUpdated(_foundLessIndex, _prevID, _groupID);\n        return true;\n    }\n\n    function _updateGroupLeaders(uint256 _groupID) internal returns (bool) {\n        address[] memory _addresses = groupsLeaders[_groupID];\n        uint256 _groupLeadersSize = _addresses.length;\n\n        if(_groupLeadersSize == 0) {\n            groupsLeaders[_groupID].push(msg.sender);\n            return true;\n        }\n\n        uint256 _currentIndex = maxGroupLeadersSize;\n        uint256 _foundLessIndex = maxGroupLeadersSize;\n\n        for (uint256 i = 0; i < _groupLeadersSize; i++) {\n            if (_addresses[i] == msg.sender) {\n                _currentIndex = i;\n                break;\n            }\n        }\n\n        for (uint256 i = 0; i < _groupLeadersSize; i++) {\n            if (groups[_groupID][msg.sender] > groups[_groupID][_addresses[i]]) {\n                _foundLessIndex = i;\n                break;\n            }\n        }\n\n        if(_currentIndex == maxGroupLeadersSize) {\n            _currentIndex = _groupLeadersSize;\n            groupsLeaders[_groupID].push(msg.sender);\n        }\n\n        if(_currentIndex < _foundLessIndex) {\n            return true;\n        }\n\n        _addresses = groupsLeaders[_groupID];\n\n        address _tmpAddr;\n        address _currentAddr = msg.sender;\n        for (uint256 i = _foundLessIndex; i <= _currentIndex; i++) {\n            _tmpAddr = _addresses[i];\n            _addresses[i] = _currentAddr;\n            _currentAddr = _tmpAddr;\n        }\n\n        groupsLeaders[_groupID] = _addresses;\n\n        if(_addresses.length == maxGroupLeadersSize.add(1)) {\n            groupsLeaders[_groupID].pop();\n        }\n        return true;\n    }\n\n    function onERC1155Received(\n        address operator,\n        address from,\n        uint256 id,\n        uint256 value,\n        bytes memory data\n    )\n        external\n        pure\n        override\n        returns(bytes4)\n    {\n        return bytes4(keccak256(\"onERC1155BatchReceived(address,address,uint256[],uint256[],bytes)\"));\n    }\n\n    function onERC1155BatchReceived(\n        address operator,\n        address from,\n        uint256[] memory ids,\n        uint256[] memory values,\n        bytes memory data\n    )\n        external\n        pure\n        override\n        returns(bytes4)\n    {\n        return bytes4(keccak256(\"onERC1155BatchReceived(address,address,uint256[],uint256[],bytes)\"));\n    }\n}\n",
  "sourcePath": "/home/artem/Projects/Distributed_Lab/Applicature/bridgemutual-core/contracts/LiquidityMining.sol",
  "compiler": {
    "name": "solc",
    "version": "0.7.4+commit.3f05b770.Emscripten.clang"
  },
  "schemaVersion": "3.3.3",
  "updatedAt": "2021-01-28T13:35:34.905Z",
  "networkType": "ethereum",
  "devdoc": {
    "kind": "dev",
    "methods": {
      "onERC1155BatchReceived(address,address,uint256[],uint256[],bytes)": {
        "details": "Handles the receipt of a multiple ERC1155 token types. This function is called at the end of a `safeBatchTransferFrom` after the balances have been updated. To accept the transfer(s), this must return `bytes4(keccak256(\"onERC1155BatchReceived(address,address,uint256[],uint256[],bytes)\"))` (i.e. 0xbc197c81, or its own function selector).",
        "params": {
          "data": "Additional data with no specified format",
          "from": "The address which previously owned the token",
          "ids": "An array containing ids of each token being transferred (order and length must match values array)",
          "operator": "The address which initiated the batch transfer (i.e. msg.sender)",
          "values": "An array containing amounts of each token being transferred (order and length must match ids array)"
        },
        "returns": {
          "_0": "`bytes4(keccak256(\"onERC1155BatchReceived(address,address,uint256[],uint256[],bytes)\"))` if transfer is allowed"
        }
      },
      "onERC1155Received(address,address,uint256,uint256,bytes)": {
        "details": "Handles the receipt of a single ERC1155 token type. This function is called at the end of a `safeTransferFrom` after the balance has been updated. To accept the transfer, this must return `bytes4(keccak256(\"onERC1155Received(address,address,uint256,uint256,bytes)\"))` (i.e. 0xf23a6e61, or its own function selector).",
        "params": {
          "data": "Additional data with no specified format",
          "from": "The address which previously owned the token",
          "id": "The ID of the token being transferred",
          "operator": "The address which initiated the transfer (i.e. msg.sender)",
          "value": "The amount of tokens being transferred"
        },
        "returns": {
          "_0": "`bytes4(keccak256(\"onERC1155Received(address,address,uint256,uint256,bytes)\"))` if transfer is allowed"
        }
      },
      "owner()": {
        "details": "Returns the address of the current owner."
      },
      "renounceOwnership()": {
        "details": "Leaves the contract without owner. It will not be possible to call `onlyOwner` functions anymore. Can only be called by the current owner. NOTE: Renouncing ownership will leave the contract without an owner, thereby removing any functionality that is only available to the owner."
      },
      "supportsInterface(bytes4)": {
        "details": "See {IERC165-supportsInterface}. Time complexity O(1), guaranteed to always use less than 30 000 gas."
      },
      "transferOwnership(address)": {
        "details": "Transfers ownership of the contract to a new account (`newOwner`). Can only be called by the current owner."
      }
    },
    "version": 1
  },
  "userdoc": {
    "kind": "user",
    "methods": {},
    "version": 1
  }
}