{
  "contractName": "LiquidityMining",
  "abi": [
    {
      "inputs": [
        {
          "internalType": "contract ContractsRegistry",
          "name": "_registry",
          "type": "address"
        }
      ],
      "stateMutability": "nonpayable",
      "type": "constructor"
    },
    {
      "anonymous": false,
      "inputs": [
        {
          "indexed": false,
          "internalType": "uint256",
          "name": "_groupID",
          "type": "uint256"
        },
        {
          "indexed": false,
          "internalType": "uint256",
          "name": "_tokensAmount",
          "type": "uint256"
        },
        {
          "indexed": false,
          "internalType": "uint256",
          "name": "_newTotalGroupAmount",
          "type": "uint256"
        }
      ],
      "name": "DAIInvested",
      "type": "event"
    },
    {
      "anonymous": false,
      "inputs": [
        {
          "indexed": false,
          "internalType": "uint256",
          "name": "_index",
          "type": "uint256"
        },
        {
          "indexed": false,
          "internalType": "uint256",
          "name": "_prevGroupIndex",
          "type": "uint256"
        },
        {
          "indexed": false,
          "internalType": "uint256",
          "name": "_newGroupIndex",
          "type": "uint256"
        }
      ],
      "name": "LeaderboardUpdated",
      "type": "event"
    },
    {
      "anonymous": false,
      "inputs": [
        {
          "indexed": false,
          "internalType": "address",
          "name": "_address",
          "type": "address"
        },
        {
          "indexed": false,
          "internalType": "uint256",
          "name": "_nftIndex",
          "type": "uint256"
        }
      ],
      "name": "NFTSent",
      "type": "event"
    },
    {
      "anonymous": false,
      "inputs": [
        {
          "indexed": false,
          "internalType": "uint256",
          "name": "_groupID",
          "type": "uint256"
        },
        {
          "indexed": false,
          "internalType": "address",
          "name": "_address",
          "type": "address"
        },
        {
          "indexed": false,
          "internalType": "uint256",
          "name": "_newCountOfMonth",
          "type": "uint256"
        },
        {
          "indexed": false,
          "internalType": "uint256",
          "name": "_newLastUpdate",
          "type": "uint256"
        }
      ],
      "name": "RewardInfoUpdated",
      "type": "event"
    },
    {
      "anonymous": false,
      "inputs": [
        {
          "indexed": false,
          "internalType": "uint256",
          "name": "_groupID",
          "type": "uint256"
        },
        {
          "indexed": false,
          "internalType": "address",
          "name": "_address",
          "type": "address"
        },
        {
          "indexed": false,
          "internalType": "uint256",
          "name": "_reward",
          "type": "uint256"
        }
      ],
      "name": "RewardSent",
      "type": "event"
    },
    {
      "inputs": [],
      "name": "decimal",
      "outputs": [
        {
          "internalType": "uint256",
          "name": "",
          "type": "uint256"
        }
      ],
      "stateMutability": "view",
      "type": "function"
    },
    {
      "inputs": [
        {
          "internalType": "uint256",
          "name": "",
          "type": "uint256"
        },
        {
          "internalType": "address",
          "name": "",
          "type": "address"
        }
      ],
      "name": "groups",
      "outputs": [
        {
          "internalType": "uint256",
          "name": "",
          "type": "uint256"
        }
      ],
      "stateMutability": "view",
      "type": "function"
    },
    {
      "inputs": [],
      "name": "groupsCount",
      "outputs": [
        {
          "internalType": "uint256",
          "name": "",
          "type": "uint256"
        }
      ],
      "stateMutability": "view",
      "type": "function"
    },
    {
      "inputs": [
        {
          "internalType": "uint256",
          "name": "",
          "type": "uint256"
        },
        {
          "internalType": "uint256",
          "name": "",
          "type": "uint256"
        }
      ],
      "name": "groupsLeaders",
      "outputs": [
        {
          "internalType": "address",
          "name": "",
          "type": "address"
        }
      ],
      "stateMutability": "view",
      "type": "function"
    },
    {
      "inputs": [
        {
          "internalType": "uint256",
          "name": "",
          "type": "uint256"
        }
      ],
      "name": "leaderboard",
      "outputs": [
        {
          "internalType": "uint256",
          "name": "",
          "type": "uint256"
        }
      ],
      "stateMutability": "view",
      "type": "function"
    },
    {
      "inputs": [],
      "name": "maxGroupLeadersSize",
      "outputs": [
        {
          "internalType": "uint256",
          "name": "",
          "type": "uint256"
        }
      ],
      "stateMutability": "view",
      "type": "function"
    },
    {
      "inputs": [],
      "name": "maxLeaderboardSize",
      "outputs": [
        {
          "internalType": "uint256",
          "name": "",
          "type": "uint256"
        }
      ],
      "stateMutability": "view",
      "type": "function"
    },
    {
      "inputs": [],
      "name": "maxMonthToGetReward",
      "outputs": [
        {
          "internalType": "uint256",
          "name": "",
          "type": "uint256"
        }
      ],
      "stateMutability": "view",
      "type": "function"
    },
    {
      "inputs": [
        {
          "internalType": "uint256",
          "name": "",
          "type": "uint256"
        },
        {
          "internalType": "address",
          "name": "",
          "type": "address"
        }
      ],
      "name": "rewardInfos",
      "outputs": [
        {
          "internalType": "uint256",
          "name": "countOfMonth",
          "type": "uint256"
        },
        {
          "internalType": "uint256",
          "name": "lastUpdate",
          "type": "uint256"
        }
      ],
      "stateMutability": "view",
      "type": "function"
    },
    {
      "inputs": [],
      "name": "startLiquidityMiningTime",
      "outputs": [
        {
          "internalType": "uint256",
          "name": "",
          "type": "uint256"
        }
      ],
      "stateMutability": "view",
      "type": "function"
    },
    {
      "inputs": [
        {
          "internalType": "bytes4",
          "name": "interfaceId",
          "type": "bytes4"
        }
      ],
      "name": "supportsInterface",
      "outputs": [
        {
          "internalType": "bool",
          "name": "",
          "type": "bool"
        }
      ],
      "stateMutability": "view",
      "type": "function"
    },
    {
      "inputs": [
        {
          "internalType": "uint256",
          "name": "",
          "type": "uint256"
        }
      ],
      "name": "totalGroupsAmount",
      "outputs": [
        {
          "internalType": "uint256",
          "name": "",
          "type": "uint256"
        }
      ],
      "stateMutability": "view",
      "type": "function"
    },
    {
      "inputs": [],
      "name": "getLeaderboardSize",
      "outputs": [
        {
          "internalType": "uint256",
          "name": "",
          "type": "uint256"
        }
      ],
      "stateMutability": "view",
      "type": "function"
    },
    {
      "inputs": [
        {
          "internalType": "uint256",
          "name": "_groupID",
          "type": "uint256"
        },
        {
          "internalType": "uint256",
          "name": "_tokensAmount",
          "type": "uint256"
        },
        {
          "internalType": "address",
          "name": "_policyBookAddr",
          "type": "address"
        }
      ],
      "name": "investDAI",
      "outputs": [],
      "stateMutability": "nonpayable",
      "type": "function"
    },
    {
      "inputs": [],
      "name": "distributeAllNFT",
      "outputs": [],
      "stateMutability": "nonpayable",
      "type": "function"
    },
    {
      "inputs": [
        {
          "internalType": "uint256",
          "name": "_groupID",
          "type": "uint256"
        }
      ],
      "name": "distributeNFT",
      "outputs": [
        {
          "internalType": "bool",
          "name": "",
          "type": "bool"
        }
      ],
      "stateMutability": "nonpayable",
      "type": "function"
    },
    {
      "inputs": [],
      "name": "getTotalReward",
      "outputs": [
        {
          "internalType": "uint256",
          "name": "",
          "type": "uint256"
        }
      ],
      "stateMutability": "nonpayable",
      "type": "function"
    },
    {
      "inputs": [
        {
          "internalType": "uint256",
          "name": "_groupID",
          "type": "uint256"
        }
      ],
      "name": "getRewardFromGroup",
      "outputs": [
        {
          "internalType": "uint256",
          "name": "",
          "type": "uint256"
        }
      ],
      "stateMutability": "nonpayable",
      "type": "function"
    },
    {
      "inputs": [
        {
          "internalType": "uint256",
          "name": "_groupID",
          "type": "uint256"
        }
      ],
      "name": "checkAvailableReward",
      "outputs": [
        {
          "internalType": "bool",
          "name": "",
          "type": "bool"
        }
      ],
      "stateMutability": "nonpayable",
      "type": "function"
    },
    {
      "inputs": [],
      "name": "getEndLMTime",
      "outputs": [
        {
          "internalType": "uint256",
          "name": "",
          "type": "uint256"
        }
      ],
      "stateMutability": "view",
      "type": "function"
    },
    {
      "inputs": [
        {
          "internalType": "address",
          "name": "operator",
          "type": "address"
        },
        {
          "internalType": "address",
          "name": "from",
          "type": "address"
        },
        {
          "internalType": "uint256",
          "name": "id",
          "type": "uint256"
        },
        {
          "internalType": "uint256",
          "name": "value",
          "type": "uint256"
        },
        {
          "internalType": "bytes",
          "name": "data",
          "type": "bytes"
        }
      ],
      "name": "onERC1155Received",
      "outputs": [
        {
          "internalType": "bytes4",
          "name": "",
          "type": "bytes4"
        }
      ],
      "stateMutability": "nonpayable",
      "type": "function"
    },
    {
      "inputs": [
        {
          "internalType": "address",
          "name": "operator",
          "type": "address"
        },
        {
          "internalType": "address",
          "name": "from",
          "type": "address"
        },
        {
          "internalType": "uint256[]",
          "name": "ids",
          "type": "uint256[]"
        },
        {
          "internalType": "uint256[]",
          "name": "values",
          "type": "uint256[]"
        },
        {
          "internalType": "bytes",
          "name": "data",
          "type": "bytes"
        }
      ],
      "name": "onERC1155BatchReceived",
      "outputs": [
        {
          "internalType": "bytes4",
          "name": "",
          "type": "bytes4"
        }
      ],
      "stateMutability": "nonpayable",
      "type": "function"
    }
  ],
  "bytecode": "0x6080604052600b600555600a60065560056007556b033b2e3c9fd0803ce80000006008553480156200003057600080fd5b506040516200214138038062002141833981810160405260208110156200005657600080fd5b50516200006a6301ffc9a760e01b620000ab565b6200007c630271189760e51b620000ab565b600160038190554260045580546001600160a01b0319166001600160a01b039290921691909117905562000130565b6001600160e01b031980821614156200010b576040805162461bcd60e51b815260206004820152601c60248201527f4552433136353a20696e76616c696420696e7465726661636520696400000000604482015290519081900360640190fd5b6001600160e01b0319166000908152602081905260409020805460ff19166001179055565b61200180620001406000396000f3fe608060405234801561001057600080fd5b50600436106101825760003560e01c8063a04337ec116100d8578063bf3683991161008c578063f23a6e6111610066578063f23a6e61146105c9578063f6301de71461062c578063fe2290a91461064957610182565b8063bf36839914610558578063e5528d9b14610575578063f041df46146105c157610182565b8063a58ed781116100bd578063a58ed781146102c4578063aebbb8a914610316578063bc197c811461034f57610182565b8063a04337ec1461029f578063a47f753a146102bc57610182565b80635c57e4ac1161013a57806376809ce31161011457806376809ce3146102875780637d1fcbfa1461028f578063885e27501461029757610182565b80635c57e4ac1461023657806361224eb11461023e5780636c1e66ea1461027f57610182565b80630cbd7e841161016b5780630cbd7e84146101f757806313596500146102115780631b3e4db11461022e57610182565b806301ffc9a714610187578063053e1647146101da575b600080fd5b6101c66004803603602081101561019d57600080fd5b50357fffffffff0000000000000000000000000000000000000000000000000000000016610651565b604080519115158252519081900360200190f35b6101c6600480360360208110156101f057600080fd5b503561068c565b6101ff610710565b60408051918252519081900360200190f35b6101ff6004803603602081101561022757600080fd5b5035610728565b6101ff61073a565b6101ff610740565b61027d6004803603606081101561025457600080fd5b508035906020810135906040013573ffffffffffffffffffffffffffffffffffffffff16610746565b005b6101ff610903565b6101ff610909565b6101ff61090f565b6101ff61097d565b6101ff600480360360208110156102b557600080fd5b5035610983565b61027d610e76565b6102fd600480360360408110156102da57600080fd5b508035906020013573ffffffffffffffffffffffffffffffffffffffff16610ed3565b6040805192835260208301919091528051918290030190f35b6101ff6004803603604081101561032c57600080fd5b508035906020013573ffffffffffffffffffffffffffffffffffffffff16610ef7565b610523600480360360a081101561036557600080fd5b73ffffffffffffffffffffffffffffffffffffffff82358116926020810135909116918101906060810160408201356401000000008111156103a657600080fd5b8201836020820111156103b857600080fd5b803590602001918460208302840111640100000000831117156103da57600080fd5b919080806020026020016040519081016040528093929190818152602001838360200280828437600092019190915250929594936020810193503591505064010000000081111561042a57600080fd5b82018360208201111561043c57600080fd5b8035906020019184602083028401116401000000008311171561045e57600080fd5b91908080602002602001604051908101604052809392919081815260200183836020028082843760009201919091525092959493602081019350359150506401000000008111156104ae57600080fd5b8201836020820111156104c057600080fd5b803590602001918460018302840111640100000000831117156104e257600080fd5b91908080601f016020809104026020016040519081016040528093929190818152602001838380828437600092019190915250929550610f14945050505050565b604080517fffffffff000000000000000000000000000000000000000000000000000000009092168252519081900360200190f35b6101ff6004803603602081101561056e57600080fd5b5035610f3e565b6105986004803603604081101561058b57600080fd5b5080359060200135610f5f565b6040805173ffffffffffffffffffffffffffffffffffffffff9092168252519081900360200190f35b6101ff610fa4565b610523600480360360a08110156105df57600080fd5b73ffffffffffffffffffffffffffffffffffffffff823581169260208101359091169160408201359160608101359181019060a0810160808201356401000000008111156104ae57600080fd5b6101c66004803603602081101561064257600080fd5b5035610faa565b6101ff611128565b7fffffffff00000000000000000000000000000000000000000000000000000000811660009081526020819052604090205460ff165b919050565b6000806106988361112e565b90506006548114156106ae576000915050610687565b60008381526009602090815260408083203384529091529020546106d6576000915050610687565b6106df83611175565b6000838152600b60209081526040808320338452909152902054610707576000915050610687565b50600192915050565b60045460009061072390621275006112ab565b905090565b600a6020526000908152604090205481565b60025490565b60075481565b61074e610710565b42106107a5576040517f08c379a000000000000000000000000000000000000000000000000000000000815260040180806020018281038252604d815260200180611f4d604d913960600191505060405180910390fd5b82806107b8575060038054600181019091555b6000818152600a60205260408120546107d190856112ab565b6000838152600a602090815260408083208490556009825280832033845290915290205490915061080290856112ab565b600083815260096020908152604080832033845290915290205561082582611328565b5061082f82611567565b50604080518381526020810186905280820183905290517f5878e207b340ce027c3f02b4ca23a67aca93fa8e4e921a156c367fa9fcd68cf49181900360600190a1604080517fc91348c300000000000000000000000000000000000000000000000000000000815233600482015260248101869052905173ffffffffffffffffffffffffffffffffffffffff85169163c91348c391604480830192600092919082900301818387803b1580156108e457600080fd5b505af11580156108f8573d6000803e3d6000fd5b505050505050505050565b60055481565b60085481565b60008080805b600254811015610975576002818154811061092c57fe5b60009182526020808320909101548083526009825260408084203385529092529120549092501561096d5761096a61096383610983565b84906112ab565b92505b600101610915565b509091505090565b60035481565b600061098d610710565b42116109e4576040517f08c379a0000000000000000000000000000000000000000000000000000000008152600401808060200182810382526032815260200180611f9a6032913960400191505060405180910390fd5b6109ed8261068c565b6109f957506000610687565b6000610a048361191a565b9050610a0e611e72565b506000838152600b60209081526040808320338452825280832081518083019092528054808352600190910154928201929092529190610a4f908490611962565b6000868152600960209081526040808320338452825280832054898452600a9092528220549293509091610a8391906119d5565b90506000610aa6600854610aa0848661196290919063ffffffff16565b906119fd565b600154604080517f27c300af000000000000000000000000000000000000000000000000000000008152905192935060009273ffffffffffffffffffffffffffffffffffffffff9092169163358177739183916327c300af916004808201928892909190829003018186803b158015610b1e57600080fd5b505afa158015610b32573d6000803e3d6000fd5b505050506040513d6000823e601f3d9081017fffffffffffffffffffffffffffffffffffffffffffffffffffffffffffffffe01682016040526020811015610b7957600080fd5b8101908080516040519392919084640100000000821115610b9957600080fd5b908301906020820185811115610bae57600080fd5b8251640100000000811182820188101715610bc857600080fd5b82525081516020918201929091019080838360005b83811015610bf5578181015183820152602001610bdd565b50505050905090810190601f168015610c225780820380516001836020036101000a031916815260200191505b506040525050506040518263ffffffff1660e01b81526004018080602001828103825283818151815260200191508051906020019080838360005b83811015610c75578181015183820152602001610c5d565b50505050905090810190601f168015610ca25780820380516001836020036101000a031916815260200191505b509250505060206040518083038186803b158015610cbf57600080fd5b505afa158015610cd3573d6000803e3d6000fd5b505050506040513d6020811015610ce957600080fd5b5051604080517fa9059cbb00000000000000000000000000000000000000000000000000000000815233600482015260248101859052905191925073ffffffffffffffffffffffffffffffffffffffff83169163a9059cbb916044808201926020929091908290030181600087803b158015610d6457600080fd5b505af1158015610d78573d6000803e3d6000fd5b505050506040513d6020811015610d8e57600080fd5b5051610dfb57604080517f08c379a000000000000000000000000000000000000000000000000000000000815260206004820152601960248201527f4661696c656420746f207472616e7366657220746f6b656e7300000000000000604482015290519081900360640190fd5b6040805189815233602082015280820184905290517f2d2c3375da5b0a5f617bbcefa38e413a9ef5f70e50d0f9c5f6cc0adc3fa357799181900360600190a1506000808552426020808701918252988252600b8952604080832033845290995297902093518455955160019093019290925550929392505050565b6000805b600254811015610ecf5760028181548110610e9157fe5b600091825260208083209091015480835260098252604080842033855290925291205490925015610ec757610ec582610faa565b505b600101610e7a565b5050565b600b6020908152600092835260408084209091529082529020805460019091015482565b600960209081526000928352604080842090915290825290205481565b7fbc197c819b3e337a6f9652dd10becd7eef83032af3b9d958d3d42f669414662195945050505050565b60028181548110610f4e57600080fd5b600091825260209091200154905081565b600c6020528160005260406000208181548110610f7b57600080fd5b60009182526020909120015473ffffffffffffffffffffffffffffffffffffffff169150829050565b60065481565b6000610fb4610710565b421161100b576040517f08c379a0000000000000000000000000000000000000000000000000000000008152600401808060200182810382526032815260200180611f9a6032913960400191505060405180910390fd5b6006546110178361112e565b141561102557506000610687565b6005546000838152600c602090815260409182902080548351818402810184019094528084526060939283018282801561109557602002820191906000526020600020905b815473ffffffffffffffffffffffffffffffffffffffff16815260019091019060200180831161106a575b5050505050905060005b81518110156110ff573373ffffffffffffffffffffffffffffffffffffffff168282815181106110cb57fe5b602002602001015173ffffffffffffffffffffffffffffffffffffffff1614156110f7578092506110ff565b60010161109f565b5060055482141561111557600092505050610687565b61111e82611a3f565b5060019392505050565b60045481565b60025460065460009190825b8281101561116d576002818154811061114f57fe5b9060005260206000200154851415611165578091505b60010161113a565b509392505050565b61117d611e72565b506000818152600b60209081526040808320338452825280832081518083019092528054825260010154918101919091529062278d00906111bc610710565b90506000805b6007548110156111f3576111d96109638583611962565b856020015111156111eb576001909101905b6001016111c2565b5060075481146112a457805b60075481101561122d576112166109638583611962565b42111561122557845160010185525b6001016111ff565b504260208086019182526000878152600b82526040808220338084529084529181902088518082559451600190910181905581518a81529384019290925282810193909352606082015290517f6f67645189788843e2f59929943b27d92e7a778a78a2d9ab47746216c863d7379181900360800190a15b5050505050565b60008282018381101561131f57604080517f08c379a000000000000000000000000000000000000000000000000000000000815260206004820152601b60248201527f536166654d6174683a206164646974696f6e206f766572666c6f770000000000604482015290519081900360640190fd5b90505b92915050565b600254600090806113b1576002805460018101825560009182527f405787fa12a823e0f2b7631cc41b3ba8828b3321ca811111fa75cd3aa3bb5ace01849055604080518281526020810192909252818101859052517fcbb6c6ae423a412fd87ff8232d5f76edecb3194550f98e7a30f7ecb5d0f842b19181900360600190a16001915050610687565b60006113bc8461112e565b60065490915060005b8381101561142257600a6000600283815481106113de57fe5b9060005260206000200154815260200190815260200160002054600a600088815260200190815260200160002054111561141a57809150611422565b6001016113c5565b5060065482141561146657600280546001810182556000919091527f405787fa12a823e0f2b7631cc41b3ba8828b3321ca811111fa75cd3aa3bb5ace810186905591505b8082101561147a5760019350505050610687565b60006002828154811061148957fe5b6000918252602082200154915086835b8581116114df57600281815481106114ad57fe5b9060005260206000200154925081600282815481106114c857fe5b600091825260209091200155829150600101611499565b506006546114ee9060016112ab565b600254141561151957600280548061150257fe5b600190038181906000526020600020016000905590555b60408051858152602081018590528082018a905290517fcbb6c6ae423a412fd87ff8232d5f76edecb3194550f98e7a30f7ecb5d0f842b19181900360600190a1506001979650505050505050565b6000818152600c6020908152604080832080548251818502810185019093528083526060938301828280156115d257602002820191906000526020600020905b815473ffffffffffffffffffffffffffffffffffffffff1681526001909101906020018083116115a7575b5050835193945050508115159050611635575050506000818152600c602090815260408220805460018181018355918452919092200180547fffffffffffffffffffffffff00000000000000000000000000000000000000001633179055610687565b6005548060005b8381101561169b573373ffffffffffffffffffffffffffffffffffffffff1685828151811061166757fe5b602002602001015173ffffffffffffffffffffffffffffffffffffffff1614156116935780925061169b565b60010161163c565b5060005b83811015611726576009600088815260200190815260200160002060008683815181106116c857fe5b60209081029190910181015173ffffffffffffffffffffffffffffffffffffffff1682528181019290925260409081016000908120548a8252600984528282203383529093522054111561171e57809150611726565b60010161169f565b5060055482141561177b576000868152600c602090815260408220805460018101825590835291200180547fffffffffffffffffffffffff000000000000000000000000000000000000000016331790558291505b80821015611790576001945050505050610687565b6000868152600c6020908152604091829020805483518184028101840190945280845290918301828280156117fb57602002820191906000526020600020905b815473ffffffffffffffffffffffffffffffffffffffff1681526001909101906020018083116117d0575b5093975060009350339250849150505b8481116118655786818151811061181e57fe5b602002602001015192508187828151811061183557fe5b73ffffffffffffffffffffffffffffffffffffffff9092166020928302919091019091015282915060010161180b565b506000888152600c60209081526040909120875161188592890190611e8c565b506005546118949060016112ab565b8651141561190c576000888152600c602052604090208054806118b357fe5b60008281526020902081017fffffffffffffffffffffffffffffffffffffffffffffffffffffffffffffffff90810180547fffffffffffffffffffffffff00000000000000000000000000000000000000001690550190555b506001979650505050505050565b6000806119268361112e565b9050600081611938575061c35061195b565b6000821180156119485750600582105b15611956575061271061195b565b50610fa05b9392505050565b60008261197157506000611322565b8282028284828161197e57fe5b041461131f576040517f08c379a0000000000000000000000000000000000000000000000000000000008152600401808060200182810382526021815260200180611f2c6021913960400191505060405180910390fd5b6000816119e457506000611322565b61131f82610aa06008548661196290919063ffffffff16565b600061131f83836040518060400160405280601a81526020017f536166654d6174683a206469766973696f6e206279207a65726f000000000000815250611db6565b600081611a4e57506001611a8d565b600082118015611a5e5750600382105b15611a6b57506002611a8d565b60038210158015611a7c5750600682105b15611a8957506003611a8d565b5060045b600154604080517fa44df29f000000000000000000000000000000000000000000000000000000008152905160009273ffffffffffffffffffffffffffffffffffffffff1691633581777391839163a44df29f9160048083019288929190829003018186803b158015611aff57600080fd5b505afa158015611b13573d6000803e3d6000fd5b505050506040513d6000823e601f3d9081017fffffffffffffffffffffffffffffffffffffffffffffffffffffffffffffffe01682016040526020811015611b5a57600080fd5b8101908080516040519392919084640100000000821115611b7a57600080fd5b908301906020820185811115611b8f57600080fd5b8251640100000000811182820188101715611ba957600080fd5b82525081516020918201929091019080838360005b83811015611bd6578181015183820152602001611bbe565b50505050905090810190601f168015611c035780820380516001836020036101000a031916815260200191505b506040525050506040518263ffffffff1660e01b81526004018080602001828103825283818151815260200191508051906020019080838360005b83811015611c56578181015183820152602001611c3e565b50505050905090810190601f168015611c835780820380516001836020036101000a031916815260200191505b509250505060206040518083038186803b158015611ca057600080fd5b505afa158015611cb4573d6000803e3d6000fd5b505050506040513d6020811015611cca57600080fd5b5051604080517ff242432a000000000000000000000000000000000000000000000000000000008152306004820152336024820152604481018590526001606482015260a06084820152600060a48201819052915192935073ffffffffffffffffffffffffffffffffffffffff84169263f242432a9260e48084019391929182900301818387803b158015611d5e57600080fd5b505af1158015611d72573d6000803e3d6000fd5b5050604080513381526020810186905281517f607dc088d776f10d22a60794926bd9ea1d9fc36a5603e266f90cc642423350089450908190039091019150a1505050565b60008183611e5c576040517f08c379a00000000000000000000000000000000000000000000000000000000081526004018080602001828103825283818151815260200191508051906020019080838360005b83811015611e21578181015183820152602001611e09565b50505050905090810190601f168015611e4e5780820380516001836020036101000a031916815260200191505b509250505060405180910390fd5b506000838581611e6857fe5b0495945050505050565b604051806040016040528060008152602001600081525090565b828054828255906000526020600020908101928215611f06579160200282015b82811115611f0657825182547fffffffffffffffffffffffff00000000000000000000000000000000000000001673ffffffffffffffffffffffffffffffffffffffff909116178255602090920191600190910190611eac565b50611f12929150611f16565b5090565b5b80821115611f125760008155600101611f1756fe536166654d6174683a206d756c7469706c69636174696f6e206f766572666c6f77497420697320696d706f737369626c6520746f20696e7665737420696e204441492061667465722074686520656e64206f6620746865206c6971756964697479206d696e696e67206576656e7432207765656b73206166746572206c6971756964697479206d696e696e672074696d6520686173206e6f7420657870697265a26469706673582212203593fe0ac28a80789586d2d779009bca600e24bf2557ce6710f25cec4806babe64736f6c63430007040033",
  "immutableReferences": {},
  "source": "// SPDX-License-Identifier: MIT\npragma solidity ^0.7.4;\n\nimport \"@openzeppelin/contracts/math/SafeMath.sol\";\nimport \"@openzeppelin/contracts/token/ERC20/IERC20.sol\";\nimport \"@openzeppelin/contracts/token/ERC1155/ERC1155Receiver.sol\";\nimport \"./interfaces/IPolicyBook.sol\";\nimport \"./ContractRegistry.sol\";\nimport \"./LiquidityMiningNFT.sol\";\n\ncontract LiquidityMining is ERC1155Receiver {\n    using SafeMath for uint256;\n\n    ContractsRegistry private registry;\n\n    uint256[] public leaderboard;\n    uint256 public groupsCount;\n    uint256 public startLiquidityMiningTime;\n    uint256 public maxGroupLeadersSize = 11;\n    uint256 public maxLeaderboardSize = 10;\n    uint256 public maxMonthToGetReward = 5;\n    uint256 public decimal = 10**27;\n\n    struct RewardInfo {\n        uint256 countOfMonth;\n        uint256 lastUpdate;\n    }\n\n    constructor (ContractsRegistry _registry) {\n        groupsCount = 1;\n        startLiquidityMiningTime = block.timestamp;\n        registry = _registry;\n    }\n\n    // ID => Address => InvestedAmount\n    mapping (uint256 => mapping (address => uint256)) public groups;\n\n    // ID => total invested amount in the group\n    mapping (uint256 => uint256) public totalGroupsAmount;\n\n    // ID => Address => info\n    mapping (uint256 => mapping (address => RewardInfo)) public rewardInfos;\n\n    // ID => Leaders accounts addresses\n    mapping (uint256 => address[]) public groupsLeaders;\n\n    event DAIInvested(uint256 _groupID, uint256 _tokensAmount, uint256 _newTotalGroupAmount);\n    event LeaderboardUpdated(uint256 _index, uint256 _prevGroupIndex, uint256 _newGroupIndex);\n    event RewardInfoUpdated(uint256 _groupID, address _address, uint256 _newCountOfMonth, uint256 _newLastUpdate);\n    event RewardSent(uint256 _groupID, address _address, uint256 _reward);\n    event NFTSent(address _address, uint256 _nftIndex);\n\n    function getLeaderboardSize() external view returns (uint256) {\n        return leaderboard.length;\n    }\n\n    function investDAI(uint256 _groupID, uint256 _tokensAmount, address _policyBookAddr) external {\n        require(block.timestamp < getEndLMTime(),\n            \"It is impossible to invest in DAI after the end of the liquidity mining event\");\n\n        uint256 _id = _groupID;\n        if (_groupID == 0) {\n            _id = groupsCount++;\n        }\n\n        uint256 _totalGroupAmount = totalGroupsAmount[_id].add(_tokensAmount);\n\n        totalGroupsAmount[_id] = _totalGroupAmount;\n        groups[_id][msg.sender] = groups[_id][msg.sender].add(_tokensAmount);\n\n        _updateLeaderboard(_id);\n        _updateGroupLeaders(_id);\n\n        emit DAIInvested(_id, _tokensAmount, _totalGroupAmount);\n        IPolicyBook(_policyBookAddr).addLiquidityFromLM(msg.sender, _tokensAmount);\n    }\n\n    function distributeAllNFT() external {\n        uint256 _tmpGroupId;\n        for(uint256 i = 0; i < leaderboard.length; i++) {\n            _tmpGroupId = leaderboard[i];\n            if(groups[_tmpGroupId][msg.sender] > 0) {\n                distributeNFT(_tmpGroupId);\n            }\n        }\n    }\n\n    function distributeNFT(uint256 _groupID) public returns (bool){\n        require(block.timestamp > getEndLMTime(),\n            \"2 weeks after liquidity mining time has not expire\");\n\n        if (_getIndexInTheLeaderboard(_groupID) == maxLeaderboardSize) {\n            return false;\n        }\n\n        uint256 _foundedIndex = maxGroupLeadersSize;\n        address[] memory _addresses = groupsLeaders[_groupID];\n\n        for (uint256 i = 0; i < _addresses.length; i++) {\n            if (_addresses[i] == msg.sender) {\n                _foundedIndex = i;\n                break;\n            }\n        }\n\n        if (_foundedIndex == maxGroupLeadersSize) {\n            return false;\n        }\n\n        _sendNFT(_foundedIndex);\n\n        return true;\n    }\n\n    function getTotalReward() external returns (uint256) {\n        uint256 _totalReward;\n        uint256 _tmpGroupId;\n        for(uint256 i = 0; i < leaderboard.length; i++) {\n            _tmpGroupId = leaderboard[i];\n            if(groups[_tmpGroupId][msg.sender] > 0) {\n                _totalReward = _totalReward.add(getRewardFromGroup(_tmpGroupId));\n            }\n        }\n\n        return _totalReward;\n    }\n\n    function getRewardFromGroup(uint256 _groupID) public returns (uint256) {\n        require(block.timestamp > getEndLMTime(),\n            \"2 weeks after liquidity mining time has not expire\");\n        \n        if(!checkAvailableReward(_groupID)) {\n            return 0;\n        }\n\n        uint256 _rewardPerMonth = _getRewardPerMonth(_groupID);\n        RewardInfo memory _rewardInfo = rewardInfos[_groupID][msg.sender];\n\n        uint256 _totalReward = _rewardPerMonth.mul(_rewardInfo.countOfMonth);\n        uint256 _userRewardPer = _calculatePercentage(groups[_groupID][msg.sender], totalGroupsAmount[_groupID]);\n        uint256 _userReward = _totalReward.mul(_userRewardPer).div(decimal);\n\n        IERC20 _bmiToken = IERC20(registry.getContract(registry.getBMIName()));\n        require(_bmiToken.transfer(msg.sender, _userReward), \"Failed to transfer tokens\");\n        emit RewardSent(_groupID, msg.sender, _userReward);\n\n        _rewardInfo.countOfMonth = 0;\n        _rewardInfo.lastUpdate = block.timestamp;\n\n        rewardInfos[_groupID][msg.sender] = _rewardInfo;\n\n        return _userReward;\n    }\n\n    function checkAvailableReward(uint256 _groupID) public returns (bool) {\n        uint256 _currentGroupIndex = _getIndexInTheLeaderboard(_groupID);\n        if(_currentGroupIndex == maxLeaderboardSize) {\n            return false;\n        }\n\n        if(groups[_groupID][msg.sender] == 0) {\n            return false;\n        }\n\n        _updateRewardInfo(_groupID);\n\n        if (rewardInfos[_groupID][msg.sender].countOfMonth == 0) {\n            return false;\n        }\n\n        return true;\n    }\n\n    function getEndLMTime() public view returns (uint256) {\n        return startLiquidityMiningTime.add(2 weeks);\n    }\n\n    function _sendNFT(uint256 _index) internal {\n        uint256 _nftIndex;\n\n        if (_index == 0) {\n            _nftIndex = 1;\n        } else if (_index > 0 && _index < 3) {\n            _nftIndex = 2;\n        } else if (_index >= 3 && _index < 6) {\n            _nftIndex = 3;\n        } else {\n            _nftIndex = 4;\n        }\n\n        LiquidityMiningNFT _nft = LiquidityMiningNFT(registry.getContract(registry.getLiquidityMiningNFTName()));\n        _nft.safeTransferFrom(address(this), msg.sender, _nftIndex, 1, \"\");\n\n        emit NFTSent(msg.sender, _nftIndex);\n    }\n\n    function _calculatePercentage(uint256 _part, uint256 _amount) internal view returns (uint256) {\n        if (_amount == 0) {\n            return 0;\n        }\n        return _part.mul(decimal).div(_amount);\n    }\n\n    function _getRewardPerMonth(uint256 _groupID) internal view returns (uint256) {\n        uint256 _indexInTheLeaderboard = _getIndexInTheLeaderboard(_groupID);\n        uint256 _rewardPerMonth;\n\n        if(_indexInTheLeaderboard == 0) {\n            _rewardPerMonth = 50000;\n        } else if (_indexInTheLeaderboard > 0 && _indexInTheLeaderboard < 5) {\n            _rewardPerMonth = 10000;\n        } else {\n            _rewardPerMonth = 4000;\n        }\n\n        return _rewardPerMonth;\n    }\n\n    function _updateRewardInfo(uint256 _groupID) internal {\n        RewardInfo memory _rewardInfo = rewardInfos[_groupID][msg.sender];\n        uint256 _oneMonth = 30 days;\n        uint256 _startRewardTime = getEndLMTime();\n\n        uint256 _countOfRewardedMonth;\n        for(uint256 i = 0; i < maxMonthToGetReward; i++) {\n            if(_rewardInfo.lastUpdate > _startRewardTime.add(_oneMonth.mul(i))) {\n                _countOfRewardedMonth++;\n            }\n        }\n\n        if (_countOfRewardedMonth != maxMonthToGetReward) {\n            for(uint256 i = _countOfRewardedMonth; i < maxMonthToGetReward; i++) {\n                if(block.timestamp > _startRewardTime.add(_oneMonth.mul(i))) {\n                    _rewardInfo.countOfMonth++;\n                }\n            }\n\n            _rewardInfo.lastUpdate = block.timestamp;\n\n            rewardInfos[_groupID][msg.sender] = _rewardInfo;\n            emit RewardInfoUpdated(_groupID, msg.sender, _rewardInfo.countOfMonth, _rewardInfo.lastUpdate);\n        }\n    }\n\n    function _getIndexInTheLeaderboard(uint256 _groupID) internal view returns (uint256) {\n        uint256 _leaderBoardLength = leaderboard.length;\n\n        uint256 _foundedIndex = maxLeaderboardSize;\n        for(uint256 i = 0; i < _leaderBoardLength; i++) {\n            if(_groupID == leaderboard[i]) {\n                _foundedIndex = i;\n            }\n        }\n\n        return _foundedIndex;\n    }\n\n    function _updateLeaderboard(uint256 _groupID) internal returns (bool) {\n        uint256 _leaderBoardLength = leaderboard.length;\n\n        if(_leaderBoardLength == 0) {\n            leaderboard.push(_groupID);\n            emit LeaderboardUpdated(0, 0, _groupID);\n            return true;\n        }\n\n        uint256 _currentGroupIndex = _getIndexInTheLeaderboard(_groupID);\n        uint256 _foundedLessIndex = maxLeaderboardSize;\n\n        for (uint256 i = 0; i < _leaderBoardLength; i++) {\n            if (totalGroupsAmount[_groupID] > totalGroupsAmount[leaderboard[i]]) {\n                _foundedLessIndex = i;\n                break;\n            }\n        }\n\n        if(_currentGroupIndex == maxLeaderboardSize) {\n            _currentGroupIndex = leaderboard.length;\n            leaderboard.push(_groupID);\n        }\n\n        if(_currentGroupIndex < _foundedLessIndex) {\n            return true;\n        }\n\n        uint256 _prevID = leaderboard[_foundedLessIndex];\n        uint256 _tmpID;\n        uint256 _currentID = _groupID;\n        for (uint256 i = _foundedLessIndex; i <= _currentGroupIndex; i++) {\n            _tmpID = leaderboard[i];\n            leaderboard[i] = _currentID;\n            _currentID = _tmpID;\n        }\n\n        if(leaderboard.length == maxLeaderboardSize.add(1)) {\n            leaderboard.pop();\n        }\n\n        emit LeaderboardUpdated(_foundedLessIndex, _prevID, _groupID);\n        return true;\n    }\n\n    function _updateGroupLeaders(uint256 _groupID) internal returns (bool) {\n        address[] memory _addresses = groupsLeaders[_groupID];\n        uint256 _groupLeadersSize = _addresses.length;\n\n        if(_groupLeadersSize == 0) {\n            groupsLeaders[_groupID].push(msg.sender);\n            return true;\n        }\n\n        uint256 _currentIndex = maxGroupLeadersSize;\n        uint256 _foundedLessIndex = maxGroupLeadersSize;\n\n        for (uint256 i = 0; i < _groupLeadersSize; i++) {\n            if (_addresses[i] == msg.sender) {\n                _currentIndex = i;\n                break;\n            }\n        }\n\n        for (uint256 i = 0; i < _groupLeadersSize; i++) {\n            if (groups[_groupID][msg.sender] > groups[_groupID][_addresses[i]]) {\n                _foundedLessIndex = i;\n                break;\n            }\n        }\n\n        if(_currentIndex == maxGroupLeadersSize) {\n            _currentIndex = _groupLeadersSize;\n            groupsLeaders[_groupID].push(msg.sender);\n        }\n\n        if(_currentIndex < _foundedLessIndex) {\n            return true;\n        }\n\n        _addresses = groupsLeaders[_groupID];\n\n        address _tmpAddr;\n        address _currentAddr = msg.sender;\n        for (uint256 i = _foundedLessIndex; i <= _currentIndex; i++) {\n            _tmpAddr = _addresses[i];\n            _addresses[i] = _currentAddr;\n            _currentAddr = _tmpAddr;\n        }\n\n        groupsLeaders[_groupID] = _addresses;\n\n        if(_addresses.length == maxGroupLeadersSize.add(1)) {\n            groupsLeaders[_groupID].pop();\n        }\n        return true;\n    }\n\n    function onERC1155Received(\n        address operator,\n        address from,\n        uint256 id,\n        uint256 value,\n        bytes memory data\n    )\n        external\n        override\n        returns(bytes4)\n    {\n        return bytes4(keccak256(\"onERC1155BatchReceived(address,address,uint256[],uint256[],bytes)\"));\n    }\n\n    function onERC1155BatchReceived(\n        address operator,\n        address from,\n        uint256[] memory ids,\n        uint256[] memory values,\n        bytes memory data\n    )\n        external\n        override\n        returns(bytes4)\n    {\n        return bytes4(keccak256(\"onERC1155BatchReceived(address,address,uint256[],uint256[],bytes)\"));\n    }\n}\n",
  "sourcePath": "/home/oleg/go/src/github.com/Bridge-Mutual/bridgemutual-core/contracts/LiquidityMining.sol",
  "compiler": {
    "name": "solc",
    "version": "0.7.4+commit.3f05b770.Emscripten.clang"
  },
  "schemaVersion": "3.3.3",
  "updatedAt": "2021-01-27T09:58:45.869Z",
  "devdoc": {
    "kind": "dev",
    "methods": {
      "onERC1155BatchReceived(address,address,uint256[],uint256[],bytes)": {
        "details": "Handles the receipt of a multiple ERC1155 token types. This function is called at the end of a `safeBatchTransferFrom` after the balances have been updated. To accept the transfer(s), this must return `bytes4(keccak256(\"onERC1155BatchReceived(address,address,uint256[],uint256[],bytes)\"))` (i.e. 0xbc197c81, or its own function selector).",
        "params": {
          "data": "Additional data with no specified format",
          "from": "The address which previously owned the token",
          "ids": "An array containing ids of each token being transferred (order and length must match values array)",
          "operator": "The address which initiated the batch transfer (i.e. msg.sender)",
          "values": "An array containing amounts of each token being transferred (order and length must match ids array)"
        },
        "returns": {
          "_0": "`bytes4(keccak256(\"onERC1155BatchReceived(address,address,uint256[],uint256[],bytes)\"))` if transfer is allowed"
        }
      },
      "onERC1155Received(address,address,uint256,uint256,bytes)": {
        "details": "Handles the receipt of a single ERC1155 token type. This function is called at the end of a `safeTransferFrom` after the balance has been updated. To accept the transfer, this must return `bytes4(keccak256(\"onERC1155Received(address,address,uint256,uint256,bytes)\"))` (i.e. 0xf23a6e61, or its own function selector).",
        "params": {
          "data": "Additional data with no specified format",
          "from": "The address which previously owned the token",
          "id": "The ID of the token being transferred",
          "operator": "The address which initiated the transfer (i.e. msg.sender)",
          "value": "The amount of tokens being transferred"
        },
        "returns": {
          "_0": "`bytes4(keccak256(\"onERC1155Received(address,address,uint256,uint256,bytes)\"))` if transfer is allowed"
        }
      },
      "supportsInterface(bytes4)": {
        "details": "See {IERC165-supportsInterface}. Time complexity O(1), guaranteed to always use less than 30 000 gas."
      }
    },
    "version": 1
  },
  "userdoc": {
    "kind": "user",
    "methods": {},
    "version": 1
  }
}