{
  "contractName": "LiquidityMiningNFT",
  "abi": [
    {
      "inputs": [
        {
          "internalType": "string",
          "name": "_uri",
          "type": "string"
        }
      ],
      "stateMutability": "nonpayable",
      "type": "constructor"
    },
    {
      "anonymous": false,
      "inputs": [
        {
          "indexed": true,
          "internalType": "address",
          "name": "account",
          "type": "address"
        },
        {
          "indexed": true,
          "internalType": "address",
          "name": "operator",
          "type": "address"
        },
        {
          "indexed": false,
          "internalType": "bool",
          "name": "approved",
          "type": "bool"
        }
      ],
      "name": "ApprovalForAll",
      "type": "event"
    },
    {
      "anonymous": false,
      "inputs": [
        {
          "indexed": true,
          "internalType": "address",
          "name": "operator",
          "type": "address"
        },
        {
          "indexed": true,
          "internalType": "address",
          "name": "from",
          "type": "address"
        },
        {
          "indexed": true,
          "internalType": "address",
          "name": "to",
          "type": "address"
        },
        {
          "indexed": false,
          "internalType": "uint256[]",
          "name": "ids",
          "type": "uint256[]"
        },
        {
          "indexed": false,
          "internalType": "uint256[]",
          "name": "values",
          "type": "uint256[]"
        }
      ],
      "name": "TransferBatch",
      "type": "event"
    },
    {
      "anonymous": false,
      "inputs": [
        {
          "indexed": true,
          "internalType": "address",
          "name": "operator",
          "type": "address"
        },
        {
          "indexed": true,
          "internalType": "address",
          "name": "from",
          "type": "address"
        },
        {
          "indexed": true,
          "internalType": "address",
          "name": "to",
          "type": "address"
        },
        {
          "indexed": false,
          "internalType": "uint256",
          "name": "id",
          "type": "uint256"
        },
        {
          "indexed": false,
          "internalType": "uint256",
          "name": "value",
          "type": "uint256"
        }
      ],
      "name": "TransferSingle",
      "type": "event"
    },
    {
      "anonymous": false,
      "inputs": [
        {
          "indexed": false,
          "internalType": "string",
          "name": "value",
          "type": "string"
        },
        {
          "indexed": true,
          "internalType": "uint256",
          "name": "id",
          "type": "uint256"
        }
      ],
      "name": "URI",
      "type": "event"
    },
    {
      "inputs": [
        {
          "internalType": "address",
          "name": "account",
          "type": "address"
        },
        {
          "internalType": "uint256",
          "name": "id",
          "type": "uint256"
        }
      ],
      "name": "balanceOf",
      "outputs": [
        {
          "internalType": "uint256",
          "name": "",
          "type": "uint256"
        }
      ],
      "stateMutability": "view",
      "type": "function"
    },
    {
      "inputs": [
        {
          "internalType": "address[]",
          "name": "accounts",
          "type": "address[]"
        },
        {
          "internalType": "uint256[]",
          "name": "ids",
          "type": "uint256[]"
        }
      ],
      "name": "balanceOfBatch",
      "outputs": [
        {
          "internalType": "uint256[]",
          "name": "",
          "type": "uint256[]"
        }
      ],
      "stateMutability": "view",
      "type": "function"
    },
    {
      "inputs": [
        {
          "internalType": "address",
          "name": "account",
          "type": "address"
        },
        {
          "internalType": "address",
          "name": "operator",
          "type": "address"
        }
      ],
      "name": "isApprovedForAll",
      "outputs": [
        {
          "internalType": "bool",
          "name": "",
          "type": "bool"
        }
      ],
      "stateMutability": "view",
      "type": "function"
    },
    {
      "inputs": [
        {
          "internalType": "address",
          "name": "from",
          "type": "address"
        },
        {
          "internalType": "address",
          "name": "to",
          "type": "address"
        },
        {
          "internalType": "uint256[]",
          "name": "ids",
          "type": "uint256[]"
        },
        {
          "internalType": "uint256[]",
          "name": "amounts",
          "type": "uint256[]"
        },
        {
          "internalType": "bytes",
          "name": "data",
          "type": "bytes"
        }
      ],
      "name": "safeBatchTransferFrom",
      "outputs": [],
      "stateMutability": "nonpayable",
      "type": "function"
    },
    {
      "inputs": [
        {
          "internalType": "address",
          "name": "from",
          "type": "address"
        },
        {
          "internalType": "address",
          "name": "to",
          "type": "address"
        },
        {
          "internalType": "uint256",
          "name": "id",
          "type": "uint256"
        },
        {
          "internalType": "uint256",
          "name": "amount",
          "type": "uint256"
        },
        {
          "internalType": "bytes",
          "name": "data",
          "type": "bytes"
        }
      ],
      "name": "safeTransferFrom",
      "outputs": [],
      "stateMutability": "nonpayable",
      "type": "function"
    },
    {
      "inputs": [
        {
          "internalType": "address",
          "name": "operator",
          "type": "address"
        },
        {
          "internalType": "bool",
          "name": "approved",
          "type": "bool"
        }
      ],
      "name": "setApprovalForAll",
      "outputs": [],
      "stateMutability": "nonpayable",
      "type": "function"
    },
    {
      "inputs": [
        {
          "internalType": "bytes4",
          "name": "interfaceId",
          "type": "bytes4"
        }
      ],
      "name": "supportsInterface",
      "outputs": [
        {
          "internalType": "bool",
          "name": "",
          "type": "bool"
        }
      ],
      "stateMutability": "view",
      "type": "function"
    },
    {
      "inputs": [
        {
          "internalType": "uint256",
          "name": "",
          "type": "uint256"
        }
      ],
      "name": "uri",
      "outputs": [
        {
          "internalType": "string",
          "name": "",
          "type": "string"
        }
      ],
      "stateMutability": "view",
      "type": "function"
    },
    {
      "inputs": [
        {
          "internalType": "address",
          "name": "_liquidiyMiningAddr",
          "type": "address"
        }
      ],
      "name": "mintNFTsForLM",
      "outputs": [],
      "stateMutability": "nonpayable",
      "type": "function"
    }
  ],
  "bytecode": "0x60806040523480156200001157600080fd5b5060405162001d8538038062001d85833981810160405260208110156200003757600080fd5b81019080805160405193929190846401000000008211156200005857600080fd5b9083019060208201858111156200006e57600080fd5b82516401000000008111828201881017156200008957600080fd5b82525081516020918201929091019080838360005b83811015620000b85781810151838201526020016200009e565b50505050905090810190601f168015620000e65780820380516001836020036101000a031916815260200191505b50604052508291506200010290506301ffc9a760e01b62000139565b6200010d81620001be565b6200011f636cdb3d1360e11b62000139565b620001316303a24d0760e21b62000139565b505062000283565b6001600160e01b0319808216141562000199576040805162461bcd60e51b815260206004820152601c60248201527f4552433136353a20696e76616c696420696e7465726661636520696400000000604482015290519081900360640190fd5b6001600160e01b0319166000908152602081905260409020805460ff19166001179055565b8051620001d3906003906020840190620001d7565b5050565b828054600181600116156101000203166002900490600052602060002090601f0160209004810192826200020f57600085556200025a565b82601f106200022a57805160ff19168380011785556200025a565b828001600101855582156200025a579182015b828111156200025a5782518255916020019190600101906200023d565b50620002689291506200026c565b5090565b5b808211156200026857600081556001016200026d565b611af280620002936000396000f3fe608060405234801561001057600080fd5b50600436106100a25760003560e01c80634e1273f411610076578063a22cb4651161005b578063a22cb46514610530578063e985e9c51461055e578063f242432a1461058c576100a2565b80634e1273f41461039357806359b5522a1461050a576100a2565b8062fdd58e146100a757806301ffc9a7146100e55780630e89341c146101385780632eb2c2d6146101ca575b600080fd5b6100d3600480360360408110156100bd57600080fd5b506001600160a01b038135169060200135610657565b60408051918252519081900360200190f35b610124600480360360208110156100fb57600080fd5b50357fffffffff00000000000000000000000000000000000000000000000000000000166106c6565b604080519115158252519081900360200190f35b6101556004803603602081101561014e57600080fd5b50356106fd565b6040805160208082528351818301528351919283929083019185019080838360005b8381101561018f578181015183820152602001610177565b50505050905090810190601f1680156101bc5780820380516001836020036101000a031916815260200191505b509250505060405180910390f35b610391600480360360a08110156101e057600080fd5b6001600160a01b03823581169260208101359091169181019060608101604082013564010000000081111561021457600080fd5b82018360208201111561022657600080fd5b8035906020019184602083028401116401000000008311171561024857600080fd5b919080806020026020016040519081016040528093929190818152602001838360200280828437600092019190915250929594936020810193503591505064010000000081111561029857600080fd5b8201836020820111156102aa57600080fd5b803590602001918460208302840111640100000000831117156102cc57600080fd5b919080806020026020016040519081016040528093929190818152602001838360200280828437600092019190915250929594936020810193503591505064010000000081111561031c57600080fd5b82018360208201111561032e57600080fd5b8035906020019184600183028401116401000000008311171561035057600080fd5b91908080601f0160208091040260200160405190810160405280939291908181526020018383808284376000920191909152509295506107b3945050505050565b005b6104ba600480360360408110156103a957600080fd5b8101906020810181356401000000008111156103c457600080fd5b8201836020820111156103d657600080fd5b803590602001918460208302840111640100000000831117156103f857600080fd5b919080806020026020016040519081016040528093929190818152602001838360200280828437600092019190915250929594936020810193503591505064010000000081111561044857600080fd5b82018360208201111561045a57600080fd5b8035906020019184602083028401116401000000008311171561047c57600080fd5b919080806020026020016040519081016040528093929190818152602001838360200280828437600092019190915250929550610ab1945050505050565b60408051602080825283518183015283519192839290830191858101910280838360005b838110156104f65781810151838201526020016104de565b505050509050019250505060405180910390f35b6103916004803603602081101561052057600080fd5b50356001600160a01b0316610c2f565b6103916004803603604081101561054657600080fd5b506001600160a01b0381351690602001351515610ce4565b6101246004803603604081101561057457600080fd5b506001600160a01b0381358116916020013516610df1565b610391600480360360a08110156105a257600080fd5b6001600160a01b03823581169260208101359091169160408201359160608101359181019060a0810160808201356401000000008111156105e257600080fd5b8201836020820111156105f457600080fd5b8035906020019184600183028401116401000000008311171561061657600080fd5b91908080601f016020809104026020016040519081016040528093929190818152602001838380828437600092019190915250929550610e1f945050505050565b60006001600160a01b03831661069e5760405162461bcd60e51b815260040180806020018281038252602b81526020018061191c602b913960400191505060405180910390fd5b5060009081526001602090815260408083206001600160a01b03949094168352929052205490565b7fffffffff000000000000000000000000000000000000000000000000000000001660009081526020819052604090205460ff1690565b60038054604080516020601f60027fffffffffffffffffffffffffffffffffffffffffffffffffffffffffffffffff6101006001881615020190951694909404938401819004810282018101909252828152606093909290918301828280156107a75780601f1061077c576101008083540402835291602001916107a7565b820191906000526020600020905b81548152906001019060200180831161078a57829003601f168201915b50505050509050919050565b81518351146107f35760405162461bcd60e51b8152600401808060200182810382526028815260200180611a746028913960400191505060405180910390fd5b6001600160a01b0384166108385760405162461bcd60e51b81526004018080602001828103825260258152602001806119a16025913960400191505060405180910390fd5b610840610fea565b6001600160a01b0316856001600160a01b0316148061086b575061086b85610866610fea565b610df1565b6108a65760405162461bcd60e51b81526004018080602001828103825260328152602001806119c66032913960400191505060405180910390fd5b60006108b0610fea565b90506108c0818787878787610aa9565b60005b84518110156109c15760008582815181106108da57fe5b6020026020010151905060008583815181106108f257fe5b6020026020010151905061095f816040518060600160405280602a81526020016119f8602a91396001600086815260200190815260200160002060008d6001600160a01b03166001600160a01b0316815260200190815260200160002054610fef9092919063ffffffff16565b60008381526001602090815260408083206001600160a01b038e811685529252808320939093558a16815220546109969082611086565b60009283526001602081815260408086206001600160a01b038d1687529091529093205550016108c3565b50846001600160a01b0316866001600160a01b0316826001600160a01b03167f4a39dc06d4c0dbc64b70af90fd698a233a518aa5d07e595d983b8c0526c8f7fb8787604051808060200180602001838103835285818151815260200191508051906020019060200280838360005b83811015610a47578181015183820152602001610a2f565b50505050905001838103825284818151815260200191508051906020019060200280838360005b83811015610a86578181015183820152602001610a6e565b5050505090500194505050505060405180910390a4610aa98187878787876110e7565b505050505050565b60608151835114610af35760405162461bcd60e51b8152600401808060200182810382526029815260200180611a4b6029913960400191505060405180910390fd5b6060835167ffffffffffffffff81118015610b0d57600080fd5b50604051908082528060200260200182016040528015610b37578160200160208202803683370190505b50905060005b8451811015610c275760006001600160a01b0316858281518110610b5d57fe5b60200260200101516001600160a01b03161415610bab5760405162461bcd60e51b81526004018080602001828103825260318152602001806119476031913960400191505060405180910390fd5b60016000858381518110610bbb57fe5b602002602001015181526020019081526020016000206000868381518110610bdf57fe5b60200260200101516001600160a01b03166001600160a01b0316815260200190815260200160002054828281518110610c1457fe5b6020908102919091010152600101610b3d565b509392505050565b60408051600480825260a0820190925260609160208201608080368337505060408051600480825260a0820190925292935060609291506020820160808036833701905050905060015b60048111610cc35780836001830381518110610c9157fe5b602002602001018181525050600a8102826001830381518110610cb057fe5b6020908102919091010152600101610c79565b50610cdf83838360405180602001604052806000815250611397565b505050565b816001600160a01b0316610cf6610fea565b6001600160a01b03161415610d3c5760405162461bcd60e51b8152600401808060200182810382526029815260200180611a226029913960400191505060405180910390fd5b8060026000610d49610fea565b6001600160a01b0390811682526020808301939093526040918201600090812091871680825291909352912080547fffffffffffffffffffffffffffffffffffffffffffffffffffffffffffffff001692151592909217909155610dab610fea565b6001600160a01b03167f17307eab39ab6107e8899845ad3d59bd9653f200f220920489ca2b5937696c318360405180821515815260200191505060405180910390a35050565b6001600160a01b03918216600090815260026020908152604080832093909416825291909152205460ff1690565b6001600160a01b038416610e645760405162461bcd60e51b81526004018080602001828103825260258152602001806119a16025913960400191505060405180910390fd5b610e6c610fea565b6001600160a01b0316856001600160a01b03161480610e925750610e9285610866610fea565b610ecd5760405162461bcd60e51b81526004018080602001828103825260298152602001806119786029913960400191505060405180910390fd5b6000610ed7610fea565b9050610ef7818787610ee8886115ec565b610ef1886115ec565b87610aa9565b610f3e836040518060600160405280602a81526020016119f8602a913960008781526001602090815260408083206001600160a01b038d1684529091529020549190610fef565b60008581526001602090815260408083206001600160a01b038b81168552925280832093909355871681522054610f759084611086565b60008581526001602090815260408083206001600160a01b03808b168086529184529382902094909455805188815291820187905280518a8416938616927fc3d58168c5ae7397731d063d5bbf3d657854427343f4c083240f7aacaa2d0f6292908290030190a4610aa9818787878787611630565b335b90565b6000818484111561107e5760405162461bcd60e51b81526004018080602001828103825283818151815260200191508051906020019080838360005b8381101561104357818101518382015260200161102b565b50505050905090810190601f1680156110705780820380516001836020036101000a031916815260200191505b509250505060405180910390fd5b505050900390565b6000828201838110156110e0576040805162461bcd60e51b815260206004820152601b60248201527f536166654d6174683a206164646974696f6e206f766572666c6f770000000000604482015290519081900360640190fd5b9392505050565b6110f9846001600160a01b03166117d2565b15610aa957836001600160a01b031663bc197c8187878686866040518663ffffffff1660e01b815260040180866001600160a01b03168152602001856001600160a01b03168152602001806020018060200180602001848103845287818151815260200191508051906020019060200280838360005b8381101561118757818101518382015260200161116f565b50505050905001848103835286818151815260200191508051906020019060200280838360005b838110156111c65781810151838201526020016111ae565b50505050905001848103825285818151815260200191508051906020019080838360005b838110156112025781810151838201526020016111ea565b50505050905090810190601f16801561122f5780820380516001836020036101000a031916815260200191505b5098505050505050505050602060405180830381600087803b15801561125457600080fd5b505af192505050801561127957506040513d602081101561127457600080fd5b505160015b61130e576112856117de565b8061129057506112d7565b60405162461bcd60e51b815260206004820181815283516024840152835184939192839260440191908501908083836000831561104357818101518382015260200161102b565b60405162461bcd60e51b81526004018080602001828103825260348152602001806118c06034913960400191505060405180910390fd5b7fffffffff0000000000000000000000000000000000000000000000000000000081167fbc197c81000000000000000000000000000000000000000000000000000000001461138e5760405162461bcd60e51b81526004018080602001828103825260288152602001806118f46028913960400191505060405180910390fd5b50505050505050565b6001600160a01b0384166113dc5760405162461bcd60e51b8152600401808060200182810382526021815260200180611a9c6021913960400191505060405180910390fd5b815183511461141c5760405162461bcd60e51b8152600401808060200182810382526028815260200180611a746028913960400191505060405180910390fd5b6000611426610fea565b905061143781600087878787610aa9565b60005b84518110156114fb576114b26001600087848151811061145657fe5b602002602001015181526020019081526020016000206000886001600160a01b03166001600160a01b031681526020019081526020016000205485838151811061149c57fe5b602002602001015161108690919063ffffffff16565b600160008784815181106114c257fe5b602090810291909101810151825281810192909252604090810160009081206001600160a01b038b16825290925290205560010161143a565b50846001600160a01b031660006001600160a01b0316826001600160a01b03167f4a39dc06d4c0dbc64b70af90fd698a233a518aa5d07e595d983b8c0526c8f7fb8787604051808060200180602001838103835285818151815260200191508051906020019060200280838360005b8381101561158257818101518382015260200161156a565b50505050905001838103825284818151815260200191508051906020019060200280838360005b838110156115c15781810151838201526020016115a9565b5050505090500194505050505060405180910390a46115e5816000878787876110e7565b5050505050565b60408051600180825281830190925260609182919060208083019080368337019050509050828160008151811061161f57fe5b602090810291909101015292915050565b611642846001600160a01b03166117d2565b15610aa957836001600160a01b031663f23a6e6187878686866040518663ffffffff1660e01b815260040180866001600160a01b03168152602001856001600160a01b0316815260200184815260200183815260200180602001828103825283818151815260200191508051906020019080838360005b838110156116d15781810151838201526020016116b9565b50505050905090810190601f1680156116fe5780820380516001836020036101000a031916815260200191505b509650505050505050602060405180830381600087803b15801561172157600080fd5b505af192505050801561174657506040513d602081101561174157600080fd5b505160015b611752576112856117de565b7fffffffff0000000000000000000000000000000000000000000000000000000081167ff23a6e61000000000000000000000000000000000000000000000000000000001461138e5760405162461bcd60e51b81526004018080602001828103825260288152602001806118f46028913960400191505060405180910390fd5b3b151590565b60e01c90565b600060443d10156117ee57610fec565b600481823e6308c379a061180282516117d8565b1461180c57610fec565b6040517ffffffffffffffffffffffffffffffffffffffffffffffffffffffffffffffffc3d016004823e80513d67ffffffffffffffff816024840111818411171561185a5750505050610fec565b828401925082519150808211156118745750505050610fec565b503d8301602082840101111561188c57505050610fec565b601f017fffffffffffffffffffffffffffffffffffffffffffffffffffffffffffffffe01681016020016040529150509056fe455243313135353a207472616e7366657220746f206e6f6e2045524331313535526563656976657220696d706c656d656e746572455243313135353a204552433131353552656365697665722072656a656374656420746f6b656e73455243313135353a2062616c616e636520717565727920666f7220746865207a65726f2061646472657373455243313135353a2062617463682062616c616e636520717565727920666f7220746865207a65726f2061646472657373455243313135353a2063616c6c6572206973206e6f74206f776e6572206e6f7220617070726f766564455243313135353a207472616e7366657220746f20746865207a65726f2061646472657373455243313135353a207472616e736665722063616c6c6572206973206e6f74206f776e6572206e6f7220617070726f766564455243313135353a20696e73756666696369656e742062616c616e636520666f72207472616e73666572455243313135353a2073657474696e6720617070726f76616c2073746174757320666f722073656c66455243313135353a206163636f756e747320616e6420696473206c656e677468206d69736d61746368455243313135353a2069647320616e6420616d6f756e7473206c656e677468206d69736d61746368455243313135353a206d696e7420746f20746865207a65726f2061646472657373a264697066735822122006bc7f3a9ce1c4ca07b1d91070343662617a640f03bf2fbf477a98fc5077194264736f6c63430007040033",
  "immutableReferences": {},
  "source": "// SPDX-License-Identifier: MIT\npragma solidity ^0.7.4;\n\nimport \"@openzeppelin/contracts/token/ERC1155/ERC1155.sol\";\n\ncontract LiquidityMiningNFT  is ERC1155 {\n    uint256 private constant nftTypesCount = 4;\n    uint256 private constant leaderboardSize = 10;\n\n    constructor (string memory _uri) ERC1155(_uri) {}\n\n    function mintNFTsForLM(address _liquidiyMiningAddr) external {\n        uint256[] memory _ids = new uint256[](nftTypesCount);\n        uint256[] memory _amounts = new uint256[](nftTypesCount);\n\n        for(uint256 i = 1; i <= nftTypesCount; i++) {\n            _ids[i - 1] = i;\n            _amounts[i - 1] = i * leaderboardSize; \n        }\n\n        _mintBatch(_liquidiyMiningAddr, _ids, _amounts, \"\");\n    }\n}",
  "sourcePath": "/home/oleg/go/src/github.com/Bridge-Mutual/bridgemutual-core/contracts/LiquidityMiningNFT.sol",
  "compiler": {
    "name": "solc",
    "version": "0.7.4+commit.3f05b770.Emscripten.clang"
  },
  "schemaVersion": "3.3.3",
  "updatedAt": "2021-01-27T09:58:45.887Z",
  "devdoc": {
    "kind": "dev",
    "methods": {
      "balanceOf(address,uint256)": {
        "details": "See {IERC1155-balanceOf}. Requirements: - `account` cannot be the zero address."
      },
      "balanceOfBatch(address[],uint256[])": {
        "details": "See {IERC1155-balanceOfBatch}. Requirements: - `accounts` and `ids` must have the same length."
      },
      "isApprovedForAll(address,address)": {
        "details": "See {IERC1155-isApprovedForAll}."
      },
      "safeBatchTransferFrom(address,address,uint256[],uint256[],bytes)": {
        "details": "See {IERC1155-safeBatchTransferFrom}."
      },
      "safeTransferFrom(address,address,uint256,uint256,bytes)": {
        "details": "See {IERC1155-safeTransferFrom}."
      },
      "setApprovalForAll(address,bool)": {
        "details": "See {IERC1155-setApprovalForAll}."
      },
      "supportsInterface(bytes4)": {
        "details": "See {IERC165-supportsInterface}. Time complexity O(1), guaranteed to always use less than 30 000 gas."
      },
      "uri(uint256)": {
        "details": "See {IERC1155MetadataURI-uri}. This implementation returns the same URI for *all* token types. It relies on the token type ID substitution mechanism https://eips.ethereum.org/EIPS/eip-1155#metadata[defined in the EIP]. Clients calling this function must replace the `\\{id\\}` substring with the actual token type ID."
      }
    },
    "version": 1
  },
  "userdoc": {
    "kind": "user",
    "methods": {},
    "version": 1
  }
}