{
  "contractName": "MockPolicyBook",
  "abi": [
    {
      "inputs": [
        {
          "internalType": "address",
          "name": "_contract",
          "type": "address"
        },
        {
          "internalType": "enum IPolicyBookFabric.ContractType",
          "name": "_contractType",
          "type": "uint8"
        },
        {
          "internalType": "address",
          "name": "_daiAddr",
          "type": "address"
        }
      ],
      "stateMutability": "nonpayable",
      "type": "constructor"
    },
    {
      "anonymous": false,
      "inputs": [
        {
          "indexed": false,
          "internalType": "address",
          "name": "_liquidityHolder",
          "type": "address"
        },
        {
          "indexed": false,
          "internalType": "uint256",
          "name": "_liqudityAmount",
          "type": "uint256"
        },
        {
          "indexed": false,
          "internalType": "uint256",
          "name": "_newTotalLiquidity",
          "type": "uint256"
        }
      ],
      "name": "AddLiquidity",
      "type": "event"
    },
    {
      "anonymous": false,
      "inputs": [
        {
          "indexed": true,
          "internalType": "address",
          "name": "owner",
          "type": "address"
        },
        {
          "indexed": true,
          "internalType": "address",
          "name": "spender",
          "type": "address"
        },
        {
          "indexed": false,
          "internalType": "uint256",
          "name": "value",
          "type": "uint256"
        }
      ],
      "name": "Approval",
      "type": "event"
    },
    {
      "anonymous": false,
      "inputs": [
        {
          "indexed": false,
          "internalType": "address",
          "name": "_policyHolder",
          "type": "address"
        },
        {
          "indexed": false,
          "internalType": "uint256",
          "name": "_coverTokens",
          "type": "uint256"
        },
        {
          "indexed": false,
          "internalType": "uint256",
          "name": "_price",
          "type": "uint256"
        },
        {
          "indexed": false,
          "internalType": "uint256",
          "name": "_newTotalCoverTokens",
          "type": "uint256"
        }
      ],
      "name": "BuyPolicy",
      "type": "event"
    },
    {
      "anonymous": false,
      "inputs": [
        {
          "indexed": true,
          "internalType": "address",
          "name": "from",
          "type": "address"
        },
        {
          "indexed": true,
          "internalType": "address",
          "name": "to",
          "type": "address"
        },
        {
          "indexed": false,
          "internalType": "uint256",
          "name": "value",
          "type": "uint256"
        }
      ],
      "name": "Transfer",
      "type": "event"
    },
    {
      "anonymous": false,
      "inputs": [
        {
          "indexed": false,
          "internalType": "address",
          "name": "_liquidityHolder",
          "type": "address"
        },
        {
          "indexed": false,
          "internalType": "uint256",
          "name": "_tokensToWithdraw",
          "type": "uint256"
        },
        {
          "indexed": false,
          "internalType": "uint256",
          "name": "_newTotalLiquidity",
          "type": "uint256"
        }
      ],
      "name": "WithdrawLiquidity",
      "type": "event"
    },
    {
      "inputs": [],
      "name": "MAXIMUM_COST_100_UTILIZATION_PERCENTAGE",
      "outputs": [
        {
          "internalType": "uint256",
          "name": "",
          "type": "uint256"
        }
      ],
      "stateMutability": "view",
      "type": "function"
    },
    {
      "inputs": [],
      "name": "MAXIMUM_COST_NOT_RISKY_PERCENTAGE",
      "outputs": [
        {
          "internalType": "uint256",
          "name": "",
          "type": "uint256"
        }
      ],
      "stateMutability": "view",
      "type": "function"
    },
    {
      "inputs": [],
      "name": "MINIMUM_COST_PERCENTAGE",
      "outputs": [
        {
          "internalType": "uint256",
          "name": "",
          "type": "uint256"
        }
      ],
      "stateMutability": "view",
      "type": "function"
    },
    {
      "inputs": [],
      "name": "PERCENTAGE_100",
      "outputs": [
        {
          "internalType": "uint256",
          "name": "",
          "type": "uint256"
        }
      ],
      "stateMutability": "view",
      "type": "function"
    },
    {
      "inputs": [],
      "name": "PRECISION",
      "outputs": [
        {
          "internalType": "uint256",
          "name": "",
          "type": "uint256"
        }
      ],
      "stateMutability": "view",
      "type": "function"
    },
    {
      "inputs": [],
      "name": "RISKY_ASSET_THRESHOLD_PERCENTAGE",
      "outputs": [
        {
          "internalType": "uint256",
          "name": "",
          "type": "uint256"
        }
      ],
      "stateMutability": "view",
      "type": "function"
    },
    {
      "inputs": [],
      "name": "SECONDS_IN_THE_YEAR",
      "outputs": [
        {
          "internalType": "uint256",
          "name": "",
          "type": "uint256"
        }
      ],
      "stateMutability": "view",
      "type": "function"
    },
    {
      "inputs": [
        {
          "internalType": "uint256",
          "name": "_liqudityAmount",
          "type": "uint256"
        }
      ],
      "name": "addLiquidity",
      "outputs": [],
      "stateMutability": "nonpayable",
      "type": "function"
    },
    {
      "inputs": [
        {
          "internalType": "address",
          "name": "_liquidityHolderAddr",
          "type": "address"
        },
        {
          "internalType": "uint256",
          "name": "_liqudityAmount",
          "type": "uint256"
        }
      ],
      "name": "addLiquidityFor",
      "outputs": [],
      "stateMutability": "nonpayable",
      "type": "function"
    },
    {
      "inputs": [
        {
          "internalType": "address",
          "name": "_tokenAddress",
          "type": "address"
        },
        {
          "internalType": "uint256",
          "name": "_tokensAmount",
          "type": "uint256"
        }
      ],
      "name": "addShieldTokens",
      "outputs": [
        {
          "internalType": "bool",
          "name": "_success",
          "type": "bool"
        }
      ],
      "stateMutability": "nonpayable",
      "type": "function"
    },
    {
      "inputs": [
        {
          "internalType": "address",
          "name": "owner",
          "type": "address"
        },
        {
          "internalType": "address",
          "name": "spender",
          "type": "address"
        }
      ],
      "name": "allowance",
      "outputs": [
        {
          "internalType": "uint256",
          "name": "",
          "type": "uint256"
        }
      ],
      "stateMutability": "view",
      "type": "function"
    },
    {
      "inputs": [
        {
          "internalType": "address",
          "name": "spender",
          "type": "address"
        },
        {
          "internalType": "uint256",
          "name": "amount",
          "type": "uint256"
        }
      ],
      "name": "approve",
      "outputs": [
        {
          "internalType": "bool",
          "name": "",
          "type": "bool"
        }
      ],
      "stateMutability": "nonpayable",
      "type": "function"
    },
    {
      "inputs": [
        {
          "internalType": "address",
          "name": "account",
          "type": "address"
        }
      ],
      "name": "balanceOf",
      "outputs": [
        {
          "internalType": "uint256",
          "name": "",
          "type": "uint256"
        }
      ],
      "stateMutability": "view",
      "type": "function"
    },
    {
      "inputs": [
        {
          "internalType": "uint256",
          "name": "_durationSeconds",
          "type": "uint256"
        },
        {
          "internalType": "uint256",
          "name": "_coverTokens",
          "type": "uint256"
        },
        {
          "internalType": "uint256",
          "name": "_maxDaiTokens",
          "type": "uint256"
        }
      ],
      "name": "buyPolicy",
      "outputs": [],
      "stateMutability": "nonpayable",
      "type": "function"
    },
    {
      "inputs": [
        {
          "internalType": "address",
          "name": "_policyHolderAddr",
          "type": "address"
        },
        {
          "internalType": "uint256",
          "name": "_durationSeconds",
          "type": "uint256"
        },
        {
          "internalType": "uint256",
          "name": "_coverTokens",
          "type": "uint256"
        },
        {
          "internalType": "uint256",
          "name": "_maxDaiTokens",
          "type": "uint256"
        }
      ],
      "name": "buyPolicyFor",
      "outputs": [],
      "stateMutability": "nonpayable",
      "type": "function"
    },
    {
      "inputs": [],
      "name": "contractType",
      "outputs": [
        {
          "internalType": "enum IPolicyBookFabric.ContractType",
          "name": "",
          "type": "uint8"
        }
      ],
      "stateMutability": "view",
      "type": "function"
    },
    {
      "inputs": [],
      "name": "decimals",
      "outputs": [
        {
          "internalType": "uint8",
          "name": "",
          "type": "uint8"
        }
      ],
      "stateMutability": "view",
      "type": "function"
    },
    {
      "inputs": [
        {
          "internalType": "address",
          "name": "spender",
          "type": "address"
        },
        {
          "internalType": "uint256",
          "name": "subtractedValue",
          "type": "uint256"
        }
      ],
      "name": "decreaseAllowance",
      "outputs": [
        {
          "internalType": "bool",
          "name": "",
          "type": "bool"
        }
      ],
      "stateMutability": "nonpayable",
      "type": "function"
    },
    {
      "inputs": [
        {
          "internalType": "uint256",
          "name": "_durationSeconds",
          "type": "uint256"
        },
        {
          "internalType": "uint256",
          "name": "_tokens",
          "type": "uint256"
        }
      ],
      "name": "getQuote",
      "outputs": [
        {
          "internalType": "uint256",
          "name": "_daiTokens",
          "type": "uint256"
        }
      ],
      "stateMutability": "view",
      "type": "function"
    },
    {
      "inputs": [
        {
          "internalType": "address",
          "name": "spender",
          "type": "address"
        },
        {
          "internalType": "uint256",
          "name": "addedValue",
          "type": "uint256"
        }
      ],
      "name": "increaseAllowance",
      "outputs": [
        {
          "internalType": "bool",
          "name": "",
          "type": "bool"
        }
      ],
      "stateMutability": "nonpayable",
      "type": "function"
    },
    {
      "inputs": [],
      "name": "insuranceContractAddress",
      "outputs": [
        {
          "internalType": "address",
          "name": "",
          "type": "address"
        }
      ],
      "stateMutability": "view",
      "type": "function"
    },
    {
      "inputs": [],
      "name": "name",
      "outputs": [
        {
          "internalType": "string",
          "name": "",
          "type": "string"
        }
      ],
      "stateMutability": "view",
      "type": "function"
    },
    {
      "inputs": [
        {
          "internalType": "address",
          "name": "",
          "type": "address"
        }
      ],
      "name": "policyHolders",
      "outputs": [
        {
          "internalType": "uint256",
          "name": "coverTokens",
          "type": "uint256"
        },
        {
          "internalType": "uint256",
          "name": "durationSeconds",
          "type": "uint256"
        },
        {
          "internalType": "uint256",
          "name": "maxDaiTokens",
          "type": "uint256"
        }
      ],
      "stateMutability": "view",
      "type": "function"
    },
    {
      "inputs": [],
      "name": "quoteStrategy",
      "outputs": [
        {
          "internalType": "address",
          "name": "_quoteStrategy",
          "type": "address"
        }
      ],
      "stateMutability": "view",
      "type": "function"
    },
    {
      "inputs": [
        {
          "internalType": "uint256",
          "name": "_policyId",
          "type": "uint256"
        }
      ],
      "name": "rewardForUnclaimedExpiredPolicy",
      "outputs": [],
      "stateMutability": "nonpayable",
      "type": "function"
    },
    {
      "inputs": [
        {
          "internalType": "uint256",
          "name": "_offset",
          "type": "uint256"
        },
        {
          "internalType": "uint256",
          "name": "_limit",
          "type": "uint256"
        }
      ],
      "name": "shieldAssets",
      "outputs": [
        {
          "internalType": "uint256",
          "name": "_shieldAssetsCount",
          "type": "uint256"
        },
        {
          "internalType": "address[]",
          "name": "_shieldAssets",
          "type": "address[]"
        }
      ],
      "stateMutability": "view",
      "type": "function"
    },
    {
      "inputs": [],
      "name": "shieldAssetsCount",
      "outputs": [
        {
          "internalType": "uint256",
          "name": "_shieldAssetsCount",
          "type": "uint256"
        }
      ],
      "stateMutability": "view",
      "type": "function"
    },
    {
      "inputs": [
        {
          "internalType": "uint256",
          "name": "_offset",
          "type": "uint256"
        },
        {
          "internalType": "uint256",
          "name": "_limit",
          "type": "uint256"
        }
      ],
      "name": "shieldAssetsWithBalance",
      "outputs": [
        {
          "internalType": "uint256",
          "name": "_shieldAssetsCount",
          "type": "uint256"
        },
        {
          "internalType": "address[]",
          "name": "_shieldAssets",
          "type": "address[]"
        },
        {
          "internalType": "uint256[]",
          "name": "_shieldAssetBalance",
          "type": "uint256[]"
        }
      ],
      "stateMutability": "view",
      "type": "function"
    },
    {
      "inputs": [],
      "name": "stats",
      "outputs": [
        {
          "internalType": "uint256",
          "name": "_yearlyCost",
          "type": "uint256"
        },
        {
          "internalType": "uint256",
          "name": "_maxCapacities",
          "type": "uint256"
        },
        {
          "internalType": "uint256",
          "name": "_totalDaiLiquidity",
          "type": "uint256"
        },
        {
          "internalType": "uint256",
          "name": "_annualProfitYields",
          "type": "uint256"
        }
      ],
      "stateMutability": "nonpayable",
      "type": "function"
    },
    {
      "inputs": [],
      "name": "symbol",
      "outputs": [
        {
          "internalType": "string",
          "name": "",
          "type": "string"
        }
      ],
      "stateMutability": "view",
      "type": "function"
    },
    {
      "inputs": [],
      "name": "totalCoverTokens",
      "outputs": [
        {
          "internalType": "uint256",
          "name": "",
          "type": "uint256"
        }
      ],
      "stateMutability": "view",
      "type": "function"
    },
    {
      "inputs": [],
      "name": "totalLiquidity",
      "outputs": [
        {
          "internalType": "uint256",
          "name": "",
          "type": "uint256"
        }
      ],
      "stateMutability": "view",
      "type": "function"
    },
    {
      "inputs": [],
      "name": "totalSupply",
      "outputs": [
        {
          "internalType": "uint256",
          "name": "",
          "type": "uint256"
        }
      ],
      "stateMutability": "view",
      "type": "function"
    },
    {
      "inputs": [
        {
          "internalType": "address",
          "name": "recipient",
          "type": "address"
        },
        {
          "internalType": "uint256",
          "name": "amount",
          "type": "uint256"
        }
      ],
      "name": "transfer",
      "outputs": [
        {
          "internalType": "bool",
          "name": "",
          "type": "bool"
        }
      ],
      "stateMutability": "nonpayable",
      "type": "function"
    },
    {
      "inputs": [
        {
          "internalType": "address",
          "name": "sender",
          "type": "address"
        },
        {
          "internalType": "address",
          "name": "recipient",
          "type": "address"
        },
        {
          "internalType": "uint256",
          "name": "amount",
          "type": "uint256"
        }
      ],
      "name": "transferFrom",
      "outputs": [
        {
          "internalType": "bool",
          "name": "",
          "type": "bool"
        }
      ],
      "stateMutability": "nonpayable",
      "type": "function"
    },
    {
      "inputs": [
        {
          "internalType": "uint256",
          "name": "_tokensToWithdraw",
          "type": "uint256"
        }
      ],
      "name": "withdrawLiquidity",
      "outputs": [],
      "stateMutability": "nonpayable",
      "type": "function"
    },
    {
      "stateMutability": "payable",
      "type": "receive"
    },
    {
      "inputs": [
        {
          "internalType": "uint256",
          "name": "_daiInThePoolTotal",
          "type": "uint256"
        }
      ],
      "name": "setTotalLiquidity",
      "outputs": [],
      "stateMutability": "nonpayable",
      "type": "function"
    },
    {
      "inputs": [
        {
          "internalType": "uint256",
          "name": "_daiInThePoolBought",
          "type": "uint256"
        }
      ],
      "name": "setTotalCoverTokens",
      "outputs": [],
      "stateMutability": "nonpayable",
      "type": "function"
    }
  ],
  "bytecode": "0x60806040523480156200001157600080fd5b5060405162002309380380620023098339810160408190526200003491620001eb565b828282604051806020016040528060008152506040518060200160405280600081525081816040516020016200006b919062000238565b60408051601f1981840301815291905281516200009090600390602085019062000122565b508051620000a690600490602084019062000122565b505060058054601260ff1990911617610100600160a81b0319166101006001600160a01b038916021780825586925060ff60a81b1916600160a81b836003811115620000ee57fe5b021790555050600680546001600160a01b0319166001600160a01b0393909316929092179091555062000289945050505050565b828054600181600116156101000203166002900490600052602060002090601f0160209004810192826200015a5760008555620001a5565b82601f106200017557805160ff1916838001178555620001a5565b82800160010185558215620001a5579182015b82811115620001a557825182559160200191906001019062000188565b50620001b3929150620001b7565b5090565b5b80821115620001b35760008155600101620001b8565b80516001600160a01b0381168114620001e657600080fd5b919050565b60008060006060848603121562000200578283fd5b6200020b84620001ce565b92506020840151600481106200021f578283fd5b91506200022f60408501620001ce565b90509250925092565b600065626d6944414960d01b82528251815b818110156200026957602081860181015160068684010152016200024a565b818111156200027b5782600683860101525b509190910160060192915050565b61207080620002996000396000f3fe6080604052600436106102895760003560e01c806379fac08c11610153578063cb2ef6f7116100cb578063e98a04e11161007f578063f4020b5b11610064578063f4020b5b146106cf578063f60ff937146106ef578063fc3dfc991461070457610290565b8063e98a04e11461069a578063efa1f98a146106af57610290565b8063cfa8b3a8116100b0578063cfa8b3a814610640578063d80528ae14610655578063dd62ed3e1461067a57610290565b8063cb2ef6f714610609578063cbf5a55e1461062b57610290565b8063a457c2d711610122578063aaf5eb6811610107578063aaf5eb68146105bf578063bc5d198a146105d4578063c18c6057146105e957610290565b8063a457c2d71461057f578063a9059cbb1461059f57610290565b806379fac08c146105125780637cd0fc9b1461054057806395d89b41146105555780639c5900061461056a57610290565b806323b872dd1161020157806351c6590a116101b557806370a082311161019a57806370a08231146104a357806370b68a2a146104c3578063758af3ab146104f257610290565b806351c6590a14610463578063561e795d1461048357610290565b8063313ce567116101e6578063313ce5671461040c578063395093511461042e578063514ea9bd1461044e57610290565b806323b872dd146103d75780632c865d6c146103f757610290565b80630e82da531161025857806315770f921161023d57806315770f921461038057806318160ddd146103a2578063188ff854146103b757610290565b80630e82da531461032f57806314c179c01461035e57610290565b806306fdde0314610295578063095ea7b3146102c057806309b7d94b146102ed5780630a861f2a1461030f57610290565b3661029057005b600080fd5b3480156102a157600080fd5b506102aa610724565b6040516102b79190611c35565b60405180910390f35b3480156102cc57600080fd5b506102e06102db366004611a08565b6107d8565b6040516102b79190611c16565b3480156102f957600080fd5b5061030d610308366004611a89565b6107f6565b005b34801561031b57600080fd5b5061030d61032a366004611a89565b6107fb565b34801561033b57600080fd5b5061034f61034a366004611aa1565b61097f565b6040516102b793929190611e3c565b34801561036a57600080fd5b5061037361098b565b6040516102b79190611b3d565b34801561038c57600080fd5b506103956109ac565b6040516102b79190611e12565b3480156103ae57600080fd5b506103956109b2565b3480156103c357600080fd5b506102e06103d2366004611a08565b6109b8565b3480156103e357600080fd5b506102e06103f23660046119cd565b6109c0565b34801561040357600080fd5b50610395610a61565b34801561041857600080fd5b50610421610a66565b6040516102b79190611ec7565b34801561043a57600080fd5b506102e0610449366004611a08565b610a6f565b34801561045a57600080fd5b50610395610aca565b34801561046f57600080fd5b5061030d61047e366004611a89565b610ad3565b34801561048f57600080fd5b5061030d61049e366004611a89565b610ae0565b3480156104af57600080fd5b506103956104be366004611981565b610ae5565b3480156104cf57600080fd5b506104e36104de366004611981565b610b11565b6040516102b793929190611e96565b3480156104fe57600080fd5b5061039561050d366004611aa1565b610b32565b34801561051e57600080fd5b5061053261052d366004611aa1565b610b45565b6040516102b7929190611e1b565b34801561054c57600080fd5b50610373610a61565b34801561056157600080fd5b506102aa610b4f565b34801561057657600080fd5b50610395610bce565b34801561058b57600080fd5b506102e061059a366004611a08565b610bd7565b3480156105ab57600080fd5b506102e06105ba366004611a08565b610c4c565b3480156105cb57600080fd5b50610395610c60565b3480156105e057600080fd5b50610395610c69565b3480156105f557600080fd5b5061030d610604366004611a89565b610add565b34801561061557600080fd5b5061061e610c71565b6040516102b79190611c21565b34801561063757600080fd5b50610395610c93565b34801561064c57600080fd5b50610395610c9c565b34801561066157600080fd5b5061066a610ca6565b6040516102b79493929190611eac565b34801561068657600080fd5b5061039561069536600461199b565b610cb0565b3480156106a657600080fd5b50610395610ce8565b3480156106bb57600080fd5b5061030d6106ca366004611a08565b610cf1565b3480156106db57600080fd5b5061030d6106ea366004611ac2565b610cff565b3480156106fb57600080fd5b50610395610d10565b34801561071057600080fd5b5061030d61071f366004611a31565b610d16565b60038054604080516020601f60027fffffffffffffffffffffffffffffffffffffffffffffffffffffffffffffffff6101006001881615020190951694909404938401819004810282018101909252828152606093909290918301828280156107ce5780601f106107a3576101008083540402835291602001916107ce565b820191906000526020600020905b8154815290600101906020018083116107b157829003601f168201915b5050505050905090565b60006107ec6107e5610d28565b8484610d2c565b5060015b92915050565b600755565b8061080533610ae5565b101561082c5760405162461bcd60e51b815260040161082390611db5565b60405180910390fd5b60085460075461083c9083610e3f565b101561085a5760405162461bcd60e51b815260040161082390611d7e565b6006546040517fa9059cbb00000000000000000000000000000000000000000000000000000000815260009173ffffffffffffffffffffffffffffffffffffffff169063a9059cbb906108b39033908690600401611b5e565b602060405180830381600087803b1580156108cd57600080fd5b505af11580156108e1573d6000803e3d6000fd5b505050506040513d601f19601f820116820180604052508101906109059190611a69565b9050806109245760405162461bcd60e51b815260040161082390611d12565b6007546109319083610e3f565b60075561093e3383610e81565b7fac927268ea9ae2e55027e6ab727fc2db8e3ea48c56c658223a1074567e4298c0338360075460405161097393929190611b84565b60405180910390a15050565b60006060809250925092565b600554610100900473ffffffffffffffffffffffffffffffffffffffff1681565b60075481565b60025490565b600092915050565b60006109cd848484610fb1565b610a57846109d9610d28565b610a5285604051806060016040528060288152602001611f846028913973ffffffffffffffffffffffffffffffffffffffff8a16600090815260016020526040812090610a24610d28565b73ffffffffffffffffffffffffffffffffffffffff168152602081019190915260400160002054919061114d565b610d2c565b5060019392505050565b600090565b60055460ff1690565b60006107ec610a7c610d28565b84610a528560016000610a8d610d28565b73ffffffffffffffffffffffffffffffffffffffff908116825260208083019390935260409182016000908120918c1681529252902054906111e4565b6445d964b80081565b610add338261123e565b50565b600855565b73ffffffffffffffffffffffffffffffffffffffff81166000908152602081905260409020545b919050565b60096020526000908152604090208054600182015460029092015490919083565b6000610b3e8383611366565b9392505050565b5060009160609150565b60048054604080516020601f60027fffffffffffffffffffffffffffffffffffffffffffffffffffffffffffffffff6101006001881615020190951694909404938401819004810282018101909252828152606093909290918301828280156107ce5780601f106107a3576101008083540402835291602001916107ce565b640ba43b740081565b60006107ec610be4610d28565b84610a52856040518060600160405280602581526020016120166025913960016000610c0e610d28565b73ffffffffffffffffffffffffffffffffffffffff908116825260208083019390935260409182016000908120918d1681529252902054919061114d565b60006107ec610c59610d28565b8484610fb1565b6402540be40081565b6301e1338081565b6005547501000000000000000000000000000000000000000000900460ff1681565b64e8d4a5100081565b65015d3ef7980081565b6000808080919293565b73ffffffffffffffffffffffffffffffffffffffff918216600090815260016020908152604080832093909416825291909152205490565b64a2fb40580081565b610cfb828261123e565b5050565b610d0b33848484611466565b505050565b60085481565b610d2284848484611466565b50505050565b3390565b73ffffffffffffffffffffffffffffffffffffffff8316610d7e5760405162461bcd60e51b8152600401808060200182810382526024815260200180611ff26024913960400191505060405180910390fd5b73ffffffffffffffffffffffffffffffffffffffff8216610dd05760405162461bcd60e51b8152600401808060200182810382526022815260200180611f1b6022913960400191505060405180910390fd5b73ffffffffffffffffffffffffffffffffffffffff808416600081815260016020908152604080832094871680845294825291829020859055815185815291517f8c5be1e5ebec7d5bd14f71427d1e84f3dd0314c0f7b2291e5b200ac8c7c3b9259281900390910190a3505050565b6000610b3e83836040518060400160405280601e81526020017f536166654d6174683a207375627472616374696f6e206f766572666c6f77000081525061114d565b73ffffffffffffffffffffffffffffffffffffffff8216610ed35760405162461bcd60e51b8152600401808060200182810382526021815260200180611fac6021913960400191505060405180910390fd5b610edf82600083610d0b565b610f2981604051806060016040528060228152602001611ef96022913973ffffffffffffffffffffffffffffffffffffffff8516600090815260208190526040902054919061114d565b73ffffffffffffffffffffffffffffffffffffffff8316600090815260208190526040902055600254610f5c9082610e3f565b60025560408051828152905160009173ffffffffffffffffffffffffffffffffffffffff8516917fddf252ad1be2c89b69c2b068fc378daa952ba7f163c4a11628f55a4df523b3ef9181900360200190a35050565b73ffffffffffffffffffffffffffffffffffffffff83166110035760405162461bcd60e51b8152600401808060200182810382526025815260200180611fcd6025913960400191505060405180910390fd5b73ffffffffffffffffffffffffffffffffffffffff82166110555760405162461bcd60e51b8152600401808060200182810382526023815260200180611ed66023913960400191505060405180910390fd5b611060838383610d0b565b6110aa81604051806060016040528060268152602001611f3d6026913973ffffffffffffffffffffffffffffffffffffffff8616600090815260208190526040902054919061114d565b73ffffffffffffffffffffffffffffffffffffffff80851660009081526020819052604080822093909355908416815220546110e690826111e4565b73ffffffffffffffffffffffffffffffffffffffff8084166000818152602081815260409182902094909455805185815290519193928716927fddf252ad1be2c89b69c2b068fc378daa952ba7f163c4a11628f55a4df523b3ef92918290030190a3505050565b600081848411156111dc5760405162461bcd60e51b81526004018080602001828103825283818151815260200191508051906020019080838360005b838110156111a1578181015183820152602001611189565b50505050905090810190601f1680156111ce5780820380516001836020036101000a031916815260200191505b509250505060405180910390fd5b505050900390565b600082820183811015610b3e576040805162461bcd60e51b815260206004820152601b60248201527f536166654d6174683a206164646974696f6e206f766572666c6f770000000000604482015290519081900360640190fd5b6006546040517f23b872dd00000000000000000000000000000000000000000000000000000000815260009173ffffffffffffffffffffffffffffffffffffffff16906323b872dd9061129990869030908790600401611bb2565b602060405180830381600087803b1580156112b357600080fd5b505af11580156112c7573d6000803e3d6000fd5b505050506040513d601f19601f820116820180604052508101906112eb9190611a69565b90508061130a5760405162461bcd60e51b815260040161082390611d12565b60075461131790836111e4565b6007556113248383611683565b7f06239653922ac7bea6aa2b19dc486b9361821d37712eb796adfd38d81de278ca838360075460405161135993929190611b84565b60405180910390a1505050565b6000600754611380836008546111e490919063ffffffff16565b111561139e5760405162461bcd60e51b815260040161082390611cdd565b6000600754116113c05760405162461bcd60e51b815260040161082390611ca6565b60006113f56007546113ef6402540be4006064026113e9876008546111e490919063ffffffff16565b9061179a565b906117f3565b9050600064a2fb4058008210156114165761140f82611835565b9050611422565b61141f8261184f565b90505b61143181640ba43b74006118c0565b905060006114476301e133806113ef888561179a565b905061145c64e8d4a510006113ef878461179a565b9695505050505050565b61146e61193c565b5073ffffffffffffffffffffffffffffffffffffffff8416600090815260096020908152604091829020825160608101845281548152600182015492810183905260029091015492810192909252156114d95760405162461bcd60e51b815260040161082390611d49565b6008546114e690846111e4565b60075410156115075760405162461bcd60e51b815260040161082390611d7e565b60006115138585611366565b8483526020808401878152604080860187815273ffffffffffffffffffffffffffffffffffffffff8b166000908152600990945292208551815590516001820155905160029091015560085490915061156c90856111e4565b6008556006546040517f23b872dd00000000000000000000000000000000000000000000000000000000815260009173ffffffffffffffffffffffffffffffffffffffff16906323b872dd906115ca908a9030908790600401611bb2565b602060405180830381600087803b1580156115e457600080fd5b505af11580156115f8573d6000803e3d6000fd5b505050506040513d601f19601f8201168201806040525081019061161c9190611a69565b90508061163b5760405162461bcd60e51b815260040161082390611d12565b7f1cd728a6e764ed0dcddb6e5b88d736a4a8d2a0d420ca373588f7a1109e18663f8786846008546040516116729493929190611be3565b60405180910390a150505050505050565b73ffffffffffffffffffffffffffffffffffffffff82166116eb576040805162461bcd60e51b815260206004820152601f60248201527f45524332303a206d696e7420746f20746865207a65726f206164647265737300604482015290519081900360640190fd5b6116f760008383610d0b565b60025461170490826111e4565b60025573ffffffffffffffffffffffffffffffffffffffff821660009081526020819052604090205461173790826111e4565b73ffffffffffffffffffffffffffffffffffffffff83166000818152602081815260408083209490945583518581529351929391927fddf252ad1be2c89b69c2b068fc378daa952ba7f163c4a11628f55a4df523b3ef9281900390910190a35050565b6000826117a9575060006107f0565b828202828482816117b657fe5b0414610b3e5760405162461bcd60e51b8152600401808060200182810382526021815260200180611f636021913960400191505060405180910390fd5b6000610b3e83836040518060400160405280601a81526020017f536166654d6174683a206469766973696f6e206279207a65726f0000000000008152506118d7565b60006107f064a2fb4058006113ef846445d964b80061179a565b60008061188761186964e8d4a5100064a2fb405800610e3f565b6113ef61187b8664a2fb405800610e3f565b6402540be4009061179a565b9050610b3e6118b46402540be4006113ef6118ad65015d3ef798006445d964b800610e3f565b859061179a565b6445d964b800906111e4565b6000818310156118d05781610b3e565b5090919050565b600081836119265760405162461bcd60e51b81526020600482018181528351602484015283519092839260449091019190850190808383600083156111a1578181015183820152602001611189565b50600083858161193257fe5b0495945050505050565b60405180606001604052806000815260200160008152602001600081525090565b803573ffffffffffffffffffffffffffffffffffffffff81168114610b0c57600080fd5b600060208284031215611992578081fd5b610b3e8261195d565b600080604083850312156119ad578081fd5b6119b68361195d565b91506119c46020840161195d565b90509250929050565b6000806000606084860312156119e1578081fd5b6119ea8461195d565b92506119f86020850161195d565b9150604084013590509250925092565b60008060408385031215611a1a578182fd5b611a238361195d565b946020939093013593505050565b60008060008060808587031215611a46578081fd5b611a4f8561195d565b966020860135965060408601359560600135945092505050565b600060208284031215611a7a578081fd5b81518015158114610b3e578182fd5b600060208284031215611a9a578081fd5b5035919050565b60008060408385031215611ab3578182fd5b50508035926020909101359150565b600080600060608486031215611ad6578283fd5b505081359360208301359350604090920135919050565b6000815180845260208085019450808401835b83811015611b3257815173ffffffffffffffffffffffffffffffffffffffff1687529582019590820190600101611b00565b509495945050505050565b73ffffffffffffffffffffffffffffffffffffffff91909116815260200190565b73ffffffffffffffffffffffffffffffffffffffff929092168252602082015260400190565b73ffffffffffffffffffffffffffffffffffffffff9390931683526020830191909152604082015260600190565b73ffffffffffffffffffffffffffffffffffffffff9384168152919092166020820152604081019190915260600190565b73ffffffffffffffffffffffffffffffffffffffff94909416845260208401929092526040830152606082015260800190565b901515815260200190565b6020810160048310611c2f57fe5b91905290565b6000602080835283518082850152825b81811015611c6157858101830151858201604001528201611c45565b81811115611c725783604083870101525b50601f017fffffffffffffffffffffffffffffffffffffffffffffffffffffffffffffffe016929092016040019392505050565b60208082526011908201527f54686520706f6f6c20697320656d707479000000000000000000000000000000604082015260600190565b6020808252818101527f526571756972696e67206d6f7265207468616e20746865726520657869737473604082015260600190565b60208082526019908201527f4661696c656420746f207472616e7366657220746f6b656e7300000000000000604082015260600190565b6020808252818101527f54686520706f6c69637920686f6c64657220616c726561647920657869737473604082015260600190565b6020808252601e908201527f4e6f7420656e6f75676820617661696c61626c65206c69717569646974790000604082015260600190565b6020808252603f908201527f54686520616d6f756e7420746f2062652077697468647261776e20697320677260408201527f6561746572207468616e20746865206465706f736974656420616d6f756e7400606082015260800190565b90815260200190565b600083825260406020830152611e346040830184611aed565b949350505050565b60008482526020606081840152611e566060840186611aed565b8381036040850152845180825282860191830190845b81811015611e8857835183529284019291840191600101611e6c565b509098975050505050505050565b9283526020830191909152604082015260600190565b93845260208401929092526040830152606082015260800190565b60ff9190911681526020019056fe45524332303a207472616e7366657220746f20746865207a65726f206164647265737345524332303a206275726e20616d6f756e7420657863656564732062616c616e636545524332303a20617070726f766520746f20746865207a65726f206164647265737345524332303a207472616e7366657220616d6f756e7420657863656564732062616c616e6365536166654d6174683a206d756c7469706c69636174696f6e206f766572666c6f7745524332303a207472616e7366657220616d6f756e74206578636565647320616c6c6f77616e636545524332303a206275726e2066726f6d20746865207a65726f206164647265737345524332303a207472616e736665722066726f6d20746865207a65726f206164647265737345524332303a20617070726f76652066726f6d20746865207a65726f206164647265737345524332303a2064656372656173656420616c6c6f77616e63652062656c6f77207a65726fa2646970667358221220a61833338f680e2f62776dacc8160f0a23b3bf02897a9e8684f43d29d3f6f3e864736f6c63430007040033",
  "immutableReferences": {},
  "source": "// SPDX-License-Identifier: MIT\npragma solidity ^0.7.4;\npragma experimental ABIEncoderV2;\n\nimport \"../PolicyBook.sol\";\n\ncontract MockPolicyBook is PolicyBook {\n  constructor(address _contract, IPolicyBookFabric.ContractType _contractType, address _daiAddr)\n    PolicyBook(_contract, _contractType, _daiAddr, \"\", \"\") {}\n\n  function setTotalLiquidity(uint256 _daiInThePoolTotal) public {\n    totalLiquidity = _daiInThePoolTotal;\n  }\n\n  function setTotalCoverTokens(uint256 _daiInThePoolBought) public {\n    totalCoverTokens = _daiInThePoolBought;\n  }\n}\n",
  "sourcePath": "/home/artem/Projects/Distributed_Lab/Applicature/bridgemutual-core/contracts/Mock/MockPolicyBook.sol",
  "compiler": {
    "name": "solc",
    "version": "0.7.4+commit.3f05b770.Emscripten.clang"
  },
  "schemaVersion": "3.3.3",
  "updatedAt": "2021-01-20T14:37:36.456Z",
  "networkType": "ethereum",
  "devdoc": {
    "kind": "dev",
    "methods": {
      "addLiquidity(uint256)": {
        "params": {
          "_liqudityAmount": "is amount of DAI tokens to secure"
        }
      },
      "addLiquidityFor(address,uint256)": {
        "params": {
          "_liqudityAmount": "is amount of DAI tokens to secure",
          "_liquidityHolderAddr": "is address of address to assign cover"
        }
      },
      "addShieldTokens(address,uint256)": {
        "params": {
          "_tokenAddress": "is address of reward token to add",
          "_tokensAmount": "is max amount of reward to operate on"
        },
        "returns": {
          "_success": "is indicator if purchase is successful, it will throw exception if unsuccessful"
        }
      },
      "allowance(address,address)": {
        "details": "See {IERC20-allowance}."
      },
      "approve(address,uint256)": {
        "details": "See {IERC20-approve}. Requirements: - `spender` cannot be the zero address."
      },
      "balanceOf(address)": {
        "details": "See {IERC20-balanceOf}."
      },
      "buyPolicy(uint256,uint256,uint256)": {
        "params": {
          "_coverTokens": "is number of tokens to cover",
          "_durationSeconds": "is number of seconds to cover",
          "_maxDaiTokens": "is number of DAI to spend"
        }
      },
      "buyPolicyFor(address,uint256,uint256,uint256)": {
        "params": {
          "_coverTokens": "is number of tokens to cover",
          "_durationSeconds": "is number of seconds to cover",
          "_maxDaiTokens": "is number of DAI to spend",
          "_policyHolderAddr": "is address of address to assign cover"
        }
      },
      "decimals()": {
        "details": "Returns the number of decimals used to get its user representation. For example, if `decimals` equals `2`, a balance of `505` tokens should be displayed to a user as `5,05` (`505 / 10 ** 2`). Tokens usually opt for a value of 18, imitating the relationship between Ether and Wei. This is the value {ERC20} uses, unless {_setupDecimals} is called. NOTE: This information is only used for _display_ purposes: it in no way affects any of the arithmetic of the contract, including {IERC20-balanceOf} and {IERC20-transfer}."
      },
      "decreaseAllowance(address,uint256)": {
        "details": "Atomically decreases the allowance granted to `spender` by the caller. This is an alternative to {approve} that can be used as a mitigation for problems described in {IERC20-approve}. Emits an {Approval} event indicating the updated allowance. Requirements: - `spender` cannot be the zero address. - `spender` must have allowance for the caller of at least `subtractedValue`."
      },
      "getQuote(uint256,uint256)": {
        "params": {
          "_durationSeconds": "is number of seconds to cover",
          "_tokens": "is number of tokens to cover"
        },
        "returns": {
          "_daiTokens": "is amount of DAI policy costs"
        }
      },
      "increaseAllowance(address,uint256)": {
        "details": "Atomically increases the allowance granted to `spender` by the caller. This is an alternative to {approve} that can be used as a mitigation for problems described in {IERC20-approve}. Emits an {Approval} event indicating the updated allowance. Requirements: - `spender` cannot be the zero address."
      },
      "name()": {
        "details": "Returns the name of the token."
      },
      "quoteStrategy()": {
        "returns": {
          "_quoteStrategy": "is address of Quote strategy contract used to calculate quote"
        }
      },
      "rewardForUnclaimedExpiredPolicy(uint256)": {
        "params": {
          "_policyId": "is id of policy to get reward for, reward will be sent to policy holder"
        }
      },
      "shieldAssets(uint256,uint256)": {
        "params": {
          "_limit": "is number of policy books to returns from _offset",
          "_offset": "is starting item in array to return array from"
        },
        "returns": {
          "_shieldAssets": "is addresses of shield assets, that will be distributed to Policy givers",
          "_shieldAssetsCount": "is number of added shield assets"
        }
      },
      "shieldAssetsCount()": {
        "returns": {
          "_shieldAssetsCount": "is number of added shield assets"
        }
      },
      "shieldAssetsWithBalance(uint256,uint256)": {
        "params": {
          "_limit": "is number of policy books to returns from _offset",
          "_offset": "is starting item in array to return array from"
        },
        "returns": {
          "_shieldAssetBalance": "is tokens amount of shield assets allocated to Policy Book,  to get specific shield asset balance lookup _shieldAssetBalances by same index as of shield asset",
          "_shieldAssets": "is addresses of shield assets, that will be distributed to Policy givers",
          "_shieldAssetsCount": "is number of added shield assets"
        }
      },
      "stats()": {
        "returns": {
          "_annualProfitYields": "is current annual profit yield",
          "_maxCapacities": "is max DAI amount to be covered at now",
          "_totalDaiLiquidity": "is DAI amount placed by Policy providers",
          "_yearlyCost": "_yearlyCost"
        }
      },
      "symbol()": {
        "details": "Returns the symbol of the token, usually a shorter version of the name."
      },
      "totalSupply()": {
        "details": "See {IERC20-totalSupply}."
      },
      "transfer(address,uint256)": {
        "details": "See {IERC20-transfer}. Requirements: - `recipient` cannot be the zero address. - the caller must have a balance of at least `amount`."
      },
      "transferFrom(address,address,uint256)": {
        "details": "See {IERC20-transferFrom}. Emits an {Approval} event indicating the updated allowance. This is not required by the EIP. See the note at the beginning of {ERC20}. Requirements: - `sender` and `recipient` cannot be the zero address. - `sender` must have a balance of at least `amount`. - the caller must have allowance for ``sender``'s tokens of at least `amount`."
      },
      "withdrawLiquidity(uint256)": {
        "params": {
          "_tokensToWithdraw": "is amount of DAI tokens to withdraw"
        }
      }
    },
    "version": 1
  },
  "userdoc": {
    "kind": "user",
    "methods": {
      "addLiquidity(uint256)": {
        "notice": "Let user to add liquidity by supplying DAI, access: ANY"
      },
      "addLiquidityFor(address,uint256)": {
        "notice": "Let user to add liqiudity for another user by supplying DAI, access: ANY"
      },
      "addShieldTokens(address,uint256)": {
        "notice": "Adds shield tokens to contract, access: ANY"
      },
      "buyPolicy(uint256,uint256,uint256)": {
        "notice": "Let user to buy policy by supplying DAI, access: ANY"
      },
      "buyPolicyFor(address,uint256,uint256,uint256)": {
        "notice": "Let user to buy policy for another user by supplying DAI, access: ANY"
      },
      "contractType()": {
        "notice": "Returns type of contract this PolicyBook covers, access: ANY"
      },
      "getQuote(uint256,uint256)": {
        "notice": "Let user to calculate policy cost in DAI, access: ANY"
      },
      "insuranceContractAddress()": {
        "notice": "Returns address of contract this PolicyBook covers, access: ANY"
      },
      "quoteStrategy()": {
        "notice": "Returns quote strategy defined during creation of PolicyBook, access: ANY"
      },
      "rewardForUnclaimedExpiredPolicy(uint256)": {
        "notice": "Let user to claim rewards for unclaimed policy cost in DAI, access: ANY"
      },
      "shieldAssets(uint256,uint256)": {
        "notice": "Returns list of shield assets added to PolicyBook, access: ANY"
      },
      "shieldAssetsCount()": {
        "notice": "Returns number of shield assets added, access: ANY"
      },
      "shieldAssetsWithBalance(uint256,uint256)": {
        "notice": "Returns list of shield assets added with tokens amount allocated to Policy Book, access: ANY"
      },
      "stats()": {
        "notice": "Getting stats, access: ANY"
      },
      "withdrawLiquidity(uint256)": {
        "notice": "Let user to withdraw deposited liqiudity, access: ANY"
      }
    },
    "version": 1
  }
}