{
  "contractName": "MockPolicyBook",
  "abi": [
    {
      "inputs": [
        {
          "internalType": "address",
          "name": "_contract",
          "type": "address"
        },
        {
          "internalType": "enum IPolicyBookFabric.ContractType",
          "name": "_contractType",
          "type": "uint8"
        },
        {
          "internalType": "address",
          "name": "_daiAddr",
          "type": "address"
        }
      ],
      "stateMutability": "nonpayable",
      "type": "constructor"
    },
    {
      "anonymous": false,
      "inputs": [
        {
          "indexed": false,
          "internalType": "address",
          "name": "_liquidityHolder",
          "type": "address"
        },
        {
          "indexed": false,
          "internalType": "uint256",
          "name": "_liqudityAmount",
          "type": "uint256"
        },
        {
          "indexed": false,
          "internalType": "uint256",
          "name": "_newTotalLiquidity",
          "type": "uint256"
        }
      ],
      "name": "AddLiquidity",
      "type": "event"
    },
    {
      "anonymous": false,
      "inputs": [
        {
          "indexed": true,
          "internalType": "address",
          "name": "owner",
          "type": "address"
        },
        {
          "indexed": true,
          "internalType": "address",
          "name": "spender",
          "type": "address"
        },
        {
          "indexed": false,
          "internalType": "uint256",
          "name": "value",
          "type": "uint256"
        }
      ],
      "name": "Approval",
      "type": "event"
    },
    {
      "anonymous": false,
      "inputs": [
        {
          "indexed": false,
          "internalType": "address",
          "name": "_policyHolder",
          "type": "address"
        },
        {
          "indexed": false,
          "internalType": "uint256",
          "name": "_coverTokens",
          "type": "uint256"
        },
        {
          "indexed": false,
          "internalType": "uint256",
          "name": "_price",
          "type": "uint256"
        },
        {
          "indexed": false,
          "internalType": "uint256",
          "name": "_newTotalCoverTokens",
          "type": "uint256"
        }
      ],
      "name": "BuyPolicy",
      "type": "event"
    },
    {
      "anonymous": false,
      "inputs": [
        {
          "indexed": true,
          "internalType": "address",
          "name": "from",
          "type": "address"
        },
        {
          "indexed": true,
          "internalType": "address",
          "name": "to",
          "type": "address"
        },
        {
          "indexed": false,
          "internalType": "uint256",
          "name": "value",
          "type": "uint256"
        }
      ],
      "name": "Transfer",
      "type": "event"
    },
    {
      "anonymous": false,
      "inputs": [
        {
          "indexed": false,
          "internalType": "address",
          "name": "_liquidityHolder",
          "type": "address"
        },
        {
          "indexed": false,
          "internalType": "uint256",
          "name": "_tokensToWithdraw",
          "type": "uint256"
        },
        {
          "indexed": false,
          "internalType": "uint256",
          "name": "_newTotalLiquidity",
          "type": "uint256"
        }
      ],
      "name": "WithdrawLiquidity",
      "type": "event"
    },
    {
      "inputs": [],
      "name": "DAYS_IN_THE_YEAR",
      "outputs": [
        {
          "internalType": "uint256",
          "name": "",
          "type": "uint256"
        }
      ],
      "stateMutability": "view",
      "type": "function"
    },
    {
      "inputs": [],
      "name": "MAXIMUM_COST_100_UTILIZATION_PERCENTAGE",
      "outputs": [
        {
          "internalType": "uint256",
          "name": "",
          "type": "uint256"
        }
      ],
      "stateMutability": "view",
      "type": "function"
    },
    {
      "inputs": [],
      "name": "MAXIMUM_COST_NOT_RISKY_PERCENTAGE",
      "outputs": [
        {
          "internalType": "uint256",
          "name": "",
          "type": "uint256"
        }
      ],
      "stateMutability": "view",
      "type": "function"
    },
    {
      "inputs": [],
      "name": "MINIMUM_COST_PERCENTAGE",
      "outputs": [
        {
          "internalType": "uint256",
          "name": "",
          "type": "uint256"
        }
      ],
      "stateMutability": "view",
      "type": "function"
    },
    {
      "inputs": [],
      "name": "PERCENTAGE_100",
      "outputs": [
        {
          "internalType": "uint256",
          "name": "",
          "type": "uint256"
        }
      ],
      "stateMutability": "view",
      "type": "function"
    },
    {
      "inputs": [],
      "name": "PRECISION",
      "outputs": [
        {
          "internalType": "uint256",
          "name": "",
          "type": "uint256"
        }
      ],
      "stateMutability": "view",
      "type": "function"
    },
    {
      "inputs": [],
      "name": "RISKY_ASSET_THRESHOLD_PERCENTAGE",
      "outputs": [
        {
          "internalType": "uint256",
          "name": "",
          "type": "uint256"
        }
      ],
      "stateMutability": "view",
      "type": "function"
    },
    {
      "inputs": [
        {
          "internalType": "uint256",
          "name": "_liqudityAmount",
          "type": "uint256"
        }
      ],
      "name": "addLiquidity",
      "outputs": [],
      "stateMutability": "nonpayable",
      "type": "function"
    },
    {
      "inputs": [
        {
          "internalType": "address",
          "name": "_liquidityHolderAddr",
          "type": "address"
        },
        {
          "internalType": "uint256",
          "name": "_liqudityAmount",
          "type": "uint256"
        }
      ],
      "name": "addLiquidityFor",
      "outputs": [],
      "stateMutability": "nonpayable",
      "type": "function"
    },
    {
      "inputs": [
        {
          "internalType": "address",
          "name": "_tokenAddress",
          "type": "address"
        },
        {
          "internalType": "uint256",
          "name": "_tokensAmount",
          "type": "uint256"
        }
      ],
      "name": "addShieldTokens",
      "outputs": [
        {
          "internalType": "bool",
          "name": "_success",
          "type": "bool"
        }
      ],
      "stateMutability": "nonpayable",
      "type": "function"
    },
    {
      "inputs": [
        {
          "internalType": "address",
          "name": "owner",
          "type": "address"
        },
        {
          "internalType": "address",
          "name": "spender",
          "type": "address"
        }
      ],
      "name": "allowance",
      "outputs": [
        {
          "internalType": "uint256",
          "name": "",
          "type": "uint256"
        }
      ],
      "stateMutability": "view",
      "type": "function"
    },
    {
      "inputs": [
        {
          "internalType": "address",
          "name": "spender",
          "type": "address"
        },
        {
          "internalType": "uint256",
          "name": "amount",
          "type": "uint256"
        }
      ],
      "name": "approve",
      "outputs": [
        {
          "internalType": "bool",
          "name": "",
          "type": "bool"
        }
      ],
      "stateMutability": "nonpayable",
      "type": "function"
    },
    {
      "inputs": [
        {
          "internalType": "address",
          "name": "account",
          "type": "address"
        }
      ],
      "name": "balanceOf",
      "outputs": [
        {
          "internalType": "uint256",
          "name": "",
          "type": "uint256"
        }
      ],
      "stateMutability": "view",
      "type": "function"
    },
    {
      "inputs": [
        {
          "internalType": "uint256",
          "name": "_durationDays",
          "type": "uint256"
        },
        {
          "internalType": "uint256",
          "name": "_coverTokens",
          "type": "uint256"
        },
        {
          "internalType": "uint256",
          "name": "_maxDaiTokens",
          "type": "uint256"
        }
      ],
      "name": "buyPolicy",
      "outputs": [],
      "stateMutability": "nonpayable",
      "type": "function"
    },
    {
      "inputs": [
        {
          "internalType": "address",
          "name": "_policyHolderAddr",
          "type": "address"
        },
        {
          "internalType": "uint256",
          "name": "_durationDays",
          "type": "uint256"
        },
        {
          "internalType": "uint256",
          "name": "_coverTokens",
          "type": "uint256"
        },
        {
          "internalType": "uint256",
          "name": "_maxDaiTokens",
          "type": "uint256"
        }
      ],
      "name": "buyPolicyFor",
      "outputs": [],
      "stateMutability": "nonpayable",
      "type": "function"
    },
    {
      "inputs": [],
      "name": "decimals",
      "outputs": [
        {
          "internalType": "uint8",
          "name": "",
          "type": "uint8"
        }
      ],
      "stateMutability": "view",
      "type": "function"
    },
    {
      "inputs": [
        {
          "internalType": "address",
          "name": "spender",
          "type": "address"
        },
        {
          "internalType": "uint256",
          "name": "subtractedValue",
          "type": "uint256"
        }
      ],
      "name": "decreaseAllowance",
      "outputs": [
        {
          "internalType": "bool",
          "name": "",
          "type": "bool"
        }
      ],
      "stateMutability": "nonpayable",
      "type": "function"
    },
    {
      "inputs": [],
      "name": "getContractAddress",
      "outputs": [
        {
          "internalType": "address",
          "name": "_contract",
          "type": "address"
        }
      ],
      "stateMutability": "view",
      "type": "function"
    },
    {
      "inputs": [],
      "name": "getContractType",
      "outputs": [
        {
          "internalType": "enum IPolicyBookFabric.ContractType",
          "name": "_type",
          "type": "uint8"
        }
      ],
      "stateMutability": "view",
      "type": "function"
    },
    {
      "inputs": [
        {
          "internalType": "uint256",
          "name": "_durationDays",
          "type": "uint256"
        },
        {
          "internalType": "uint256",
          "name": "_tokens",
          "type": "uint256"
        }
      ],
      "name": "getQuote",
      "outputs": [
        {
          "internalType": "uint256",
          "name": "_daiTokens",
          "type": "uint256"
        }
      ],
      "stateMutability": "view",
      "type": "function"
    },
    {
      "inputs": [
        {
          "internalType": "address",
          "name": "spender",
          "type": "address"
        },
        {
          "internalType": "uint256",
          "name": "addedValue",
          "type": "uint256"
        }
      ],
      "name": "increaseAllowance",
      "outputs": [
        {
          "internalType": "bool",
          "name": "",
          "type": "bool"
        }
      ],
      "stateMutability": "nonpayable",
      "type": "function"
    },
    {
      "inputs": [
        {
          "internalType": "address",
          "name": "",
          "type": "address"
        }
      ],
      "name": "liquidityHolders",
      "outputs": [
        {
          "internalType": "uint256",
          "name": "depositedAmount",
          "type": "uint256"
        },
        {
          "internalType": "uint256",
          "name": "lastUpdate",
          "type": "uint256"
        }
      ],
      "stateMutability": "view",
      "type": "function"
    },
    {
      "inputs": [],
      "name": "name",
      "outputs": [
        {
          "internalType": "string",
          "name": "",
          "type": "string"
        }
      ],
      "stateMutability": "view",
      "type": "function"
    },
    {
      "inputs": [
        {
          "internalType": "address",
          "name": "",
          "type": "address"
        }
      ],
      "name": "policyHolders",
      "outputs": [
        {
          "internalType": "uint256",
          "name": "coverTokens",
          "type": "uint256"
        },
        {
          "internalType": "uint256",
          "name": "durationDays",
          "type": "uint256"
        },
        {
          "internalType": "uint256",
          "name": "maxDaiTokens",
          "type": "uint256"
        }
      ],
      "stateMutability": "view",
      "type": "function"
    },
    {
      "inputs": [],
      "name": "quoteStrategy",
      "outputs": [
        {
          "internalType": "address",
          "name": "_quoteStrategy",
          "type": "address"
        }
      ],
      "stateMutability": "view",
      "type": "function"
    },
    {
      "inputs": [
        {
          "internalType": "uint256",
          "name": "_policyId",
          "type": "uint256"
        }
      ],
      "name": "rewardForUnclaimedExpiredPolicy",
      "outputs": [],
      "stateMutability": "nonpayable",
      "type": "function"
    },
    {
      "inputs": [
        {
          "internalType": "uint256",
          "name": "_offset",
          "type": "uint256"
        },
        {
          "internalType": "uint256",
          "name": "_limit",
          "type": "uint256"
        }
      ],
      "name": "shieldAssets",
      "outputs": [
        {
          "internalType": "uint256",
          "name": "_shieldAssetsCount",
          "type": "uint256"
        },
        {
          "internalType": "address[]",
          "name": "_shieldAssets",
          "type": "address[]"
        }
      ],
      "stateMutability": "view",
      "type": "function"
    },
    {
      "inputs": [],
      "name": "shieldAssetsCount",
      "outputs": [
        {
          "internalType": "uint256",
          "name": "_shieldAssetsCount",
          "type": "uint256"
        }
      ],
      "stateMutability": "view",
      "type": "function"
    },
    {
      "inputs": [
        {
          "internalType": "uint256",
          "name": "_offset",
          "type": "uint256"
        },
        {
          "internalType": "uint256",
          "name": "_limit",
          "type": "uint256"
        }
      ],
      "name": "shieldAssetsWithBalance",
      "outputs": [
        {
          "internalType": "uint256",
          "name": "_shieldAssetsCount",
          "type": "uint256"
        },
        {
          "internalType": "address[]",
          "name": "_shieldAssets",
          "type": "address[]"
        },
        {
          "internalType": "uint256[]",
          "name": "_shieldAssetBalance",
          "type": "uint256[]"
        }
      ],
      "stateMutability": "view",
      "type": "function"
    },
    {
      "inputs": [],
      "name": "stats",
      "outputs": [
        {
          "internalType": "uint256",
          "name": "_yearlyCost",
          "type": "uint256"
        },
        {
          "internalType": "uint256",
          "name": "_maxCapacities",
          "type": "uint256"
        },
        {
          "internalType": "uint256",
          "name": "_totalDaiLiquidity",
          "type": "uint256"
        },
        {
          "internalType": "uint256",
          "name": "_annualProfitYields",
          "type": "uint256"
        }
      ],
      "stateMutability": "nonpayable",
      "type": "function"
    },
    {
      "inputs": [],
      "name": "symbol",
      "outputs": [
        {
          "internalType": "string",
          "name": "",
          "type": "string"
        }
      ],
      "stateMutability": "view",
      "type": "function"
    },
    {
      "inputs": [],
      "name": "totalCoverTokens",
      "outputs": [
        {
          "internalType": "uint256",
          "name": "",
          "type": "uint256"
        }
      ],
      "stateMutability": "view",
      "type": "function"
    },
    {
      "inputs": [],
      "name": "totalLiquidity",
      "outputs": [
        {
          "internalType": "uint256",
          "name": "",
          "type": "uint256"
        }
      ],
      "stateMutability": "view",
      "type": "function"
    },
    {
      "inputs": [],
      "name": "totalSupply",
      "outputs": [
        {
          "internalType": "uint256",
          "name": "",
          "type": "uint256"
        }
      ],
      "stateMutability": "view",
      "type": "function"
    },
    {
      "inputs": [
        {
          "internalType": "address",
          "name": "recipient",
          "type": "address"
        },
        {
          "internalType": "uint256",
          "name": "amount",
          "type": "uint256"
        }
      ],
      "name": "transfer",
      "outputs": [
        {
          "internalType": "bool",
          "name": "",
          "type": "bool"
        }
      ],
      "stateMutability": "nonpayable",
      "type": "function"
    },
    {
      "inputs": [
        {
          "internalType": "address",
          "name": "sender",
          "type": "address"
        },
        {
          "internalType": "address",
          "name": "recipient",
          "type": "address"
        },
        {
          "internalType": "uint256",
          "name": "amount",
          "type": "uint256"
        }
      ],
      "name": "transferFrom",
      "outputs": [
        {
          "internalType": "bool",
          "name": "",
          "type": "bool"
        }
      ],
      "stateMutability": "nonpayable",
      "type": "function"
    },
    {
      "inputs": [
        {
          "internalType": "uint256",
          "name": "_tokensToWithdraw",
          "type": "uint256"
        }
      ],
      "name": "withdrawLiquidity",
      "outputs": [],
      "stateMutability": "nonpayable",
      "type": "function"
    },
    {
      "stateMutability": "payable",
      "type": "receive"
    },
    {
      "inputs": [
        {
          "internalType": "uint256",
          "name": "_daiInThePoolTotal",
          "type": "uint256"
        }
      ],
      "name": "setTotalLiquidity",
      "outputs": [],
      "stateMutability": "nonpayable",
      "type": "function"
    },
    {
      "inputs": [
        {
          "internalType": "uint256",
          "name": "_daiInThePoolBought",
          "type": "uint256"
        }
      ],
      "name": "setTotalCoverTokens",
      "outputs": [],
      "stateMutability": "nonpayable",
      "type": "function"
    }
  ],
  "bytecode": "0x60806040523480156200001157600080fd5b506040516200224f3803806200224f8339810160408190526200003491620001f5565b604080518082018252601681527f4272696467654d757475616c20496e737572616e6365000000000000000000006020808301918252835180850190945260078452660c4dad2888292f60cb1b90840152815186938693869390926200009d916003916200012c565b508051620000b39060049060208401906200012c565b505060058054601260ff1990911617610100600160a81b0319166101006001600160a01b038716021780825584925060ff60a81b1916600160a81b836003811115620000fb57fe5b0217905550600680546001600160a01b0319166001600160a01b039290921691909117905550620002429350505050565b828054600181600116156101000203166002900490600052602060002090601f016020900481019282620001645760008555620001af565b82601f106200017f57805160ff1916838001178555620001af565b82800160010185558215620001af579182015b82811115620001af57825182559160200191906001019062000192565b50620001bd929150620001c1565b5090565b5b80821115620001bd5760008155600101620001c2565b80516001600160a01b0381168114620001f057600080fd5b919050565b6000806000606084860312156200020a578283fd5b6200021584620001d8565b925060208401516004811062000229578283fd5b91506200023960408501620001d8565b90509250925092565b611ffd80620002526000396000f3fe6080604052600436106102a45760003560e01c8063758af3ab1161016e578063c51a29e0116100cb578063e98a04e11161007f578063f4020b5b11610064578063f4020b5b14610718578063f60ff93714610738578063fc3dfc991461074d576102ab565b8063e98a04e1146106e3578063efa1f98a146106f8576102ab565b8063cfa8b3a8116100b0578063cfa8b3a814610689578063d80528ae1461069e578063dd62ed3e146106c3576102ab565b8063c51a29e014610652578063cbf5a55e14610674576102ab565b80639f7754cd11610122578063a9059cbb11610107578063a9059cbb146105fd578063aaf5eb681461061d578063c18c605714610632576102ab565b80639f7754cd146105af578063a457c2d7146105dd576102ab565b80637cd0fc9b116101535780637cd0fc9b1461057057806395d89b41146105855780639c5900061461059a576102ab565b8063758af3ab1461052257806379fac08c14610542576102ab565b80632c865d6c1161021c57806351c6590a116101d0578063611258a5116101b5578063611258a5146104be57806370a08231146104d357806370b68a2a146104f3576102ab565b806351c6590a1461047e578063561e795d1461049e576102ab565b806332a2c5d01161020157806332a2c5d0146104275780633950935114610449578063514ea9bd14610469576102ab565b80632c865d6c146103f0578063313ce56714610405576102ab565b80630e82da531161027357806318160ddd1161025857806318160ddd1461039b578063188ff854146103b057806323b872dd146103d0576102ab565b80630e82da531461034a57806315770f9214610379576102ab565b806306fdde03146102b0578063095ea7b3146102db57806309b7d94b146103085780630a861f2a1461032a576102ab565b366102ab57005b600080fd5b3480156102bc57600080fd5b506102c561076d565b6040516102d29190611bc2565b60405180910390f35b3480156102e757600080fd5b506102fb6102f6366004611995565b610821565b6040516102d29190611ba3565b34801561031457600080fd5b50610328610323366004611a16565b61083f565b005b34801561033657600080fd5b50610328610345366004611a16565b610844565b34801561035657600080fd5b5061036a610365366004611a2e565b610a6a565b6040516102d293929190611dfe565b34801561038557600080fd5b5061038e610a76565b6040516102d29190611dd4565b3480156103a757600080fd5b5061038e610a7c565b3480156103bc57600080fd5b506102fb6103cb366004611995565b610a82565b3480156103dc57600080fd5b506102fb6103eb36600461195a565b610a8a565b3480156103fc57600080fd5b5061038e610b2b565b34801561041157600080fd5b5061041a610b30565b6040516102d29190611e97565b34801561043357600080fd5b5061043c610b39565b6040516102d29190611aca565b34801561045557600080fd5b506102fb610464366004611995565b610b5a565b34801561047557600080fd5b5061038e610bb5565b34801561048a57600080fd5b50610328610499366004611a16565b610bbe565b3480156104aa57600080fd5b506103286104b9366004611a16565b610bcb565b3480156104ca57600080fd5b5061038e610bd0565b3480156104df57600080fd5b5061038e6104ee36600461190e565b610bd6565b3480156104ff57600080fd5b5061051361050e36600461190e565b610c02565b6040516102d293929190611e66565b34801561052e57600080fd5b5061038e61053d366004611a2e565b610c23565b34801561054e57600080fd5b5061056261055d366004611a2e565b610c36565b6040516102d2929190611ddd565b34801561057c57600080fd5b5061043c610b2b565b34801561059157600080fd5b506102c5610c40565b3480156105a657600080fd5b5061038e610cbf565b3480156105bb57600080fd5b506105cf6105ca36600461190e565b610cc8565b6040516102d2929190611e58565b3480156105e957600080fd5b506102fb6105f8366004611995565b610ce1565b34801561060957600080fd5b506102fb610618366004611995565b610d56565b34801561062957600080fd5b5061038e610d6a565b34801561063e57600080fd5b5061032861064d366004611a16565b610bc8565b34801561065e57600080fd5b50610667610d73565b6040516102d29190611bae565b34801561068057600080fd5b5061038e610d95565b34801561069557600080fd5b5061038e610d9e565b3480156106aa57600080fd5b506106b3610da8565b6040516102d29493929190611e7c565b3480156106cf57600080fd5b5061038e6106de366004611928565b610db2565b3480156106ef57600080fd5b5061038e610dea565b34801561070457600080fd5b50610328610713366004611995565b610df3565b34801561072457600080fd5b50610328610733366004611a4f565b610e01565b34801561074457600080fd5b5061038e610e12565b34801561075957600080fd5b506103286107683660046119be565b610e18565b60038054604080516020601f60027fffffffffffffffffffffffffffffffffffffffffffffffffffffffffffffffff6101006001881615020190951694909404938401819004810282018101909252828152606093909290918301828280156108175780601f106107ec57610100808354040283529160200191610817565b820191906000526020600020905b8154815290600101906020018083116107fa57829003601f168201915b5050505050905090565b600061083561082e610e2a565b8484610e2e565b5060015b92915050565b600755565b61084c6118af565b50336000908152600960209081526040918290208251808401909352805483526001015490820181905261089b5760405162461bcd60e51b815260040161089290611cd6565b60405180910390fd5b60006108a633610f41565b82519091506108b59082610f47565b82526007546108c49082610f47565b60075581518311156108e85760405162461bcd60e51b815260040161089290611d77565b6008546007546108f89085610fa1565b10156109165760405162461bcd60e51b815260040161089290611d40565b81516109229084610fa1565b82524260208084019182523360009081526009909152604090208351815590516001909101556007546109559084610fa1565b6007556006546040517fa9059cbb00000000000000000000000000000000000000000000000000000000815273ffffffffffffffffffffffffffffffffffffffff90911690600090829063a9059cbb906109b59033908990600401611aeb565b602060405180830381600087803b1580156109cf57600080fd5b505af11580156109e3573d6000803e3d6000fd5b505050506040513d601f19601f82011682018060405250810190610a0791906119f6565b905080610a265760405162461bcd60e51b815260040161089290611c9f565b7fac927268ea9ae2e55027e6ab727fc2db8e3ea48c56c658223a1074567e4298c03386600754604051610a5b93929190611b11565b60405180910390a15050505050565b60006060809250925092565b60075481565b60025490565b600092915050565b6000610a97848484610fe3565b610b2184610aa3610e2a565b610b1c85604051806060016040528060288152602001611f326028913973ffffffffffffffffffffffffffffffffffffffff8a16600090815260016020526040812090610aee610e2a565b73ffffffffffffffffffffffffffffffffffffffff168152602081019190915260400160002054919061117f565b610e2e565b5060019392505050565b600090565b60055460ff1690565b600554610100900473ffffffffffffffffffffffffffffffffffffffff1690565b6000610835610b67610e2a565b84610b1c8560016000610b78610e2a565b73ffffffffffffffffffffffffffffffffffffffff908116825260208083019390935260409182016000908120918c168152925290205490610f47565b6445d964b80081565b610bc83382611216565b50565b600855565b61016d81565b73ffffffffffffffffffffffffffffffffffffffff81166000908152602081905260409020545b919050565b600a6020526000908152604090208054600182015460029092015490919083565b6000610c2f83836113ed565b9392505050565b5060009160609150565b60048054604080516020601f60027fffffffffffffffffffffffffffffffffffffffffffffffffffffffffffffffff6101006001881615020190951694909404938401819004810282018101909252828152606093909290918301828280156108175780601f106107ec57610100808354040283529160200191610817565b640ba43b740081565b6009602052600090815260409020805460019091015482565b6000610835610cee610e2a565b84610b1c85604051806060016040528060258152602001611fa36025913960016000610d18610e2a565b73ffffffffffffffffffffffffffffffffffffffff908116825260208083019390935260409182016000908120918d1681529252902054919061117f565b6000610835610d63610e2a565b8484610fe3565b6402540be40081565b6005547501000000000000000000000000000000000000000000900460ff1690565b64e8d4a5100081565b65015d3ef7980081565b6000808080919293565b73ffffffffffffffffffffffffffffffffffffffff918216600090815260016020908152604080832093909416825291909152205490565b64a2fb40580081565b610dfd8282611216565b5050565b610e0d338484846114eb565b505050565b60085481565b610e24848484846114eb565b50505050565b3390565b73ffffffffffffffffffffffffffffffffffffffff8316610e805760405162461bcd60e51b8152600401808060200182810382526024815260200180611f7f6024913960400191505060405180910390fd5b73ffffffffffffffffffffffffffffffffffffffff8216610ed25760405162461bcd60e51b8152600401808060200182810382526022815260200180611ec96022913960400191505060405180910390fd5b73ffffffffffffffffffffffffffffffffffffffff808416600081815260016020908152604080832094871680845294825291829020859055815185815291517f8c5be1e5ebec7d5bd14f71427d1e84f3dd0314c0f7b2291e5b200ac8c7c3b9259281900390910190a3505050565b50600090565b600082820183811015610c2f576040805162461bcd60e51b815260206004820152601b60248201527f536166654d6174683a206164646974696f6e206f766572666c6f770000000000604482015290519081900360640190fd5b6000610c2f83836040518060400160405280601e81526020017f536166654d6174683a207375627472616374696f6e206f766572666c6f77000081525061117f565b73ffffffffffffffffffffffffffffffffffffffff83166110355760405162461bcd60e51b8152600401808060200182810382526025815260200180611f5a6025913960400191505060405180910390fd5b73ffffffffffffffffffffffffffffffffffffffff82166110875760405162461bcd60e51b8152600401808060200182810382526023815260200180611ea66023913960400191505060405180910390fd5b611092838383610e0d565b6110dc81604051806060016040528060268152602001611eeb6026913973ffffffffffffffffffffffffffffffffffffffff8616600090815260208190526040902054919061117f565b73ffffffffffffffffffffffffffffffffffffffff80851660009081526020819052604080822093909355908416815220546111189082610f47565b73ffffffffffffffffffffffffffffffffffffffff8084166000818152602081815260409182902094909455805185815290519193928716927fddf252ad1be2c89b69c2b068fc378daa952ba7f163c4a11628f55a4df523b3ef92918290030190a3505050565b6000818484111561120e5760405162461bcd60e51b81526004018080602001828103825283818151815260200191508051906020019080838360005b838110156111d35781810151838201526020016111bb565b50505050905090810190601f1680156112005780820380516001836020036101000a031916815260200191505b509250505060405180910390fd5b505050900390565b61121e6118af565b5073ffffffffffffffffffffffffffffffffffffffff82166000908152600960209081526040808320815180830190925280548252600101549181018290529190156112705761126d84610f41565b90505b600061127c8483610f47565b835190915061128b9082610f47565b835242602080850191825273ffffffffffffffffffffffffffffffffffffffff871660009081526009909152604090208451815590516001909101556007546112d49082610f47565b6007556006546040517f23b872dd00000000000000000000000000000000000000000000000000000000815273ffffffffffffffffffffffffffffffffffffffff9091169060009082906323b872dd90611336908a9030908b90600401611b3f565b602060405180830381600087803b15801561135057600080fd5b505af1158015611364573d6000803e3d6000fd5b505050506040513d601f19601f8201168201806040525081019061138891906119f6565b9050806113a75760405162461bcd60e51b815260040161089290611c9f565b7f06239653922ac7bea6aa2b19dc486b9361821d37712eb796adfd38d81de278ca87876007546040516113dc93929190611b11565b60405180910390a150505050505050565b600060075461140783600854610f4790919063ffffffff16565b11156114255760405162461bcd60e51b815260040161089290611c6a565b6000600754116114475760405162461bcd60e51b815260040161089290611c33565b600061147c6007546114766402540be40060640261147087600854610f4790919063ffffffff16565b9061170d565b90611766565b9050600064a2fb40580082101561149d57611496826117a8565b90506114a9565b6114a6826117c2565b90505b6114b881640ba43b7400611833565b905060006114cc61016d611476888561170d565b90506114e164e8d4a51000611476878461170d565b9695505050505050565b6114f36118c9565b5073ffffffffffffffffffffffffffffffffffffffff84166000908152600a60209081526040918290208251606081018452815481526001820154928101839052600290910154928101929092521561155e5760405162461bcd60e51b815260040161089290611d0b565b60085461156b9084610f47565b600754101561158c5760405162461bcd60e51b815260040161089290611d40565b600061159885856113ed565b8483526020808401878152604080860187815273ffffffffffffffffffffffffffffffffffffffff8b166000908152600a9094529220855181559051600182015590516002909101556008549091506115f19085610f47565b6008556006546040517f23b872dd00000000000000000000000000000000000000000000000000000000815273ffffffffffffffffffffffffffffffffffffffff9091169060009082906323b872dd90611653908b9030908890600401611b3f565b602060405180830381600087803b15801561166d57600080fd5b505af1158015611681573d6000803e3d6000fd5b505050506040513d601f19601f820116820180604052508101906116a591906119f6565b9050806116c45760405162461bcd60e51b815260040161089290611c9f565b7f1cd728a6e764ed0dcddb6e5b88d736a4a8d2a0d420ca373588f7a1109e18663f8887856008546040516116fb9493929190611b70565b60405180910390a15050505050505050565b60008261171c57506000610839565b8282028284828161172957fe5b0414610c2f5760405162461bcd60e51b8152600401808060200182810382526021815260200180611f116021913960400191505060405180910390fd5b6000610c2f83836040518060400160405280601a81526020017f536166654d6174683a206469766973696f6e206279207a65726f00000000000081525061184a565b600061083964a2fb405800611476846445d964b80061170d565b6000806117fa6117dc64e8d4a5100064a2fb405800610fa1565b6114766117ee8664a2fb405800610fa1565b6402540be4009061170d565b9050610c2f6118276402540be40061147661182065015d3ef798006445d964b800610fa1565b859061170d565b6445d964b80090610f47565b6000818310156118435781610c2f565b5090919050565b600081836118995760405162461bcd60e51b81526020600482018181528351602484015283519092839260449091019190850190808383600083156111d35781810151838201526020016111bb565b5060008385816118a557fe5b0495945050505050565b604051806040016040528060008152602001600081525090565b60405180606001604052806000815260200160008152602001600081525090565b803573ffffffffffffffffffffffffffffffffffffffff81168114610bfd57600080fd5b60006020828403121561191f578081fd5b610c2f826118ea565b6000806040838503121561193a578081fd5b611943836118ea565b9150611951602084016118ea565b90509250929050565b60008060006060848603121561196e578081fd5b611977846118ea565b9250611985602085016118ea565b9150604084013590509250925092565b600080604083850312156119a7578182fd5b6119b0836118ea565b946020939093013593505050565b600080600080608085870312156119d3578081fd5b6119dc856118ea565b966020860135965060408601359560600135945092505050565b600060208284031215611a07578081fd5b81518015158114610c2f578182fd5b600060208284031215611a27578081fd5b5035919050565b60008060408385031215611a40578182fd5b50508035926020909101359150565b600080600060608486031215611a63578283fd5b505081359360208301359350604090920135919050565b6000815180845260208085019450808401835b83811015611abf57815173ffffffffffffffffffffffffffffffffffffffff1687529582019590820190600101611a8d565b509495945050505050565b73ffffffffffffffffffffffffffffffffffffffff91909116815260200190565b73ffffffffffffffffffffffffffffffffffffffff929092168252602082015260400190565b73ffffffffffffffffffffffffffffffffffffffff9390931683526020830191909152604082015260600190565b73ffffffffffffffffffffffffffffffffffffffff9384168152919092166020820152604081019190915260600190565b73ffffffffffffffffffffffffffffffffffffffff94909416845260208401929092526040830152606082015260800190565b901515815260200190565b6020810160048310611bbc57fe5b91905290565b6000602080835283518082850152825b81811015611bee57858101830151858201604001528201611bd2565b81811115611bff5783604083870101525b50601f017fffffffffffffffffffffffffffffffffffffffffffffffffffffffffffffffe016929092016040019392505050565b60208082526011908201527f54686520706f6f6c20697320656d707479000000000000000000000000000000604082015260600190565b6020808252818101527f526571756972696e67206d6f7265207468616e20746865726520657869737473604082015260600190565b60208082526019908201527f4661696c656420746f207472616e7366657220746f6b656e7300000000000000604082015260600190565b6020808252818101527f4c697175696469747920686f6c64657220646f6573206e6f7420657869737473604082015260600190565b6020808252818101527f54686520706f6c69637920686f6c64657220616c726561647920657869737473604082015260600190565b6020808252601e908201527f4e6f7420656e6f75676820617661696c61626c65206c69717569646974790000604082015260600190565b6020808252603f908201527f54686520616d6f756e7420746f2062652077697468647261776e20697320677260408201527f6561746572207468616e20746865206465706f736974656420616d6f756e7400606082015260800190565b90815260200190565b600083825260406020830152611df66040830184611a7a565b949350505050565b60008482526020606081840152611e186060840186611a7a565b8381036040850152845180825282860191830190845b81811015611e4a57835183529284019291840191600101611e2e565b509098975050505050505050565b918252602082015260400190565b9283526020830191909152604082015260600190565b93845260208401929092526040830152606082015260800190565b60ff9190911681526020019056fe45524332303a207472616e7366657220746f20746865207a65726f206164647265737345524332303a20617070726f766520746f20746865207a65726f206164647265737345524332303a207472616e7366657220616d6f756e7420657863656564732062616c616e6365536166654d6174683a206d756c7469706c69636174696f6e206f766572666c6f7745524332303a207472616e7366657220616d6f756e74206578636565647320616c6c6f77616e636545524332303a207472616e736665722066726f6d20746865207a65726f206164647265737345524332303a20617070726f76652066726f6d20746865207a65726f206164647265737345524332303a2064656372656173656420616c6c6f77616e63652062656c6f77207a65726fa264697066735822122091430b6ef2e6a6cb16fc1d492a2b7db2e7623c1151209623830a11ca2ca0cb5664736f6c63430007040033",
  "immutableReferences": {},
  "source": "// SPDX-License-Identifier: MIT\npragma solidity ^0.7.4;\npragma experimental ABIEncoderV2;\n\nimport \"../PolicyBook.sol\";\n\ncontract MockPolicyBook is PolicyBook {\n  constructor(address _contract, IPolicyBookFabric.ContractType _contractType, address _daiAddr)\n    PolicyBook(_contract, _contractType, _daiAddr) {}\n\n  function setTotalLiquidity(uint256 _daiInThePoolTotal) public {\n    totalLiquidity = _daiInThePoolTotal;\n  }\n\n  function setTotalCoverTokens(uint256 _daiInThePoolBought) public {\n    totalCoverTokens = _daiInThePoolBought;\n  }\n}\n",
  "sourcePath": "/Users/armenarakelian/Documents/GitHub/bridgemutual-core/contracts/Mock/MockPolicyBook.sol",
  "compiler": {
    "name": "solc",
    "version": "0.7.4+commit.3f05b770.Emscripten.clang"
  },
  "schemaVersion": "3.2.0-tezos.1",
  "updatedAt": "2021-01-18T12:01:15.846Z",
  "devdoc": {
    "kind": "dev",
    "methods": {
      "addLiquidity(uint256)": {
        "params": {
          "_liqudityAmount": "is amount of DAI tokens to secure"
        }
      },
      "addLiquidityFor(address,uint256)": {
        "params": {
          "_liqudityAmount": "is amount of DAI tokens to secure",
          "_liquidityHolderAddr": "is address of address to assign cover"
        }
      },
      "addShieldTokens(address,uint256)": {
        "params": {
          "_tokenAddress": "is address of reward token to add",
          "_tokensAmount": "is max amount of reward to operate on"
        },
        "returns": {
          "_success": "is indicator if purchase is successful, it will throw exception if unsuccessful"
        }
      },
      "allowance(address,address)": {
        "details": "See {IERC20-allowance}."
      },
      "approve(address,uint256)": {
        "details": "See {IERC20-approve}. Requirements: - `spender` cannot be the zero address."
      },
      "balanceOf(address)": {
        "details": "See {IERC20-balanceOf}."
      },
      "buyPolicy(uint256,uint256,uint256)": {
        "params": {
          "_coverTokens": "is number of tokens to cover",
          "_durationDays": "is number of days to cover",
          "_maxDaiTokens": "is number of DAI to spend"
        }
      },
      "buyPolicyFor(address,uint256,uint256,uint256)": {
        "params": {
          "_coverTokens": "is number of tokens to cover",
          "_durationDays": "is number of days to cover",
          "_maxDaiTokens": "is number of DAI to spend",
          "_policyHolderAddr": "is address of address to assign cover"
        }
      },
      "decimals()": {
        "details": "Returns the number of decimals used to get its user representation. For example, if `decimals` equals `2`, a balance of `505` tokens should be displayed to a user as `5,05` (`505 / 10 ** 2`). Tokens usually opt for a value of 18, imitating the relationship between Ether and Wei. This is the value {ERC20} uses, unless {_setupDecimals} is called. NOTE: This information is only used for _display_ purposes: it in no way affects any of the arithmetic of the contract, including {IERC20-balanceOf} and {IERC20-transfer}."
      },
      "decreaseAllowance(address,uint256)": {
        "details": "Atomically decreases the allowance granted to `spender` by the caller. This is an alternative to {approve} that can be used as a mitigation for problems described in {IERC20-approve}. Emits an {Approval} event indicating the updated allowance. Requirements: - `spender` cannot be the zero address. - `spender` must have allowance for the caller of at least `subtractedValue`."
      },
      "getContractAddress()": {
        "returns": {
          "_contract": "is address of covered contract"
        }
      },
      "getContractType()": {
        "returns": {
          "_type": "is type of contract"
        }
      },
      "getQuote(uint256,uint256)": {
        "params": {
          "_durationDays": "is number of days to cover",
          "_tokens": "is number of tokens to cover"
        },
        "returns": {
          "_daiTokens": "is amount of DAI policy costs"
        }
      },
      "increaseAllowance(address,uint256)": {
        "details": "Atomically increases the allowance granted to `spender` by the caller. This is an alternative to {approve} that can be used as a mitigation for problems described in {IERC20-approve}. Emits an {Approval} event indicating the updated allowance. Requirements: - `spender` cannot be the zero address."
      },
      "name()": {
        "details": "Returns the name of the token."
      },
      "quoteStrategy()": {
        "returns": {
          "_quoteStrategy": "is address of Quote strategy contract used to calculate quote"
        }
      },
      "rewardForUnclaimedExpiredPolicy(uint256)": {
        "params": {
          "_policyId": "is id of policy to get reward for, reward will be sent to policy holder"
        }
      },
      "shieldAssets(uint256,uint256)": {
        "params": {
          "_limit": "is number of policy books to returns from _offset",
          "_offset": "is starting item in array to return array from"
        },
        "returns": {
          "_shieldAssets": "is addresses of shield assets, that will be distributed to Policy givers",
          "_shieldAssetsCount": "is number of added shield assets"
        }
      },
      "shieldAssetsCount()": {
        "returns": {
          "_shieldAssetsCount": "is number of added shield assets"
        }
      },
      "shieldAssetsWithBalance(uint256,uint256)": {
        "params": {
          "_limit": "is number of policy books to returns from _offset",
          "_offset": "is starting item in array to return array from"
        },
        "returns": {
          "_shieldAssetBalance": "is tokens amount of shield assets allocated to Policy Book, to get specific shield asset balance lookup _shieldAssetBalances by same index as of shield asset",
          "_shieldAssets": "is addresses of shield assets, that will be distributed to Policy givers",
          "_shieldAssetsCount": "is number of added shield assets"
        }
      },
      "stats()": {
        "returns": {
          "_annualProfitYields": "is current annual profit yield",
          "_maxCapacities": "is max DAI amount to be covered at now",
          "_totalDaiLiquidity": "is DAI amount placed by Policy providers",
          "_yearlyCost": "_yearlyCost"
        }
      },
      "symbol()": {
        "details": "Returns the symbol of the token, usually a shorter version of the name."
      },
      "totalSupply()": {
        "details": "See {IERC20-totalSupply}."
      },
      "transfer(address,uint256)": {
        "details": "See {IERC20-transfer}. Requirements: - `recipient` cannot be the zero address. - the caller must have a balance of at least `amount`."
      },
      "transferFrom(address,address,uint256)": {
        "details": "See {IERC20-transferFrom}. Emits an {Approval} event indicating the updated allowance. This is not required by the EIP. See the note at the beginning of {ERC20}. Requirements: - `sender` and `recipient` cannot be the zero address. - `sender` must have a balance of at least `amount`. - the caller must have allowance for ``sender``'s tokens of at least `amount`."
      },
      "withdrawLiquidity(uint256)": {
        "params": {
          "_tokensToWithdraw": "is amount of DAI tokens to withdraw"
        }
      }
    },
    "version": 1
  },
  "userdoc": {
    "kind": "user",
    "methods": {
      "addLiquidity(uint256)": {
        "notice": "Let user to add liquidity by supplying DAI, access: ANY"
      },
      "addLiquidityFor(address,uint256)": {
        "notice": "Let user to add liqiudity for another user by supplying DAI, access: ANY"
      },
      "addShieldTokens(address,uint256)": {
        "notice": "Adds shield tokens to contract, access: ANY"
      },
      "buyPolicy(uint256,uint256,uint256)": {
        "notice": "Let user to buy policy by supplying DAI, access: ANY"
      },
      "buyPolicyFor(address,uint256,uint256,uint256)": {
        "notice": "Let user to buy policy for another user by supplying DAI, access: ANY"
      },
      "getContractAddress()": {
        "notice": "Returns address of contract this PolicyBook covers, access: ANY"
      },
      "getContractType()": {
        "notice": "Returns type of contract this PolicyBook covers, access: ANY"
      },
      "getQuote(uint256,uint256)": {
        "notice": "Let user to calculate policy cost in DAI, access: ANY"
      },
      "quoteStrategy()": {
        "notice": "Returns quote strategy defined during creation of PolicyBook, access: ANY"
      },
      "rewardForUnclaimedExpiredPolicy(uint256)": {
        "notice": "Let user to claim rewards for unclaimed policy cost in DAI, access: ANY"
      },
      "shieldAssets(uint256,uint256)": {
        "notice": "Returns list of shield assets added to PolicyBook, access: ANY"
      },
      "shieldAssetsCount()": {
        "notice": "Returns number of shield assets added, access: ANY"
      },
      "shieldAssetsWithBalance(uint256,uint256)": {
        "notice": "Returns list of shield assets added with tokens amount allocated to Policy Book, access: ANY"
      },
      "stats()": {
        "notice": "Getting stats, access: ANY"
      },
      "withdrawLiquidity(uint256)": {
        "notice": "Let user to withdraw deposited liqiudity, access: ANY"
      }
    },
    "version": 1
  }
}