{
  "contractName": "MockPolicyBook",
  "abi": [
    {
      "inputs": [
        {
          "internalType": "address",
          "name": "_contract",
          "type": "address"
        },
        {
          "internalType": "enum IPolicyBookFabric.ContractType",
          "name": "_contractType",
          "type": "uint8"
        },
        {
          "internalType": "contract ContractsRegistry",
          "name": "_registry",
          "type": "address"
        }
      ],
      "stateMutability": "nonpayable",
      "type": "constructor"
    },
    {
      "anonymous": false,
      "inputs": [
        {
          "indexed": false,
          "internalType": "address",
          "name": "_liquidityHolder",
          "type": "address"
        },
        {
          "indexed": false,
          "internalType": "uint256",
          "name": "_liqudityAmount",
          "type": "uint256"
        },
        {
          "indexed": false,
          "internalType": "uint256",
          "name": "_newTotalLiquidity",
          "type": "uint256"
        }
      ],
      "name": "AddLiquidity",
      "type": "event"
    },
    {
      "anonymous": false,
      "inputs": [
        {
          "indexed": true,
          "internalType": "address",
          "name": "owner",
          "type": "address"
        },
        {
          "indexed": true,
          "internalType": "address",
          "name": "spender",
          "type": "address"
        },
        {
          "indexed": false,
          "internalType": "uint256",
          "name": "value",
          "type": "uint256"
        }
      ],
      "name": "Approval",
      "type": "event"
    },
    {
      "anonymous": false,
      "inputs": [
        {
          "indexed": false,
          "internalType": "address",
          "name": "_policyHolder",
          "type": "address"
        },
        {
          "indexed": false,
          "internalType": "uint256",
          "name": "_coverTokens",
          "type": "uint256"
        },
        {
          "indexed": false,
          "internalType": "uint256",
          "name": "_price",
          "type": "uint256"
        },
        {
          "indexed": false,
          "internalType": "uint256",
          "name": "_newTotalCoverTokens",
          "type": "uint256"
        }
      ],
      "name": "BuyPolicy",
      "type": "event"
    },
    {
      "anonymous": false,
      "inputs": [
        {
          "indexed": true,
          "internalType": "address",
          "name": "from",
          "type": "address"
        },
        {
          "indexed": true,
          "internalType": "address",
          "name": "to",
          "type": "address"
        },
        {
          "indexed": false,
          "internalType": "uint256",
          "name": "value",
          "type": "uint256"
        }
      ],
      "name": "Transfer",
      "type": "event"
    },
    {
      "anonymous": false,
      "inputs": [
        {
          "indexed": false,
          "internalType": "address",
          "name": "_liquidityHolder",
          "type": "address"
        },
        {
          "indexed": false,
          "internalType": "uint256",
          "name": "_tokensToWithdraw",
          "type": "uint256"
        },
        {
          "indexed": false,
          "internalType": "uint256",
          "name": "_newTotalLiquidity",
          "type": "uint256"
        }
      ],
      "name": "WithdrawLiquidity",
      "type": "event"
    },
    {
      "inputs": [],
      "name": "MAXIMUM_COST_100_UTILIZATION_PERCENTAGE",
      "outputs": [
        {
          "internalType": "uint256",
          "name": "",
          "type": "uint256"
        }
      ],
      "stateMutability": "view",
      "type": "function"
    },
    {
      "inputs": [],
      "name": "MAXIMUM_COST_NOT_RISKY_PERCENTAGE",
      "outputs": [
        {
          "internalType": "uint256",
          "name": "",
          "type": "uint256"
        }
      ],
      "stateMutability": "view",
      "type": "function"
    },
    {
      "inputs": [],
      "name": "MINIMUM_COST_PERCENTAGE",
      "outputs": [
        {
          "internalType": "uint256",
          "name": "",
          "type": "uint256"
        }
      ],
      "stateMutability": "view",
      "type": "function"
    },
    {
      "inputs": [],
      "name": "PERCENTAGE_100",
      "outputs": [
        {
          "internalType": "uint256",
          "name": "",
          "type": "uint256"
        }
      ],
      "stateMutability": "view",
      "type": "function"
    },
    {
      "inputs": [],
      "name": "PRECISION",
      "outputs": [
        {
          "internalType": "uint256",
          "name": "",
          "type": "uint256"
        }
      ],
      "stateMutability": "view",
      "type": "function"
    },
    {
      "inputs": [],
      "name": "RISKY_ASSET_THRESHOLD_PERCENTAGE",
      "outputs": [
        {
          "internalType": "uint256",
          "name": "",
          "type": "uint256"
        }
      ],
      "stateMutability": "view",
      "type": "function"
    },
    {
      "inputs": [],
      "name": "SECONDS_IN_THE_YEAR",
      "outputs": [
        {
          "internalType": "uint256",
          "name": "",
          "type": "uint256"
        }
      ],
      "stateMutability": "view",
      "type": "function"
    },
    {
      "inputs": [
        {
          "internalType": "uint256",
          "name": "_liqudityAmount",
          "type": "uint256"
        }
      ],
      "name": "addLiquidity",
      "outputs": [],
      "stateMutability": "nonpayable",
      "type": "function"
    },
    {
      "inputs": [
        {
          "internalType": "address",
          "name": "_liquidityHolderAddr",
          "type": "address"
        },
        {
          "internalType": "uint256",
          "name": "_liqudityAmount",
          "type": "uint256"
        }
      ],
      "name": "addLiquidityFor",
      "outputs": [],
      "stateMutability": "nonpayable",
      "type": "function"
    },
    {
      "inputs": [
        {
          "internalType": "address",
          "name": "_liquidityHolderAddr",
          "type": "address"
        },
        {
          "internalType": "uint256",
          "name": "_liqudityAmount",
          "type": "uint256"
        }
      ],
      "name": "addLiquidityFromLM",
      "outputs": [],
      "stateMutability": "nonpayable",
      "type": "function"
    },
    {
      "inputs": [
        {
          "internalType": "address",
          "name": "_tokenAddress",
          "type": "address"
        },
        {
          "internalType": "uint256",
          "name": "_tokensAmount",
          "type": "uint256"
        }
      ],
      "name": "addShieldTokens",
      "outputs": [
        {
          "internalType": "bool",
          "name": "_success",
          "type": "bool"
        }
      ],
      "stateMutability": "nonpayable",
      "type": "function"
    },
    {
      "inputs": [
        {
          "internalType": "address",
          "name": "owner",
          "type": "address"
        },
        {
          "internalType": "address",
          "name": "spender",
          "type": "address"
        }
      ],
      "name": "allowance",
      "outputs": [
        {
          "internalType": "uint256",
          "name": "",
          "type": "uint256"
        }
      ],
      "stateMutability": "view",
      "type": "function"
    },
    {
      "inputs": [
        {
          "internalType": "address",
          "name": "spender",
          "type": "address"
        },
        {
          "internalType": "uint256",
          "name": "amount",
          "type": "uint256"
        }
      ],
      "name": "approve",
      "outputs": [
        {
          "internalType": "bool",
          "name": "",
          "type": "bool"
        }
      ],
      "stateMutability": "nonpayable",
      "type": "function"
    },
    {
      "inputs": [
        {
          "internalType": "address",
          "name": "account",
          "type": "address"
        }
      ],
      "name": "balanceOf",
      "outputs": [
        {
          "internalType": "uint256",
          "name": "",
          "type": "uint256"
        }
      ],
      "stateMutability": "view",
      "type": "function"
    },
    {
      "inputs": [
        {
          "internalType": "uint256",
          "name": "_durationSeconds",
          "type": "uint256"
        },
        {
          "internalType": "uint256",
          "name": "_coverTokens",
          "type": "uint256"
        },
        {
          "internalType": "uint256",
          "name": "_maxDaiTokens",
          "type": "uint256"
        }
      ],
      "name": "buyPolicy",
      "outputs": [],
      "stateMutability": "nonpayable",
      "type": "function"
    },
    {
      "inputs": [
        {
          "internalType": "address",
          "name": "_policyHolderAddr",
          "type": "address"
        },
        {
          "internalType": "uint256",
          "name": "_durationSeconds",
          "type": "uint256"
        },
        {
          "internalType": "uint256",
          "name": "_coverTokens",
          "type": "uint256"
        },
        {
          "internalType": "uint256",
          "name": "_maxDaiTokens",
          "type": "uint256"
        }
      ],
      "name": "buyPolicyFor",
      "outputs": [],
      "stateMutability": "nonpayable",
      "type": "function"
    },
    {
      "inputs": [],
      "name": "contractAddress",
      "outputs": [
        {
          "internalType": "address",
          "name": "",
          "type": "address"
        }
      ],
      "stateMutability": "view",
      "type": "function"
    },
    {
      "inputs": [],
      "name": "contractType",
      "outputs": [
        {
          "internalType": "enum IPolicyBookFabric.ContractType",
          "name": "",
          "type": "uint8"
        }
      ],
      "stateMutability": "view",
      "type": "function"
    },
    {
      "inputs": [],
      "name": "decimals",
      "outputs": [
        {
          "internalType": "uint8",
          "name": "",
          "type": "uint8"
        }
      ],
      "stateMutability": "view",
      "type": "function"
    },
    {
      "inputs": [
        {
          "internalType": "address",
          "name": "spender",
          "type": "address"
        },
        {
          "internalType": "uint256",
          "name": "subtractedValue",
          "type": "uint256"
        }
      ],
      "name": "decreaseAllowance",
      "outputs": [
        {
          "internalType": "bool",
          "name": "",
          "type": "bool"
        }
      ],
      "stateMutability": "nonpayable",
      "type": "function"
    },
    {
      "inputs": [
        {
          "internalType": "uint256",
          "name": "_durationSeconds",
          "type": "uint256"
        },
        {
          "internalType": "uint256",
          "name": "_tokens",
          "type": "uint256"
        }
      ],
      "name": "getQuote",
      "outputs": [
        {
          "internalType": "uint256",
          "name": "_daiTokens",
          "type": "uint256"
        }
      ],
      "stateMutability": "view",
      "type": "function"
    },
    {
      "inputs": [
        {
          "internalType": "address",
          "name": "spender",
          "type": "address"
        },
        {
          "internalType": "uint256",
          "name": "addedValue",
          "type": "uint256"
        }
      ],
      "name": "increaseAllowance",
      "outputs": [
        {
          "internalType": "bool",
          "name": "",
          "type": "bool"
        }
      ],
      "stateMutability": "nonpayable",
      "type": "function"
    },
    {
      "inputs": [
        {
          "internalType": "address",
          "name": "",
          "type": "address"
        }
      ],
      "name": "liquidityFromLM",
      "outputs": [
        {
          "internalType": "uint256",
          "name": "",
          "type": "uint256"
        }
      ],
      "stateMutability": "view",
      "type": "function"
    },
    {
      "inputs": [],
      "name": "name",
      "outputs": [
        {
          "internalType": "string",
          "name": "",
          "type": "string"
        }
      ],
      "stateMutability": "view",
      "type": "function"
    },
    {
      "inputs": [
        {
          "internalType": "address",
          "name": "",
          "type": "address"
        }
      ],
      "name": "policyHolders",
      "outputs": [
        {
          "internalType": "uint256",
          "name": "coverTokens",
          "type": "uint256"
        },
        {
          "internalType": "uint256",
          "name": "durationSeconds",
          "type": "uint256"
        },
        {
          "internalType": "uint256",
          "name": "maxDaiTokens",
          "type": "uint256"
        }
      ],
      "stateMutability": "view",
      "type": "function"
    },
    {
      "inputs": [],
      "name": "quoteStrategy",
      "outputs": [
        {
          "internalType": "address",
          "name": "_quoteStrategy",
          "type": "address"
        }
      ],
      "stateMutability": "view",
      "type": "function"
    },
    {
      "inputs": [
        {
          "internalType": "uint256",
          "name": "_policyId",
          "type": "uint256"
        }
      ],
      "name": "rewardForUnclaimedExpiredPolicy",
      "outputs": [],
      "stateMutability": "nonpayable",
      "type": "function"
    },
    {
      "inputs": [
        {
          "internalType": "uint256",
          "name": "_offset",
          "type": "uint256"
        },
        {
          "internalType": "uint256",
          "name": "_limit",
          "type": "uint256"
        }
      ],
      "name": "shieldAssets",
      "outputs": [
        {
          "internalType": "uint256",
          "name": "_shieldAssetsCount",
          "type": "uint256"
        },
        {
          "internalType": "address[]",
          "name": "_shieldAssets",
          "type": "address[]"
        }
      ],
      "stateMutability": "view",
      "type": "function"
    },
    {
      "inputs": [],
      "name": "shieldAssetsCount",
      "outputs": [
        {
          "internalType": "uint256",
          "name": "_shieldAssetsCount",
          "type": "uint256"
        }
      ],
      "stateMutability": "view",
      "type": "function"
    },
    {
      "inputs": [
        {
          "internalType": "uint256",
          "name": "_offset",
          "type": "uint256"
        },
        {
          "internalType": "uint256",
          "name": "_limit",
          "type": "uint256"
        }
      ],
      "name": "shieldAssetsWithBalance",
      "outputs": [
        {
          "internalType": "uint256",
          "name": "_shieldAssetsCount",
          "type": "uint256"
        },
        {
          "internalType": "address[]",
          "name": "_shieldAssets",
          "type": "address[]"
        },
        {
          "internalType": "uint256[]",
          "name": "_shieldAssetBalance",
          "type": "uint256[]"
        }
      ],
      "stateMutability": "view",
      "type": "function"
    },
    {
      "inputs": [],
      "name": "stats",
      "outputs": [
        {
          "internalType": "uint256",
          "name": "_yearlyCost",
          "type": "uint256"
        },
        {
          "internalType": "uint256",
          "name": "_maxCapacities",
          "type": "uint256"
        },
        {
          "internalType": "uint256",
          "name": "_totalDaiLiquidity",
          "type": "uint256"
        },
        {
          "internalType": "uint256",
          "name": "_annualProfitYields",
          "type": "uint256"
        }
      ],
      "stateMutability": "nonpayable",
      "type": "function"
    },
    {
      "inputs": [],
      "name": "symbol",
      "outputs": [
        {
          "internalType": "string",
          "name": "",
          "type": "string"
        }
      ],
      "stateMutability": "view",
      "type": "function"
    },
    {
      "inputs": [],
      "name": "totalCoverTokens",
      "outputs": [
        {
          "internalType": "uint256",
          "name": "",
          "type": "uint256"
        }
      ],
      "stateMutability": "view",
      "type": "function"
    },
    {
      "inputs": [],
      "name": "totalLiquidity",
      "outputs": [
        {
          "internalType": "uint256",
          "name": "",
          "type": "uint256"
        }
      ],
      "stateMutability": "view",
      "type": "function"
    },
    {
      "inputs": [],
      "name": "totalSupply",
      "outputs": [
        {
          "internalType": "uint256",
          "name": "",
          "type": "uint256"
        }
      ],
      "stateMutability": "view",
      "type": "function"
    },
    {
      "inputs": [
        {
          "internalType": "address",
          "name": "recipient",
          "type": "address"
        },
        {
          "internalType": "uint256",
          "name": "amount",
          "type": "uint256"
        }
      ],
      "name": "transfer",
      "outputs": [
        {
          "internalType": "bool",
          "name": "",
          "type": "bool"
        }
      ],
      "stateMutability": "nonpayable",
      "type": "function"
    },
    {
      "inputs": [
        {
          "internalType": "address",
          "name": "sender",
          "type": "address"
        },
        {
          "internalType": "address",
          "name": "recipient",
          "type": "address"
        },
        {
          "internalType": "uint256",
          "name": "amount",
          "type": "uint256"
        }
      ],
      "name": "transferFrom",
      "outputs": [
        {
          "internalType": "bool",
          "name": "",
          "type": "bool"
        }
      ],
      "stateMutability": "nonpayable",
      "type": "function"
    },
    {
      "inputs": [
        {
          "internalType": "uint256",
          "name": "_tokensToWithdraw",
          "type": "uint256"
        }
      ],
      "name": "withdrawLiquidity",
      "outputs": [],
      "stateMutability": "nonpayable",
      "type": "function"
    },
    {
      "stateMutability": "payable",
      "type": "receive"
    },
    {
      "inputs": [
        {
          "internalType": "uint256",
          "name": "_daiInThePoolTotal",
          "type": "uint256"
        }
      ],
      "name": "setTotalLiquidity",
      "outputs": [],
      "stateMutability": "nonpayable",
      "type": "function"
    },
    {
      "inputs": [
        {
          "internalType": "uint256",
          "name": "_daiInThePoolBought",
          "type": "uint256"
        }
      ],
      "name": "setTotalCoverTokens",
      "outputs": [],
      "stateMutability": "nonpayable",
      "type": "function"
    }
  ],
  "bytecode": "0x60806040523480156200001157600080fd5b5060405162002b6838038062002b688339810160408190526200003491620001d6565b828282604051806020016040528060008152506040518060200160405280600081525081816040516020016200006b91906200022b565b60408051601f198184030181529190528151620000909060039060208501906200012a565b508051620000a69060049060208401906200012a565b50506005805460ff1916601217905550600680546001600160a01b0387166001600160a01b03199091161780825585919060ff60a01b1916600160a01b836003811115620000f057fe5b021790555050600580546001600160a01b0390931661010002610100600160a81b0319909316929092179091555062000295945050505050565b828054600181600116156101000203166002900490600052602060002090601f016020900481019282620001625760008555620001ad565b82601f106200017d57805160ff1916838001178555620001ad565b82800160010185558215620001ad579182015b82811115620001ad57825182559160200191906001019062000190565b50620001bb929150620001bf565b5090565b5b80821115620001bb5760008155600101620001c0565b600080600060608486031215620001eb578283fd5b8351620001f8816200027c565b6020850151909350600481106200020d578283fd5b604085015190925062000220816200027c565b809150509250925092565b600065626d6944414960d01b82528251815b818110156200025c57602081860181015160068684010152016200023d565b818111156200026e5782600683860101525b509190910160060192915050565b6001600160a01b03811681146200029257600080fd5b50565b6128c380620002a56000396000f3fe6080604052600436106102bf5760003560e01c80637cd0fc9b1161016e578063cbf5a55e116100cb578063efa1f98a1161007f578063f60ff93711610064578063f60ff93714610750578063f6b4dfb414610765578063fc3dfc991461077a576102c6565b8063efa1f98a14610710578063f4020b5b14610730576102c6565b8063d80528ae116100b0578063d80528ae146106b6578063dd62ed3e146106db578063e98a04e1146106fb576102c6565b8063cbf5a55e1461068c578063cfa8b3a8146106a1576102c6565b8063aaf5eb6811610122578063c18c605711610107578063c18c60571461062a578063c91348c31461064a578063cb2ef6f71461066a576102c6565b8063aaf5eb6814610600578063bc5d198a14610615576102c6565b80639c590006116101535780639c590006146105ab578063a457c2d7146105c0578063a9059cbb146105e0576102c6565b80637cd0fc9b1461057457806395d89b4114610596576102c6565b8063313ce5671161021c57806366cec305116101d057806370b68a2a116101b557806370b68a2a146104f7578063758af3ab1461052657806379fac08c14610546576102c6565b806366cec305146104b757806370a08231146104d7576102c6565b8063514ea9bd11610201578063514ea9bd1461046257806351c6590a14610477578063561e795d14610497576102c6565b8063313ce567146104205780633950935114610442576102c6565b806315770f9211610273578063188ff85411610258578063188ff854146103cb57806323b872dd146103eb5780632c865d6c1461040b576102c6565b806315770f921461039457806318160ddd146103b6576102c6565b806309b7d94b116102a457806309b7d94b146103235780630a861f2a146103455780630e82da5314610365576102c6565b806306fdde03146102cb578063095ea7b3146102f6576102c6565b366102c657005b600080fd5b3480156102d757600080fd5b506102e061079a565b6040516102ed91906123f5565b60405180910390f35b34801561030257600080fd5b5061031661031136600461211f565b61084e565b6040516102ed91906123d6565b34801561032f57600080fd5b5061034361033e366004612231565b61086c565b005b34801561035157600080fd5b50610343610360366004612231565b610871565b34801561037157600080fd5b50610385610380366004612261565b610cc0565b6040516102ed93929190612641565b3480156103a057600080fd5b506103a9610ccc565b6040516102ed9190612617565b3480156103c257600080fd5b506103a9610cd2565b3480156103d757600080fd5b506103166103e636600461211f565b610cd8565b3480156103f757600080fd5b506103166104063660046120df565b610ce0565b34801561041757600080fd5b506103a9610d81565b34801561042c57600080fd5b50610435610d86565b6040516102ed91906126cc565b34801561044e57600080fd5b5061031661045d36600461211f565b610d8f565b34801561046e57600080fd5b506103a9610dea565b34801561048357600080fd5b50610343610492366004612231565b610df3565b3480156104a357600080fd5b506103436104b2366004612231565b610e02565b3480156104c357600080fd5b506103a96104d236600461206f565b610e07565b3480156104e357600080fd5b506103a96104f236600461206f565b610e19565b34801561050357600080fd5b5061051761051236600461206f565b610e41565b6040516102ed9392919061269b565b34801561053257600080fd5b506103a9610541366004612261565b610e62565b34801561055257600080fd5b50610566610561366004612261565b610e75565b6040516102ed929190612620565b34801561058057600080fd5b50610589610d81565b6040516102ed91906122fd565b3480156105a257600080fd5b506102e0610e7f565b3480156105b757600080fd5b506103a9610efe565b3480156105cc57600080fd5b506103166105db36600461211f565b610f07565b3480156105ec57600080fd5b506103166105fb36600461211f565b610f7c565b34801561060c57600080fd5b506103a9610f90565b34801561062157600080fd5b506103a9610f99565b34801561063657600080fd5b50610343610645366004612231565b610dff565b34801561065657600080fd5b5061034361066536600461211f565b610fa1565b34801561067657600080fd5b5061067f610fb1565b6040516102ed91906123e1565b34801561069857600080fd5b506103a9610fd2565b3480156106ad57600080fd5b506103a9610fdb565b3480156106c257600080fd5b506106cb610fe5565b6040516102ed94939291906126b1565b3480156106e757600080fd5b506103a96106f63660046120a7565b610fef565b34801561070757600080fd5b506103a9611027565b34801561071c57600080fd5b5061034361072b36600461211f565b611030565b34801561073c57600080fd5b5061034361074b366004612282565b61103c565b34801561075c57600080fd5b506103a961104d565b34801561077157600080fd5b50610589611053565b34801561078657600080fd5b5061034361079536600461214a565b61106f565b60038054604080516020601f60027fffffffffffffffffffffffffffffffffffffffffffffffffffffffffffffffff6101006001881615020190951694909404938401819004810282018101909252828152606093909290918301828280156108445780601f1061081957610100808354040283529160200191610844565b820191906000526020600020905b81548152906001019060200180831161082757829003601f168201915b5050505050905090565b600061086261085b611081565b8484611085565b5060015b92915050565b600855565b600554604080517ff427c05e0000000000000000000000000000000000000000000000000000000081529051600092610100900473ffffffffffffffffffffffffffffffffffffffff1691633581777391839163f427c05e9160048083019288929190829003018186803b1580156108e857600080fd5b505afa1580156108fc573d6000803e3d6000fd5b505050506040513d6000823e601f3d908101601f1916820160405261092491908101906121a4565b6040518263ffffffff1660e01b815260040161094091906123f5565b60206040518083038186803b15801561095857600080fd5b505afa15801561096c573d6000803e3d6000fd5b505050506040513d601f19601f82011682018060405250810190610990919061208b565b9050600061099d33610e19565b90508173ffffffffffffffffffffffffffffffffffffffff16630cbd7e846040518163ffffffff1660e01b815260040160206040518083038186803b1580156109e557600080fd5b505afa1580156109f9573d6000803e3d6000fd5b505050506040513d601f19601f82011682018060405250810190610a1d9190612249565b421015610a4257336000908152600b6020526040902054610a3f908290611198565b90505b82811015610a6b5760405162461bcd60e51b8152600401610a62906125ba565b60405180910390fd5b600954600854610a7b9085611198565b1015610a995760405162461bcd60e51b8152600401610a6290612500565b600554604080517fa45611b60000000000000000000000000000000000000000000000000000000081529051600092610100900473ffffffffffffffffffffffffffffffffffffffff1691633581777391839163a45611b69160048083019288929190829003018186803b158015610b1057600080fd5b505afa158015610b24573d6000803e3d6000fd5b505050506040513d6000823e601f3d908101601f19168201604052610b4c91908101906121a4565b6040518263ffffffff1660e01b8152600401610b6891906123f5565b60206040518083038186803b158015610b8057600080fd5b505afa158015610b94573d6000803e3d6000fd5b505050506040513d601f19601f82011682018060405250810190610bb8919061208b565b73ffffffffffffffffffffffffffffffffffffffff1663a9059cbb33866040518363ffffffff1660e01b8152600401610bf292919061231e565b602060405180830381600087803b158015610c0c57600080fd5b505af1158015610c20573d6000803e3d6000fd5b505050506040513d601f19601f82011682018060405250810190610c449190612184565b905080610c635760405162461bcd60e51b8152600401610a6290612494565b600854610c709085611198565b600855610c7d33856111da565b7fac927268ea9ae2e55027e6ab727fc2db8e3ea48c56c658223a1074567e4298c03385600854604051610cb293929190612344565b60405180910390a150505050565b60006060809250925092565b60085481565b60025490565b600092915050565b6000610ced84848461130a565b610d7784610cf9611081565b610d72856040518060600160405280602881526020016127d76028913973ffffffffffffffffffffffffffffffffffffffff8a16600090815260016020526040812090610d44611081565b73ffffffffffffffffffffffffffffffffffffffff16815260208101919091526040016000205491906114a6565b611085565b5060019392505050565b600090565b60055460ff1690565b6000610862610d9c611081565b84610d728560016000610dad611081565b73ffffffffffffffffffffffffffffffffffffffff908116825260208083019390935260409182016000908120918c16815292529020549061153d565b6445d964b80081565b610dff33826000611597565b50565b600955565b600b6020526000908152604090205481565b73ffffffffffffffffffffffffffffffffffffffff1660009081526020819052604090205490565b600a6020526000908152604090208054600182015460029092015490919083565b6000610e6e8383611978565b9392505050565b5060009160609150565b60048054604080516020601f60027fffffffffffffffffffffffffffffffffffffffffffffffffffffffffffffffff6101006001881615020190951694909404938401819004810282018101909252828152606093909290918301828280156108445780601f1061081957610100808354040283529160200191610844565b640ba43b740081565b6000610862610f14611081565b84610d72856040518060600160405280602581526020016128696025913960016000610f3e611081565b73ffffffffffffffffffffffffffffffffffffffff908116825260208083019390935260409182016000908120918d168152925290205491906114a6565b6000610862610f89611081565b848461130a565b6402540be40081565b6301e1338081565b610fad82826001611597565b5050565b60065474010000000000000000000000000000000000000000900460ff1681565b64e8d4a5100081565b65015d3ef7980081565b6000808080919293565b73ffffffffffffffffffffffffffffffffffffffff918216600090815260016020908152604080832093909416825291909152205490565b64a2fb40580081565b610fad82826000611597565b61104833848484611a78565b505050565b60095481565b60065473ffffffffffffffffffffffffffffffffffffffff1681565b61107b84848484611a78565b50505050565b3390565b73ffffffffffffffffffffffffffffffffffffffff83166110d75760405162461bcd60e51b81526004018080602001828103825260248152602001806128456024913960400191505060405180910390fd5b73ffffffffffffffffffffffffffffffffffffffff82166111295760405162461bcd60e51b815260040180806020018281038252602281526020018061276e6022913960400191505060405180910390fd5b73ffffffffffffffffffffffffffffffffffffffff808416600081815260016020908152604080832094871680845294825291829020859055815185815291517f8c5be1e5ebec7d5bd14f71427d1e84f3dd0314c0f7b2291e5b200ac8c7c3b9259281900390910190a3505050565b6000610e6e83836040518060400160405280601e81526020017f536166654d6174683a207375627472616374696f6e206f766572666c6f7700008152506114a6565b73ffffffffffffffffffffffffffffffffffffffff821661122c5760405162461bcd60e51b81526004018080602001828103825260218152602001806127ff6021913960400191505060405180910390fd5b61123882600083611048565b6112828160405180606001604052806022815260200161274c6022913973ffffffffffffffffffffffffffffffffffffffff851660009081526020819052604090205491906114a6565b73ffffffffffffffffffffffffffffffffffffffff83166000908152602081905260409020556002546112b59082611198565b60025560408051828152905160009173ffffffffffffffffffffffffffffffffffffffff8516917fddf252ad1be2c89b69c2b068fc378daa952ba7f163c4a11628f55a4df523b3ef9181900360200190a35050565b73ffffffffffffffffffffffffffffffffffffffff831661135c5760405162461bcd60e51b81526004018080602001828103825260258152602001806128206025913960400191505060405180910390fd5b73ffffffffffffffffffffffffffffffffffffffff82166113ae5760405162461bcd60e51b81526004018080602001828103825260238152602001806127296023913960400191505060405180910390fd5b6113b9838383611048565b611403816040518060600160405280602681526020016127906026913973ffffffffffffffffffffffffffffffffffffffff861660009081526020819052604090205491906114a6565b73ffffffffffffffffffffffffffffffffffffffff808516600090815260208190526040808220939093559084168152205461143f908261153d565b73ffffffffffffffffffffffffffffffffffffffff8084166000818152602081815260409182902094909455805185815290519193928716927fddf252ad1be2c89b69c2b068fc378daa952ba7f163c4a11628f55a4df523b3ef92918290030190a3505050565b600081848411156115355760405162461bcd60e51b81526004018080602001828103825283818151815260200191508051906020019080838360005b838110156114fa5781810151838201526020016114e2565b50505050905090810190601f1680156115275780820380516001836020036101000a031916815260200191505b509250505060405180910390fd5b505050900390565b600082820183811015610e6e576040805162461bcd60e51b815260206004820152601b60248201527f536166654d6174683a206164646974696f6e206f766572666c6f770000000000604482015290519081900360640190fd5b600554604080517ff427c05e000000000000000000000000000000000000000000000000000000008152905161010090920473ffffffffffffffffffffffffffffffffffffffff1691633581777391839163f427c05e91600480820192600092909190829003018186803b15801561160e57600080fd5b505afa158015611622573d6000803e3d6000fd5b505050506040513d6000823e601f3d908101601f1916820160405261164a91908101906121a4565b6040518263ffffffff1660e01b815260040161166691906123f5565b60206040518083038186803b15801561167e57600080fd5b505afa158015611692573d6000803e3d6000fd5b505050506040513d601f19601f820116820180604052508101906116b6919061208b565b73ffffffffffffffffffffffffffffffffffffffff163373ffffffffffffffffffffffffffffffffffffffff16146117005760405162461bcd60e51b8152600401610a6290612537565b600554604080517fa45611b60000000000000000000000000000000000000000000000000000000081529051600092610100900473ffffffffffffffffffffffffffffffffffffffff1691633581777391839163a45611b69160048083019288929190829003018186803b15801561177757600080fd5b505afa15801561178b573d6000803e3d6000fd5b505050506040513d6000823e601f3d908101601f191682016040526117b391908101906121a4565b6040518263ffffffff1660e01b81526004016117cf91906123f5565b60206040518083038186803b1580156117e757600080fd5b505afa1580156117fb573d6000803e3d6000fd5b505050506040513d601f19601f8201168201806040525081019061181f919061208b565b73ffffffffffffffffffffffffffffffffffffffff166323b872dd8530866040518463ffffffff1660e01b815260040161185b93929190612372565b602060405180830381600087803b15801561187557600080fd5b505af1158015611889573d6000803e3d6000fd5b505050506040513d601f19601f820116820180604052508101906118ad9190612184565b9050806118cc5760405162461bcd60e51b8152600401610a6290612494565b6008546118d9908461153d565b6008556118e68484611d95565b81156119435773ffffffffffffffffffffffffffffffffffffffff84166000908152600b602052604090205461191c908461153d565b73ffffffffffffffffffffffffffffffffffffffff85166000908152600b60205260409020555b7f06239653922ac7bea6aa2b19dc486b9361821d37712eb796adfd38d81de278ca8484600854604051610cb293929190612344565b60006008546119928360095461153d90919063ffffffff16565b11156119b05760405162461bcd60e51b8152600401610a629061245f565b6000600854116119d25760405162461bcd60e51b8152600401610a6290612428565b6000611a07600854611a016402540be4006064026119fb8760095461153d90919063ffffffff16565b90611eac565b90611f05565b9050600064a2fb405800821015611a2857611a2182611f47565b9050611a34565b611a3182611f61565b90505b611a4381640ba43b7400611fd2565b90506000611a596301e13380611a018885611eac565b9050611a6e64e8d4a51000611a018784611eac565b9695505050505050565b611a8061204e565b5073ffffffffffffffffffffffffffffffffffffffff84166000908152600a602090815260409182902082516060810184528154815260018201549281018390526002909101549281019290925215611aeb5760405162461bcd60e51b8152600401610a62906124cb565b600954611af8908461153d565b6008541015611b195760405162461bcd60e51b8152600401610a6290612500565b6000611b258585611978565b8483526020808401878152604080860187815273ffffffffffffffffffffffffffffffffffffffff8b166000908152600a909452922085518155905160018201559051600290910155600954909150611b7e908561153d565b600955600554604080517fa45611b60000000000000000000000000000000000000000000000000000000081529051600092610100900473ffffffffffffffffffffffffffffffffffffffff1691633581777391839163a45611b69160048083019288929190829003018186803b158015611bf857600080fd5b505afa158015611c0c573d6000803e3d6000fd5b505050506040513d6000823e601f3d908101601f19168201604052611c3491908101906121a4565b6040518263ffffffff1660e01b8152600401611c5091906123f5565b60206040518083038186803b158015611c6857600080fd5b505afa158015611c7c573d6000803e3d6000fd5b505050506040513d601f19601f82011682018060405250810190611ca0919061208b565b73ffffffffffffffffffffffffffffffffffffffff166323b872dd8830856040518463ffffffff1660e01b8152600401611cdc93929190612372565b602060405180830381600087803b158015611cf657600080fd5b505af1158015611d0a573d6000803e3d6000fd5b505050506040513d601f19601f82011682018060405250810190611d2e9190612184565b905080611d4d5760405162461bcd60e51b8152600401610a6290612494565b7f1cd728a6e764ed0dcddb6e5b88d736a4a8d2a0d420ca373588f7a1109e18663f878684600954604051611d8494939291906123a3565b60405180910390a150505050505050565b73ffffffffffffffffffffffffffffffffffffffff8216611dfd576040805162461bcd60e51b815260206004820152601f60248201527f45524332303a206d696e7420746f20746865207a65726f206164647265737300604482015290519081900360640190fd5b611e0960008383611048565b600254611e16908261153d565b60025573ffffffffffffffffffffffffffffffffffffffff8216600090815260208190526040902054611e49908261153d565b73ffffffffffffffffffffffffffffffffffffffff83166000818152602081815260408083209490945583518581529351929391927fddf252ad1be2c89b69c2b068fc378daa952ba7f163c4a11628f55a4df523b3ef9281900390910190a35050565b600082611ebb57506000610866565b82820282848281611ec857fe5b0414610e6e5760405162461bcd60e51b81526004018080602001828103825260218152602001806127b66021913960400191505060405180910390fd5b6000610e6e83836040518060400160405280601a81526020017f536166654d6174683a206469766973696f6e206279207a65726f000000000000815250611fe9565b600061086664a2fb405800611a01846445d964b800611eac565b600080611f99611f7b64e8d4a5100064a2fb405800611198565b611a01611f8d8664a2fb405800611198565b6402540be40090611eac565b9050610e6e611fc66402540be400611a01611fbf65015d3ef798006445d964b800611198565b8590611eac565b6445d964b8009061153d565b600081831015611fe25781610e6e565b5090919050565b600081836120385760405162461bcd60e51b81526020600482018181528351602484015283519092839260449091019190850190808383600083156114fa5781810151838201526020016114e2565b50600083858161204457fe5b0495945050505050565b60405180606001604052806000815260200160008152602001600081525090565b600060208284031215612080578081fd5b8135610e6e81612706565b60006020828403121561209c578081fd5b8151610e6e81612706565b600080604083850312156120b9578081fd5b82356120c481612706565b915060208301356120d481612706565b809150509250929050565b6000806000606084860312156120f3578081fd5b83356120fe81612706565b9250602084013561210e81612706565b929592945050506040919091013590565b60008060408385031215612131578182fd5b823561213c81612706565b946020939093013593505050565b6000806000806080858703121561215f578081fd5b843561216a81612706565b966020860135965060408601359560600135945092505050565b600060208284031215612195578081fd5b81518015158114610e6e578182fd5b6000602082840312156121b5578081fd5b815167ffffffffffffffff808211156121cc578283fd5b818401915084601f8301126121df578283fd5b8151818111156121eb57fe5b6040516020601f19601f840116820101818110848211171561220957fe5b604052818152838201602001871015612220578485fd5b611a6e8260208301602087016126da565b600060208284031215612242578081fd5b5035919050565b60006020828403121561225a578081fd5b5051919050565b60008060408385031215612273578182fd5b50508035926020909101359150565b600080600060608486031215612296578283fd5b505081359360208301359350604090920135919050565b6000815180845260208085019450808401835b838110156122f257815173ffffffffffffffffffffffffffffffffffffffff16875295820195908201906001016122c0565b509495945050505050565b73ffffffffffffffffffffffffffffffffffffffff91909116815260200190565b73ffffffffffffffffffffffffffffffffffffffff929092168252602082015260400190565b73ffffffffffffffffffffffffffffffffffffffff9390931683526020830191909152604082015260600190565b73ffffffffffffffffffffffffffffffffffffffff9384168152919092166020820152604081019190915260600190565b73ffffffffffffffffffffffffffffffffffffffff94909416845260208401929092526040830152606082015260800190565b901515815260200190565b60208101600483106123ef57fe5b91905290565b60006020825282518060208401526124148160408501602087016126da565b601f01601f19169190910160400192915050565b60208082526011908201527f54686520706f6f6c20697320656d707479000000000000000000000000000000604082015260600190565b6020808252818101527f526571756972696e67206d6f7265207468616e20746865726520657869737473604082015260600190565b60208082526019908201527f4661696c656420746f207472616e7366657220746f6b656e7300000000000000604082015260600190565b6020808252818101527f54686520706f6c69637920686f6c64657220616c726561647920657869737473604082015260600190565b6020808252601e908201527f4e6f7420656e6f75676820617661696c61626c65206c69717569646974790000604082015260600190565b60208082526043908201527f5468652063616c6c657220646f6573206e6f742068617665206163636573732c60408201527f206f6e6c79206c6971756964697479206d696e696e672068617665206163636560608201527f73732e0000000000000000000000000000000000000000000000000000000000608082015260a00190565b6020808252603f908201527f54686520616d6f756e7420746f2062652077697468647261776e20697320677260408201527f6561746572207468616e2074686520617661696c61626c6520616d6f756e7400606082015260800190565b90815260200190565b60008382526040602083015261263960408301846122ad565b949350505050565b6000848252602060608184015261265b60608401866122ad565b8381036040850152845180825282860191830190845b8181101561268d57835183529284019291840191600101612671565b509098975050505050505050565b9283526020830191909152604082015260600190565b93845260208401929092526040830152606082015260800190565b60ff91909116815260200190565b60005b838110156126f55781810151838201526020016126dd565b8381111561107b5750506000910152565b73ffffffffffffffffffffffffffffffffffffffff81168114610dff57600080fdfe45524332303a207472616e7366657220746f20746865207a65726f206164647265737345524332303a206275726e20616d6f756e7420657863656564732062616c616e636545524332303a20617070726f766520746f20746865207a65726f206164647265737345524332303a207472616e7366657220616d6f756e7420657863656564732062616c616e6365536166654d6174683a206d756c7469706c69636174696f6e206f766572666c6f7745524332303a207472616e7366657220616d6f756e74206578636565647320616c6c6f77616e636545524332303a206275726e2066726f6d20746865207a65726f206164647265737345524332303a207472616e736665722066726f6d20746865207a65726f206164647265737345524332303a20617070726f76652066726f6d20746865207a65726f206164647265737345524332303a2064656372656173656420616c6c6f77616e63652062656c6f77207a65726fa264697066735822122093b9aed6bba1ae93780ab32849b28da6f0f364162c5b006e225edd7da11ebedf64736f6c63430007040033",
  "immutableReferences": {},
  "source": "// SPDX-License-Identifier: MIT\npragma solidity ^0.7.4;\npragma experimental ABIEncoderV2;\n\nimport \"../PolicyBook.sol\";\nimport \"../ContractRegistry.sol\";\n\ncontract MockPolicyBook is PolicyBook {\n  constructor(address _contract, IPolicyBookFabric.ContractType _contractType, ContractsRegistry _registry)\n    PolicyBook(_contract, _contractType, _registry, \"\", \"\") {}\n\n  function setTotalLiquidity(uint256 _daiInThePoolTotal) public {\n    totalLiquidity = _daiInThePoolTotal;\n  }\n\n  function setTotalCoverTokens(uint256 _daiInThePoolBought) public {\n    totalCoverTokens = _daiInThePoolBought;\n  }\n}\n",
  "sourcePath": "/home/oleg/go/src/github.com/Bridge-Mutual/bridgemutual-core/contracts/Mock/MockPolicyBook.sol",
  "compiler": {
    "name": "solc",
    "version": "0.7.4+commit.3f05b770.Emscripten.clang"
  },
  "schemaVersion": "3.3.3",
  "updatedAt": "2021-01-27T09:58:45.899Z",
  "devdoc": {
    "kind": "dev",
    "methods": {
      "addLiquidity(uint256)": {
        "params": {
          "_liqudityAmount": "is amount of DAI tokens to secure"
        }
      },
      "addLiquidityFor(address,uint256)": {
        "params": {
          "_liqudityAmount": "is amount of DAI tokens to secure",
          "_liquidityHolderAddr": "is address of address to assign cover"
        }
      },
      "addLiquidityFromLM(address,uint256)": {
        "params": {
          "_liqudityAmount": "is amount of DAI tokens to secure",
          "_liquidityHolderAddr": "is address of address to assign cover"
        }
      },
      "addShieldTokens(address,uint256)": {
        "params": {
          "_tokenAddress": "is address of reward token to add",
          "_tokensAmount": "is max amount of reward to operate on"
        },
        "returns": {
          "_success": "is indicator if purchase is successful, it will throw exception if unsuccessful"
        }
      },
      "allowance(address,address)": {
        "details": "See {IERC20-allowance}."
      },
      "approve(address,uint256)": {
        "details": "See {IERC20-approve}. Requirements: - `spender` cannot be the zero address."
      },
      "balanceOf(address)": {
        "details": "See {IERC20-balanceOf}."
      },
      "buyPolicy(uint256,uint256,uint256)": {
        "params": {
          "_coverTokens": "is number of tokens to cover",
          "_durationSeconds": "is number of seconds to cover",
          "_maxDaiTokens": "is number of DAI to spend"
        }
      },
      "buyPolicyFor(address,uint256,uint256,uint256)": {
        "params": {
          "_coverTokens": "is number of tokens to cover",
          "_durationSeconds": "is number of seconds to cover",
          "_maxDaiTokens": "is number of DAI to spend",
          "_policyHolderAddr": "is address of address to assign cover"
        }
      },
      "decimals()": {
        "details": "Returns the number of decimals used to get its user representation. For example, if `decimals` equals `2`, a balance of `505` tokens should be displayed to a user as `5,05` (`505 / 10 ** 2`). Tokens usually opt for a value of 18, imitating the relationship between Ether and Wei. This is the value {ERC20} uses, unless {_setupDecimals} is called. NOTE: This information is only used for _display_ purposes: it in no way affects any of the arithmetic of the contract, including {IERC20-balanceOf} and {IERC20-transfer}."
      },
      "decreaseAllowance(address,uint256)": {
        "details": "Atomically decreases the allowance granted to `spender` by the caller. This is an alternative to {approve} that can be used as a mitigation for problems described in {IERC20-approve}. Emits an {Approval} event indicating the updated allowance. Requirements: - `spender` cannot be the zero address. - `spender` must have allowance for the caller of at least `subtractedValue`."
      },
      "getQuote(uint256,uint256)": {
        "params": {
          "_durationSeconds": "is number of seconds to cover",
          "_tokens": "is number of tokens to cover"
        },
        "returns": {
          "_daiTokens": "is amount of DAI policy costs"
        }
      },
      "increaseAllowance(address,uint256)": {
        "details": "Atomically increases the allowance granted to `spender` by the caller. This is an alternative to {approve} that can be used as a mitigation for problems described in {IERC20-approve}. Emits an {Approval} event indicating the updated allowance. Requirements: - `spender` cannot be the zero address."
      },
      "name()": {
        "details": "Returns the name of the token."
      },
      "quoteStrategy()": {
        "returns": {
          "_quoteStrategy": "is address of Quote strategy contract used to calculate quote"
        }
      },
      "rewardForUnclaimedExpiredPolicy(uint256)": {
        "params": {
          "_policyId": "is id of policy to get reward for, reward will be sent to policy holder"
        }
      },
      "shieldAssets(uint256,uint256)": {
        "params": {
          "_limit": "is number of policy books to returns from _offset",
          "_offset": "is starting item in array to return array from"
        },
        "returns": {
          "_shieldAssets": "is addresses of shield assets, that will be distributed to Policy givers",
          "_shieldAssetsCount": "is number of added shield assets"
        }
      },
      "shieldAssetsCount()": {
        "returns": {
          "_shieldAssetsCount": "is number of added shield assets"
        }
      },
      "shieldAssetsWithBalance(uint256,uint256)": {
        "params": {
          "_limit": "is number of policy books to returns from _offset",
          "_offset": "is starting item in array to return array from"
        },
        "returns": {
          "_shieldAssetBalance": "is tokens amount of shield assets allocated to Policy Book,  to get specific shield asset balance lookup _shieldAssetBalances by same index as of shield asset",
          "_shieldAssets": "is addresses of shield assets, that will be distributed to Policy givers",
          "_shieldAssetsCount": "is number of added shield assets"
        }
      },
      "stats()": {
        "returns": {
          "_annualProfitYields": "is current annual profit yield",
          "_maxCapacities": "is max DAI amount to be covered at now",
          "_totalDaiLiquidity": "is DAI amount placed by Policy providers",
          "_yearlyCost": "_yearlyCost"
        }
      },
      "symbol()": {
        "details": "Returns the symbol of the token, usually a shorter version of the name."
      },
      "totalSupply()": {
        "details": "See {IERC20-totalSupply}."
      },
      "transfer(address,uint256)": {
        "details": "See {IERC20-transfer}. Requirements: - `recipient` cannot be the zero address. - the caller must have a balance of at least `amount`."
      },
      "transferFrom(address,address,uint256)": {
        "details": "See {IERC20-transferFrom}. Emits an {Approval} event indicating the updated allowance. This is not required by the EIP. See the note at the beginning of {ERC20}. Requirements: - `sender` and `recipient` cannot be the zero address. - `sender` must have a balance of at least `amount`. - the caller must have allowance for ``sender``'s tokens of at least `amount`."
      },
      "withdrawLiquidity(uint256)": {
        "params": {
          "_tokensToWithdraw": "is amount of DAI tokens to withdraw"
        }
      }
    },
    "version": 1
  },
  "userdoc": {
    "kind": "user",
    "methods": {
      "addLiquidity(uint256)": {
        "notice": "Let user to add liquidity by supplying DAI, access: ANY"
      },
      "addLiquidityFor(address,uint256)": {
        "notice": "Let user to add liqiudity for another user by supplying DAI, access: ANY"
      },
      "addLiquidityFromLM(address,uint256)": {
        "notice": "Let liquidityMining contract to add liqiudity for another user by supplying DAI, access: ONLY LM"
      },
      "addShieldTokens(address,uint256)": {
        "notice": "Adds shield tokens to contract, access: ANY"
      },
      "buyPolicy(uint256,uint256,uint256)": {
        "notice": "Let user to buy policy by supplying DAI, access: ANY"
      },
      "buyPolicyFor(address,uint256,uint256,uint256)": {
        "notice": "Let user to buy policy for another user by supplying DAI, access: ANY"
      },
      "contractAddress()": {
        "notice": "Returns address of contract this PolicyBook covers, access: ANY"
      },
      "contractType()": {
        "notice": "Returns type of contract this PolicyBook covers, access: ANY"
      },
      "getQuote(uint256,uint256)": {
        "notice": "Let user to calculate policy cost in DAI, access: ANY"
      },
      "quoteStrategy()": {
        "notice": "Returns quote strategy defined during creation of PolicyBook, access: ANY"
      },
      "rewardForUnclaimedExpiredPolicy(uint256)": {
        "notice": "Let user to claim rewards for unclaimed policy cost in DAI, access: ANY"
      },
      "shieldAssets(uint256,uint256)": {
        "notice": "Returns list of shield assets added to PolicyBook, access: ANY"
      },
      "shieldAssetsCount()": {
        "notice": "Returns number of shield assets added, access: ANY"
      },
      "shieldAssetsWithBalance(uint256,uint256)": {
        "notice": "Returns list of shield assets added with tokens amount allocated to Policy Book, access: ANY"
      },
      "stats()": {
        "notice": "Getting stats, access: ANY"
      },
      "withdrawLiquidity(uint256)": {
        "notice": "Let user to withdraw deposited liqiudity, access: ANY"
      }
    },
    "version": 1
  }
}