{
  "contractName": "PolicyBookRegistry",
  "abi": [
    {
      "anonymous": false,
      "inputs": [
        {
          "indexed": false,
          "internalType": "address",
          "name": "insured",
          "type": "address"
        },
        {
          "indexed": false,
          "internalType": "address",
          "name": "at",
          "type": "address"
        }
      ],
      "name": "Added",
      "type": "event"
    },
    {
      "anonymous": false,
      "inputs": [
        {
          "indexed": true,
          "internalType": "address",
          "name": "previousOwner",
          "type": "address"
        },
        {
          "indexed": true,
          "internalType": "address",
          "name": "newOwner",
          "type": "address"
        }
      ],
      "name": "OwnershipTransferred",
      "type": "event"
    },
    {
      "inputs": [],
      "name": "owner",
      "outputs": [
        {
          "internalType": "address",
          "name": "",
          "type": "address"
        }
      ],
      "stateMutability": "view",
      "type": "function",
      "constant": true
    },
    {
      "inputs": [
        {
          "internalType": "uint256",
          "name": "",
          "type": "uint256"
        }
      ],
      "name": "policies",
      "outputs": [
        {
          "internalType": "address",
          "name": "",
          "type": "address"
        }
      ],
      "stateMutability": "view",
      "type": "function",
      "constant": true
    },
    {
      "inputs": [
        {
          "internalType": "address",
          "name": "",
          "type": "address"
        }
      ],
      "name": "policiesByAddress",
      "outputs": [
        {
          "internalType": "address",
          "name": "",
          "type": "address"
        }
      ],
      "stateMutability": "view",
      "type": "function",
      "constant": true
    },
    {
      "inputs": [],
      "name": "policyFabricAddress",
      "outputs": [
        {
          "internalType": "address",
          "name": "",
          "type": "address"
        }
      ],
      "stateMutability": "view",
      "type": "function",
      "constant": true
    },
    {
      "inputs": [],
      "name": "renounceOwnership",
      "outputs": [],
      "stateMutability": "nonpayable",
      "type": "function"
    },
    {
      "inputs": [
        {
          "internalType": "address",
          "name": "newOwner",
          "type": "address"
        }
      ],
      "name": "transferOwnership",
      "outputs": [],
      "stateMutability": "nonpayable",
      "type": "function"
    },
    {
      "inputs": [
        {
          "internalType": "address",
          "name": "_policyFabricAddress",
          "type": "address"
        }
      ],
      "name": "setPolicyFabricAddress",
      "outputs": [],
      "stateMutability": "nonpayable",
      "type": "function"
    },
    {
      "inputs": [
        {
          "internalType": "address",
          "name": "_insuredContract",
          "type": "address"
        },
        {
          "internalType": "address",
          "name": "_policyBook",
          "type": "address"
        }
      ],
      "name": "add",
      "outputs": [],
      "stateMutability": "nonpayable",
      "type": "function"
    },
    {
      "inputs": [],
      "name": "count",
      "outputs": [
        {
          "internalType": "uint256",
          "name": "_policyBooksCount",
          "type": "uint256"
        }
      ],
      "stateMutability": "view",
      "type": "function",
      "constant": true
    },
    {
      "inputs": [
        {
          "internalType": "uint256",
          "name": "_offset",
          "type": "uint256"
        },
        {
          "internalType": "uint256",
          "name": "_limit",
          "type": "uint256"
        }
      ],
      "name": "list",
      "outputs": [
        {
          "internalType": "uint256",
          "name": "_policyBooksCount",
          "type": "uint256"
        },
        {
          "internalType": "address[]",
          "name": "_policyBooks",
          "type": "address[]"
        }
      ],
      "stateMutability": "view",
      "type": "function",
      "constant": true
    },
    {
      "inputs": [
        {
          "internalType": "address",
          "name": "_contract",
          "type": "address"
        }
      ],
      "name": "policyBookFor",
      "outputs": [
        {
          "internalType": "address",
          "name": "_policyBook",
          "type": "address"
        }
      ],
      "stateMutability": "view",
      "type": "function",
      "constant": true
    },
    {
      "inputs": [
        {
          "internalType": "address[]",
          "name": "_policyBooks",
          "type": "address[]"
        }
      ],
      "name": "stats",
      "outputs": [
        {
          "internalType": "uint256[]",
          "name": "_yearlyCost",
          "type": "uint256[]"
        },
        {
          "internalType": "uint256[]",
          "name": "_maxCapacities",
          "type": "uint256[]"
        },
        {
          "internalType": "uint256[]",
          "name": "_totalDaiLiquidity",
          "type": "uint256[]"
        },
        {
          "internalType": "uint256[]",
          "name": "_annualProfitYields",
          "type": "uint256[]"
        }
      ],
      "stateMutability": "nonpayable",
      "type": "function"
    },
    {
      "inputs": [
        {
          "internalType": "address[]",
          "name": "_insuredContracts",
          "type": "address[]"
        }
      ],
      "name": "statsByInsuredContracts",
      "outputs": [
        {
          "internalType": "uint256[]",
          "name": "_yearlyCost",
          "type": "uint256[]"
        },
        {
          "internalType": "uint256[]",
          "name": "_maxCapacities",
          "type": "uint256[]"
        },
        {
          "internalType": "uint256[]",
          "name": "_totalDaiLiquidity",
          "type": "uint256[]"
        },
        {
          "internalType": "uint256[]",
          "name": "_annualProfitYields",
          "type": "uint256[]"
        }
      ],
      "stateMutability": "nonpayable",
      "type": "function"
    }
  ],
  "bytecode": "0x608060405234801561001057600080fd5b50600061001b61006a565b600080546001600160a01b0319166001600160a01b0383169081178255604051929350917f8be0079c531659141344cd1fd0a4f28419497f9722a3daafe3b4186f6b6457e0908290a35061006e565b3390565b610c5e8061007d6000396000f3fe608060405234801561001057600080fd5b50600436106100df5760003560e01c80638da5cb5b1161008c578063de58604911610066578063de58604914610408578063f10ed7a314610275578063f2fde38b1461043b578063f465eb421461046e576100df565b80638da5cb5b14610250578063d3e8948314610258578063da82de5c14610275576100df565b806350fd7367116100bd57806350fd73671461018d57806352c28fab1461020b578063715018a614610248576100df565b806306661abd146100e45780631d514ec1146100fe578063217c15521461015a575b600080fd5b6100ec610476565b60408051918252519081900360200190f35b6101316004803603602081101561011457600080fd5b503573ffffffffffffffffffffffffffffffffffffffff1661047c565b6040805173ffffffffffffffffffffffffffffffffffffffff9092168252519081900360200190f35b6101316004803603602081101561017057600080fd5b503573ffffffffffffffffffffffffffffffffffffffff166104a4565b6101b0600480360360408110156101a357600080fd5b50803590602001356104cf565b6040518083815260200180602001828103825283818151815260200191508051906020019060200280838360005b838110156101f65781810151838201526020016101de565b50505050905001935050505060405180910390f35b6102466004803603604081101561022157600080fd5b5073ffffffffffffffffffffffffffffffffffffffff813581169160200135166105cb565b005b61024661078f565b61013161088f565b6101316004803603602081101561026e57600080fd5b50356108ab565b6102e56004803603602081101561028b57600080fd5b8101906020810181356401000000008111156102a657600080fd5b8201836020820111156102b857600080fd5b803590602001918460208302840111640100000000831117156102da57600080fd5b5090925090506108e2565b6040518080602001806020018060200180602001858103855289818151815260200191508051906020019060200280838360005b83811015610331578181015183820152602001610319565b50505050905001858103845288818151815260200191508051906020019060200280838360005b83811015610370578181015183820152602001610358565b50505050905001858103835287818151815260200191508051906020019060200280838360005b838110156103af578181015183820152602001610397565b50505050905001858103825286818151815260200191508051906020019060200280838360005b838110156103ee5781810151838201526020016103d6565b505050509050019850505050505050505060405180910390f35b6102466004803603602081101561041e57600080fd5b503573ffffffffffffffffffffffffffffffffffffffff16610905565b6102466004803603602081101561045157600080fd5b503573ffffffffffffffffffffffffffffffffffffffff166109dd565b610131610b67565b60025490565b60046020526000908152604090205473ffffffffffffffffffffffffffffffffffffffff1681565b73ffffffffffffffffffffffffffffffffffffffff9081166000908152600460205260409020541690565b6000606060006104f6856104f0600254878901610b8390919063ffffffff16565b90610b9b565b905084810360608167ffffffffffffffff8111801561051457600080fd5b5060405190808252806020026020018201604052801561053e578160200160208202803683370190505b509050865b838110156105be576003818154811061055857fe5b9060005260206000200160009054906101000a900473ffffffffffffffffffffffffffffffffffffffff16828983038151811061059157fe5b73ffffffffffffffffffffffffffffffffffffffff90921660209283029190910190910152600101610543565b5090969095509350505050565b60015473ffffffffffffffffffffffffffffffffffffffff16331461063b576040517f08c379a0000000000000000000000000000000000000000000000000000000008152600401808060200182810382526025815260200180610bd66025913960400191505060405180910390fd5b73ffffffffffffffffffffffffffffffffffffffff82811660009081526004602052604090205416156106b9576040517f08c379a000000000000000000000000000000000000000000000000000000000815260040180806020018281038252602e815260200180610bfb602e913960400191505060405180910390fd5b6003805460018181019092557fc2575a0e9e593c00f959f8c92f12db2869c3395a3b0502d05e2516446f71f85b01805473ffffffffffffffffffffffffffffffffffffffff8085167fffffffffffffffffffffffff000000000000000000000000000000000000000092831681179093558516600081815260046020908152604091829020805490941685179093556002805490950190945583519081529081019190915281517f938c63ac3d228b23f6bee7618fefc6790522e338ac202c958a2ea9eb9706c5d1929181900390910190a15050565b610797610bab565b60005473ffffffffffffffffffffffffffffffffffffffff90811691161461082057604080517f08c379a000000000000000000000000000000000000000000000000000000000815260206004820181905260248201527f4f776e61626c653a2063616c6c6572206973206e6f7420746865206f776e6572604482015290519081900360640190fd5b6000805460405173ffffffffffffffffffffffffffffffffffffffff909116907f8be0079c531659141344cd1fd0a4f28419497f9722a3daafe3b4186f6b6457e0908390a3600080547fffffffffffffffffffffffff0000000000000000000000000000000000000000169055565b60005473ffffffffffffffffffffffffffffffffffffffff1690565b600381815481106108bb57600080fd5b60009182526020909120015473ffffffffffffffffffffffffffffffffffffffff16905081565b60608060608060005b858110156108fb576001016108eb565b5092959194509250565b61090d610bab565b60005473ffffffffffffffffffffffffffffffffffffffff90811691161461099657604080517f08c379a000000000000000000000000000000000000000000000000000000000815260206004820181905260248201527f4f776e61626c653a2063616c6c6572206973206e6f7420746865206f776e6572604482015290519081900360640190fd5b600180547fffffffffffffffffffffffff00000000000000000000000000000000000000001673ffffffffffffffffffffffffffffffffffffffff92909216919091179055565b6109e5610bab565b60005473ffffffffffffffffffffffffffffffffffffffff908116911614610a6e57604080517f08c379a000000000000000000000000000000000000000000000000000000000815260206004820181905260248201527f4f776e61626c653a2063616c6c6572206973206e6f7420746865206f776e6572604482015290519081900360640190fd5b73ffffffffffffffffffffffffffffffffffffffff8116610ada576040517f08c379a0000000000000000000000000000000000000000000000000000000008152600401808060200182810382526026815260200180610bb06026913960400191505060405180910390fd5b6000805460405173ffffffffffffffffffffffffffffffffffffffff808516939216917f8be0079c531659141344cd1fd0a4f28419497f9722a3daafe3b4186f6b6457e091a3600080547fffffffffffffffffffffffff00000000000000000000000000000000000000001673ffffffffffffffffffffffffffffffffffffffff92909216919091179055565b60015473ffffffffffffffffffffffffffffffffffffffff1681565b6000818310610b925781610b94565b825b9392505050565b600081831015610b925781610b94565b339056fe4f776e61626c653a206e6577206f776e657220697320746865207a65726f206164647265737343616c6c6572206973206e6f74206120706f6c69637946616272696320636f6e7472616374506f6c696379426f6f6b20666f722074686520636f6e747261637420697320616c72656164792063726561746564a2646970667358221220404dfaa988e84f5ee1490695f60eea022ee8c1b63d248a4e58ffefc0b370a64964736f6c63430007040033",
  "immutableReferences": {},
  "source": "// SPDX-License-Identifier: MIT\npragma solidity =0.7.4;\n\nimport \"@openzeppelin/contracts/math/Math.sol\";\nimport \"@openzeppelin/contracts/access/Ownable.sol\";\n\nimport \"./interfaces/IPolicyBook.sol\";\nimport \"./interfaces/IPolicyBookRegistry.sol\";\n\ncontract PolicyBookRegistry is IPolicyBookRegistry, Ownable {\n  using Math for uint256;\n\n  address public policyFabricAddress;\n  uint256 private policyBooksCount;\n\n  address[] public policies;\n  mapping(address => address) public policiesByAddress;\n\n  event Added(address insured, address at);\n\n  modifier onlyPolicyFabric() {\n    require(msg.sender == policyFabricAddress, \"Caller is not a policyFabric contract\");\n    _;\n  }\n\n  function setPolicyFabricAddress(address _policyFabricAddress) external onlyOwner {\n    policyFabricAddress = _policyFabricAddress;\n  }\n\n  function add(address _insuredContract, address _policyBook) external override onlyPolicyFabric() {\n    require(policiesByAddress[_insuredContract] == address(0), \"PolicyBook for the contract is already created\");\n\n    policies.push(_policyBook);\n    policiesByAddress[_insuredContract] = _policyBook;\n    policyBooksCount++;\n\n    emit Added(_insuredContract, _policyBook);\n  }\n\n  function count() external view override returns (uint256 _policyBooksCount) {\n    return policyBooksCount;\n  }\n\n  function list(uint256 _offset, uint256 _limit)\n    external\n    view\n    override\n    returns (uint256 _policyBooksCount, address[] memory _policyBooks)\n  {\n    uint256 to = (_offset + _limit).min(policyBooksCount).max(_offset);\n    uint256 size = to - _offset;\n    address[] memory result = new address[](size);\n    for (uint256 i = _offset; i < to; i++) {\n      result[i - _offset] = policies[i];\n    }\n\n    return (size, result);\n  }\n\n  function policyBookFor(address _contract) external view override returns (address _policyBook) {\n    return policiesByAddress[_contract];\n  }\n\n  function stats(address[] calldata _policyBooks)\n    external\n    override\n    returns (\n      uint256[] memory _yearlyCost,\n      uint256[] memory _maxCapacities,\n      uint256[] memory _totalDaiLiquidity,\n      uint256[] memory _annualProfitYields\n    )\n  {\n    for (uint256 i = 0; i < _policyBooks.length; i++) {\n      // to implement in policyBool\n      // _yearlyCost[i] = IPolicyBook(_policyBooks[i]).yearlyCost();\n      // _maxCapacities[i] = IPolicyBook(_policyBooks[i]).maxCapacities();\n      // _totalDaiLiquidity[i] = IPolicyBook(_policyBooks[i]).totalLiquidityDAI();\n      // _annualProfitYields[i] = IPolicyBook(_policyBooks[i]).annualProfitYields();\n    }\n  }\n\n  function statsByInsuredContracts(address[] calldata _insuredContracts)\n    external\n    override\n    returns (\n      uint256[] memory _yearlyCost,\n      uint256[] memory _maxCapacities,\n      uint256[] memory _totalDaiLiquidity,\n      uint256[] memory _annualProfitYields\n    )\n  {\n    for (uint256 i = 0; i < _insuredContracts.length; i++) {\n      // to implement in policyBool\n      // _yearlyCost[i] = IPolicyBook(policies[_insuredContracts[i]]).yearlyCost();\n      // _maxCapacities[i] = IPolicyBook(policies[_insuredContracts[i]]).maxCapacities();\n      // _totalDaiLiquidity[i] = IPolicyBook(policies[_insuredContracts[i]]).totalLiquidityDAI();\n      // _annualProfitYields[i] = IPolicyBook(policies[_insuredContracts[i]]).annualProfitYields();\n    }\n  }\n}\n",
  "sourcePath": "/home/artem/Projects/Distributed_Lab/Applicature/bridgemutual-core/contracts/PolicyBookRegistry.sol",
  "compiler": {
    "name": "solc",
    "version": "0.7.4+commit.3f05b770.Emscripten.clang"
  },
  "schemaVersion": "3.3.3",
  "updatedAt": "2021-01-20T14:37:36.493Z",
  "networkType": "ethereum",
  "devdoc": {
    "kind": "dev",
    "methods": {
      "count()": {
        "returns": {
          "_policyBooksCount": "is number of PolicyBooks"
        }
      },
      "list(uint256,uint256)": {
        "returns": {
          "_policyBooks": "is array of registered PolicyBook addresses",
          "_policyBooksCount": "is count of returned registered PolicyBook addresses"
        }
      },
      "owner()": {
        "details": "Returns the address of the current owner."
      },
      "policyBookFor(address)": {
        "params": {
          "_contract": "is contract address to lookup for created IPolicyBook"
        },
        "returns": {
          "_policyBook": "is policy book address if exists for passed contract address, if not it will return address(0)"
        }
      },
      "renounceOwnership()": {
        "details": "Leaves the contract without owner. It will not be possible to call `onlyOwner` functions anymore. Can only be called by the current owner. NOTE: Renouncing ownership will leave the contract without an owner, thereby removing any functionality that is only available to the owner."
      },
      "stats(address[])": {
        "params": {
          "_policyBooks": "is list of PolicyBooks addresses"
        },
        "returns": {
          "_annualProfitYields": "is array of annual profit yields per PolicyBooks",
          "_maxCapacities": "is array of max capacities per PolicyBooks",
          "_totalDaiLiquidity": "is array of DAI liquidity per PolicyBooks",
          "_yearlyCost": "is array of yearly costs per PolicyBooks"
        }
      },
      "statsByInsuredContracts(address[])": {
        "params": {
          "_insuredContracts": "is list of insuredContracts in registry"
        },
        "returns": {
          "_annualProfitYields": "is array of annual profit yields per PolicyBooks",
          "_maxCapacities": "is array of max capacities per PolicyBooks",
          "_totalDaiLiquidity": "is array of DAI liquidity per PolicyBooks",
          "_yearlyCost": "is array of yearly costs per PolicyBooks"
        }
      },
      "transferOwnership(address)": {
        "details": "Transfers ownership of the contract to a new account (`newOwner`). Can only be called by the current owner."
      }
    },
    "version": 1
  },
  "userdoc": {
    "kind": "user",
    "methods": {
      "add(address,address)": {
        "notice": "Adds PolicyBook to registry, access: PolicyFabric"
      },
      "count()": {
        "notice": "Returns number of registered PolicyBooks, access: ANY"
      },
      "list(uint256,uint256)": {
        "notice": "Listing registered PolicyBooks, access: ANY"
      },
      "policyBookFor(address)": {
        "notice": "Return existing Policy Book contract, access: ANY"
      },
      "stats(address[])": {
        "notice": "Getting stats from policy books, access: ANY"
      },
      "statsByInsuredContracts(address[])": {
        "notice": "Getting stats from policy books, access: ANY"
      }
    },
    "version": 1
  }
}