{
  "contractName": "PolicyBook",
  "abi": [
    {
      "inputs": [
        {
          "internalType": "address",
          "name": "_insuranceContract",
          "type": "address"
        },
        {
          "internalType": "enum IPolicyBookFabric.ContractType",
          "name": "_contractType",
          "type": "uint8"
        },
        {
          "internalType": "string",
          "name": "_description",
          "type": "string"
        },
        {
          "internalType": "string",
          "name": "_projectSymbol",
          "type": "string"
        }
      ],
      "stateMutability": "nonpayable",
      "type": "constructor"
    },
    {
      "anonymous": false,
      "inputs": [
        {
          "indexed": false,
          "internalType": "address",
          "name": "_liquidityHolder",
          "type": "address"
        },
        {
          "indexed": false,
          "internalType": "uint256",
          "name": "_liqudityAmount",
          "type": "uint256"
        },
        {
          "indexed": false,
          "internalType": "uint256",
          "name": "_newTotalLiquidity",
          "type": "uint256"
        }
      ],
      "name": "AddLiquidity",
      "type": "event"
    },
    {
      "anonymous": false,
      "inputs": [
        {
          "indexed": true,
          "internalType": "address",
          "name": "owner",
          "type": "address"
        },
        {
          "indexed": true,
          "internalType": "address",
          "name": "spender",
          "type": "address"
        },
        {
          "indexed": false,
          "internalType": "uint256",
          "name": "value",
          "type": "uint256"
        }
      ],
      "name": "Approval",
      "type": "event"
    },
    {
      "anonymous": false,
      "inputs": [
        {
          "indexed": true,
          "internalType": "address",
          "name": "account",
          "type": "address"
        },
        {
          "indexed": true,
          "internalType": "address",
          "name": "operator",
          "type": "address"
        },
        {
          "indexed": false,
          "internalType": "bool",
          "name": "approved",
          "type": "bool"
        }
      ],
      "name": "ApprovalForAll",
      "type": "event"
    },
    {
      "anonymous": false,
      "inputs": [
        {
          "indexed": false,
          "internalType": "address",
          "name": "_policyHolder",
          "type": "address"
        },
        {
          "indexed": false,
          "internalType": "uint256",
          "name": "_coverTokens",
          "type": "uint256"
        },
        {
          "indexed": false,
          "internalType": "uint256",
          "name": "_price",
          "type": "uint256"
        },
        {
          "indexed": false,
          "internalType": "uint256",
          "name": "_newTotalCoverTokens",
          "type": "uint256"
        }
      ],
      "name": "BuyPolicy",
      "type": "event"
    },
    {
      "anonymous": false,
      "inputs": [
        {
          "indexed": true,
          "internalType": "address",
          "name": "previousOwner",
          "type": "address"
        },
        {
          "indexed": true,
          "internalType": "address",
          "name": "newOwner",
          "type": "address"
        }
      ],
      "name": "OwnershipTransferred",
      "type": "event"
    },
    {
      "anonymous": false,
      "inputs": [
        {
          "indexed": true,
          "internalType": "address",
          "name": "from",
          "type": "address"
        },
        {
          "indexed": true,
          "internalType": "address",
          "name": "to",
          "type": "address"
        },
        {
          "indexed": false,
          "internalType": "uint256",
          "name": "value",
          "type": "uint256"
        }
      ],
      "name": "Transfer",
      "type": "event"
    },
    {
      "anonymous": false,
      "inputs": [
        {
          "indexed": true,
          "internalType": "address",
          "name": "operator",
          "type": "address"
        },
        {
          "indexed": true,
          "internalType": "address",
          "name": "from",
          "type": "address"
        },
        {
          "indexed": true,
          "internalType": "address",
          "name": "to",
          "type": "address"
        },
        {
          "indexed": false,
          "internalType": "uint256[]",
          "name": "ids",
          "type": "uint256[]"
        },
        {
          "indexed": false,
          "internalType": "uint256[]",
          "name": "values",
          "type": "uint256[]"
        }
      ],
      "name": "TransferBatch",
      "type": "event"
    },
    {
      "anonymous": false,
      "inputs": [
        {
          "indexed": true,
          "internalType": "address",
          "name": "operator",
          "type": "address"
        },
        {
          "indexed": true,
          "internalType": "address",
          "name": "from",
          "type": "address"
        },
        {
          "indexed": true,
          "internalType": "address",
          "name": "to",
          "type": "address"
        },
        {
          "indexed": false,
          "internalType": "uint256",
          "name": "id",
          "type": "uint256"
        },
        {
          "indexed": false,
          "internalType": "uint256",
          "name": "value",
          "type": "uint256"
        }
      ],
      "name": "TransferSingle",
      "type": "event"
    },
    {
      "anonymous": false,
      "inputs": [
        {
          "indexed": false,
          "internalType": "string",
          "name": "value",
          "type": "string"
        },
        {
          "indexed": true,
          "internalType": "uint256",
          "name": "id",
          "type": "uint256"
        }
      ],
      "name": "URI",
      "type": "event"
    },
    {
      "anonymous": false,
      "inputs": [
        {
          "indexed": false,
          "internalType": "address",
          "name": "_liquidityHolder",
          "type": "address"
        },
        {
          "indexed": false,
          "internalType": "uint256",
          "name": "_tokensToWithdraw",
          "type": "uint256"
        },
        {
          "indexed": false,
          "internalType": "uint256",
          "name": "_newTotalLiquidity",
          "type": "uint256"
        }
      ],
      "name": "WithdrawLiquidity",
      "type": "event"
    },
    {
      "inputs": [],
      "name": "MAXIMUM_COST_100_UTILIZATION_PERCENTAGE",
      "outputs": [
        {
          "internalType": "uint256",
          "name": "",
          "type": "uint256"
        }
      ],
      "stateMutability": "view",
      "type": "function"
    },
    {
      "inputs": [],
      "name": "MAXIMUM_COST_NOT_RISKY_PERCENTAGE",
      "outputs": [
        {
          "internalType": "uint256",
          "name": "",
          "type": "uint256"
        }
      ],
      "stateMutability": "view",
      "type": "function"
    },
    {
      "inputs": [],
      "name": "MINIMUM_COST_PERCENTAGE",
      "outputs": [
        {
          "internalType": "uint256",
          "name": "",
          "type": "uint256"
        }
      ],
      "stateMutability": "view",
      "type": "function"
    },
    {
      "inputs": [],
      "name": "PERCENTAGE_100",
      "outputs": [
        {
          "internalType": "uint256",
          "name": "",
          "type": "uint256"
        }
      ],
      "stateMutability": "view",
      "type": "function"
    },
    {
      "inputs": [],
      "name": "PRECISION",
      "outputs": [
        {
          "internalType": "uint256",
          "name": "",
          "type": "uint256"
        }
      ],
      "stateMutability": "view",
      "type": "function"
    },
    {
      "inputs": [],
      "name": "RISKY_ASSET_THRESHOLD_PERCENTAGE",
      "outputs": [
        {
          "internalType": "uint256",
          "name": "",
          "type": "uint256"
        }
      ],
      "stateMutability": "view",
      "type": "function"
    },
    {
      "inputs": [],
      "name": "SECONDS_IN_THE_YEAR",
      "outputs": [
        {
          "internalType": "uint256",
          "name": "",
          "type": "uint256"
        }
      ],
      "stateMutability": "view",
      "type": "function"
    },
    {
      "inputs": [
        {
          "internalType": "address",
          "name": "owner",
          "type": "address"
        },
        {
          "internalType": "address",
          "name": "spender",
          "type": "address"
        }
      ],
      "name": "allowance",
      "outputs": [
        {
          "internalType": "uint256",
          "name": "",
          "type": "uint256"
        }
      ],
      "stateMutability": "view",
      "type": "function"
    },
    {
      "inputs": [
        {
          "internalType": "address",
          "name": "spender",
          "type": "address"
        },
        {
          "internalType": "uint256",
          "name": "amount",
          "type": "uint256"
        }
      ],
      "name": "approve",
      "outputs": [
        {
          "internalType": "bool",
          "name": "",
          "type": "bool"
        }
      ],
      "stateMutability": "nonpayable",
      "type": "function"
    },
    {
      "inputs": [
        {
          "internalType": "address",
          "name": "account",
          "type": "address"
        },
        {
          "internalType": "uint256",
          "name": "id",
          "type": "uint256"
        }
      ],
      "name": "balanceOf",
      "outputs": [
        {
          "internalType": "uint256",
          "name": "",
          "type": "uint256"
        }
      ],
      "stateMutability": "view",
      "type": "function"
    },
    {
      "inputs": [
        {
          "internalType": "address",
          "name": "account",
          "type": "address"
        }
      ],
      "name": "balanceOf",
      "outputs": [
        {
          "internalType": "uint256",
          "name": "",
          "type": "uint256"
        }
      ],
      "stateMutability": "view",
      "type": "function"
    },
    {
      "inputs": [
        {
          "internalType": "address[]",
          "name": "accounts",
          "type": "address[]"
        },
        {
          "internalType": "uint256[]",
          "name": "ids",
          "type": "uint256[]"
        }
      ],
      "name": "balanceOfBatch",
      "outputs": [
        {
          "internalType": "uint256[]",
          "name": "",
          "type": "uint256[]"
        }
      ],
      "stateMutability": "view",
      "type": "function"
    },
    {
      "inputs": [
        {
          "internalType": "address",
          "name": "owner",
          "type": "address"
        }
      ],
      "name": "balanceOfNFT",
      "outputs": [
        {
          "internalType": "uint256",
          "name": "",
          "type": "uint256"
        }
      ],
      "stateMutability": "view",
      "type": "function"
    },
    {
      "inputs": [],
      "name": "bmiDaiStakingAddress",
      "outputs": [
        {
          "internalType": "address",
          "name": "",
          "type": "address"
        }
      ],
      "stateMutability": "view",
      "type": "function"
    },
    {
      "inputs": [
        {
          "internalType": "address",
          "name": "account",
          "type": "address"
        },
        {
          "internalType": "uint256",
          "name": "id",
          "type": "uint256"
        },
        {
          "internalType": "uint256",
          "name": "amount",
          "type": "uint256"
        }
      ],
      "name": "burnNFT",
      "outputs": [],
      "stateMutability": "nonpayable",
      "type": "function"
    },
    {
      "inputs": [],
      "name": "contractType",
      "outputs": [
        {
          "internalType": "enum IPolicyBookFabric.ContractType",
          "name": "",
          "type": "uint8"
        }
      ],
      "stateMutability": "view",
      "type": "function"
    },
    {
      "inputs": [],
      "name": "contractsRegistry",
      "outputs": [
        {
          "internalType": "contract ContractsRegistry",
          "name": "",
          "type": "address"
        }
      ],
      "stateMutability": "view",
      "type": "function"
    },
    {
      "inputs": [],
      "name": "daiToken",
      "outputs": [
        {
          "internalType": "contract IERC20",
          "name": "",
          "type": "address"
        }
      ],
      "stateMutability": "view",
      "type": "function"
    },
    {
      "inputs": [],
      "name": "decimals",
      "outputs": [
        {
          "internalType": "uint8",
          "name": "",
          "type": "uint8"
        }
      ],
      "stateMutability": "view",
      "type": "function"
    },
    {
      "inputs": [
        {
          "internalType": "address",
          "name": "spender",
          "type": "address"
        },
        {
          "internalType": "uint256",
          "name": "subtractedValue",
          "type": "uint256"
        }
      ],
      "name": "decreaseAllowance",
      "outputs": [
        {
          "internalType": "bool",
          "name": "",
          "type": "bool"
        }
      ],
      "stateMutability": "nonpayable",
      "type": "function"
    },
    {
      "inputs": [
        {
          "internalType": "address",
          "name": "spender",
          "type": "address"
        },
        {
          "internalType": "uint256",
          "name": "addedValue",
          "type": "uint256"
        }
      ],
      "name": "increaseAllowance",
      "outputs": [
        {
          "internalType": "bool",
          "name": "",
          "type": "bool"
        }
      ],
      "stateMutability": "nonpayable",
      "type": "function"
    },
    {
      "inputs": [],
      "name": "insuranceContractAddress",
      "outputs": [
        {
          "internalType": "address",
          "name": "",
          "type": "address"
        }
      ],
      "stateMutability": "view",
      "type": "function"
    },
    {
      "inputs": [
        {
          "internalType": "address",
          "name": "account",
          "type": "address"
        },
        {
          "internalType": "address",
          "name": "operator",
          "type": "address"
        }
      ],
      "name": "isApprovedForAll",
      "outputs": [
        {
          "internalType": "bool",
          "name": "",
          "type": "bool"
        }
      ],
      "stateMutability": "view",
      "type": "function"
    },
    {
      "inputs": [
        {
          "internalType": "address",
          "name": "account",
          "type": "address"
        },
        {
          "internalType": "uint256",
          "name": "id",
          "type": "uint256"
        },
        {
          "internalType": "uint256",
          "name": "amount",
          "type": "uint256"
        },
        {
          "internalType": "bytes",
          "name": "data",
          "type": "bytes"
        }
      ],
      "name": "mintNFT",
      "outputs": [],
      "stateMutability": "nonpayable",
      "type": "function"
    },
    {
      "inputs": [],
      "name": "name",
      "outputs": [
        {
          "internalType": "string",
          "name": "",
          "type": "string"
        }
      ],
      "stateMutability": "view",
      "type": "function"
    },
    {
      "inputs": [],
      "name": "owner",
      "outputs": [
        {
          "internalType": "address",
          "name": "",
          "type": "address"
        }
      ],
      "stateMutability": "view",
      "type": "function"
    },
    {
      "inputs": [
        {
          "internalType": "uint256",
          "name": "tokenId",
          "type": "uint256"
        }
      ],
      "name": "ownerOfNFT",
      "outputs": [
        {
          "internalType": "address",
          "name": "",
          "type": "address"
        }
      ],
      "stateMutability": "view",
      "type": "function"
    },
    {
      "inputs": [
        {
          "internalType": "address",
          "name": "",
          "type": "address"
        }
      ],
      "name": "policyHolders",
      "outputs": [
        {
          "internalType": "uint256",
          "name": "coverTokens",
          "type": "uint256"
        },
        {
          "internalType": "uint256",
          "name": "durationSeconds",
          "type": "uint256"
        }
      ],
      "stateMutability": "view",
      "type": "function"
    },
    {
      "inputs": [],
      "name": "renounceOwnership",
      "outputs": [],
      "stateMutability": "nonpayable",
      "type": "function"
    },
    {
      "inputs": [
        {
          "internalType": "address",
          "name": "from",
          "type": "address"
        },
        {
          "internalType": "address",
          "name": "to",
          "type": "address"
        },
        {
          "internalType": "uint256[]",
          "name": "ids",
          "type": "uint256[]"
        },
        {
          "internalType": "uint256[]",
          "name": "amounts",
          "type": "uint256[]"
        },
        {
          "internalType": "bytes",
          "name": "data",
          "type": "bytes"
        }
      ],
      "name": "safeBatchTransferFrom",
      "outputs": [],
      "stateMutability": "nonpayable",
      "type": "function"
    },
    {
      "inputs": [
        {
          "internalType": "address",
          "name": "from",
          "type": "address"
        },
        {
          "internalType": "address",
          "name": "to",
          "type": "address"
        },
        {
          "internalType": "uint256",
          "name": "id",
          "type": "uint256"
        },
        {
          "internalType": "uint256",
          "name": "amount",
          "type": "uint256"
        },
        {
          "internalType": "bytes",
          "name": "data",
          "type": "bytes"
        }
      ],
      "name": "safeTransferFrom",
      "outputs": [],
      "stateMutability": "nonpayable",
      "type": "function"
    },
    {
      "inputs": [
        {
          "internalType": "address",
          "name": "operator",
          "type": "address"
        },
        {
          "internalType": "bool",
          "name": "approved",
          "type": "bool"
        }
      ],
      "name": "setApprovalForAll",
      "outputs": [],
      "stateMutability": "nonpayable",
      "type": "function"
    },
    {
      "inputs": [
        {
          "internalType": "bytes4",
          "name": "interfaceId",
          "type": "bytes4"
        }
      ],
      "name": "supportsInterface",
      "outputs": [
        {
          "internalType": "bool",
          "name": "",
          "type": "bool"
        }
      ],
      "stateMutability": "view",
      "type": "function"
    },
    {
      "inputs": [],
      "name": "symbol",
      "outputs": [
        {
          "internalType": "string",
          "name": "",
          "type": "string"
        }
      ],
      "stateMutability": "view",
      "type": "function"
    },
    {
      "inputs": [
        {
          "internalType": "address",
          "name": "owner",
          "type": "address"
        },
        {
          "internalType": "uint256",
          "name": "index",
          "type": "uint256"
        }
      ],
      "name": "tokenOfOwnerByIndexNFT",
      "outputs": [
        {
          "internalType": "uint256",
          "name": "",
          "type": "uint256"
        }
      ],
      "stateMutability": "view",
      "type": "function"
    },
    {
      "inputs": [],
      "name": "totalCoverTokens",
      "outputs": [
        {
          "internalType": "uint256",
          "name": "",
          "type": "uint256"
        }
      ],
      "stateMutability": "view",
      "type": "function"
    },
    {
      "inputs": [],
      "name": "totalLiquidity",
      "outputs": [
        {
          "internalType": "uint256",
          "name": "",
          "type": "uint256"
        }
      ],
      "stateMutability": "view",
      "type": "function"
    },
    {
      "inputs": [],
      "name": "totalSupply",
      "outputs": [
        {
          "internalType": "uint256",
          "name": "",
          "type": "uint256"
        }
      ],
      "stateMutability": "view",
      "type": "function"
    },
    {
      "inputs": [],
      "name": "totalSupplyNFT",
      "outputs": [
        {
          "internalType": "uint256",
          "name": "",
          "type": "uint256"
        }
      ],
      "stateMutability": "view",
      "type": "function"
    },
    {
      "inputs": [
        {
          "internalType": "address",
          "name": "recipient",
          "type": "address"
        },
        {
          "internalType": "uint256",
          "name": "amount",
          "type": "uint256"
        }
      ],
      "name": "transfer",
      "outputs": [
        {
          "internalType": "bool",
          "name": "",
          "type": "bool"
        }
      ],
      "stateMutability": "nonpayable",
      "type": "function"
    },
    {
      "inputs": [
        {
          "internalType": "address",
          "name": "sender",
          "type": "address"
        },
        {
          "internalType": "address",
          "name": "recipient",
          "type": "address"
        },
        {
          "internalType": "uint256",
          "name": "amount",
          "type": "uint256"
        }
      ],
      "name": "transferFrom",
      "outputs": [
        {
          "internalType": "bool",
          "name": "",
          "type": "bool"
        }
      ],
      "stateMutability": "nonpayable",
      "type": "function"
    },
    {
      "inputs": [
        {
          "internalType": "address",
          "name": "newOwner",
          "type": "address"
        }
      ],
      "name": "transferOwnership",
      "outputs": [],
      "stateMutability": "nonpayable",
      "type": "function"
    },
    {
      "stateMutability": "payable",
      "type": "receive"
    },
    {
      "inputs": [
        {
          "internalType": "contract ContractsRegistry",
          "name": "_contractsRegistry",
          "type": "address"
        }
      ],
      "name": "initRegistry",
      "outputs": [],
      "stateMutability": "nonpayable",
      "type": "function"
    },
    {
      "inputs": [],
      "name": "approveAllDaiTokensForStaking",
      "outputs": [],
      "stateMutability": "nonpayable",
      "type": "function"
    },
    {
      "inputs": [],
      "name": "transferNFTMintingAndBurningOwnershipToStaking",
      "outputs": [],
      "stateMutability": "nonpayable",
      "type": "function"
    },
    {
      "inputs": [],
      "name": "quoteStrategy",
      "outputs": [
        {
          "internalType": "address",
          "name": "_quoteStrategy",
          "type": "address"
        }
      ],
      "stateMutability": "view",
      "type": "function"
    },
    {
      "inputs": [
        {
          "internalType": "uint256",
          "name": "_offset",
          "type": "uint256"
        },
        {
          "internalType": "uint256",
          "name": "_limit",
          "type": "uint256"
        }
      ],
      "name": "shieldAssets",
      "outputs": [
        {
          "internalType": "uint256",
          "name": "_shieldAssetsCount",
          "type": "uint256"
        },
        {
          "internalType": "address[]",
          "name": "_shieldAssets",
          "type": "address[]"
        }
      ],
      "stateMutability": "view",
      "type": "function"
    },
    {
      "inputs": [
        {
          "internalType": "uint256",
          "name": "_offset",
          "type": "uint256"
        },
        {
          "internalType": "uint256",
          "name": "_limit",
          "type": "uint256"
        }
      ],
      "name": "shieldAssetsWithBalance",
      "outputs": [
        {
          "internalType": "uint256",
          "name": "_shieldAssetsCount",
          "type": "uint256"
        },
        {
          "internalType": "address[]",
          "name": "_shieldAssets",
          "type": "address[]"
        },
        {
          "internalType": "uint256[]",
          "name": "_shieldAssetBalance",
          "type": "uint256[]"
        }
      ],
      "stateMutability": "view",
      "type": "function"
    },
    {
      "inputs": [],
      "name": "shieldAssetsCount",
      "outputs": [
        {
          "internalType": "uint256",
          "name": "_shieldAssetsCount",
          "type": "uint256"
        }
      ],
      "stateMutability": "view",
      "type": "function"
    },
    {
      "inputs": [
        {
          "internalType": "address",
          "name": "_tokenAddress",
          "type": "address"
        },
        {
          "internalType": "uint256",
          "name": "_tokensAmount",
          "type": "uint256"
        }
      ],
      "name": "addShieldTokens",
      "outputs": [
        {
          "internalType": "bool",
          "name": "_success",
          "type": "bool"
        }
      ],
      "stateMutability": "nonpayable",
      "type": "function"
    },
    {
      "inputs": [
        {
          "internalType": "uint256",
          "name": "_durationSeconds",
          "type": "uint256"
        },
        {
          "internalType": "uint256",
          "name": "_coverTokens",
          "type": "uint256"
        }
      ],
      "name": "buyPolicy",
      "outputs": [],
      "stateMutability": "nonpayable",
      "type": "function"
    },
    {
      "inputs": [
        {
          "internalType": "address",
          "name": "_policyHolderAddr",
          "type": "address"
        },
        {
          "internalType": "uint256",
          "name": "_durationSeconds",
          "type": "uint256"
        },
        {
          "internalType": "uint256",
          "name": "_coverTokens",
          "type": "uint256"
        }
      ],
      "name": "buyPolicyFor",
      "outputs": [],
      "stateMutability": "nonpayable",
      "type": "function"
    },
    {
      "inputs": [
        {
          "internalType": "uint256",
          "name": "_liqudityAmount",
          "type": "uint256"
        }
      ],
      "name": "addLiquidity",
      "outputs": [],
      "stateMutability": "nonpayable",
      "type": "function"
    },
    {
      "inputs": [
        {
          "internalType": "address",
          "name": "_liquidityHolderAddr",
          "type": "address"
        },
        {
          "internalType": "uint256",
          "name": "_liqudityAmount",
          "type": "uint256"
        }
      ],
      "name": "addLiquidityFor",
      "outputs": [],
      "stateMutability": "nonpayable",
      "type": "function"
    },
    {
      "inputs": [
        {
          "internalType": "uint256",
          "name": "_tokensToWithdraw",
          "type": "uint256"
        }
      ],
      "name": "withdrawLiquidity",
      "outputs": [],
      "stateMutability": "nonpayable",
      "type": "function"
    },
    {
      "inputs": [
        {
          "internalType": "uint256",
          "name": "_policyId",
          "type": "uint256"
        }
      ],
      "name": "rewardForUnclaimedExpiredPolicy",
      "outputs": [],
      "stateMutability": "nonpayable",
      "type": "function"
    },
    {
      "inputs": [],
      "name": "stats",
      "outputs": [
        {
          "internalType": "string",
          "name": "_name",
          "type": "string"
        },
        {
          "internalType": "enum IPolicyBookFabric.ContractType",
          "name": "_contractType",
          "type": "uint8"
        },
        {
          "internalType": "uint256",
          "name": "_maxCapacities",
          "type": "uint256"
        },
        {
          "internalType": "uint256",
          "name": "_totalDaiLiquidity",
          "type": "uint256"
        },
        {
          "internalType": "uint256",
          "name": "_annualProfitYields",
          "type": "uint256"
        }
      ],
      "stateMutability": "view",
      "type": "function"
    },
    {
      "inputs": [
        {
          "internalType": "uint256",
          "name": "_durationSeconds",
          "type": "uint256"
        },
        {
          "internalType": "uint256",
          "name": "_tokens",
          "type": "uint256"
        }
      ],
      "name": "getQuote",
      "outputs": [
        {
          "internalType": "uint256",
          "name": "_daiTokens",
          "type": "uint256"
        }
      ],
      "stateMutability": "view",
      "type": "function"
    }
  ],
  "bytecode": "0x60806040523480156200001157600080fd5b5060405162004ee538038062004ee583398101604081905262000034916200031e565b8181604051602001620000489190620003bc565b60408051601f1981840301815291905281816200006c6301ffc9a760e01b6200012f565b620000788282620001b4565b6200008a636cdb3d1360e11b6200012f565b506000905062000099620001f1565b600b80546001600160a01b0319166001600160a01b038316908117909155604051919250906000907f8be0079c531659141344cd1fd0a4f28419497f9722a3daafe3b4186f6b6457e0908290a35050600d80546001600160a01b0319166001600160a01b0387161780825585925060ff60a01b1916600160a01b8360038111156200012057fe5b0217905550505050506200041f565b6001600160e01b031980821614156200018f576040805162461bcd60e51b815260206004820152601c60248201527f4552433136353a20696e76616c696420696e7465726661636520696400000000604482015290519081900360640190fd5b6001600160e01b0319166000908152602081905260409020805460ff19166001179055565b8151620001c9906001906020850190620001f5565b508051620001df906002906020840190620001f5565b50506003805460ff1916601217905550565b3390565b828054600181600116156101000203166002900490600052602060002090601f0160209004810192826200022d576000855562000278565b82601f106200024857805160ff191683800117855562000278565b8280016001018555821562000278579182015b82811115620002785782518255916020019190600101906200025b565b50620002869291506200028a565b5090565b5b808211156200028657600081556001016200028b565b600082601f830112620002b2578081fd5b81516001600160401b0380821115620002c757fe5b604051601f8301601f191681016020018281118282101715620002e657fe5b6040528281529250828483016020018610156200030257600080fd5b62000315836020830160208801620003ec565b50505092915050565b6000806000806080858703121562000334578384fd5b84516001600160a01b03811681146200034b578485fd5b60208601519094506004811062000360578384fd5b60408601519093506001600160401b03808211156200037d578384fd5b6200038b88838901620002a1565b93506060870151915080821115620003a1578283fd5b50620003b087828801620002a1565b91505092959194509250565b600065626d6944414960d01b82528251620003df816006850160208701620003ec565b9190910160060192915050565b60005b8381101562000409578181015183820152602001620003ef565b8381111562000419576000848401525b50505050565b614ab6806200042f6000396000f3fe6080604052600436106103845760003560e01c80637cd0fc9b116101d1578063c18c605711610102578063dd62ed3e116100a0578063f242432a1161006f578063f242432a146109df578063f2fde38b146109ff578063f5b100ea14610a1f578063f60ff93714610a3f5761038b565b8063dd62ed3e1461096a578063e985e9c51461098a578063e98a04e1146109aa578063efa1f98a146109bf5761038b565b8063cfa8b3a8116100dc578063cfa8b3a8146108fa578063d0a43afd1461090f578063d80528ae1461092f578063d98d0c7e146109555761038b565b8063c18c6057146108a3578063cb2ef6f7146108c3578063cbf5a55e146108e55761038b565b8063a9059cbb1161016f578063b0ea6a8411610149578063b0ea6a841461084f578063b653822f14610864578063bc5d198a14610879578063be22f5461461088e5761038b565b8063a9059cbb14610805578063aaf5eb6814610825578063b00455fd1461083a5761038b565b80639c590006116101ab5780639c5900061461079b5780639effd687146107b0578063a22cb465146107c5578063a457c2d7146107e55761038b565b80637cd0fc9b1461075c5780638da5cb5b1461077157806395d89b41146107865761038b565b80632d8a746e116102b657806351c6590a11610254578063715018a611610223578063715018a6146106d95780637234751b146106ee578063758af3ab1461070e57806379fac08c1461072e5761038b565b806351c6590a1461064b5780635da2460d1461066b57806370a082311461068b57806370b68a2a146106ab5761038b565b8063395093511161029057806339509351146105c95780634b641181146105e95780634e1273f414610609578063514ea9bd146106365761038b565b80632d8a746e146105675780632eb2c2d614610587578063313ce567146105a75761038b565b806315770f92116103235780631cc509fd116102fd5780631cc509fd146104f25780631dcb46f61461051257806323b872dd146105325780632c865d6c146105525761038b565b806315770f92146104a857806318160ddd146104bd578063188ff854146104d25761038b565b8063095ea7b31161035f578063095ea7b3146104155780630a861f2a146104355780630e82da531461045757806314c179c0146104865761038b565b8062fdd58e1461039057806301ffc9a7146103c657806306fdde03146103f35761038b565b3661038b57005b600080fd5b34801561039c57600080fd5b506103b06103ab366004613989565b610a54565b6040516103bd91906146f7565b60405180910390f35b3480156103d257600080fd5b506103e66103e1366004613b28565b610ab0565b6040516103bd9190613e29565b3480156103ff57600080fd5b50610408610ae7565b6040516103bd9190613e42565b34801561042157600080fd5b506103e6610430366004613989565b610b74565b34801561044157600080fd5b50610455610450366004613bd3565b610b91565b005b34801561046357600080fd5b50610477610472366004613beb565b610cff565b6040516103bd93929190614719565b34801561049257600080fd5b5061049b610d0b565b6040516103bd9190613cb8565b3480156104b457600080fd5b506103b0610d1a565b3480156104c957600080fd5b506103b0610d20565b3480156104de57600080fd5b506103e66104ed366004613989565b610d50565b3480156104fe57600080fd5b5061045561050d3660046139b4565b610d58565b34801561051e57600080fd5b506103b061052d366004613989565b610dd2565b34801561053e57600080fd5b506103e661054d3660046138b5565b610dfb565b34801561055e57600080fd5b506103b0610e82565b34801561057357600080fd5b5061049b610582366004613bd3565b610e87565b34801561059357600080fd5b506104556105a236600461380b565b610eaf565b3480156105b357600080fd5b506105bc611144565b6040516103bd9190614752565b3480156105d557600080fd5b506103e66105e4366004613989565b61114d565b3480156105f557600080fd5b506104556106043660046139e8565b61119b565b34801561061557600080fd5b50610629610624366004613a49565b611217565b6040516103bd9190613df1565b34801561064257600080fd5b506103b0611357565b34801561065757600080fd5b50610455610666366004613bd3565b611366565b34801561067757600080fd5b50610455610686366004613beb565b611373565b34801561069757600080fd5b506103b06106a636600461379b565b611382565b3480156106b757600080fd5b506106cb6106c636600461379b565b6113bc565b6040516103bd929190614744565b3480156106e557600080fd5b506104556113d5565b3480156106fa57600080fd5b506104556107093660046139b4565b6114a1565b34801561071a57600080fd5b506103b0610729366004613beb565b6114ac565b34801561073a57600080fd5b5061074e610749366004613beb565b6114b8565b6040516103bd929190614700565b34801561076857600080fd5b5061049b610e82565b34801561077d57600080fd5b5061049b6114c2565b34801561079257600080fd5b506104086114d1565b3480156107a757600080fd5b506103b0611529565b3480156107bc57600080fd5b5061049b611538565b3480156107d157600080fd5b506104556107e036600461395c565b611547565b3480156107f157600080fd5b506103e6610800366004613989565b611633565b34801561081157600080fd5b506103e6610820366004613989565b61169b565b34801561083157600080fd5b506103b06116af565b34801561084657600080fd5b506104556116be565b34801561085b57600080fd5b506103b06117ee565b34801561087057600080fd5b506104556117ff565b34801561088557600080fd5b506103b0611880565b34801561089a57600080fd5b5061049b611888565b3480156108af57600080fd5b506104556108be366004613bd3565b611370565b3480156108cf57600080fd5b506108d8611897565b6040516103bd9190613e34565b3480156108f157600080fd5b506103b06118b8565b34801561090657600080fd5b506103b06118c8565b34801561091b57600080fd5b5061045561092a36600461379b565b6118d8565b34801561093b57600080fd5b50610944611bec565b6040516103bd959493929190613e55565b34801561096157600080fd5b5061049b611cbf565b34801561097657600080fd5b506103b06109853660046137d3565b611cce565b34801561099657600080fd5b506103e66109a53660046137d3565b611cf9565b3480156109b657600080fd5b506103b0611d27565b3480156109cb57600080fd5b506104556109da366004613989565b611d37565b3480156109eb57600080fd5b506104556109fa3660046138f5565b611d41565b348015610a0b57600080fd5b50610455610a1a36600461379b565b611f4b565b348015610a2b57600080fd5b506103b0610a3a36600461379b565b61206e565b348015610a4b57600080fd5b506103b06120b7565b60006001600160a01b038316610a855760405162461bcd60e51b8152600401610a7c90614016565b60405180910390fd5b5060008181526005602090815260408083206001600160a01b03861684529091529020545b92915050565b7fffffffff000000000000000000000000000000000000000000000000000000001660009081526020819052604090205460ff1690565b60018054604080516020600284861615610100026000190190941693909304601f81018490048402820184019092528181529291830182828015610b6c5780601f10610b4157610100808354040283529160200191610b6c565b820191906000526020600020905b815481529060010190602001808311610b4f57829003601f168201915b505050505081565b6000610b88610b816120bd565b84846120c1565b50600192915050565b80610b9b33611382565b1015610bb95760405162461bcd60e51b8152600401610a7c906143d8565b601154601054610bc99083612175565b1015610be75760405162461bcd60e51b8152600401610a7c906142b0565b600e546040517fa9059cbb0000000000000000000000000000000000000000000000000000000081526000916001600160a01b03169063a9059cbb90610c339033908690600401613ccc565b602060405180830381600087803b158015610c4d57600080fd5b505af1158015610c61573d6000803e3d6000fd5b505050506040513d601f19601f82011682018060405250810190610c859190613b0c565b905080610ca45760405162461bcd60e51b8152600401610a7c9061412d565b601054610cb19083612175565b601055610cbe33836121b7565b7fac927268ea9ae2e55027e6ab727fc2db8e3ea48c56c658223a1074567e4298c03383601054604051610cf393929190613ce5565b60405180910390a15050565b60006060809250925092565b600d546001600160a01b031681565b60105481565b600160005260046020527fabd6e7cb50984ff9c2f3e18a2660c3353dadf4e3291deeb275dae2cd1e44fe05545b90565b600092915050565b610d606120bd565b600b546001600160a01b03908116911614610dc2576040805162461bcd60e51b815260206004820181905260248201527f4f776e61626c653a2063616c6c6572206973206e6f7420746865206f776e6572604482015290519081900360640190fd5b610dcd838383612322565b505050565b6001600160a01b0382166000908152600860205260408120610df4908361249a565b9392505050565b6000610e088484846124a6565b610e7884610e146120bd565b610e7385604051806060016040528060288152602001614a34602891396001600160a01b038a16600090815260076020526040812090610e526120bd565b6001600160a01b031681526020810191909152604001600020549190612618565b6120c1565b5060019392505050565b600090565b6000610aaa826040518060600160405280602a81526020016149bf602a9139600991906126af565b8151835114610ed05760405162461bcd60e51b8152600401610a7c90614606565b6001600160a01b038416610ef65760405162461bcd60e51b8152600401610a7c906141f6565b610efe6120bd565b6001600160a01b0316856001600160a01b03161480610f245750610f24856109a56120bd565b610f405760405162461bcd60e51b8152600401610a7c90614253565b6000610f4a6120bd565b9050610f5a81878787878761113c565b60005b84518110156110d6576000858281518110610f7457fe5b602002602001015190506000858381518110610f8c57fe5b602002602001015190506001821415610faa57610faa898983610dcd565b610fb3826126c4565b1561100c576001600160a01b0389166000908152600860205260409020610fda90836126d1565b506001600160a01b0388166000908152600860205260409020610ffd90836126dd565b5061100a6009838a6126e9565b505b61106f816040518060600160405280602a81526020016149e9602a91396005600086815260200190815260200160002060008d6001600160a01b03166001600160a01b03168152602001908152602001600020546126189092919063ffffffff16565b60008381526005602090815260408083206001600160a01b038e811685529252808320939093558a16815220546110a690826126ff565b60009283526005602090815260408085206001600160a01b038c1686529091529092209190915550600101610f5d565b50846001600160a01b0316866001600160a01b0316826001600160a01b03167f4a39dc06d4c0dbc64b70af90fd698a233a518aa5d07e595d983b8c0526c8f7fb8787604051611126929190613e04565b60405180910390a461113c818787878787612759565b505050505050565b60035460ff1681565b6000610b8861115a6120bd565b84610e73856007600061116b6120bd565b6001600160a01b03908116825260208083019390935260409182016000908120918c1681529252902054906126ff565b6111a36120bd565b600b546001600160a01b03908116911614611205576040805162461bcd60e51b815260206004820181905260248201527f4f776e61626c653a2063616c6c6572206973206e6f7420746865206f776e6572604482015290519081900360640190fd5b611211848484846128ba565b50505050565b6060815183511461123a5760405162461bcd60e51b8152600401610a7c906145a9565b6060835167ffffffffffffffff8111801561125457600080fd5b5060405190808252806020026020018201604052801561127e578160200160208202803683370190505b50905060005b845181101561134f5760006001600160a01b03168582815181106112a457fe5b60200260200101516001600160a01b031614156112d35760405162461bcd60e51b8152600401610a7c90614073565b600560008583815181106112e357fe5b60200260200101518152602001908152602001600020600086838151811061130757fe5b60200260200101516001600160a01b03166001600160a01b031681526020019081526020016000205482828151811061133c57fe5b6020908102919091010152600101611284565b509392505050565b6af8277896582678ac00000081565b6113703382612a5d565b50565b61137e338383612b78565b5050565b6001600160a01b031660009081527f1471eb6eb2c5e789fc3de43f8ce62938c7d1836ec861730447e2ada8fd81017b602052604090205490565b6012602052600090815260409020805460019091015482565b6113dd6120bd565b600b546001600160a01b0390811691161461143f576040805162461bcd60e51b815260206004820181905260248201527f4f776e61626c653a2063616c6c6572206973206e6f7420746865206f776e6572604482015290519081900360640190fd5b600b546040516000916001600160a01b0316907f8be0079c531659141344cd1fd0a4f28419497f9722a3daafe3b4186f6b6457e0908390a3600b80547fffffffffffffffffffffffff0000000000000000000000000000000000000000169055565b610dcd838383612b78565b6000610df48383612d53565b5060009160609150565b600b546001600160a01b031690565b6002805460408051602060018416156101000260001901909316849004601f81018490048402820184019092528181529291830182828015610b6c5780601f10610b4157610100808354040283529160200191610b6c565b6a295be96e6406697200000081565b600f546001600160a01b031681565b816001600160a01b03166115596120bd565b6001600160a01b031614156115805760405162461bcd60e51b8152600401610a7c9061454c565b806006600061158d6120bd565b6001600160a01b0390811682526020808301939093526040918201600090812091871680825291909352912080547fffffffffffffffffffffffffffffffffffffffffffffffffffffffffffffff0016921515929092179091556115ef6120bd565b6001600160a01b03167f17307eab39ab6107e8899845ad3d59bd9653f200f220920489ca2b5937696c31836040516116279190613e29565b60405180910390a35050565b6000610b886116406120bd565b84610e7385604051806060016040528060258152602001614a5c602591396007600061166a6120bd565b6001600160a01b03908116825260208083019390935260409182016000908120918d16815292529020549190612618565b6000610b886116a86120bd565b84846124a6565b6a084595161401484a00000081565b6116c66120bd565b600b546001600160a01b03908116911614611728576040805162461bcd60e51b815260206004820181905260248201527f4f776e61626c653a2063616c6c6572206973206e6f7420746865206f776e6572604482015290519081900360640190fd5b600e54600f546040517f095ea7b30000000000000000000000000000000000000000000000000000000081526000926001600160a01b039081169263095ea7b39261177d929091169060001990600401613ccc565b602060405180830381600087803b15801561179757600080fd5b505af11580156117ab573d6000803e3d6000fd5b505050506040513d601f19601f820116820180604052508101906117cf9190613b0c565b9050806113705760405162461bcd60e51b8152600401610a7c906142e7565b60006117fa6009612e6d565b905090565b6118076120bd565b600b546001600160a01b03908116911614611869576040805162461bcd60e51b815260206004820181905260248201527f4f776e61626c653a2063616c6c6572206973206e6f7420746865206f776e6572604482015290519081900360640190fd5b600f5461187e906001600160a01b0316611f4b565b565b6301e1338081565b600e546001600160a01b031681565b600d5474010000000000000000000000000000000000000000900460ff1681565b6b033b2e3c9fd0803ce800000081565b6b04d8c55aefb8c05b5c00000081565b6118e06120bd565b600b546001600160a01b03908116911614611942576040805162461bcd60e51b815260206004820181905260248201527f4f776e61626c653a2063616c6c6572206973206e6f7420746865206f776e6572604482015290519081900360640190fd5b600c80547fffffffffffffffffffffffff0000000000000000000000000000000000000000166001600160a01b038316908117909155604080517fa45611b60000000000000000000000000000000000000000000000000000000081529051633581777391839163a45611b691600480820192600092909190829003018186803b1580156119cf57600080fd5b505afa1580156119e3573d6000803e3d6000fd5b505050506040513d6000823e601f3d908101601f19168201604052611a0b9190810190613b60565b6040518263ffffffff1660e01b8152600401611a279190613e42565b60206040518083038186803b158015611a3f57600080fd5b505afa158015611a53573d6000803e3d6000fd5b505050506040513d601f19601f82011682018060405250810190611a7791906137b7565b600e80547fffffffffffffffffffffffff0000000000000000000000000000000000000000166001600160a01b03928316179055600c54604080517f3d2886a0000000000000000000000000000000000000000000000000000000008152905191909216916335817773918391633d2886a0916004808301926000929190829003018186803b158015611b0957600080fd5b505afa158015611b1d573d6000803e3d6000fd5b505050506040513d6000823e601f3d908101601f19168201604052611b459190810190613b60565b6040518263ffffffff1660e01b8152600401611b619190613e42565b60206040518083038186803b158015611b7957600080fd5b505afa158015611b8d573d6000803e3d6000fd5b505050506040513d601f19601f82011682018060405250810190611bb191906137b7565b600f80547fffffffffffffffffffffffff0000000000000000000000000000000000000000166001600160a01b039290921691909117905550565b60606000806000806001600d60149054906101000a900460ff16601154601054036010546000848054600181600116156101000203166002900480601f016020809104026020016040519081016040528092919081815260200182805460018160011615610100020316600290048015611ca75780601f10611c7c57610100808354040283529160200191611ca7565b820191906000526020600020905b815481529060010190602001808311611c8a57829003601f168201915b50505050509450945094509450945094509091929394565b600c546001600160a01b031681565b6001600160a01b03918216600090815260076020908152604080832093909416825291909152205490565b6001600160a01b03918216600090815260066020908152604080832093909416825291909152205460ff1690565b6b024306c4097859c43c00000081565b61137e8282612a5d565b6001600160a01b038416611d675760405162461bcd60e51b8152600401610a7c906141f6565b611d6f6120bd565b6001600160a01b0316856001600160a01b03161480611d955750611d95856109a56120bd565b611db15760405162461bcd60e51b8152600401610a7c90614164565b6000611dbb6120bd565b9050611ddb818787611dcc88612e78565b611dd588612e78565b8761113c565b6001841415611def57611def868685610dcd565b611df8846126c4565b15611e51576001600160a01b0386166000908152600860205260409020611e1f90856126d1565b506001600160a01b0385166000908152600860205260409020611e4290856126dd565b50611e4f600985876126e9565b505b611e98836040518060600160405280602a81526020016149e9602a913960008781526005602090815260408083206001600160a01b038d1684529091529020549190612618565b60008581526005602090815260408083206001600160a01b038b81168552925280832093909355871681522054611ecf90846126ff565b60008581526005602090815260408083206001600160a01b03808b168086529190935292819020939093559151909188811691908416907fc3d58168c5ae7397731d063d5bbf3d657854427343f4c083240f7aacaa2d0f6290611f359089908990614744565b60405180910390a461113c818787878787612ebc565b611f536120bd565b600b546001600160a01b03908116911614611fb5576040805162461bcd60e51b815260206004820181905260248201527f4f776e61626c653a2063616c6c6572206973206e6f7420746865206f776e6572604482015290519081900360640190fd5b6001600160a01b038116611ffa5760405162461bcd60e51b815260040180806020018281038252602681526020018061494f6026913960400191505060405180910390fd5b600b546040516001600160a01b038084169216907f8be0079c531659141344cd1fd0a4f28419497f9722a3daafe3b4186f6b6457e090600090a3600b80547fffffffffffffffffffffffff0000000000000000000000000000000000000000166001600160a01b0392909216919091179055565b60006001600160a01b0382166120965760405162461bcd60e51b8152600401610a7c90614016565b6001600160a01b0382166000908152600860205260409020610aaa90612e6d565b60115481565b3390565b6001600160a01b0383166120e75760405162461bcd60e51b8152600401610a7c906144ef565b6001600160a01b03821661210d5760405162461bcd60e51b8152600401610a7c906140d0565b6001600160a01b0380841660008181526007602090815260408083209487168084529490915290819020849055517f8c5be1e5ebec7d5bd14f71427d1e84f3dd0314c0f7b2291e5b200ac8c7c3b925906121689085906146f7565b60405180910390a3505050565b6000610df483836040518060400160405280601e81526020017f536166654d6174683a207375627472616374696f6e206f766572666c6f770000815250612618565b6001600160a01b0382166121dd5760405162461bcd60e51b8152600401610a7c90614435565b6121e982600083610dcd565b6122458160405180606001604052806022815260200161492d602291396001600160a01b03851660009081527f1471eb6eb2c5e789fc3de43f8ce62938c7d1836ec861730447e2ada8fd81017b60205260409020549190612618565b6001600160a01b03831660009081527f1471eb6eb2c5e789fc3de43f8ce62938c7d1836ec861730447e2ada8fd81017b6020908152604082209290925560019052600490527fabd6e7cb50984ff9c2f3e18a2660c3353dadf4e3291deeb275dae2cd1e44fe05546122b69082612175565b6001600090815260046020527fabd6e7cb50984ff9c2f3e18a2660c3353dadf4e3291deeb275dae2cd1e44fe05919091556040516001600160a01b038416907fddf252ad1be2c89b69c2b068fc378daa952ba7f163c4a11628f55a4df523b3ef906116279085906146f7565b6001600160a01b0383166123485760405162461bcd60e51b8152600401610a7c9061431e565b60006123526120bd565b90506123828185600061236487612e78565b61236d87612e78565b6040518060200160405280600081525061113c565b81156123b8576001600160a01b03841660009081526008602052604090206123aa90846126d1565b506123b6600984612fd7565b505b6123ff826040518060600160405280602481526020016149756024913960008681526005602090815260408083206001600160a01b038b1684529091529020549190612618565b60008481526005602090815260408083206001600160a01b03891684528252808320939093558582526004905220546124389083612175565b6000848152600460205260408082209290925590516001600160a01b0386811691908416907fc3d58168c5ae7397731d063d5bbf3d657854427343f4c083240f7aacaa2d0f629061248c9088908890614744565b60405180910390a450505050565b6000610df48383612fe3565b6001600160a01b0383166124cc5760405162461bcd60e51b8152600401610a7c90614492565b6001600160a01b0382166124f25760405162461bcd60e51b8152600401610a7c90613f27565b6124fd838383610dcd565b61255981604051806060016040528060268152602001614999602691396001600160a01b03861660009081527f1471eb6eb2c5e789fc3de43f8ce62938c7d1836ec861730447e2ada8fd81017b60205260409020549190612618565b6001600160a01b0384811660009081527f1471eb6eb2c5e789fc3de43f8ce62938c7d1836ec861730447e2ada8fd81017b602052604080822093909355908416815220546125a790826126ff565b6001600160a01b0380841660008181527f1471eb6eb2c5e789fc3de43f8ce62938c7d1836ec861730447e2ada8fd81017b602052604090819020939093559151908516907fddf252ad1be2c89b69c2b068fc378daa952ba7f163c4a11628f55a4df523b3ef906121689085906146f7565b600081848411156126a75760405162461bcd60e51b81526004018080602001828103825283818151815260200191508051906020019080838360005b8381101561266c578181015183820152602001612654565b50505050905090810190601f1680156126995780820380516001836020036101000a031916815260200191505b509250505060405180910390fd5b505050900390565b60006126bc848484613047565b949350505050565b6000610aaa6009836130d4565b6000610df483836130e0565b6000610df483836131a6565b60006126bc84846001600160a01b0385166131f0565b600082820183811015610df4576040805162461bcd60e51b815260206004820152601b60248201527f536166654d6174683a206164646974696f6e206f766572666c6f770000000000604482015290519081900360640190fd5b61276b846001600160a01b0316613287565b1561113c576040517fbc197c810000000000000000000000000000000000000000000000000000000081526001600160a01b0385169063bc197c81906127bd9089908990889088908890600401613d2a565b602060405180830381600087803b1580156127d757600080fd5b505af1925050508015612807575060408051601f3d908101601f1916820190925261280491810190613b44565b60015b612850576128136147f6565b8061281e5750612838565b8060405162461bcd60e51b8152600401610a7c9190613e42565b60405162461bcd60e51b8152600401610a7c90613e93565b7fffffffff0000000000000000000000000000000000000000000000000000000081167fbc197c8100000000000000000000000000000000000000000000000000000000146128b15760405162461bcd60e51b8152600401610a7c90613f84565b50505050505050565b6001600160a01b0384166128e05760405162461bcd60e51b8152600401610a7c90614663565b8115806128f357506128f1836126c4565b155b61290f5760405162461bcd60e51b8152600401610a7c9061437b565b60006129196120bd565b905061292b81600087611dcc88612e78565b826001148015612941575061293f8461328d565b155b801561294e575060018414155b15612984576001600160a01b038516600090815260086020526040902061297590856126dd565b50612982600985876126e9565b505b60008481526005602090815260408083206001600160a01b03891684529091529020546129b190846126ff565b60008581526005602090815260408083206001600160a01b038a1684528252808320939093558682526004905220546129ea90846126ff565b6000858152600460205260408082209290925590516001600160a01b038088169291908416907fc3d58168c5ae7397731d063d5bbf3d657854427343f4c083240f7aacaa2d0f6290612a3f9089908990614744565b60405180910390a4612a5681600087878787612ebc565b5050505050565b600e546040517f23b872dd0000000000000000000000000000000000000000000000000000000081526000916001600160a01b0316906323b872dd90612aab90869030908790600401613d06565b602060405180830381600087803b158015612ac557600080fd5b505af1158015612ad9573d6000803e3d6000fd5b505050506040513d601f19601f82011682018060405250810190612afd9190613b0c565b905080612b1c5760405162461bcd60e51b8152600401610a7c9061412d565b601054612b2990836126ff565b601055612b3683836132a1565b7f06239653922ac7bea6aa2b19dc486b9361821d37712eb796adfd38d81de278ca8383601054604051612b6b93929190613ce5565b60405180910390a1505050565b612b806136c5565b506001600160a01b0383166000908152601260209081526040918290208251808401909352805483526001015490820181905215612bd05760405162461bcd60e51b8152600401610a7c906141c1565b601154612bdd90836126ff565b6010541015612bfe5760405162461bcd60e51b8152600401610a7c906142b0565b6000612c0a8484612d53565b83835260208084018681526001600160a01b038816600090815260129092526040909120845181559051600190910155601154909150612c4a90846126ff565b601155600e546040517f23b872dd0000000000000000000000000000000000000000000000000000000081526000916001600160a01b0316906323b872dd90612c9b90899030908790600401613d06565b602060405180830381600087803b158015612cb557600080fd5b505af1158015612cc9573d6000803e3d6000fd5b505050506040513d601f19601f82011682018060405250810190612ced9190613b0c565b905080612d0c5760405162461bcd60e51b8152600401610a7c9061412d565b7f1cd728a6e764ed0dcddb6e5b88d736a4a8d2a0d420ca373588f7a1109e18663f868584601154604051612d439493929190613dcb565b60405180910390a1505050505050565b6000601054612d6d836011546126ff90919063ffffffff16565b1115612d8b5760405162461bcd60e51b8152600401610a7c90613fe1565b600060105411612dad5760405162461bcd60e51b8152600401610a7c90613ef0565b6000612de8601054612de26a084595161401484a000000606402612ddc876011546126ff90919063ffffffff16565b906133f3565b9061344c565b905060006b024306c4097859c43c000000821015612e1057612e098261348e565b9050612e1c565b612e19826134b5565b90505b612e31816a295be96e64066972000000613559565b90506000612e476301e13380612de288856133f3565b9050612e636b033b2e3c9fd0803ce8000000612de287846133f3565b9695505050505050565b6000610aaa82613570565b604080516001808252818301909252606091829190602080830190803683370190505090508281600081518110612eab57fe5b602090810291909101015292915050565b612ece846001600160a01b0316613287565b1561113c576040517ff23a6e610000000000000000000000000000000000000000000000000000000081526001600160a01b0385169063f23a6e6190612f209089908990889088908890600401613d88565b602060405180830381600087803b158015612f3a57600080fd5b505af1925050508015612f6a575060408051601f3d908101601f19168201909252612f6791810190613b44565b60015b612f76576128136147f6565b7fffffffff0000000000000000000000000000000000000000000000000000000081167ff23a6e6100000000000000000000000000000000000000000000000000000000146128b15760405162461bcd60e51b8152600401610a7c90613f84565b6000610df48383613574565b815460009082106130255760405162461bcd60e51b815260040180806020018281038252602281526020018061490b6022913960400191505060405180910390fd5b82600001828154811061303457fe5b9060005260206000200154905092915050565b600082815260018401602052604081205482816130a55760405162461bcd60e51b815260206004820181815283516024840152835190928392604490910191908501908083836000831561266c578181015183820152602001612654565b508460000160018203815481106130b857fe5b9060005260206000209060020201600101549150509392505050565b6000610df48383613648565b6000818152600183016020526040812054801561319c578354600019808301919081019060009087908390811061311357fe5b906000526020600020015490508087600001848154811061313057fe5b60009182526020808320909101929092558281526001898101909252604090209084019055865487908061316057fe5b60019003818190600052602060002001600090559055866001016000878152602001908152602001600020600090556001945050505050610aaa565b6000915050610aaa565b60006131b28383613648565b6131e857508154600181810184556000848152602080822090930184905584548482528286019093526040902091909155610aaa565b506000610aaa565b600082815260018401602052604081205480613255575050604080518082018252838152602080820184815286546001818101895560008981528481209551600290930290950191825591519082015586548684528188019092529290912055610df4565b8285600001600183038154811061326857fe5b9060005260206000209060020201600101819055506000915050610df4565b3b151590565b600090815260046020526040902054151590565b6001600160a01b0382166132c75760405162461bcd60e51b8152600401610a7c906146c0565b6132d360008383610dcd565b6001600160a01b03821660009081527f1471eb6eb2c5e789fc3de43f8ce62938c7d1836ec861730447e2ada8fd81017b602052604090205461331590826126ff565b6001600160a01b03831660009081527f1471eb6eb2c5e789fc3de43f8ce62938c7d1836ec861730447e2ada8fd81017b6020908152604082209290925560019052600490527fabd6e7cb50984ff9c2f3e18a2660c3353dadf4e3291deeb275dae2cd1e44fe055461338690826126ff565b6001600090815260046020527fabd6e7cb50984ff9c2f3e18a2660c3353dadf4e3291deeb275dae2cd1e44fe05919091556040516001600160a01b03841691907fddf252ad1be2c89b69c2b068fc378daa952ba7f163c4a11628f55a4df523b3ef906116279085906146f7565b60008261340257506000610aaa565b8282028284828161340f57fe5b0414610df45760405162461bcd60e51b8152600401808060200182810382526021815260200180614a136021913960400191505060405180910390fd5b6000610df483836040518060400160405280601a81526020017f536166654d6174683a206469766973696f6e206279207a65726f000000000000815250613660565b6000610aaa6b024306c4097859c43c000000612de2846af8277896582678ac0000006133f3565b6000806135086134dd6b033b2e3c9fd0803ce80000006b024306c4097859c43c000000612175565b612de26134f6866b024306c4097859c43c000000612175565b6a084595161401484a000000906133f3565b9050610df46135476a084595161401484a000000612de26135406b04d8c55aefb8c05b5c0000006af8277896582678ac000000612175565b85906133f3565b6af8277896582678ac000000906126ff565b6000818310156135695781610df4565b5090919050565b5490565b6000818152600183016020526040812054801561319c57835460001980830191908101906000908790839081106135a757fe5b90600052602060002090600202019050808760000184815481106135c757fe5b60009182526020808320845460029093020191825560019384015491840191909155835482528983019052604090209084019055865487908061360657fe5b6000828152602080822060026000199094019384020182815560019081018390559290935588815289820190925260408220919091559450610aaa9350505050565b60009081526001919091016020526040902054151590565b600081836136af5760405162461bcd60e51b815260206004820181815283516024840152835190928392604490910191908501908083836000831561266c578181015183820152602001612654565b5060008385816136bb57fe5b0495945050505050565b604051806040016040528060008152602001600081525090565b600082601f8301126136ef578081fd5b81356137026136fd82614784565b614760565b81815291506020808301908481018184028601820187101561372357600080fd5b60005b8481101561374257813584529282019290820190600101613726565b505050505092915050565b600082601f83011261375d578081fd5b813561376b6136fd826147a2565b915080825283602082850101111561378257600080fd5b8060208401602084013760009082016020015292915050565b6000602082840312156137ac578081fd5b8135610df4816148b9565b6000602082840312156137c8578081fd5b8151610df4816148b9565b600080604083850312156137e5578081fd5b82356137f0816148b9565b91506020830135613800816148b9565b809150509250929050565b600080600080600060a08688031215613822578081fd5b853561382d816148b9565b9450602086013561383d816148b9565b9350604086013567ffffffffffffffff80821115613859578283fd5b61386589838a016136df565b9450606088013591508082111561387a578283fd5b61388689838a016136df565b9350608088013591508082111561389b578283fd5b506138a88882890161374d565b9150509295509295909350565b6000806000606084860312156138c9578283fd5b83356138d4816148b9565b925060208401356138e4816148b9565b929592945050506040919091013590565b600080600080600060a0868803121561390c578081fd5b8535613917816148b9565b94506020860135613927816148b9565b93506040860135925060608601359150608086013567ffffffffffffffff811115613950578182fd5b6138a88882890161374d565b6000806040838503121561396e578182fd5b8235613979816148b9565b91506020830135613800816148ce565b6000806040838503121561399b578182fd5b82356139a6816148b9565b946020939093013593505050565b6000806000606084860312156139c8578283fd5b83356139d3816148b9565b95602085013595506040909401359392505050565b600080600080608085870312156139fd578182fd5b8435613a08816148b9565b93506020850135925060408501359150606085013567ffffffffffffffff811115613a31578182fd5b613a3d8782880161374d565b91505092959194509250565b60008060408385031215613a5b578182fd5b823567ffffffffffffffff80821115613a72578384fd5b818501915085601f830112613a85578384fd5b8135613a936136fd82614784565b80828252602080830192508086018a828387028901011115613ab3578889fd5b8896505b84871015613ade578035613aca816148b9565b845260019690960195928101928101613ab7565b509096508701359350505080821115613af5578283fd5b50613b02858286016136df565b9150509250929050565b600060208284031215613b1d578081fd5b8151610df4816148ce565b600060208284031215613b39578081fd5b8135610df4816148dc565b600060208284031215613b55578081fd5b8151610df4816148dc565b600060208284031215613b71578081fd5b815167ffffffffffffffff811115613b87578182fd5b8201601f81018413613b97578182fd5b8051613ba56136fd826147a2565b818152856020838501011115613bb9578384fd5b613bca8260208301602086016147c4565b95945050505050565b600060208284031215613be4578081fd5b5035919050565b60008060408385031215613bfd578182fd5b50508035926020909101359150565b6000815180845260208085019450808401835b83811015613c445781516001600160a01b031687529582019590820190600101613c1f565b509495945050505050565b6000815180845260208085019450808401835b83811015613c4457815187529582019590820190600101613c62565b60008151808452613c968160208601602086016147c4565b601f01601f19169290920160200192915050565b60048110613cb457fe5b9052565b6001600160a01b0391909116815260200190565b6001600160a01b03929092168252602082015260400190565b6001600160a01b039390931683526020830191909152604082015260600190565b6001600160a01b039384168152919092166020820152604081019190915260600190565b60006001600160a01b03808816835280871660208401525060a06040830152613d5660a0830186613c4f565b8281036060840152613d688186613c4f565b90508281036080840152613d7c8185613c7e565b98975050505050505050565b60006001600160a01b03808816835280871660208401525084604083015283606083015260a06080830152613dc060a0830184613c7e565b979650505050505050565b6001600160a01b0394909416845260208401929092526040830152606082015260800190565b600060208252610df46020830184613c4f565b600060408252613e176040830185613c4f565b8281036020840152613bca8185613c4f565b901515815260200190565b60208101610aaa8284613caa565b600060208252610df46020830184613c7e565b600060a08252613e6860a0830188613c7e565b9050613e776020830187613caa565b8460408301528360608301528260808301529695505050505050565b60208082526034908201527f455243313135353a207472616e7366657220746f206e6f6e204552433131353560408201527f526563656976657220696d706c656d656e746572000000000000000000000000606082015260800190565b60208082526011908201527f54686520706f6f6c20697320656d707479000000000000000000000000000000604082015260600190565b60208082526023908201527f45524332303a207472616e7366657220746f20746865207a65726f206164647260408201527f6573730000000000000000000000000000000000000000000000000000000000606082015260800190565b60208082526028908201527f455243313135353a204552433131353552656365697665722072656a6563746560408201527f6420746f6b656e73000000000000000000000000000000000000000000000000606082015260800190565b6020808252818101527f526571756972696e67206d6f7265207468616e20746865726520657869737473604082015260600190565b6020808252602b908201527f455243313135353a2062616c616e636520717565727920666f7220746865207a60408201527f65726f2061646472657373000000000000000000000000000000000000000000606082015260800190565b60208082526031908201527f455243313135353a2062617463682062616c616e636520717565727920666f7260408201527f20746865207a65726f2061646472657373000000000000000000000000000000606082015260800190565b60208082526022908201527f45524332303a20617070726f766520746f20746865207a65726f20616464726560408201527f7373000000000000000000000000000000000000000000000000000000000000606082015260800190565b6020808252601d908201527f4661696c656420746f207472616e736665722044414920746f6b656e73000000604082015260600190565b60208082526029908201527f455243313135353a2063616c6c6572206973206e6f74206f776e6572206e6f7260408201527f20617070726f7665640000000000000000000000000000000000000000000000606082015260800190565b6020808252818101527f54686520706f6c69637920686f6c64657220616c726561647920657869737473604082015260600190565b60208082526025908201527f455243313135353a207472616e7366657220746f20746865207a65726f20616460408201527f6472657373000000000000000000000000000000000000000000000000000000606082015260800190565b60208082526032908201527f455243313135353a207472616e736665722063616c6c6572206973206e6f742060408201527f6f776e6572206e6f7220617070726f7665640000000000000000000000000000606082015260800190565b6020808252601e908201527f4e6f7420656e6f75676820617661696c61626c65206c69717569646974790000604082015260600190565b6020808252601c908201527f4661696c656420746f20617070726f76652044414920746f6b656e7300000000604082015260600190565b60208082526023908201527f455243313135353a206275726e2066726f6d20746865207a65726f206164647260408201527f6573730000000000000000000000000000000000000000000000000000000000606082015260800190565b60208082526021908201527f455243313135353a204e465420746f6b656e20616c7265616479206d696e746560408201527f6400000000000000000000000000000000000000000000000000000000000000606082015260800190565b6020808252603f908201527f54686520616d6f756e7420746f2062652077697468647261776e20697320677260408201527f6561746572207468616e20746865206465706f736974656420616d6f756e7400606082015260800190565b60208082526021908201527f45524332303a206275726e2066726f6d20746865207a65726f2061646472657360408201527f7300000000000000000000000000000000000000000000000000000000000000606082015260800190565b60208082526025908201527f45524332303a207472616e736665722066726f6d20746865207a65726f20616460408201527f6472657373000000000000000000000000000000000000000000000000000000606082015260800190565b60208082526024908201527f45524332303a20617070726f76652066726f6d20746865207a65726f2061646460408201527f7265737300000000000000000000000000000000000000000000000000000000606082015260800190565b60208082526029908201527f455243313135353a2073657474696e6720617070726f76616c2073746174757360408201527f20666f722073656c660000000000000000000000000000000000000000000000606082015260800190565b60208082526029908201527f455243313135353a206163636f756e747320616e6420696473206c656e67746860408201527f206d69736d617463680000000000000000000000000000000000000000000000606082015260800190565b60208082526028908201527f455243313135353a2069647320616e6420616d6f756e7473206c656e6774682060408201527f6d69736d61746368000000000000000000000000000000000000000000000000606082015260800190565b60208082526021908201527f455243313135353a206d696e7420746f20746865207a65726f2061646472657360408201527f7300000000000000000000000000000000000000000000000000000000000000606082015260800190565b6020808252601f908201527f45524332303a206d696e7420746f20746865207a65726f206164647265737300604082015260600190565b90815260200190565b6000838252604060208301526126bc6040830184613c0c565b6000848252606060208301526147326060830185613c0c565b8281036040840152612e638185613c4f565b918252602082015260400190565b60ff91909116815260200190565b60405181810167ffffffffffffffff8111828210171561477c57fe5b604052919050565b600067ffffffffffffffff82111561479857fe5b5060209081020190565b600067ffffffffffffffff8211156147b657fe5b50601f01601f191660200190565b60005b838110156147df5781810151838201526020016147c7565b838111156112115750506000910152565b60e01c90565b600060443d101561480657610d4d565b600481823e6308c379a061481a82516147f0565b1461482457610d4d565b6040517ffffffffffffffffffffffffffffffffffffffffffffffffffffffffffffffffc3d016004823e80513d67ffffffffffffffff81602484011181841117156148725750505050610d4d565b8284019250825191508082111561488c5750505050610d4d565b503d830160208284010111156148a457505050610d4d565b601f01601f1916810160200160405291505090565b6001600160a01b038116811461137057600080fd5b801515811461137057600080fd5b7fffffffff000000000000000000000000000000000000000000000000000000008116811461137057600080fdfe456e756d657261626c655365743a20696e646578206f7574206f6620626f756e647345524332303a206275726e20616d6f756e7420657863656564732062616c616e63654f776e61626c653a206e6577206f776e657220697320746865207a65726f2061646472657373455243313135353a206275726e20616d6f756e7420657863656564732062616c616e636545524332303a207472616e7366657220616d6f756e7420657863656564732062616c616e6365455243313135353a206f776e657220717565727920666f72206e6f6e6578697374656e7420746f6b656e455243313135353a20696e73756666696369656e742062616c616e636520666f72207472616e73666572536166654d6174683a206d756c7469706c69636174696f6e206f766572666c6f7745524332303a207472616e7366657220616d6f756e74206578636565647320616c6c6f77616e636545524332303a2064656372656173656420616c6c6f77616e63652062656c6f77207a65726fa2646970667358221220472b0ed6c03ded58b2e836aeb02ca6aa5f2ad4a0f4207bf0cf4104a94b1b298764736f6c63430007040033",
  "immutableReferences": {},
  "source": "// SPDX-License-Identifier: MIT\npragma solidity ^0.7.4;\npragma experimental ABIEncoderV2;\n\nimport \"@openzeppelin/contracts/access/Ownable.sol\";\nimport \"@openzeppelin/contracts/math/SafeMath.sol\";\nimport \"@openzeppelin/contracts/math/Math.sol\";\n\nimport \"./interfaces/IPolicyBook.sol\";\nimport \"./interfaces/IPolicyBookFabric.sol\";\n\nimport \"./ContractsRegistry.sol\";\nimport \"./tokens/ERC1155NFTMintableBurnable.sol\";\n\ncontract PolicyBook is IPolicyBook, ERC1155NFTMintableBurnable {\n  using SafeMath for uint256;\n  using Math for uint256;\n\n  uint256 constant private MAX_INT = 2**256 - 1;\n\n  ContractsRegistry public contractsRegistry;\n\n  address public override insuranceContractAddress;\n  IPolicyBookFabric.ContractType public override contractType;\n  \n  IERC20 public daiToken;\n  address public bmiDaiStakingAddress;\n\n  uint256 public totalLiquidity;\n  uint256 public totalCoverTokens;\n\n  struct PolicyHolder {\n    uint256 coverTokens;\n    uint256 durationSeconds;    \n  }\n\n  mapping(address => PolicyHolder) public policyHolders;\n\n  event AddLiquidity(address _liquidityHolder, uint256 _liqudityAmount, uint256 _newTotalLiquidity);\n  event WithdrawLiquidity(address _liquidityHolder, uint256 _tokensToWithdraw, uint256 _newTotalLiquidity);\n  event BuyPolicy(address _policyHolder, uint256 _coverTokens, uint256 _price, uint256 _newTotalCoverTokens);\n\n  constructor(    \n    address _insuranceContract,\n    IPolicyBookFabric.ContractType _contractType,    \n    string memory _description,\n    string memory _projectSymbol\n  ) ERC1155NFTMintableBurnable(_description, string(abi.encodePacked(\"bmiDAI\", _projectSymbol))) {    \n    insuranceContractAddress = _insuranceContract;\n    contractType = _contractType;       \n  }\n\n  function initRegistry(ContractsRegistry _contractsRegistry) external onlyOwner {\n    contractsRegistry = _contractsRegistry;\n    \n    daiToken = IERC20(_contractsRegistry.getContract(_contractsRegistry.getDAIName()));\n    bmiDaiStakingAddress = contractsRegistry.getContract(contractsRegistry.getBmiDAIStakingName());    \n  }  \n\n  function approveAllDaiTokensForStaking() external onlyOwner {\n    bool _success = daiToken.approve(bmiDaiStakingAddress, MAX_INT);\n\n    require(_success, \"Failed to approve DAI tokens\");\n  }\n\n  /// @notice Should be called after initRegistry() and approveAllDaiTokensForStaking()\n  function transferNFTMintingAndBurningOwnershipToStaking() external onlyOwner {\n    transferOwnership(bmiDaiStakingAddress);\n  }\n\n  receive() external payable {}\n\n  function quoteStrategy() external view override returns (address _quoteStrategy) {\n    return address(0);\n  }\n\n  function shieldAssets(uint256 _offset, uint256 _limit)\n    external\n    view\n    override\n    returns (uint256 _shieldAssetsCount, address[] memory _shieldAssets)\n  {\n    address[] memory temp;\n    return (0, temp);\n  }\n\n  function shieldAssetsWithBalance(uint256 _offset, uint256 _limit)\n    external\n    view\n    override\n    returns (\n      uint256 _shieldAssetsCount,\n      address[] memory _shieldAssets,\n      uint256[] memory _shieldAssetBalance\n    )\n  {\n    address[] memory temp1;\n    uint256[] memory temp2;\n    return (0, temp1, temp2);\n  }\n\n  function shieldAssetsCount() external view override returns (uint256 _shieldAssetsCount) {\n    return 0;\n  }\n\n  function addShieldTokens(address _tokenAddress, uint256 _tokensAmount) external override returns (bool _success) {\n    return false;\n  }\n\n  function buyPolicy(\n    uint256 _durationSeconds,\n    uint256 _coverTokens   \n  ) external override {\n    _buyPolicyFor(msg.sender, _durationSeconds, _coverTokens);\n  }\n\n  function buyPolicyFor(\n    address _policyHolderAddr,\n    uint256 _durationSeconds,\n    uint256 _coverTokens    \n  ) external override {\n    _buyPolicyFor(_policyHolderAddr, _durationSeconds, _coverTokens);\n  }\n\n  function _buyPolicyFor(\n    address _policyHolderAddr,\n    uint256 _durationSeconds,\n    uint256 _coverTokens\n  ) internal {\n    PolicyHolder memory _policyHolder = policyHolders[_policyHolderAddr];\n    require(_policyHolder.durationSeconds == 0, \"The policy holder already exists\");\n    require(totalLiquidity >= totalCoverTokens.add(_coverTokens), \"Not enough available liquidity\");\n\n    uint256 _price = _getQuote(_durationSeconds, _coverTokens);\n\n    _policyHolder.coverTokens = _coverTokens;\n    _policyHolder.durationSeconds = _durationSeconds;    \n\n    policyHolders[_policyHolderAddr] = _policyHolder;\n    totalCoverTokens = totalCoverTokens.add(_coverTokens);\n\n    bool _success = daiToken.transferFrom(_policyHolderAddr, address(this), _price);\n    require(_success, \"Failed to transfer DAI tokens\");\n\n    emit BuyPolicy(_policyHolderAddr, _coverTokens, _price, totalCoverTokens);\n  }\n\n  function addLiquidity(uint256 _liqudityAmount) external override {\n    _addLiquidityFor(msg.sender, _liqudityAmount);\n  }\n\n  function addLiquidityFor(address _liquidityHolderAddr, uint256 _liqudityAmount) external override {\n    _addLiquidityFor(_liquidityHolderAddr, _liqudityAmount);\n  }\n\n  function _addLiquidityFor(address _liquidityHolderAddr, uint256 _liqudityAmount) internal {\n    bool _success = daiToken.transferFrom(_liquidityHolderAddr, address(this), _liqudityAmount);\n    require(_success, \"Failed to transfer DAI tokens\");\n\n    totalLiquidity = totalLiquidity.add(_liqudityAmount);\n    _mintERC20(_liquidityHolderAddr, _liqudityAmount);\n\n    emit AddLiquidity(_liquidityHolderAddr, _liqudityAmount, totalLiquidity);\n  }\n\n  function withdrawLiquidity(uint256 _tokensToWithdraw) external override {\n    require(\n      balanceOf(msg.sender) >= _tokensToWithdraw,\n      \"The amount to be withdrawn is greater than the deposited amount\"\n    );\n    require(totalLiquidity.sub(_tokensToWithdraw) >= totalCoverTokens, \"Not enough available liquidity\");\n\n    bool _success = daiToken.transfer(msg.sender, _tokensToWithdraw);\n    require(_success, \"Failed to transfer DAI tokens\");\n\n    totalLiquidity = totalLiquidity.sub(_tokensToWithdraw);\n    _burnERC20(msg.sender, _tokensToWithdraw);\n\n    emit WithdrawLiquidity(msg.sender, _tokensToWithdraw, totalLiquidity);\n  }\n\n  function _calculateInterest(address _policyHolder) internal view returns (uint256) {\n    return 0;\n  }\n\n  function rewardForUnclaimedExpiredPolicy(uint256 _policyId) external override {}\n\n  function stats()\n    external\n    view\n    override\n    returns (\n      string memory _name,\n      IPolicyBookFabric.ContractType _contractType,\n      uint256 _maxCapacities,\n      uint256 _totalDaiLiquidity,\n      uint256 _annualProfitYields\n    )\n  {\n    // TODO APY\n    return (name, contractType, totalLiquidity - totalCoverTokens, totalLiquidity, 0);\n  }\n\n  uint256 public constant SECONDS_IN_THE_YEAR = 365 * 24 * 60 * 60; // 365 days * 24 hours * 60 minutes * 60 seconds\n  uint256 public constant PRECISION = 10**25;\n  uint256 public constant PERCENTAGE_100 = 100 * PRECISION;\n\n  uint256 public constant MINIMUM_COST_PERCENTAGE = 5 * PRECISION;\n  uint256 public constant RISKY_ASSET_THRESHOLD_PERCENTAGE = 70 * PRECISION;\n  uint256 public constant MAXIMUM_COST_NOT_RISKY_PERCENTAGE = 30 * PRECISION;\n  uint256 public constant MAXIMUM_COST_100_UTILIZATION_PERCENTAGE = 150 * PRECISION;\n\n  function calculateWhenNotRisky(uint256 _utilizationRatioPercentage) private pure returns (uint256) {\n    return (_utilizationRatioPercentage.mul(MAXIMUM_COST_NOT_RISKY_PERCENTAGE)).div(RISKY_ASSET_THRESHOLD_PERCENTAGE);\n  }\n\n  function calculateWhenIsRisky(uint256 _utilizationRatioPercentage) private pure returns (uint256) {\n    uint256 riskyRelation =\n      (PRECISION.mul(_utilizationRatioPercentage.sub(RISKY_ASSET_THRESHOLD_PERCENTAGE))).div(\n        (PERCENTAGE_100.sub(RISKY_ASSET_THRESHOLD_PERCENTAGE))\n      );\n\n    return\n      MAXIMUM_COST_NOT_RISKY_PERCENTAGE.add(\n        (riskyRelation.mul(MAXIMUM_COST_100_UTILIZATION_PERCENTAGE.sub(MAXIMUM_COST_NOT_RISKY_PERCENTAGE))).div(\n          PRECISION\n        )\n      );\n  }\n\n  function getQuote(uint256 _durationSeconds, uint256 _tokens) external view override returns (uint256 _daiTokens) {\n    _daiTokens = _getQuote(_durationSeconds, _tokens);\n  }\n\n  function _getQuote(uint256 _durationSeconds, uint256 _tokens) internal view returns (uint256) {\n    require(totalCoverTokens.add(_tokens) <= totalLiquidity, \"Requiring more than there exists\");\n    require(totalLiquidity > 0, \"The pool is empty\");\n\n    uint256 utilizationRatioPercentage = ((totalCoverTokens.add(_tokens)).mul(PERCENTAGE_100)).div(totalLiquidity);\n\n    uint256 annualInsuranceCostPercentage;\n\n    if (utilizationRatioPercentage < RISKY_ASSET_THRESHOLD_PERCENTAGE) {\n      annualInsuranceCostPercentage = calculateWhenNotRisky(utilizationRatioPercentage);\n    } else {\n      annualInsuranceCostPercentage = calculateWhenIsRisky(utilizationRatioPercentage);\n    }\n\n    annualInsuranceCostPercentage = Math.max(annualInsuranceCostPercentage, MINIMUM_COST_PERCENTAGE);\n\n    uint256 actualInsuranceCostPercentage = \n      (_durationSeconds.mul(annualInsuranceCostPercentage)).div(SECONDS_IN_THE_YEAR);\n\n    return (_tokens.mul(actualInsuranceCostPercentage)).div(PERCENTAGE_100);\n  }\n}\n",
  "sourcePath": "/home/artem/Projects/Distributed_Lab/Applicature/bridgemutual-core/contracts/PolicyBook.sol",
  "compiler": {
    "name": "solc",
    "version": "0.7.4+commit.3f05b770.Emscripten.clang"
  },
  "schemaVersion": "3.3.3",
  "updatedAt": "2021-01-26T15:28:29.558Z",
  "devdoc": {
    "kind": "dev",
    "methods": {
      "addLiquidity(uint256)": {
        "params": {
          "_liqudityAmount": "is amount of DAI tokens to secure"
        }
      },
      "addLiquidityFor(address,uint256)": {
        "params": {
          "_liqudityAmount": "is amount of DAI tokens to secure",
          "_liquidityHolderAddr": "is address of address to assign cover"
        }
      },
      "addShieldTokens(address,uint256)": {
        "params": {
          "_tokenAddress": "is address of reward token to add",
          "_tokensAmount": "is max amount of reward to operate on"
        },
        "returns": {
          "_success": "is indicator if purchase is successful, it will throw exception if unsuccessful"
        }
      },
      "balanceOf(address,uint256)": {
        "details": "Returns the amount of tokens of token type `id` owned by `account`. Requirements: - `account` cannot be the zero address."
      },
      "balanceOfBatch(address[],uint256[])": {
        "details": "xref:ROOT:erc1155.adoc#batch-operations[Batched] version of {balanceOf}. Requirements: - `accounts` and `ids` must have the same length."
      },
      "buyPolicy(uint256,uint256)": {
        "params": {
          "_coverTokens": "is number of tokens to cover  ",
          "_durationSeconds": "is number of seconds to cover"
        }
      },
      "buyPolicyFor(address,uint256,uint256)": {
        "params": {
          "_coverTokens": "is number of tokens to cover  ",
          "_durationSeconds": "is number of seconds to cover",
          "_policyHolderAddr": "is address of address to assign cover"
        }
      },
      "getQuote(uint256,uint256)": {
        "params": {
          "_durationSeconds": "is number of seconds to cover",
          "_tokens": "is number of tokens to cover"
        },
        "returns": {
          "_daiTokens": "is amount of DAI policy costs"
        }
      },
      "isApprovedForAll(address,address)": {
        "details": "Returns true if `operator` is approved to transfer ``account``'s tokens. See {setApprovalForAll}."
      },
      "owner()": {
        "details": "Returns the address of the current owner."
      },
      "quoteStrategy()": {
        "returns": {
          "_quoteStrategy": "is address of Quote strategy contract used to calculate quote"
        }
      },
      "renounceOwnership()": {
        "details": "Leaves the contract without owner. It will not be possible to call `onlyOwner` functions anymore. Can only be called by the current owner. NOTE: Renouncing ownership will leave the contract without an owner, thereby removing any functionality that is only available to the owner."
      },
      "rewardForUnclaimedExpiredPolicy(uint256)": {
        "params": {
          "_policyId": "is id of policy to get reward for, reward will be sent to policy holder"
        }
      },
      "safeBatchTransferFrom(address,address,uint256[],uint256[],bytes)": {
        "details": "xref:ROOT:erc1155.adoc#batch-operations[Batched] version of {safeTransferFrom}. Emits a {TransferBatch} event. Requirements: - `ids` and `amounts` must have the same length. - If `to` refers to a smart contract, it must implement {IERC1155Receiver-onERC1155BatchReceived} and return the acceptance magic value."
      },
      "safeTransferFrom(address,address,uint256,uint256,bytes)": {
        "details": "Transfers `amount` tokens of token type `id` from `from` to `to`. Emits a {TransferSingle} event. Requirements: - `to` cannot be the zero address. - If the caller is not `from`, it must be have been approved to spend ``from``'s tokens via {setApprovalForAll}. - `from` must have a balance of tokens of type `id` of at least `amount`. - If `to` refers to a smart contract, it must implement {IERC1155Receiver-onERC1155Received} and return the acceptance magic value."
      },
      "setApprovalForAll(address,bool)": {
        "details": "Grants or revokes permission to `operator` to transfer the caller's tokens, according to `approved`, Emits an {ApprovalForAll} event. Requirements: - `operator` cannot be the caller."
      },
      "shieldAssets(uint256,uint256)": {
        "params": {
          "_limit": "is number of policy books to returns from _offset",
          "_offset": "is starting item in array to return array from"
        },
        "returns": {
          "_shieldAssets": "is addresses of shield assets, that will be distributed to Policy givers",
          "_shieldAssetsCount": "is number of added shield assets"
        }
      },
      "shieldAssetsCount()": {
        "returns": {
          "_shieldAssetsCount": "is number of added shield assets"
        }
      },
      "shieldAssetsWithBalance(uint256,uint256)": {
        "params": {
          "_limit": "is number of policy books to returns from _offset",
          "_offset": "is starting item in array to return array from"
        },
        "returns": {
          "_shieldAssetBalance": "is tokens amount of shield assets allocated to Policy Book,  to get specific shield asset balance lookup _shieldAssetBalances by same index as of shield asset",
          "_shieldAssets": "is addresses of shield assets, that will be distributed to Policy givers",
          "_shieldAssetsCount": "is number of added shield assets"
        }
      },
      "stats()": {
        "returns": {
          "_annualProfitYields": "is its APY",
          "_contractType": "is a type of insured contract",
          "_maxCapacities": "is a max token amount that a user can buy",
          "_name": "is the name of PolicyBook",
          "_totalDaiLiquidity": "is PolicyBook's liquidity"
        }
      },
      "supportsInterface(bytes4)": {
        "details": "See {IERC165-supportsInterface}. Time complexity O(1), guaranteed to always use less than 30 000 gas."
      },
      "transferFrom(address,address,uint256)": {
        "details": "Moves `amount` tokens from `sender` to `recipient` using the allowance mechanism. `amount` is then deducted from the caller's allowance. Returns a boolean value indicating whether the operation succeeded. Emits a {Transfer} event."
      },
      "transferOwnership(address)": {
        "details": "Transfers ownership of the contract to a new account (`newOwner`). Can only be called by the current owner."
      },
      "withdrawLiquidity(uint256)": {
        "params": {
          "_tokensToWithdraw": "is amount of DAI tokens to withdraw"
        }
      }
    },
    "stateVariables": {
      "contractType": {
        "return": "_type is type of contract"
      },
      "insuranceContractAddress": {
        "return": "_contract is address of covered contract"
      }
    },
    "version": 1
  },
  "userdoc": {
    "kind": "user",
    "methods": {
      "addLiquidity(uint256)": {
        "notice": "Let user to add liquidity by supplying DAI, access: ANY"
      },
      "addLiquidityFor(address,uint256)": {
        "notice": "Let user to add liqiudity for another user by supplying DAI, access: ANY"
      },
      "addShieldTokens(address,uint256)": {
        "notice": "Adds shield tokens to contract, access: ANY"
      },
      "allowance(address,address)": {
        "notice": "From ERC20"
      },
      "approve(address,uint256)": {
        "notice": "From ERC20"
      },
      "balanceOf(address)": {
        "notice": "From ERC20"
      },
      "buyPolicy(uint256,uint256)": {
        "notice": "Let user to buy policy by supplying DAI, access: ANY"
      },
      "buyPolicyFor(address,uint256,uint256)": {
        "notice": "Let user to buy policy for another user by supplying DAI, access: ANY"
      },
      "contractType()": {
        "notice": "Returns type of contract this PolicyBook covers, access: ANY"
      },
      "decreaseAllowance(address,uint256)": {
        "notice": "From ERC20"
      },
      "getQuote(uint256,uint256)": {
        "notice": "Let user to calculate policy cost in DAI, access: ANY"
      },
      "increaseAllowance(address,uint256)": {
        "notice": "From ERC20"
      },
      "insuranceContractAddress()": {
        "notice": "Returns address of contract this PolicyBook covers, access: ANY"
      },
      "quoteStrategy()": {
        "notice": "Returns quote strategy defined during creation of PolicyBook, access: ANY"
      },
      "rewardForUnclaimedExpiredPolicy(uint256)": {
        "notice": "Let user to claim rewards for unclaimed policy cost in DAI, access: ANY"
      },
      "shieldAssets(uint256,uint256)": {
        "notice": "Returns list of shield assets added to PolicyBook, access: ANY"
      },
      "shieldAssetsCount()": {
        "notice": "Returns number of shield assets added, access: ANY"
      },
      "shieldAssetsWithBalance(uint256,uint256)": {
        "notice": "Returns list of shield assets added with tokens amount allocated to Policy Book, access: ANY"
      },
      "stats()": {
        "notice": "Getting stats, access: ANY"
      },
      "totalSupply()": {
        "notice": "From ERC20"
      },
      "transfer(address,uint256)": {
        "notice": "From ERC20"
      },
      "transferNFTMintingAndBurningOwnershipToStaking()": {
        "notice": "Should be called after initRegistry() and approveAllDaiTokensForStaking()"
      },
      "withdrawLiquidity(uint256)": {
        "notice": "Let user to withdraw deposited liqiudity, access: ANY"
      }
    },
    "version": 1
  }
}