{
  "contractName": "PolicyBook",
  "abi": [
    {
      "inputs": [
        {
          "internalType": "address",
          "name": "_contract",
          "type": "address"
        },
        {
          "internalType": "enum IPolicyBookFabric.ContractType",
          "name": "_contractType",
          "type": "uint8"
        },
        {
          "internalType": "contract ContractsRegistry",
          "name": "_registry",
          "type": "address"
        },
        {
          "internalType": "string",
          "name": "_description",
          "type": "string"
        },
        {
          "internalType": "string",
          "name": "_projectSymbol",
          "type": "string"
        }
      ],
      "stateMutability": "nonpayable",
      "type": "constructor"
    },
    {
      "anonymous": false,
      "inputs": [
        {
          "indexed": false,
          "internalType": "address",
          "name": "_liquidityHolder",
          "type": "address"
        },
        {
          "indexed": false,
          "internalType": "uint256",
          "name": "_liqudityAmount",
          "type": "uint256"
        },
        {
          "indexed": false,
          "internalType": "uint256",
          "name": "_newTotalLiquidity",
          "type": "uint256"
        }
      ],
      "name": "AddLiquidity",
      "type": "event"
    },
    {
      "anonymous": false,
      "inputs": [
        {
          "indexed": true,
          "internalType": "address",
          "name": "owner",
          "type": "address"
        },
        {
          "indexed": true,
          "internalType": "address",
          "name": "spender",
          "type": "address"
        },
        {
          "indexed": false,
          "internalType": "uint256",
          "name": "value",
          "type": "uint256"
        }
      ],
      "name": "Approval",
      "type": "event"
    },
    {
      "anonymous": false,
      "inputs": [
        {
          "indexed": false,
          "internalType": "address",
          "name": "_policyHolder",
          "type": "address"
        },
        {
          "indexed": false,
          "internalType": "uint256",
          "name": "_coverTokens",
          "type": "uint256"
        },
        {
          "indexed": false,
          "internalType": "uint256",
          "name": "_price",
          "type": "uint256"
        },
        {
          "indexed": false,
          "internalType": "uint256",
          "name": "_newTotalCoverTokens",
          "type": "uint256"
        }
      ],
      "name": "BuyPolicy",
      "type": "event"
    },
    {
      "anonymous": false,
      "inputs": [
        {
          "indexed": true,
          "internalType": "address",
          "name": "from",
          "type": "address"
        },
        {
          "indexed": true,
          "internalType": "address",
          "name": "to",
          "type": "address"
        },
        {
          "indexed": false,
          "internalType": "uint256",
          "name": "value",
          "type": "uint256"
        }
      ],
      "name": "Transfer",
      "type": "event"
    },
    {
      "anonymous": false,
      "inputs": [
        {
          "indexed": false,
          "internalType": "address",
          "name": "_liquidityHolder",
          "type": "address"
        },
        {
          "indexed": false,
          "internalType": "uint256",
          "name": "_tokensToWithdraw",
          "type": "uint256"
        },
        {
          "indexed": false,
          "internalType": "uint256",
          "name": "_newTotalLiquidity",
          "type": "uint256"
        }
      ],
      "name": "WithdrawLiquidity",
      "type": "event"
    },
    {
      "inputs": [],
      "name": "MAXIMUM_COST_100_UTILIZATION_PERCENTAGE",
      "outputs": [
        {
          "internalType": "uint256",
          "name": "",
          "type": "uint256"
        }
      ],
      "stateMutability": "view",
      "type": "function"
    },
    {
      "inputs": [],
      "name": "MAXIMUM_COST_NOT_RISKY_PERCENTAGE",
      "outputs": [
        {
          "internalType": "uint256",
          "name": "",
          "type": "uint256"
        }
      ],
      "stateMutability": "view",
      "type": "function"
    },
    {
      "inputs": [],
      "name": "MINIMUM_COST_PERCENTAGE",
      "outputs": [
        {
          "internalType": "uint256",
          "name": "",
          "type": "uint256"
        }
      ],
      "stateMutability": "view",
      "type": "function"
    },
    {
      "inputs": [],
      "name": "PERCENTAGE_100",
      "outputs": [
        {
          "internalType": "uint256",
          "name": "",
          "type": "uint256"
        }
      ],
      "stateMutability": "view",
      "type": "function"
    },
    {
      "inputs": [],
      "name": "PRECISION",
      "outputs": [
        {
          "internalType": "uint256",
          "name": "",
          "type": "uint256"
        }
      ],
      "stateMutability": "view",
      "type": "function"
    },
    {
      "inputs": [],
      "name": "RISKY_ASSET_THRESHOLD_PERCENTAGE",
      "outputs": [
        {
          "internalType": "uint256",
          "name": "",
          "type": "uint256"
        }
      ],
      "stateMutability": "view",
      "type": "function"
    },
    {
      "inputs": [],
      "name": "SECONDS_IN_THE_YEAR",
      "outputs": [
        {
          "internalType": "uint256",
          "name": "",
          "type": "uint256"
        }
      ],
      "stateMutability": "view",
      "type": "function"
    },
    {
      "inputs": [
        {
          "internalType": "address",
          "name": "owner",
          "type": "address"
        },
        {
          "internalType": "address",
          "name": "spender",
          "type": "address"
        }
      ],
      "name": "allowance",
      "outputs": [
        {
          "internalType": "uint256",
          "name": "",
          "type": "uint256"
        }
      ],
      "stateMutability": "view",
      "type": "function"
    },
    {
      "inputs": [
        {
          "internalType": "address",
          "name": "spender",
          "type": "address"
        },
        {
          "internalType": "uint256",
          "name": "amount",
          "type": "uint256"
        }
      ],
      "name": "approve",
      "outputs": [
        {
          "internalType": "bool",
          "name": "",
          "type": "bool"
        }
      ],
      "stateMutability": "nonpayable",
      "type": "function"
    },
    {
      "inputs": [
        {
          "internalType": "address",
          "name": "account",
          "type": "address"
        }
      ],
      "name": "balanceOf",
      "outputs": [
        {
          "internalType": "uint256",
          "name": "",
          "type": "uint256"
        }
      ],
      "stateMutability": "view",
      "type": "function"
    },
    {
      "inputs": [],
      "name": "contractAddress",
      "outputs": [
        {
          "internalType": "address",
          "name": "",
          "type": "address"
        }
      ],
      "stateMutability": "view",
      "type": "function"
    },
    {
      "inputs": [],
      "name": "contractType",
      "outputs": [
        {
          "internalType": "enum IPolicyBookFabric.ContractType",
          "name": "",
          "type": "uint8"
        }
      ],
      "stateMutability": "view",
      "type": "function"
    },
    {
      "inputs": [],
      "name": "decimals",
      "outputs": [
        {
          "internalType": "uint8",
          "name": "",
          "type": "uint8"
        }
      ],
      "stateMutability": "view",
      "type": "function"
    },
    {
      "inputs": [
        {
          "internalType": "address",
          "name": "spender",
          "type": "address"
        },
        {
          "internalType": "uint256",
          "name": "subtractedValue",
          "type": "uint256"
        }
      ],
      "name": "decreaseAllowance",
      "outputs": [
        {
          "internalType": "bool",
          "name": "",
          "type": "bool"
        }
      ],
      "stateMutability": "nonpayable",
      "type": "function"
    },
    {
      "inputs": [
        {
          "internalType": "address",
          "name": "spender",
          "type": "address"
        },
        {
          "internalType": "uint256",
          "name": "addedValue",
          "type": "uint256"
        }
      ],
      "name": "increaseAllowance",
      "outputs": [
        {
          "internalType": "bool",
          "name": "",
          "type": "bool"
        }
      ],
      "stateMutability": "nonpayable",
      "type": "function"
    },
    {
      "inputs": [
        {
          "internalType": "address",
          "name": "",
          "type": "address"
        }
      ],
      "name": "liquidityFromLM",
      "outputs": [
        {
          "internalType": "uint256",
          "name": "",
          "type": "uint256"
        }
      ],
      "stateMutability": "view",
      "type": "function"
    },
    {
      "inputs": [],
      "name": "name",
      "outputs": [
        {
          "internalType": "string",
          "name": "",
          "type": "string"
        }
      ],
      "stateMutability": "view",
      "type": "function"
    },
    {
      "inputs": [
        {
          "internalType": "address",
          "name": "",
          "type": "address"
        }
      ],
      "name": "policyHolders",
      "outputs": [
        {
          "internalType": "uint256",
          "name": "coverTokens",
          "type": "uint256"
        },
        {
          "internalType": "uint256",
          "name": "durationSeconds",
          "type": "uint256"
        },
        {
          "internalType": "uint256",
          "name": "maxDaiTokens",
          "type": "uint256"
        }
      ],
      "stateMutability": "view",
      "type": "function"
    },
    {
      "inputs": [],
      "name": "symbol",
      "outputs": [
        {
          "internalType": "string",
          "name": "",
          "type": "string"
        }
      ],
      "stateMutability": "view",
      "type": "function"
    },
    {
      "inputs": [],
      "name": "totalCoverTokens",
      "outputs": [
        {
          "internalType": "uint256",
          "name": "",
          "type": "uint256"
        }
      ],
      "stateMutability": "view",
      "type": "function"
    },
    {
      "inputs": [],
      "name": "totalLiquidity",
      "outputs": [
        {
          "internalType": "uint256",
          "name": "",
          "type": "uint256"
        }
      ],
      "stateMutability": "view",
      "type": "function"
    },
    {
      "inputs": [],
      "name": "totalSupply",
      "outputs": [
        {
          "internalType": "uint256",
          "name": "",
          "type": "uint256"
        }
      ],
      "stateMutability": "view",
      "type": "function"
    },
    {
      "inputs": [
        {
          "internalType": "address",
          "name": "recipient",
          "type": "address"
        },
        {
          "internalType": "uint256",
          "name": "amount",
          "type": "uint256"
        }
      ],
      "name": "transfer",
      "outputs": [
        {
          "internalType": "bool",
          "name": "",
          "type": "bool"
        }
      ],
      "stateMutability": "nonpayable",
      "type": "function"
    },
    {
      "inputs": [
        {
          "internalType": "address",
          "name": "sender",
          "type": "address"
        },
        {
          "internalType": "address",
          "name": "recipient",
          "type": "address"
        },
        {
          "internalType": "uint256",
          "name": "amount",
          "type": "uint256"
        }
      ],
      "name": "transferFrom",
      "outputs": [
        {
          "internalType": "bool",
          "name": "",
          "type": "bool"
        }
      ],
      "stateMutability": "nonpayable",
      "type": "function"
    },
    {
      "stateMutability": "payable",
      "type": "receive"
    },
    {
      "inputs": [],
      "name": "quoteStrategy",
      "outputs": [
        {
          "internalType": "address",
          "name": "_quoteStrategy",
          "type": "address"
        }
      ],
      "stateMutability": "view",
      "type": "function"
    },
    {
      "inputs": [
        {
          "internalType": "uint256",
          "name": "_offset",
          "type": "uint256"
        },
        {
          "internalType": "uint256",
          "name": "_limit",
          "type": "uint256"
        }
      ],
      "name": "shieldAssets",
      "outputs": [
        {
          "internalType": "uint256",
          "name": "_shieldAssetsCount",
          "type": "uint256"
        },
        {
          "internalType": "address[]",
          "name": "_shieldAssets",
          "type": "address[]"
        }
      ],
      "stateMutability": "view",
      "type": "function"
    },
    {
      "inputs": [
        {
          "internalType": "uint256",
          "name": "_offset",
          "type": "uint256"
        },
        {
          "internalType": "uint256",
          "name": "_limit",
          "type": "uint256"
        }
      ],
      "name": "shieldAssetsWithBalance",
      "outputs": [
        {
          "internalType": "uint256",
          "name": "_shieldAssetsCount",
          "type": "uint256"
        },
        {
          "internalType": "address[]",
          "name": "_shieldAssets",
          "type": "address[]"
        },
        {
          "internalType": "uint256[]",
          "name": "_shieldAssetBalance",
          "type": "uint256[]"
        }
      ],
      "stateMutability": "view",
      "type": "function"
    },
    {
      "inputs": [],
      "name": "shieldAssetsCount",
      "outputs": [
        {
          "internalType": "uint256",
          "name": "_shieldAssetsCount",
          "type": "uint256"
        }
      ],
      "stateMutability": "view",
      "type": "function"
    },
    {
      "inputs": [
        {
          "internalType": "address",
          "name": "_tokenAddress",
          "type": "address"
        },
        {
          "internalType": "uint256",
          "name": "_tokensAmount",
          "type": "uint256"
        }
      ],
      "name": "addShieldTokens",
      "outputs": [
        {
          "internalType": "bool",
          "name": "_success",
          "type": "bool"
        }
      ],
      "stateMutability": "nonpayable",
      "type": "function"
    },
    {
      "inputs": [
        {
          "internalType": "uint256",
          "name": "_durationSeconds",
          "type": "uint256"
        },
        {
          "internalType": "uint256",
          "name": "_coverTokens",
          "type": "uint256"
        },
        {
          "internalType": "uint256",
          "name": "_maxDaiTokens",
          "type": "uint256"
        }
      ],
      "name": "buyPolicy",
      "outputs": [],
      "stateMutability": "nonpayable",
      "type": "function"
    },
    {
      "inputs": [
        {
          "internalType": "address",
          "name": "_policyHolderAddr",
          "type": "address"
        },
        {
          "internalType": "uint256",
          "name": "_durationSeconds",
          "type": "uint256"
        },
        {
          "internalType": "uint256",
          "name": "_coverTokens",
          "type": "uint256"
        },
        {
          "internalType": "uint256",
          "name": "_maxDaiTokens",
          "type": "uint256"
        }
      ],
      "name": "buyPolicyFor",
      "outputs": [],
      "stateMutability": "nonpayable",
      "type": "function"
    },
    {
      "inputs": [
        {
          "internalType": "uint256",
          "name": "_liqudityAmount",
          "type": "uint256"
        }
      ],
      "name": "addLiquidity",
      "outputs": [],
      "stateMutability": "nonpayable",
      "type": "function"
    },
    {
      "inputs": [
        {
          "internalType": "address",
          "name": "_liquidityHolderAddr",
          "type": "address"
        },
        {
          "internalType": "uint256",
          "name": "_liqudityAmount",
          "type": "uint256"
        }
      ],
      "name": "addLiquidityFor",
      "outputs": [],
      "stateMutability": "nonpayable",
      "type": "function"
    },
    {
      "inputs": [
        {
          "internalType": "address",
          "name": "_liquidityHolderAddr",
          "type": "address"
        },
        {
          "internalType": "uint256",
          "name": "_liqudityAmount",
          "type": "uint256"
        }
      ],
      "name": "addLiquidityFromLM",
      "outputs": [],
      "stateMutability": "nonpayable",
      "type": "function"
    },
    {
      "inputs": [
        {
          "internalType": "uint256",
          "name": "_tokensToWithdraw",
          "type": "uint256"
        }
      ],
      "name": "withdrawLiquidity",
      "outputs": [],
      "stateMutability": "nonpayable",
      "type": "function"
    },
    {
      "inputs": [
        {
          "internalType": "uint256",
          "name": "_policyId",
          "type": "uint256"
        }
      ],
      "name": "rewardForUnclaimedExpiredPolicy",
      "outputs": [],
      "stateMutability": "nonpayable",
      "type": "function"
    },
    {
      "inputs": [],
      "name": "stats",
      "outputs": [
        {
          "internalType": "uint256",
          "name": "_yearlyCost",
          "type": "uint256"
        },
        {
          "internalType": "uint256",
          "name": "_maxCapacities",
          "type": "uint256"
        },
        {
          "internalType": "uint256",
          "name": "_totalDaiLiquidity",
          "type": "uint256"
        },
        {
          "internalType": "uint256",
          "name": "_annualProfitYields",
          "type": "uint256"
        }
      ],
      "stateMutability": "nonpayable",
      "type": "function"
    },
    {
      "inputs": [
        {
          "internalType": "uint256",
          "name": "_durationSeconds",
          "type": "uint256"
        },
        {
          "internalType": "uint256",
          "name": "_tokens",
          "type": "uint256"
        }
      ],
      "name": "getQuote",
      "outputs": [
        {
          "internalType": "uint256",
          "name": "_daiTokens",
          "type": "uint256"
        }
      ],
      "stateMutability": "view",
      "type": "function"
    }
  ],
  "bytecode": "0x60806040523480156200001157600080fd5b5060405162002ba638038062002ba683398101604081905262000034916200022d565b8181604051602001620000489190620002d7565b60408051601f1981840301815291905281516200006d90600390602085019062000104565b5080516200008390600490602084019062000104565b50506005805460ff1916601217905550600680546001600160a01b0387166001600160a01b03199091161780825585919060ff60a01b1916600160a01b836003811115620000cd57fe5b021790555050600580546001600160a01b0390931661010002610100600160a81b0319909316929092179091555062000353915050565b828054600181600116156101000203166002900490600052602060002090601f0160209004810192826200013c576000855562000187565b82601f106200015757805160ff191683800117855562000187565b8280016001018555821562000187579182015b82811115620001875782518255916020019190600101906200016a565b506200019592915062000199565b5090565b5b808211156200019557600081556001016200019a565b600082601f830112620001c1578081fd5b81516001600160401b0380821115620001d657fe5b604051601f8301601f191681016020018281118282101715620001f557fe5b6040528281529250828483016020018610156200021157600080fd5b6200022483602083016020880162000307565b50505092915050565b600080600080600060a0868803121562000245578081fd5b855162000252816200033a565b60208701519095506004811062000267578182fd5b60408701519094506200027a816200033a565b60608701519093506001600160401b038082111562000297578283fd5b620002a589838a01620001b0565b93506080880151915080821115620002bb578283fd5b50620002ca88828901620001b0565b9150509295509295909350565b600065626d6944414960d01b82528251620002fa81600685016020870162000307565b9190910160060192915050565b60005b83811015620003245781810151838201526020016200030a565b8381111562000334576000848401525b50505050565b6001600160a01b03811681146200035057600080fd5b50565b61284380620003636000396000f3fe6080604052600436106102895760003560e01c806395d89b4111610153578063cbf5a55e116100cb578063efa1f98a1161007f578063f60ff93711610064578063f60ff937146106da578063f6b4dfb4146106ef578063fc3dfc991461070457610290565b8063efa1f98a1461069a578063f4020b5b146106ba57610290565b8063d80528ae116100b0578063d80528ae14610640578063dd62ed3e14610665578063e98a04e11461068557610290565b8063cbf5a55e14610616578063cfa8b3a81461062b57610290565b8063aaf5eb6811610122578063c18c605711610107578063c18c6057146105b4578063c91348c3146105d4578063cb2ef6f7146105f457610290565b8063aaf5eb681461058a578063bc5d198a1461059f57610290565b806395d89b41146105205780639c59000614610535578063a457c2d71461054a578063a9059cbb1461056a57610290565b8063313ce5671161020157806370a08231116101b5578063758af3ab1161019a578063758af3ab146104b057806379fac08c146104d05780637cd0fc9b146104fe57610290565b806370a082311461046157806370b68a2a1461048157610290565b8063514ea9bd116101e6578063514ea9bd1461040c57806351c6590a1461042157806366cec3051461044157610290565b8063313ce567146103ca57806339509351146103ec57610290565b806315770f9211610258578063188ff8541161023d578063188ff8541461037557806323b872dd146103955780632c865d6c146103b557610290565b806315770f921461033e57806318160ddd1461036057610290565b806306fdde0314610295578063095ea7b3146102c05780630a861f2a146102ed5780630e82da531461030f57610290565b3661029057005b600080fd5b3480156102a157600080fd5b506102aa610724565b6040516102b79190612375565b60405180910390f35b3480156102cc57600080fd5b506102e06102db36600461209f565b6107d8565b6040516102b79190612356565b3480156102f957600080fd5b5061030d6103083660046121b1565b6107f6565b005b34801561031b57600080fd5b5061032f61032a3660046121e1565b610c45565b6040516102b7939291906125c1565b34801561034a57600080fd5b50610353610c51565b6040516102b79190612597565b34801561036c57600080fd5b50610353610c57565b34801561038157600080fd5b506102e061039036600461209f565b610c5d565b3480156103a157600080fd5b506102e06103b036600461205f565b610c65565b3480156103c157600080fd5b50610353610d06565b3480156103d657600080fd5b506103df610d0b565b6040516102b7919061264c565b3480156103f857600080fd5b506102e061040736600461209f565b610d14565b34801561041857600080fd5b50610353610d6f565b34801561042d57600080fd5b5061030d61043c3660046121b1565b610d78565b34801561044d57600080fd5b5061035361045c366004611fef565b610d87565b34801561046d57600080fd5b5061035361047c366004611fef565b610d99565b34801561048d57600080fd5b506104a161049c366004611fef565b610dc1565b6040516102b79392919061261b565b3480156104bc57600080fd5b506103536104cb3660046121e1565b610de2565b3480156104dc57600080fd5b506104f06104eb3660046121e1565b610df5565b6040516102b79291906125a0565b34801561050a57600080fd5b50610513610d06565b6040516102b7919061227d565b34801561052c57600080fd5b506102aa610dff565b34801561054157600080fd5b50610353610e7e565b34801561055657600080fd5b506102e061056536600461209f565b610e87565b34801561057657600080fd5b506102e061058536600461209f565b610efc565b34801561059657600080fd5b50610353610f10565b3480156105ab57600080fd5b50610353610f19565b3480156105c057600080fd5b5061030d6105cf3660046121b1565b610d84565b3480156105e057600080fd5b5061030d6105ef36600461209f565b610f21565b34801561060057600080fd5b50610609610f31565b6040516102b79190612361565b34801561062257600080fd5b50610353610f52565b34801561063757600080fd5b50610353610f5b565b34801561064c57600080fd5b50610655610f65565b6040516102b79493929190612631565b34801561067157600080fd5b50610353610680366004612027565b610f6f565b34801561069157600080fd5b50610353610fa7565b3480156106a657600080fd5b5061030d6106b536600461209f565b610fb0565b3480156106c657600080fd5b5061030d6106d5366004612202565b610fbc565b3480156106e657600080fd5b50610353610fcd565b3480156106fb57600080fd5b50610513610fd3565b34801561071057600080fd5b5061030d61071f3660046120ca565b610fef565b60038054604080516020601f60027fffffffffffffffffffffffffffffffffffffffffffffffffffffffffffffffff6101006001881615020190951694909404938401819004810282018101909252828152606093909290918301828280156107ce5780601f106107a3576101008083540402835291602001916107ce565b820191906000526020600020905b8154815290600101906020018083116107b157829003601f168201915b5050505050905090565b60006107ec6107e5611001565b8484611005565b5060015b92915050565b600554604080517ff427c05e0000000000000000000000000000000000000000000000000000000081529051600092610100900473ffffffffffffffffffffffffffffffffffffffff1691633581777391839163f427c05e9160048083019288929190829003018186803b15801561086d57600080fd5b505afa158015610881573d6000803e3d6000fd5b505050506040513d6000823e601f3d908101601f191682016040526108a99190810190612124565b6040518263ffffffff1660e01b81526004016108c59190612375565b60206040518083038186803b1580156108dd57600080fd5b505afa1580156108f1573d6000803e3d6000fd5b505050506040513d601f19601f82011682018060405250810190610915919061200b565b9050600061092233610d99565b90508173ffffffffffffffffffffffffffffffffffffffff16630cbd7e846040518163ffffffff1660e01b815260040160206040518083038186803b15801561096a57600080fd5b505afa15801561097e573d6000803e3d6000fd5b505050506040513d601f19601f820116820180604052508101906109a291906121c9565b4210156109c757336000908152600b60205260409020546109c4908290611118565b90505b828110156109f05760405162461bcd60e51b81526004016109e79061253a565b60405180910390fd5b600954600854610a009085611118565b1015610a1e5760405162461bcd60e51b81526004016109e790612480565b600554604080517fa45611b60000000000000000000000000000000000000000000000000000000081529051600092610100900473ffffffffffffffffffffffffffffffffffffffff1691633581777391839163a45611b69160048083019288929190829003018186803b158015610a9557600080fd5b505afa158015610aa9573d6000803e3d6000fd5b505050506040513d6000823e601f3d908101601f19168201604052610ad19190810190612124565b6040518263ffffffff1660e01b8152600401610aed9190612375565b60206040518083038186803b158015610b0557600080fd5b505afa158015610b19573d6000803e3d6000fd5b505050506040513d601f19601f82011682018060405250810190610b3d919061200b565b73ffffffffffffffffffffffffffffffffffffffff1663a9059cbb33866040518363ffffffff1660e01b8152600401610b7792919061229e565b602060405180830381600087803b158015610b9157600080fd5b505af1158015610ba5573d6000803e3d6000fd5b505050506040513d601f19601f82011682018060405250810190610bc99190612104565b905080610be85760405162461bcd60e51b81526004016109e790612414565b600854610bf59085611118565b600855610c02338561115a565b7fac927268ea9ae2e55027e6ab727fc2db8e3ea48c56c658223a1074567e4298c03385600854604051610c37939291906122c4565b60405180910390a150505050565b60006060809250925092565b60085481565b60025490565b600092915050565b6000610c7284848461128a565b610cfc84610c7e611001565b610cf7856040518060600160405280602881526020016127576028913973ffffffffffffffffffffffffffffffffffffffff8a16600090815260016020526040812090610cc9611001565b73ffffffffffffffffffffffffffffffffffffffff1681526020810191909152604001600020549190611426565b611005565b5060019392505050565b600090565b60055460ff1690565b60006107ec610d21611001565b84610cf78560016000610d32611001565b73ffffffffffffffffffffffffffffffffffffffff908116825260208083019390935260409182016000908120918c1681529252902054906114bd565b6445d964b80081565b610d8433826000611517565b50565b600b6020526000908152604090205481565b73ffffffffffffffffffffffffffffffffffffffff1660009081526020819052604090205490565b600a6020526000908152604090208054600182015460029092015490919083565b6000610dee83836118f8565b9392505050565b5060009160609150565b60048054604080516020601f60027fffffffffffffffffffffffffffffffffffffffffffffffffffffffffffffffff6101006001881615020190951694909404938401819004810282018101909252828152606093909290918301828280156107ce5780601f106107a3576101008083540402835291602001916107ce565b640ba43b740081565b60006107ec610e94611001565b84610cf7856040518060600160405280602581526020016127e96025913960016000610ebe611001565b73ffffffffffffffffffffffffffffffffffffffff908116825260208083019390935260409182016000908120918d16815292529020549190611426565b60006107ec610f09611001565b848461128a565b6402540be40081565b6301e1338081565b610f2d82826001611517565b5050565b60065474010000000000000000000000000000000000000000900460ff1681565b64e8d4a5100081565b65015d3ef7980081565b6000808080919293565b73ffffffffffffffffffffffffffffffffffffffff918216600090815260016020908152604080832093909416825291909152205490565b64a2fb40580081565b610f2d82826000611517565b610fc8338484846119f8565b505050565b60095481565b60065473ffffffffffffffffffffffffffffffffffffffff1681565b610ffb848484846119f8565b50505050565b3390565b73ffffffffffffffffffffffffffffffffffffffff83166110575760405162461bcd60e51b81526004018080602001828103825260248152602001806127c56024913960400191505060405180910390fd5b73ffffffffffffffffffffffffffffffffffffffff82166110a95760405162461bcd60e51b81526004018080602001828103825260228152602001806126ee6022913960400191505060405180910390fd5b73ffffffffffffffffffffffffffffffffffffffff808416600081815260016020908152604080832094871680845294825291829020859055815185815291517f8c5be1e5ebec7d5bd14f71427d1e84f3dd0314c0f7b2291e5b200ac8c7c3b9259281900390910190a3505050565b6000610dee83836040518060400160405280601e81526020017f536166654d6174683a207375627472616374696f6e206f766572666c6f770000815250611426565b73ffffffffffffffffffffffffffffffffffffffff82166111ac5760405162461bcd60e51b815260040180806020018281038252602181526020018061277f6021913960400191505060405180910390fd5b6111b882600083610fc8565b611202816040518060600160405280602281526020016126cc6022913973ffffffffffffffffffffffffffffffffffffffff85166000908152602081905260409020549190611426565b73ffffffffffffffffffffffffffffffffffffffff83166000908152602081905260409020556002546112359082611118565b60025560408051828152905160009173ffffffffffffffffffffffffffffffffffffffff8516917fddf252ad1be2c89b69c2b068fc378daa952ba7f163c4a11628f55a4df523b3ef9181900360200190a35050565b73ffffffffffffffffffffffffffffffffffffffff83166112dc5760405162461bcd60e51b81526004018080602001828103825260258152602001806127a06025913960400191505060405180910390fd5b73ffffffffffffffffffffffffffffffffffffffff821661132e5760405162461bcd60e51b81526004018080602001828103825260238152602001806126a96023913960400191505060405180910390fd5b611339838383610fc8565b611383816040518060600160405280602681526020016127106026913973ffffffffffffffffffffffffffffffffffffffff86166000908152602081905260409020549190611426565b73ffffffffffffffffffffffffffffffffffffffff80851660009081526020819052604080822093909355908416815220546113bf90826114bd565b73ffffffffffffffffffffffffffffffffffffffff8084166000818152602081815260409182902094909455805185815290519193928716927fddf252ad1be2c89b69c2b068fc378daa952ba7f163c4a11628f55a4df523b3ef92918290030190a3505050565b600081848411156114b55760405162461bcd60e51b81526004018080602001828103825283818151815260200191508051906020019080838360005b8381101561147a578181015183820152602001611462565b50505050905090810190601f1680156114a75780820380516001836020036101000a031916815260200191505b509250505060405180910390fd5b505050900390565b600082820183811015610dee576040805162461bcd60e51b815260206004820152601b60248201527f536166654d6174683a206164646974696f6e206f766572666c6f770000000000604482015290519081900360640190fd5b600554604080517ff427c05e000000000000000000000000000000000000000000000000000000008152905161010090920473ffffffffffffffffffffffffffffffffffffffff1691633581777391839163f427c05e91600480820192600092909190829003018186803b15801561158e57600080fd5b505afa1580156115a2573d6000803e3d6000fd5b505050506040513d6000823e601f3d908101601f191682016040526115ca9190810190612124565b6040518263ffffffff1660e01b81526004016115e69190612375565b60206040518083038186803b1580156115fe57600080fd5b505afa158015611612573d6000803e3d6000fd5b505050506040513d601f19601f82011682018060405250810190611636919061200b565b73ffffffffffffffffffffffffffffffffffffffff163373ffffffffffffffffffffffffffffffffffffffff16146116805760405162461bcd60e51b81526004016109e7906124b7565b600554604080517fa45611b60000000000000000000000000000000000000000000000000000000081529051600092610100900473ffffffffffffffffffffffffffffffffffffffff1691633581777391839163a45611b69160048083019288929190829003018186803b1580156116f757600080fd5b505afa15801561170b573d6000803e3d6000fd5b505050506040513d6000823e601f3d908101601f191682016040526117339190810190612124565b6040518263ffffffff1660e01b815260040161174f9190612375565b60206040518083038186803b15801561176757600080fd5b505afa15801561177b573d6000803e3d6000fd5b505050506040513d601f19601f8201168201806040525081019061179f919061200b565b73ffffffffffffffffffffffffffffffffffffffff166323b872dd8530866040518463ffffffff1660e01b81526004016117db939291906122f2565b602060405180830381600087803b1580156117f557600080fd5b505af1158015611809573d6000803e3d6000fd5b505050506040513d601f19601f8201168201806040525081019061182d9190612104565b90508061184c5760405162461bcd60e51b81526004016109e790612414565b60085461185990846114bd565b6008556118668484611d15565b81156118c35773ffffffffffffffffffffffffffffffffffffffff84166000908152600b602052604090205461189c90846114bd565b73ffffffffffffffffffffffffffffffffffffffff85166000908152600b60205260409020555b7f06239653922ac7bea6aa2b19dc486b9361821d37712eb796adfd38d81de278ca8484600854604051610c37939291906122c4565b6000600854611912836009546114bd90919063ffffffff16565b11156119305760405162461bcd60e51b81526004016109e7906123df565b6000600854116119525760405162461bcd60e51b81526004016109e7906123a8565b60006119876008546119816402540be40060640261197b876009546114bd90919063ffffffff16565b90611e2c565b90611e85565b9050600064a2fb4058008210156119a8576119a182611ec7565b90506119b4565b6119b182611ee1565b90505b6119c381640ba43b7400611f52565b905060006119d96301e133806119818885611e2c565b90506119ee64e8d4a510006119818784611e2c565b9695505050505050565b611a00611fce565b5073ffffffffffffffffffffffffffffffffffffffff84166000908152600a602090815260409182902082516060810184528154815260018201549281018390526002909101549281019290925215611a6b5760405162461bcd60e51b81526004016109e79061244b565b600954611a7890846114bd565b6008541015611a995760405162461bcd60e51b81526004016109e790612480565b6000611aa585856118f8565b8483526020808401878152604080860187815273ffffffffffffffffffffffffffffffffffffffff8b166000908152600a909452922085518155905160018201559051600290910155600954909150611afe90856114bd565b600955600554604080517fa45611b60000000000000000000000000000000000000000000000000000000081529051600092610100900473ffffffffffffffffffffffffffffffffffffffff1691633581777391839163a45611b69160048083019288929190829003018186803b158015611b7857600080fd5b505afa158015611b8c573d6000803e3d6000fd5b505050506040513d6000823e601f3d908101601f19168201604052611bb49190810190612124565b6040518263ffffffff1660e01b8152600401611bd09190612375565b60206040518083038186803b158015611be857600080fd5b505afa158015611bfc573d6000803e3d6000fd5b505050506040513d601f19601f82011682018060405250810190611c20919061200b565b73ffffffffffffffffffffffffffffffffffffffff166323b872dd8830856040518463ffffffff1660e01b8152600401611c5c939291906122f2565b602060405180830381600087803b158015611c7657600080fd5b505af1158015611c8a573d6000803e3d6000fd5b505050506040513d601f19601f82011682018060405250810190611cae9190612104565b905080611ccd5760405162461bcd60e51b81526004016109e790612414565b7f1cd728a6e764ed0dcddb6e5b88d736a4a8d2a0d420ca373588f7a1109e18663f878684600954604051611d049493929190612323565b60405180910390a150505050505050565b73ffffffffffffffffffffffffffffffffffffffff8216611d7d576040805162461bcd60e51b815260206004820152601f60248201527f45524332303a206d696e7420746f20746865207a65726f206164647265737300604482015290519081900360640190fd5b611d8960008383610fc8565b600254611d9690826114bd565b60025573ffffffffffffffffffffffffffffffffffffffff8216600090815260208190526040902054611dc990826114bd565b73ffffffffffffffffffffffffffffffffffffffff83166000818152602081815260408083209490945583518581529351929391927fddf252ad1be2c89b69c2b068fc378daa952ba7f163c4a11628f55a4df523b3ef9281900390910190a35050565b600082611e3b575060006107f0565b82820282848281611e4857fe5b0414610dee5760405162461bcd60e51b81526004018080602001828103825260218152602001806127366021913960400191505060405180910390fd5b6000610dee83836040518060400160405280601a81526020017f536166654d6174683a206469766973696f6e206279207a65726f000000000000815250611f69565b60006107f064a2fb405800611981846445d964b800611e2c565b600080611f19611efb64e8d4a5100064a2fb405800611118565b611981611f0d8664a2fb405800611118565b6402540be40090611e2c565b9050610dee611f466402540be400611981611f3f65015d3ef798006445d964b800611118565b8590611e2c565b6445d964b800906114bd565b600081831015611f625781610dee565b5090919050565b60008183611fb85760405162461bcd60e51b815260206004820181815283516024840152835190928392604490910191908501908083836000831561147a578181015183820152602001611462565b506000838581611fc457fe5b0495945050505050565b60405180606001604052806000815260200160008152602001600081525090565b600060208284031215612000578081fd5b8135610dee81612686565b60006020828403121561201c578081fd5b8151610dee81612686565b60008060408385031215612039578081fd5b823561204481612686565b9150602083013561205481612686565b809150509250929050565b600080600060608486031215612073578081fd5b833561207e81612686565b9250602084013561208e81612686565b929592945050506040919091013590565b600080604083850312156120b1578182fd5b82356120bc81612686565b946020939093013593505050565b600080600080608085870312156120df578081fd5b84356120ea81612686565b966020860135965060408601359560600135945092505050565b600060208284031215612115578081fd5b81518015158114610dee578182fd5b600060208284031215612135578081fd5b815167ffffffffffffffff8082111561214c578283fd5b818401915084601f83011261215f578283fd5b81518181111561216b57fe5b6040516020601f19601f840116820101818110848211171561218957fe5b6040528181528382016020018710156121a0578485fd5b6119ee82602083016020870161265a565b6000602082840312156121c2578081fd5b5035919050565b6000602082840312156121da578081fd5b5051919050565b600080604083850312156121f3578182fd5b50508035926020909101359150565b600080600060608486031215612216578283fd5b505081359360208301359350604090920135919050565b6000815180845260208085019450808401835b8381101561227257815173ffffffffffffffffffffffffffffffffffffffff1687529582019590820190600101612240565b509495945050505050565b73ffffffffffffffffffffffffffffffffffffffff91909116815260200190565b73ffffffffffffffffffffffffffffffffffffffff929092168252602082015260400190565b73ffffffffffffffffffffffffffffffffffffffff9390931683526020830191909152604082015260600190565b73ffffffffffffffffffffffffffffffffffffffff9384168152919092166020820152604081019190915260600190565b73ffffffffffffffffffffffffffffffffffffffff94909416845260208401929092526040830152606082015260800190565b901515815260200190565b602081016004831061236f57fe5b91905290565b600060208252825180602084015261239481604085016020870161265a565b601f01601f19169190910160400192915050565b60208082526011908201527f54686520706f6f6c20697320656d707479000000000000000000000000000000604082015260600190565b6020808252818101527f526571756972696e67206d6f7265207468616e20746865726520657869737473604082015260600190565b60208082526019908201527f4661696c656420746f207472616e7366657220746f6b656e7300000000000000604082015260600190565b6020808252818101527f54686520706f6c69637920686f6c64657220616c726561647920657869737473604082015260600190565b6020808252601e908201527f4e6f7420656e6f75676820617661696c61626c65206c69717569646974790000604082015260600190565b60208082526043908201527f5468652063616c6c657220646f6573206e6f742068617665206163636573732c60408201527f206f6e6c79206c6971756964697479206d696e696e672068617665206163636560608201527f73732e0000000000000000000000000000000000000000000000000000000000608082015260a00190565b6020808252603f908201527f54686520616d6f756e7420746f2062652077697468647261776e20697320677260408201527f6561746572207468616e2074686520617661696c61626c6520616d6f756e7400606082015260800190565b90815260200190565b6000838252604060208301526125b9604083018461222d565b949350505050565b600084825260206060818401526125db606084018661222d565b8381036040850152845180825282860191830190845b8181101561260d578351835292840192918401916001016125f1565b509098975050505050505050565b9283526020830191909152604082015260600190565b93845260208401929092526040830152606082015260800190565b60ff91909116815260200190565b60005b8381101561267557818101518382015260200161265d565b83811115610ffb5750506000910152565b73ffffffffffffffffffffffffffffffffffffffff81168114610d8457600080fdfe45524332303a207472616e7366657220746f20746865207a65726f206164647265737345524332303a206275726e20616d6f756e7420657863656564732062616c616e636545524332303a20617070726f766520746f20746865207a65726f206164647265737345524332303a207472616e7366657220616d6f756e7420657863656564732062616c616e6365536166654d6174683a206d756c7469706c69636174696f6e206f766572666c6f7745524332303a207472616e7366657220616d6f756e74206578636565647320616c6c6f77616e636545524332303a206275726e2066726f6d20746865207a65726f206164647265737345524332303a207472616e736665722066726f6d20746865207a65726f206164647265737345524332303a20617070726f76652066726f6d20746865207a65726f206164647265737345524332303a2064656372656173656420616c6c6f77616e63652062656c6f77207a65726fa2646970667358221220176a3106f938fe8bb7b1db51b822f1aabfc99a31b49b2f4fee0393dfffdfac2264736f6c63430007040033",
  "immutableReferences": {},
  "source": "// SPDX-License-Identifier: MIT\npragma solidity ^0.7.4;\npragma experimental ABIEncoderV2;\n\nimport \"@openzeppelin/contracts/token/ERC20/ERC20.sol\";\nimport \"@openzeppelin/contracts/token/ERC20/IERC20.sol\";\nimport \"@openzeppelin/contracts/math/SafeMath.sol\";\nimport \"@openzeppelin/contracts/math/Math.sol\";\n\nimport \"./interfaces/IPolicyBook.sol\";\nimport \"./interfaces/IPolicyBookFabric.sol\";\nimport \"./LiquidityMining.sol\";\nimport \"./ContractRegistry.sol\";\n\ncontract PolicyBook is IPolicyBook, ERC20 {\n  using SafeMath for uint256;\n  using Math for uint256;\n\n  ContractsRegistry private registry;\n  address public override contractAddress;\n  IPolicyBookFabric.ContractType public override contractType;\n  IERC20 daiToken;\n\n  uint256 public totalLiquidity;\n  uint256 public totalCoverTokens;\n\n  struct PolicyHolder {\n    uint256 coverTokens;\n    uint256 durationSeconds;\n    uint256 maxDaiTokens;\n  }\n\n  mapping(address => PolicyHolder) public policyHolders;\n  mapping(address => uint256) public liquidityFromLM;\n\n  event AddLiquidity(address _liquidityHolder, uint256 _liqudityAmount, uint256 _newTotalLiquidity);\n  event WithdrawLiquidity(address _liquidityHolder, uint256 _tokensToWithdraw, uint256 _newTotalLiquidity);\n  event BuyPolicy(address _policyHolder, uint256 _coverTokens, uint256 _price, uint256 _newTotalCoverTokens);\n\n  constructor(\n    address _contract,\n    IPolicyBookFabric.ContractType _contractType,\n    ContractsRegistry _registry,\n    string memory _description,\n    string memory _projectSymbol\n  ) ERC20(_description, string(abi.encodePacked(\"bmiDAI\", _projectSymbol))) {\n    contractAddress = _contract;\n    contractType = _contractType;\n    registry = _registry;\n  }\n\n  receive() external payable {}\n\n  function quoteStrategy() external view override returns (address _quoteStrategy) {\n    return address(0);\n  }\n\n  function shieldAssets(uint256 _offset, uint256 _limit)\n    external\n    view\n    override\n    returns (uint256 _shieldAssetsCount, address[] memory _shieldAssets)\n  {\n    address[] memory temp;\n    return (0, temp);\n  }\n\n  function shieldAssetsWithBalance(uint256 _offset, uint256 _limit)\n    external\n    view\n    override\n    returns (\n      uint256 _shieldAssetsCount,\n      address[] memory _shieldAssets,\n      uint256[] memory _shieldAssetBalance\n    )\n  {\n    address[] memory temp1;\n    uint256[] memory temp2;\n    return (0, temp1, temp2);\n  }\n\n  function shieldAssetsCount() external view override returns (uint256 _shieldAssetsCount) {\n    return 0;\n  }\n\n  function addShieldTokens(address _tokenAddress, uint256 _tokensAmount) external override returns (bool _success) {\n    return false;\n  }\n\n  function buyPolicy(\n    uint256 _durationSeconds,\n    uint256 _coverTokens,\n    uint256 _maxDaiTokens\n  ) external override {\n    _buyPolicyFor(msg.sender, _durationSeconds, _coverTokens, _maxDaiTokens);\n  }\n\n  function buyPolicyFor(\n    address _policyHolderAddr,\n    uint256 _durationSeconds,\n    uint256 _coverTokens,\n    uint256 _maxDaiTokens\n  ) external override {\n    _buyPolicyFor(_policyHolderAddr, _durationSeconds, _coverTokens, _maxDaiTokens);\n  }\n\n  function _buyPolicyFor(\n    address _policyHolderAddr,\n    uint256 _durationSeconds,\n    uint256 _coverTokens,\n    uint256 _maxDaiTokens\n  ) internal {\n    PolicyHolder memory _policyHolder = policyHolders[_policyHolderAddr];\n    require(_policyHolder.durationSeconds == 0, \"The policy holder already exists\");\n    require(totalLiquidity >= totalCoverTokens.add(_coverTokens), \"Not enough available liquidity\");\n\n    uint256 _price = _getQuote(_durationSeconds, _coverTokens);\n\n    _policyHolder.coverTokens = _coverTokens;\n    _policyHolder.durationSeconds = _durationSeconds;\n    _policyHolder.maxDaiTokens = _maxDaiTokens;\n\n    policyHolders[_policyHolderAddr] = _policyHolder;\n    totalCoverTokens = totalCoverTokens.add(_coverTokens);\n\n    bool _success = IERC20(registry.getContract(registry.getDAIName()))\n      .transferFrom(_policyHolderAddr, address(this), _price);\n    require(_success, \"Failed to transfer tokens\");\n\n    emit BuyPolicy(_policyHolderAddr, _coverTokens, _price, totalCoverTokens);\n  }\n\n  function addLiquidity(uint256 _liqudityAmount) external override {\n    _addLiquidityFor(msg.sender, _liqudityAmount, false);\n  }\n\n  function addLiquidityFor(address _liquidityHolderAddr, uint256 _liqudityAmount) external override {\n    _addLiquidityFor(_liquidityHolderAddr, _liqudityAmount, false);\n  }\n\n  function addLiquidityFromLM(address _liquidityHolderAddr, uint256 _liqudityAmount) external override {\n    _addLiquidityFor(_liquidityHolderAddr, _liqudityAmount, true);\n  }\n\n  function _addLiquidityFor(address _liquidityHolderAddr, uint256 _liqudityAmount, bool _isLM)\n  onliLiquidityMining internal\n  {\n    bool _success = IERC20(registry.getContract(registry.getDAIName()))\n      .transferFrom(_liquidityHolderAddr, address(this), _liqudityAmount);\n    require(_success, \"Failed to transfer tokens\");\n\n    totalLiquidity = totalLiquidity.add(_liqudityAmount);\n    _mint(_liquidityHolderAddr, _liqudityAmount);\n\n    if(_isLM) {\n      liquidityFromLM[_liquidityHolderAddr] = liquidityFromLM[_liquidityHolderAddr].add(_liqudityAmount);\n    }\n\n    emit AddLiquidity(_liquidityHolderAddr, _liqudityAmount, totalLiquidity);\n  }\n\n  function withdrawLiquidity(uint256 _tokensToWithdraw) external override {\n    LiquidityMining _liquidityMining = LiquidityMining(registry.getContract(registry.getLiquidityMiningName()));\n\n    uint256 _availableBalance = balanceOf(msg.sender);\n    if (block.timestamp < _liquidityMining.getEndLMTime()) {\n      _availableBalance = _availableBalance.sub(liquidityFromLM[msg.sender]);\n    }\n\n    require(\n      _availableBalance >= _tokensToWithdraw,\n      \"The amount to be withdrawn is greater than the available amount\"\n    );\n    require(totalLiquidity.sub(_tokensToWithdraw) >= totalCoverTokens, \"Not enough available liquidity\");\n\n    bool _success = IERC20(registry.getContract(registry.getDAIName()))\n      .transfer(msg.sender, _tokensToWithdraw);\n    require(_success, \"Failed to transfer tokens\");\n\n    totalLiquidity = totalLiquidity.sub(_tokensToWithdraw);\n    _burn(msg.sender, _tokensToWithdraw);\n\n    emit WithdrawLiquidity(msg.sender, _tokensToWithdraw, totalLiquidity);\n  }\n\n  function _calculateInterest(address _policyHolder) internal view returns (uint256) {\n    return 0;\n  }\n\n  function rewardForUnclaimedExpiredPolicy(uint256 _policyId) external override {}\n\n  function stats()\n    external\n    override\n    returns (\n      uint256 _yearlyCost,\n      uint256 _maxCapacities,\n      uint256 _totalDaiLiquidity,\n      uint256 _annualProfitYields\n    )\n  {\n    return (0, 0, 0, 0);\n  }\n\n  uint256 public constant SECONDS_IN_THE_YEAR = 365 * 24 * 60 * 60; // 365 days * 24 hours * 60 minutes * 60 seconds\n  uint256 public constant PRECISION = 10**10;\n  uint256 public constant PERCENTAGE_100 = 100 * PRECISION;\n\n  uint256 public constant MINIMUM_COST_PERCENTAGE = 5 * PRECISION;\n  uint256 public constant RISKY_ASSET_THRESHOLD_PERCENTAGE = 70 * PRECISION;\n  uint256 public constant MAXIMUM_COST_NOT_RISKY_PERCENTAGE = 30 * PRECISION;\n  uint256 public constant MAXIMUM_COST_100_UTILIZATION_PERCENTAGE = 150 * PRECISION;\n\n  function calculateWhenNotRisky(uint256 _utilizationRatioPercentage) private pure returns (uint256) {\n    return (_utilizationRatioPercentage.mul(MAXIMUM_COST_NOT_RISKY_PERCENTAGE)).div(RISKY_ASSET_THRESHOLD_PERCENTAGE);\n  }\n\n  function calculateWhenIsRisky(uint256 _utilizationRatioPercentage) private pure returns (uint256) {\n    uint256 riskyRelation =\n      (PRECISION.mul(_utilizationRatioPercentage.sub(RISKY_ASSET_THRESHOLD_PERCENTAGE))).div(\n        (PERCENTAGE_100.sub(RISKY_ASSET_THRESHOLD_PERCENTAGE))\n      );\n\n    return\n      MAXIMUM_COST_NOT_RISKY_PERCENTAGE.add(\n        (riskyRelation.mul(MAXIMUM_COST_100_UTILIZATION_PERCENTAGE.sub(MAXIMUM_COST_NOT_RISKY_PERCENTAGE))).div(\n          PRECISION\n        )\n      );\n  }\n\n  function getQuote(uint256 _durationSeconds, uint256 _tokens) external view override returns (uint256 _daiTokens) {\n    _daiTokens = _getQuote(_durationSeconds, _tokens);\n  }\n\n  function _getQuote(uint256 _durationSeconds, uint256 _tokens) internal view returns (uint256) {\n    require(totalCoverTokens.add(_tokens) <= totalLiquidity, \"Requiring more than there exists\");\n    require(totalLiquidity > 0, \"The pool is empty\");\n\n    uint256 utilizationRatioPercentage = ((totalCoverTokens.add(_tokens)).mul(PERCENTAGE_100)).div(totalLiquidity);\n\n    uint256 annualInsuranceCostPercentage;\n\n    if (utilizationRatioPercentage < RISKY_ASSET_THRESHOLD_PERCENTAGE) {\n      annualInsuranceCostPercentage = calculateWhenNotRisky(utilizationRatioPercentage);\n    } else {\n      annualInsuranceCostPercentage = calculateWhenIsRisky(utilizationRatioPercentage);\n    }\n\n    annualInsuranceCostPercentage = Math.max(annualInsuranceCostPercentage, MINIMUM_COST_PERCENTAGE);\n\n    uint256 actualInsuranceCostPercentage = (_durationSeconds.mul(annualInsuranceCostPercentage))\n      .div(SECONDS_IN_THE_YEAR);\n\n    return (_tokens.mul(actualInsuranceCostPercentage)).div(PERCENTAGE_100);\n  }\n\n  modifier onliLiquidityMining() {\n    require(msg.sender == registry.getContract(registry.getLiquidityMiningName()),\n      \"The caller does not have access, only liquidity mining have access.\");\n    _;\n  }\n}\n",
  "sourcePath": "/home/oleg/go/src/github.com/Bridge-Mutual/bridgemutual-core/contracts/PolicyBook.sol",
  "compiler": {
    "name": "solc",
    "version": "0.7.4+commit.3f05b770.Emscripten.clang"
  },
  "schemaVersion": "3.3.3",
  "updatedAt": "2021-01-27T09:58:45.921Z",
  "devdoc": {
    "kind": "dev",
    "methods": {
      "addLiquidity(uint256)": {
        "params": {
          "_liqudityAmount": "is amount of DAI tokens to secure"
        }
      },
      "addLiquidityFor(address,uint256)": {
        "params": {
          "_liqudityAmount": "is amount of DAI tokens to secure",
          "_liquidityHolderAddr": "is address of address to assign cover"
        }
      },
      "addLiquidityFromLM(address,uint256)": {
        "params": {
          "_liqudityAmount": "is amount of DAI tokens to secure",
          "_liquidityHolderAddr": "is address of address to assign cover"
        }
      },
      "addShieldTokens(address,uint256)": {
        "params": {
          "_tokenAddress": "is address of reward token to add",
          "_tokensAmount": "is max amount of reward to operate on"
        },
        "returns": {
          "_success": "is indicator if purchase is successful, it will throw exception if unsuccessful"
        }
      },
      "allowance(address,address)": {
        "details": "See {IERC20-allowance}."
      },
      "approve(address,uint256)": {
        "details": "See {IERC20-approve}. Requirements: - `spender` cannot be the zero address."
      },
      "balanceOf(address)": {
        "details": "See {IERC20-balanceOf}."
      },
      "buyPolicy(uint256,uint256,uint256)": {
        "params": {
          "_coverTokens": "is number of tokens to cover",
          "_durationSeconds": "is number of seconds to cover",
          "_maxDaiTokens": "is number of DAI to spend"
        }
      },
      "buyPolicyFor(address,uint256,uint256,uint256)": {
        "params": {
          "_coverTokens": "is number of tokens to cover",
          "_durationSeconds": "is number of seconds to cover",
          "_maxDaiTokens": "is number of DAI to spend",
          "_policyHolderAddr": "is address of address to assign cover"
        }
      },
      "decimals()": {
        "details": "Returns the number of decimals used to get its user representation. For example, if `decimals` equals `2`, a balance of `505` tokens should be displayed to a user as `5,05` (`505 / 10 ** 2`). Tokens usually opt for a value of 18, imitating the relationship between Ether and Wei. This is the value {ERC20} uses, unless {_setupDecimals} is called. NOTE: This information is only used for _display_ purposes: it in no way affects any of the arithmetic of the contract, including {IERC20-balanceOf} and {IERC20-transfer}."
      },
      "decreaseAllowance(address,uint256)": {
        "details": "Atomically decreases the allowance granted to `spender` by the caller. This is an alternative to {approve} that can be used as a mitigation for problems described in {IERC20-approve}. Emits an {Approval} event indicating the updated allowance. Requirements: - `spender` cannot be the zero address. - `spender` must have allowance for the caller of at least `subtractedValue`."
      },
      "getQuote(uint256,uint256)": {
        "params": {
          "_durationSeconds": "is number of seconds to cover",
          "_tokens": "is number of tokens to cover"
        },
        "returns": {
          "_daiTokens": "is amount of DAI policy costs"
        }
      },
      "increaseAllowance(address,uint256)": {
        "details": "Atomically increases the allowance granted to `spender` by the caller. This is an alternative to {approve} that can be used as a mitigation for problems described in {IERC20-approve}. Emits an {Approval} event indicating the updated allowance. Requirements: - `spender` cannot be the zero address."
      },
      "name()": {
        "details": "Returns the name of the token."
      },
      "quoteStrategy()": {
        "returns": {
          "_quoteStrategy": "is address of Quote strategy contract used to calculate quote"
        }
      },
      "rewardForUnclaimedExpiredPolicy(uint256)": {
        "params": {
          "_policyId": "is id of policy to get reward for, reward will be sent to policy holder"
        }
      },
      "shieldAssets(uint256,uint256)": {
        "params": {
          "_limit": "is number of policy books to returns from _offset",
          "_offset": "is starting item in array to return array from"
        },
        "returns": {
          "_shieldAssets": "is addresses of shield assets, that will be distributed to Policy givers",
          "_shieldAssetsCount": "is number of added shield assets"
        }
      },
      "shieldAssetsCount()": {
        "returns": {
          "_shieldAssetsCount": "is number of added shield assets"
        }
      },
      "shieldAssetsWithBalance(uint256,uint256)": {
        "params": {
          "_limit": "is number of policy books to returns from _offset",
          "_offset": "is starting item in array to return array from"
        },
        "returns": {
          "_shieldAssetBalance": "is tokens amount of shield assets allocated to Policy Book,  to get specific shield asset balance lookup _shieldAssetBalances by same index as of shield asset",
          "_shieldAssets": "is addresses of shield assets, that will be distributed to Policy givers",
          "_shieldAssetsCount": "is number of added shield assets"
        }
      },
      "stats()": {
        "returns": {
          "_annualProfitYields": "is current annual profit yield",
          "_maxCapacities": "is max DAI amount to be covered at now",
          "_totalDaiLiquidity": "is DAI amount placed by Policy providers",
          "_yearlyCost": "_yearlyCost"
        }
      },
      "symbol()": {
        "details": "Returns the symbol of the token, usually a shorter version of the name."
      },
      "totalSupply()": {
        "details": "See {IERC20-totalSupply}."
      },
      "transfer(address,uint256)": {
        "details": "See {IERC20-transfer}. Requirements: - `recipient` cannot be the zero address. - the caller must have a balance of at least `amount`."
      },
      "transferFrom(address,address,uint256)": {
        "details": "See {IERC20-transferFrom}. Emits an {Approval} event indicating the updated allowance. This is not required by the EIP. See the note at the beginning of {ERC20}. Requirements: - `sender` and `recipient` cannot be the zero address. - `sender` must have a balance of at least `amount`. - the caller must have allowance for ``sender``'s tokens of at least `amount`."
      },
      "withdrawLiquidity(uint256)": {
        "params": {
          "_tokensToWithdraw": "is amount of DAI tokens to withdraw"
        }
      }
    },
    "stateVariables": {
      "contractAddress": {
        "return": "_contract is address of covered contract"
      },
      "contractType": {
        "return": "_type is type of contract"
      }
    },
    "version": 1
  },
  "userdoc": {
    "kind": "user",
    "methods": {
      "addLiquidity(uint256)": {
        "notice": "Let user to add liquidity by supplying DAI, access: ANY"
      },
      "addLiquidityFor(address,uint256)": {
        "notice": "Let user to add liqiudity for another user by supplying DAI, access: ANY"
      },
      "addLiquidityFromLM(address,uint256)": {
        "notice": "Let liquidityMining contract to add liqiudity for another user by supplying DAI, access: ONLY LM"
      },
      "addShieldTokens(address,uint256)": {
        "notice": "Adds shield tokens to contract, access: ANY"
      },
      "buyPolicy(uint256,uint256,uint256)": {
        "notice": "Let user to buy policy by supplying DAI, access: ANY"
      },
      "buyPolicyFor(address,uint256,uint256,uint256)": {
        "notice": "Let user to buy policy for another user by supplying DAI, access: ANY"
      },
      "contractAddress()": {
        "notice": "Returns address of contract this PolicyBook covers, access: ANY"
      },
      "contractType()": {
        "notice": "Returns type of contract this PolicyBook covers, access: ANY"
      },
      "getQuote(uint256,uint256)": {
        "notice": "Let user to calculate policy cost in DAI, access: ANY"
      },
      "quoteStrategy()": {
        "notice": "Returns quote strategy defined during creation of PolicyBook, access: ANY"
      },
      "rewardForUnclaimedExpiredPolicy(uint256)": {
        "notice": "Let user to claim rewards for unclaimed policy cost in DAI, access: ANY"
      },
      "shieldAssets(uint256,uint256)": {
        "notice": "Returns list of shield assets added to PolicyBook, access: ANY"
      },
      "shieldAssetsCount()": {
        "notice": "Returns number of shield assets added, access: ANY"
      },
      "shieldAssetsWithBalance(uint256,uint256)": {
        "notice": "Returns list of shield assets added with tokens amount allocated to Policy Book, access: ANY"
      },
      "stats()": {
        "notice": "Getting stats, access: ANY"
      },
      "withdrawLiquidity(uint256)": {
        "notice": "Let user to withdraw deposited liqiudity, access: ANY"
      }
    },
    "version": 1
  }
}