{
  "contractName": "PolicyBook",
  "abi": [
    {
      "inputs": [
        {
          "internalType": "address",
          "name": "_insuranceContract",
          "type": "address"
        },
        {
          "internalType": "enum IPolicyBookFabric.ContractType",
          "name": "_contractType",
          "type": "uint8"
        },
        {
          "internalType": "string",
          "name": "_description",
          "type": "string"
        },
        {
          "internalType": "string",
          "name": "_projectSymbol",
          "type": "string"
        }
      ],
      "stateMutability": "nonpayable",
      "type": "constructor"
    },
    {
      "anonymous": false,
      "inputs": [
        {
          "indexed": false,
          "internalType": "address",
          "name": "_liquidityHolder",
          "type": "address"
        },
        {
          "indexed": false,
          "internalType": "uint256",
          "name": "_liqudityAmount",
          "type": "uint256"
        },
        {
          "indexed": false,
          "internalType": "uint256",
          "name": "_newTotalLiquidity",
          "type": "uint256"
        }
      ],
      "name": "AddLiquidity",
      "type": "event"
    },
    {
      "anonymous": false,
      "inputs": [
        {
          "indexed": true,
          "internalType": "address",
          "name": "owner",
          "type": "address"
        },
        {
          "indexed": true,
          "internalType": "address",
          "name": "spender",
          "type": "address"
        },
        {
          "indexed": false,
          "internalType": "uint256",
          "name": "value",
          "type": "uint256"
        }
      ],
      "name": "Approval",
      "type": "event"
    },
    {
      "anonymous": false,
      "inputs": [
        {
          "indexed": true,
          "internalType": "address",
          "name": "account",
          "type": "address"
        },
        {
          "indexed": true,
          "internalType": "address",
          "name": "operator",
          "type": "address"
        },
        {
          "indexed": false,
          "internalType": "bool",
          "name": "approved",
          "type": "bool"
        }
      ],
      "name": "ApprovalForAll",
      "type": "event"
    },
    {
      "anonymous": false,
      "inputs": [
        {
          "indexed": false,
          "internalType": "address",
          "name": "_policyHolder",
          "type": "address"
        },
        {
          "indexed": false,
          "internalType": "uint256",
          "name": "_coverTokens",
          "type": "uint256"
        },
        {
          "indexed": false,
          "internalType": "uint256",
          "name": "_price",
          "type": "uint256"
        },
        {
          "indexed": false,
          "internalType": "uint256",
          "name": "_newTotalCoverTokens",
          "type": "uint256"
        }
      ],
      "name": "BuyPolicy",
      "type": "event"
    },
    {
      "anonymous": false,
      "inputs": [
        {
          "indexed": true,
          "internalType": "address",
          "name": "previousOwner",
          "type": "address"
        },
        {
          "indexed": true,
          "internalType": "address",
          "name": "newOwner",
          "type": "address"
        }
      ],
      "name": "OwnershipTransferred",
      "type": "event"
    },
    {
      "anonymous": false,
      "inputs": [
        {
          "indexed": true,
          "internalType": "address",
          "name": "from",
          "type": "address"
        },
        {
          "indexed": true,
          "internalType": "address",
          "name": "to",
          "type": "address"
        },
        {
          "indexed": false,
          "internalType": "uint256",
          "name": "value",
          "type": "uint256"
        }
      ],
      "name": "Transfer",
      "type": "event"
    },
    {
      "anonymous": false,
      "inputs": [
        {
          "indexed": true,
          "internalType": "address",
          "name": "operator",
          "type": "address"
        },
        {
          "indexed": true,
          "internalType": "address",
          "name": "from",
          "type": "address"
        },
        {
          "indexed": true,
          "internalType": "address",
          "name": "to",
          "type": "address"
        },
        {
          "indexed": false,
          "internalType": "uint256[]",
          "name": "ids",
          "type": "uint256[]"
        },
        {
          "indexed": false,
          "internalType": "uint256[]",
          "name": "values",
          "type": "uint256[]"
        }
      ],
      "name": "TransferBatch",
      "type": "event"
    },
    {
      "anonymous": false,
      "inputs": [
        {
          "indexed": true,
          "internalType": "address",
          "name": "operator",
          "type": "address"
        },
        {
          "indexed": true,
          "internalType": "address",
          "name": "from",
          "type": "address"
        },
        {
          "indexed": true,
          "internalType": "address",
          "name": "to",
          "type": "address"
        },
        {
          "indexed": false,
          "internalType": "uint256",
          "name": "id",
          "type": "uint256"
        },
        {
          "indexed": false,
          "internalType": "uint256",
          "name": "value",
          "type": "uint256"
        }
      ],
      "name": "TransferSingle",
      "type": "event"
    },
    {
      "anonymous": false,
      "inputs": [
        {
          "indexed": false,
          "internalType": "string",
          "name": "value",
          "type": "string"
        },
        {
          "indexed": true,
          "internalType": "uint256",
          "name": "id",
          "type": "uint256"
        }
      ],
      "name": "URI",
      "type": "event"
    },
    {
      "anonymous": false,
      "inputs": [
        {
          "indexed": false,
          "internalType": "address",
          "name": "_liquidityHolder",
          "type": "address"
        },
        {
          "indexed": false,
          "internalType": "uint256",
          "name": "_tokensToWithdraw",
          "type": "uint256"
        },
        {
          "indexed": false,
          "internalType": "uint256",
          "name": "_newTotalLiquidity",
          "type": "uint256"
        }
      ],
      "name": "WithdrawLiquidity",
      "type": "event"
    },
    {
      "inputs": [],
      "name": "MAXIMUM_COST_100_UTILIZATION_PERCENTAGE",
      "outputs": [
        {
          "internalType": "uint256",
          "name": "",
          "type": "uint256"
        }
      ],
      "stateMutability": "view",
      "type": "function"
    },
    {
      "inputs": [],
      "name": "MAXIMUM_COST_NOT_RISKY_PERCENTAGE",
      "outputs": [
        {
          "internalType": "uint256",
          "name": "",
          "type": "uint256"
        }
      ],
      "stateMutability": "view",
      "type": "function"
    },
    {
      "inputs": [],
      "name": "MINIMUM_COST_PERCENTAGE",
      "outputs": [
        {
          "internalType": "uint256",
          "name": "",
          "type": "uint256"
        }
      ],
      "stateMutability": "view",
      "type": "function"
    },
    {
      "inputs": [],
      "name": "PERCENTAGE_100",
      "outputs": [
        {
          "internalType": "uint256",
          "name": "",
          "type": "uint256"
        }
      ],
      "stateMutability": "view",
      "type": "function"
    },
    {
      "inputs": [],
      "name": "PRECISION",
      "outputs": [
        {
          "internalType": "uint256",
          "name": "",
          "type": "uint256"
        }
      ],
      "stateMutability": "view",
      "type": "function"
    },
    {
      "inputs": [],
      "name": "RISKY_ASSET_THRESHOLD_PERCENTAGE",
      "outputs": [
        {
          "internalType": "uint256",
          "name": "",
          "type": "uint256"
        }
      ],
      "stateMutability": "view",
      "type": "function"
    },
    {
      "inputs": [],
      "name": "SECONDS_IN_THE_YEAR",
      "outputs": [
        {
          "internalType": "uint256",
          "name": "",
          "type": "uint256"
        }
      ],
      "stateMutability": "view",
      "type": "function"
    },
    {
      "inputs": [
        {
          "internalType": "address",
          "name": "owner",
          "type": "address"
        },
        {
          "internalType": "address",
          "name": "spender",
          "type": "address"
        }
      ],
      "name": "allowance",
      "outputs": [
        {
          "internalType": "uint256",
          "name": "",
          "type": "uint256"
        }
      ],
      "stateMutability": "view",
      "type": "function"
    },
    {
      "inputs": [
        {
          "internalType": "address",
          "name": "spender",
          "type": "address"
        },
        {
          "internalType": "uint256",
          "name": "amount",
          "type": "uint256"
        }
      ],
      "name": "approve",
      "outputs": [
        {
          "internalType": "bool",
          "name": "",
          "type": "bool"
        }
      ],
      "stateMutability": "nonpayable",
      "type": "function"
    },
    {
      "inputs": [
        {
          "internalType": "address",
          "name": "account",
          "type": "address"
        },
        {
          "internalType": "uint256",
          "name": "id",
          "type": "uint256"
        }
      ],
      "name": "balanceOf",
      "outputs": [
        {
          "internalType": "uint256",
          "name": "",
          "type": "uint256"
        }
      ],
      "stateMutability": "view",
      "type": "function"
    },
    {
      "inputs": [
        {
          "internalType": "address",
          "name": "account",
          "type": "address"
        }
      ],
      "name": "balanceOf",
      "outputs": [
        {
          "internalType": "uint256",
          "name": "",
          "type": "uint256"
        }
      ],
      "stateMutability": "view",
      "type": "function"
    },
    {
      "inputs": [
        {
          "internalType": "address[]",
          "name": "accounts",
          "type": "address[]"
        },
        {
          "internalType": "uint256[]",
          "name": "ids",
          "type": "uint256[]"
        }
      ],
      "name": "balanceOfBatch",
      "outputs": [
        {
          "internalType": "uint256[]",
          "name": "",
          "type": "uint256[]"
        }
      ],
      "stateMutability": "view",
      "type": "function"
    },
    {
      "inputs": [
        {
          "internalType": "address",
          "name": "owner",
          "type": "address"
        }
      ],
      "name": "balanceOfNFT",
      "outputs": [
        {
          "internalType": "uint256",
          "name": "",
          "type": "uint256"
        }
      ],
      "stateMutability": "view",
      "type": "function"
    },
    {
      "inputs": [],
      "name": "bmiDaiStakingAddress",
      "outputs": [
        {
          "internalType": "address",
          "name": "",
          "type": "address"
        }
      ],
      "stateMutability": "view",
      "type": "function"
    },
    {
      "inputs": [
        {
          "internalType": "address",
          "name": "account",
          "type": "address"
        },
        {
          "internalType": "uint256",
          "name": "id",
          "type": "uint256"
        },
        {
          "internalType": "uint256",
          "name": "amount",
          "type": "uint256"
        }
      ],
      "name": "burnNFT",
      "outputs": [],
      "stateMutability": "nonpayable",
      "type": "function"
    },
    {
      "inputs": [],
      "name": "contractType",
      "outputs": [
        {
          "internalType": "enum IPolicyBookFabric.ContractType",
          "name": "",
          "type": "uint8"
        }
      ],
      "stateMutability": "view",
      "type": "function"
    },
    {
      "inputs": [],
      "name": "contractsRegistry",
      "outputs": [
        {
          "internalType": "contract ContractsRegistry",
          "name": "",
          "type": "address"
        }
      ],
      "stateMutability": "view",
      "type": "function"
    },
    {
      "inputs": [],
      "name": "daiToken",
      "outputs": [
        {
          "internalType": "contract IERC20",
          "name": "",
          "type": "address"
        }
      ],
      "stateMutability": "view",
      "type": "function"
    },
    {
      "inputs": [],
      "name": "decimals",
      "outputs": [
        {
          "internalType": "uint8",
          "name": "",
          "type": "uint8"
        }
      ],
      "stateMutability": "view",
      "type": "function"
    },
    {
      "inputs": [
        {
          "internalType": "address",
          "name": "spender",
          "type": "address"
        },
        {
          "internalType": "uint256",
          "name": "subtractedValue",
          "type": "uint256"
        }
      ],
      "name": "decreaseAllowance",
      "outputs": [
        {
          "internalType": "bool",
          "name": "",
          "type": "bool"
        }
      ],
      "stateMutability": "nonpayable",
      "type": "function"
    },
    {
      "inputs": [
        {
          "internalType": "address",
          "name": "spender",
          "type": "address"
        },
        {
          "internalType": "uint256",
          "name": "addedValue",
          "type": "uint256"
        }
      ],
      "name": "increaseAllowance",
      "outputs": [
        {
          "internalType": "bool",
          "name": "",
          "type": "bool"
        }
      ],
      "stateMutability": "nonpayable",
      "type": "function"
    },
    {
      "inputs": [],
      "name": "insuranceContractAddress",
      "outputs": [
        {
          "internalType": "address",
          "name": "",
          "type": "address"
        }
      ],
      "stateMutability": "view",
      "type": "function"
    },
    {
      "inputs": [
        {
          "internalType": "address",
          "name": "account",
          "type": "address"
        },
        {
          "internalType": "address",
          "name": "operator",
          "type": "address"
        }
      ],
      "name": "isApprovedForAll",
      "outputs": [
        {
          "internalType": "bool",
          "name": "",
          "type": "bool"
        }
      ],
      "stateMutability": "view",
      "type": "function"
    },
    {
      "inputs": [
        {
          "internalType": "address",
          "name": "account",
          "type": "address"
        },
        {
          "internalType": "uint256",
          "name": "id",
          "type": "uint256"
        },
        {
          "internalType": "uint256",
          "name": "amount",
          "type": "uint256"
        },
        {
          "internalType": "bytes",
          "name": "data",
          "type": "bytes"
        }
      ],
      "name": "mintNFT",
      "outputs": [],
      "stateMutability": "nonpayable",
      "type": "function"
    },
    {
      "inputs": [],
      "name": "name",
      "outputs": [
        {
          "internalType": "string",
          "name": "",
          "type": "string"
        }
      ],
      "stateMutability": "view",
      "type": "function"
    },
    {
      "inputs": [],
      "name": "owner",
      "outputs": [
        {
          "internalType": "address",
          "name": "",
          "type": "address"
        }
      ],
      "stateMutability": "view",
      "type": "function"
    },
    {
      "inputs": [
        {
          "internalType": "uint256",
          "name": "tokenId",
          "type": "uint256"
        }
      ],
      "name": "ownerOfNFT",
      "outputs": [
        {
          "internalType": "address",
          "name": "",
          "type": "address"
        }
      ],
      "stateMutability": "view",
      "type": "function"
    },
    {
      "inputs": [
        {
          "internalType": "address",
          "name": "",
          "type": "address"
        }
      ],
      "name": "policyHolders",
      "outputs": [
        {
          "internalType": "uint256",
          "name": "coverTokens",
          "type": "uint256"
        },
        {
          "internalType": "uint256",
          "name": "durationSeconds",
          "type": "uint256"
        }
      ],
      "stateMutability": "view",
      "type": "function"
    },
    {
      "inputs": [],
      "name": "renounceOwnership",
      "outputs": [],
      "stateMutability": "nonpayable",
      "type": "function"
    },
    {
      "inputs": [
        {
          "internalType": "address",
          "name": "from",
          "type": "address"
        },
        {
          "internalType": "address",
          "name": "to",
          "type": "address"
        },
        {
          "internalType": "uint256[]",
          "name": "ids",
          "type": "uint256[]"
        },
        {
          "internalType": "uint256[]",
          "name": "amounts",
          "type": "uint256[]"
        },
        {
          "internalType": "bytes",
          "name": "data",
          "type": "bytes"
        }
      ],
      "name": "safeBatchTransferFrom",
      "outputs": [],
      "stateMutability": "nonpayable",
      "type": "function"
    },
    {
      "inputs": [
        {
          "internalType": "address",
          "name": "from",
          "type": "address"
        },
        {
          "internalType": "address",
          "name": "to",
          "type": "address"
        },
        {
          "internalType": "uint256",
          "name": "id",
          "type": "uint256"
        },
        {
          "internalType": "uint256",
          "name": "amount",
          "type": "uint256"
        },
        {
          "internalType": "bytes",
          "name": "data",
          "type": "bytes"
        }
      ],
      "name": "safeTransferFrom",
      "outputs": [],
      "stateMutability": "nonpayable",
      "type": "function"
    },
    {
      "inputs": [
        {
          "internalType": "address",
          "name": "operator",
          "type": "address"
        },
        {
          "internalType": "bool",
          "name": "approved",
          "type": "bool"
        }
      ],
      "name": "setApprovalForAll",
      "outputs": [],
      "stateMutability": "nonpayable",
      "type": "function"
    },
    {
      "inputs": [
        {
          "internalType": "bytes4",
          "name": "interfaceId",
          "type": "bytes4"
        }
      ],
      "name": "supportsInterface",
      "outputs": [
        {
          "internalType": "bool",
          "name": "",
          "type": "bool"
        }
      ],
      "stateMutability": "view",
      "type": "function"
    },
    {
      "inputs": [],
      "name": "symbol",
      "outputs": [
        {
          "internalType": "string",
          "name": "",
          "type": "string"
        }
      ],
      "stateMutability": "view",
      "type": "function"
    },
    {
      "inputs": [
        {
          "internalType": "address",
          "name": "owner",
          "type": "address"
        },
        {
          "internalType": "uint256",
          "name": "index",
          "type": "uint256"
        }
      ],
      "name": "tokenOfOwnerByIndexNFT",
      "outputs": [
        {
          "internalType": "uint256",
          "name": "",
          "type": "uint256"
        }
      ],
      "stateMutability": "view",
      "type": "function"
    },
    {
      "inputs": [],
      "name": "totalCoverTokens",
      "outputs": [
        {
          "internalType": "uint256",
          "name": "",
          "type": "uint256"
        }
      ],
      "stateMutability": "view",
      "type": "function"
    },
    {
      "inputs": [],
      "name": "totalLiquidity",
      "outputs": [
        {
          "internalType": "uint256",
          "name": "",
          "type": "uint256"
        }
      ],
      "stateMutability": "view",
      "type": "function"
    },
    {
      "inputs": [],
      "name": "totalSupply",
      "outputs": [
        {
          "internalType": "uint256",
          "name": "",
          "type": "uint256"
        }
      ],
      "stateMutability": "view",
      "type": "function"
    },
    {
      "inputs": [],
      "name": "totalSupplyNFT",
      "outputs": [
        {
          "internalType": "uint256",
          "name": "",
          "type": "uint256"
        }
      ],
      "stateMutability": "view",
      "type": "function"
    },
    {
      "inputs": [
        {
          "internalType": "address",
          "name": "recipient",
          "type": "address"
        },
        {
          "internalType": "uint256",
          "name": "amount",
          "type": "uint256"
        }
      ],
      "name": "transfer",
      "outputs": [
        {
          "internalType": "bool",
          "name": "",
          "type": "bool"
        }
      ],
      "stateMutability": "nonpayable",
      "type": "function"
    },
    {
      "inputs": [
        {
          "internalType": "address",
          "name": "sender",
          "type": "address"
        },
        {
          "internalType": "address",
          "name": "recipient",
          "type": "address"
        },
        {
          "internalType": "uint256",
          "name": "amount",
          "type": "uint256"
        }
      ],
      "name": "transferFrom",
      "outputs": [
        {
          "internalType": "bool",
          "name": "",
          "type": "bool"
        }
      ],
      "stateMutability": "nonpayable",
      "type": "function"
    },
    {
      "inputs": [
        {
          "internalType": "address",
          "name": "newOwner",
          "type": "address"
        }
      ],
      "name": "transferOwnership",
      "outputs": [],
      "stateMutability": "nonpayable",
      "type": "function"
    },
    {
      "stateMutability": "payable",
      "type": "receive"
    },
    {
      "inputs": [
        {
          "internalType": "contract ContractsRegistry",
          "name": "_contractsRegistry",
          "type": "address"
        }
      ],
      "name": "initRegistry",
      "outputs": [],
      "stateMutability": "nonpayable",
      "type": "function"
    },
    {
      "inputs": [],
      "name": "approveAllDaiTokensForStakingAndTransferOwnership",
      "outputs": [],
      "stateMutability": "nonpayable",
      "type": "function"
    },
    {
      "inputs": [],
      "name": "quoteStrategy",
      "outputs": [
        {
          "internalType": "address",
          "name": "_quoteStrategy",
          "type": "address"
        }
      ],
      "stateMutability": "view",
      "type": "function"
    },
    {
      "inputs": [
        {
          "internalType": "uint256",
          "name": "_offset",
          "type": "uint256"
        },
        {
          "internalType": "uint256",
          "name": "_limit",
          "type": "uint256"
        }
      ],
      "name": "shieldAssets",
      "outputs": [
        {
          "internalType": "uint256",
          "name": "_shieldAssetsCount",
          "type": "uint256"
        },
        {
          "internalType": "address[]",
          "name": "_shieldAssets",
          "type": "address[]"
        }
      ],
      "stateMutability": "view",
      "type": "function"
    },
    {
      "inputs": [
        {
          "internalType": "uint256",
          "name": "_offset",
          "type": "uint256"
        },
        {
          "internalType": "uint256",
          "name": "_limit",
          "type": "uint256"
        }
      ],
      "name": "shieldAssetsWithBalance",
      "outputs": [
        {
          "internalType": "uint256",
          "name": "_shieldAssetsCount",
          "type": "uint256"
        },
        {
          "internalType": "address[]",
          "name": "_shieldAssets",
          "type": "address[]"
        },
        {
          "internalType": "uint256[]",
          "name": "_shieldAssetBalance",
          "type": "uint256[]"
        }
      ],
      "stateMutability": "view",
      "type": "function"
    },
    {
      "inputs": [],
      "name": "shieldAssetsCount",
      "outputs": [
        {
          "internalType": "uint256",
          "name": "_shieldAssetsCount",
          "type": "uint256"
        }
      ],
      "stateMutability": "view",
      "type": "function"
    },
    {
      "inputs": [
        {
          "internalType": "address",
          "name": "_tokenAddress",
          "type": "address"
        },
        {
          "internalType": "uint256",
          "name": "_tokensAmount",
          "type": "uint256"
        }
      ],
      "name": "addShieldTokens",
      "outputs": [
        {
          "internalType": "bool",
          "name": "_success",
          "type": "bool"
        }
      ],
      "stateMutability": "nonpayable",
      "type": "function"
    },
    {
      "inputs": [
        {
          "internalType": "uint256",
          "name": "_durationSeconds",
          "type": "uint256"
        },
        {
          "internalType": "uint256",
          "name": "_coverTokens",
          "type": "uint256"
        }
      ],
      "name": "buyPolicy",
      "outputs": [],
      "stateMutability": "nonpayable",
      "type": "function"
    },
    {
      "inputs": [
        {
          "internalType": "address",
          "name": "_policyHolderAddr",
          "type": "address"
        },
        {
          "internalType": "uint256",
          "name": "_durationSeconds",
          "type": "uint256"
        },
        {
          "internalType": "uint256",
          "name": "_coverTokens",
          "type": "uint256"
        }
      ],
      "name": "buyPolicyFor",
      "outputs": [],
      "stateMutability": "nonpayable",
      "type": "function"
    },
    {
      "inputs": [
        {
          "internalType": "uint256",
          "name": "_liqudityAmount",
          "type": "uint256"
        }
      ],
      "name": "addLiquidity",
      "outputs": [],
      "stateMutability": "nonpayable",
      "type": "function"
    },
    {
      "inputs": [
        {
          "internalType": "address",
          "name": "_liquidityHolderAddr",
          "type": "address"
        },
        {
          "internalType": "uint256",
          "name": "_liqudityAmount",
          "type": "uint256"
        }
      ],
      "name": "addLiquidityFor",
      "outputs": [],
      "stateMutability": "nonpayable",
      "type": "function"
    },
    {
      "inputs": [
        {
          "internalType": "uint256",
          "name": "_tokensToWithdraw",
          "type": "uint256"
        }
      ],
      "name": "withdrawLiquidity",
      "outputs": [],
      "stateMutability": "nonpayable",
      "type": "function"
    },
    {
      "inputs": [
        {
          "internalType": "uint256",
          "name": "_policyId",
          "type": "uint256"
        }
      ],
      "name": "rewardForUnclaimedExpiredPolicy",
      "outputs": [],
      "stateMutability": "nonpayable",
      "type": "function"
    },
    {
      "inputs": [],
      "name": "stats",
      "outputs": [
        {
          "internalType": "string",
          "name": "_name",
          "type": "string"
        },
        {
          "internalType": "enum IPolicyBookFabric.ContractType",
          "name": "_contractType",
          "type": "uint8"
        },
        {
          "internalType": "uint256",
          "name": "_maxCapacities",
          "type": "uint256"
        },
        {
          "internalType": "uint256",
          "name": "_totalDaiLiquidity",
          "type": "uint256"
        },
        {
          "internalType": "uint256",
          "name": "_annualProfitYields",
          "type": "uint256"
        }
      ],
      "stateMutability": "view",
      "type": "function"
    },
    {
      "inputs": [
        {
          "internalType": "uint256",
          "name": "_durationSeconds",
          "type": "uint256"
        },
        {
          "internalType": "uint256",
          "name": "_tokens",
          "type": "uint256"
        }
      ],
      "name": "getQuote",
      "outputs": [
        {
          "internalType": "uint256",
          "name": "_daiTokens",
          "type": "uint256"
        }
      ],
      "stateMutability": "view",
      "type": "function"
    }
  ],
  "bytecode": "0x60806040523480156200001157600080fd5b5060405162004e5838038062004e5883398101604081905262000034916200031e565b8181604051602001620000489190620003bc565b60408051601f1981840301815291905281816200006c6301ffc9a760e01b6200012f565b620000788282620001b4565b6200008a636cdb3d1360e11b6200012f565b506000905062000099620001f1565b600b80546001600160a01b0319166001600160a01b038316908117909155604051919250906000907f8be0079c531659141344cd1fd0a4f28419497f9722a3daafe3b4186f6b6457e0908290a35050600d80546001600160a01b0319166001600160a01b0387161780825585925060ff60a01b1916600160a01b8360038111156200012057fe5b0217905550505050506200041f565b6001600160e01b031980821614156200018f576040805162461bcd60e51b815260206004820152601c60248201527f4552433136353a20696e76616c696420696e7465726661636520696400000000604482015290519081900360640190fd5b6001600160e01b0319166000908152602081905260409020805460ff19166001179055565b8151620001c9906001906020850190620001f5565b508051620001df906002906020840190620001f5565b50506003805460ff1916601217905550565b3390565b828054600181600116156101000203166002900490600052602060002090601f0160209004810192826200022d576000855562000278565b82601f106200024857805160ff191683800117855562000278565b8280016001018555821562000278579182015b82811115620002785782518255916020019190600101906200025b565b50620002869291506200028a565b5090565b5b808211156200028657600081556001016200028b565b600082601f830112620002b2578081fd5b81516001600160401b0380821115620002c757fe5b604051601f8301601f191681016020018281118282101715620002e657fe5b6040528281529250828483016020018610156200030257600080fd5b62000315836020830160208801620003ec565b50505092915050565b6000806000806080858703121562000334578384fd5b84516001600160a01b03811681146200034b578485fd5b60208601519094506004811062000360578384fd5b60408601519093506001600160401b03808211156200037d578384fd5b6200038b88838901620002a1565b93506060870151915080821115620003a1578283fd5b50620003b087828801620002a1565b91505092959194509250565b600065626d6944414960d01b82528251620003df816006850160208701620003ec565b9190910160060192915050565b60005b8381101562000409578181015183820152602001620003ef565b8381111562000419576000848401525b50505050565b614a29806200042f6000396000f3fe6080604052600436106103785760003560e01c8063758af3ab116101d1578063c18c605711610102578063dd62ed3e116100a0578063f242432a1161006f578063f242432a146109be578063f2fde38b146109de578063f5b100ea146109fe578063f60ff93714610a1e5761037f565b8063dd62ed3e14610949578063e985e9c514610969578063e98a04e114610989578063efa1f98a1461099e5761037f565b8063cfa8b3a8116100dc578063cfa8b3a8146108d9578063d0a43afd146108ee578063d80528ae1461090e578063d98d0c7e146109345761037f565b8063c18c605714610882578063cb2ef6f7146108a2578063cbf5a55e146108c45761037f565b8063a22cb4651161016f578063aaf5eb6811610149578063aaf5eb681461082e578063b0ea6a8414610843578063bc5d198a14610858578063be22f5461461086d5761037f565b8063a22cb465146107ce578063a457c2d7146107ee578063a9059cbb1461080e5761037f565b80638da5cb5b116101ab5780638da5cb5b1461077a57806395d89b411461078f5780639c590006146107a45780639effd687146107b95761037f565b8063758af3ab1461071757806379fac08c146107375780637cd0fc9b146107655761037f565b80632c865d6c116102ab578063514ea9bd1161024957806370a082311161022357806370a082311461069457806370b68a2a146106b4578063715018a6146106e25780637234751b146106f75761037f565b8063514ea9bd1461063f57806351c6590a146106545780635da2460d146106745761037f565b8063313ce56711610285578063313ce567146105b057806339509351146105d25780634b641181146105f25780634e1273f4146106125761037f565b80632c865d6c1461055b5780632d8a746e146105705780632eb2c2d6146105905761037f565b806314c179c011610318578063188ff854116102f2578063188ff854146104db5780631cc509fd146104fb5780631dcb46f61461051b57806323b872dd1461053b5761037f565b806314c179c01461048f57806315770f92146104b157806318160ddd146104c65761037f565b806306fdde031161035457806306fdde03146103fe578063095ea7b3146104205780630a861f2a146104405780630e82da53146104605761037f565b8062ded3b714610384578062fdd58e1461039b57806301ffc9a7146103d15761037f565b3661037f57005b600080fd5b34801561039057600080fd5b50610399610a33565b005b3480156103a757600080fd5b506103bb6103b63660046138fc565b610b84565b6040516103c8919061466a565b60405180910390f35b3480156103dd57600080fd5b506103f16103ec366004613a9b565b610bd7565b6040516103c89190613d9c565b34801561040a57600080fd5b50610413610c0e565b6040516103c89190613db5565b34801561042c57600080fd5b506103f161043b3660046138fc565b610c9b565b34801561044c57600080fd5b5061039961045b366004613b46565b610cb8565b34801561046c57600080fd5b5061048061047b366004613b5e565b610e26565b6040516103c89392919061468c565b34801561049b57600080fd5b506104a4610e32565b6040516103c89190613c2b565b3480156104bd57600080fd5b506103bb610e41565b3480156104d257600080fd5b506103bb610e47565b3480156104e757600080fd5b506103f16104f63660046138fc565b610e77565b34801561050757600080fd5b50610399610516366004613927565b610e7f565b34801561052757600080fd5b506103bb6105363660046138fc565b610ef9565b34801561054757600080fd5b506103f1610556366004613828565b610f22565b34801561056757600080fd5b506103bb610fa9565b34801561057c57600080fd5b506104a461058b366004613b46565b610fae565b34801561059c57600080fd5b506103996105ab36600461377e565b610fd6565b3480156105bc57600080fd5b506105c561126b565b6040516103c891906146c5565b3480156105de57600080fd5b506103f16105ed3660046138fc565b611274565b3480156105fe57600080fd5b5061039961060d36600461395b565b6112c2565b34801561061e57600080fd5b5061063261062d3660046139bc565b61133e565b6040516103c89190613d64565b34801561064b57600080fd5b506103bb61147e565b34801561066057600080fd5b5061039961066f366004613b46565b61148d565b34801561068057600080fd5b5061039961068f366004613b5e565b611497565b3480156106a057600080fd5b506103bb6106af36600461370e565b6114a6565b3480156106c057600080fd5b506106d46106cf36600461370e565b6114e0565b6040516103c89291906146b7565b3480156106ee57600080fd5b506103996114f9565b34801561070357600080fd5b50610399610712366004613927565b6115c5565b34801561072357600080fd5b506103bb610732366004613b5e565b6115d0565b34801561074357600080fd5b50610757610752366004613b5e565b6115dc565b6040516103c8929190614673565b34801561077157600080fd5b506104a4610fa9565b34801561078657600080fd5b506104a46115e6565b34801561079b57600080fd5b506104136115f5565b3480156107b057600080fd5b506103bb61164d565b3480156107c557600080fd5b506104a461165c565b3480156107da57600080fd5b506103996107e93660046138cf565b61166b565b3480156107fa57600080fd5b506103f16108093660046138fc565b611757565b34801561081a57600080fd5b506103f16108293660046138fc565b6117bf565b34801561083a57600080fd5b506103bb6117d3565b34801561084f57600080fd5b506103bb6117e2565b34801561086457600080fd5b506103bb6117f3565b34801561087957600080fd5b506104a46117fb565b34801561088e57600080fd5b5061039961089d366004613b46565b610b81565b3480156108ae57600080fd5b506108b761180a565b6040516103c89190613da7565b3480156108d057600080fd5b506103bb61182b565b3480156108e557600080fd5b506103bb61183b565b3480156108fa57600080fd5b5061039961090936600461370e565b61184b565b34801561091a57600080fd5b50610923611b5f565b6040516103c8959493929190613dc8565b34801561094057600080fd5b506104a4611c32565b34801561095557600080fd5b506103bb610964366004613746565b611c41565b34801561097557600080fd5b506103f1610984366004613746565b611c6c565b34801561099557600080fd5b506103bb611c9a565b3480156109aa57600080fd5b506103996109b93660046138fc565b611caa565b3480156109ca57600080fd5b506103996109d9366004613868565b611cb4565b3480156109ea57600080fd5b506103996109f936600461370e565b611ebe565b348015610a0a57600080fd5b506103bb610a1936600461370e565b611fe1565b348015610a2a57600080fd5b506103bb61202a565b610a3b612030565b600b546001600160a01b03908116911614610a9d576040805162461bcd60e51b815260206004820181905260248201527f4f776e61626c653a2063616c6c6572206973206e6f7420746865206f776e6572604482015290519081900360640190fd5b600e54600f546040517f095ea7b30000000000000000000000000000000000000000000000000000000081526000926001600160a01b039081169263095ea7b392610af2929091169060001990600401613c3f565b602060405180830381600087803b158015610b0c57600080fd5b505af1158015610b20573d6000803e3d6000fd5b505050506040513d601f19601f82011682018060405250810190610b449190613a7f565b905080610b6c5760405162461bcd60e51b8152600401610b639061425a565b60405180910390fd5b600f54610b81906001600160a01b0316611ebe565b50565b60006001600160a01b038316610bac5760405162461bcd60e51b8152600401610b6390613f89565b5060008181526005602090815260408083206001600160a01b03861684529091529020545b92915050565b7fffffffff000000000000000000000000000000000000000000000000000000001660009081526020819052604090205460ff1690565b60018054604080516020600284861615610100026000190190941693909304601f81018490048402820184019092528181529291830182828015610c935780601f10610c6857610100808354040283529160200191610c93565b820191906000526020600020905b815481529060010190602001808311610c7657829003601f168201915b505050505081565b6000610caf610ca8612030565b8484612034565b50600192915050565b80610cc2336114a6565b1015610ce05760405162461bcd60e51b8152600401610b639061434b565b601154601054610cf090836120e8565b1015610d0e5760405162461bcd60e51b8152600401610b6390614223565b600e546040517fa9059cbb0000000000000000000000000000000000000000000000000000000081526000916001600160a01b03169063a9059cbb90610d5a9033908690600401613c3f565b602060405180830381600087803b158015610d7457600080fd5b505af1158015610d88573d6000803e3d6000fd5b505050506040513d601f19601f82011682018060405250810190610dac9190613a7f565b905080610dcb5760405162461bcd60e51b8152600401610b63906140a0565b601054610dd890836120e8565b601055610de5338361212a565b7fac927268ea9ae2e55027e6ab727fc2db8e3ea48c56c658223a1074567e4298c03383601054604051610e1a93929190613c58565b60405180910390a15050565b60006060809250925092565b600d546001600160a01b031681565b60105481565b600160005260046020527fabd6e7cb50984ff9c2f3e18a2660c3353dadf4e3291deeb275dae2cd1e44fe05545b90565b600092915050565b610e87612030565b600b546001600160a01b03908116911614610ee9576040805162461bcd60e51b815260206004820181905260248201527f4f776e61626c653a2063616c6c6572206973206e6f7420746865206f776e6572604482015290519081900360640190fd5b610ef4838383612295565b505050565b6001600160a01b0382166000908152600860205260408120610f1b908361240d565b9392505050565b6000610f2f848484612419565b610f9f84610f3b612030565b610f9a856040518060600160405280602881526020016149a7602891396001600160a01b038a16600090815260076020526040812090610f79612030565b6001600160a01b03168152602081019190915260400160002054919061258b565b612034565b5060019392505050565b600090565b6000610bd1826040518060600160405280602a8152602001614932602a913960099190612622565b8151835114610ff75760405162461bcd60e51b8152600401610b6390614579565b6001600160a01b03841661101d5760405162461bcd60e51b8152600401610b6390614169565b611025612030565b6001600160a01b0316856001600160a01b0316148061104b575061104b85610984612030565b6110675760405162461bcd60e51b8152600401610b63906141c6565b6000611071612030565b9050611081818787878787611263565b60005b84518110156111fd57600085828151811061109b57fe5b6020026020010151905060008583815181106110b357fe5b6020026020010151905060018214156110d1576110d1898983610ef4565b6110da82612637565b15611133576001600160a01b03891660009081526008602052604090206111019083612644565b506001600160a01b03881660009081526008602052604090206111249083612650565b506111316009838a61265c565b505b611196816040518060600160405280602a815260200161495c602a91396005600086815260200190815260200160002060008d6001600160a01b03166001600160a01b031681526020019081526020016000205461258b9092919063ffffffff16565b60008381526005602090815260408083206001600160a01b038e811685529252808320939093558a16815220546111cd9082612672565b60009283526005602090815260408085206001600160a01b038c1686529091529092209190915550600101611084565b50846001600160a01b0316866001600160a01b0316826001600160a01b03167f4a39dc06d4c0dbc64b70af90fd698a233a518aa5d07e595d983b8c0526c8f7fb878760405161124d929190613d77565b60405180910390a46112638187878787876126cc565b505050505050565b60035460ff1681565b6000610caf611281612030565b84610f9a8560076000611292612030565b6001600160a01b03908116825260208083019390935260409182016000908120918c168152925290205490612672565b6112ca612030565b600b546001600160a01b0390811691161461132c576040805162461bcd60e51b815260206004820181905260248201527f4f776e61626c653a2063616c6c6572206973206e6f7420746865206f776e6572604482015290519081900360640190fd5b6113388484848461282d565b50505050565b606081518351146113615760405162461bcd60e51b8152600401610b639061451c565b6060835167ffffffffffffffff8111801561137b57600080fd5b506040519080825280602002602001820160405280156113a5578160200160208202803683370190505b50905060005b84518110156114765760006001600160a01b03168582815181106113cb57fe5b60200260200101516001600160a01b031614156113fa5760405162461bcd60e51b8152600401610b6390613fe6565b6005600085838151811061140a57fe5b60200260200101518152602001908152602001600020600086838151811061142e57fe5b60200260200101516001600160a01b03166001600160a01b031681526020019081526020016000205482828151811061146357fe5b60209081029190910101526001016113ab565b509392505050565b6af8277896582678ac00000081565b610b8133826129d0565b6114a2338383612aeb565b5050565b6001600160a01b031660009081527f1471eb6eb2c5e789fc3de43f8ce62938c7d1836ec861730447e2ada8fd81017b602052604090205490565b6012602052600090815260409020805460019091015482565b611501612030565b600b546001600160a01b03908116911614611563576040805162461bcd60e51b815260206004820181905260248201527f4f776e61626c653a2063616c6c6572206973206e6f7420746865206f776e6572604482015290519081900360640190fd5b600b546040516000916001600160a01b0316907f8be0079c531659141344cd1fd0a4f28419497f9722a3daafe3b4186f6b6457e0908390a3600b80547fffffffffffffffffffffffff0000000000000000000000000000000000000000169055565b610ef4838383612aeb565b6000610f1b8383612cc6565b5060009160609150565b600b546001600160a01b031690565b6002805460408051602060018416156101000260001901909316849004601f81018490048402820184019092528181529291830182828015610c935780601f10610c6857610100808354040283529160200191610c93565b6a295be96e6406697200000081565b600f546001600160a01b031681565b816001600160a01b031661167d612030565b6001600160a01b031614156116a45760405162461bcd60e51b8152600401610b63906144bf565b80600660006116b1612030565b6001600160a01b0390811682526020808301939093526040918201600090812091871680825291909352912080547fffffffffffffffffffffffffffffffffffffffffffffffffffffffffffffff001692151592909217909155611713612030565b6001600160a01b03167f17307eab39ab6107e8899845ad3d59bd9653f200f220920489ca2b5937696c318360405161174b9190613d9c565b60405180910390a35050565b6000610caf611764612030565b84610f9a856040518060600160405280602581526020016149cf602591396007600061178e612030565b6001600160a01b03908116825260208083019390935260409182016000908120918d1681529252902054919061258b565b6000610caf6117cc612030565b8484612419565b6a084595161401484a00000081565b60006117ee6009612de0565b905090565b6301e1338081565b600e546001600160a01b031681565b600d5474010000000000000000000000000000000000000000900460ff1681565b6b033b2e3c9fd0803ce800000081565b6b04d8c55aefb8c05b5c00000081565b611853612030565b600b546001600160a01b039081169116146118b5576040805162461bcd60e51b815260206004820181905260248201527f4f776e61626c653a2063616c6c6572206973206e6f7420746865206f776e6572604482015290519081900360640190fd5b600c80547fffffffffffffffffffffffff0000000000000000000000000000000000000000166001600160a01b038316908117909155604080517fa45611b60000000000000000000000000000000000000000000000000000000081529051633581777391839163a45611b691600480820192600092909190829003018186803b15801561194257600080fd5b505afa158015611956573d6000803e3d6000fd5b505050506040513d6000823e601f3d908101601f1916820160405261197e9190810190613ad3565b6040518263ffffffff1660e01b815260040161199a9190613db5565b60206040518083038186803b1580156119b257600080fd5b505afa1580156119c6573d6000803e3d6000fd5b505050506040513d601f19601f820116820180604052508101906119ea919061372a565b600e80547fffffffffffffffffffffffff0000000000000000000000000000000000000000166001600160a01b03928316179055600c54604080517f3d2886a0000000000000000000000000000000000000000000000000000000008152905191909216916335817773918391633d2886a0916004808301926000929190829003018186803b158015611a7c57600080fd5b505afa158015611a90573d6000803e3d6000fd5b505050506040513d6000823e601f3d908101601f19168201604052611ab89190810190613ad3565b6040518263ffffffff1660e01b8152600401611ad49190613db5565b60206040518083038186803b158015611aec57600080fd5b505afa158015611b00573d6000803e3d6000fd5b505050506040513d601f19601f82011682018060405250810190611b24919061372a565b600f80547fffffffffffffffffffffffff0000000000000000000000000000000000000000166001600160a01b039290921691909117905550565b60606000806000806001600d60149054906101000a900460ff16601154601054036010546000848054600181600116156101000203166002900480601f016020809104026020016040519081016040528092919081815260200182805460018160011615610100020316600290048015611c1a5780601f10611bef57610100808354040283529160200191611c1a565b820191906000526020600020905b815481529060010190602001808311611bfd57829003601f168201915b50505050509450945094509450945094509091929394565b600c546001600160a01b031681565b6001600160a01b03918216600090815260076020908152604080832093909416825291909152205490565b6001600160a01b03918216600090815260066020908152604080832093909416825291909152205460ff1690565b6b024306c4097859c43c00000081565b6114a282826129d0565b6001600160a01b038416611cda5760405162461bcd60e51b8152600401610b6390614169565b611ce2612030565b6001600160a01b0316856001600160a01b03161480611d085750611d0885610984612030565b611d245760405162461bcd60e51b8152600401610b63906140d7565b6000611d2e612030565b9050611d4e818787611d3f88612deb565b611d4888612deb565b87611263565b6001841415611d6257611d62868685610ef4565b611d6b84612637565b15611dc4576001600160a01b0386166000908152600860205260409020611d929085612644565b506001600160a01b0385166000908152600860205260409020611db59085612650565b50611dc26009858761265c565b505b611e0b836040518060600160405280602a815260200161495c602a913960008781526005602090815260408083206001600160a01b038d168452909152902054919061258b565b60008581526005602090815260408083206001600160a01b038b81168552925280832093909355871681522054611e429084612672565b60008581526005602090815260408083206001600160a01b03808b168086529190935292819020939093559151909188811691908416907fc3d58168c5ae7397731d063d5bbf3d657854427343f4c083240f7aacaa2d0f6290611ea890899089906146b7565b60405180910390a4611263818787878787612e2f565b611ec6612030565b600b546001600160a01b03908116911614611f28576040805162461bcd60e51b815260206004820181905260248201527f4f776e61626c653a2063616c6c6572206973206e6f7420746865206f776e6572604482015290519081900360640190fd5b6001600160a01b038116611f6d5760405162461bcd60e51b81526004018080602001828103825260268152602001806148c26026913960400191505060405180910390fd5b600b546040516001600160a01b038084169216907f8be0079c531659141344cd1fd0a4f28419497f9722a3daafe3b4186f6b6457e090600090a3600b80547fffffffffffffffffffffffff0000000000000000000000000000000000000000166001600160a01b0392909216919091179055565b60006001600160a01b0382166120095760405162461bcd60e51b8152600401610b6390613f89565b6001600160a01b0382166000908152600860205260409020610bd190612de0565b60115481565b3390565b6001600160a01b03831661205a5760405162461bcd60e51b8152600401610b6390614462565b6001600160a01b0382166120805760405162461bcd60e51b8152600401610b6390614043565b6001600160a01b0380841660008181526007602090815260408083209487168084529490915290819020849055517f8c5be1e5ebec7d5bd14f71427d1e84f3dd0314c0f7b2291e5b200ac8c7c3b925906120db90859061466a565b60405180910390a3505050565b6000610f1b83836040518060400160405280601e81526020017f536166654d6174683a207375627472616374696f6e206f766572666c6f77000081525061258b565b6001600160a01b0382166121505760405162461bcd60e51b8152600401610b63906143a8565b61215c82600083610ef4565b6121b8816040518060600160405280602281526020016148a0602291396001600160a01b03851660009081527f1471eb6eb2c5e789fc3de43f8ce62938c7d1836ec861730447e2ada8fd81017b6020526040902054919061258b565b6001600160a01b03831660009081527f1471eb6eb2c5e789fc3de43f8ce62938c7d1836ec861730447e2ada8fd81017b6020908152604082209290925560019052600490527fabd6e7cb50984ff9c2f3e18a2660c3353dadf4e3291deeb275dae2cd1e44fe055461222990826120e8565b6001600090815260046020527fabd6e7cb50984ff9c2f3e18a2660c3353dadf4e3291deeb275dae2cd1e44fe05919091556040516001600160a01b038416907fddf252ad1be2c89b69c2b068fc378daa952ba7f163c4a11628f55a4df523b3ef9061174b90859061466a565b6001600160a01b0383166122bb5760405162461bcd60e51b8152600401610b6390614291565b60006122c5612030565b90506122f5818560006122d787612deb565b6122e087612deb565b60405180602001604052806000815250611263565b811561232b576001600160a01b038416600090815260086020526040902061231d9084612644565b50612329600984612f4a565b505b612372826040518060600160405280602481526020016148e86024913960008681526005602090815260408083206001600160a01b038b168452909152902054919061258b565b60008481526005602090815260408083206001600160a01b03891684528252808320939093558582526004905220546123ab90836120e8565b6000848152600460205260408082209290925590516001600160a01b0386811691908416907fc3d58168c5ae7397731d063d5bbf3d657854427343f4c083240f7aacaa2d0f62906123ff90889088906146b7565b60405180910390a450505050565b6000610f1b8383612f56565b6001600160a01b03831661243f5760405162461bcd60e51b8152600401610b6390614405565b6001600160a01b0382166124655760405162461bcd60e51b8152600401610b6390613e9a565b612470838383610ef4565b6124cc8160405180606001604052806026815260200161490c602691396001600160a01b03861660009081527f1471eb6eb2c5e789fc3de43f8ce62938c7d1836ec861730447e2ada8fd81017b6020526040902054919061258b565b6001600160a01b0384811660009081527f1471eb6eb2c5e789fc3de43f8ce62938c7d1836ec861730447e2ada8fd81017b6020526040808220939093559084168152205461251a9082612672565b6001600160a01b0380841660008181527f1471eb6eb2c5e789fc3de43f8ce62938c7d1836ec861730447e2ada8fd81017b602052604090819020939093559151908516907fddf252ad1be2c89b69c2b068fc378daa952ba7f163c4a11628f55a4df523b3ef906120db90859061466a565b6000818484111561261a5760405162461bcd60e51b81526004018080602001828103825283818151815260200191508051906020019080838360005b838110156125df5781810151838201526020016125c7565b50505050905090810190601f16801561260c5780820380516001836020036101000a031916815260200191505b509250505060405180910390fd5b505050900390565b600061262f848484612fba565b949350505050565b6000610bd1600983613047565b6000610f1b8383613053565b6000610f1b8383613119565b600061262f84846001600160a01b038516613163565b600082820183811015610f1b576040805162461bcd60e51b815260206004820152601b60248201527f536166654d6174683a206164646974696f6e206f766572666c6f770000000000604482015290519081900360640190fd5b6126de846001600160a01b03166131fa565b15611263576040517fbc197c810000000000000000000000000000000000000000000000000000000081526001600160a01b0385169063bc197c81906127309089908990889088908890600401613c9d565b602060405180830381600087803b15801561274a57600080fd5b505af192505050801561277a575060408051601f3d908101601f1916820190925261277791810190613ab7565b60015b6127c357612786614769565b8061279157506127ab565b8060405162461bcd60e51b8152600401610b639190613db5565b60405162461bcd60e51b8152600401610b6390613e06565b7fffffffff0000000000000000000000000000000000000000000000000000000081167fbc197c8100000000000000000000000000000000000000000000000000000000146128245760405162461bcd60e51b8152600401610b6390613ef7565b50505050505050565b6001600160a01b0384166128535760405162461bcd60e51b8152600401610b63906145d6565b811580612866575061286483612637565b155b6128825760405162461bcd60e51b8152600401610b63906142ee565b600061288c612030565b905061289e81600087611d3f88612deb565b8260011480156128b457506128b284613200565b155b80156128c1575060018414155b156128f7576001600160a01b03851660009081526008602052604090206128e89085612650565b506128f56009858761265c565b505b60008481526005602090815260408083206001600160a01b03891684529091529020546129249084612672565b60008581526005602090815260408083206001600160a01b038a16845282528083209390935586825260049052205461295d9084612672565b6000858152600460205260408082209290925590516001600160a01b038088169291908416907fc3d58168c5ae7397731d063d5bbf3d657854427343f4c083240f7aacaa2d0f62906129b290899089906146b7565b60405180910390a46129c981600087878787612e2f565b5050505050565b600e546040517f23b872dd0000000000000000000000000000000000000000000000000000000081526000916001600160a01b0316906323b872dd90612a1e90869030908790600401613c79565b602060405180830381600087803b158015612a3857600080fd5b505af1158015612a4c573d6000803e3d6000fd5b505050506040513d601f19601f82011682018060405250810190612a709190613a7f565b905080612a8f5760405162461bcd60e51b8152600401610b63906140a0565b601054612a9c9083612672565b601055612aa98383613214565b7f06239653922ac7bea6aa2b19dc486b9361821d37712eb796adfd38d81de278ca8383601054604051612ade93929190613c58565b60405180910390a1505050565b612af3613638565b506001600160a01b0383166000908152601260209081526040918290208251808401909352805483526001015490820181905215612b435760405162461bcd60e51b8152600401610b6390614134565b601154612b509083612672565b6010541015612b715760405162461bcd60e51b8152600401610b6390614223565b6000612b7d8484612cc6565b83835260208084018681526001600160a01b038816600090815260129092526040909120845181559051600190910155601154909150612bbd9084612672565b601155600e546040517f23b872dd0000000000000000000000000000000000000000000000000000000081526000916001600160a01b0316906323b872dd90612c0e90899030908790600401613c79565b602060405180830381600087803b158015612c2857600080fd5b505af1158015612c3c573d6000803e3d6000fd5b505050506040513d601f19601f82011682018060405250810190612c609190613a7f565b905080612c7f5760405162461bcd60e51b8152600401610b63906140a0565b7f1cd728a6e764ed0dcddb6e5b88d736a4a8d2a0d420ca373588f7a1109e18663f868584601154604051612cb69493929190613d3e565b60405180910390a1505050505050565b6000601054612ce08360115461267290919063ffffffff16565b1115612cfe5760405162461bcd60e51b8152600401610b6390613f54565b600060105411612d205760405162461bcd60e51b8152600401610b6390613e63565b6000612d5b601054612d556a084595161401484a000000606402612d4f8760115461267290919063ffffffff16565b90613366565b906133bf565b905060006b024306c4097859c43c000000821015612d8357612d7c82613401565b9050612d8f565b612d8c82613428565b90505b612da4816a295be96e640669720000006134cc565b90506000612dba6301e13380612d558885613366565b9050612dd66b033b2e3c9fd0803ce8000000612d558784613366565b9695505050505050565b6000610bd1826134e3565b604080516001808252818301909252606091829190602080830190803683370190505090508281600081518110612e1e57fe5b602090810291909101015292915050565b612e41846001600160a01b03166131fa565b15611263576040517ff23a6e610000000000000000000000000000000000000000000000000000000081526001600160a01b0385169063f23a6e6190612e939089908990889088908890600401613cfb565b602060405180830381600087803b158015612ead57600080fd5b505af1925050508015612edd575060408051601f3d908101601f19168201909252612eda91810190613ab7565b60015b612ee957612786614769565b7fffffffff0000000000000000000000000000000000000000000000000000000081167ff23a6e6100000000000000000000000000000000000000000000000000000000146128245760405162461bcd60e51b8152600401610b6390613ef7565b6000610f1b83836134e7565b81546000908210612f985760405162461bcd60e51b815260040180806020018281038252602281526020018061487e6022913960400191505060405180910390fd5b826000018281548110612fa757fe5b9060005260206000200154905092915050565b600082815260018401602052604081205482816130185760405162461bcd60e51b81526020600482018181528351602484015283519092839260449091019190850190808383600083156125df5781810151838201526020016125c7565b5084600001600182038154811061302b57fe5b9060005260206000209060020201600101549150509392505050565b6000610f1b83836135bb565b6000818152600183016020526040812054801561310f578354600019808301919081019060009087908390811061308657fe5b90600052602060002001549050808760000184815481106130a357fe5b6000918252602080832090910192909255828152600189810190925260409020908401905586548790806130d357fe5b60019003818190600052602060002001600090559055866001016000878152602001908152602001600020600090556001945050505050610bd1565b6000915050610bd1565b600061312583836135bb565b61315b57508154600181810184556000848152602080822090930184905584548482528286019093526040902091909155610bd1565b506000610bd1565b6000828152600184016020526040812054806131c8575050604080518082018252838152602080820184815286546001818101895560008981528481209551600290930290950191825591519082015586548684528188019092529290912055610f1b565b828560000160018303815481106131db57fe5b9060005260206000209060020201600101819055506000915050610f1b565b3b151590565b600090815260046020526040902054151590565b6001600160a01b03821661323a5760405162461bcd60e51b8152600401610b6390614633565b61324660008383610ef4565b6001600160a01b03821660009081527f1471eb6eb2c5e789fc3de43f8ce62938c7d1836ec861730447e2ada8fd81017b60205260409020546132889082612672565b6001600160a01b03831660009081527f1471eb6eb2c5e789fc3de43f8ce62938c7d1836ec861730447e2ada8fd81017b6020908152604082209290925560019052600490527fabd6e7cb50984ff9c2f3e18a2660c3353dadf4e3291deeb275dae2cd1e44fe05546132f99082612672565b6001600090815260046020527fabd6e7cb50984ff9c2f3e18a2660c3353dadf4e3291deeb275dae2cd1e44fe05919091556040516001600160a01b03841691907fddf252ad1be2c89b69c2b068fc378daa952ba7f163c4a11628f55a4df523b3ef9061174b90859061466a565b60008261337557506000610bd1565b8282028284828161338257fe5b0414610f1b5760405162461bcd60e51b81526004018080602001828103825260218152602001806149866021913960400191505060405180910390fd5b6000610f1b83836040518060400160405280601a81526020017f536166654d6174683a206469766973696f6e206279207a65726f0000000000008152506135d3565b6000610bd16b024306c4097859c43c000000612d55846af8277896582678ac000000613366565b60008061347b6134506b033b2e3c9fd0803ce80000006b024306c4097859c43c0000006120e8565b612d55613469866b024306c4097859c43c0000006120e8565b6a084595161401484a00000090613366565b9050610f1b6134ba6a084595161401484a000000612d556134b36b04d8c55aefb8c05b5c0000006af8277896582678ac0000006120e8565b8590613366565b6af8277896582678ac00000090612672565b6000818310156134dc5781610f1b565b5090919050565b5490565b6000818152600183016020526040812054801561310f578354600019808301919081019060009087908390811061351a57fe5b906000526020600020906002020190508087600001848154811061353a57fe5b60009182526020808320845460029093020191825560019384015491840191909155835482528983019052604090209084019055865487908061357957fe5b6000828152602080822060026000199094019384020182815560019081018390559290935588815289820190925260408220919091559450610bd19350505050565b60009081526001919091016020526040902054151590565b600081836136225760405162461bcd60e51b81526020600482018181528351602484015283519092839260449091019190850190808383600083156125df5781810151838201526020016125c7565b50600083858161362e57fe5b0495945050505050565b604051806040016040528060008152602001600081525090565b600082601f830112613662578081fd5b8135613675613670826146f7565b6146d3565b81815291506020808301908481018184028601820187101561369657600080fd5b60005b848110156136b557813584529282019290820190600101613699565b505050505092915050565b600082601f8301126136d0578081fd5b81356136de61367082614715565b91508082528360208285010111156136f557600080fd5b8060208401602084013760009082016020015292915050565b60006020828403121561371f578081fd5b8135610f1b8161482c565b60006020828403121561373b578081fd5b8151610f1b8161482c565b60008060408385031215613758578081fd5b82356137638161482c565b915060208301356137738161482c565b809150509250929050565b600080600080600060a08688031215613795578081fd5b85356137a08161482c565b945060208601356137b08161482c565b9350604086013567ffffffffffffffff808211156137cc578283fd5b6137d889838a01613652565b945060608801359150808211156137ed578283fd5b6137f989838a01613652565b9350608088013591508082111561380e578283fd5b5061381b888289016136c0565b9150509295509295909350565b60008060006060848603121561383c578283fd5b83356138478161482c565b925060208401356138578161482c565b929592945050506040919091013590565b600080600080600060a0868803121561387f578081fd5b853561388a8161482c565b9450602086013561389a8161482c565b93506040860135925060608601359150608086013567ffffffffffffffff8111156138c3578182fd5b61381b888289016136c0565b600080604083850312156138e1578182fd5b82356138ec8161482c565b9150602083013561377381614841565b6000806040838503121561390e578182fd5b82356139198161482c565b946020939093013593505050565b60008060006060848603121561393b578283fd5b83356139468161482c565b95602085013595506040909401359392505050565b60008060008060808587031215613970578182fd5b843561397b8161482c565b93506020850135925060408501359150606085013567ffffffffffffffff8111156139a4578182fd5b6139b0878288016136c0565b91505092959194509250565b600080604083850312156139ce578182fd5b823567ffffffffffffffff808211156139e5578384fd5b818501915085601f8301126139f8578384fd5b8135613a06613670826146f7565b80828252602080830192508086018a828387028901011115613a26578889fd5b8896505b84871015613a51578035613a3d8161482c565b845260019690960195928101928101613a2a565b509096508701359350505080821115613a68578283fd5b50613a7585828601613652565b9150509250929050565b600060208284031215613a90578081fd5b8151610f1b81614841565b600060208284031215613aac578081fd5b8135610f1b8161484f565b600060208284031215613ac8578081fd5b8151610f1b8161484f565b600060208284031215613ae4578081fd5b815167ffffffffffffffff811115613afa578182fd5b8201601f81018413613b0a578182fd5b8051613b1861367082614715565b818152856020838501011115613b2c578384fd5b613b3d826020830160208601614737565b95945050505050565b600060208284031215613b57578081fd5b5035919050565b60008060408385031215613b70578182fd5b50508035926020909101359150565b6000815180845260208085019450808401835b83811015613bb75781516001600160a01b031687529582019590820190600101613b92565b509495945050505050565b6000815180845260208085019450808401835b83811015613bb757815187529582019590820190600101613bd5565b60008151808452613c09816020860160208601614737565b601f01601f19169290920160200192915050565b60048110613c2757fe5b9052565b6001600160a01b0391909116815260200190565b6001600160a01b03929092168252602082015260400190565b6001600160a01b039390931683526020830191909152604082015260600190565b6001600160a01b039384168152919092166020820152604081019190915260600190565b60006001600160a01b03808816835280871660208401525060a06040830152613cc960a0830186613bc2565b8281036060840152613cdb8186613bc2565b90508281036080840152613cef8185613bf1565b98975050505050505050565b60006001600160a01b03808816835280871660208401525084604083015283606083015260a06080830152613d3360a0830184613bf1565b979650505050505050565b6001600160a01b0394909416845260208401929092526040830152606082015260800190565b600060208252610f1b6020830184613bc2565b600060408252613d8a6040830185613bc2565b8281036020840152613b3d8185613bc2565b901515815260200190565b60208101610bd18284613c1d565b600060208252610f1b6020830184613bf1565b600060a08252613ddb60a0830188613bf1565b9050613dea6020830187613c1d565b8460408301528360608301528260808301529695505050505050565b60208082526034908201527f455243313135353a207472616e7366657220746f206e6f6e204552433131353560408201527f526563656976657220696d706c656d656e746572000000000000000000000000606082015260800190565b60208082526011908201527f54686520706f6f6c20697320656d707479000000000000000000000000000000604082015260600190565b60208082526023908201527f45524332303a207472616e7366657220746f20746865207a65726f206164647260408201527f6573730000000000000000000000000000000000000000000000000000000000606082015260800190565b60208082526028908201527f455243313135353a204552433131353552656365697665722072656a6563746560408201527f6420746f6b656e73000000000000000000000000000000000000000000000000606082015260800190565b6020808252818101527f526571756972696e67206d6f7265207468616e20746865726520657869737473604082015260600190565b6020808252602b908201527f455243313135353a2062616c616e636520717565727920666f7220746865207a60408201527f65726f2061646472657373000000000000000000000000000000000000000000606082015260800190565b60208082526031908201527f455243313135353a2062617463682062616c616e636520717565727920666f7260408201527f20746865207a65726f2061646472657373000000000000000000000000000000606082015260800190565b60208082526022908201527f45524332303a20617070726f766520746f20746865207a65726f20616464726560408201527f7373000000000000000000000000000000000000000000000000000000000000606082015260800190565b6020808252601d908201527f4661696c656420746f207472616e736665722044414920746f6b656e73000000604082015260600190565b60208082526029908201527f455243313135353a2063616c6c6572206973206e6f74206f776e6572206e6f7260408201527f20617070726f7665640000000000000000000000000000000000000000000000606082015260800190565b6020808252818101527f54686520706f6c69637920686f6c64657220616c726561647920657869737473604082015260600190565b60208082526025908201527f455243313135353a207472616e7366657220746f20746865207a65726f20616460408201527f6472657373000000000000000000000000000000000000000000000000000000606082015260800190565b60208082526032908201527f455243313135353a207472616e736665722063616c6c6572206973206e6f742060408201527f6f776e6572206e6f7220617070726f7665640000000000000000000000000000606082015260800190565b6020808252601e908201527f4e6f7420656e6f75676820617661696c61626c65206c69717569646974790000604082015260600190565b6020808252601c908201527f4661696c656420746f20617070726f76652044414920746f6b656e7300000000604082015260600190565b60208082526023908201527f455243313135353a206275726e2066726f6d20746865207a65726f206164647260408201527f6573730000000000000000000000000000000000000000000000000000000000606082015260800190565b60208082526021908201527f455243313135353a204e465420746f6b656e20616c7265616479206d696e746560408201527f6400000000000000000000000000000000000000000000000000000000000000606082015260800190565b6020808252603f908201527f54686520616d6f756e7420746f2062652077697468647261776e20697320677260408201527f6561746572207468616e20746865206465706f736974656420616d6f756e7400606082015260800190565b60208082526021908201527f45524332303a206275726e2066726f6d20746865207a65726f2061646472657360408201527f7300000000000000000000000000000000000000000000000000000000000000606082015260800190565b60208082526025908201527f45524332303a207472616e736665722066726f6d20746865207a65726f20616460408201527f6472657373000000000000000000000000000000000000000000000000000000606082015260800190565b60208082526024908201527f45524332303a20617070726f76652066726f6d20746865207a65726f2061646460408201527f7265737300000000000000000000000000000000000000000000000000000000606082015260800190565b60208082526029908201527f455243313135353a2073657474696e6720617070726f76616c2073746174757360408201527f20666f722073656c660000000000000000000000000000000000000000000000606082015260800190565b60208082526029908201527f455243313135353a206163636f756e747320616e6420696473206c656e67746860408201527f206d69736d617463680000000000000000000000000000000000000000000000606082015260800190565b60208082526028908201527f455243313135353a2069647320616e6420616d6f756e7473206c656e6774682060408201527f6d69736d61746368000000000000000000000000000000000000000000000000606082015260800190565b60208082526021908201527f455243313135353a206d696e7420746f20746865207a65726f2061646472657360408201527f7300000000000000000000000000000000000000000000000000000000000000606082015260800190565b6020808252601f908201527f45524332303a206d696e7420746f20746865207a65726f206164647265737300604082015260600190565b90815260200190565b60008382526040602083015261262f6040830184613b7f565b6000848252606060208301526146a56060830185613b7f565b8281036040840152612dd68185613bc2565b918252602082015260400190565b60ff91909116815260200190565b60405181810167ffffffffffffffff811182821017156146ef57fe5b604052919050565b600067ffffffffffffffff82111561470b57fe5b5060209081020190565b600067ffffffffffffffff82111561472957fe5b50601f01601f191660200190565b60005b8381101561475257818101518382015260200161473a565b838111156113385750506000910152565b60e01c90565b600060443d101561477957610e74565b600481823e6308c379a061478d8251614763565b1461479757610e74565b6040517ffffffffffffffffffffffffffffffffffffffffffffffffffffffffffffffffc3d016004823e80513d67ffffffffffffffff81602484011181841117156147e55750505050610e74565b828401925082519150808211156147ff5750505050610e74565b503d8301602082840101111561481757505050610e74565b601f01601f1916810160200160405291505090565b6001600160a01b0381168114610b8157600080fd5b8015158114610b8157600080fd5b7fffffffff0000000000000000000000000000000000000000000000000000000081168114610b8157600080fdfe456e756d657261626c655365743a20696e646578206f7574206f6620626f756e647345524332303a206275726e20616d6f756e7420657863656564732062616c616e63654f776e61626c653a206e6577206f776e657220697320746865207a65726f2061646472657373455243313135353a206275726e20616d6f756e7420657863656564732062616c616e636545524332303a207472616e7366657220616d6f756e7420657863656564732062616c616e6365455243313135353a206f776e657220717565727920666f72206e6f6e6578697374656e7420746f6b656e455243313135353a20696e73756666696369656e742062616c616e636520666f72207472616e73666572536166654d6174683a206d756c7469706c69636174696f6e206f766572666c6f7745524332303a207472616e7366657220616d6f756e74206578636565647320616c6c6f77616e636545524332303a2064656372656173656420616c6c6f77616e63652062656c6f77207a65726fa26469706673582212205801d3c9aee44ffe259369f51bcbed512a644aa18415256104a97699e1d58f0664736f6c63430007040033",
  "immutableReferences": {},
  "source": "// SPDX-License-Identifier: MIT\npragma solidity ^0.7.4;\npragma experimental ABIEncoderV2;\n\nimport \"@openzeppelin/contracts/access/Ownable.sol\";\nimport \"@openzeppelin/contracts/math/SafeMath.sol\";\nimport \"@openzeppelin/contracts/math/Math.sol\";\n\nimport \"./interfaces/IPolicyBook.sol\";\nimport \"./interfaces/IPolicyBookFabric.sol\";\n\nimport \"./ContractsRegistry.sol\";\nimport \"./tokens/ERC1155NFTMintableBurnable.sol\";\n\ncontract PolicyBook is IPolicyBook, ERC1155NFTMintableBurnable {\n  using SafeMath for uint256;\n  using Math for uint256;\n\n  uint256 constant private MAX_INT = 2**256 - 1;\n\n  ContractsRegistry public contractsRegistry;\n\n  address public override insuranceContractAddress;\n  IPolicyBookFabric.ContractType public override contractType;\n  \n  IERC20 public daiToken;\n  address public bmiDaiStakingAddress;\n\n  uint256 public totalLiquidity;\n  uint256 public totalCoverTokens;\n\n  struct PolicyHolder {\n    uint256 coverTokens;\n    uint256 durationSeconds;    \n  }\n\n  mapping(address => PolicyHolder) public policyHolders;\n\n  event AddLiquidity(address _liquidityHolder, uint256 _liqudityAmount, uint256 _newTotalLiquidity);\n  event WithdrawLiquidity(address _liquidityHolder, uint256 _tokensToWithdraw, uint256 _newTotalLiquidity);\n  event BuyPolicy(address _policyHolder, uint256 _coverTokens, uint256 _price, uint256 _newTotalCoverTokens);\n\n  constructor(    \n    address _insuranceContract,\n    IPolicyBookFabric.ContractType _contractType,    \n    string memory _description,\n    string memory _projectSymbol\n  ) ERC1155NFTMintableBurnable(_description, string(abi.encodePacked(\"bmiDAI\", _projectSymbol))) {    \n    insuranceContractAddress = _insuranceContract;\n    contractType = _contractType;       \n  }\n\n  function initRegistry(ContractsRegistry _contractsRegistry) external onlyOwner {\n    contractsRegistry = _contractsRegistry;\n    \n    daiToken = IERC20(_contractsRegistry.getContract(_contractsRegistry.getDAIName()));\n    bmiDaiStakingAddress = contractsRegistry.getContract(contractsRegistry.getBmiDAIStakingName());    \n  }  \n\n  function approveAllDaiTokensForStakingAndTransferOwnership() external onlyOwner {\n    bool _success = daiToken.approve(bmiDaiStakingAddress, MAX_INT);\n    require(_success, \"Failed to approve DAI tokens\");\n\n    transferOwnership(bmiDaiStakingAddress);\n  }\n\n  receive() external payable {}\n\n  function quoteStrategy() external view override returns (address _quoteStrategy) {\n    return address(0);\n  }\n\n  function shieldAssets(uint256 _offset, uint256 _limit)\n    external\n    view\n    override\n    returns (uint256 _shieldAssetsCount, address[] memory _shieldAssets)\n  {\n    address[] memory temp;\n    return (0, temp);\n  }\n\n  function shieldAssetsWithBalance(uint256 _offset, uint256 _limit)\n    external\n    view\n    override\n    returns (\n      uint256 _shieldAssetsCount,\n      address[] memory _shieldAssets,\n      uint256[] memory _shieldAssetBalance\n    )\n  {\n    address[] memory temp1;\n    uint256[] memory temp2;\n    return (0, temp1, temp2);\n  }\n\n  function shieldAssetsCount() external view override returns (uint256 _shieldAssetsCount) {\n    return 0;\n  }\n\n  function addShieldTokens(address _tokenAddress, uint256 _tokensAmount) external override returns (bool _success) {\n    return false;\n  }\n\n  function buyPolicy(\n    uint256 _durationSeconds,\n    uint256 _coverTokens   \n  ) external override {\n    _buyPolicyFor(msg.sender, _durationSeconds, _coverTokens);\n  }\n\n  function buyPolicyFor(\n    address _policyHolderAddr,\n    uint256 _durationSeconds,\n    uint256 _coverTokens    \n  ) external override {\n    _buyPolicyFor(_policyHolderAddr, _durationSeconds, _coverTokens);\n  }\n\n  function _buyPolicyFor(\n    address _policyHolderAddr,\n    uint256 _durationSeconds,\n    uint256 _coverTokens\n  ) internal {\n    PolicyHolder memory _policyHolder = policyHolders[_policyHolderAddr];\n    require(_policyHolder.durationSeconds == 0, \"The policy holder already exists\");\n    require(totalLiquidity >= totalCoverTokens.add(_coverTokens), \"Not enough available liquidity\");\n\n    uint256 _price = _getQuote(_durationSeconds, _coverTokens);\n\n    _policyHolder.coverTokens = _coverTokens;\n    _policyHolder.durationSeconds = _durationSeconds;    \n\n    policyHolders[_policyHolderAddr] = _policyHolder;\n    totalCoverTokens = totalCoverTokens.add(_coverTokens);\n\n    bool _success = daiToken.transferFrom(_policyHolderAddr, address(this), _price);\n    require(_success, \"Failed to transfer DAI tokens\");\n\n    emit BuyPolicy(_policyHolderAddr, _coverTokens, _price, totalCoverTokens);\n  }\n\n  function addLiquidity(uint256 _liqudityAmount) external override {\n    _addLiquidityFor(msg.sender, _liqudityAmount);\n  }\n\n  function addLiquidityFor(address _liquidityHolderAddr, uint256 _liqudityAmount) external override {\n    _addLiquidityFor(_liquidityHolderAddr, _liqudityAmount);\n  }\n\n  function _addLiquidityFor(address _liquidityHolderAddr, uint256 _liqudityAmount) internal {\n    bool _success = daiToken.transferFrom(_liquidityHolderAddr, address(this), _liqudityAmount);\n    require(_success, \"Failed to transfer DAI tokens\");\n\n    totalLiquidity = totalLiquidity.add(_liqudityAmount);\n    _mintERC20(_liquidityHolderAddr, _liqudityAmount);\n\n    emit AddLiquidity(_liquidityHolderAddr, _liqudityAmount, totalLiquidity);\n  }\n\n  function withdrawLiquidity(uint256 _tokensToWithdraw) external override {\n    require(\n      balanceOf(msg.sender) >= _tokensToWithdraw,\n      \"The amount to be withdrawn is greater than the deposited amount\"\n    );\n    require(totalLiquidity.sub(_tokensToWithdraw) >= totalCoverTokens, \"Not enough available liquidity\");\n\n    bool _success = daiToken.transfer(msg.sender, _tokensToWithdraw);\n    require(_success, \"Failed to transfer DAI tokens\");\n\n    totalLiquidity = totalLiquidity.sub(_tokensToWithdraw);\n    _burnERC20(msg.sender, _tokensToWithdraw);\n\n    emit WithdrawLiquidity(msg.sender, _tokensToWithdraw, totalLiquidity);\n  }\n\n  function _calculateInterest(address _policyHolder) internal view returns (uint256) {\n    return 0;\n  }\n\n  function rewardForUnclaimedExpiredPolicy(uint256 _policyId) external override {}\n\n  function stats()\n    external\n    view\n    override\n    returns (\n      string memory _name,\n      IPolicyBookFabric.ContractType _contractType,\n      uint256 _maxCapacities,\n      uint256 _totalDaiLiquidity,\n      uint256 _annualProfitYields\n    )\n  {\n    // TODO APY\n    return (name, contractType, totalLiquidity - totalCoverTokens, totalLiquidity, 0);\n  }\n\n  uint256 public constant SECONDS_IN_THE_YEAR = 365 * 24 * 60 * 60; // 365 days * 24 hours * 60 minutes * 60 seconds\n  uint256 public constant PRECISION = 10**25;\n  uint256 public constant PERCENTAGE_100 = 100 * PRECISION;\n\n  uint256 public constant MINIMUM_COST_PERCENTAGE = 5 * PRECISION;\n  uint256 public constant RISKY_ASSET_THRESHOLD_PERCENTAGE = 70 * PRECISION;\n  uint256 public constant MAXIMUM_COST_NOT_RISKY_PERCENTAGE = 30 * PRECISION;\n  uint256 public constant MAXIMUM_COST_100_UTILIZATION_PERCENTAGE = 150 * PRECISION;\n\n  function calculateWhenNotRisky(uint256 _utilizationRatioPercentage) private pure returns (uint256) {\n    return (_utilizationRatioPercentage.mul(MAXIMUM_COST_NOT_RISKY_PERCENTAGE)).div(RISKY_ASSET_THRESHOLD_PERCENTAGE);\n  }\n\n  function calculateWhenIsRisky(uint256 _utilizationRatioPercentage) private pure returns (uint256) {\n    uint256 riskyRelation =\n      (PRECISION.mul(_utilizationRatioPercentage.sub(RISKY_ASSET_THRESHOLD_PERCENTAGE))).div(\n        (PERCENTAGE_100.sub(RISKY_ASSET_THRESHOLD_PERCENTAGE))\n      );\n\n    return\n      MAXIMUM_COST_NOT_RISKY_PERCENTAGE.add(\n        (riskyRelation.mul(MAXIMUM_COST_100_UTILIZATION_PERCENTAGE.sub(MAXIMUM_COST_NOT_RISKY_PERCENTAGE))).div(\n          PRECISION\n        )\n      );\n  }\n\n  function getQuote(uint256 _durationSeconds, uint256 _tokens) external view override returns (uint256 _daiTokens) {\n    _daiTokens = _getQuote(_durationSeconds, _tokens);\n  }\n\n  function _getQuote(uint256 _durationSeconds, uint256 _tokens) internal view returns (uint256) {\n    require(totalCoverTokens.add(_tokens) <= totalLiquidity, \"Requiring more than there exists\");\n    require(totalLiquidity > 0, \"The pool is empty\");\n\n    uint256 utilizationRatioPercentage = ((totalCoverTokens.add(_tokens)).mul(PERCENTAGE_100)).div(totalLiquidity);\n\n    uint256 annualInsuranceCostPercentage;\n\n    if (utilizationRatioPercentage < RISKY_ASSET_THRESHOLD_PERCENTAGE) {\n      annualInsuranceCostPercentage = calculateWhenNotRisky(utilizationRatioPercentage);\n    } else {\n      annualInsuranceCostPercentage = calculateWhenIsRisky(utilizationRatioPercentage);\n    }\n\n    annualInsuranceCostPercentage = Math.max(annualInsuranceCostPercentage, MINIMUM_COST_PERCENTAGE);\n\n    uint256 actualInsuranceCostPercentage = \n      (_durationSeconds.mul(annualInsuranceCostPercentage)).div(SECONDS_IN_THE_YEAR);\n\n    return (_tokens.mul(actualInsuranceCostPercentage)).div(PERCENTAGE_100);\n  }\n}\n",
  "sourcePath": "/home/artem/Projects/Distributed_Lab/Applicature/bridgemutual-core/contracts/PolicyBook.sol",
  "compiler": {
    "name": "solc",
    "version": "0.7.4+commit.3f05b770.Emscripten.clang"
  },
  "schemaVersion": "3.3.3",
  "updatedAt": "2021-01-27T14:17:23.973Z",
  "devdoc": {
    "kind": "dev",
    "methods": {
      "addLiquidity(uint256)": {
        "params": {
          "_liqudityAmount": "is amount of DAI tokens to secure"
        }
      },
      "addLiquidityFor(address,uint256)": {
        "params": {
          "_liqudityAmount": "is amount of DAI tokens to secure",
          "_liquidityHolderAddr": "is address of address to assign cover"
        }
      },
      "addShieldTokens(address,uint256)": {
        "params": {
          "_tokenAddress": "is address of reward token to add",
          "_tokensAmount": "is max amount of reward to operate on"
        },
        "returns": {
          "_success": "is indicator if purchase is successful, it will throw exception if unsuccessful"
        }
      },
      "balanceOf(address,uint256)": {
        "details": "Returns the amount of tokens of token type `id` owned by `account`. Requirements: - `account` cannot be the zero address."
      },
      "balanceOfBatch(address[],uint256[])": {
        "details": "xref:ROOT:erc1155.adoc#batch-operations[Batched] version of {balanceOf}. Requirements: - `accounts` and `ids` must have the same length."
      },
      "buyPolicy(uint256,uint256)": {
        "params": {
          "_coverTokens": "is number of tokens to cover  ",
          "_durationSeconds": "is number of seconds to cover"
        }
      },
      "buyPolicyFor(address,uint256,uint256)": {
        "params": {
          "_coverTokens": "is number of tokens to cover  ",
          "_durationSeconds": "is number of seconds to cover",
          "_policyHolderAddr": "is address of address to assign cover"
        }
      },
      "getQuote(uint256,uint256)": {
        "params": {
          "_durationSeconds": "is number of seconds to cover",
          "_tokens": "is number of tokens to cover"
        },
        "returns": {
          "_daiTokens": "is amount of DAI policy costs"
        }
      },
      "isApprovedForAll(address,address)": {
        "details": "Returns true if `operator` is approved to transfer ``account``'s tokens. See {setApprovalForAll}."
      },
      "owner()": {
        "details": "Returns the address of the current owner."
      },
      "quoteStrategy()": {
        "returns": {
          "_quoteStrategy": "is address of Quote strategy contract used to calculate quote"
        }
      },
      "renounceOwnership()": {
        "details": "Leaves the contract without owner. It will not be possible to call `onlyOwner` functions anymore. Can only be called by the current owner. NOTE: Renouncing ownership will leave the contract without an owner, thereby removing any functionality that is only available to the owner."
      },
      "rewardForUnclaimedExpiredPolicy(uint256)": {
        "params": {
          "_policyId": "is id of policy to get reward for, reward will be sent to policy holder"
        }
      },
      "safeBatchTransferFrom(address,address,uint256[],uint256[],bytes)": {
        "details": "xref:ROOT:erc1155.adoc#batch-operations[Batched] version of {safeTransferFrom}. Emits a {TransferBatch} event. Requirements: - `ids` and `amounts` must have the same length. - If `to` refers to a smart contract, it must implement {IERC1155Receiver-onERC1155BatchReceived} and return the acceptance magic value."
      },
      "safeTransferFrom(address,address,uint256,uint256,bytes)": {
        "details": "Transfers `amount` tokens of token type `id` from `from` to `to`. Emits a {TransferSingle} event. Requirements: - `to` cannot be the zero address. - If the caller is not `from`, it must be have been approved to spend ``from``'s tokens via {setApprovalForAll}. - `from` must have a balance of tokens of type `id` of at least `amount`. - If `to` refers to a smart contract, it must implement {IERC1155Receiver-onERC1155Received} and return the acceptance magic value."
      },
      "setApprovalForAll(address,bool)": {
        "details": "Grants or revokes permission to `operator` to transfer the caller's tokens, according to `approved`, Emits an {ApprovalForAll} event. Requirements: - `operator` cannot be the caller."
      },
      "shieldAssets(uint256,uint256)": {
        "params": {
          "_limit": "is number of policy books to returns from _offset",
          "_offset": "is starting item in array to return array from"
        },
        "returns": {
          "_shieldAssets": "is addresses of shield assets, that will be distributed to Policy givers",
          "_shieldAssetsCount": "is number of added shield assets"
        }
      },
      "shieldAssetsCount()": {
        "returns": {
          "_shieldAssetsCount": "is number of added shield assets"
        }
      },
      "shieldAssetsWithBalance(uint256,uint256)": {
        "params": {
          "_limit": "is number of policy books to returns from _offset",
          "_offset": "is starting item in array to return array from"
        },
        "returns": {
          "_shieldAssetBalance": "is tokens amount of shield assets allocated to Policy Book,  to get specific shield asset balance lookup _shieldAssetBalances by same index as of shield asset",
          "_shieldAssets": "is addresses of shield assets, that will be distributed to Policy givers",
          "_shieldAssetsCount": "is number of added shield assets"
        }
      },
      "stats()": {
        "returns": {
          "_annualProfitYields": "is its APY",
          "_contractType": "is a type of insured contract",
          "_maxCapacities": "is a max token amount that a user can buy",
          "_name": "is the name of PolicyBook",
          "_totalDaiLiquidity": "is PolicyBook's liquidity"
        }
      },
      "supportsInterface(bytes4)": {
        "details": "See {IERC165-supportsInterface}. Time complexity O(1), guaranteed to always use less than 30 000 gas."
      },
      "transferFrom(address,address,uint256)": {
        "details": "Moves `amount` tokens from `sender` to `recipient` using the allowance mechanism. `amount` is then deducted from the caller's allowance. Returns a boolean value indicating whether the operation succeeded. Emits a {Transfer} event."
      },
      "transferOwnership(address)": {
        "details": "Transfers ownership of the contract to a new account (`newOwner`). Can only be called by the current owner."
      },
      "withdrawLiquidity(uint256)": {
        "params": {
          "_tokensToWithdraw": "is amount of DAI tokens to withdraw"
        }
      }
    },
    "stateVariables": {
      "contractType": {
        "return": "_type is type of contract"
      },
      "insuranceContractAddress": {
        "return": "_contract is address of covered contract"
      }
    },
    "version": 1
  },
  "userdoc": {
    "kind": "user",
    "methods": {
      "addLiquidity(uint256)": {
        "notice": "Let user to add liquidity by supplying DAI, access: ANY"
      },
      "addLiquidityFor(address,uint256)": {
        "notice": "Let user to add liqiudity for another user by supplying DAI, access: ANY"
      },
      "addShieldTokens(address,uint256)": {
        "notice": "Adds shield tokens to contract, access: ANY"
      },
      "allowance(address,address)": {
        "notice": "From ERC20"
      },
      "approve(address,uint256)": {
        "notice": "From ERC20"
      },
      "balanceOf(address)": {
        "notice": "From ERC20"
      },
      "buyPolicy(uint256,uint256)": {
        "notice": "Let user to buy policy by supplying DAI, access: ANY"
      },
      "buyPolicyFor(address,uint256,uint256)": {
        "notice": "Let user to buy policy for another user by supplying DAI, access: ANY"
      },
      "contractType()": {
        "notice": "Returns type of contract this PolicyBook covers, access: ANY"
      },
      "decreaseAllowance(address,uint256)": {
        "notice": "From ERC20"
      },
      "getQuote(uint256,uint256)": {
        "notice": "Let user to calculate policy cost in DAI, access: ANY"
      },
      "increaseAllowance(address,uint256)": {
        "notice": "From ERC20"
      },
      "insuranceContractAddress()": {
        "notice": "Returns address of contract this PolicyBook covers, access: ANY"
      },
      "quoteStrategy()": {
        "notice": "Returns quote strategy defined during creation of PolicyBook, access: ANY"
      },
      "rewardForUnclaimedExpiredPolicy(uint256)": {
        "notice": "Let user to claim rewards for unclaimed policy cost in DAI, access: ANY"
      },
      "shieldAssets(uint256,uint256)": {
        "notice": "Returns list of shield assets added to PolicyBook, access: ANY"
      },
      "shieldAssetsCount()": {
        "notice": "Returns number of shield assets added, access: ANY"
      },
      "shieldAssetsWithBalance(uint256,uint256)": {
        "notice": "Returns list of shield assets added with tokens amount allocated to Policy Book, access: ANY"
      },
      "stats()": {
        "notice": "Getting stats, access: ANY"
      },
      "totalSupply()": {
        "notice": "From ERC20"
      },
      "transfer(address,uint256)": {
        "notice": "From ERC20"
      },
      "withdrawLiquidity(uint256)": {
        "notice": "Let user to withdraw deposited liqiudity, access: ANY"
      }
    },
    "version": 1
  }
}