{
  "contractName": "PolicyBookMock",
  "abi": [
    {
      "inputs": [
        {
          "internalType": "address",
          "name": "_insuranceContract",
          "type": "address"
        },
        {
          "internalType": "enum IPolicyBookFabric.ContractType",
          "name": "_contractType",
          "type": "uint8"
        }
      ],
      "stateMutability": "nonpayable",
      "type": "constructor"
    },
    {
      "anonymous": false,
      "inputs": [
        {
          "indexed": false,
          "internalType": "address",
          "name": "_liquidityHolder",
          "type": "address"
        },
        {
          "indexed": false,
          "internalType": "uint256",
          "name": "_liqudityAmount",
          "type": "uint256"
        },
        {
          "indexed": false,
          "internalType": "uint256",
          "name": "_newTotalLiquidity",
          "type": "uint256"
        }
      ],
      "name": "AddLiquidity",
      "type": "event"
    },
    {
      "anonymous": false,
      "inputs": [
        {
          "indexed": true,
          "internalType": "address",
          "name": "owner",
          "type": "address"
        },
        {
          "indexed": true,
          "internalType": "address",
          "name": "spender",
          "type": "address"
        },
        {
          "indexed": false,
          "internalType": "uint256",
          "name": "value",
          "type": "uint256"
        }
      ],
      "name": "Approval",
      "type": "event"
    },
    {
      "anonymous": false,
      "inputs": [
        {
          "indexed": true,
          "internalType": "address",
          "name": "account",
          "type": "address"
        },
        {
          "indexed": true,
          "internalType": "address",
          "name": "operator",
          "type": "address"
        },
        {
          "indexed": false,
          "internalType": "bool",
          "name": "approved",
          "type": "bool"
        }
      ],
      "name": "ApprovalForAll",
      "type": "event"
    },
    {
      "anonymous": false,
      "inputs": [
        {
          "indexed": false,
          "internalType": "address",
          "name": "_policyHolder",
          "type": "address"
        },
        {
          "indexed": false,
          "internalType": "uint256",
          "name": "_coverTokens",
          "type": "uint256"
        },
        {
          "indexed": false,
          "internalType": "uint256",
          "name": "_price",
          "type": "uint256"
        },
        {
          "indexed": false,
          "internalType": "uint256",
          "name": "_newTotalCoverTokens",
          "type": "uint256"
        }
      ],
      "name": "BuyPolicy",
      "type": "event"
    },
    {
      "anonymous": false,
      "inputs": [
        {
          "indexed": true,
          "internalType": "address",
          "name": "previousOwner",
          "type": "address"
        },
        {
          "indexed": true,
          "internalType": "address",
          "name": "newOwner",
          "type": "address"
        }
      ],
      "name": "OwnershipTransferred",
      "type": "event"
    },
    {
      "anonymous": false,
      "inputs": [
        {
          "indexed": true,
          "internalType": "address",
          "name": "from",
          "type": "address"
        },
        {
          "indexed": true,
          "internalType": "address",
          "name": "to",
          "type": "address"
        },
        {
          "indexed": false,
          "internalType": "uint256",
          "name": "value",
          "type": "uint256"
        }
      ],
      "name": "Transfer",
      "type": "event"
    },
    {
      "anonymous": false,
      "inputs": [
        {
          "indexed": true,
          "internalType": "address",
          "name": "operator",
          "type": "address"
        },
        {
          "indexed": true,
          "internalType": "address",
          "name": "from",
          "type": "address"
        },
        {
          "indexed": true,
          "internalType": "address",
          "name": "to",
          "type": "address"
        },
        {
          "indexed": false,
          "internalType": "uint256[]",
          "name": "ids",
          "type": "uint256[]"
        },
        {
          "indexed": false,
          "internalType": "uint256[]",
          "name": "values",
          "type": "uint256[]"
        }
      ],
      "name": "TransferBatch",
      "type": "event"
    },
    {
      "anonymous": false,
      "inputs": [
        {
          "indexed": true,
          "internalType": "address",
          "name": "operator",
          "type": "address"
        },
        {
          "indexed": true,
          "internalType": "address",
          "name": "from",
          "type": "address"
        },
        {
          "indexed": true,
          "internalType": "address",
          "name": "to",
          "type": "address"
        },
        {
          "indexed": false,
          "internalType": "uint256",
          "name": "id",
          "type": "uint256"
        },
        {
          "indexed": false,
          "internalType": "uint256",
          "name": "value",
          "type": "uint256"
        }
      ],
      "name": "TransferSingle",
      "type": "event"
    },
    {
      "anonymous": false,
      "inputs": [
        {
          "indexed": false,
          "internalType": "string",
          "name": "value",
          "type": "string"
        },
        {
          "indexed": true,
          "internalType": "uint256",
          "name": "id",
          "type": "uint256"
        }
      ],
      "name": "URI",
      "type": "event"
    },
    {
      "anonymous": false,
      "inputs": [
        {
          "indexed": false,
          "internalType": "address",
          "name": "_liquidityHolder",
          "type": "address"
        },
        {
          "indexed": false,
          "internalType": "uint256",
          "name": "_tokensToWithdraw",
          "type": "uint256"
        },
        {
          "indexed": false,
          "internalType": "uint256",
          "name": "_newTotalLiquidity",
          "type": "uint256"
        }
      ],
      "name": "WithdrawLiquidity",
      "type": "event"
    },
    {
      "inputs": [],
      "name": "MAXIMUM_COST_100_UTILIZATION_PERCENTAGE",
      "outputs": [
        {
          "internalType": "uint256",
          "name": "",
          "type": "uint256"
        }
      ],
      "stateMutability": "view",
      "type": "function"
    },
    {
      "inputs": [],
      "name": "MAXIMUM_COST_NOT_RISKY_PERCENTAGE",
      "outputs": [
        {
          "internalType": "uint256",
          "name": "",
          "type": "uint256"
        }
      ],
      "stateMutability": "view",
      "type": "function"
    },
    {
      "inputs": [],
      "name": "MINIMUM_COST_PERCENTAGE",
      "outputs": [
        {
          "internalType": "uint256",
          "name": "",
          "type": "uint256"
        }
      ],
      "stateMutability": "view",
      "type": "function"
    },
    {
      "inputs": [],
      "name": "PERCENTAGE_100",
      "outputs": [
        {
          "internalType": "uint256",
          "name": "",
          "type": "uint256"
        }
      ],
      "stateMutability": "view",
      "type": "function"
    },
    {
      "inputs": [],
      "name": "PRECISION",
      "outputs": [
        {
          "internalType": "uint256",
          "name": "",
          "type": "uint256"
        }
      ],
      "stateMutability": "view",
      "type": "function"
    },
    {
      "inputs": [],
      "name": "RISKY_ASSET_THRESHOLD_PERCENTAGE",
      "outputs": [
        {
          "internalType": "uint256",
          "name": "",
          "type": "uint256"
        }
      ],
      "stateMutability": "view",
      "type": "function"
    },
    {
      "inputs": [],
      "name": "SECONDS_IN_THE_YEAR",
      "outputs": [
        {
          "internalType": "uint256",
          "name": "",
          "type": "uint256"
        }
      ],
      "stateMutability": "view",
      "type": "function"
    },
    {
      "inputs": [
        {
          "internalType": "uint256",
          "name": "_liqudityAmount",
          "type": "uint256"
        }
      ],
      "name": "addLiquidity",
      "outputs": [],
      "stateMutability": "nonpayable",
      "type": "function"
    },
    {
      "inputs": [
        {
          "internalType": "address",
          "name": "_liquidityHolderAddr",
          "type": "address"
        },
        {
          "internalType": "uint256",
          "name": "_liqudityAmount",
          "type": "uint256"
        }
      ],
      "name": "addLiquidityFor",
      "outputs": [],
      "stateMutability": "nonpayable",
      "type": "function"
    },
    {
      "inputs": [
        {
          "internalType": "address",
          "name": "_tokenAddress",
          "type": "address"
        },
        {
          "internalType": "uint256",
          "name": "_tokensAmount",
          "type": "uint256"
        }
      ],
      "name": "addShieldTokens",
      "outputs": [
        {
          "internalType": "bool",
          "name": "_success",
          "type": "bool"
        }
      ],
      "stateMutability": "nonpayable",
      "type": "function"
    },
    {
      "inputs": [
        {
          "internalType": "address",
          "name": "owner",
          "type": "address"
        },
        {
          "internalType": "address",
          "name": "spender",
          "type": "address"
        }
      ],
      "name": "allowance",
      "outputs": [
        {
          "internalType": "uint256",
          "name": "",
          "type": "uint256"
        }
      ],
      "stateMutability": "view",
      "type": "function"
    },
    {
      "inputs": [
        {
          "internalType": "address",
          "name": "spender",
          "type": "address"
        },
        {
          "internalType": "uint256",
          "name": "amount",
          "type": "uint256"
        }
      ],
      "name": "approve",
      "outputs": [
        {
          "internalType": "bool",
          "name": "",
          "type": "bool"
        }
      ],
      "stateMutability": "nonpayable",
      "type": "function"
    },
    {
      "inputs": [],
      "name": "approveAllDaiTokensForStaking",
      "outputs": [],
      "stateMutability": "nonpayable",
      "type": "function"
    },
    {
      "inputs": [
        {
          "internalType": "address",
          "name": "account",
          "type": "address"
        },
        {
          "internalType": "uint256",
          "name": "id",
          "type": "uint256"
        }
      ],
      "name": "balanceOf",
      "outputs": [
        {
          "internalType": "uint256",
          "name": "",
          "type": "uint256"
        }
      ],
      "stateMutability": "view",
      "type": "function"
    },
    {
      "inputs": [
        {
          "internalType": "address",
          "name": "account",
          "type": "address"
        }
      ],
      "name": "balanceOf",
      "outputs": [
        {
          "internalType": "uint256",
          "name": "",
          "type": "uint256"
        }
      ],
      "stateMutability": "view",
      "type": "function"
    },
    {
      "inputs": [
        {
          "internalType": "address[]",
          "name": "accounts",
          "type": "address[]"
        },
        {
          "internalType": "uint256[]",
          "name": "ids",
          "type": "uint256[]"
        }
      ],
      "name": "balanceOfBatch",
      "outputs": [
        {
          "internalType": "uint256[]",
          "name": "",
          "type": "uint256[]"
        }
      ],
      "stateMutability": "view",
      "type": "function"
    },
    {
      "inputs": [
        {
          "internalType": "address",
          "name": "owner",
          "type": "address"
        }
      ],
      "name": "balanceOfNFT",
      "outputs": [
        {
          "internalType": "uint256",
          "name": "",
          "type": "uint256"
        }
      ],
      "stateMutability": "view",
      "type": "function"
    },
    {
      "inputs": [],
      "name": "bmiDaiStakingAddress",
      "outputs": [
        {
          "internalType": "address",
          "name": "",
          "type": "address"
        }
      ],
      "stateMutability": "view",
      "type": "function"
    },
    {
      "inputs": [
        {
          "internalType": "address",
          "name": "account",
          "type": "address"
        },
        {
          "internalType": "uint256",
          "name": "id",
          "type": "uint256"
        },
        {
          "internalType": "uint256",
          "name": "amount",
          "type": "uint256"
        }
      ],
      "name": "burnNFT",
      "outputs": [],
      "stateMutability": "nonpayable",
      "type": "function"
    },
    {
      "inputs": [
        {
          "internalType": "uint256",
          "name": "_durationSeconds",
          "type": "uint256"
        },
        {
          "internalType": "uint256",
          "name": "_coverTokens",
          "type": "uint256"
        }
      ],
      "name": "buyPolicy",
      "outputs": [],
      "stateMutability": "nonpayable",
      "type": "function"
    },
    {
      "inputs": [
        {
          "internalType": "address",
          "name": "_policyHolderAddr",
          "type": "address"
        },
        {
          "internalType": "uint256",
          "name": "_durationSeconds",
          "type": "uint256"
        },
        {
          "internalType": "uint256",
          "name": "_coverTokens",
          "type": "uint256"
        }
      ],
      "name": "buyPolicyFor",
      "outputs": [],
      "stateMutability": "nonpayable",
      "type": "function"
    },
    {
      "inputs": [],
      "name": "contractType",
      "outputs": [
        {
          "internalType": "enum IPolicyBookFabric.ContractType",
          "name": "",
          "type": "uint8"
        }
      ],
      "stateMutability": "view",
      "type": "function"
    },
    {
      "inputs": [],
      "name": "contractsRegistry",
      "outputs": [
        {
          "internalType": "contract ContractsRegistry",
          "name": "",
          "type": "address"
        }
      ],
      "stateMutability": "view",
      "type": "function"
    },
    {
      "inputs": [],
      "name": "daiToken",
      "outputs": [
        {
          "internalType": "contract IERC20",
          "name": "",
          "type": "address"
        }
      ],
      "stateMutability": "view",
      "type": "function"
    },
    {
      "inputs": [],
      "name": "decimals",
      "outputs": [
        {
          "internalType": "uint8",
          "name": "",
          "type": "uint8"
        }
      ],
      "stateMutability": "view",
      "type": "function"
    },
    {
      "inputs": [
        {
          "internalType": "address",
          "name": "spender",
          "type": "address"
        },
        {
          "internalType": "uint256",
          "name": "subtractedValue",
          "type": "uint256"
        }
      ],
      "name": "decreaseAllowance",
      "outputs": [
        {
          "internalType": "bool",
          "name": "",
          "type": "bool"
        }
      ],
      "stateMutability": "nonpayable",
      "type": "function"
    },
    {
      "inputs": [
        {
          "internalType": "uint256",
          "name": "_durationSeconds",
          "type": "uint256"
        },
        {
          "internalType": "uint256",
          "name": "_tokens",
          "type": "uint256"
        }
      ],
      "name": "getQuote",
      "outputs": [
        {
          "internalType": "uint256",
          "name": "_daiTokens",
          "type": "uint256"
        }
      ],
      "stateMutability": "view",
      "type": "function"
    },
    {
      "inputs": [
        {
          "internalType": "address",
          "name": "spender",
          "type": "address"
        },
        {
          "internalType": "uint256",
          "name": "addedValue",
          "type": "uint256"
        }
      ],
      "name": "increaseAllowance",
      "outputs": [
        {
          "internalType": "bool",
          "name": "",
          "type": "bool"
        }
      ],
      "stateMutability": "nonpayable",
      "type": "function"
    },
    {
      "inputs": [
        {
          "internalType": "contract ContractsRegistry",
          "name": "_contractsRegistry",
          "type": "address"
        }
      ],
      "name": "initRegistry",
      "outputs": [],
      "stateMutability": "nonpayable",
      "type": "function"
    },
    {
      "inputs": [],
      "name": "insuranceContractAddress",
      "outputs": [
        {
          "internalType": "address",
          "name": "",
          "type": "address"
        }
      ],
      "stateMutability": "view",
      "type": "function"
    },
    {
      "inputs": [
        {
          "internalType": "address",
          "name": "account",
          "type": "address"
        },
        {
          "internalType": "address",
          "name": "operator",
          "type": "address"
        }
      ],
      "name": "isApprovedForAll",
      "outputs": [
        {
          "internalType": "bool",
          "name": "",
          "type": "bool"
        }
      ],
      "stateMutability": "view",
      "type": "function"
    },
    {
      "inputs": [
        {
          "internalType": "address",
          "name": "account",
          "type": "address"
        },
        {
          "internalType": "uint256",
          "name": "id",
          "type": "uint256"
        },
        {
          "internalType": "uint256",
          "name": "amount",
          "type": "uint256"
        },
        {
          "internalType": "bytes",
          "name": "data",
          "type": "bytes"
        }
      ],
      "name": "mintNFT",
      "outputs": [],
      "stateMutability": "nonpayable",
      "type": "function"
    },
    {
      "inputs": [],
      "name": "name",
      "outputs": [
        {
          "internalType": "string",
          "name": "",
          "type": "string"
        }
      ],
      "stateMutability": "view",
      "type": "function"
    },
    {
      "inputs": [],
      "name": "owner",
      "outputs": [
        {
          "internalType": "address",
          "name": "",
          "type": "address"
        }
      ],
      "stateMutability": "view",
      "type": "function"
    },
    {
      "inputs": [
        {
          "internalType": "uint256",
          "name": "tokenId",
          "type": "uint256"
        }
      ],
      "name": "ownerOfNFT",
      "outputs": [
        {
          "internalType": "address",
          "name": "",
          "type": "address"
        }
      ],
      "stateMutability": "view",
      "type": "function"
    },
    {
      "inputs": [
        {
          "internalType": "address",
          "name": "",
          "type": "address"
        }
      ],
      "name": "policyHolders",
      "outputs": [
        {
          "internalType": "uint256",
          "name": "coverTokens",
          "type": "uint256"
        },
        {
          "internalType": "uint256",
          "name": "durationSeconds",
          "type": "uint256"
        }
      ],
      "stateMutability": "view",
      "type": "function"
    },
    {
      "inputs": [],
      "name": "quoteStrategy",
      "outputs": [
        {
          "internalType": "address",
          "name": "_quoteStrategy",
          "type": "address"
        }
      ],
      "stateMutability": "view",
      "type": "function"
    },
    {
      "inputs": [],
      "name": "renounceOwnership",
      "outputs": [],
      "stateMutability": "nonpayable",
      "type": "function"
    },
    {
      "inputs": [
        {
          "internalType": "uint256",
          "name": "_policyId",
          "type": "uint256"
        }
      ],
      "name": "rewardForUnclaimedExpiredPolicy",
      "outputs": [],
      "stateMutability": "nonpayable",
      "type": "function"
    },
    {
      "inputs": [
        {
          "internalType": "address",
          "name": "from",
          "type": "address"
        },
        {
          "internalType": "address",
          "name": "to",
          "type": "address"
        },
        {
          "internalType": "uint256[]",
          "name": "ids",
          "type": "uint256[]"
        },
        {
          "internalType": "uint256[]",
          "name": "amounts",
          "type": "uint256[]"
        },
        {
          "internalType": "bytes",
          "name": "data",
          "type": "bytes"
        }
      ],
      "name": "safeBatchTransferFrom",
      "outputs": [],
      "stateMutability": "nonpayable",
      "type": "function"
    },
    {
      "inputs": [
        {
          "internalType": "address",
          "name": "from",
          "type": "address"
        },
        {
          "internalType": "address",
          "name": "to",
          "type": "address"
        },
        {
          "internalType": "uint256",
          "name": "id",
          "type": "uint256"
        },
        {
          "internalType": "uint256",
          "name": "amount",
          "type": "uint256"
        },
        {
          "internalType": "bytes",
          "name": "data",
          "type": "bytes"
        }
      ],
      "name": "safeTransferFrom",
      "outputs": [],
      "stateMutability": "nonpayable",
      "type": "function"
    },
    {
      "inputs": [
        {
          "internalType": "address",
          "name": "operator",
          "type": "address"
        },
        {
          "internalType": "bool",
          "name": "approved",
          "type": "bool"
        }
      ],
      "name": "setApprovalForAll",
      "outputs": [],
      "stateMutability": "nonpayable",
      "type": "function"
    },
    {
      "inputs": [
        {
          "internalType": "uint256",
          "name": "_offset",
          "type": "uint256"
        },
        {
          "internalType": "uint256",
          "name": "_limit",
          "type": "uint256"
        }
      ],
      "name": "shieldAssets",
      "outputs": [
        {
          "internalType": "uint256",
          "name": "_shieldAssetsCount",
          "type": "uint256"
        },
        {
          "internalType": "address[]",
          "name": "_shieldAssets",
          "type": "address[]"
        }
      ],
      "stateMutability": "view",
      "type": "function"
    },
    {
      "inputs": [],
      "name": "shieldAssetsCount",
      "outputs": [
        {
          "internalType": "uint256",
          "name": "_shieldAssetsCount",
          "type": "uint256"
        }
      ],
      "stateMutability": "view",
      "type": "function"
    },
    {
      "inputs": [
        {
          "internalType": "uint256",
          "name": "_offset",
          "type": "uint256"
        },
        {
          "internalType": "uint256",
          "name": "_limit",
          "type": "uint256"
        }
      ],
      "name": "shieldAssetsWithBalance",
      "outputs": [
        {
          "internalType": "uint256",
          "name": "_shieldAssetsCount",
          "type": "uint256"
        },
        {
          "internalType": "address[]",
          "name": "_shieldAssets",
          "type": "address[]"
        },
        {
          "internalType": "uint256[]",
          "name": "_shieldAssetBalance",
          "type": "uint256[]"
        }
      ],
      "stateMutability": "view",
      "type": "function"
    },
    {
      "inputs": [],
      "name": "stats",
      "outputs": [
        {
          "internalType": "string",
          "name": "_name",
          "type": "string"
        },
        {
          "internalType": "enum IPolicyBookFabric.ContractType",
          "name": "_contractType",
          "type": "uint8"
        },
        {
          "internalType": "uint256",
          "name": "_maxCapacities",
          "type": "uint256"
        },
        {
          "internalType": "uint256",
          "name": "_totalDaiLiquidity",
          "type": "uint256"
        },
        {
          "internalType": "uint256",
          "name": "_annualProfitYields",
          "type": "uint256"
        }
      ],
      "stateMutability": "view",
      "type": "function"
    },
    {
      "inputs": [
        {
          "internalType": "bytes4",
          "name": "interfaceId",
          "type": "bytes4"
        }
      ],
      "name": "supportsInterface",
      "outputs": [
        {
          "internalType": "bool",
          "name": "",
          "type": "bool"
        }
      ],
      "stateMutability": "view",
      "type": "function"
    },
    {
      "inputs": [],
      "name": "symbol",
      "outputs": [
        {
          "internalType": "string",
          "name": "",
          "type": "string"
        }
      ],
      "stateMutability": "view",
      "type": "function"
    },
    {
      "inputs": [
        {
          "internalType": "address",
          "name": "owner",
          "type": "address"
        },
        {
          "internalType": "uint256",
          "name": "index",
          "type": "uint256"
        }
      ],
      "name": "tokenOfOwnerByIndexNFT",
      "outputs": [
        {
          "internalType": "uint256",
          "name": "",
          "type": "uint256"
        }
      ],
      "stateMutability": "view",
      "type": "function"
    },
    {
      "inputs": [],
      "name": "totalCoverTokens",
      "outputs": [
        {
          "internalType": "uint256",
          "name": "",
          "type": "uint256"
        }
      ],
      "stateMutability": "view",
      "type": "function"
    },
    {
      "inputs": [],
      "name": "totalLiquidity",
      "outputs": [
        {
          "internalType": "uint256",
          "name": "",
          "type": "uint256"
        }
      ],
      "stateMutability": "view",
      "type": "function"
    },
    {
      "inputs": [],
      "name": "totalSupply",
      "outputs": [
        {
          "internalType": "uint256",
          "name": "",
          "type": "uint256"
        }
      ],
      "stateMutability": "view",
      "type": "function"
    },
    {
      "inputs": [],
      "name": "totalSupplyNFT",
      "outputs": [
        {
          "internalType": "uint256",
          "name": "",
          "type": "uint256"
        }
      ],
      "stateMutability": "view",
      "type": "function"
    },
    {
      "inputs": [
        {
          "internalType": "address",
          "name": "recipient",
          "type": "address"
        },
        {
          "internalType": "uint256",
          "name": "amount",
          "type": "uint256"
        }
      ],
      "name": "transfer",
      "outputs": [
        {
          "internalType": "bool",
          "name": "",
          "type": "bool"
        }
      ],
      "stateMutability": "nonpayable",
      "type": "function"
    },
    {
      "inputs": [
        {
          "internalType": "address",
          "name": "sender",
          "type": "address"
        },
        {
          "internalType": "address",
          "name": "recipient",
          "type": "address"
        },
        {
          "internalType": "uint256",
          "name": "amount",
          "type": "uint256"
        }
      ],
      "name": "transferFrom",
      "outputs": [
        {
          "internalType": "bool",
          "name": "",
          "type": "bool"
        }
      ],
      "stateMutability": "nonpayable",
      "type": "function"
    },
    {
      "inputs": [],
      "name": "transferNFTMintingAndBurningOwnershipToStaking",
      "outputs": [],
      "stateMutability": "nonpayable",
      "type": "function"
    },
    {
      "inputs": [
        {
          "internalType": "address",
          "name": "newOwner",
          "type": "address"
        }
      ],
      "name": "transferOwnership",
      "outputs": [],
      "stateMutability": "nonpayable",
      "type": "function"
    },
    {
      "inputs": [
        {
          "internalType": "uint256",
          "name": "_tokensToWithdraw",
          "type": "uint256"
        }
      ],
      "name": "withdrawLiquidity",
      "outputs": [],
      "stateMutability": "nonpayable",
      "type": "function"
    },
    {
      "stateMutability": "payable",
      "type": "receive"
    },
    {
      "inputs": [
        {
          "internalType": "uint256",
          "name": "_daiInThePoolTotal",
          "type": "uint256"
        }
      ],
      "name": "setTotalLiquidity",
      "outputs": [],
      "stateMutability": "nonpayable",
      "type": "function"
    },
    {
      "inputs": [
        {
          "internalType": "uint256",
          "name": "_daiInThePoolBought",
          "type": "uint256"
        }
      ],
      "name": "setTotalCoverTokens",
      "outputs": [],
      "stateMutability": "nonpayable",
      "type": "function"
    }
  ],
  "bytecode": "0x60806040523480156200001157600080fd5b5060405162004e8638038062004e868339810160408190526200003491620002c5565b8181604051806020016040528060008152506040518060200160405280600081525081816040516020016200006a91906200030f565b60408051601f1981840301815291905281816200008e6301ffc9a760e01b62000153565b6200009a8282620001d8565b620000ac636cdb3d1360e11b62000153565b5060009050620000bb62000215565b600b80546001600160a01b0319166001600160a01b038316908117909155604051919250906000907f8be0079c531659141344cd1fd0a4f28419497f9722a3daafe3b4186f6b6457e0908290a35050600d80546001600160a01b0319166001600160a01b0387161780825585925060ff60a01b1916600160a01b8360038111156200014257fe5b021790555050505050505062000360565b6001600160e01b03198082161415620001b3576040805162461bcd60e51b815260206004820152601c60248201527f4552433136353a20696e76616c696420696e7465726661636520696400000000604482015290519081900360640190fd5b6001600160e01b0319166000908152602081905260409020805460ff19166001179055565b8151620001ed90600190602085019062000219565b5080516200020390600290602084019062000219565b50506003805460ff1916601217905550565b3390565b828054600181600116156101000203166002900490600052602060002090601f0160209004810192826200025157600085556200029c565b82601f106200026c57805160ff19168380011785556200029c565b828001600101855582156200029c579182015b828111156200029c5782518255916020019190600101906200027f565b50620002aa929150620002ae565b5090565b5b80821115620002aa5760008155600101620002af565b60008060408385031215620002d8578182fd5b82516001600160a01b0381168114620002ef578283fd5b60208401519092506004811062000304578182fd5b809150509250929050565b600065626d6944414960d01b82528251815b8181101562000340576020818601810151600686840101520162000321565b81811115620003525782600683860101525b509190910160060192915050565b614b1680620003706000396000f3fe60806040526004361061039a5760003560e01c806379fac08c116101dc578063c18c605711610102578063dd62ed3e116100a0578063f242432a1161006f578063f242432a14610a35578063f2fde38b14610a55578063f5b100ea14610a75578063f60ff93714610a95576103a1565b8063dd62ed3e146109c0578063e985e9c5146109e0578063e98a04e114610a00578063efa1f98a14610a15576103a1565b8063cfa8b3a8116100dc578063cfa8b3a814610950578063d0a43afd14610965578063d80528ae14610985578063d98d0c7e146109ab576103a1565b8063c18c6057146108f9578063cb2ef6f714610919578063cbf5a55e1461093b576103a1565b8063a457c2d71161017a578063b0ea6a8411610149578063b0ea6a84146108a5578063b653822f146108ba578063bc5d198a146108cf578063be22f546146108e4576103a1565b8063a457c2d71461083b578063a9059cbb1461085b578063aaf5eb681461087b578063b00455fd14610890576103a1565b806395d89b41116101b657806395d89b41146107dc5780639c590006146107f15780639effd68714610806578063a22cb4651461081b576103a1565b806379fac08c146107845780637cd0fc9b146107b25780638da5cb5b146107c7576103a1565b80632d8a746e116102c157806351c6590a1161025f57806370b68a2a1161022e57806370b68a2a14610701578063715018a61461072f5780637234751b14610744578063758af3ab14610764576103a1565b806351c6590a14610681578063561e795d146106a15780635da2460d146106c157806370a08231146106e1576103a1565b8063395093511161029b57806339509351146105ff5780634b6411811461061f5780634e1273f41461063f578063514ea9bd1461066c576103a1565b80632d8a746e1461059d5780632eb2c2d6146105bd578063313ce567146105dd576103a1565b806314c179c0116103395780631cc509fd116103085780631cc509fd146105285780631dcb46f61461054857806323b872dd146105685780632c865d6c14610588576103a1565b806314c179c0146104bc57806315770f92146104de57806318160ddd146104f3578063188ff85414610508576103a1565b8063095ea7b311610375578063095ea7b31461042b57806309b7d94b1461044b5780630a861f2a1461046d5780630e82da531461048d576103a1565b8062fdd58e146103a657806301ffc9a7146103dc57806306fdde0314610409576103a1565b366103a157005b600080fd5b3480156103b257600080fd5b506103c66103c13660046139e9565b610aaa565b6040516103d39190614757565b60405180910390f35b3480156103e857600080fd5b506103fc6103f7366004613b88565b610b06565b6040516103d39190613e89565b34801561041557600080fd5b5061041e610b3d565b6040516103d39190613ea2565b34801561043757600080fd5b506103fc6104463660046139e9565b610bca565b34801561045757600080fd5b5061046b610466366004613c33565b610be7565b005b34801561047957600080fd5b5061046b610488366004613c33565b610bec565b34801561049957600080fd5b506104ad6104a8366004613c4b565b610d5a565b6040516103d393929190614779565b3480156104c857600080fd5b506104d1610d66565b6040516103d39190613d18565b3480156104ea57600080fd5b506103c6610d75565b3480156104ff57600080fd5b506103c6610d7b565b34801561051457600080fd5b506103fc6105233660046139e9565b610dab565b34801561053457600080fd5b5061046b610543366004613a14565b610db3565b34801561055457600080fd5b506103c66105633660046139e9565b610e2d565b34801561057457600080fd5b506103fc610583366004613915565b610e56565b34801561059457600080fd5b506103c6610edd565b3480156105a957600080fd5b506104d16105b8366004613c33565b610ee2565b3480156105c957600080fd5b5061046b6105d836600461386b565b610f0a565b3480156105e957600080fd5b506105f261119f565b6040516103d391906147b2565b34801561060b57600080fd5b506103fc61061a3660046139e9565b6111a8565b34801561062b57600080fd5b5061046b61063a366004613a48565b6111f6565b34801561064b57600080fd5b5061065f61065a366004613aa9565b611272565b6040516103d39190613e51565b34801561067857600080fd5b506103c66113b2565b34801561068d57600080fd5b5061046b61069c366004613c33565b6113c1565b3480156106ad57600080fd5b5061046b6106bc366004613c33565b6113ce565b3480156106cd57600080fd5b5061046b6106dc366004613c4b565b6113d3565b3480156106ed57600080fd5b506103c66106fc3660046137fb565b6113e2565b34801561070d57600080fd5b5061072161071c3660046137fb565b61141c565b6040516103d39291906147a4565b34801561073b57600080fd5b5061046b611435565b34801561075057600080fd5b5061046b61075f366004613a14565b611501565b34801561077057600080fd5b506103c661077f366004613c4b565b61150c565b34801561079057600080fd5b506107a461079f366004613c4b565b611518565b6040516103d3929190614760565b3480156107be57600080fd5b506104d1610edd565b3480156107d357600080fd5b506104d1611522565b3480156107e857600080fd5b5061041e611531565b3480156107fd57600080fd5b506103c6611589565b34801561081257600080fd5b506104d1611598565b34801561082757600080fd5b5061046b6108363660046139bc565b6115a7565b34801561084757600080fd5b506103fc6108563660046139e9565b611693565b34801561086757600080fd5b506103fc6108763660046139e9565b6116fb565b34801561088757600080fd5b506103c661170f565b34801561089c57600080fd5b5061046b61171e565b3480156108b157600080fd5b506103c661184e565b3480156108c657600080fd5b5061046b61185f565b3480156108db57600080fd5b506103c66118e0565b3480156108f057600080fd5b506104d16118e8565b34801561090557600080fd5b5061046b610914366004613c33565b6113cb565b34801561092557600080fd5b5061092e6118f7565b6040516103d39190613e94565b34801561094757600080fd5b506103c6611918565b34801561095c57600080fd5b506103c6611928565b34801561097157600080fd5b5061046b6109803660046137fb565b611938565b34801561099157600080fd5b5061099a611c4c565b6040516103d3959493929190613eb5565b3480156109b757600080fd5b506104d1611d1f565b3480156109cc57600080fd5b506103c66109db366004613833565b611d2e565b3480156109ec57600080fd5b506103fc6109fb366004613833565b611d59565b348015610a0c57600080fd5b506103c6611d87565b348015610a2157600080fd5b5061046b610a303660046139e9565b611d97565b348015610a4157600080fd5b5061046b610a50366004613955565b611da1565b348015610a6157600080fd5b5061046b610a703660046137fb565b611fab565b348015610a8157600080fd5b506103c6610a903660046137fb565b6120ce565b348015610aa157600080fd5b506103c6612117565b60006001600160a01b038316610adb5760405162461bcd60e51b8152600401610ad290614076565b60405180910390fd5b5060008181526005602090815260408083206001600160a01b03861684529091529020545b92915050565b7fffffffff000000000000000000000000000000000000000000000000000000001660009081526020819052604090205460ff1690565b60018054604080516020600284861615610100026000190190941693909304601f81018490048402820184019092528181529291830182828015610bc25780601f10610b9757610100808354040283529160200191610bc2565b820191906000526020600020905b815481529060010190602001808311610ba557829003601f168201915b505050505081565b6000610bde610bd761211d565b8484612121565b50600192915050565b601055565b80610bf6336113e2565b1015610c145760405162461bcd60e51b8152600401610ad290614438565b601154601054610c2490836121d5565b1015610c425760405162461bcd60e51b8152600401610ad290614310565b600e546040517fa9059cbb0000000000000000000000000000000000000000000000000000000081526000916001600160a01b03169063a9059cbb90610c8e9033908690600401613d2c565b602060405180830381600087803b158015610ca857600080fd5b505af1158015610cbc573d6000803e3d6000fd5b505050506040513d601f19601f82011682018060405250810190610ce09190613b6c565b905080610cff5760405162461bcd60e51b8152600401610ad29061418d565b601054610d0c90836121d5565b601055610d193383612217565b7fac927268ea9ae2e55027e6ab727fc2db8e3ea48c56c658223a1074567e4298c03383601054604051610d4e93929190613d45565b60405180910390a15050565b60006060809250925092565b600d546001600160a01b031681565b60105481565b600160005260046020527fabd6e7cb50984ff9c2f3e18a2660c3353dadf4e3291deeb275dae2cd1e44fe05545b90565b600092915050565b610dbb61211d565b600b546001600160a01b03908116911614610e1d576040805162461bcd60e51b815260206004820181905260248201527f4f776e61626c653a2063616c6c6572206973206e6f7420746865206f776e6572604482015290519081900360640190fd5b610e28838383612382565b505050565b6001600160a01b0382166000908152600860205260408120610e4f90836124fa565b9392505050565b6000610e63848484612506565b610ed384610e6f61211d565b610ece85604051806060016040528060288152602001614a94602891396001600160a01b038a16600090815260076020526040812090610ead61211d565b6001600160a01b031681526020810191909152604001600020549190612678565b612121565b5060019392505050565b600090565b6000610b00826040518060600160405280602a8152602001614a1f602a91396009919061270f565b8151835114610f2b5760405162461bcd60e51b8152600401610ad290614666565b6001600160a01b038416610f515760405162461bcd60e51b8152600401610ad290614256565b610f5961211d565b6001600160a01b0316856001600160a01b03161480610f7f5750610f7f856109fb61211d565b610f9b5760405162461bcd60e51b8152600401610ad2906142b3565b6000610fa561211d565b9050610fb5818787878787611197565b60005b8451811015611131576000858281518110610fcf57fe5b602002602001015190506000858381518110610fe757fe5b60200260200101519050600182141561100557611005898983610e28565b61100e82612724565b15611067576001600160a01b03891660009081526008602052604090206110359083612731565b506001600160a01b0388166000908152600860205260409020611058908361273d565b506110656009838a612749565b505b6110ca816040518060600160405280602a8152602001614a49602a91396005600086815260200190815260200160002060008d6001600160a01b03166001600160a01b03168152602001908152602001600020546126789092919063ffffffff16565b60008381526005602090815260408083206001600160a01b038e811685529252808320939093558a1681522054611101908261275f565b60009283526005602090815260408085206001600160a01b038c1686529091529092209190915550600101610fb8565b50846001600160a01b0316866001600160a01b0316826001600160a01b03167f4a39dc06d4c0dbc64b70af90fd698a233a518aa5d07e595d983b8c0526c8f7fb8787604051611181929190613e64565b60405180910390a46111978187878787876127b9565b505050505050565b60035460ff1681565b6000610bde6111b561211d565b84610ece85600760006111c661211d565b6001600160a01b03908116825260208083019390935260409182016000908120918c16815292529020549061275f565b6111fe61211d565b600b546001600160a01b03908116911614611260576040805162461bcd60e51b815260206004820181905260248201527f4f776e61626c653a2063616c6c6572206973206e6f7420746865206f776e6572604482015290519081900360640190fd5b61126c8484848461291a565b50505050565b606081518351146112955760405162461bcd60e51b8152600401610ad290614609565b6060835167ffffffffffffffff811180156112af57600080fd5b506040519080825280602002602001820160405280156112d9578160200160208202803683370190505b50905060005b84518110156113aa5760006001600160a01b03168582815181106112ff57fe5b60200260200101516001600160a01b0316141561132e5760405162461bcd60e51b8152600401610ad2906140d3565b6005600085838151811061133e57fe5b60200260200101518152602001908152602001600020600086838151811061136257fe5b60200260200101516001600160a01b03166001600160a01b031681526020019081526020016000205482828151811061139757fe5b60209081029190910101526001016112df565b509392505050565b6af8277896582678ac00000081565b6113cb3382612abd565b50565b601155565b6113de338383612bd8565b5050565b6001600160a01b031660009081527f1471eb6eb2c5e789fc3de43f8ce62938c7d1836ec861730447e2ada8fd81017b602052604090205490565b6012602052600090815260409020805460019091015482565b61143d61211d565b600b546001600160a01b0390811691161461149f576040805162461bcd60e51b815260206004820181905260248201527f4f776e61626c653a2063616c6c6572206973206e6f7420746865206f776e6572604482015290519081900360640190fd5b600b546040516000916001600160a01b0316907f8be0079c531659141344cd1fd0a4f28419497f9722a3daafe3b4186f6b6457e0908390a3600b80547fffffffffffffffffffffffff0000000000000000000000000000000000000000169055565b610e28838383612bd8565b6000610e4f8383612db3565b5060009160609150565b600b546001600160a01b031690565b6002805460408051602060018416156101000260001901909316849004601f81018490048402820184019092528181529291830182828015610bc25780601f10610b9757610100808354040283529160200191610bc2565b6a295be96e6406697200000081565b600f546001600160a01b031681565b816001600160a01b03166115b961211d565b6001600160a01b031614156115e05760405162461bcd60e51b8152600401610ad2906145ac565b80600660006115ed61211d565b6001600160a01b0390811682526020808301939093526040918201600090812091871680825291909352912080547fffffffffffffffffffffffffffffffffffffffffffffffffffffffffffffff00169215159290921790915561164f61211d565b6001600160a01b03167f17307eab39ab6107e8899845ad3d59bd9653f200f220920489ca2b5937696c31836040516116879190613e89565b60405180910390a35050565b6000610bde6116a061211d565b84610ece85604051806060016040528060258152602001614abc60259139600760006116ca61211d565b6001600160a01b03908116825260208083019390935260409182016000908120918d16815292529020549190612678565b6000610bde61170861211d565b8484612506565b6a084595161401484a00000081565b61172661211d565b600b546001600160a01b03908116911614611788576040805162461bcd60e51b815260206004820181905260248201527f4f776e61626c653a2063616c6c6572206973206e6f7420746865206f776e6572604482015290519081900360640190fd5b600e54600f546040517f095ea7b30000000000000000000000000000000000000000000000000000000081526000926001600160a01b039081169263095ea7b3926117dd929091169060001990600401613d2c565b602060405180830381600087803b1580156117f757600080fd5b505af115801561180b573d6000803e3d6000fd5b505050506040513d601f19601f8201168201806040525081019061182f9190613b6c565b9050806113cb5760405162461bcd60e51b8152600401610ad290614347565b600061185a6009612ecd565b905090565b61186761211d565b600b546001600160a01b039081169116146118c9576040805162461bcd60e51b815260206004820181905260248201527f4f776e61626c653a2063616c6c6572206973206e6f7420746865206f776e6572604482015290519081900360640190fd5b600f546118de906001600160a01b0316611fab565b565b6301e1338081565b600e546001600160a01b031681565b600d5474010000000000000000000000000000000000000000900460ff1681565b6b033b2e3c9fd0803ce800000081565b6b04d8c55aefb8c05b5c00000081565b61194061211d565b600b546001600160a01b039081169116146119a2576040805162461bcd60e51b815260206004820181905260248201527f4f776e61626c653a2063616c6c6572206973206e6f7420746865206f776e6572604482015290519081900360640190fd5b600c80547fffffffffffffffffffffffff0000000000000000000000000000000000000000166001600160a01b038316908117909155604080517fa45611b60000000000000000000000000000000000000000000000000000000081529051633581777391839163a45611b691600480820192600092909190829003018186803b158015611a2f57600080fd5b505afa158015611a43573d6000803e3d6000fd5b505050506040513d6000823e601f3d908101601f19168201604052611a6b9190810190613bc0565b6040518263ffffffff1660e01b8152600401611a879190613ea2565b60206040518083038186803b158015611a9f57600080fd5b505afa158015611ab3573d6000803e3d6000fd5b505050506040513d601f19601f82011682018060405250810190611ad79190613817565b600e80547fffffffffffffffffffffffff0000000000000000000000000000000000000000166001600160a01b03928316179055600c54604080517f3d2886a0000000000000000000000000000000000000000000000000000000008152905191909216916335817773918391633d2886a0916004808301926000929190829003018186803b158015611b6957600080fd5b505afa158015611b7d573d6000803e3d6000fd5b505050506040513d6000823e601f3d908101601f19168201604052611ba59190810190613bc0565b6040518263ffffffff1660e01b8152600401611bc19190613ea2565b60206040518083038186803b158015611bd957600080fd5b505afa158015611bed573d6000803e3d6000fd5b505050506040513d601f19601f82011682018060405250810190611c119190613817565b600f80547fffffffffffffffffffffffff0000000000000000000000000000000000000000166001600160a01b039290921691909117905550565b60606000806000806001600d60149054906101000a900460ff16601154601054036010546000848054600181600116156101000203166002900480601f016020809104026020016040519081016040528092919081815260200182805460018160011615610100020316600290048015611d075780601f10611cdc57610100808354040283529160200191611d07565b820191906000526020600020905b815481529060010190602001808311611cea57829003601f168201915b50505050509450945094509450945094509091929394565b600c546001600160a01b031681565b6001600160a01b03918216600090815260076020908152604080832093909416825291909152205490565b6001600160a01b03918216600090815260066020908152604080832093909416825291909152205460ff1690565b6b024306c4097859c43c00000081565b6113de8282612abd565b6001600160a01b038416611dc75760405162461bcd60e51b8152600401610ad290614256565b611dcf61211d565b6001600160a01b0316856001600160a01b03161480611df55750611df5856109fb61211d565b611e115760405162461bcd60e51b8152600401610ad2906141c4565b6000611e1b61211d565b9050611e3b818787611e2c88612ed8565b611e3588612ed8565b87611197565b6001841415611e4f57611e4f868685610e28565b611e5884612724565b15611eb1576001600160a01b0386166000908152600860205260409020611e7f9085612731565b506001600160a01b0385166000908152600860205260409020611ea2908561273d565b50611eaf60098587612749565b505b611ef8836040518060600160405280602a8152602001614a49602a913960008781526005602090815260408083206001600160a01b038d1684529091529020549190612678565b60008581526005602090815260408083206001600160a01b038b81168552925280832093909355871681522054611f2f908461275f565b60008581526005602090815260408083206001600160a01b03808b168086529190935292819020939093559151909188811691908416907fc3d58168c5ae7397731d063d5bbf3d657854427343f4c083240f7aacaa2d0f6290611f9590899089906147a4565b60405180910390a4611197818787878787612f1c565b611fb361211d565b600b546001600160a01b03908116911614612015576040805162461bcd60e51b815260206004820181905260248201527f4f776e61626c653a2063616c6c6572206973206e6f7420746865206f776e6572604482015290519081900360640190fd5b6001600160a01b03811661205a5760405162461bcd60e51b81526004018080602001828103825260268152602001806149af6026913960400191505060405180910390fd5b600b546040516001600160a01b038084169216907f8be0079c531659141344cd1fd0a4f28419497f9722a3daafe3b4186f6b6457e090600090a3600b80547fffffffffffffffffffffffff0000000000000000000000000000000000000000166001600160a01b0392909216919091179055565b60006001600160a01b0382166120f65760405162461bcd60e51b8152600401610ad290614076565b6001600160a01b0382166000908152600860205260409020610b0090612ecd565b60115481565b3390565b6001600160a01b0383166121475760405162461bcd60e51b8152600401610ad29061454f565b6001600160a01b03821661216d5760405162461bcd60e51b8152600401610ad290614130565b6001600160a01b0380841660008181526007602090815260408083209487168084529490915290819020849055517f8c5be1e5ebec7d5bd14f71427d1e84f3dd0314c0f7b2291e5b200ac8c7c3b925906121c8908590614757565b60405180910390a3505050565b6000610e4f83836040518060400160405280601e81526020017f536166654d6174683a207375627472616374696f6e206f766572666c6f770000815250612678565b6001600160a01b03821661223d5760405162461bcd60e51b8152600401610ad290614495565b61224982600083610e28565b6122a58160405180606001604052806022815260200161498d602291396001600160a01b03851660009081527f1471eb6eb2c5e789fc3de43f8ce62938c7d1836ec861730447e2ada8fd81017b60205260409020549190612678565b6001600160a01b03831660009081527f1471eb6eb2c5e789fc3de43f8ce62938c7d1836ec861730447e2ada8fd81017b6020908152604082209290925560019052600490527fabd6e7cb50984ff9c2f3e18a2660c3353dadf4e3291deeb275dae2cd1e44fe055461231690826121d5565b6001600090815260046020527fabd6e7cb50984ff9c2f3e18a2660c3353dadf4e3291deeb275dae2cd1e44fe05919091556040516001600160a01b038416907fddf252ad1be2c89b69c2b068fc378daa952ba7f163c4a11628f55a4df523b3ef90611687908590614757565b6001600160a01b0383166123a85760405162461bcd60e51b8152600401610ad29061437e565b60006123b261211d565b90506123e2818560006123c487612ed8565b6123cd87612ed8565b60405180602001604052806000815250611197565b8115612418576001600160a01b038416600090815260086020526040902061240a9084612731565b50612416600984613037565b505b61245f826040518060600160405280602481526020016149d56024913960008681526005602090815260408083206001600160a01b038b1684529091529020549190612678565b60008481526005602090815260408083206001600160a01b038916845282528083209390935585825260049052205461249890836121d5565b6000848152600460205260408082209290925590516001600160a01b0386811691908416907fc3d58168c5ae7397731d063d5bbf3d657854427343f4c083240f7aacaa2d0f62906124ec90889088906147a4565b60405180910390a450505050565b6000610e4f8383613043565b6001600160a01b03831661252c5760405162461bcd60e51b8152600401610ad2906144f2565b6001600160a01b0382166125525760405162461bcd60e51b8152600401610ad290613f87565b61255d838383610e28565b6125b9816040518060600160405280602681526020016149f9602691396001600160a01b03861660009081527f1471eb6eb2c5e789fc3de43f8ce62938c7d1836ec861730447e2ada8fd81017b60205260409020549190612678565b6001600160a01b0384811660009081527f1471eb6eb2c5e789fc3de43f8ce62938c7d1836ec861730447e2ada8fd81017b60205260408082209390935590841681522054612607908261275f565b6001600160a01b0380841660008181527f1471eb6eb2c5e789fc3de43f8ce62938c7d1836ec861730447e2ada8fd81017b602052604090819020939093559151908516907fddf252ad1be2c89b69c2b068fc378daa952ba7f163c4a11628f55a4df523b3ef906121c8908590614757565b600081848411156127075760405162461bcd60e51b81526004018080602001828103825283818151815260200191508051906020019080838360005b838110156126cc5781810151838201526020016126b4565b50505050905090810190601f1680156126f95780820380516001836020036101000a031916815260200191505b509250505060405180910390fd5b505050900390565b600061271c8484846130a7565b949350505050565b6000610b00600983613134565b6000610e4f8383613140565b6000610e4f8383613206565b600061271c84846001600160a01b038516613250565b600082820183811015610e4f576040805162461bcd60e51b815260206004820152601b60248201527f536166654d6174683a206164646974696f6e206f766572666c6f770000000000604482015290519081900360640190fd5b6127cb846001600160a01b03166132e7565b15611197576040517fbc197c810000000000000000000000000000000000000000000000000000000081526001600160a01b0385169063bc197c819061281d9089908990889088908890600401613d8a565b602060405180830381600087803b15801561283757600080fd5b505af1925050508015612867575060408051601f3d908101601f1916820190925261286491810190613ba4565b60015b6128b057612873614856565b8061287e5750612898565b8060405162461bcd60e51b8152600401610ad29190613ea2565b60405162461bcd60e51b8152600401610ad290613ef3565b7fffffffff0000000000000000000000000000000000000000000000000000000081167fbc197c8100000000000000000000000000000000000000000000000000000000146129115760405162461bcd60e51b8152600401610ad290613fe4565b50505050505050565b6001600160a01b0384166129405760405162461bcd60e51b8152600401610ad2906146c3565b811580612953575061295183612724565b155b61296f5760405162461bcd60e51b8152600401610ad2906143db565b600061297961211d565b905061298b81600087611e2c88612ed8565b8260011480156129a1575061299f846132ed565b155b80156129ae575060018414155b156129e4576001600160a01b03851660009081526008602052604090206129d5908561273d565b506129e260098587612749565b505b60008481526005602090815260408083206001600160a01b0389168452909152902054612a11908461275f565b60008581526005602090815260408083206001600160a01b038a168452825280832093909355868252600490522054612a4a908461275f565b6000858152600460205260408082209290925590516001600160a01b038088169291908416907fc3d58168c5ae7397731d063d5bbf3d657854427343f4c083240f7aacaa2d0f6290612a9f90899089906147a4565b60405180910390a4612ab681600087878787612f1c565b5050505050565b600e546040517f23b872dd0000000000000000000000000000000000000000000000000000000081526000916001600160a01b0316906323b872dd90612b0b90869030908790600401613d66565b602060405180830381600087803b158015612b2557600080fd5b505af1158015612b39573d6000803e3d6000fd5b505050506040513d601f19601f82011682018060405250810190612b5d9190613b6c565b905080612b7c5760405162461bcd60e51b8152600401610ad29061418d565b601054612b89908361275f565b601055612b968383613301565b7f06239653922ac7bea6aa2b19dc486b9361821d37712eb796adfd38d81de278ca8383601054604051612bcb93929190613d45565b60405180910390a1505050565b612be0613725565b506001600160a01b0383166000908152601260209081526040918290208251808401909352805483526001015490820181905215612c305760405162461bcd60e51b8152600401610ad290614221565b601154612c3d908361275f565b6010541015612c5e5760405162461bcd60e51b8152600401610ad290614310565b6000612c6a8484612db3565b83835260208084018681526001600160a01b038816600090815260129092526040909120845181559051600190910155601154909150612caa908461275f565b601155600e546040517f23b872dd0000000000000000000000000000000000000000000000000000000081526000916001600160a01b0316906323b872dd90612cfb90899030908790600401613d66565b602060405180830381600087803b158015612d1557600080fd5b505af1158015612d29573d6000803e3d6000fd5b505050506040513d601f19601f82011682018060405250810190612d4d9190613b6c565b905080612d6c5760405162461bcd60e51b8152600401610ad29061418d565b7f1cd728a6e764ed0dcddb6e5b88d736a4a8d2a0d420ca373588f7a1109e18663f868584601154604051612da39493929190613e2b565b60405180910390a1505050505050565b6000601054612dcd8360115461275f90919063ffffffff16565b1115612deb5760405162461bcd60e51b8152600401610ad290614041565b600060105411612e0d5760405162461bcd60e51b8152600401610ad290613f50565b6000612e48601054612e426a084595161401484a000000606402612e3c8760115461275f90919063ffffffff16565b90613453565b906134ac565b905060006b024306c4097859c43c000000821015612e7057612e69826134ee565b9050612e7c565b612e7982613515565b90505b612e91816a295be96e640669720000006135b9565b90506000612ea76301e13380612e428885613453565b9050612ec36b033b2e3c9fd0803ce8000000612e428784613453565b9695505050505050565b6000610b00826135d0565b604080516001808252818301909252606091829190602080830190803683370190505090508281600081518110612f0b57fe5b602090810291909101015292915050565b612f2e846001600160a01b03166132e7565b15611197576040517ff23a6e610000000000000000000000000000000000000000000000000000000081526001600160a01b0385169063f23a6e6190612f809089908990889088908890600401613de8565b602060405180830381600087803b158015612f9a57600080fd5b505af1925050508015612fca575060408051601f3d908101601f19168201909252612fc791810190613ba4565b60015b612fd657612873614856565b7fffffffff0000000000000000000000000000000000000000000000000000000081167ff23a6e6100000000000000000000000000000000000000000000000000000000146129115760405162461bcd60e51b8152600401610ad290613fe4565b6000610e4f83836135d4565b815460009082106130855760405162461bcd60e51b815260040180806020018281038252602281526020018061496b6022913960400191505060405180910390fd5b82600001828154811061309457fe5b9060005260206000200154905092915050565b600082815260018401602052604081205482816131055760405162461bcd60e51b81526020600482018181528351602484015283519092839260449091019190850190808383600083156126cc5781810151838201526020016126b4565b5084600001600182038154811061311857fe5b9060005260206000209060020201600101549150509392505050565b6000610e4f83836136a8565b600081815260018301602052604081205480156131fc578354600019808301919081019060009087908390811061317357fe5b906000526020600020015490508087600001848154811061319057fe5b6000918252602080832090910192909255828152600189810190925260409020908401905586548790806131c057fe5b60019003818190600052602060002001600090559055866001016000878152602001908152602001600020600090556001945050505050610b00565b6000915050610b00565b600061321283836136a8565b61324857508154600181810184556000848152602080822090930184905584548482528286019093526040902091909155610b00565b506000610b00565b6000828152600184016020526040812054806132b5575050604080518082018252838152602080820184815286546001818101895560008981528481209551600290930290950191825591519082015586548684528188019092529290912055610e4f565b828560000160018303815481106132c857fe5b9060005260206000209060020201600101819055506000915050610e4f565b3b151590565b600090815260046020526040902054151590565b6001600160a01b0382166133275760405162461bcd60e51b8152600401610ad290614720565b61333360008383610e28565b6001600160a01b03821660009081527f1471eb6eb2c5e789fc3de43f8ce62938c7d1836ec861730447e2ada8fd81017b6020526040902054613375908261275f565b6001600160a01b03831660009081527f1471eb6eb2c5e789fc3de43f8ce62938c7d1836ec861730447e2ada8fd81017b6020908152604082209290925560019052600490527fabd6e7cb50984ff9c2f3e18a2660c3353dadf4e3291deeb275dae2cd1e44fe05546133e6908261275f565b6001600090815260046020527fabd6e7cb50984ff9c2f3e18a2660c3353dadf4e3291deeb275dae2cd1e44fe05919091556040516001600160a01b03841691907fddf252ad1be2c89b69c2b068fc378daa952ba7f163c4a11628f55a4df523b3ef90611687908590614757565b60008261346257506000610b00565b8282028284828161346f57fe5b0414610e4f5760405162461bcd60e51b8152600401808060200182810382526021815260200180614a736021913960400191505060405180910390fd5b6000610e4f83836040518060400160405280601a81526020017f536166654d6174683a206469766973696f6e206279207a65726f0000000000008152506136c0565b6000610b006b024306c4097859c43c000000612e42846af8277896582678ac000000613453565b60008061356861353d6b033b2e3c9fd0803ce80000006b024306c4097859c43c0000006121d5565b612e42613556866b024306c4097859c43c0000006121d5565b6a084595161401484a00000090613453565b9050610e4f6135a76a084595161401484a000000612e426135a06b04d8c55aefb8c05b5c0000006af8277896582678ac0000006121d5565b8590613453565b6af8277896582678ac0000009061275f565b6000818310156135c95781610e4f565b5090919050565b5490565b600081815260018301602052604081205480156131fc578354600019808301919081019060009087908390811061360757fe5b906000526020600020906002020190508087600001848154811061362757fe5b60009182526020808320845460029093020191825560019384015491840191909155835482528983019052604090209084019055865487908061366657fe5b6000828152602080822060026000199094019384020182815560019081018390559290935588815289820190925260408220919091559450610b009350505050565b60009081526001919091016020526040902054151590565b6000818361370f5760405162461bcd60e51b81526020600482018181528351602484015283519092839260449091019190850190808383600083156126cc5781810151838201526020016126b4565b50600083858161371b57fe5b0495945050505050565b604051806040016040528060008152602001600081525090565b600082601f83011261374f578081fd5b813561376261375d826147e4565b6147c0565b81815291506020808301908481018184028601820187101561378357600080fd5b60005b848110156137a257813584529282019290820190600101613786565b505050505092915050565b600082601f8301126137bd578081fd5b81356137cb61375d82614802565b91508082528360208285010111156137e257600080fd5b8060208401602084013760009082016020015292915050565b60006020828403121561380c578081fd5b8135610e4f81614919565b600060208284031215613828578081fd5b8151610e4f81614919565b60008060408385031215613845578081fd5b823561385081614919565b9150602083013561386081614919565b809150509250929050565b600080600080600060a08688031215613882578081fd5b853561388d81614919565b9450602086013561389d81614919565b9350604086013567ffffffffffffffff808211156138b9578283fd5b6138c589838a0161373f565b945060608801359150808211156138da578283fd5b6138e689838a0161373f565b935060808801359150808211156138fb578283fd5b50613908888289016137ad565b9150509295509295909350565b600080600060608486031215613929578283fd5b833561393481614919565b9250602084013561394481614919565b929592945050506040919091013590565b600080600080600060a0868803121561396c578081fd5b853561397781614919565b9450602086013561398781614919565b93506040860135925060608601359150608086013567ffffffffffffffff8111156139b0578182fd5b613908888289016137ad565b600080604083850312156139ce578182fd5b82356139d981614919565b915060208301356138608161492e565b600080604083850312156139fb578182fd5b8235613a0681614919565b946020939093013593505050565b600080600060608486031215613a28578283fd5b8335613a3381614919565b95602085013595506040909401359392505050565b60008060008060808587031215613a5d578182fd5b8435613a6881614919565b93506020850135925060408501359150606085013567ffffffffffffffff811115613a91578182fd5b613a9d878288016137ad565b91505092959194509250565b60008060408385031215613abb578182fd5b823567ffffffffffffffff80821115613ad2578384fd5b818501915085601f830112613ae5578384fd5b8135613af361375d826147e4565b80828252602080830192508086018a828387028901011115613b13578889fd5b8896505b84871015613b3e578035613b2a81614919565b845260019690960195928101928101613b17565b509096508701359350505080821115613b55578283fd5b50613b628582860161373f565b9150509250929050565b600060208284031215613b7d578081fd5b8151610e4f8161492e565b600060208284031215613b99578081fd5b8135610e4f8161493c565b600060208284031215613bb5578081fd5b8151610e4f8161493c565b600060208284031215613bd1578081fd5b815167ffffffffffffffff811115613be7578182fd5b8201601f81018413613bf7578182fd5b8051613c0561375d82614802565b818152856020838501011115613c19578384fd5b613c2a826020830160208601614824565b95945050505050565b600060208284031215613c44578081fd5b5035919050565b60008060408385031215613c5d578182fd5b50508035926020909101359150565b6000815180845260208085019450808401835b83811015613ca45781516001600160a01b031687529582019590820190600101613c7f565b509495945050505050565b6000815180845260208085019450808401835b83811015613ca457815187529582019590820190600101613cc2565b60008151808452613cf6816020860160208601614824565b601f01601f19169290920160200192915050565b60048110613d1457fe5b9052565b6001600160a01b0391909116815260200190565b6001600160a01b03929092168252602082015260400190565b6001600160a01b039390931683526020830191909152604082015260600190565b6001600160a01b039384168152919092166020820152604081019190915260600190565b60006001600160a01b03808816835280871660208401525060a06040830152613db660a0830186613caf565b8281036060840152613dc88186613caf565b90508281036080840152613ddc8185613cde565b98975050505050505050565b60006001600160a01b03808816835280871660208401525084604083015283606083015260a06080830152613e2060a0830184613cde565b979650505050505050565b6001600160a01b0394909416845260208401929092526040830152606082015260800190565b600060208252610e4f6020830184613caf565b600060408252613e776040830185613caf565b8281036020840152613c2a8185613caf565b901515815260200190565b60208101610b008284613d0a565b600060208252610e4f6020830184613cde565b600060a08252613ec860a0830188613cde565b9050613ed76020830187613d0a565b8460408301528360608301528260808301529695505050505050565b60208082526034908201527f455243313135353a207472616e7366657220746f206e6f6e204552433131353560408201527f526563656976657220696d706c656d656e746572000000000000000000000000606082015260800190565b60208082526011908201527f54686520706f6f6c20697320656d707479000000000000000000000000000000604082015260600190565b60208082526023908201527f45524332303a207472616e7366657220746f20746865207a65726f206164647260408201527f6573730000000000000000000000000000000000000000000000000000000000606082015260800190565b60208082526028908201527f455243313135353a204552433131353552656365697665722072656a6563746560408201527f6420746f6b656e73000000000000000000000000000000000000000000000000606082015260800190565b6020808252818101527f526571756972696e67206d6f7265207468616e20746865726520657869737473604082015260600190565b6020808252602b908201527f455243313135353a2062616c616e636520717565727920666f7220746865207a60408201527f65726f2061646472657373000000000000000000000000000000000000000000606082015260800190565b60208082526031908201527f455243313135353a2062617463682062616c616e636520717565727920666f7260408201527f20746865207a65726f2061646472657373000000000000000000000000000000606082015260800190565b60208082526022908201527f45524332303a20617070726f766520746f20746865207a65726f20616464726560408201527f7373000000000000000000000000000000000000000000000000000000000000606082015260800190565b6020808252601d908201527f4661696c656420746f207472616e736665722044414920746f6b656e73000000604082015260600190565b60208082526029908201527f455243313135353a2063616c6c6572206973206e6f74206f776e6572206e6f7260408201527f20617070726f7665640000000000000000000000000000000000000000000000606082015260800190565b6020808252818101527f54686520706f6c69637920686f6c64657220616c726561647920657869737473604082015260600190565b60208082526025908201527f455243313135353a207472616e7366657220746f20746865207a65726f20616460408201527f6472657373000000000000000000000000000000000000000000000000000000606082015260800190565b60208082526032908201527f455243313135353a207472616e736665722063616c6c6572206973206e6f742060408201527f6f776e6572206e6f7220617070726f7665640000000000000000000000000000606082015260800190565b6020808252601e908201527f4e6f7420656e6f75676820617661696c61626c65206c69717569646974790000604082015260600190565b6020808252601c908201527f4661696c656420746f20617070726f76652044414920746f6b656e7300000000604082015260600190565b60208082526023908201527f455243313135353a206275726e2066726f6d20746865207a65726f206164647260408201527f6573730000000000000000000000000000000000000000000000000000000000606082015260800190565b60208082526021908201527f455243313135353a204e465420746f6b656e20616c7265616479206d696e746560408201527f6400000000000000000000000000000000000000000000000000000000000000606082015260800190565b6020808252603f908201527f54686520616d6f756e7420746f2062652077697468647261776e20697320677260408201527f6561746572207468616e20746865206465706f736974656420616d6f756e7400606082015260800190565b60208082526021908201527f45524332303a206275726e2066726f6d20746865207a65726f2061646472657360408201527f7300000000000000000000000000000000000000000000000000000000000000606082015260800190565b60208082526025908201527f45524332303a207472616e736665722066726f6d20746865207a65726f20616460408201527f6472657373000000000000000000000000000000000000000000000000000000606082015260800190565b60208082526024908201527f45524332303a20617070726f76652066726f6d20746865207a65726f2061646460408201527f7265737300000000000000000000000000000000000000000000000000000000606082015260800190565b60208082526029908201527f455243313135353a2073657474696e6720617070726f76616c2073746174757360408201527f20666f722073656c660000000000000000000000000000000000000000000000606082015260800190565b60208082526029908201527f455243313135353a206163636f756e747320616e6420696473206c656e67746860408201527f206d69736d617463680000000000000000000000000000000000000000000000606082015260800190565b60208082526028908201527f455243313135353a2069647320616e6420616d6f756e7473206c656e6774682060408201527f6d69736d61746368000000000000000000000000000000000000000000000000606082015260800190565b60208082526021908201527f455243313135353a206d696e7420746f20746865207a65726f2061646472657360408201527f7300000000000000000000000000000000000000000000000000000000000000606082015260800190565b6020808252601f908201527f45524332303a206d696e7420746f20746865207a65726f206164647265737300604082015260600190565b90815260200190565b60008382526040602083015261271c6040830184613c6c565b6000848252606060208301526147926060830185613c6c565b8281036040840152612ec38185613caf565b918252602082015260400190565b60ff91909116815260200190565b60405181810167ffffffffffffffff811182821017156147dc57fe5b604052919050565b600067ffffffffffffffff8211156147f857fe5b5060209081020190565b600067ffffffffffffffff82111561481657fe5b50601f01601f191660200190565b60005b8381101561483f578181015183820152602001614827565b8381111561126c5750506000910152565b60e01c90565b600060443d101561486657610da8565b600481823e6308c379a061487a8251614850565b1461488457610da8565b6040517ffffffffffffffffffffffffffffffffffffffffffffffffffffffffffffffffc3d016004823e80513d67ffffffffffffffff81602484011181841117156148d25750505050610da8565b828401925082519150808211156148ec5750505050610da8565b503d8301602082840101111561490457505050610da8565b601f01601f1916810160200160405291505090565b6001600160a01b03811681146113cb57600080fd5b80151581146113cb57600080fd5b7fffffffff00000000000000000000000000000000000000000000000000000000811681146113cb57600080fdfe456e756d657261626c655365743a20696e646578206f7574206f6620626f756e647345524332303a206275726e20616d6f756e7420657863656564732062616c616e63654f776e61626c653a206e6577206f776e657220697320746865207a65726f2061646472657373455243313135353a206275726e20616d6f756e7420657863656564732062616c616e636545524332303a207472616e7366657220616d6f756e7420657863656564732062616c616e6365455243313135353a206f776e657220717565727920666f72206e6f6e6578697374656e7420746f6b656e455243313135353a20696e73756666696369656e742062616c616e636520666f72207472616e73666572536166654d6174683a206d756c7469706c69636174696f6e206f766572666c6f7745524332303a207472616e7366657220616d6f756e74206578636565647320616c6c6f77616e636545524332303a2064656372656173656420616c6c6f77616e63652062656c6f77207a65726fa26469706673582212204b4d2c6c20e99ea03bdde911b7680a8acd4d1f3dce8ea4a0c77bd284d832824364736f6c63430007040033",
  "immutableReferences": {},
  "source": "// SPDX-License-Identifier: MIT\npragma solidity ^0.7.4;\npragma experimental ABIEncoderV2;\n\nimport \"../PolicyBook.sol\";\n\ncontract PolicyBookMock is PolicyBook {\n  constructor(address _insuranceContract, IPolicyBookFabric.ContractType _contractType)\n    PolicyBook(_insuranceContract, _contractType, \"\", \"\") {}\n\n  function setTotalLiquidity(uint256 _daiInThePoolTotal) public {\n    totalLiquidity = _daiInThePoolTotal;\n  }\n\n  function setTotalCoverTokens(uint256 _daiInThePoolBought) public {\n    totalCoverTokens = _daiInThePoolBought;\n  }\n}\n",
  "sourcePath": "/home/artem/Projects/Distributed_Lab/Applicature/bridgemutual-core/contracts/mock/PolicyBookMock.sol",
  "compiler": {
    "name": "solc",
    "version": "0.7.4+commit.3f05b770.Emscripten.clang"
  },
  "schemaVersion": "3.3.3",
  "updatedAt": "2021-01-26T15:28:29.610Z",
  "devdoc": {
    "kind": "dev",
    "methods": {
      "addLiquidity(uint256)": {
        "params": {
          "_liqudityAmount": "is amount of DAI tokens to secure"
        }
      },
      "addLiquidityFor(address,uint256)": {
        "params": {
          "_liqudityAmount": "is amount of DAI tokens to secure",
          "_liquidityHolderAddr": "is address of address to assign cover"
        }
      },
      "addShieldTokens(address,uint256)": {
        "params": {
          "_tokenAddress": "is address of reward token to add",
          "_tokensAmount": "is max amount of reward to operate on"
        },
        "returns": {
          "_success": "is indicator if purchase is successful, it will throw exception if unsuccessful"
        }
      },
      "balanceOf(address,uint256)": {
        "details": "Returns the amount of tokens of token type `id` owned by `account`. Requirements: - `account` cannot be the zero address."
      },
      "balanceOfBatch(address[],uint256[])": {
        "details": "xref:ROOT:erc1155.adoc#batch-operations[Batched] version of {balanceOf}. Requirements: - `accounts` and `ids` must have the same length."
      },
      "buyPolicy(uint256,uint256)": {
        "params": {
          "_coverTokens": "is number of tokens to cover  ",
          "_durationSeconds": "is number of seconds to cover"
        }
      },
      "buyPolicyFor(address,uint256,uint256)": {
        "params": {
          "_coverTokens": "is number of tokens to cover  ",
          "_durationSeconds": "is number of seconds to cover",
          "_policyHolderAddr": "is address of address to assign cover"
        }
      },
      "getQuote(uint256,uint256)": {
        "params": {
          "_durationSeconds": "is number of seconds to cover",
          "_tokens": "is number of tokens to cover"
        },
        "returns": {
          "_daiTokens": "is amount of DAI policy costs"
        }
      },
      "isApprovedForAll(address,address)": {
        "details": "Returns true if `operator` is approved to transfer ``account``'s tokens. See {setApprovalForAll}."
      },
      "owner()": {
        "details": "Returns the address of the current owner."
      },
      "quoteStrategy()": {
        "returns": {
          "_quoteStrategy": "is address of Quote strategy contract used to calculate quote"
        }
      },
      "renounceOwnership()": {
        "details": "Leaves the contract without owner. It will not be possible to call `onlyOwner` functions anymore. Can only be called by the current owner. NOTE: Renouncing ownership will leave the contract without an owner, thereby removing any functionality that is only available to the owner."
      },
      "rewardForUnclaimedExpiredPolicy(uint256)": {
        "params": {
          "_policyId": "is id of policy to get reward for, reward will be sent to policy holder"
        }
      },
      "safeBatchTransferFrom(address,address,uint256[],uint256[],bytes)": {
        "details": "xref:ROOT:erc1155.adoc#batch-operations[Batched] version of {safeTransferFrom}. Emits a {TransferBatch} event. Requirements: - `ids` and `amounts` must have the same length. - If `to` refers to a smart contract, it must implement {IERC1155Receiver-onERC1155BatchReceived} and return the acceptance magic value."
      },
      "safeTransferFrom(address,address,uint256,uint256,bytes)": {
        "details": "Transfers `amount` tokens of token type `id` from `from` to `to`. Emits a {TransferSingle} event. Requirements: - `to` cannot be the zero address. - If the caller is not `from`, it must be have been approved to spend ``from``'s tokens via {setApprovalForAll}. - `from` must have a balance of tokens of type `id` of at least `amount`. - If `to` refers to a smart contract, it must implement {IERC1155Receiver-onERC1155Received} and return the acceptance magic value."
      },
      "setApprovalForAll(address,bool)": {
        "details": "Grants or revokes permission to `operator` to transfer the caller's tokens, according to `approved`, Emits an {ApprovalForAll} event. Requirements: - `operator` cannot be the caller."
      },
      "shieldAssets(uint256,uint256)": {
        "params": {
          "_limit": "is number of policy books to returns from _offset",
          "_offset": "is starting item in array to return array from"
        },
        "returns": {
          "_shieldAssets": "is addresses of shield assets, that will be distributed to Policy givers",
          "_shieldAssetsCount": "is number of added shield assets"
        }
      },
      "shieldAssetsCount()": {
        "returns": {
          "_shieldAssetsCount": "is number of added shield assets"
        }
      },
      "shieldAssetsWithBalance(uint256,uint256)": {
        "params": {
          "_limit": "is number of policy books to returns from _offset",
          "_offset": "is starting item in array to return array from"
        },
        "returns": {
          "_shieldAssetBalance": "is tokens amount of shield assets allocated to Policy Book,  to get specific shield asset balance lookup _shieldAssetBalances by same index as of shield asset",
          "_shieldAssets": "is addresses of shield assets, that will be distributed to Policy givers",
          "_shieldAssetsCount": "is number of added shield assets"
        }
      },
      "stats()": {
        "returns": {
          "_annualProfitYields": "is its APY",
          "_contractType": "is a type of insured contract",
          "_maxCapacities": "is a max token amount that a user can buy",
          "_name": "is the name of PolicyBook",
          "_totalDaiLiquidity": "is PolicyBook's liquidity"
        }
      },
      "supportsInterface(bytes4)": {
        "details": "See {IERC165-supportsInterface}. Time complexity O(1), guaranteed to always use less than 30 000 gas."
      },
      "transferFrom(address,address,uint256)": {
        "details": "Moves `amount` tokens from `sender` to `recipient` using the allowance mechanism. `amount` is then deducted from the caller's allowance. Returns a boolean value indicating whether the operation succeeded. Emits a {Transfer} event."
      },
      "transferOwnership(address)": {
        "details": "Transfers ownership of the contract to a new account (`newOwner`). Can only be called by the current owner."
      },
      "withdrawLiquidity(uint256)": {
        "params": {
          "_tokensToWithdraw": "is amount of DAI tokens to withdraw"
        }
      }
    },
    "version": 1
  },
  "userdoc": {
    "kind": "user",
    "methods": {
      "addLiquidity(uint256)": {
        "notice": "Let user to add liquidity by supplying DAI, access: ANY"
      },
      "addLiquidityFor(address,uint256)": {
        "notice": "Let user to add liqiudity for another user by supplying DAI, access: ANY"
      },
      "addShieldTokens(address,uint256)": {
        "notice": "Adds shield tokens to contract, access: ANY"
      },
      "allowance(address,address)": {
        "notice": "From ERC20"
      },
      "approve(address,uint256)": {
        "notice": "From ERC20"
      },
      "balanceOf(address)": {
        "notice": "From ERC20"
      },
      "buyPolicy(uint256,uint256)": {
        "notice": "Let user to buy policy by supplying DAI, access: ANY"
      },
      "buyPolicyFor(address,uint256,uint256)": {
        "notice": "Let user to buy policy for another user by supplying DAI, access: ANY"
      },
      "contractType()": {
        "notice": "Returns type of contract this PolicyBook covers, access: ANY"
      },
      "decreaseAllowance(address,uint256)": {
        "notice": "From ERC20"
      },
      "getQuote(uint256,uint256)": {
        "notice": "Let user to calculate policy cost in DAI, access: ANY"
      },
      "increaseAllowance(address,uint256)": {
        "notice": "From ERC20"
      },
      "insuranceContractAddress()": {
        "notice": "Returns address of contract this PolicyBook covers, access: ANY"
      },
      "quoteStrategy()": {
        "notice": "Returns quote strategy defined during creation of PolicyBook, access: ANY"
      },
      "rewardForUnclaimedExpiredPolicy(uint256)": {
        "notice": "Let user to claim rewards for unclaimed policy cost in DAI, access: ANY"
      },
      "shieldAssets(uint256,uint256)": {
        "notice": "Returns list of shield assets added to PolicyBook, access: ANY"
      },
      "shieldAssetsCount()": {
        "notice": "Returns number of shield assets added, access: ANY"
      },
      "shieldAssetsWithBalance(uint256,uint256)": {
        "notice": "Returns list of shield assets added with tokens amount allocated to Policy Book, access: ANY"
      },
      "stats()": {
        "notice": "Getting stats, access: ANY"
      },
      "totalSupply()": {
        "notice": "From ERC20"
      },
      "transfer(address,uint256)": {
        "notice": "From ERC20"
      },
      "transferNFTMintingAndBurningOwnershipToStaking()": {
        "notice": "Should be called after initRegistry() and approveAllDaiTokensForStaking()"
      },
      "withdrawLiquidity(uint256)": {
        "notice": "Let user to withdraw deposited liqiudity, access: ANY"
      }
    },
    "version": 1
  }
}