{
  "contractName": "PolicyBookMock",
  "abi": [
    {
      "inputs": [
        {
          "internalType": "address",
          "name": "_insuranceContract",
          "type": "address"
        },
        {
          "internalType": "enum IPolicyBookFabric.ContractType",
          "name": "_contractType",
          "type": "uint8"
        }
      ],
      "stateMutability": "nonpayable",
      "type": "constructor"
    },
    {
      "anonymous": false,
      "inputs": [
        {
          "indexed": false,
          "internalType": "address",
          "name": "_liquidityHolder",
          "type": "address"
        },
        {
          "indexed": false,
          "internalType": "uint256",
          "name": "_liqudityAmount",
          "type": "uint256"
        },
        {
          "indexed": false,
          "internalType": "uint256",
          "name": "_newTotalLiquidity",
          "type": "uint256"
        }
      ],
      "name": "AddLiquidity",
      "type": "event"
    },
    {
      "anonymous": false,
      "inputs": [
        {
          "indexed": true,
          "internalType": "address",
          "name": "owner",
          "type": "address"
        },
        {
          "indexed": true,
          "internalType": "address",
          "name": "spender",
          "type": "address"
        },
        {
          "indexed": false,
          "internalType": "uint256",
          "name": "value",
          "type": "uint256"
        }
      ],
      "name": "Approval",
      "type": "event"
    },
    {
      "anonymous": false,
      "inputs": [
        {
          "indexed": true,
          "internalType": "address",
          "name": "account",
          "type": "address"
        },
        {
          "indexed": true,
          "internalType": "address",
          "name": "operator",
          "type": "address"
        },
        {
          "indexed": false,
          "internalType": "bool",
          "name": "approved",
          "type": "bool"
        }
      ],
      "name": "ApprovalForAll",
      "type": "event"
    },
    {
      "anonymous": false,
      "inputs": [
        {
          "indexed": false,
          "internalType": "address",
          "name": "_policyHolder",
          "type": "address"
        },
        {
          "indexed": false,
          "internalType": "uint256",
          "name": "_coverTokens",
          "type": "uint256"
        },
        {
          "indexed": false,
          "internalType": "uint256",
          "name": "_price",
          "type": "uint256"
        },
        {
          "indexed": false,
          "internalType": "uint256",
          "name": "_newTotalCoverTokens",
          "type": "uint256"
        }
      ],
      "name": "BuyPolicy",
      "type": "event"
    },
    {
      "anonymous": false,
      "inputs": [
        {
          "indexed": true,
          "internalType": "address",
          "name": "previousOwner",
          "type": "address"
        },
        {
          "indexed": true,
          "internalType": "address",
          "name": "newOwner",
          "type": "address"
        }
      ],
      "name": "OwnershipTransferred",
      "type": "event"
    },
    {
      "anonymous": false,
      "inputs": [
        {
          "indexed": true,
          "internalType": "address",
          "name": "from",
          "type": "address"
        },
        {
          "indexed": true,
          "internalType": "address",
          "name": "to",
          "type": "address"
        },
        {
          "indexed": false,
          "internalType": "uint256",
          "name": "value",
          "type": "uint256"
        }
      ],
      "name": "Transfer",
      "type": "event"
    },
    {
      "anonymous": false,
      "inputs": [
        {
          "indexed": true,
          "internalType": "address",
          "name": "operator",
          "type": "address"
        },
        {
          "indexed": true,
          "internalType": "address",
          "name": "from",
          "type": "address"
        },
        {
          "indexed": true,
          "internalType": "address",
          "name": "to",
          "type": "address"
        },
        {
          "indexed": false,
          "internalType": "uint256[]",
          "name": "ids",
          "type": "uint256[]"
        },
        {
          "indexed": false,
          "internalType": "uint256[]",
          "name": "values",
          "type": "uint256[]"
        }
      ],
      "name": "TransferBatch",
      "type": "event"
    },
    {
      "anonymous": false,
      "inputs": [
        {
          "indexed": true,
          "internalType": "address",
          "name": "operator",
          "type": "address"
        },
        {
          "indexed": true,
          "internalType": "address",
          "name": "from",
          "type": "address"
        },
        {
          "indexed": true,
          "internalType": "address",
          "name": "to",
          "type": "address"
        },
        {
          "indexed": false,
          "internalType": "uint256",
          "name": "id",
          "type": "uint256"
        },
        {
          "indexed": false,
          "internalType": "uint256",
          "name": "value",
          "type": "uint256"
        }
      ],
      "name": "TransferSingle",
      "type": "event"
    },
    {
      "anonymous": false,
      "inputs": [
        {
          "indexed": false,
          "internalType": "string",
          "name": "value",
          "type": "string"
        },
        {
          "indexed": true,
          "internalType": "uint256",
          "name": "id",
          "type": "uint256"
        }
      ],
      "name": "URI",
      "type": "event"
    },
    {
      "anonymous": false,
      "inputs": [
        {
          "indexed": false,
          "internalType": "address",
          "name": "_liquidityHolder",
          "type": "address"
        },
        {
          "indexed": false,
          "internalType": "uint256",
          "name": "_tokensToWithdraw",
          "type": "uint256"
        },
        {
          "indexed": false,
          "internalType": "uint256",
          "name": "_newTotalLiquidity",
          "type": "uint256"
        }
      ],
      "name": "WithdrawLiquidity",
      "type": "event"
    },
    {
      "inputs": [],
      "name": "MAXIMUM_COST_100_UTILIZATION_PERCENTAGE",
      "outputs": [
        {
          "internalType": "uint256",
          "name": "",
          "type": "uint256"
        }
      ],
      "stateMutability": "view",
      "type": "function"
    },
    {
      "inputs": [],
      "name": "MAXIMUM_COST_NOT_RISKY_PERCENTAGE",
      "outputs": [
        {
          "internalType": "uint256",
          "name": "",
          "type": "uint256"
        }
      ],
      "stateMutability": "view",
      "type": "function"
    },
    {
      "inputs": [],
      "name": "MINIMUM_COST_PERCENTAGE",
      "outputs": [
        {
          "internalType": "uint256",
          "name": "",
          "type": "uint256"
        }
      ],
      "stateMutability": "view",
      "type": "function"
    },
    {
      "inputs": [],
      "name": "PERCENTAGE_100",
      "outputs": [
        {
          "internalType": "uint256",
          "name": "",
          "type": "uint256"
        }
      ],
      "stateMutability": "view",
      "type": "function"
    },
    {
      "inputs": [],
      "name": "PRECISION",
      "outputs": [
        {
          "internalType": "uint256",
          "name": "",
          "type": "uint256"
        }
      ],
      "stateMutability": "view",
      "type": "function"
    },
    {
      "inputs": [],
      "name": "RISKY_ASSET_THRESHOLD_PERCENTAGE",
      "outputs": [
        {
          "internalType": "uint256",
          "name": "",
          "type": "uint256"
        }
      ],
      "stateMutability": "view",
      "type": "function"
    },
    {
      "inputs": [],
      "name": "SECONDS_IN_THE_YEAR",
      "outputs": [
        {
          "internalType": "uint256",
          "name": "",
          "type": "uint256"
        }
      ],
      "stateMutability": "view",
      "type": "function"
    },
    {
      "inputs": [
        {
          "internalType": "uint256",
          "name": "_liqudityAmount",
          "type": "uint256"
        }
      ],
      "name": "addLiquidity",
      "outputs": [],
      "stateMutability": "nonpayable",
      "type": "function"
    },
    {
      "inputs": [
        {
          "internalType": "address",
          "name": "_liquidityHolderAddr",
          "type": "address"
        },
        {
          "internalType": "uint256",
          "name": "_liqudityAmount",
          "type": "uint256"
        }
      ],
      "name": "addLiquidityFor",
      "outputs": [],
      "stateMutability": "nonpayable",
      "type": "function"
    },
    {
      "inputs": [
        {
          "internalType": "address",
          "name": "_tokenAddress",
          "type": "address"
        },
        {
          "internalType": "uint256",
          "name": "_tokensAmount",
          "type": "uint256"
        }
      ],
      "name": "addShieldTokens",
      "outputs": [
        {
          "internalType": "bool",
          "name": "_success",
          "type": "bool"
        }
      ],
      "stateMutability": "nonpayable",
      "type": "function"
    },
    {
      "inputs": [
        {
          "internalType": "address",
          "name": "owner",
          "type": "address"
        },
        {
          "internalType": "address",
          "name": "spender",
          "type": "address"
        }
      ],
      "name": "allowance",
      "outputs": [
        {
          "internalType": "uint256",
          "name": "",
          "type": "uint256"
        }
      ],
      "stateMutability": "view",
      "type": "function"
    },
    {
      "inputs": [
        {
          "internalType": "address",
          "name": "spender",
          "type": "address"
        },
        {
          "internalType": "uint256",
          "name": "amount",
          "type": "uint256"
        }
      ],
      "name": "approve",
      "outputs": [
        {
          "internalType": "bool",
          "name": "",
          "type": "bool"
        }
      ],
      "stateMutability": "nonpayable",
      "type": "function"
    },
    {
      "inputs": [],
      "name": "approveAllDaiTokensForStakingAndTransferOwnership",
      "outputs": [],
      "stateMutability": "nonpayable",
      "type": "function"
    },
    {
      "inputs": [
        {
          "internalType": "address",
          "name": "account",
          "type": "address"
        },
        {
          "internalType": "uint256",
          "name": "id",
          "type": "uint256"
        }
      ],
      "name": "balanceOf",
      "outputs": [
        {
          "internalType": "uint256",
          "name": "",
          "type": "uint256"
        }
      ],
      "stateMutability": "view",
      "type": "function"
    },
    {
      "inputs": [
        {
          "internalType": "address",
          "name": "account",
          "type": "address"
        }
      ],
      "name": "balanceOf",
      "outputs": [
        {
          "internalType": "uint256",
          "name": "",
          "type": "uint256"
        }
      ],
      "stateMutability": "view",
      "type": "function"
    },
    {
      "inputs": [
        {
          "internalType": "address[]",
          "name": "accounts",
          "type": "address[]"
        },
        {
          "internalType": "uint256[]",
          "name": "ids",
          "type": "uint256[]"
        }
      ],
      "name": "balanceOfBatch",
      "outputs": [
        {
          "internalType": "uint256[]",
          "name": "",
          "type": "uint256[]"
        }
      ],
      "stateMutability": "view",
      "type": "function"
    },
    {
      "inputs": [
        {
          "internalType": "address",
          "name": "owner",
          "type": "address"
        }
      ],
      "name": "balanceOfNFT",
      "outputs": [
        {
          "internalType": "uint256",
          "name": "",
          "type": "uint256"
        }
      ],
      "stateMutability": "view",
      "type": "function"
    },
    {
      "inputs": [],
      "name": "bmiDaiStakingAddress",
      "outputs": [
        {
          "internalType": "address",
          "name": "",
          "type": "address"
        }
      ],
      "stateMutability": "view",
      "type": "function"
    },
    {
      "inputs": [
        {
          "internalType": "address",
          "name": "account",
          "type": "address"
        },
        {
          "internalType": "uint256",
          "name": "id",
          "type": "uint256"
        },
        {
          "internalType": "uint256",
          "name": "amount",
          "type": "uint256"
        }
      ],
      "name": "burnNFT",
      "outputs": [],
      "stateMutability": "nonpayable",
      "type": "function"
    },
    {
      "inputs": [
        {
          "internalType": "uint256",
          "name": "_durationSeconds",
          "type": "uint256"
        },
        {
          "internalType": "uint256",
          "name": "_coverTokens",
          "type": "uint256"
        }
      ],
      "name": "buyPolicy",
      "outputs": [],
      "stateMutability": "nonpayable",
      "type": "function"
    },
    {
      "inputs": [
        {
          "internalType": "address",
          "name": "_policyHolderAddr",
          "type": "address"
        },
        {
          "internalType": "uint256",
          "name": "_durationSeconds",
          "type": "uint256"
        },
        {
          "internalType": "uint256",
          "name": "_coverTokens",
          "type": "uint256"
        }
      ],
      "name": "buyPolicyFor",
      "outputs": [],
      "stateMutability": "nonpayable",
      "type": "function"
    },
    {
      "inputs": [],
      "name": "contractType",
      "outputs": [
        {
          "internalType": "enum IPolicyBookFabric.ContractType",
          "name": "",
          "type": "uint8"
        }
      ],
      "stateMutability": "view",
      "type": "function"
    },
    {
      "inputs": [],
      "name": "contractsRegistry",
      "outputs": [
        {
          "internalType": "contract ContractsRegistry",
          "name": "",
          "type": "address"
        }
      ],
      "stateMutability": "view",
      "type": "function"
    },
    {
      "inputs": [],
      "name": "daiToken",
      "outputs": [
        {
          "internalType": "contract IERC20",
          "name": "",
          "type": "address"
        }
      ],
      "stateMutability": "view",
      "type": "function"
    },
    {
      "inputs": [],
      "name": "decimals",
      "outputs": [
        {
          "internalType": "uint8",
          "name": "",
          "type": "uint8"
        }
      ],
      "stateMutability": "view",
      "type": "function"
    },
    {
      "inputs": [
        {
          "internalType": "address",
          "name": "spender",
          "type": "address"
        },
        {
          "internalType": "uint256",
          "name": "subtractedValue",
          "type": "uint256"
        }
      ],
      "name": "decreaseAllowance",
      "outputs": [
        {
          "internalType": "bool",
          "name": "",
          "type": "bool"
        }
      ],
      "stateMutability": "nonpayable",
      "type": "function"
    },
    {
      "inputs": [
        {
          "internalType": "uint256",
          "name": "_durationSeconds",
          "type": "uint256"
        },
        {
          "internalType": "uint256",
          "name": "_tokens",
          "type": "uint256"
        }
      ],
      "name": "getQuote",
      "outputs": [
        {
          "internalType": "uint256",
          "name": "_daiTokens",
          "type": "uint256"
        }
      ],
      "stateMutability": "view",
      "type": "function"
    },
    {
      "inputs": [
        {
          "internalType": "address",
          "name": "spender",
          "type": "address"
        },
        {
          "internalType": "uint256",
          "name": "addedValue",
          "type": "uint256"
        }
      ],
      "name": "increaseAllowance",
      "outputs": [
        {
          "internalType": "bool",
          "name": "",
          "type": "bool"
        }
      ],
      "stateMutability": "nonpayable",
      "type": "function"
    },
    {
      "inputs": [
        {
          "internalType": "contract ContractsRegistry",
          "name": "_contractsRegistry",
          "type": "address"
        }
      ],
      "name": "initRegistry",
      "outputs": [],
      "stateMutability": "nonpayable",
      "type": "function"
    },
    {
      "inputs": [],
      "name": "insuranceContractAddress",
      "outputs": [
        {
          "internalType": "address",
          "name": "",
          "type": "address"
        }
      ],
      "stateMutability": "view",
      "type": "function"
    },
    {
      "inputs": [
        {
          "internalType": "address",
          "name": "account",
          "type": "address"
        },
        {
          "internalType": "address",
          "name": "operator",
          "type": "address"
        }
      ],
      "name": "isApprovedForAll",
      "outputs": [
        {
          "internalType": "bool",
          "name": "",
          "type": "bool"
        }
      ],
      "stateMutability": "view",
      "type": "function"
    },
    {
      "inputs": [
        {
          "internalType": "address",
          "name": "account",
          "type": "address"
        },
        {
          "internalType": "uint256",
          "name": "id",
          "type": "uint256"
        },
        {
          "internalType": "uint256",
          "name": "amount",
          "type": "uint256"
        },
        {
          "internalType": "bytes",
          "name": "data",
          "type": "bytes"
        }
      ],
      "name": "mintNFT",
      "outputs": [],
      "stateMutability": "nonpayable",
      "type": "function"
    },
    {
      "inputs": [],
      "name": "name",
      "outputs": [
        {
          "internalType": "string",
          "name": "",
          "type": "string"
        }
      ],
      "stateMutability": "view",
      "type": "function"
    },
    {
      "inputs": [],
      "name": "owner",
      "outputs": [
        {
          "internalType": "address",
          "name": "",
          "type": "address"
        }
      ],
      "stateMutability": "view",
      "type": "function"
    },
    {
      "inputs": [
        {
          "internalType": "uint256",
          "name": "tokenId",
          "type": "uint256"
        }
      ],
      "name": "ownerOfNFT",
      "outputs": [
        {
          "internalType": "address",
          "name": "",
          "type": "address"
        }
      ],
      "stateMutability": "view",
      "type": "function"
    },
    {
      "inputs": [
        {
          "internalType": "address",
          "name": "",
          "type": "address"
        }
      ],
      "name": "policyHolders",
      "outputs": [
        {
          "internalType": "uint256",
          "name": "coverTokens",
          "type": "uint256"
        },
        {
          "internalType": "uint256",
          "name": "durationSeconds",
          "type": "uint256"
        }
      ],
      "stateMutability": "view",
      "type": "function"
    },
    {
      "inputs": [],
      "name": "quoteStrategy",
      "outputs": [
        {
          "internalType": "address",
          "name": "_quoteStrategy",
          "type": "address"
        }
      ],
      "stateMutability": "view",
      "type": "function"
    },
    {
      "inputs": [],
      "name": "renounceOwnership",
      "outputs": [],
      "stateMutability": "nonpayable",
      "type": "function"
    },
    {
      "inputs": [
        {
          "internalType": "uint256",
          "name": "_policyId",
          "type": "uint256"
        }
      ],
      "name": "rewardForUnclaimedExpiredPolicy",
      "outputs": [],
      "stateMutability": "nonpayable",
      "type": "function"
    },
    {
      "inputs": [
        {
          "internalType": "address",
          "name": "from",
          "type": "address"
        },
        {
          "internalType": "address",
          "name": "to",
          "type": "address"
        },
        {
          "internalType": "uint256[]",
          "name": "ids",
          "type": "uint256[]"
        },
        {
          "internalType": "uint256[]",
          "name": "amounts",
          "type": "uint256[]"
        },
        {
          "internalType": "bytes",
          "name": "data",
          "type": "bytes"
        }
      ],
      "name": "safeBatchTransferFrom",
      "outputs": [],
      "stateMutability": "nonpayable",
      "type": "function"
    },
    {
      "inputs": [
        {
          "internalType": "address",
          "name": "from",
          "type": "address"
        },
        {
          "internalType": "address",
          "name": "to",
          "type": "address"
        },
        {
          "internalType": "uint256",
          "name": "id",
          "type": "uint256"
        },
        {
          "internalType": "uint256",
          "name": "amount",
          "type": "uint256"
        },
        {
          "internalType": "bytes",
          "name": "data",
          "type": "bytes"
        }
      ],
      "name": "safeTransferFrom",
      "outputs": [],
      "stateMutability": "nonpayable",
      "type": "function"
    },
    {
      "inputs": [
        {
          "internalType": "address",
          "name": "operator",
          "type": "address"
        },
        {
          "internalType": "bool",
          "name": "approved",
          "type": "bool"
        }
      ],
      "name": "setApprovalForAll",
      "outputs": [],
      "stateMutability": "nonpayable",
      "type": "function"
    },
    {
      "inputs": [
        {
          "internalType": "uint256",
          "name": "_offset",
          "type": "uint256"
        },
        {
          "internalType": "uint256",
          "name": "_limit",
          "type": "uint256"
        }
      ],
      "name": "shieldAssets",
      "outputs": [
        {
          "internalType": "uint256",
          "name": "_shieldAssetsCount",
          "type": "uint256"
        },
        {
          "internalType": "address[]",
          "name": "_shieldAssets",
          "type": "address[]"
        }
      ],
      "stateMutability": "view",
      "type": "function"
    },
    {
      "inputs": [],
      "name": "shieldAssetsCount",
      "outputs": [
        {
          "internalType": "uint256",
          "name": "_shieldAssetsCount",
          "type": "uint256"
        }
      ],
      "stateMutability": "view",
      "type": "function"
    },
    {
      "inputs": [
        {
          "internalType": "uint256",
          "name": "_offset",
          "type": "uint256"
        },
        {
          "internalType": "uint256",
          "name": "_limit",
          "type": "uint256"
        }
      ],
      "name": "shieldAssetsWithBalance",
      "outputs": [
        {
          "internalType": "uint256",
          "name": "_shieldAssetsCount",
          "type": "uint256"
        },
        {
          "internalType": "address[]",
          "name": "_shieldAssets",
          "type": "address[]"
        },
        {
          "internalType": "uint256[]",
          "name": "_shieldAssetBalance",
          "type": "uint256[]"
        }
      ],
      "stateMutability": "view",
      "type": "function"
    },
    {
      "inputs": [],
      "name": "stats",
      "outputs": [
        {
          "internalType": "string",
          "name": "_name",
          "type": "string"
        },
        {
          "internalType": "enum IPolicyBookFabric.ContractType",
          "name": "_contractType",
          "type": "uint8"
        },
        {
          "internalType": "uint256",
          "name": "_maxCapacities",
          "type": "uint256"
        },
        {
          "internalType": "uint256",
          "name": "_totalDaiLiquidity",
          "type": "uint256"
        },
        {
          "internalType": "uint256",
          "name": "_annualProfitYields",
          "type": "uint256"
        }
      ],
      "stateMutability": "view",
      "type": "function"
    },
    {
      "inputs": [
        {
          "internalType": "bytes4",
          "name": "interfaceId",
          "type": "bytes4"
        }
      ],
      "name": "supportsInterface",
      "outputs": [
        {
          "internalType": "bool",
          "name": "",
          "type": "bool"
        }
      ],
      "stateMutability": "view",
      "type": "function"
    },
    {
      "inputs": [],
      "name": "symbol",
      "outputs": [
        {
          "internalType": "string",
          "name": "",
          "type": "string"
        }
      ],
      "stateMutability": "view",
      "type": "function"
    },
    {
      "inputs": [
        {
          "internalType": "address",
          "name": "owner",
          "type": "address"
        },
        {
          "internalType": "uint256",
          "name": "index",
          "type": "uint256"
        }
      ],
      "name": "tokenOfOwnerByIndexNFT",
      "outputs": [
        {
          "internalType": "uint256",
          "name": "",
          "type": "uint256"
        }
      ],
      "stateMutability": "view",
      "type": "function"
    },
    {
      "inputs": [],
      "name": "totalCoverTokens",
      "outputs": [
        {
          "internalType": "uint256",
          "name": "",
          "type": "uint256"
        }
      ],
      "stateMutability": "view",
      "type": "function"
    },
    {
      "inputs": [],
      "name": "totalLiquidity",
      "outputs": [
        {
          "internalType": "uint256",
          "name": "",
          "type": "uint256"
        }
      ],
      "stateMutability": "view",
      "type": "function"
    },
    {
      "inputs": [],
      "name": "totalSupply",
      "outputs": [
        {
          "internalType": "uint256",
          "name": "",
          "type": "uint256"
        }
      ],
      "stateMutability": "view",
      "type": "function"
    },
    {
      "inputs": [],
      "name": "totalSupplyNFT",
      "outputs": [
        {
          "internalType": "uint256",
          "name": "",
          "type": "uint256"
        }
      ],
      "stateMutability": "view",
      "type": "function"
    },
    {
      "inputs": [
        {
          "internalType": "address",
          "name": "recipient",
          "type": "address"
        },
        {
          "internalType": "uint256",
          "name": "amount",
          "type": "uint256"
        }
      ],
      "name": "transfer",
      "outputs": [
        {
          "internalType": "bool",
          "name": "",
          "type": "bool"
        }
      ],
      "stateMutability": "nonpayable",
      "type": "function"
    },
    {
      "inputs": [
        {
          "internalType": "address",
          "name": "sender",
          "type": "address"
        },
        {
          "internalType": "address",
          "name": "recipient",
          "type": "address"
        },
        {
          "internalType": "uint256",
          "name": "amount",
          "type": "uint256"
        }
      ],
      "name": "transferFrom",
      "outputs": [
        {
          "internalType": "bool",
          "name": "",
          "type": "bool"
        }
      ],
      "stateMutability": "nonpayable",
      "type": "function"
    },
    {
      "inputs": [
        {
          "internalType": "address",
          "name": "newOwner",
          "type": "address"
        }
      ],
      "name": "transferOwnership",
      "outputs": [],
      "stateMutability": "nonpayable",
      "type": "function"
    },
    {
      "inputs": [
        {
          "internalType": "uint256",
          "name": "_tokensToWithdraw",
          "type": "uint256"
        }
      ],
      "name": "withdrawLiquidity",
      "outputs": [],
      "stateMutability": "nonpayable",
      "type": "function"
    },
    {
      "stateMutability": "payable",
      "type": "receive"
    },
    {
      "inputs": [
        {
          "internalType": "uint256",
          "name": "_daiInThePoolTotal",
          "type": "uint256"
        }
      ],
      "name": "setTotalLiquidity",
      "outputs": [],
      "stateMutability": "nonpayable",
      "type": "function"
    },
    {
      "inputs": [
        {
          "internalType": "uint256",
          "name": "_daiInThePoolBought",
          "type": "uint256"
        }
      ],
      "name": "setTotalCoverTokens",
      "outputs": [],
      "stateMutability": "nonpayable",
      "type": "function"
    }
  ],
  "bytecode": "0x60806040523480156200001157600080fd5b5060405162004df938038062004df98339810160408190526200003491620002c5565b8181604051806020016040528060008152506040518060200160405280600081525081816040516020016200006a91906200030f565b60408051601f1981840301815291905281816200008e6301ffc9a760e01b62000153565b6200009a8282620001d8565b620000ac636cdb3d1360e11b62000153565b5060009050620000bb62000215565b600b80546001600160a01b0319166001600160a01b038316908117909155604051919250906000907f8be0079c531659141344cd1fd0a4f28419497f9722a3daafe3b4186f6b6457e0908290a35050600d80546001600160a01b0319166001600160a01b0387161780825585925060ff60a01b1916600160a01b8360038111156200014257fe5b021790555050505050505062000360565b6001600160e01b03198082161415620001b3576040805162461bcd60e51b815260206004820152601c60248201527f4552433136353a20696e76616c696420696e7465726661636520696400000000604482015290519081900360640190fd5b6001600160e01b0319166000908152602081905260409020805460ff19166001179055565b8151620001ed90600190602085019062000219565b5080516200020390600290602084019062000219565b50506003805460ff1916601217905550565b3390565b828054600181600116156101000203166002900490600052602060002090601f0160209004810192826200025157600085556200029c565b82601f106200026c57805160ff19168380011785556200029c565b828001600101855582156200029c579182015b828111156200029c5782518255916020019190600101906200027f565b50620002aa929150620002ae565b5090565b5b80821115620002aa5760008155600101620002af565b60008060408385031215620002d8578182fd5b82516001600160a01b0381168114620002ef578283fd5b60208401519092506004811062000304578182fd5b809150509250929050565b600065626d6944414960d01b82528251815b8181101562000340576020818601810151600686840101520162000321565b81811115620003525782600683860101525b509190910160060192915050565b614a8980620003706000396000f3fe60806040526004361061038e5760003560e01c80637234751b116101dc578063c18c605711610102578063dd62ed3e116100a0578063f242432a1161006f578063f242432a14610a14578063f2fde38b14610a34578063f5b100ea14610a54578063f60ff93714610a7457610395565b8063dd62ed3e1461099f578063e985e9c5146109bf578063e98a04e1146109df578063efa1f98a146109f457610395565b8063cfa8b3a8116100dc578063cfa8b3a81461092f578063d0a43afd14610944578063d80528ae14610964578063d98d0c7e1461098a57610395565b8063c18c6057146108d8578063cb2ef6f7146108f8578063cbf5a55e1461091a57610395565b80639effd6871161017a578063aaf5eb6811610149578063aaf5eb6814610884578063b0ea6a8414610899578063bc5d198a146108ae578063be22f546146108c357610395565b80639effd6871461080f578063a22cb46514610824578063a457c2d714610844578063a9059cbb1461086457610395565b80637cd0fc9b116101b65780637cd0fc9b146107bb5780638da5cb5b146107d057806395d89b41146107e55780639c590006146107fa57610395565b80637234751b1461074d578063758af3ab1461076d57806379fac08c1461078d57610395565b806323b872dd116102c15780634e1273f41161025f5780635da2460d1161022e5780635da2460d146106ca57806370a08231146106ea57806370b68a2a1461070a578063715018a61461073857610395565b80634e1273f414610648578063514ea9bd1461067557806351c6590a1461068a578063561e795d146106aa57610395565b80632eb2c2d61161029b5780632eb2c2d6146105c6578063313ce567146105e657806339509351146106085780634b6411811461062857610395565b806323b872dd146105715780632c865d6c146105915780632d8a746e146105a657610395565b80630e82da531161032e57806318160ddd1161030857806318160ddd146104fc578063188ff854146105115780631cc509fd146105315780631dcb46f61461055157610395565b80630e82da531461049657806314c179c0146104c557806315770f92146104e757610395565b806306fdde031161036a57806306fdde0314610414578063095ea7b31461043657806309b7d94b146104565780630a861f2a1461047657610395565b8062ded3b71461039a578062fdd58e146103b157806301ffc9a7146103e757610395565b3661039557005b600080fd5b3480156103a657600080fd5b506103af610a89565b005b3480156103bd57600080fd5b506103d16103cc36600461395c565b610bda565b6040516103de91906146ca565b60405180910390f35b3480156103f357600080fd5b50610407610402366004613afb565b610c2d565b6040516103de9190613dfc565b34801561042057600080fd5b50610429610c64565b6040516103de9190613e15565b34801561044257600080fd5b5061040761045136600461395c565b610cf1565b34801561046257600080fd5b506103af610471366004613ba6565b610d0e565b34801561048257600080fd5b506103af610491366004613ba6565b610d13565b3480156104a257600080fd5b506104b66104b1366004613bbe565b610e81565b6040516103de939291906146ec565b3480156104d157600080fd5b506104da610e8d565b6040516103de9190613c8b565b3480156104f357600080fd5b506103d1610e9c565b34801561050857600080fd5b506103d1610ea2565b34801561051d57600080fd5b5061040761052c36600461395c565b610ed2565b34801561053d57600080fd5b506103af61054c366004613987565b610eda565b34801561055d57600080fd5b506103d161056c36600461395c565b610f54565b34801561057d57600080fd5b5061040761058c366004613888565b610f7d565b34801561059d57600080fd5b506103d1611004565b3480156105b257600080fd5b506104da6105c1366004613ba6565b611009565b3480156105d257600080fd5b506103af6105e13660046137de565b611031565b3480156105f257600080fd5b506105fb6112c6565b6040516103de9190614725565b34801561061457600080fd5b5061040761062336600461395c565b6112cf565b34801561063457600080fd5b506103af6106433660046139bb565b61131d565b34801561065457600080fd5b50610668610663366004613a1c565b611399565b6040516103de9190613dc4565b34801561068157600080fd5b506103d16114d9565b34801561069657600080fd5b506103af6106a5366004613ba6565b6114e8565b3480156106b657600080fd5b506103af6106c5366004613ba6565b6114f2565b3480156106d657600080fd5b506103af6106e5366004613bbe565b6114f7565b3480156106f657600080fd5b506103d161070536600461376e565b611506565b34801561071657600080fd5b5061072a61072536600461376e565b611540565b6040516103de929190614717565b34801561074457600080fd5b506103af611559565b34801561075957600080fd5b506103af610768366004613987565b611625565b34801561077957600080fd5b506103d1610788366004613bbe565b611630565b34801561079957600080fd5b506107ad6107a8366004613bbe565b61163c565b6040516103de9291906146d3565b3480156107c757600080fd5b506104da611004565b3480156107dc57600080fd5b506104da611646565b3480156107f157600080fd5b50610429611655565b34801561080657600080fd5b506103d16116ad565b34801561081b57600080fd5b506104da6116bc565b34801561083057600080fd5b506103af61083f36600461392f565b6116cb565b34801561085057600080fd5b5061040761085f36600461395c565b6117b7565b34801561087057600080fd5b5061040761087f36600461395c565b61181f565b34801561089057600080fd5b506103d1611833565b3480156108a557600080fd5b506103d1611842565b3480156108ba57600080fd5b506103d1611853565b3480156108cf57600080fd5b506104da61185b565b3480156108e457600080fd5b506103af6108f3366004613ba6565b610bd7565b34801561090457600080fd5b5061090d61186a565b6040516103de9190613e07565b34801561092657600080fd5b506103d161188b565b34801561093b57600080fd5b506103d161189b565b34801561095057600080fd5b506103af61095f36600461376e565b6118ab565b34801561097057600080fd5b50610979611bbf565b6040516103de959493929190613e28565b34801561099657600080fd5b506104da611c92565b3480156109ab57600080fd5b506103d16109ba3660046137a6565b611ca1565b3480156109cb57600080fd5b506104076109da3660046137a6565b611ccc565b3480156109eb57600080fd5b506103d1611cfa565b348015610a0057600080fd5b506103af610a0f36600461395c565b611d0a565b348015610a2057600080fd5b506103af610a2f3660046138c8565b611d14565b348015610a4057600080fd5b506103af610a4f36600461376e565b611f1e565b348015610a6057600080fd5b506103d1610a6f36600461376e565b612041565b348015610a8057600080fd5b506103d161208a565b610a91612090565b600b546001600160a01b03908116911614610af3576040805162461bcd60e51b815260206004820181905260248201527f4f776e61626c653a2063616c6c6572206973206e6f7420746865206f776e6572604482015290519081900360640190fd5b600e54600f546040517f095ea7b30000000000000000000000000000000000000000000000000000000081526000926001600160a01b039081169263095ea7b392610b48929091169060001990600401613c9f565b602060405180830381600087803b158015610b6257600080fd5b505af1158015610b76573d6000803e3d6000fd5b505050506040513d601f19601f82011682018060405250810190610b9a9190613adf565b905080610bc25760405162461bcd60e51b8152600401610bb9906142ba565b60405180910390fd5b600f54610bd7906001600160a01b0316611f1e565b50565b60006001600160a01b038316610c025760405162461bcd60e51b8152600401610bb990613fe9565b5060008181526005602090815260408083206001600160a01b03861684529091529020545b92915050565b7fffffffff000000000000000000000000000000000000000000000000000000001660009081526020819052604090205460ff1690565b60018054604080516020600284861615610100026000190190941693909304601f81018490048402820184019092528181529291830182828015610ce95780601f10610cbe57610100808354040283529160200191610ce9565b820191906000526020600020905b815481529060010190602001808311610ccc57829003601f168201915b505050505081565b6000610d05610cfe612090565b8484612094565b50600192915050565b601055565b80610d1d33611506565b1015610d3b5760405162461bcd60e51b8152600401610bb9906143ab565b601154601054610d4b9083612148565b1015610d695760405162461bcd60e51b8152600401610bb990614283565b600e546040517fa9059cbb0000000000000000000000000000000000000000000000000000000081526000916001600160a01b03169063a9059cbb90610db59033908690600401613c9f565b602060405180830381600087803b158015610dcf57600080fd5b505af1158015610de3573d6000803e3d6000fd5b505050506040513d601f19601f82011682018060405250810190610e079190613adf565b905080610e265760405162461bcd60e51b8152600401610bb990614100565b601054610e339083612148565b601055610e40338361218a565b7fac927268ea9ae2e55027e6ab727fc2db8e3ea48c56c658223a1074567e4298c03383601054604051610e7593929190613cb8565b60405180910390a15050565b60006060809250925092565b600d546001600160a01b031681565b60105481565b600160005260046020527fabd6e7cb50984ff9c2f3e18a2660c3353dadf4e3291deeb275dae2cd1e44fe05545b90565b600092915050565b610ee2612090565b600b546001600160a01b03908116911614610f44576040805162461bcd60e51b815260206004820181905260248201527f4f776e61626c653a2063616c6c6572206973206e6f7420746865206f776e6572604482015290519081900360640190fd5b610f4f8383836122f5565b505050565b6001600160a01b0382166000908152600860205260408120610f76908361246d565b9392505050565b6000610f8a848484612479565b610ffa84610f96612090565b610ff585604051806060016040528060288152602001614a07602891396001600160a01b038a16600090815260076020526040812090610fd4612090565b6001600160a01b0316815260208101919091526040016000205491906125eb565b612094565b5060019392505050565b600090565b6000610c27826040518060600160405280602a8152602001614992602a913960099190612682565b81518351146110525760405162461bcd60e51b8152600401610bb9906145d9565b6001600160a01b0384166110785760405162461bcd60e51b8152600401610bb9906141c9565b611080612090565b6001600160a01b0316856001600160a01b031614806110a657506110a6856109da612090565b6110c25760405162461bcd60e51b8152600401610bb990614226565b60006110cc612090565b90506110dc8187878787876112be565b60005b84518110156112585760008582815181106110f657fe5b60200260200101519050600085838151811061110e57fe5b60200260200101519050600182141561112c5761112c898983610f4f565b61113582612697565b1561118e576001600160a01b038916600090815260086020526040902061115c90836126a4565b506001600160a01b038816600090815260086020526040902061117f90836126b0565b5061118c6009838a6126bc565b505b6111f1816040518060600160405280602a81526020016149bc602a91396005600086815260200190815260200160002060008d6001600160a01b03166001600160a01b03168152602001908152602001600020546125eb9092919063ffffffff16565b60008381526005602090815260408083206001600160a01b038e811685529252808320939093558a168152205461122890826126d2565b60009283526005602090815260408085206001600160a01b038c16865290915290922091909155506001016110df565b50846001600160a01b0316866001600160a01b0316826001600160a01b03167f4a39dc06d4c0dbc64b70af90fd698a233a518aa5d07e595d983b8c0526c8f7fb87876040516112a8929190613dd7565b60405180910390a46112be81878787878761272c565b505050505050565b60035460ff1681565b6000610d056112dc612090565b84610ff585600760006112ed612090565b6001600160a01b03908116825260208083019390935260409182016000908120918c1681529252902054906126d2565b611325612090565b600b546001600160a01b03908116911614611387576040805162461bcd60e51b815260206004820181905260248201527f4f776e61626c653a2063616c6c6572206973206e6f7420746865206f776e6572604482015290519081900360640190fd5b6113938484848461288d565b50505050565b606081518351146113bc5760405162461bcd60e51b8152600401610bb99061457c565b6060835167ffffffffffffffff811180156113d657600080fd5b50604051908082528060200260200182016040528015611400578160200160208202803683370190505b50905060005b84518110156114d15760006001600160a01b031685828151811061142657fe5b60200260200101516001600160a01b031614156114555760405162461bcd60e51b8152600401610bb990614046565b6005600085838151811061146557fe5b60200260200101518152602001908152602001600020600086838151811061148957fe5b60200260200101516001600160a01b03166001600160a01b03168152602001908152602001600020548282815181106114be57fe5b6020908102919091010152600101611406565b509392505050565b6af8277896582678ac00000081565b610bd73382612a30565b601155565b611502338383612b4b565b5050565b6001600160a01b031660009081527f1471eb6eb2c5e789fc3de43f8ce62938c7d1836ec861730447e2ada8fd81017b602052604090205490565b6012602052600090815260409020805460019091015482565b611561612090565b600b546001600160a01b039081169116146115c3576040805162461bcd60e51b815260206004820181905260248201527f4f776e61626c653a2063616c6c6572206973206e6f7420746865206f776e6572604482015290519081900360640190fd5b600b546040516000916001600160a01b0316907f8be0079c531659141344cd1fd0a4f28419497f9722a3daafe3b4186f6b6457e0908390a3600b80547fffffffffffffffffffffffff0000000000000000000000000000000000000000169055565b610f4f838383612b4b565b6000610f768383612d26565b5060009160609150565b600b546001600160a01b031690565b6002805460408051602060018416156101000260001901909316849004601f81018490048402820184019092528181529291830182828015610ce95780601f10610cbe57610100808354040283529160200191610ce9565b6a295be96e6406697200000081565b600f546001600160a01b031681565b816001600160a01b03166116dd612090565b6001600160a01b031614156117045760405162461bcd60e51b8152600401610bb99061451f565b8060066000611711612090565b6001600160a01b0390811682526020808301939093526040918201600090812091871680825291909352912080547fffffffffffffffffffffffffffffffffffffffffffffffffffffffffffffff001692151592909217909155611773612090565b6001600160a01b03167f17307eab39ab6107e8899845ad3d59bd9653f200f220920489ca2b5937696c31836040516117ab9190613dfc565b60405180910390a35050565b6000610d056117c4612090565b84610ff585604051806060016040528060258152602001614a2f60259139600760006117ee612090565b6001600160a01b03908116825260208083019390935260409182016000908120918d168152925290205491906125eb565b6000610d0561182c612090565b8484612479565b6a084595161401484a00000081565b600061184e6009612e40565b905090565b6301e1338081565b600e546001600160a01b031681565b600d5474010000000000000000000000000000000000000000900460ff1681565b6b033b2e3c9fd0803ce800000081565b6b04d8c55aefb8c05b5c00000081565b6118b3612090565b600b546001600160a01b03908116911614611915576040805162461bcd60e51b815260206004820181905260248201527f4f776e61626c653a2063616c6c6572206973206e6f7420746865206f776e6572604482015290519081900360640190fd5b600c80547fffffffffffffffffffffffff0000000000000000000000000000000000000000166001600160a01b038316908117909155604080517fa45611b60000000000000000000000000000000000000000000000000000000081529051633581777391839163a45611b691600480820192600092909190829003018186803b1580156119a257600080fd5b505afa1580156119b6573d6000803e3d6000fd5b505050506040513d6000823e601f3d908101601f191682016040526119de9190810190613b33565b6040518263ffffffff1660e01b81526004016119fa9190613e15565b60206040518083038186803b158015611a1257600080fd5b505afa158015611a26573d6000803e3d6000fd5b505050506040513d601f19601f82011682018060405250810190611a4a919061378a565b600e80547fffffffffffffffffffffffff0000000000000000000000000000000000000000166001600160a01b03928316179055600c54604080517f3d2886a0000000000000000000000000000000000000000000000000000000008152905191909216916335817773918391633d2886a0916004808301926000929190829003018186803b158015611adc57600080fd5b505afa158015611af0573d6000803e3d6000fd5b505050506040513d6000823e601f3d908101601f19168201604052611b189190810190613b33565b6040518263ffffffff1660e01b8152600401611b349190613e15565b60206040518083038186803b158015611b4c57600080fd5b505afa158015611b60573d6000803e3d6000fd5b505050506040513d601f19601f82011682018060405250810190611b84919061378a565b600f80547fffffffffffffffffffffffff0000000000000000000000000000000000000000166001600160a01b039290921691909117905550565b60606000806000806001600d60149054906101000a900460ff16601154601054036010546000848054600181600116156101000203166002900480601f016020809104026020016040519081016040528092919081815260200182805460018160011615610100020316600290048015611c7a5780601f10611c4f57610100808354040283529160200191611c7a565b820191906000526020600020905b815481529060010190602001808311611c5d57829003601f168201915b50505050509450945094509450945094509091929394565b600c546001600160a01b031681565b6001600160a01b03918216600090815260076020908152604080832093909416825291909152205490565b6001600160a01b03918216600090815260066020908152604080832093909416825291909152205460ff1690565b6b024306c4097859c43c00000081565b6115028282612a30565b6001600160a01b038416611d3a5760405162461bcd60e51b8152600401610bb9906141c9565b611d42612090565b6001600160a01b0316856001600160a01b03161480611d685750611d68856109da612090565b611d845760405162461bcd60e51b8152600401610bb990614137565b6000611d8e612090565b9050611dae818787611d9f88612e4b565b611da888612e4b565b876112be565b6001841415611dc257611dc2868685610f4f565b611dcb84612697565b15611e24576001600160a01b0386166000908152600860205260409020611df290856126a4565b506001600160a01b0385166000908152600860205260409020611e1590856126b0565b50611e22600985876126bc565b505b611e6b836040518060600160405280602a81526020016149bc602a913960008781526005602090815260408083206001600160a01b038d16845290915290205491906125eb565b60008581526005602090815260408083206001600160a01b038b81168552925280832093909355871681522054611ea290846126d2565b60008581526005602090815260408083206001600160a01b03808b168086529190935292819020939093559151909188811691908416907fc3d58168c5ae7397731d063d5bbf3d657854427343f4c083240f7aacaa2d0f6290611f089089908990614717565b60405180910390a46112be818787878787612e8f565b611f26612090565b600b546001600160a01b03908116911614611f88576040805162461bcd60e51b815260206004820181905260248201527f4f776e61626c653a2063616c6c6572206973206e6f7420746865206f776e6572604482015290519081900360640190fd5b6001600160a01b038116611fcd5760405162461bcd60e51b81526004018080602001828103825260268152602001806149226026913960400191505060405180910390fd5b600b546040516001600160a01b038084169216907f8be0079c531659141344cd1fd0a4f28419497f9722a3daafe3b4186f6b6457e090600090a3600b80547fffffffffffffffffffffffff0000000000000000000000000000000000000000166001600160a01b0392909216919091179055565b60006001600160a01b0382166120695760405162461bcd60e51b8152600401610bb990613fe9565b6001600160a01b0382166000908152600860205260409020610c2790612e40565b60115481565b3390565b6001600160a01b0383166120ba5760405162461bcd60e51b8152600401610bb9906144c2565b6001600160a01b0382166120e05760405162461bcd60e51b8152600401610bb9906140a3565b6001600160a01b0380841660008181526007602090815260408083209487168084529490915290819020849055517f8c5be1e5ebec7d5bd14f71427d1e84f3dd0314c0f7b2291e5b200ac8c7c3b9259061213b9085906146ca565b60405180910390a3505050565b6000610f7683836040518060400160405280601e81526020017f536166654d6174683a207375627472616374696f6e206f766572666c6f7700008152506125eb565b6001600160a01b0382166121b05760405162461bcd60e51b8152600401610bb990614408565b6121bc82600083610f4f565b61221881604051806060016040528060228152602001614900602291396001600160a01b03851660009081527f1471eb6eb2c5e789fc3de43f8ce62938c7d1836ec861730447e2ada8fd81017b602052604090205491906125eb565b6001600160a01b03831660009081527f1471eb6eb2c5e789fc3de43f8ce62938c7d1836ec861730447e2ada8fd81017b6020908152604082209290925560019052600490527fabd6e7cb50984ff9c2f3e18a2660c3353dadf4e3291deeb275dae2cd1e44fe05546122899082612148565b6001600090815260046020527fabd6e7cb50984ff9c2f3e18a2660c3353dadf4e3291deeb275dae2cd1e44fe05919091556040516001600160a01b038416907fddf252ad1be2c89b69c2b068fc378daa952ba7f163c4a11628f55a4df523b3ef906117ab9085906146ca565b6001600160a01b03831661231b5760405162461bcd60e51b8152600401610bb9906142f1565b6000612325612090565b90506123558185600061233787612e4b565b61234087612e4b565b604051806020016040528060008152506112be565b811561238b576001600160a01b038416600090815260086020526040902061237d90846126a4565b50612389600984612faa565b505b6123d2826040518060600160405280602481526020016149486024913960008681526005602090815260408083206001600160a01b038b16845290915290205491906125eb565b60008481526005602090815260408083206001600160a01b038916845282528083209390935585825260049052205461240b9083612148565b6000848152600460205260408082209290925590516001600160a01b0386811691908416907fc3d58168c5ae7397731d063d5bbf3d657854427343f4c083240f7aacaa2d0f629061245f9088908890614717565b60405180910390a450505050565b6000610f768383612fb6565b6001600160a01b03831661249f5760405162461bcd60e51b8152600401610bb990614465565b6001600160a01b0382166124c55760405162461bcd60e51b8152600401610bb990613efa565b6124d0838383610f4f565b61252c8160405180606001604052806026815260200161496c602691396001600160a01b03861660009081527f1471eb6eb2c5e789fc3de43f8ce62938c7d1836ec861730447e2ada8fd81017b602052604090205491906125eb565b6001600160a01b0384811660009081527f1471eb6eb2c5e789fc3de43f8ce62938c7d1836ec861730447e2ada8fd81017b6020526040808220939093559084168152205461257a90826126d2565b6001600160a01b0380841660008181527f1471eb6eb2c5e789fc3de43f8ce62938c7d1836ec861730447e2ada8fd81017b602052604090819020939093559151908516907fddf252ad1be2c89b69c2b068fc378daa952ba7f163c4a11628f55a4df523b3ef9061213b9085906146ca565b6000818484111561267a5760405162461bcd60e51b81526004018080602001828103825283818151815260200191508051906020019080838360005b8381101561263f578181015183820152602001612627565b50505050905090810190601f16801561266c5780820380516001836020036101000a031916815260200191505b509250505060405180910390fd5b505050900390565b600061268f84848461301a565b949350505050565b6000610c276009836130a7565b6000610f7683836130b3565b6000610f768383613179565b600061268f84846001600160a01b0385166131c3565b600082820183811015610f76576040805162461bcd60e51b815260206004820152601b60248201527f536166654d6174683a206164646974696f6e206f766572666c6f770000000000604482015290519081900360640190fd5b61273e846001600160a01b031661325a565b156112be576040517fbc197c810000000000000000000000000000000000000000000000000000000081526001600160a01b0385169063bc197c81906127909089908990889088908890600401613cfd565b602060405180830381600087803b1580156127aa57600080fd5b505af19250505080156127da575060408051601f3d908101601f191682019092526127d791810190613b17565b60015b612823576127e66147c9565b806127f1575061280b565b8060405162461bcd60e51b8152600401610bb99190613e15565b60405162461bcd60e51b8152600401610bb990613e66565b7fffffffff0000000000000000000000000000000000000000000000000000000081167fbc197c8100000000000000000000000000000000000000000000000000000000146128845760405162461bcd60e51b8152600401610bb990613f57565b50505050505050565b6001600160a01b0384166128b35760405162461bcd60e51b8152600401610bb990614636565b8115806128c657506128c483612697565b155b6128e25760405162461bcd60e51b8152600401610bb99061434e565b60006128ec612090565b90506128fe81600087611d9f88612e4b565b826001148015612914575061291284613260565b155b8015612921575060018414155b15612957576001600160a01b038516600090815260086020526040902061294890856126b0565b50612955600985876126bc565b505b60008481526005602090815260408083206001600160a01b038916845290915290205461298490846126d2565b60008581526005602090815260408083206001600160a01b038a1684528252808320939093558682526004905220546129bd90846126d2565b6000858152600460205260408082209290925590516001600160a01b038088169291908416907fc3d58168c5ae7397731d063d5bbf3d657854427343f4c083240f7aacaa2d0f6290612a129089908990614717565b60405180910390a4612a2981600087878787612e8f565b5050505050565b600e546040517f23b872dd0000000000000000000000000000000000000000000000000000000081526000916001600160a01b0316906323b872dd90612a7e90869030908790600401613cd9565b602060405180830381600087803b158015612a9857600080fd5b505af1158015612aac573d6000803e3d6000fd5b505050506040513d601f19601f82011682018060405250810190612ad09190613adf565b905080612aef5760405162461bcd60e51b8152600401610bb990614100565b601054612afc90836126d2565b601055612b098383613274565b7f06239653922ac7bea6aa2b19dc486b9361821d37712eb796adfd38d81de278ca8383601054604051612b3e93929190613cb8565b60405180910390a1505050565b612b53613698565b506001600160a01b0383166000908152601260209081526040918290208251808401909352805483526001015490820181905215612ba35760405162461bcd60e51b8152600401610bb990614194565b601154612bb090836126d2565b6010541015612bd15760405162461bcd60e51b8152600401610bb990614283565b6000612bdd8484612d26565b83835260208084018681526001600160a01b038816600090815260129092526040909120845181559051600190910155601154909150612c1d90846126d2565b601155600e546040517f23b872dd0000000000000000000000000000000000000000000000000000000081526000916001600160a01b0316906323b872dd90612c6e90899030908790600401613cd9565b602060405180830381600087803b158015612c8857600080fd5b505af1158015612c9c573d6000803e3d6000fd5b505050506040513d601f19601f82011682018060405250810190612cc09190613adf565b905080612cdf5760405162461bcd60e51b8152600401610bb990614100565b7f1cd728a6e764ed0dcddb6e5b88d736a4a8d2a0d420ca373588f7a1109e18663f868584601154604051612d169493929190613d9e565b60405180910390a1505050505050565b6000601054612d40836011546126d290919063ffffffff16565b1115612d5e5760405162461bcd60e51b8152600401610bb990613fb4565b600060105411612d805760405162461bcd60e51b8152600401610bb990613ec3565b6000612dbb601054612db56a084595161401484a000000606402612daf876011546126d290919063ffffffff16565b906133c6565b9061341f565b905060006b024306c4097859c43c000000821015612de357612ddc82613461565b9050612def565b612dec82613488565b90505b612e04816a295be96e6406697200000061352c565b90506000612e1a6301e13380612db588856133c6565b9050612e366b033b2e3c9fd0803ce8000000612db587846133c6565b9695505050505050565b6000610c2782613543565b604080516001808252818301909252606091829190602080830190803683370190505090508281600081518110612e7e57fe5b602090810291909101015292915050565b612ea1846001600160a01b031661325a565b156112be576040517ff23a6e610000000000000000000000000000000000000000000000000000000081526001600160a01b0385169063f23a6e6190612ef39089908990889088908890600401613d5b565b602060405180830381600087803b158015612f0d57600080fd5b505af1925050508015612f3d575060408051601f3d908101601f19168201909252612f3a91810190613b17565b60015b612f49576127e66147c9565b7fffffffff0000000000000000000000000000000000000000000000000000000081167ff23a6e6100000000000000000000000000000000000000000000000000000000146128845760405162461bcd60e51b8152600401610bb990613f57565b6000610f768383613547565b81546000908210612ff85760405162461bcd60e51b81526004018080602001828103825260228152602001806148de6022913960400191505060405180910390fd5b82600001828154811061300757fe5b9060005260206000200154905092915050565b600082815260018401602052604081205482816130785760405162461bcd60e51b815260206004820181815283516024840152835190928392604490910191908501908083836000831561263f578181015183820152602001612627565b5084600001600182038154811061308b57fe5b9060005260206000209060020201600101549150509392505050565b6000610f76838361361b565b6000818152600183016020526040812054801561316f57835460001980830191908101906000908790839081106130e657fe5b906000526020600020015490508087600001848154811061310357fe5b60009182526020808320909101929092558281526001898101909252604090209084019055865487908061313357fe5b60019003818190600052602060002001600090559055866001016000878152602001908152602001600020600090556001945050505050610c27565b6000915050610c27565b6000613185838361361b565b6131bb57508154600181810184556000848152602080822090930184905584548482528286019093526040902091909155610c27565b506000610c27565b600082815260018401602052604081205480613228575050604080518082018252838152602080820184815286546001818101895560008981528481209551600290930290950191825591519082015586548684528188019092529290912055610f76565b8285600001600183038154811061323b57fe5b9060005260206000209060020201600101819055506000915050610f76565b3b151590565b600090815260046020526040902054151590565b6001600160a01b03821661329a5760405162461bcd60e51b8152600401610bb990614693565b6132a660008383610f4f565b6001600160a01b03821660009081527f1471eb6eb2c5e789fc3de43f8ce62938c7d1836ec861730447e2ada8fd81017b60205260409020546132e890826126d2565b6001600160a01b03831660009081527f1471eb6eb2c5e789fc3de43f8ce62938c7d1836ec861730447e2ada8fd81017b6020908152604082209290925560019052600490527fabd6e7cb50984ff9c2f3e18a2660c3353dadf4e3291deeb275dae2cd1e44fe055461335990826126d2565b6001600090815260046020527fabd6e7cb50984ff9c2f3e18a2660c3353dadf4e3291deeb275dae2cd1e44fe05919091556040516001600160a01b03841691907fddf252ad1be2c89b69c2b068fc378daa952ba7f163c4a11628f55a4df523b3ef906117ab9085906146ca565b6000826133d557506000610c27565b828202828482816133e257fe5b0414610f765760405162461bcd60e51b81526004018080602001828103825260218152602001806149e66021913960400191505060405180910390fd5b6000610f7683836040518060400160405280601a81526020017f536166654d6174683a206469766973696f6e206279207a65726f000000000000815250613633565b6000610c276b024306c4097859c43c000000612db5846af8277896582678ac0000006133c6565b6000806134db6134b06b033b2e3c9fd0803ce80000006b024306c4097859c43c000000612148565b612db56134c9866b024306c4097859c43c000000612148565b6a084595161401484a000000906133c6565b9050610f7661351a6a084595161401484a000000612db56135136b04d8c55aefb8c05b5c0000006af8277896582678ac000000612148565b85906133c6565b6af8277896582678ac000000906126d2565b60008183101561353c5781610f76565b5090919050565b5490565b6000818152600183016020526040812054801561316f578354600019808301919081019060009087908390811061357a57fe5b906000526020600020906002020190508087600001848154811061359a57fe5b6000918252602080832084546002909302019182556001938401549184019190915583548252898301905260409020908401905586548790806135d957fe5b6000828152602080822060026000199094019384020182815560019081018390559290935588815289820190925260408220919091559450610c279350505050565b60009081526001919091016020526040902054151590565b600081836136825760405162461bcd60e51b815260206004820181815283516024840152835190928392604490910191908501908083836000831561263f578181015183820152602001612627565b50600083858161368e57fe5b0495945050505050565b604051806040016040528060008152602001600081525090565b600082601f8301126136c2578081fd5b81356136d56136d082614757565b614733565b8181529150602080830190848101818402860182018710156136f657600080fd5b60005b84811015613715578135845292820192908201906001016136f9565b505050505092915050565b600082601f830112613730578081fd5b813561373e6136d082614775565b915080825283602082850101111561375557600080fd5b8060208401602084013760009082016020015292915050565b60006020828403121561377f578081fd5b8135610f768161488c565b60006020828403121561379b578081fd5b8151610f768161488c565b600080604083850312156137b8578081fd5b82356137c38161488c565b915060208301356137d38161488c565b809150509250929050565b600080600080600060a086880312156137f5578081fd5b85356138008161488c565b945060208601356138108161488c565b9350604086013567ffffffffffffffff8082111561382c578283fd5b61383889838a016136b2565b9450606088013591508082111561384d578283fd5b61385989838a016136b2565b9350608088013591508082111561386e578283fd5b5061387b88828901613720565b9150509295509295909350565b60008060006060848603121561389c578283fd5b83356138a78161488c565b925060208401356138b78161488c565b929592945050506040919091013590565b600080600080600060a086880312156138df578081fd5b85356138ea8161488c565b945060208601356138fa8161488c565b93506040860135925060608601359150608086013567ffffffffffffffff811115613923578182fd5b61387b88828901613720565b60008060408385031215613941578182fd5b823561394c8161488c565b915060208301356137d3816148a1565b6000806040838503121561396e578182fd5b82356139798161488c565b946020939093013593505050565b60008060006060848603121561399b578283fd5b83356139a68161488c565b95602085013595506040909401359392505050565b600080600080608085870312156139d0578182fd5b84356139db8161488c565b93506020850135925060408501359150606085013567ffffffffffffffff811115613a04578182fd5b613a1087828801613720565b91505092959194509250565b60008060408385031215613a2e578182fd5b823567ffffffffffffffff80821115613a45578384fd5b818501915085601f830112613a58578384fd5b8135613a666136d082614757565b80828252602080830192508086018a828387028901011115613a86578889fd5b8896505b84871015613ab1578035613a9d8161488c565b845260019690960195928101928101613a8a565b509096508701359350505080821115613ac8578283fd5b50613ad5858286016136b2565b9150509250929050565b600060208284031215613af0578081fd5b8151610f76816148a1565b600060208284031215613b0c578081fd5b8135610f76816148af565b600060208284031215613b28578081fd5b8151610f76816148af565b600060208284031215613b44578081fd5b815167ffffffffffffffff811115613b5a578182fd5b8201601f81018413613b6a578182fd5b8051613b786136d082614775565b818152856020838501011115613b8c578384fd5b613b9d826020830160208601614797565b95945050505050565b600060208284031215613bb7578081fd5b5035919050565b60008060408385031215613bd0578182fd5b50508035926020909101359150565b6000815180845260208085019450808401835b83811015613c175781516001600160a01b031687529582019590820190600101613bf2565b509495945050505050565b6000815180845260208085019450808401835b83811015613c1757815187529582019590820190600101613c35565b60008151808452613c69816020860160208601614797565b601f01601f19169290920160200192915050565b60048110613c8757fe5b9052565b6001600160a01b0391909116815260200190565b6001600160a01b03929092168252602082015260400190565b6001600160a01b039390931683526020830191909152604082015260600190565b6001600160a01b039384168152919092166020820152604081019190915260600190565b60006001600160a01b03808816835280871660208401525060a06040830152613d2960a0830186613c22565b8281036060840152613d3b8186613c22565b90508281036080840152613d4f8185613c51565b98975050505050505050565b60006001600160a01b03808816835280871660208401525084604083015283606083015260a06080830152613d9360a0830184613c51565b979650505050505050565b6001600160a01b0394909416845260208401929092526040830152606082015260800190565b600060208252610f766020830184613c22565b600060408252613dea6040830185613c22565b8281036020840152613b9d8185613c22565b901515815260200190565b60208101610c278284613c7d565b600060208252610f766020830184613c51565b600060a08252613e3b60a0830188613c51565b9050613e4a6020830187613c7d565b8460408301528360608301528260808301529695505050505050565b60208082526034908201527f455243313135353a207472616e7366657220746f206e6f6e204552433131353560408201527f526563656976657220696d706c656d656e746572000000000000000000000000606082015260800190565b60208082526011908201527f54686520706f6f6c20697320656d707479000000000000000000000000000000604082015260600190565b60208082526023908201527f45524332303a207472616e7366657220746f20746865207a65726f206164647260408201527f6573730000000000000000000000000000000000000000000000000000000000606082015260800190565b60208082526028908201527f455243313135353a204552433131353552656365697665722072656a6563746560408201527f6420746f6b656e73000000000000000000000000000000000000000000000000606082015260800190565b6020808252818101527f526571756972696e67206d6f7265207468616e20746865726520657869737473604082015260600190565b6020808252602b908201527f455243313135353a2062616c616e636520717565727920666f7220746865207a60408201527f65726f2061646472657373000000000000000000000000000000000000000000606082015260800190565b60208082526031908201527f455243313135353a2062617463682062616c616e636520717565727920666f7260408201527f20746865207a65726f2061646472657373000000000000000000000000000000606082015260800190565b60208082526022908201527f45524332303a20617070726f766520746f20746865207a65726f20616464726560408201527f7373000000000000000000000000000000000000000000000000000000000000606082015260800190565b6020808252601d908201527f4661696c656420746f207472616e736665722044414920746f6b656e73000000604082015260600190565b60208082526029908201527f455243313135353a2063616c6c6572206973206e6f74206f776e6572206e6f7260408201527f20617070726f7665640000000000000000000000000000000000000000000000606082015260800190565b6020808252818101527f54686520706f6c69637920686f6c64657220616c726561647920657869737473604082015260600190565b60208082526025908201527f455243313135353a207472616e7366657220746f20746865207a65726f20616460408201527f6472657373000000000000000000000000000000000000000000000000000000606082015260800190565b60208082526032908201527f455243313135353a207472616e736665722063616c6c6572206973206e6f742060408201527f6f776e6572206e6f7220617070726f7665640000000000000000000000000000606082015260800190565b6020808252601e908201527f4e6f7420656e6f75676820617661696c61626c65206c69717569646974790000604082015260600190565b6020808252601c908201527f4661696c656420746f20617070726f76652044414920746f6b656e7300000000604082015260600190565b60208082526023908201527f455243313135353a206275726e2066726f6d20746865207a65726f206164647260408201527f6573730000000000000000000000000000000000000000000000000000000000606082015260800190565b60208082526021908201527f455243313135353a204e465420746f6b656e20616c7265616479206d696e746560408201527f6400000000000000000000000000000000000000000000000000000000000000606082015260800190565b6020808252603f908201527f54686520616d6f756e7420746f2062652077697468647261776e20697320677260408201527f6561746572207468616e20746865206465706f736974656420616d6f756e7400606082015260800190565b60208082526021908201527f45524332303a206275726e2066726f6d20746865207a65726f2061646472657360408201527f7300000000000000000000000000000000000000000000000000000000000000606082015260800190565b60208082526025908201527f45524332303a207472616e736665722066726f6d20746865207a65726f20616460408201527f6472657373000000000000000000000000000000000000000000000000000000606082015260800190565b60208082526024908201527f45524332303a20617070726f76652066726f6d20746865207a65726f2061646460408201527f7265737300000000000000000000000000000000000000000000000000000000606082015260800190565b60208082526029908201527f455243313135353a2073657474696e6720617070726f76616c2073746174757360408201527f20666f722073656c660000000000000000000000000000000000000000000000606082015260800190565b60208082526029908201527f455243313135353a206163636f756e747320616e6420696473206c656e67746860408201527f206d69736d617463680000000000000000000000000000000000000000000000606082015260800190565b60208082526028908201527f455243313135353a2069647320616e6420616d6f756e7473206c656e6774682060408201527f6d69736d61746368000000000000000000000000000000000000000000000000606082015260800190565b60208082526021908201527f455243313135353a206d696e7420746f20746865207a65726f2061646472657360408201527f7300000000000000000000000000000000000000000000000000000000000000606082015260800190565b6020808252601f908201527f45524332303a206d696e7420746f20746865207a65726f206164647265737300604082015260600190565b90815260200190565b60008382526040602083015261268f6040830184613bdf565b6000848252606060208301526147056060830185613bdf565b8281036040840152612e368185613c22565b918252602082015260400190565b60ff91909116815260200190565b60405181810167ffffffffffffffff8111828210171561474f57fe5b604052919050565b600067ffffffffffffffff82111561476b57fe5b5060209081020190565b600067ffffffffffffffff82111561478957fe5b50601f01601f191660200190565b60005b838110156147b257818101518382015260200161479a565b838111156113935750506000910152565b60e01c90565b600060443d10156147d957610ecf565b600481823e6308c379a06147ed82516147c3565b146147f757610ecf565b6040517ffffffffffffffffffffffffffffffffffffffffffffffffffffffffffffffffc3d016004823e80513d67ffffffffffffffff81602484011181841117156148455750505050610ecf565b8284019250825191508082111561485f5750505050610ecf565b503d8301602082840101111561487757505050610ecf565b601f01601f1916810160200160405291505090565b6001600160a01b0381168114610bd757600080fd5b8015158114610bd757600080fd5b7fffffffff0000000000000000000000000000000000000000000000000000000081168114610bd757600080fdfe456e756d657261626c655365743a20696e646578206f7574206f6620626f756e647345524332303a206275726e20616d6f756e7420657863656564732062616c616e63654f776e61626c653a206e6577206f776e657220697320746865207a65726f2061646472657373455243313135353a206275726e20616d6f756e7420657863656564732062616c616e636545524332303a207472616e7366657220616d6f756e7420657863656564732062616c616e6365455243313135353a206f776e657220717565727920666f72206e6f6e6578697374656e7420746f6b656e455243313135353a20696e73756666696369656e742062616c616e636520666f72207472616e73666572536166654d6174683a206d756c7469706c69636174696f6e206f766572666c6f7745524332303a207472616e7366657220616d6f756e74206578636565647320616c6c6f77616e636545524332303a2064656372656173656420616c6c6f77616e63652062656c6f77207a65726fa2646970667358221220d520a7a1e909ba26b21d3c59489efda9f35fcec3e6f7e9f5a756558318ea0ca164736f6c63430007040033",
  "immutableReferences": {},
  "source": "// SPDX-License-Identifier: MIT\npragma solidity ^0.7.4;\npragma experimental ABIEncoderV2;\n\nimport \"../PolicyBook.sol\";\n\ncontract PolicyBookMock is PolicyBook {\n  constructor(address _insuranceContract, IPolicyBookFabric.ContractType _contractType)\n    PolicyBook(_insuranceContract, _contractType, \"\", \"\") {}\n\n  function setTotalLiquidity(uint256 _daiInThePoolTotal) public {\n    totalLiquidity = _daiInThePoolTotal;\n  }\n\n  function setTotalCoverTokens(uint256 _daiInThePoolBought) public {\n    totalCoverTokens = _daiInThePoolBought;\n  }\n}\n",
  "sourcePath": "/home/artem/Projects/Distributed_Lab/Applicature/bridgemutual-core/contracts/mock/PolicyBookMock.sol",
  "compiler": {
    "name": "solc",
    "version": "0.7.4+commit.3f05b770.Emscripten.clang"
  },
  "schemaVersion": "3.3.3",
  "updatedAt": "2021-01-27T14:17:24.049Z",
  "devdoc": {
    "kind": "dev",
    "methods": {
      "addLiquidity(uint256)": {
        "params": {
          "_liqudityAmount": "is amount of DAI tokens to secure"
        }
      },
      "addLiquidityFor(address,uint256)": {
        "params": {
          "_liqudityAmount": "is amount of DAI tokens to secure",
          "_liquidityHolderAddr": "is address of address to assign cover"
        }
      },
      "addShieldTokens(address,uint256)": {
        "params": {
          "_tokenAddress": "is address of reward token to add",
          "_tokensAmount": "is max amount of reward to operate on"
        },
        "returns": {
          "_success": "is indicator if purchase is successful, it will throw exception if unsuccessful"
        }
      },
      "balanceOf(address,uint256)": {
        "details": "Returns the amount of tokens of token type `id` owned by `account`. Requirements: - `account` cannot be the zero address."
      },
      "balanceOfBatch(address[],uint256[])": {
        "details": "xref:ROOT:erc1155.adoc#batch-operations[Batched] version of {balanceOf}. Requirements: - `accounts` and `ids` must have the same length."
      },
      "buyPolicy(uint256,uint256)": {
        "params": {
          "_coverTokens": "is number of tokens to cover  ",
          "_durationSeconds": "is number of seconds to cover"
        }
      },
      "buyPolicyFor(address,uint256,uint256)": {
        "params": {
          "_coverTokens": "is number of tokens to cover  ",
          "_durationSeconds": "is number of seconds to cover",
          "_policyHolderAddr": "is address of address to assign cover"
        }
      },
      "getQuote(uint256,uint256)": {
        "params": {
          "_durationSeconds": "is number of seconds to cover",
          "_tokens": "is number of tokens to cover"
        },
        "returns": {
          "_daiTokens": "is amount of DAI policy costs"
        }
      },
      "isApprovedForAll(address,address)": {
        "details": "Returns true if `operator` is approved to transfer ``account``'s tokens. See {setApprovalForAll}."
      },
      "owner()": {
        "details": "Returns the address of the current owner."
      },
      "quoteStrategy()": {
        "returns": {
          "_quoteStrategy": "is address of Quote strategy contract used to calculate quote"
        }
      },
      "renounceOwnership()": {
        "details": "Leaves the contract without owner. It will not be possible to call `onlyOwner` functions anymore. Can only be called by the current owner. NOTE: Renouncing ownership will leave the contract without an owner, thereby removing any functionality that is only available to the owner."
      },
      "rewardForUnclaimedExpiredPolicy(uint256)": {
        "params": {
          "_policyId": "is id of policy to get reward for, reward will be sent to policy holder"
        }
      },
      "safeBatchTransferFrom(address,address,uint256[],uint256[],bytes)": {
        "details": "xref:ROOT:erc1155.adoc#batch-operations[Batched] version of {safeTransferFrom}. Emits a {TransferBatch} event. Requirements: - `ids` and `amounts` must have the same length. - If `to` refers to a smart contract, it must implement {IERC1155Receiver-onERC1155BatchReceived} and return the acceptance magic value."
      },
      "safeTransferFrom(address,address,uint256,uint256,bytes)": {
        "details": "Transfers `amount` tokens of token type `id` from `from` to `to`. Emits a {TransferSingle} event. Requirements: - `to` cannot be the zero address. - If the caller is not `from`, it must be have been approved to spend ``from``'s tokens via {setApprovalForAll}. - `from` must have a balance of tokens of type `id` of at least `amount`. - If `to` refers to a smart contract, it must implement {IERC1155Receiver-onERC1155Received} and return the acceptance magic value."
      },
      "setApprovalForAll(address,bool)": {
        "details": "Grants or revokes permission to `operator` to transfer the caller's tokens, according to `approved`, Emits an {ApprovalForAll} event. Requirements: - `operator` cannot be the caller."
      },
      "shieldAssets(uint256,uint256)": {
        "params": {
          "_limit": "is number of policy books to returns from _offset",
          "_offset": "is starting item in array to return array from"
        },
        "returns": {
          "_shieldAssets": "is addresses of shield assets, that will be distributed to Policy givers",
          "_shieldAssetsCount": "is number of added shield assets"
        }
      },
      "shieldAssetsCount()": {
        "returns": {
          "_shieldAssetsCount": "is number of added shield assets"
        }
      },
      "shieldAssetsWithBalance(uint256,uint256)": {
        "params": {
          "_limit": "is number of policy books to returns from _offset",
          "_offset": "is starting item in array to return array from"
        },
        "returns": {
          "_shieldAssetBalance": "is tokens amount of shield assets allocated to Policy Book,  to get specific shield asset balance lookup _shieldAssetBalances by same index as of shield asset",
          "_shieldAssets": "is addresses of shield assets, that will be distributed to Policy givers",
          "_shieldAssetsCount": "is number of added shield assets"
        }
      },
      "stats()": {
        "returns": {
          "_annualProfitYields": "is its APY",
          "_contractType": "is a type of insured contract",
          "_maxCapacities": "is a max token amount that a user can buy",
          "_name": "is the name of PolicyBook",
          "_totalDaiLiquidity": "is PolicyBook's liquidity"
        }
      },
      "supportsInterface(bytes4)": {
        "details": "See {IERC165-supportsInterface}. Time complexity O(1), guaranteed to always use less than 30 000 gas."
      },
      "transferFrom(address,address,uint256)": {
        "details": "Moves `amount` tokens from `sender` to `recipient` using the allowance mechanism. `amount` is then deducted from the caller's allowance. Returns a boolean value indicating whether the operation succeeded. Emits a {Transfer} event."
      },
      "transferOwnership(address)": {
        "details": "Transfers ownership of the contract to a new account (`newOwner`). Can only be called by the current owner."
      },
      "withdrawLiquidity(uint256)": {
        "params": {
          "_tokensToWithdraw": "is amount of DAI tokens to withdraw"
        }
      }
    },
    "version": 1
  },
  "userdoc": {
    "kind": "user",
    "methods": {
      "addLiquidity(uint256)": {
        "notice": "Let user to add liquidity by supplying DAI, access: ANY"
      },
      "addLiquidityFor(address,uint256)": {
        "notice": "Let user to add liqiudity for another user by supplying DAI, access: ANY"
      },
      "addShieldTokens(address,uint256)": {
        "notice": "Adds shield tokens to contract, access: ANY"
      },
      "allowance(address,address)": {
        "notice": "From ERC20"
      },
      "approve(address,uint256)": {
        "notice": "From ERC20"
      },
      "balanceOf(address)": {
        "notice": "From ERC20"
      },
      "buyPolicy(uint256,uint256)": {
        "notice": "Let user to buy policy by supplying DAI, access: ANY"
      },
      "buyPolicyFor(address,uint256,uint256)": {
        "notice": "Let user to buy policy for another user by supplying DAI, access: ANY"
      },
      "contractType()": {
        "notice": "Returns type of contract this PolicyBook covers, access: ANY"
      },
      "decreaseAllowance(address,uint256)": {
        "notice": "From ERC20"
      },
      "getQuote(uint256,uint256)": {
        "notice": "Let user to calculate policy cost in DAI, access: ANY"
      },
      "increaseAllowance(address,uint256)": {
        "notice": "From ERC20"
      },
      "insuranceContractAddress()": {
        "notice": "Returns address of contract this PolicyBook covers, access: ANY"
      },
      "quoteStrategy()": {
        "notice": "Returns quote strategy defined during creation of PolicyBook, access: ANY"
      },
      "rewardForUnclaimedExpiredPolicy(uint256)": {
        "notice": "Let user to claim rewards for unclaimed policy cost in DAI, access: ANY"
      },
      "shieldAssets(uint256,uint256)": {
        "notice": "Returns list of shield assets added to PolicyBook, access: ANY"
      },
      "shieldAssetsCount()": {
        "notice": "Returns number of shield assets added, access: ANY"
      },
      "shieldAssetsWithBalance(uint256,uint256)": {
        "notice": "Returns list of shield assets added with tokens amount allocated to Policy Book, access: ANY"
      },
      "stats()": {
        "notice": "Getting stats, access: ANY"
      },
      "totalSupply()": {
        "notice": "From ERC20"
      },
      "transfer(address,uint256)": {
        "notice": "From ERC20"
      },
      "withdrawLiquidity(uint256)": {
        "notice": "Let user to withdraw deposited liqiudity, access: ANY"
      }
    },
    "version": 1
  }
}