{
  "contractName": "PolicyBookFabric",
  "abi": [
    {
      "inputs": [
        {
          "internalType": "contract IPolicyBookRegistry",
          "name": "_registry",
          "type": "address"
        },
        {
          "internalType": "address",
          "name": "_daiAddr",
          "type": "address"
        }
      ],
      "stateMutability": "nonpayable",
      "type": "constructor"
    },
    {
      "anonymous": false,
      "inputs": [
        {
          "indexed": false,
          "internalType": "address",
          "name": "insured",
          "type": "address"
        },
        {
          "indexed": false,
          "internalType": "enum IPolicyBookFabric.ContractType",
          "name": "contractType",
          "type": "uint8"
        },
        {
          "indexed": false,
          "internalType": "address",
          "name": "at",
          "type": "address"
        }
      ],
      "name": "Created",
      "type": "event"
    },
    {
      "inputs": [],
      "name": "daiAddr",
      "outputs": [
        {
          "internalType": "address",
          "name": "",
          "type": "address"
        }
      ],
      "stateMutability": "view",
      "type": "function"
    },
    {
      "inputs": [],
      "name": "registry",
      "outputs": [
        {
          "internalType": "contract IPolicyBookRegistry",
          "name": "",
          "type": "address"
        }
      ],
      "stateMutability": "view",
      "type": "function"
    },
    {
      "inputs": [
        {
          "internalType": "address",
          "name": "_contract",
          "type": "address"
        },
        {
          "internalType": "enum IPolicyBookFabric.ContractType",
          "name": "_contractType",
          "type": "uint8"
        }
      ],
      "name": "create",
      "outputs": [
        {
          "internalType": "address",
          "name": "_policyBook",
          "type": "address"
        }
      ],
      "stateMutability": "nonpayable",
      "type": "function"
    },
    {
      "inputs": [
        {
          "internalType": "address",
          "name": "_contract",
          "type": "address"
        }
      ],
      "name": "policyBookFor",
      "outputs": [
        {
          "internalType": "address",
          "name": "_policyBook",
          "type": "address"
        }
      ],
      "stateMutability": "view",
      "type": "function"
    },
    {
      "inputs": [],
      "name": "policyBooksCount",
      "outputs": [
        {
          "internalType": "uint256",
          "name": "_policyBookCount",
          "type": "uint256"
        }
      ],
      "stateMutability": "view",
      "type": "function"
    },
    {
      "inputs": [
        {
          "internalType": "uint256",
          "name": "_offset",
          "type": "uint256"
        },
        {
          "internalType": "uint256",
          "name": "_limit",
          "type": "uint256"
        }
      ],
      "name": "policyBooks",
      "outputs": [
        {
          "internalType": "uint256",
          "name": "_policyBooksCount",
          "type": "uint256"
        },
        {
          "internalType": "address[]",
          "name": "_policyBooks",
          "type": "address[]"
        }
      ],
      "stateMutability": "view",
      "type": "function"
    }
  ],
  "bytecode": "0x608060405234801561001057600080fd5b506040516128de3803806128de8339818101604052604081101561003357600080fd5b508051602090910151600080546001600160a01b039384166001600160a01b031991821617909155600180549390921692169190911790556128648061007a6000396000f3fe608060405234801561001057600080fd5b50600436106100725760003560e01c806374fa0a631161005057806374fa0a63146101295780637b10399914610131578063d27842161461013957610072565b8063217c1552146100775780636697a437146100d35780637151f5e41461010f575b600080fd5b6100aa6004803603602081101561008d57600080fd5b503573ffffffffffffffffffffffffffffffffffffffff166101b7565b6040805173ffffffffffffffffffffffffffffffffffffffff9092168252519081900360200190f35b6100aa600480360360408110156100e957600080fd5b50803573ffffffffffffffffffffffffffffffffffffffff16906020013560ff1661025d565b610117610416565b60408051918252519081900360200190f35b6100aa6104b0565b6100aa6104cc565b61015c6004803603604081101561014f57600080fd5b50803590602001356104e8565b6040518083815260200180602001828103825283818151815260200191508051906020019060200280838360005b838110156101a257818101518382015260200161018a565b50505050905001935050505060405180910390f35b60008054604080517f217c155200000000000000000000000000000000000000000000000000000000815273ffffffffffffffffffffffffffffffffffffffff85811660048301529151919092169163217c1552916024808301926020929190829003018186803b15801561022b57600080fd5b505afa15801561023f573d6000803e3d6000fd5b505050506040513d602081101561025557600080fd5b505192915050565b6000808383600160009054906101000a900473ffffffffffffffffffffffffffffffffffffffff166040516102919061065a565b808473ffffffffffffffffffffffffffffffffffffffff1681526020018360038111156102ba57fe5b81526020018273ffffffffffffffffffffffffffffffffffffffff1681526020019350505050604051809103906000f0801580156102fc573d6000803e3d6000fd5b5060008054604080517f52c28fab00000000000000000000000000000000000000000000000000000000815273ffffffffffffffffffffffffffffffffffffffff8981166004830152808616602483015291519495509116926352c28fab9260448084019391929182900301818387803b15801561037957600080fd5b505af115801561038d573d6000803e3d6000fd5b505050507f4e28888a63ea403f5c073b7a200d807deb13db7afdb4eaf11fa1dbc96ebd6106848483604051808473ffffffffffffffffffffffffffffffffffffffff1681526020018360038111156103e157fe5b81526020018273ffffffffffffffffffffffffffffffffffffffff168152602001935050505060405180910390a19392505050565b60008060009054906101000a900473ffffffffffffffffffffffffffffffffffffffff1673ffffffffffffffffffffffffffffffffffffffff166306661abd6040518163ffffffff1660e01b815260040160206040518083038186803b15801561047f57600080fd5b505afa158015610493573d6000803e3d6000fd5b505050506040513d60208110156104a957600080fd5b5051905090565b60015473ffffffffffffffffffffffffffffffffffffffff1681565b60005473ffffffffffffffffffffffffffffffffffffffff1681565b60008054604080517f50fd73670000000000000000000000000000000000000000000000000000000081526004810186905260248101859052905160609273ffffffffffffffffffffffffffffffffffffffff16916350fd73679160448083019287929190829003018186803b15801561056157600080fd5b505afa158015610575573d6000803e3d6000fd5b505050506040513d6000823e601f3d9081017fffffffffffffffffffffffffffffffffffffffffffffffffffffffffffffffe016820160409081528110156105bc57600080fd5b8151602083018051604051929492938301929190846401000000008211156105e357600080fd5b9083019060208201858111156105f857600080fd5b825186602082028301116401000000008211171561061557600080fd5b82525081516020918201928201910280838360005b8381101561064257818101518382015260200161062a565b50505050905001604052505050915091509250929050565b6121c7806106688339019056fe60806040523480156200001157600080fd5b50604051620021c7380380620021c78339810160408190526200003491620001ed565b604080518082018252601681527f4272696467654d757475616c20496e737572616e6365000000000000000000006020808301918252835180850190945260078452660c4dad2888292f60cb1b908401528151919291620000989160039162000124565b508051620000ae90600490602084019062000124565b505060058054601260ff1990911617610100600160a81b0319166101006001600160a01b038716021780825584925060ff60a81b1916600160a81b836003811115620000f657fe5b0217905550600680546001600160a01b0319166001600160a01b0392909216919091179055506200023a9050565b828054600181600116156101000203166002900490600052602060002090601f0160209004810192826200015c5760008555620001a7565b82601f106200017757805160ff1916838001178555620001a7565b82800160010185558215620001a7579182015b82811115620001a75782518255916020019190600101906200018a565b50620001b5929150620001b9565b5090565b5b80821115620001b55760008155600101620001ba565b80516001600160a01b0381168114620001e857600080fd5b919050565b60008060006060848603121562000202578283fd5b6200020d84620001d0565b925060208401516004811062000221578283fd5b91506200023160408501620001d0565b90509250925092565b611f7d806200024a6000396000f3fe60806040526004361061026e5760003560e01c806379fac08c11610153578063c51a29e0116100cb578063e98a04e11161007f578063f4020b5b11610064578063f4020b5b146106a2578063f60ff937146106c2578063fc3dfc99146106d757610275565b8063e98a04e11461066d578063efa1f98a1461068257610275565b8063cfa8b3a8116100b0578063cfa8b3a814610613578063d80528ae14610628578063dd62ed3e1461064d57610275565b8063c51a29e0146105dc578063cbf5a55e146105fe57610275565b80639f7754cd11610122578063a9059cbb11610107578063a9059cbb14610587578063aaf5eb68146105a7578063c18c6057146105bc57610275565b80639f7754cd14610539578063a457c2d71461056757610275565b806379fac08c146104cc5780637cd0fc9b146104fa57806395d89b411461050f5780639c5900061461052457610275565b8063313ce567116101e657806351c6590a116101b557806370a082311161019a57806370a082311461045d57806370b68a2a1461047d578063758af3ab146104ac57610275565b806351c6590a14610428578063611258a51461044857610275565b8063313ce567146103af57806332a2c5d0146103d157806339509351146103f3578063514ea9bd1461041357610275565b806315770f921161023d578063188ff85411610222578063188ff8541461035a57806323b872dd1461037a5780632c865d6c1461039a57610275565b806315770f921461032357806318160ddd1461034557610275565b806306fdde031461027a578063095ea7b3146102a55780630a861f2a146102d25780630e82da53146102f457610275565b3661027557005b600080fd5b34801561028657600080fd5b5061028f6106f7565b60405161029c9190611b42565b60405180910390f35b3480156102b157600080fd5b506102c56102c0366004611915565b6107ab565b60405161029c9190611b23565b3480156102de57600080fd5b506102f26102ed366004611996565b6107c9565b005b34801561030057600080fd5b5061031461030f3660046119ae565b6109ef565b60405161029c93929190611d7e565b34801561032f57600080fd5b506103386109fb565b60405161029c9190611d54565b34801561035157600080fd5b50610338610a01565b34801561036657600080fd5b506102c5610375366004611915565b610a07565b34801561038657600080fd5b506102c56103953660046118da565b610a0f565b3480156103a657600080fd5b50610338610ab0565b3480156103bb57600080fd5b506103c4610ab5565b60405161029c9190611e17565b3480156103dd57600080fd5b506103e6610abe565b60405161029c9190611a4a565b3480156103ff57600080fd5b506102c561040e366004611915565b610adf565b34801561041f57600080fd5b50610338610b3a565b34801561043457600080fd5b506102f2610443366004611996565b610b43565b34801561045457600080fd5b50610338610b50565b34801561046957600080fd5b5061033861047836600461188e565b610b56565b34801561048957600080fd5b5061049d61049836600461188e565b610b82565b60405161029c93929190611de6565b3480156104b857600080fd5b506103386104c73660046119ae565b610ba3565b3480156104d857600080fd5b506104ec6104e73660046119ae565b610bb6565b60405161029c929190611d5d565b34801561050657600080fd5b506103e6610ab0565b34801561051b57600080fd5b5061028f610bc0565b34801561053057600080fd5b50610338610c3f565b34801561054557600080fd5b5061055961055436600461188e565b610c48565b60405161029c929190611dd8565b34801561057357600080fd5b506102c5610582366004611915565b610c61565b34801561059357600080fd5b506102c56105a2366004611915565b610cd6565b3480156105b357600080fd5b50610338610cea565b3480156105c857600080fd5b506102f26105d7366004611996565b610b4d565b3480156105e857600080fd5b506105f1610cf3565b60405161029c9190611b2e565b34801561060a57600080fd5b50610338610d15565b34801561061f57600080fd5b50610338610d1e565b34801561063457600080fd5b5061063d610d28565b60405161029c9493929190611dfc565b34801561065957600080fd5b506103386106683660046118a8565b610d32565b34801561067957600080fd5b50610338610d6a565b34801561068e57600080fd5b506102f261069d366004611915565b610d73565b3480156106ae57600080fd5b506102f26106bd3660046119cf565b610d81565b3480156106ce57600080fd5b50610338610d92565b3480156106e357600080fd5b506102f26106f236600461193e565b610d98565b60038054604080516020601f60027fffffffffffffffffffffffffffffffffffffffffffffffffffffffffffffffff6101006001881615020190951694909404938401819004810282018101909252828152606093909290918301828280156107a15780601f10610776576101008083540402835291602001916107a1565b820191906000526020600020905b81548152906001019060200180831161078457829003601f168201915b5050505050905090565b60006107bf6107b8610daa565b8484610dae565b5060015b92915050565b6107d161182f565b5033600090815260096020908152604091829020825180840190935280548352600101549082018190526108205760405162461bcd60e51b815260040161081790611c56565b60405180910390fd5b600061082b33610ec1565b825190915061083a9082610ec7565b82526007546108499082610ec7565b600755815183111561086d5760405162461bcd60e51b815260040161081790611cf7565b60085460075461087d9085610f21565b101561089b5760405162461bcd60e51b815260040161081790611cc0565b81516108a79084610f21565b82524260208084019182523360009081526009909152604090208351815590516001909101556007546108da9084610f21565b6007556006546040517fa9059cbb00000000000000000000000000000000000000000000000000000000815273ffffffffffffffffffffffffffffffffffffffff90911690600090829063a9059cbb9061093a9033908990600401611a6b565b602060405180830381600087803b15801561095457600080fd5b505af1158015610968573d6000803e3d6000fd5b505050506040513d601f19601f8201168201806040525081019061098c9190611976565b9050806109ab5760405162461bcd60e51b815260040161081790611c1f565b7fac927268ea9ae2e55027e6ab727fc2db8e3ea48c56c658223a1074567e4298c033866007546040516109e093929190611a91565b60405180910390a15050505050565b60006060809250925092565b60075481565b60025490565b600092915050565b6000610a1c848484610f63565b610aa684610a28610daa565b610aa185604051806060016040528060288152602001611eb26028913973ffffffffffffffffffffffffffffffffffffffff8a16600090815260016020526040812090610a73610daa565b73ffffffffffffffffffffffffffffffffffffffff16815260208101919091526040016000205491906110ff565b610dae565b5060019392505050565b600090565b60055460ff1690565b600554610100900473ffffffffffffffffffffffffffffffffffffffff1690565b60006107bf610aec610daa565b84610aa18560016000610afd610daa565b73ffffffffffffffffffffffffffffffffffffffff908116825260208083019390935260409182016000908120918c168152925290205490610ec7565b6445d964b80081565b610b4d3382611196565b50565b61016d81565b73ffffffffffffffffffffffffffffffffffffffff81166000908152602081905260409020545b919050565b600a6020526000908152604090208054600182015460029092015490919083565b6000610baf838361136d565b9392505050565b5060009160609150565b60048054604080516020601f60027fffffffffffffffffffffffffffffffffffffffffffffffffffffffffffffffff6101006001881615020190951694909404938401819004810282018101909252828152606093909290918301828280156107a15780601f10610776576101008083540402835291602001916107a1565b640ba43b740081565b6009602052600090815260409020805460019091015482565b60006107bf610c6e610daa565b84610aa185604051806060016040528060258152602001611f236025913960016000610c98610daa565b73ffffffffffffffffffffffffffffffffffffffff908116825260208083019390935260409182016000908120918d168152925290205491906110ff565b60006107bf610ce3610daa565b8484610f63565b6402540be40081565b6005547501000000000000000000000000000000000000000000900460ff1690565b64e8d4a5100081565b65015d3ef7980081565b6000808080919293565b73ffffffffffffffffffffffffffffffffffffffff918216600090815260016020908152604080832093909416825291909152205490565b64a2fb40580081565b610d7d8282611196565b5050565b610d8d3384848461146b565b505050565b60085481565b610da48484848461146b565b50505050565b3390565b73ffffffffffffffffffffffffffffffffffffffff8316610e005760405162461bcd60e51b8152600401808060200182810382526024815260200180611eff6024913960400191505060405180910390fd5b73ffffffffffffffffffffffffffffffffffffffff8216610e525760405162461bcd60e51b8152600401808060200182810382526022815260200180611e496022913960400191505060405180910390fd5b73ffffffffffffffffffffffffffffffffffffffff808416600081815260016020908152604080832094871680845294825291829020859055815185815291517f8c5be1e5ebec7d5bd14f71427d1e84f3dd0314c0f7b2291e5b200ac8c7c3b9259281900390910190a3505050565b50600090565b600082820183811015610baf576040805162461bcd60e51b815260206004820152601b60248201527f536166654d6174683a206164646974696f6e206f766572666c6f770000000000604482015290519081900360640190fd5b6000610baf83836040518060400160405280601e81526020017f536166654d6174683a207375627472616374696f6e206f766572666c6f7700008152506110ff565b73ffffffffffffffffffffffffffffffffffffffff8316610fb55760405162461bcd60e51b8152600401808060200182810382526025815260200180611eda6025913960400191505060405180910390fd5b73ffffffffffffffffffffffffffffffffffffffff82166110075760405162461bcd60e51b8152600401808060200182810382526023815260200180611e266023913960400191505060405180910390fd5b611012838383610d8d565b61105c81604051806060016040528060268152602001611e6b6026913973ffffffffffffffffffffffffffffffffffffffff861660009081526020819052604090205491906110ff565b73ffffffffffffffffffffffffffffffffffffffff80851660009081526020819052604080822093909355908416815220546110989082610ec7565b73ffffffffffffffffffffffffffffffffffffffff8084166000818152602081815260409182902094909455805185815290519193928716927fddf252ad1be2c89b69c2b068fc378daa952ba7f163c4a11628f55a4df523b3ef92918290030190a3505050565b6000818484111561118e5760405162461bcd60e51b81526004018080602001828103825283818151815260200191508051906020019080838360005b8381101561115357818101518382015260200161113b565b50505050905090810190601f1680156111805780820380516001836020036101000a031916815260200191505b509250505060405180910390fd5b505050900390565b61119e61182f565b5073ffffffffffffffffffffffffffffffffffffffff82166000908152600960209081526040808320815180830190925280548252600101549181018290529190156111f0576111ed84610ec1565b90505b60006111fc8483610ec7565b835190915061120b9082610ec7565b835242602080850191825273ffffffffffffffffffffffffffffffffffffffff871660009081526009909152604090208451815590516001909101556007546112549082610ec7565b6007556006546040517f23b872dd00000000000000000000000000000000000000000000000000000000815273ffffffffffffffffffffffffffffffffffffffff9091169060009082906323b872dd906112b6908a9030908b90600401611abf565b602060405180830381600087803b1580156112d057600080fd5b505af11580156112e4573d6000803e3d6000fd5b505050506040513d601f19601f820116820180604052508101906113089190611976565b9050806113275760405162461bcd60e51b815260040161081790611c1f565b7f06239653922ac7bea6aa2b19dc486b9361821d37712eb796adfd38d81de278ca878760075460405161135c93929190611a91565b60405180910390a150505050505050565b600060075461138783600854610ec790919063ffffffff16565b11156113a55760405162461bcd60e51b815260040161081790611bea565b6000600754116113c75760405162461bcd60e51b815260040161081790611bb3565b60006113fc6007546113f66402540be4006064026113f087600854610ec790919063ffffffff16565b9061168d565b906116e6565b9050600064a2fb40580082101561141d5761141682611728565b9050611429565b61142682611742565b90505b61143881640ba43b74006117b3565b9050600061144c61016d6113f6888561168d565b905061146164e8d4a510006113f6878461168d565b9695505050505050565b611473611849565b5073ffffffffffffffffffffffffffffffffffffffff84166000908152600a6020908152604091829020825160608101845281548152600182015492810183905260029091015492810192909252156114de5760405162461bcd60e51b815260040161081790611c8b565b6008546114eb9084610ec7565b600754101561150c5760405162461bcd60e51b815260040161081790611cc0565b6000611518858561136d565b8483526020808401878152604080860187815273ffffffffffffffffffffffffffffffffffffffff8b166000908152600a9094529220855181559051600182015590516002909101556008549091506115719085610ec7565b6008556006546040517f23b872dd00000000000000000000000000000000000000000000000000000000815273ffffffffffffffffffffffffffffffffffffffff9091169060009082906323b872dd906115d3908b9030908890600401611abf565b602060405180830381600087803b1580156115ed57600080fd5b505af1158015611601573d6000803e3d6000fd5b505050506040513d601f19601f820116820180604052508101906116259190611976565b9050806116445760405162461bcd60e51b815260040161081790611c1f565b7f1cd728a6e764ed0dcddb6e5b88d736a4a8d2a0d420ca373588f7a1109e18663f88878560085460405161167b9493929190611af0565b60405180910390a15050505050505050565b60008261169c575060006107c3565b828202828482816116a957fe5b0414610baf5760405162461bcd60e51b8152600401808060200182810382526021815260200180611e916021913960400191505060405180910390fd5b6000610baf83836040518060400160405280601a81526020017f536166654d6174683a206469766973696f6e206279207a65726f0000000000008152506117ca565b60006107c364a2fb4058006113f6846445d964b80061168d565b60008061177a61175c64e8d4a5100064a2fb405800610f21565b6113f661176e8664a2fb405800610f21565b6402540be4009061168d565b9050610baf6117a76402540be4006113f66117a065015d3ef798006445d964b800610f21565b859061168d565b6445d964b80090610ec7565b6000818310156117c35781610baf565b5090919050565b600081836118195760405162461bcd60e51b815260206004820181815283516024840152835190928392604490910191908501908083836000831561115357818101518382015260200161113b565b50600083858161182557fe5b0495945050505050565b604051806040016040528060008152602001600081525090565b60405180606001604052806000815260200160008152602001600081525090565b803573ffffffffffffffffffffffffffffffffffffffff81168114610b7d57600080fd5b60006020828403121561189f578081fd5b610baf8261186a565b600080604083850312156118ba578081fd5b6118c38361186a565b91506118d16020840161186a565b90509250929050565b6000806000606084860312156118ee578081fd5b6118f78461186a565b92506119056020850161186a565b9150604084013590509250925092565b60008060408385031215611927578182fd5b6119308361186a565b946020939093013593505050565b60008060008060808587031215611953578081fd5b61195c8561186a565b966020860135965060408601359560600135945092505050565b600060208284031215611987578081fd5b81518015158114610baf578182fd5b6000602082840312156119a7578081fd5b5035919050565b600080604083850312156119c0578182fd5b50508035926020909101359150565b6000806000606084860312156119e3578283fd5b505081359360208301359350604090920135919050565b6000815180845260208085019450808401835b83811015611a3f57815173ffffffffffffffffffffffffffffffffffffffff1687529582019590820190600101611a0d565b509495945050505050565b73ffffffffffffffffffffffffffffffffffffffff91909116815260200190565b73ffffffffffffffffffffffffffffffffffffffff929092168252602082015260400190565b73ffffffffffffffffffffffffffffffffffffffff9390931683526020830191909152604082015260600190565b73ffffffffffffffffffffffffffffffffffffffff9384168152919092166020820152604081019190915260600190565b73ffffffffffffffffffffffffffffffffffffffff94909416845260208401929092526040830152606082015260800190565b901515815260200190565b6020810160048310611b3c57fe5b91905290565b6000602080835283518082850152825b81811015611b6e57858101830151858201604001528201611b52565b81811115611b7f5783604083870101525b50601f017fffffffffffffffffffffffffffffffffffffffffffffffffffffffffffffffe016929092016040019392505050565b60208082526011908201527f54686520706f6f6c20697320656d707479000000000000000000000000000000604082015260600190565b6020808252818101527f526571756972696e67206d6f7265207468616e20746865726520657869737473604082015260600190565b60208082526019908201527f4661696c656420746f207472616e7366657220746f6b656e7300000000000000604082015260600190565b6020808252818101527f4c697175696469747920686f6c64657220646f6573206e6f7420657869737473604082015260600190565b6020808252818101527f54686520706f6c69637920686f6c64657220616c726561647920657869737473604082015260600190565b6020808252601e908201527f4e6f7420656e6f75676820617661696c61626c65206c69717569646974790000604082015260600190565b6020808252603f908201527f54686520616d6f756e7420746f2062652077697468647261776e20697320677260408201527f6561746572207468616e20746865206465706f736974656420616d6f756e7400606082015260800190565b90815260200190565b600083825260406020830152611d7660408301846119fa565b949350505050565b60008482526020606081840152611d9860608401866119fa565b8381036040850152845180825282860191830190845b81811015611dca57835183529284019291840191600101611dae565b509098975050505050505050565b918252602082015260400190565b9283526020830191909152604082015260600190565b93845260208401929092526040830152606082015260800190565b60ff9190911681526020019056fe45524332303a207472616e7366657220746f20746865207a65726f206164647265737345524332303a20617070726f766520746f20746865207a65726f206164647265737345524332303a207472616e7366657220616d6f756e7420657863656564732062616c616e6365536166654d6174683a206d756c7469706c69636174696f6e206f766572666c6f7745524332303a207472616e7366657220616d6f756e74206578636565647320616c6c6f77616e636545524332303a207472616e736665722066726f6d20746865207a65726f206164647265737345524332303a20617070726f76652066726f6d20746865207a65726f206164647265737345524332303a2064656372656173656420616c6c6f77616e63652062656c6f77207a65726fa2646970667358221220dcf889be50d8a2fdffa4a6efd4d5162f701d924732588643e07d62fdc6e22d9564736f6c63430007040033a2646970667358221220e3b2b5d8a653f7fde08120b31693202b4b844d912700747f57dbd4d8d035137c64736f6c63430007040033",
  "immutableReferences": {},
  "source": "// SPDX-License-Identifier: MIT\npragma solidity ^0.7.4;\n\nimport \"@openzeppelin/contracts/math/Math.sol\";\n\nimport \"./interfaces/IPolicyBookFabric.sol\";\nimport \"./interfaces/IPolicyBookRegistry.sol\";\nimport \"./PolicyBook.sol\";\n\ncontract PolicyBookFabric is IPolicyBookFabric {\n  using Math for uint256;\n\n  IPolicyBookRegistry public registry;\n  address public daiAddr;\n\n  event Created(address insured, ContractType contractType, address at);\n\n  constructor(IPolicyBookRegistry _registry, address _daiAddr) {\n    registry = _registry;\n    daiAddr = _daiAddr;\n  }\n\n  function create(address _contract, ContractType _contractType) external override returns (address _policyBook) {\n    PolicyBook _newPolicyBook = new PolicyBook(_contract, _contractType, daiAddr);\n    registry.add(_contract, address(_newPolicyBook));\n\n    emit Created(_contract, _contractType, address(_newPolicyBook));\n\n    return address(_newPolicyBook);\n  }\n\n  function policyBookFor(address _contract) external view override returns (address _policyBook) {\n    return registry.policyBookFor(_contract);\n  }\n\n  function policyBooksCount() external view override returns (uint256 _policyBookCount) {\n    return registry.count();\n  }\n\n  function policyBooks(uint256 _offset, uint256 _limit)\n    external\n    view\n    override\n    returns (uint256 _policyBooksCount, address[] memory _policyBooks)\n  {\n    return registry.list(_offset, _limit);\n  }\n}\n",
  "sourcePath": "/Users/armenarakelian/Documents/GitHub/bridgemutual-core/contracts/PolicyBookFabric.sol",
  "compiler": {
    "name": "solc",
    "version": "0.7.4+commit.3f05b770.Emscripten.clang"
  },
  "schemaVersion": "3.2.0-tezos.1",
  "updatedAt": "2021-01-18T12:01:15.856Z",
  "devdoc": {
    "kind": "dev",
    "methods": {
      "create(address,uint8)": {
        "params": {
          "_contract": "is Contract to create policy book for",
          "_contractType": "is Contract to create policy book for"
        },
        "returns": {
          "_policyBook": "is address of created contract"
        }
      },
      "policyBookFor(address)": {
        "params": {
          "_contract": "is contract address to lookup for created IPolicyBook"
        },
        "returns": {
          "_policyBook": "is policy book address if exists for passed contract address, if not it will return address(0)"
        }
      },
      "policyBooks(uint256,uint256)": {
        "params": {
          "_limit": "is number of policy books to returns from _offset",
          "_offset": "is starting item in array to return array from"
        },
        "returns": {
          "_policyBooks": "is array of contract addresses",
          "_policyBooksCount": "is updated number of policy books"
        }
      },
      "policyBooksCount()": {
        "returns": {
          "_policyBookCount": "is number of created policy books"
        }
      }
    },
    "version": 1
  },
  "userdoc": {
    "kind": "user",
    "methods": {
      "create(address,uint8)": {
        "notice": "Create new Policy Book contract, access: ANY"
      },
      "policyBookFor(address)": {
        "notice": "Return created Policy Book contract, access: ANY"
      },
      "policyBooks(uint256,uint256)": {
        "notice": "Returns number of created Policy Book contracts address, access: ANY"
      },
      "policyBooksCount()": {
        "notice": "Returns number of created Policy Book contracts, access: ANY"
      }
    },
    "version": 1
  }
}