{
  "contractName": "PolicyBookFabric",
  "abi": [
    {
      "inputs": [
        {
          "internalType": "contract IPolicyBookRegistry",
          "name": "_registry",
          "type": "address"
        },
        {
          "internalType": "address",
          "name": "_daiAddr",
          "type": "address"
        }
      ],
      "stateMutability": "nonpayable",
      "type": "constructor"
    },
    {
      "anonymous": false,
      "inputs": [
        {
          "indexed": false,
          "internalType": "address",
          "name": "insured",
          "type": "address"
        },
        {
          "indexed": false,
          "internalType": "enum IPolicyBookFabric.ContractType",
          "name": "contractType",
          "type": "uint8"
        },
        {
          "indexed": false,
          "internalType": "address",
          "name": "at",
          "type": "address"
        }
      ],
      "name": "Created",
      "type": "event"
    },
    {
      "inputs": [],
      "name": "daiAddr",
      "outputs": [
        {
          "internalType": "address",
          "name": "",
          "type": "address"
        }
      ],
      "stateMutability": "view",
      "type": "function"
    },
    {
      "inputs": [],
      "name": "registry",
      "outputs": [
        {
          "internalType": "contract IPolicyBookRegistry",
          "name": "",
          "type": "address"
        }
      ],
      "stateMutability": "view",
      "type": "function"
    },
    {
      "inputs": [
        {
          "internalType": "address",
          "name": "_insuranceContract",
          "type": "address"
        },
        {
          "internalType": "enum IPolicyBookFabric.ContractType",
          "name": "_contractType",
          "type": "uint8"
        },
        {
          "internalType": "string",
          "name": "_description",
          "type": "string"
        },
        {
          "internalType": "string",
          "name": "_projectSymbol",
          "type": "string"
        }
      ],
      "name": "create",
      "outputs": [
        {
          "internalType": "address",
          "name": "_policyBook",
          "type": "address"
        }
      ],
      "stateMutability": "nonpayable",
      "type": "function"
    },
    {
      "inputs": [
        {
          "internalType": "address",
          "name": "_contract",
          "type": "address"
        }
      ],
      "name": "policyBookFor",
      "outputs": [
        {
          "internalType": "address",
          "name": "_policyBook",
          "type": "address"
        }
      ],
      "stateMutability": "view",
      "type": "function"
    },
    {
      "inputs": [],
      "name": "policyBooksCount",
      "outputs": [
        {
          "internalType": "uint256",
          "name": "_policyBookCount",
          "type": "uint256"
        }
      ],
      "stateMutability": "view",
      "type": "function"
    },
    {
      "inputs": [
        {
          "internalType": "uint256",
          "name": "_offset",
          "type": "uint256"
        },
        {
          "internalType": "uint256",
          "name": "_limit",
          "type": "uint256"
        }
      ],
      "name": "policyBooks",
      "outputs": [
        {
          "internalType": "uint256",
          "name": "_policyBooksCount",
          "type": "uint256"
        },
        {
          "internalType": "address[]",
          "name": "_policyBooks",
          "type": "address[]"
        }
      ],
      "stateMutability": "view",
      "type": "function"
    }
  ],
  "bytecode": "0x608060405234801561001057600080fd5b50604051612c49380380612c498339818101604052604081101561003357600080fd5b508051602090910151600080546001600160a01b039384166001600160a01b03199182161790915560018054939092169216919091179055612bcf8061007a6000396000f3fe608060405234801561001057600080fd5b50600436106100725760003560e01c80637b103999116100505780637b103999146100f5578063ade30a8a146100fd578063d27842161461024f57610072565b8063217c1552146100775780637151f5e4146100d357806374fa0a63146100ed575b600080fd5b6100aa6004803603602081101561008d57600080fd5b503573ffffffffffffffffffffffffffffffffffffffff166102cd565b6040805173ffffffffffffffffffffffffffffffffffffffff9092168252519081900360200190f35b6100db610373565b60408051918252519081900360200190f35b6100aa61040d565b6100aa610429565b6100aa6004803603608081101561011357600080fd5b73ffffffffffffffffffffffffffffffffffffffff8235169160ff6020820135169181019060608101604082013564010000000081111561015357600080fd5b82018360208201111561016557600080fd5b8035906020019184600183028401116401000000008311171561018757600080fd5b91908080601f01602080910402602001604051908101604052809392919081815260200183838082843760009201919091525092959493602081019350359150506401000000008111156101da57600080fd5b8201836020820111156101ec57600080fd5b8035906020019184600183028401116401000000008311171561020e57600080fd5b91908080601f016020809104026020016040519081016040528093929190818152602001838380828437600092019190915250929550610445945050505050565b6102726004803603604081101561026557600080fd5b50803590602001356106d1565b6040518083815260200180602001828103825283818151815260200191508051906020019060200280838360005b838110156102b85781810151838201526020016102a0565b50505050905001935050505060405180910390f35b60008054604080517f217c155200000000000000000000000000000000000000000000000000000000815273ffffffffffffffffffffffffffffffffffffffff85811660048301529151919092169163217c1552916024808301926020929190829003018186803b15801561034157600080fd5b505afa158015610355573d6000803e3d6000fd5b505050506040513d602081101561036b57600080fd5b505192915050565b60008060009054906101000a900473ffffffffffffffffffffffffffffffffffffffff1673ffffffffffffffffffffffffffffffffffffffff166306661abd6040518163ffffffff1660e01b815260040160206040518083038186803b1580156103dc57600080fd5b505afa1580156103f0573d6000803e3d6000fd5b505050506040513d602081101561040657600080fd5b5051905090565b60015473ffffffffffffffffffffffffffffffffffffffff1681565b60005473ffffffffffffffffffffffffffffffffffffffff1681565b6000808585600160009054906101000a900473ffffffffffffffffffffffffffffffffffffffff16868660405161047b90610843565b808673ffffffffffffffffffffffffffffffffffffffff1681526020018560038111156104a457fe5b81526020018473ffffffffffffffffffffffffffffffffffffffff1681526020018060200180602001838103835285818151815260200191508051906020019080838360005b838110156105025781810151838201526020016104ea565b50505050905090810190601f16801561052f5780820380516001836020036101000a031916815260200191505b50838103825284518152845160209182019186019080838360005b8381101561056257818101518382015260200161054a565b50505050905090810190601f16801561058f5780820380516001836020036101000a031916815260200191505b50975050505050505050604051809103906000f0801580156105b5573d6000803e3d6000fd5b5060008054604080517f52c28fab00000000000000000000000000000000000000000000000000000000815273ffffffffffffffffffffffffffffffffffffffff8b81166004830152808616602483015291519495509116926352c28fab9260448084019391929182900301818387803b15801561063257600080fd5b505af1158015610646573d6000803e3d6000fd5b505050507f4e28888a63ea403f5c073b7a200d807deb13db7afdb4eaf11fa1dbc96ebd6106868683604051808473ffffffffffffffffffffffffffffffffffffffff16815260200183600381111561069a57fe5b81526020018273ffffffffffffffffffffffffffffffffffffffff168152602001935050505060405180910390a195945050505050565b60008054604080517f50fd73670000000000000000000000000000000000000000000000000000000081526004810186905260248101859052905160609273ffffffffffffffffffffffffffffffffffffffff16916350fd73679160448083019287929190829003018186803b15801561074a57600080fd5b505afa15801561075e573d6000803e3d6000fd5b505050506040513d6000823e601f3d9081017fffffffffffffffffffffffffffffffffffffffffffffffffffffffffffffffe016820160409081528110156107a557600080fd5b8151602083018051604051929492938301929190846401000000008211156107cc57600080fd5b9083019060208201858111156107e157600080fd5b82518660208202830111640100000000821117156107fe57600080fd5b82525081516020918201928201910280838360005b8381101561082b578181015183820152602001610813565b50505050905001604052505050915091509250929050565b612349806108518339019056fe60806040523480156200001157600080fd5b506040516200234938038062002349833981016040819052620000349162000242565b8181604051602001620000489190620002e6565b60408051601f1981840301815291905281516200006d906003906020850190620000fc565b50805162000083906004906020840190620000fc565b505060058054601260ff1990911617610100600160a81b0319166101006001600160a01b038916021780825586925060ff60a81b1916600160a81b836003811115620000cb57fe5b021790555050600680546001600160a01b0319166001600160a01b0393909316929092179091555062000349915050565b828054600181600116156101000203166002900490600052602060002090601f0160209004810192826200013457600085556200017f565b82601f106200014f57805160ff19168380011785556200017f565b828001600101855582156200017f579182015b828111156200017f57825182559160200191906001019062000162565b506200018d92915062000191565b5090565b5b808211156200018d576000815560010162000192565b80516001600160a01b0381168114620001c057600080fd5b919050565b600082601f830112620001d6578081fd5b81516001600160401b0380821115620001eb57fe5b604051601f8301601f1916810160200182811182821017156200020a57fe5b6040528281529250828483016020018610156200022657600080fd5b6200023983602083016020880162000316565b50505092915050565b600080600080600060a086880312156200025a578081fd5b6200026586620001a8565b945060208601516004811062000279578182fd5b93506200028960408701620001a8565b60608701519093506001600160401b0380821115620002a6578283fd5b620002b489838a01620001c5565b93506080880151915080821115620002ca578283fd5b50620002d988828901620001c5565b9150509295509295909350565b600065626d6944414960d01b825282516200030981600685016020870162000316565b9190910160060192915050565b60005b838110156200033357818101518382015260200162000319565b8381111562000343576000848401525b50505050565b611ff080620003596000396000f3fe6080604052600436106102535760003560e01c80637cd0fc9b11610138578063cbf5a55e116100b0578063e98a04e11161007f578063f4020b5b11610064578063f4020b5b14610659578063f60ff93714610679578063fc3dfc991461068e5761025a565b8063e98a04e114610624578063efa1f98a146106395761025a565b8063cbf5a55e146105b5578063cfa8b3a8146105ca578063d80528ae146105df578063dd62ed3e146106045761025a565b8063a9059cbb11610107578063bc5d198a116100ec578063bc5d198a1461055e578063c18c605714610573578063cb2ef6f7146105935761025a565b8063a9059cbb14610529578063aaf5eb68146105495761025a565b80637cd0fc9b146104ca57806395d89b41146104df5780639c590006146104f4578063a457c2d7146105095761025a565b80632c865d6c116101cb57806351c6590a1161019a57806370b68a2a1161017f57806370b68a2a1461044d578063758af3ab1461047c57806379fac08c1461049c5761025a565b806351c6590a1461040d57806370a082311461042d5761025a565b80632c865d6c146103a1578063313ce567146103b657806339509351146103d8578063514ea9bd146103f85761025a565b806314c179c01161022257806318160ddd1161020757806318160ddd1461034c578063188ff8541461036157806323b872dd146103815761025a565b806314c179c01461030857806315770f921461032a5761025a565b806306fdde031461025f578063095ea7b31461028a5780630a861f2a146102b75780630e82da53146102d95761025a565b3661025a57005b600080fd5b34801561026b57600080fd5b506102746106ae565b6040516102819190611bb5565b60405180910390f35b34801561029657600080fd5b506102aa6102a5366004611988565b610762565b6040516102819190611b96565b3480156102c357600080fd5b506102d76102d2366004611a09565b610780565b005b3480156102e557600080fd5b506102f96102f4366004611a21565b610904565b60405161028193929190611dbc565b34801561031457600080fd5b5061031d610910565b6040516102819190611abd565b34801561033657600080fd5b5061033f610931565b6040516102819190611d92565b34801561035857600080fd5b5061033f610937565b34801561036d57600080fd5b506102aa61037c366004611988565b61093d565b34801561038d57600080fd5b506102aa61039c36600461194d565b610945565b3480156103ad57600080fd5b5061033f6109e6565b3480156103c257600080fd5b506103cb6109eb565b6040516102819190611e47565b3480156103e457600080fd5b506102aa6103f3366004611988565b6109f4565b34801561040457600080fd5b5061033f610a4f565b34801561041957600080fd5b506102d7610428366004611a09565b610a58565b34801561043957600080fd5b5061033f610448366004611901565b610a65565b34801561045957600080fd5b5061046d610468366004611901565b610a91565b60405161028193929190611e16565b34801561048857600080fd5b5061033f610497366004611a21565b610ab2565b3480156104a857600080fd5b506104bc6104b7366004611a21565b610ac5565b604051610281929190611d9b565b3480156104d657600080fd5b5061031d6109e6565b3480156104eb57600080fd5b50610274610acf565b34801561050057600080fd5b5061033f610b4e565b34801561051557600080fd5b506102aa610524366004611988565b610b57565b34801561053557600080fd5b506102aa610544366004611988565b610bcc565b34801561055557600080fd5b5061033f610be0565b34801561056a57600080fd5b5061033f610be9565b34801561057f57600080fd5b506102d761058e366004611a09565b610a62565b34801561059f57600080fd5b506105a8610bf1565b6040516102819190611ba1565b3480156105c157600080fd5b5061033f610c13565b3480156105d657600080fd5b5061033f610c1c565b3480156105eb57600080fd5b506105f4610c26565b6040516102819493929190611e2c565b34801561061057600080fd5b5061033f61061f36600461191b565b610c30565b34801561063057600080fd5b5061033f610c68565b34801561064557600080fd5b506102d7610654366004611988565b610c71565b34801561066557600080fd5b506102d7610674366004611a42565b610c7f565b34801561068557600080fd5b5061033f610c90565b34801561069a57600080fd5b506102d76106a93660046119b1565b610c96565b60038054604080516020601f60027fffffffffffffffffffffffffffffffffffffffffffffffffffffffffffffffff6101006001881615020190951694909404938401819004810282018101909252828152606093909290918301828280156107585780601f1061072d57610100808354040283529160200191610758565b820191906000526020600020905b81548152906001019060200180831161073b57829003601f168201915b5050505050905090565b600061077661076f610ca8565b8484610cac565b5060015b92915050565b8061078a33610a65565b10156107b15760405162461bcd60e51b81526004016107a890611d35565b60405180910390fd5b6008546007546107c19083610dbf565b10156107df5760405162461bcd60e51b81526004016107a890611cfe565b6006546040517fa9059cbb00000000000000000000000000000000000000000000000000000000815260009173ffffffffffffffffffffffffffffffffffffffff169063a9059cbb906108389033908690600401611ade565b602060405180830381600087803b15801561085257600080fd5b505af1158015610866573d6000803e3d6000fd5b505050506040513d601f19601f8201168201806040525081019061088a91906119e9565b9050806108a95760405162461bcd60e51b81526004016107a890611c92565b6007546108b69083610dbf565b6007556108c33383610e01565b7fac927268ea9ae2e55027e6ab727fc2db8e3ea48c56c658223a1074567e4298c033836007546040516108f893929190611b04565b60405180910390a15050565b60006060809250925092565b600554610100900473ffffffffffffffffffffffffffffffffffffffff1681565b60075481565b60025490565b600092915050565b6000610952848484610f31565b6109dc8461095e610ca8565b6109d785604051806060016040528060288152602001611f046028913973ffffffffffffffffffffffffffffffffffffffff8a166000908152600160205260408120906109a9610ca8565b73ffffffffffffffffffffffffffffffffffffffff16815260208101919091526040016000205491906110cd565b610cac565b5060019392505050565b600090565b60055460ff1690565b6000610776610a01610ca8565b846109d78560016000610a12610ca8565b73ffffffffffffffffffffffffffffffffffffffff908116825260208083019390935260409182016000908120918c168152925290205490611164565b6445d964b80081565b610a6233826111be565b50565b73ffffffffffffffffffffffffffffffffffffffff81166000908152602081905260409020545b919050565b60096020526000908152604090208054600182015460029092015490919083565b6000610abe83836112e6565b9392505050565b5060009160609150565b60048054604080516020601f60027fffffffffffffffffffffffffffffffffffffffffffffffffffffffffffffffff6101006001881615020190951694909404938401819004810282018101909252828152606093909290918301828280156107585780601f1061072d57610100808354040283529160200191610758565b640ba43b740081565b6000610776610b64610ca8565b846109d785604051806060016040528060258152602001611f966025913960016000610b8e610ca8565b73ffffffffffffffffffffffffffffffffffffffff908116825260208083019390935260409182016000908120918d168152925290205491906110cd565b6000610776610bd9610ca8565b8484610f31565b6402540be40081565b6301e1338081565b6005547501000000000000000000000000000000000000000000900460ff1681565b64e8d4a5100081565b65015d3ef7980081565b6000808080919293565b73ffffffffffffffffffffffffffffffffffffffff918216600090815260016020908152604080832093909416825291909152205490565b64a2fb40580081565b610c7b82826111be565b5050565b610c8b338484846113e6565b505050565b60085481565b610ca2848484846113e6565b50505050565b3390565b73ffffffffffffffffffffffffffffffffffffffff8316610cfe5760405162461bcd60e51b8152600401808060200182810382526024815260200180611f726024913960400191505060405180910390fd5b73ffffffffffffffffffffffffffffffffffffffff8216610d505760405162461bcd60e51b8152600401808060200182810382526022815260200180611e9b6022913960400191505060405180910390fd5b73ffffffffffffffffffffffffffffffffffffffff808416600081815260016020908152604080832094871680845294825291829020859055815185815291517f8c5be1e5ebec7d5bd14f71427d1e84f3dd0314c0f7b2291e5b200ac8c7c3b9259281900390910190a3505050565b6000610abe83836040518060400160405280601e81526020017f536166654d6174683a207375627472616374696f6e206f766572666c6f7700008152506110cd565b73ffffffffffffffffffffffffffffffffffffffff8216610e535760405162461bcd60e51b8152600401808060200182810382526021815260200180611f2c6021913960400191505060405180910390fd5b610e5f82600083610c8b565b610ea981604051806060016040528060228152602001611e796022913973ffffffffffffffffffffffffffffffffffffffff851660009081526020819052604090205491906110cd565b73ffffffffffffffffffffffffffffffffffffffff8316600090815260208190526040902055600254610edc9082610dbf565b60025560408051828152905160009173ffffffffffffffffffffffffffffffffffffffff8516917fddf252ad1be2c89b69c2b068fc378daa952ba7f163c4a11628f55a4df523b3ef9181900360200190a35050565b73ffffffffffffffffffffffffffffffffffffffff8316610f835760405162461bcd60e51b8152600401808060200182810382526025815260200180611f4d6025913960400191505060405180910390fd5b73ffffffffffffffffffffffffffffffffffffffff8216610fd55760405162461bcd60e51b8152600401808060200182810382526023815260200180611e566023913960400191505060405180910390fd5b610fe0838383610c8b565b61102a81604051806060016040528060268152602001611ebd6026913973ffffffffffffffffffffffffffffffffffffffff861660009081526020819052604090205491906110cd565b73ffffffffffffffffffffffffffffffffffffffff80851660009081526020819052604080822093909355908416815220546110669082611164565b73ffffffffffffffffffffffffffffffffffffffff8084166000818152602081815260409182902094909455805185815290519193928716927fddf252ad1be2c89b69c2b068fc378daa952ba7f163c4a11628f55a4df523b3ef92918290030190a3505050565b6000818484111561115c5760405162461bcd60e51b81526004018080602001828103825283818151815260200191508051906020019080838360005b83811015611121578181015183820152602001611109565b50505050905090810190601f16801561114e5780820380516001836020036101000a031916815260200191505b509250505060405180910390fd5b505050900390565b600082820183811015610abe576040805162461bcd60e51b815260206004820152601b60248201527f536166654d6174683a206164646974696f6e206f766572666c6f770000000000604482015290519081900360640190fd5b6006546040517f23b872dd00000000000000000000000000000000000000000000000000000000815260009173ffffffffffffffffffffffffffffffffffffffff16906323b872dd9061121990869030908790600401611b32565b602060405180830381600087803b15801561123357600080fd5b505af1158015611247573d6000803e3d6000fd5b505050506040513d601f19601f8201168201806040525081019061126b91906119e9565b90508061128a5760405162461bcd60e51b81526004016107a890611c92565b6007546112979083611164565b6007556112a48383611603565b7f06239653922ac7bea6aa2b19dc486b9361821d37712eb796adfd38d81de278ca83836007546040516112d993929190611b04565b60405180910390a1505050565b60006007546113008360085461116490919063ffffffff16565b111561131e5760405162461bcd60e51b81526004016107a890611c5d565b6000600754116113405760405162461bcd60e51b81526004016107a890611c26565b600061137560075461136f6402540be4006064026113698760085461116490919063ffffffff16565b9061171a565b90611773565b9050600064a2fb4058008210156113965761138f826117b5565b90506113a2565b61139f826117cf565b90505b6113b181640ba43b7400611840565b905060006113c76301e1338061136f888561171a565b90506113dc64e8d4a5100061136f878461171a565b9695505050505050565b6113ee6118bc565b5073ffffffffffffffffffffffffffffffffffffffff8416600090815260096020908152604091829020825160608101845281548152600182015492810183905260029091015492810192909252156114595760405162461bcd60e51b81526004016107a890611cc9565b6008546114669084611164565b60075410156114875760405162461bcd60e51b81526004016107a890611cfe565b600061149385856112e6565b8483526020808401878152604080860187815273ffffffffffffffffffffffffffffffffffffffff8b16600090815260099094529220855181559051600182015590516002909101556008549091506114ec9085611164565b6008556006546040517f23b872dd00000000000000000000000000000000000000000000000000000000815260009173ffffffffffffffffffffffffffffffffffffffff16906323b872dd9061154a908a9030908790600401611b32565b602060405180830381600087803b15801561156457600080fd5b505af1158015611578573d6000803e3d6000fd5b505050506040513d601f19601f8201168201806040525081019061159c91906119e9565b9050806115bb5760405162461bcd60e51b81526004016107a890611c92565b7f1cd728a6e764ed0dcddb6e5b88d736a4a8d2a0d420ca373588f7a1109e18663f8786846008546040516115f29493929190611b63565b60405180910390a150505050505050565b73ffffffffffffffffffffffffffffffffffffffff821661166b576040805162461bcd60e51b815260206004820152601f60248201527f45524332303a206d696e7420746f20746865207a65726f206164647265737300604482015290519081900360640190fd5b61167760008383610c8b565b6002546116849082611164565b60025573ffffffffffffffffffffffffffffffffffffffff82166000908152602081905260409020546116b79082611164565b73ffffffffffffffffffffffffffffffffffffffff83166000818152602081815260408083209490945583518581529351929391927fddf252ad1be2c89b69c2b068fc378daa952ba7f163c4a11628f55a4df523b3ef9281900390910190a35050565b6000826117295750600061077a565b8282028284828161173657fe5b0414610abe5760405162461bcd60e51b8152600401808060200182810382526021815260200180611ee36021913960400191505060405180910390fd5b6000610abe83836040518060400160405280601a81526020017f536166654d6174683a206469766973696f6e206279207a65726f000000000000815250611857565b600061077a64a2fb40580061136f846445d964b80061171a565b6000806118076117e964e8d4a5100064a2fb405800610dbf565b61136f6117fb8664a2fb405800610dbf565b6402540be4009061171a565b9050610abe6118346402540be40061136f61182d65015d3ef798006445d964b800610dbf565b859061171a565b6445d964b80090611164565b6000818310156118505781610abe565b5090919050565b600081836118a65760405162461bcd60e51b8152602060048201818152835160248401528351909283926044909101919085019080838360008315611121578181015183820152602001611109565b5060008385816118b257fe5b0495945050505050565b60405180606001604052806000815260200160008152602001600081525090565b803573ffffffffffffffffffffffffffffffffffffffff81168114610a8c57600080fd5b600060208284031215611912578081fd5b610abe826118dd565b6000806040838503121561192d578081fd5b611936836118dd565b9150611944602084016118dd565b90509250929050565b600080600060608486031215611961578081fd5b61196a846118dd565b9250611978602085016118dd565b9150604084013590509250925092565b6000806040838503121561199a578182fd5b6119a3836118dd565b946020939093013593505050565b600080600080608085870312156119c6578081fd5b6119cf856118dd565b966020860135965060408601359560600135945092505050565b6000602082840312156119fa578081fd5b81518015158114610abe578182fd5b600060208284031215611a1a578081fd5b5035919050565b60008060408385031215611a33578182fd5b50508035926020909101359150565b600080600060608486031215611a56578283fd5b505081359360208301359350604090920135919050565b6000815180845260208085019450808401835b83811015611ab257815173ffffffffffffffffffffffffffffffffffffffff1687529582019590820190600101611a80565b509495945050505050565b73ffffffffffffffffffffffffffffffffffffffff91909116815260200190565b73ffffffffffffffffffffffffffffffffffffffff929092168252602082015260400190565b73ffffffffffffffffffffffffffffffffffffffff9390931683526020830191909152604082015260600190565b73ffffffffffffffffffffffffffffffffffffffff9384168152919092166020820152604081019190915260600190565b73ffffffffffffffffffffffffffffffffffffffff94909416845260208401929092526040830152606082015260800190565b901515815260200190565b6020810160048310611baf57fe5b91905290565b6000602080835283518082850152825b81811015611be157858101830151858201604001528201611bc5565b81811115611bf25783604083870101525b50601f017fffffffffffffffffffffffffffffffffffffffffffffffffffffffffffffffe016929092016040019392505050565b60208082526011908201527f54686520706f6f6c20697320656d707479000000000000000000000000000000604082015260600190565b6020808252818101527f526571756972696e67206d6f7265207468616e20746865726520657869737473604082015260600190565b60208082526019908201527f4661696c656420746f207472616e7366657220746f6b656e7300000000000000604082015260600190565b6020808252818101527f54686520706f6c69637920686f6c64657220616c726561647920657869737473604082015260600190565b6020808252601e908201527f4e6f7420656e6f75676820617661696c61626c65206c69717569646974790000604082015260600190565b6020808252603f908201527f54686520616d6f756e7420746f2062652077697468647261776e20697320677260408201527f6561746572207468616e20746865206465706f736974656420616d6f756e7400606082015260800190565b90815260200190565b600083825260406020830152611db46040830184611a6d565b949350505050565b60008482526020606081840152611dd66060840186611a6d565b8381036040850152845180825282860191830190845b81811015611e0857835183529284019291840191600101611dec565b509098975050505050505050565b9283526020830191909152604082015260600190565b93845260208401929092526040830152606082015260800190565b60ff9190911681526020019056fe45524332303a207472616e7366657220746f20746865207a65726f206164647265737345524332303a206275726e20616d6f756e7420657863656564732062616c616e636545524332303a20617070726f766520746f20746865207a65726f206164647265737345524332303a207472616e7366657220616d6f756e7420657863656564732062616c616e6365536166654d6174683a206d756c7469706c69636174696f6e206f766572666c6f7745524332303a207472616e7366657220616d6f756e74206578636565647320616c6c6f77616e636545524332303a206275726e2066726f6d20746865207a65726f206164647265737345524332303a207472616e736665722066726f6d20746865207a65726f206164647265737345524332303a20617070726f76652066726f6d20746865207a65726f206164647265737345524332303a2064656372656173656420616c6c6f77616e63652062656c6f77207a65726fa2646970667358221220957a37b3f095d325e17b406d36583bbebf79eaf716429936ad79c8daeb0a769464736f6c63430007040033a2646970667358221220c24113fb39076ec11c8a1ed0b698b5b725800bdd400c362a9db0466a75b5e7ec64736f6c63430007040033",
  "immutableReferences": {},
  "source": "// SPDX-License-Identifier: MIT\npragma solidity ^0.7.4;\n\nimport \"@openzeppelin/contracts/math/Math.sol\";\n\nimport \"./interfaces/IPolicyBookFabric.sol\";\nimport \"./interfaces/IPolicyBookRegistry.sol\";\nimport \"./PolicyBook.sol\";\n\ncontract PolicyBookFabric is IPolicyBookFabric {\n  using Math for uint256;\n\n  IPolicyBookRegistry public registry;\n  address public daiAddr;\n\n  event Created(address insured, ContractType contractType, address at);\n\n  constructor(IPolicyBookRegistry _registry, address _daiAddr) {\n    registry = _registry;\n    daiAddr = _daiAddr;\n  }\n\n  function create(\n    address _insuranceContract,\n    ContractType _contractType,\n    string memory _description,\n    string memory _projectSymbol\n  ) external override returns (address _policyBook) {\n    PolicyBook _newPolicyBook = new PolicyBook(_insuranceContract, _contractType, daiAddr, _description, _projectSymbol);\n    registry.add(_insuranceContract, address(_newPolicyBook));\n\n    emit Created(_insuranceContract, _contractType, address(_newPolicyBook));\n\n    return address(_newPolicyBook);\n  }\n\n  function policyBookFor(address _contract) external view override returns (address _policyBook) {\n    return registry.policyBookFor(_contract);\n  }\n\n  function policyBooksCount() external view override returns (uint256 _policyBookCount) {\n    return registry.count();\n  }\n\n  function policyBooks(uint256 _offset, uint256 _limit)\n    external\n    view\n    override\n    returns (uint256 _policyBooksCount, address[] memory _policyBooks)\n  {\n    return registry.list(_offset, _limit);\n  }\n}\n",
  "sourcePath": "/home/artem/Projects/Distributed_Lab/Applicature/bridgemutual-core/contracts/PolicyBookFabric.sol",
  "compiler": {
    "name": "solc",
    "version": "0.7.4+commit.3f05b770.Emscripten.clang"
  },
  "schemaVersion": "3.3.3",
  "updatedAt": "2021-01-20T19:02:06.600Z",
  "devdoc": {
    "kind": "dev",
    "methods": {
      "policyBookFor(address)": {
        "params": {
          "_contract": "is contract address to lookup for created IPolicyBook"
        },
        "returns": {
          "_policyBook": "is policy book address if exists for passed contract address, if not it will return address(0)"
        }
      },
      "policyBooks(uint256,uint256)": {
        "params": {
          "_limit": "is number of policy books to returns from _offset",
          "_offset": "is starting item in array to return array from"
        },
        "returns": {
          "_policyBooks": "is array of contract addresses",
          "_policyBooksCount": "is updated number of policy books"
        }
      },
      "policyBooksCount()": {
        "returns": {
          "_policyBookCount": "is number of created policy books"
        }
      }
    },
    "version": 1
  },
  "userdoc": {
    "kind": "user",
    "methods": {
      "policyBookFor(address)": {
        "notice": "Return created Policy Book contract, access: ANY"
      },
      "policyBooks(uint256,uint256)": {
        "notice": "Returns number of created Policy Book contracts address, access: ANY"
      },
      "policyBooksCount()": {
        "notice": "Returns number of created Policy Book contracts, access: ANY"
      }
    },
    "version": 1
  }
}