{
  "contractName": "PolicyBookMock",
  "abi": [
    {
      "inputs": [
        {
          "internalType": "address",
          "name": "_insuranceContract",
          "type": "address"
        },
        {
          "internalType": "enum IPolicyBookFabric.ContractType",
          "name": "_contractType",
          "type": "uint8"
        }
      ],
      "stateMutability": "nonpayable",
      "type": "constructor"
    },
    {
      "anonymous": false,
      "inputs": [
        {
          "indexed": false,
          "internalType": "address",
          "name": "_liquidityHolder",
          "type": "address"
        },
        {
          "indexed": false,
          "internalType": "uint256",
          "name": "_liqudityAmount",
          "type": "uint256"
        },
        {
          "indexed": false,
          "internalType": "uint256",
          "name": "_newTotalLiquidity",
          "type": "uint256"
        }
      ],
      "name": "AddLiquidity",
      "type": "event"
    },
    {
      "anonymous": false,
      "inputs": [
        {
          "indexed": true,
          "internalType": "address",
          "name": "owner",
          "type": "address"
        },
        {
          "indexed": true,
          "internalType": "address",
          "name": "spender",
          "type": "address"
        },
        {
          "indexed": false,
          "internalType": "uint256",
          "name": "value",
          "type": "uint256"
        }
      ],
      "name": "Approval",
      "type": "event"
    },
    {
      "anonymous": false,
      "inputs": [
        {
          "indexed": true,
          "internalType": "address",
          "name": "account",
          "type": "address"
        },
        {
          "indexed": true,
          "internalType": "address",
          "name": "operator",
          "type": "address"
        },
        {
          "indexed": false,
          "internalType": "bool",
          "name": "approved",
          "type": "bool"
        }
      ],
      "name": "ApprovalForAll",
      "type": "event"
    },
    {
      "anonymous": false,
      "inputs": [
        {
          "indexed": false,
          "internalType": "address",
          "name": "_policyHolder",
          "type": "address"
        },
        {
          "indexed": false,
          "internalType": "uint256",
          "name": "_coverTokens",
          "type": "uint256"
        },
        {
          "indexed": false,
          "internalType": "uint256",
          "name": "_price",
          "type": "uint256"
        },
        {
          "indexed": false,
          "internalType": "uint256",
          "name": "_newTotalCoverTokens",
          "type": "uint256"
        }
      ],
      "name": "BuyPolicy",
      "type": "event"
    },
    {
      "anonymous": false,
      "inputs": [
        {
          "indexed": true,
          "internalType": "address",
          "name": "previousOwner",
          "type": "address"
        },
        {
          "indexed": true,
          "internalType": "address",
          "name": "newOwner",
          "type": "address"
        }
      ],
      "name": "OwnershipTransferred",
      "type": "event"
    },
    {
      "anonymous": false,
      "inputs": [
        {
          "indexed": true,
          "internalType": "address",
          "name": "from",
          "type": "address"
        },
        {
          "indexed": true,
          "internalType": "address",
          "name": "to",
          "type": "address"
        },
        {
          "indexed": false,
          "internalType": "uint256",
          "name": "value",
          "type": "uint256"
        }
      ],
      "name": "Transfer",
      "type": "event"
    },
    {
      "anonymous": false,
      "inputs": [
        {
          "indexed": true,
          "internalType": "address",
          "name": "operator",
          "type": "address"
        },
        {
          "indexed": true,
          "internalType": "address",
          "name": "from",
          "type": "address"
        },
        {
          "indexed": true,
          "internalType": "address",
          "name": "to",
          "type": "address"
        },
        {
          "indexed": false,
          "internalType": "uint256[]",
          "name": "ids",
          "type": "uint256[]"
        },
        {
          "indexed": false,
          "internalType": "uint256[]",
          "name": "values",
          "type": "uint256[]"
        }
      ],
      "name": "TransferBatch",
      "type": "event"
    },
    {
      "anonymous": false,
      "inputs": [
        {
          "indexed": true,
          "internalType": "address",
          "name": "operator",
          "type": "address"
        },
        {
          "indexed": true,
          "internalType": "address",
          "name": "from",
          "type": "address"
        },
        {
          "indexed": true,
          "internalType": "address",
          "name": "to",
          "type": "address"
        },
        {
          "indexed": false,
          "internalType": "uint256",
          "name": "id",
          "type": "uint256"
        },
        {
          "indexed": false,
          "internalType": "uint256",
          "name": "value",
          "type": "uint256"
        }
      ],
      "name": "TransferSingle",
      "type": "event"
    },
    {
      "anonymous": false,
      "inputs": [
        {
          "indexed": false,
          "internalType": "string",
          "name": "value",
          "type": "string"
        },
        {
          "indexed": true,
          "internalType": "uint256",
          "name": "id",
          "type": "uint256"
        }
      ],
      "name": "URI",
      "type": "event"
    },
    {
      "anonymous": false,
      "inputs": [
        {
          "indexed": false,
          "internalType": "address",
          "name": "_liquidityHolder",
          "type": "address"
        },
        {
          "indexed": false,
          "internalType": "uint256",
          "name": "_tokensToWithdraw",
          "type": "uint256"
        },
        {
          "indexed": false,
          "internalType": "uint256",
          "name": "_newTotalLiquidity",
          "type": "uint256"
        }
      ],
      "name": "WithdrawLiquidity",
      "type": "event"
    },
    {
      "inputs": [],
      "name": "MAXIMUM_COST_100_UTILIZATION_PERCENTAGE",
      "outputs": [
        {
          "internalType": "uint256",
          "name": "",
          "type": "uint256"
        }
      ],
      "stateMutability": "view",
      "type": "function"
    },
    {
      "inputs": [],
      "name": "MAXIMUM_COST_NOT_RISKY_PERCENTAGE",
      "outputs": [
        {
          "internalType": "uint256",
          "name": "",
          "type": "uint256"
        }
      ],
      "stateMutability": "view",
      "type": "function"
    },
    {
      "inputs": [],
      "name": "MINIMUM_COST_PERCENTAGE",
      "outputs": [
        {
          "internalType": "uint256",
          "name": "",
          "type": "uint256"
        }
      ],
      "stateMutability": "view",
      "type": "function"
    },
    {
      "inputs": [],
      "name": "PERCENTAGE_100",
      "outputs": [
        {
          "internalType": "uint256",
          "name": "",
          "type": "uint256"
        }
      ],
      "stateMutability": "view",
      "type": "function"
    },
    {
      "inputs": [],
      "name": "PRECISION",
      "outputs": [
        {
          "internalType": "uint256",
          "name": "",
          "type": "uint256"
        }
      ],
      "stateMutability": "view",
      "type": "function"
    },
    {
      "inputs": [],
      "name": "RISKY_ASSET_THRESHOLD_PERCENTAGE",
      "outputs": [
        {
          "internalType": "uint256",
          "name": "",
          "type": "uint256"
        }
      ],
      "stateMutability": "view",
      "type": "function"
    },
    {
      "inputs": [],
      "name": "SECONDS_IN_THE_YEAR",
      "outputs": [
        {
          "internalType": "uint256",
          "name": "",
          "type": "uint256"
        }
      ],
      "stateMutability": "view",
      "type": "function"
    },
    {
      "inputs": [
        {
          "internalType": "uint256",
          "name": "_liqudityAmount",
          "type": "uint256"
        }
      ],
      "name": "addLiquidity",
      "outputs": [],
      "stateMutability": "nonpayable",
      "type": "function"
    },
    {
      "inputs": [
        {
          "internalType": "address",
          "name": "_liquidityHolderAddr",
          "type": "address"
        },
        {
          "internalType": "uint256",
          "name": "_liqudityAmount",
          "type": "uint256"
        }
      ],
      "name": "addLiquidityFor",
      "outputs": [],
      "stateMutability": "nonpayable",
      "type": "function"
    },
    {
      "inputs": [
        {
          "internalType": "address",
          "name": "_liquidityHolderAddr",
          "type": "address"
        },
        {
          "internalType": "uint256",
          "name": "_liqudityAmount",
          "type": "uint256"
        }
      ],
      "name": "addLiquidityFromLM",
      "outputs": [],
      "stateMutability": "nonpayable",
      "type": "function"
    },
    {
      "inputs": [
        {
          "internalType": "address",
          "name": "_tokenAddress",
          "type": "address"
        },
        {
          "internalType": "uint256",
          "name": "_tokensAmount",
          "type": "uint256"
        }
      ],
      "name": "addShieldTokens",
      "outputs": [
        {
          "internalType": "bool",
          "name": "_success",
          "type": "bool"
        }
      ],
      "stateMutability": "nonpayable",
      "type": "function"
    },
    {
      "inputs": [
        {
          "internalType": "address",
          "name": "owner",
          "type": "address"
        },
        {
          "internalType": "address",
          "name": "spender",
          "type": "address"
        }
      ],
      "name": "allowance",
      "outputs": [
        {
          "internalType": "uint256",
          "name": "",
          "type": "uint256"
        }
      ],
      "stateMutability": "view",
      "type": "function"
    },
    {
      "inputs": [
        {
          "internalType": "address",
          "name": "spender",
          "type": "address"
        },
        {
          "internalType": "uint256",
          "name": "amount",
          "type": "uint256"
        }
      ],
      "name": "approve",
      "outputs": [
        {
          "internalType": "bool",
          "name": "",
          "type": "bool"
        }
      ],
      "stateMutability": "nonpayable",
      "type": "function"
    },
    {
      "inputs": [],
      "name": "approveAllDaiTokensForStakingAndTransferOwnership",
      "outputs": [],
      "stateMutability": "nonpayable",
      "type": "function"
    },
    {
      "inputs": [
        {
          "internalType": "address",
          "name": "account",
          "type": "address"
        },
        {
          "internalType": "uint256",
          "name": "id",
          "type": "uint256"
        }
      ],
      "name": "balanceOf",
      "outputs": [
        {
          "internalType": "uint256",
          "name": "",
          "type": "uint256"
        }
      ],
      "stateMutability": "view",
      "type": "function"
    },
    {
      "inputs": [
        {
          "internalType": "address",
          "name": "account",
          "type": "address"
        }
      ],
      "name": "balanceOf",
      "outputs": [
        {
          "internalType": "uint256",
          "name": "",
          "type": "uint256"
        }
      ],
      "stateMutability": "view",
      "type": "function"
    },
    {
      "inputs": [
        {
          "internalType": "address[]",
          "name": "accounts",
          "type": "address[]"
        },
        {
          "internalType": "uint256[]",
          "name": "ids",
          "type": "uint256[]"
        }
      ],
      "name": "balanceOfBatch",
      "outputs": [
        {
          "internalType": "uint256[]",
          "name": "",
          "type": "uint256[]"
        }
      ],
      "stateMutability": "view",
      "type": "function"
    },
    {
      "inputs": [
        {
          "internalType": "address",
          "name": "owner",
          "type": "address"
        }
      ],
      "name": "balanceOfNFT",
      "outputs": [
        {
          "internalType": "uint256",
          "name": "",
          "type": "uint256"
        }
      ],
      "stateMutability": "view",
      "type": "function"
    },
    {
      "inputs": [],
      "name": "bmiDaiStakingAddress",
      "outputs": [
        {
          "internalType": "address",
          "name": "",
          "type": "address"
        }
      ],
      "stateMutability": "view",
      "type": "function"
    },
    {
      "inputs": [
        {
          "internalType": "address",
          "name": "account",
          "type": "address"
        },
        {
          "internalType": "uint256",
          "name": "id",
          "type": "uint256"
        },
        {
          "internalType": "uint256",
          "name": "amount",
          "type": "uint256"
        }
      ],
      "name": "burnNFT",
      "outputs": [],
      "stateMutability": "nonpayable",
      "type": "function"
    },
    {
      "inputs": [
        {
          "internalType": "uint256",
          "name": "_durationSeconds",
          "type": "uint256"
        },
        {
          "internalType": "uint256",
          "name": "_coverTokens",
          "type": "uint256"
        }
      ],
      "name": "buyPolicy",
      "outputs": [],
      "stateMutability": "nonpayable",
      "type": "function"
    },
    {
      "inputs": [
        {
          "internalType": "address",
          "name": "_policyHolderAddr",
          "type": "address"
        },
        {
          "internalType": "uint256",
          "name": "_durationSeconds",
          "type": "uint256"
        },
        {
          "internalType": "uint256",
          "name": "_coverTokens",
          "type": "uint256"
        }
      ],
      "name": "buyPolicyFor",
      "outputs": [],
      "stateMutability": "nonpayable",
      "type": "function"
    },
    {
      "inputs": [],
      "name": "contractType",
      "outputs": [
        {
          "internalType": "enum IPolicyBookFabric.ContractType",
          "name": "",
          "type": "uint8"
        }
      ],
      "stateMutability": "view",
      "type": "function"
    },
    {
      "inputs": [],
      "name": "contractsRegistry",
      "outputs": [
        {
          "internalType": "contract ContractsRegistry",
          "name": "",
          "type": "address"
        }
      ],
      "stateMutability": "view",
      "type": "function"
    },
    {
      "inputs": [],
      "name": "daiToken",
      "outputs": [
        {
          "internalType": "contract IERC20",
          "name": "",
          "type": "address"
        }
      ],
      "stateMutability": "view",
      "type": "function"
    },
    {
      "inputs": [],
      "name": "decimals",
      "outputs": [
        {
          "internalType": "uint8",
          "name": "",
          "type": "uint8"
        }
      ],
      "stateMutability": "view",
      "type": "function"
    },
    {
      "inputs": [
        {
          "internalType": "address",
          "name": "spender",
          "type": "address"
        },
        {
          "internalType": "uint256",
          "name": "subtractedValue",
          "type": "uint256"
        }
      ],
      "name": "decreaseAllowance",
      "outputs": [
        {
          "internalType": "bool",
          "name": "",
          "type": "bool"
        }
      ],
      "stateMutability": "nonpayable",
      "type": "function"
    },
    {
      "inputs": [
        {
          "internalType": "uint256",
          "name": "_durationSeconds",
          "type": "uint256"
        },
        {
          "internalType": "uint256",
          "name": "_tokens",
          "type": "uint256"
        }
      ],
      "name": "getQuote",
      "outputs": [
        {
          "internalType": "uint256",
          "name": "_daiTokens",
          "type": "uint256"
        }
      ],
      "stateMutability": "view",
      "type": "function"
    },
    {
      "inputs": [
        {
          "internalType": "address",
          "name": "spender",
          "type": "address"
        },
        {
          "internalType": "uint256",
          "name": "addedValue",
          "type": "uint256"
        }
      ],
      "name": "increaseAllowance",
      "outputs": [
        {
          "internalType": "bool",
          "name": "",
          "type": "bool"
        }
      ],
      "stateMutability": "nonpayable",
      "type": "function"
    },
    {
      "inputs": [
        {
          "internalType": "contract ContractsRegistry",
          "name": "_contractsRegistry",
          "type": "address"
        }
      ],
      "name": "initRegistry",
      "outputs": [],
      "stateMutability": "nonpayable",
      "type": "function"
    },
    {
      "inputs": [],
      "name": "insuranceContractAddress",
      "outputs": [
        {
          "internalType": "address",
          "name": "",
          "type": "address"
        }
      ],
      "stateMutability": "view",
      "type": "function"
    },
    {
      "inputs": [
        {
          "internalType": "address",
          "name": "account",
          "type": "address"
        },
        {
          "internalType": "address",
          "name": "operator",
          "type": "address"
        }
      ],
      "name": "isApprovedForAll",
      "outputs": [
        {
          "internalType": "bool",
          "name": "",
          "type": "bool"
        }
      ],
      "stateMutability": "view",
      "type": "function"
    },
    {
      "inputs": [
        {
          "internalType": "address",
          "name": "",
          "type": "address"
        }
      ],
      "name": "liquidityFromLM",
      "outputs": [
        {
          "internalType": "uint256",
          "name": "",
          "type": "uint256"
        }
      ],
      "stateMutability": "view",
      "type": "function"
    },
    {
      "inputs": [],
      "name": "liquidityMining",
      "outputs": [
        {
          "internalType": "contract LiquidityMining",
          "name": "",
          "type": "address"
        }
      ],
      "stateMutability": "view",
      "type": "function"
    },
    {
      "inputs": [
        {
          "internalType": "address",
          "name": "account",
          "type": "address"
        },
        {
          "internalType": "uint256",
          "name": "id",
          "type": "uint256"
        },
        {
          "internalType": "uint256",
          "name": "amount",
          "type": "uint256"
        },
        {
          "internalType": "bytes",
          "name": "data",
          "type": "bytes"
        }
      ],
      "name": "mintNFT",
      "outputs": [],
      "stateMutability": "nonpayable",
      "type": "function"
    },
    {
      "inputs": [],
      "name": "name",
      "outputs": [
        {
          "internalType": "string",
          "name": "",
          "type": "string"
        }
      ],
      "stateMutability": "view",
      "type": "function"
    },
    {
      "inputs": [],
      "name": "owner",
      "outputs": [
        {
          "internalType": "address",
          "name": "",
          "type": "address"
        }
      ],
      "stateMutability": "view",
      "type": "function"
    },
    {
      "inputs": [
        {
          "internalType": "uint256",
          "name": "tokenId",
          "type": "uint256"
        }
      ],
      "name": "ownerOfNFT",
      "outputs": [
        {
          "internalType": "address",
          "name": "",
          "type": "address"
        }
      ],
      "stateMutability": "view",
      "type": "function"
    },
    {
      "inputs": [
        {
          "internalType": "address",
          "name": "",
          "type": "address"
        }
      ],
      "name": "policyHolders",
      "outputs": [
        {
          "internalType": "uint256",
          "name": "coverTokens",
          "type": "uint256"
        },
        {
          "internalType": "uint256",
          "name": "durationSeconds",
          "type": "uint256"
        }
      ],
      "stateMutability": "view",
      "type": "function"
    },
    {
      "inputs": [],
      "name": "quoteStrategy",
      "outputs": [
        {
          "internalType": "address",
          "name": "_quoteStrategy",
          "type": "address"
        }
      ],
      "stateMutability": "view",
      "type": "function"
    },
    {
      "inputs": [],
      "name": "renounceOwnership",
      "outputs": [],
      "stateMutability": "nonpayable",
      "type": "function"
    },
    {
      "inputs": [
        {
          "internalType": "uint256",
          "name": "_policyId",
          "type": "uint256"
        }
      ],
      "name": "rewardForUnclaimedExpiredPolicy",
      "outputs": [],
      "stateMutability": "nonpayable",
      "type": "function"
    },
    {
      "inputs": [
        {
          "internalType": "address",
          "name": "from",
          "type": "address"
        },
        {
          "internalType": "address",
          "name": "to",
          "type": "address"
        },
        {
          "internalType": "uint256[]",
          "name": "ids",
          "type": "uint256[]"
        },
        {
          "internalType": "uint256[]",
          "name": "amounts",
          "type": "uint256[]"
        },
        {
          "internalType": "bytes",
          "name": "data",
          "type": "bytes"
        }
      ],
      "name": "safeBatchTransferFrom",
      "outputs": [],
      "stateMutability": "nonpayable",
      "type": "function"
    },
    {
      "inputs": [
        {
          "internalType": "address",
          "name": "from",
          "type": "address"
        },
        {
          "internalType": "address",
          "name": "to",
          "type": "address"
        },
        {
          "internalType": "uint256",
          "name": "id",
          "type": "uint256"
        },
        {
          "internalType": "uint256",
          "name": "amount",
          "type": "uint256"
        },
        {
          "internalType": "bytes",
          "name": "data",
          "type": "bytes"
        }
      ],
      "name": "safeTransferFrom",
      "outputs": [],
      "stateMutability": "nonpayable",
      "type": "function"
    },
    {
      "inputs": [
        {
          "internalType": "address",
          "name": "operator",
          "type": "address"
        },
        {
          "internalType": "bool",
          "name": "approved",
          "type": "bool"
        }
      ],
      "name": "setApprovalForAll",
      "outputs": [],
      "stateMutability": "nonpayable",
      "type": "function"
    },
    {
      "inputs": [
        {
          "internalType": "uint256",
          "name": "_offset",
          "type": "uint256"
        },
        {
          "internalType": "uint256",
          "name": "_limit",
          "type": "uint256"
        }
      ],
      "name": "shieldAssets",
      "outputs": [
        {
          "internalType": "uint256",
          "name": "_shieldAssetsCount",
          "type": "uint256"
        },
        {
          "internalType": "address[]",
          "name": "_shieldAssets",
          "type": "address[]"
        }
      ],
      "stateMutability": "view",
      "type": "function"
    },
    {
      "inputs": [],
      "name": "shieldAssetsCount",
      "outputs": [
        {
          "internalType": "uint256",
          "name": "_shieldAssetsCount",
          "type": "uint256"
        }
      ],
      "stateMutability": "view",
      "type": "function"
    },
    {
      "inputs": [
        {
          "internalType": "uint256",
          "name": "_offset",
          "type": "uint256"
        },
        {
          "internalType": "uint256",
          "name": "_limit",
          "type": "uint256"
        }
      ],
      "name": "shieldAssetsWithBalance",
      "outputs": [
        {
          "internalType": "uint256",
          "name": "_shieldAssetsCount",
          "type": "uint256"
        },
        {
          "internalType": "address[]",
          "name": "_shieldAssets",
          "type": "address[]"
        },
        {
          "internalType": "uint256[]",
          "name": "_shieldAssetBalance",
          "type": "uint256[]"
        }
      ],
      "stateMutability": "view",
      "type": "function"
    },
    {
      "inputs": [],
      "name": "stats",
      "outputs": [
        {
          "internalType": "string",
          "name": "_name",
          "type": "string"
        },
        {
          "internalType": "address",
          "name": "_insuredContract",
          "type": "address"
        },
        {
          "internalType": "enum IPolicyBookFabric.ContractType",
          "name": "_contractType",
          "type": "uint8"
        },
        {
          "internalType": "uint256",
          "name": "_maxCapacities",
          "type": "uint256"
        },
        {
          "internalType": "uint256",
          "name": "_totalDaiLiquidity",
          "type": "uint256"
        },
        {
          "internalType": "uint256",
          "name": "_annualProfitYields",
          "type": "uint256"
        }
      ],
      "stateMutability": "view",
      "type": "function"
    },
    {
      "inputs": [
        {
          "internalType": "bytes4",
          "name": "interfaceId",
          "type": "bytes4"
        }
      ],
      "name": "supportsInterface",
      "outputs": [
        {
          "internalType": "bool",
          "name": "",
          "type": "bool"
        }
      ],
      "stateMutability": "view",
      "type": "function"
    },
    {
      "inputs": [],
      "name": "symbol",
      "outputs": [
        {
          "internalType": "string",
          "name": "",
          "type": "string"
        }
      ],
      "stateMutability": "view",
      "type": "function"
    },
    {
      "inputs": [
        {
          "internalType": "address",
          "name": "owner",
          "type": "address"
        },
        {
          "internalType": "uint256",
          "name": "index",
          "type": "uint256"
        }
      ],
      "name": "tokenOfOwnerByIndexNFT",
      "outputs": [
        {
          "internalType": "uint256",
          "name": "",
          "type": "uint256"
        }
      ],
      "stateMutability": "view",
      "type": "function"
    },
    {
      "inputs": [],
      "name": "totalCoverTokens",
      "outputs": [
        {
          "internalType": "uint256",
          "name": "",
          "type": "uint256"
        }
      ],
      "stateMutability": "view",
      "type": "function"
    },
    {
      "inputs": [],
      "name": "totalLiquidity",
      "outputs": [
        {
          "internalType": "uint256",
          "name": "",
          "type": "uint256"
        }
      ],
      "stateMutability": "view",
      "type": "function"
    },
    {
      "inputs": [],
      "name": "totalSupply",
      "outputs": [
        {
          "internalType": "uint256",
          "name": "",
          "type": "uint256"
        }
      ],
      "stateMutability": "view",
      "type": "function"
    },
    {
      "inputs": [],
      "name": "totalSupplyNFT",
      "outputs": [
        {
          "internalType": "uint256",
          "name": "",
          "type": "uint256"
        }
      ],
      "stateMutability": "view",
      "type": "function"
    },
    {
      "inputs": [
        {
          "internalType": "address",
          "name": "recipient",
          "type": "address"
        },
        {
          "internalType": "uint256",
          "name": "amount",
          "type": "uint256"
        }
      ],
      "name": "transfer",
      "outputs": [
        {
          "internalType": "bool",
          "name": "",
          "type": "bool"
        }
      ],
      "stateMutability": "nonpayable",
      "type": "function"
    },
    {
      "inputs": [
        {
          "internalType": "address",
          "name": "sender",
          "type": "address"
        },
        {
          "internalType": "address",
          "name": "recipient",
          "type": "address"
        },
        {
          "internalType": "uint256",
          "name": "amount",
          "type": "uint256"
        }
      ],
      "name": "transferFrom",
      "outputs": [
        {
          "internalType": "bool",
          "name": "",
          "type": "bool"
        }
      ],
      "stateMutability": "nonpayable",
      "type": "function"
    },
    {
      "inputs": [
        {
          "internalType": "address",
          "name": "newOwner",
          "type": "address"
        }
      ],
      "name": "transferOwnership",
      "outputs": [],
      "stateMutability": "nonpayable",
      "type": "function"
    },
    {
      "inputs": [
        {
          "internalType": "uint256",
          "name": "_tokensToWithdraw",
          "type": "uint256"
        }
      ],
      "name": "withdrawLiquidity",
      "outputs": [],
      "stateMutability": "nonpayable",
      "type": "function"
    },
    {
      "inputs": [
        {
          "internalType": "uint256",
          "name": "_daiInThePoolTotal",
          "type": "uint256"
        }
      ],
      "name": "setTotalLiquidity",
      "outputs": [],
      "stateMutability": "nonpayable",
      "type": "function"
    },
    {
      "inputs": [
        {
          "internalType": "uint256",
          "name": "_daiInThePoolBought",
          "type": "uint256"
        }
      ],
      "name": "setTotalCoverTokens",
      "outputs": [],
      "stateMutability": "nonpayable",
      "type": "function"
    }
  ],
  "bytecode": "0x60806040523480156200001157600080fd5b5060405162004ea638038062004ea68339810160408190526200003491620002c5565b8181604051806020016040528060008152506040518060200160405280600081525081816040516020016200006a91906200030f565b60408051601f1981840301815291905281816200008e6301ffc9a760e01b62000153565b6200009a8282620001d8565b620000ac636cdb3d1360e11b62000153565b5060009050620000bb62000215565b600b80546001600160a01b0319166001600160a01b038316908117909155604051919250906000907f8be0079c531659141344cd1fd0a4f28419497f9722a3daafe3b4186f6b6457e0908290a35050600d80546001600160a01b0319166001600160a01b0387161780825585925060ff60a01b1916600160a01b8360038111156200014257fe5b021790555050505050505062000360565b6001600160e01b03198082161415620001b3576040805162461bcd60e51b815260206004820152601c60248201527f4552433136353a20696e76616c696420696e7465726661636520696400000000604482015290519081900360640190fd5b6001600160e01b0319166000908152602081905260409020805460ff19166001179055565b8151620001ed90600190602085019062000219565b5080516200020390600290602084019062000219565b50506003805460ff1916601217905550565b3390565b828054600181600116156101000203166002900490600052602060002090601f0160209004810192826200025157600085556200029c565b82601f106200026c57805160ff19168380011785556200029c565b828001600101855582156200029c579182015b828111156200029c5782518255916020019190600101906200027f565b50620002aa929150620002ae565b5090565b5b80821115620002aa5760008155600101620002af565b60008060408385031215620002d8578182fd5b82516001600160a01b0381168114620002ef578283fd5b60208401519092506004811062000304578182fd5b809150509250929050565b600065626d6944414960d01b82528251815b8181101562000340576020818601810151600686840101520162000321565b81811115620003525782600683860101525b509190910160060192915050565b614b3680620003706000396000f3fe608060405234801561001057600080fd5b50600436106103b85760003560e01c8063758af3ab116101f4578063c18c60571161011a578063dd62ed3e116100ad578063f242432a1161007c578063f242432a1461079b578063f2fde38b146107ae578063f5b100ea146107c1578063f60ff937146107d4576103b8565b8063dd62ed3e1461075a578063e985e9c51461076d578063e98a04e114610780578063efa1f98a14610788576103b8565b8063cfa8b3a8116100e9578063cfa8b3a81461071d578063d0a43afd14610725578063d80528ae14610738578063d98d0c7e14610752576103b8565b8063c18c6057146106da578063c91348c3146106ed578063cb2ef6f714610700578063cbf5a55e14610715576103b8565b80639effd68711610192578063aaf5eb6811610161578063aaf5eb68146106ba578063b0ea6a84146106c2578063bc5d198a146106ca578063be22f546146106d2576103b8565b80639effd68714610679578063a22cb46514610681578063a457c2d714610694578063a9059cbb146106a7576103b8565b806385b2d535116101ce57806385b2d535146106595780638da5cb5b1461066157806395d89b41146106695780639c59000614610671576103b8565b8063758af3ab1461061d57806379fac08c146106305780637cd0fc9b14610651576103b8565b80632c865d6c116102e457806351c6590a1161027757806370a082311161024657806370a08231146105ce57806370b68a2a146105e1578063715018a6146106025780637234751b1461060a576103b8565b806351c6590a14610582578063561e795d146105955780635da2460d146105a857806366cec305146105bb576103b8565b806339509351116102b357806339509351146105345780634b641181146105475780634e1273f41461055a578063514ea9bd1461057a576103b8565b80632c865d6c146104f15780632d8a746e146104f95780632eb2c2d61461050c578063313ce5671461051f576103b8565b80630e82da531161035c578063188ff8541161032b578063188ff854146104a55780631cc509fd146104b85780631dcb46f6146104cb57806323b872dd146104de576103b8565b80630e82da531461045e57806314c179c01461048057806315770f921461049557806318160ddd1461049d576103b8565b806306fdde031161039857806306fdde0314610410578063095ea7b31461042557806309b7d94b146104385780630a861f2a1461044b576103b8565b8062ded3b7146103bd578062fdd58e146103c757806301ffc9a7146103f0575b600080fd5b6103c56107dc565b005b6103da6103d536600461394d565b61092d565b6040516103e79190614777565b60405180910390f35b6104036103fe366004613aec565b610980565b6040516103e79190613e05565b6104186109b7565b6040516103e79190613e1e565b61040361043336600461394d565b610a44565b6103c5610446366004613b97565b610a61565b6103c5610459366004613b97565b610a66565b61047161046c366004613bc7565b610c85565b6040516103e793929190614799565b610488610c91565b6040516103e79190613c94565b6103da610ca0565b6103da610ca6565b6104036104b336600461394d565b610cd6565b6103c56104c6366004613978565b610cde565b6103da6104d936600461394d565b610d58565b6104036104ec366004613879565b610d81565b6103da610e08565b610488610507366004613b97565b610e0d565b6103c561051a3660046137cf565b610e35565b6105276110ca565b6040516103e791906147d2565b61040361054236600461394d565b6110d3565b6103c56105553660046139ac565b611121565b61056d610568366004613a0d565b61119d565b6040516103e79190613dcd565b6103da6112dd565b6103c5610590366004613b97565b6112ec565b6103c56105a3366004613b97565b6112f8565b6103c56105b6366004613bc7565b6112fd565b6103da6105c936600461375f565b61130c565b6103da6105dc36600461375f565b61131e565b6105f46105ef36600461375f565b611358565b6040516103e79291906147c4565b6103c5611371565b6103c5610618366004613978565b61143d565b6103da61062b366004613bc7565b611448565b61064361063e366004613bc7565b611454565b6040516103e7929190614780565b610488610e08565b61048861145e565b61048861146d565b61041861147c565b6103da6114d4565b6104886114e3565b6103c561068f366004613920565b6114f2565b6104036106a236600461394d565b6115de565b6104036106b536600461394d565b611646565b6103da61165a565b6103da611669565b6103da61167a565b610488611682565b6103c56106e8366004613b97565b61092a565b6103c56106fb36600461394d565b611691565b6107086116c7565b6040516103e79190613e10565b6103da6116e8565b6103da6116f8565b6103c561073336600461375f565b611708565b610740611b56565b6040516103e796959493929190613e31565b610488611c3d565b6103da610768366004613797565b611c4c565b61040361077b366004613797565b611c77565b6103da611ca5565b6103c561079636600461394d565b611cb5565b6103c56107a93660046138b9565b611cc1565b6103c56107bc36600461375f565b611ecb565b6103da6107cf36600461375f565b611fee565b6103da612037565b6107e461203d565b600b546001600160a01b03908116911614610846576040805162461bcd60e51b815260206004820181905260248201527f4f776e61626c653a2063616c6c6572206973206e6f7420746865206f776e6572604482015290519081900360640190fd5b600e54600f546040517f095ea7b30000000000000000000000000000000000000000000000000000000081526000926001600160a01b039081169263095ea7b39261089b929091169060001990600401613ca8565b602060405180830381600087803b1580156108b557600080fd5b505af11580156108c9573d6000803e3d6000fd5b505050506040513d601f19601f820116820180604052508101906108ed9190613ad0565b9050806109155760405162461bcd60e51b815260040161090c9061430a565b60405180910390fd5b600f5461092a906001600160a01b0316611ecb565b50565b60006001600160a01b0383166109555760405162461bcd60e51b815260040161090c90614002565b5060008181526005602090815260408083206001600160a01b03861684529091529020545b92915050565b7fffffffff000000000000000000000000000000000000000000000000000000001660009081526020819052604090205460ff1690565b60018054604080516020600284861615610100026000190190941693909304601f81018490048402820184019092528181529291830182828015610a3c5780601f10610a1157610100808354040283529160200191610a3c565b820191906000526020600020905b815481529060010190602001808311610a1f57829003601f168201915b505050505081565b6000610a58610a5161203d565b8484612041565b50600192915050565b601155565b6000610a713361131e565b9050601060009054906101000a90046001600160a01b03166001600160a01b0316630cbd7e846040518163ffffffff1660e01b815260040160206040518083038186803b158015610ac157600080fd5b505afa158015610ad5573d6000803e3d6000fd5b505050506040513d601f19601f82011682018060405250810190610af99190613baf565b421015610b1e5733600090815260146020526040902054610b1b9082906120f5565b90505b81811015610b3e5760405162461bcd60e51b815260040161090c90614512565b601254601154610b4e90846120f5565b1015610b6c5760405162461bcd60e51b815260040161090c906141ad565b600e546040517fa9059cbb0000000000000000000000000000000000000000000000000000000081526000916001600160a01b03169063a9059cbb90610bb89033908790600401613ca8565b602060405180830381600087803b158015610bd257600080fd5b505af1158015610be6573d6000803e3d6000fd5b505050506040513d601f19601f82011682018060405250810190610c0a9190613ad0565b905080610c295760405162461bcd60e51b815260040161090c90614119565b601154610c3690846120f5565b601155610c433384612137565b7fac927268ea9ae2e55027e6ab727fc2db8e3ea48c56c658223a1074567e4298c03384601154604051610c7893929190613cc1565b60405180910390a1505050565b60006060809250925092565b600d546001600160a01b031681565b60115481565b600160005260046020527fabd6e7cb50984ff9c2f3e18a2660c3353dadf4e3291deeb275dae2cd1e44fe05545b90565b600092915050565b610ce661203d565b600b546001600160a01b03908116911614610d48576040805162461bcd60e51b815260206004820181905260248201527f4f776e61626c653a2063616c6c6572206973206e6f7420746865206f776e6572604482015290519081900360640190fd5b610d538383836122a2565b505050565b6001600160a01b0382166000908152600860205260408120610d7a908361241a565b9392505050565b6000610d8e848484612426565b610dfe84610d9a61203d565b610df985604051806060016040528060288152602001614ab4602891396001600160a01b038a16600090815260076020526040812090610dd861203d565b6001600160a01b031681526020810191909152604001600020549190612598565b612041565b5060019392505050565b600090565b600061097a826040518060600160405280602a8152602001614a3f602a91396009919061262f565b8151835114610e565760405162461bcd60e51b815260040161090c90614686565b6001600160a01b038416610e7c5760405162461bcd60e51b815260040161090c90614219565b610e8461203d565b6001600160a01b0316856001600160a01b03161480610eaa5750610eaa8561077b61203d565b610ec65760405162461bcd60e51b815260040161090c90614276565b6000610ed061203d565b9050610ee08187878787876110c2565b60005b845181101561105c576000858281518110610efa57fe5b602002602001015190506000858381518110610f1257fe5b602002602001015190506001821415610f3057610f30898983610d53565b610f3982612644565b15610f92576001600160a01b0389166000908152600860205260409020610f609083612651565b506001600160a01b0388166000908152600860205260409020610f83908361265d565b50610f906009838a612669565b505b610ff5816040518060600160405280602a8152602001614a69602a91396005600086815260200190815260200160002060008d6001600160a01b03166001600160a01b03168152602001908152602001600020546125989092919063ffffffff16565b60008381526005602090815260408083206001600160a01b038e811685529252808320939093558a168152205461102c908261267f565b60009283526005602090815260408085206001600160a01b038c1686529091529092209190915550600101610ee3565b50846001600160a01b0316866001600160a01b0316826001600160a01b03167f4a39dc06d4c0dbc64b70af90fd698a233a518aa5d07e595d983b8c0526c8f7fb87876040516110ac929190613de0565b60405180910390a46110c28187878787876126d9565b505050505050565b60035460ff1681565b6000610a586110e061203d565b84610df985600760006110f161203d565b6001600160a01b03908116825260208083019390935260409182016000908120918c16815292529020549061267f565b61112961203d565b600b546001600160a01b0390811691161461118b576040805162461bcd60e51b815260206004820181905260248201527f4f776e61626c653a2063616c6c6572206973206e6f7420746865206f776e6572604482015290519081900360640190fd5b6111978484848461283a565b50505050565b606081518351146111c05760405162461bcd60e51b815260040161090c90614629565b6060835167ffffffffffffffff811180156111da57600080fd5b50604051908082528060200260200182016040528015611204578160200160208202803683370190505b50905060005b84518110156112d55760006001600160a01b031685828151811061122a57fe5b60200260200101516001600160a01b031614156112595760405162461bcd60e51b815260040161090c9061405f565b6005600085838151811061126957fe5b60200260200101518152602001908152602001600020600086838151811061128d57fe5b60200260200101516001600160a01b03166001600160a01b03168152602001908152602001600020548282815181106112c257fe5b602090810291909101015260010161120a565b509392505050565b6af8277896582678ac00000081565b61092a338260006129dd565b601255565b611308338383612b3c565b5050565b60146020526000908152604090205481565b6001600160a01b031660009081527f1471eb6eb2c5e789fc3de43f8ce62938c7d1836ec861730447e2ada8fd81017b602052604090205490565b6013602052600090815260409020805460019091015482565b61137961203d565b600b546001600160a01b039081169116146113db576040805162461bcd60e51b815260206004820181905260248201527f4f776e61626c653a2063616c6c6572206973206e6f7420746865206f776e6572604482015290519081900360640190fd5b600b546040516000916001600160a01b0316907f8be0079c531659141344cd1fd0a4f28419497f9722a3daafe3b4186f6b6457e0908390a3600b80547fffffffffffffffffffffffff0000000000000000000000000000000000000000169055565b610d53838383612b3c565b6000610d7a8383612d17565b5060009160609150565b6010546001600160a01b031681565b600b546001600160a01b031690565b6002805460408051602060018416156101000260001901909316849004601f81018490048402820184019092528181529291830182828015610a3c5780601f10610a1157610100808354040283529160200191610a3c565b6a295be96e6406697200000081565b600f546001600160a01b031681565b816001600160a01b031661150461203d565b6001600160a01b0316141561152b5760405162461bcd60e51b815260040161090c906145cc565b806006600061153861203d565b6001600160a01b0390811682526020808301939093526040918201600090812091871680825291909352912080547fffffffffffffffffffffffffffffffffffffffffffffffffffffffffffffff00169215159290921790915561159a61203d565b6001600160a01b03167f17307eab39ab6107e8899845ad3d59bd9653f200f220920489ca2b5937696c31836040516115d29190613e05565b60405180910390a35050565b6000610a586115eb61203d565b84610df985604051806060016040528060258152602001614adc602591396007600061161561203d565b6001600160a01b03908116825260208083019390935260409182016000908120918d16815292529020549190612598565b6000610a5861165361203d565b8484612426565b6a084595161401484a00000081565b60006116756009612e31565b905090565b6301e1338081565b600e546001600160a01b031681565b6010546001600160a01b031633146116bb5760405162461bcd60e51b815260040161090c906144b5565b611308828260016129dd565b600d5474010000000000000000000000000000000000000000900460ff1681565b6b033b2e3c9fd0803ce800000081565b6b04d8c55aefb8c05b5c00000081565b61171061203d565b600b546001600160a01b03908116911614611772576040805162461bcd60e51b815260206004820181905260248201527f4f776e61626c653a2063616c6c6572206973206e6f7420746865206f776e6572604482015290519081900360640190fd5b600c80547fffffffffffffffffffffffff0000000000000000000000000000000000000000166001600160a01b038316908117909155604080517fa45611b60000000000000000000000000000000000000000000000000000000081529051633581777391839163a45611b691600480820192600092909190829003018186803b1580156117ff57600080fd5b505afa158015611813573d6000803e3d6000fd5b505050506040513d6000823e601f3d908101601f1916820160405261183b9190810190613b24565b6040518263ffffffff1660e01b81526004016118579190613e1e565b60206040518083038186803b15801561186f57600080fd5b505afa158015611883573d6000803e3d6000fd5b505050506040513d601f19601f820116820180604052508101906118a7919061377b565b600e80547fffffffffffffffffffffffff0000000000000000000000000000000000000000166001600160a01b03928316179055600c54604080517ff5852ca400000000000000000000000000000000000000000000000000000000815290519190921691633581777391839163f5852ca4916004808301926000929190829003018186803b15801561193957600080fd5b505afa15801561194d573d6000803e3d6000fd5b505050506040513d6000823e601f3d908101601f191682016040526119759190810190613b24565b6040518263ffffffff1660e01b81526004016119919190613e1e565b60206040518083038186803b1580156119a957600080fd5b505afa1580156119bd573d6000803e3d6000fd5b505050506040513d601f19601f820116820180604052508101906119e1919061377b565b600f80547fffffffffffffffffffffffff0000000000000000000000000000000000000000166001600160a01b03928316179055600c54604080517ff427c05e00000000000000000000000000000000000000000000000000000000815290519190921691633581777391839163f427c05e916004808301926000929190829003018186803b158015611a7357600080fd5b505afa158015611a87573d6000803e3d6000fd5b505050506040513d6000823e601f3d908101601f19168201604052611aaf9190810190613b24565b6040518263ffffffff1660e01b8152600401611acb9190613e1e565b60206040518083038186803b158015611ae357600080fd5b505afa158015611af7573d6000803e3d6000fd5b505050506040513d601f19601f82011682018060405250810190611b1b919061377b565b601080547fffffffffffffffffffffffff0000000000000000000000000000000000000000166001600160a01b039290921691909117905550565b600d5460125460115460018054604080516020600261010085871615026000190190941693909304601f8101849004840282018401909252818152606096600096879687968796879691956001600160a01b0386169574010000000000000000000000000000000000000000900460ff1694840393928892889190830182828015611c225780601f10611bf757610100808354040283529160200191611c22565b820191906000526020600020905b815481529060010190602001808311611c0557829003601f168201915b50505050509550955095509550955095509550909192939495565b600c546001600160a01b031681565b6001600160a01b03918216600090815260076020908152604080832093909416825291909152205490565b6001600160a01b03918216600090815260066020908152604080832093909416825291909152205460ff1690565b6b024306c4097859c43c00000081565b611308828260006129dd565b6001600160a01b038416611ce75760405162461bcd60e51b815260040161090c90614219565b611cef61203d565b6001600160a01b0316856001600160a01b03161480611d155750611d158561077b61203d565b611d315760405162461bcd60e51b815260040161090c90614150565b6000611d3b61203d565b9050611d5b818787611d4c88612e3c565b611d5588612e3c565b876110c2565b6001841415611d6f57611d6f868685610d53565b611d7884612644565b15611dd1576001600160a01b0386166000908152600860205260409020611d9f9085612651565b506001600160a01b0385166000908152600860205260409020611dc2908561265d565b50611dcf60098587612669565b505b611e18836040518060600160405280602a8152602001614a69602a913960008781526005602090815260408083206001600160a01b038d1684529091529020549190612598565b60008581526005602090815260408083206001600160a01b038b81168552925280832093909355871681522054611e4f908461267f565b60008581526005602090815260408083206001600160a01b03808b168086529190935292819020939093559151909188811691908416907fc3d58168c5ae7397731d063d5bbf3d657854427343f4c083240f7aacaa2d0f6290611eb590899089906147c4565b60405180910390a46110c2818787878787612e80565b611ed361203d565b600b546001600160a01b03908116911614611f35576040805162461bcd60e51b815260206004820181905260248201527f4f776e61626c653a2063616c6c6572206973206e6f7420746865206f776e6572604482015290519081900360640190fd5b6001600160a01b038116611f7a5760405162461bcd60e51b81526004018080602001828103825260268152602001806149cf6026913960400191505060405180910390fd5b600b546040516001600160a01b038084169216907f8be0079c531659141344cd1fd0a4f28419497f9722a3daafe3b4186f6b6457e090600090a3600b80547fffffffffffffffffffffffff0000000000000000000000000000000000000000166001600160a01b0392909216919091179055565b60006001600160a01b0382166120165760405162461bcd60e51b815260040161090c90614002565b6001600160a01b038216600090815260086020526040902061097a90612e31565b60125481565b3390565b6001600160a01b0383166120675760405162461bcd60e51b815260040161090c9061456f565b6001600160a01b03821661208d5760405162461bcd60e51b815260040161090c906140bc565b6001600160a01b0380841660008181526007602090815260408083209487168084529490915290819020849055517f8c5be1e5ebec7d5bd14f71427d1e84f3dd0314c0f7b2291e5b200ac8c7c3b925906120e8908590614777565b60405180910390a3505050565b6000610d7a83836040518060400160405280601e81526020017f536166654d6174683a207375627472616374696f6e206f766572666c6f770000815250612598565b6001600160a01b03821661215d5760405162461bcd60e51b815260040161090c906143fb565b61216982600083610d53565b6121c5816040518060600160405280602281526020016149ad602291396001600160a01b03851660009081527f1471eb6eb2c5e789fc3de43f8ce62938c7d1836ec861730447e2ada8fd81017b60205260409020549190612598565b6001600160a01b03831660009081527f1471eb6eb2c5e789fc3de43f8ce62938c7d1836ec861730447e2ada8fd81017b6020908152604082209290925560019052600490527fabd6e7cb50984ff9c2f3e18a2660c3353dadf4e3291deeb275dae2cd1e44fe055461223690826120f5565b6001600090815260046020527fabd6e7cb50984ff9c2f3e18a2660c3353dadf4e3291deeb275dae2cd1e44fe05919091556040516001600160a01b038416907fddf252ad1be2c89b69c2b068fc378daa952ba7f163c4a11628f55a4df523b3ef906115d2908590614777565b6001600160a01b0383166122c85760405162461bcd60e51b815260040161090c90614341565b60006122d261203d565b9050612302818560006122e487612e3c565b6122ed87612e3c565b604051806020016040528060008152506110c2565b8115612338576001600160a01b038416600090815260086020526040902061232a9084612651565b50612336600984612f9b565b505b61237f826040518060600160405280602481526020016149f56024913960008681526005602090815260408083206001600160a01b038b1684529091529020549190612598565b60008481526005602090815260408083206001600160a01b03891684528252808320939093558582526004905220546123b890836120f5565b6000848152600460205260408082209290925590516001600160a01b0386811691908416907fc3d58168c5ae7397731d063d5bbf3d657854427343f4c083240f7aacaa2d0f629061240c90889088906147c4565b60405180910390a450505050565b6000610d7a8383612fa7565b6001600160a01b03831661244c5760405162461bcd60e51b815260040161090c90614458565b6001600160a01b0382166124725760405162461bcd60e51b815260040161090c90613f13565b61247d838383610d53565b6124d981604051806060016040528060268152602001614a19602691396001600160a01b03861660009081527f1471eb6eb2c5e789fc3de43f8ce62938c7d1836ec861730447e2ada8fd81017b60205260409020549190612598565b6001600160a01b0384811660009081527f1471eb6eb2c5e789fc3de43f8ce62938c7d1836ec861730447e2ada8fd81017b60205260408082209390935590841681522054612527908261267f565b6001600160a01b0380841660008181527f1471eb6eb2c5e789fc3de43f8ce62938c7d1836ec861730447e2ada8fd81017b602052604090819020939093559151908516907fddf252ad1be2c89b69c2b068fc378daa952ba7f163c4a11628f55a4df523b3ef906120e8908590614777565b600081848411156126275760405162461bcd60e51b81526004018080602001828103825283818151815260200191508051906020019080838360005b838110156125ec5781810151838201526020016125d4565b50505050905090810190601f1680156126195780820380516001836020036101000a031916815260200191505b509250505060405180910390fd5b505050900390565b600061263c84848461300b565b949350505050565b600061097a600983613098565b6000610d7a83836130a4565b6000610d7a838361316a565b600061263c84846001600160a01b0385166131b4565b600082820183811015610d7a576040805162461bcd60e51b815260206004820152601b60248201527f536166654d6174683a206164646974696f6e206f766572666c6f770000000000604482015290519081900360640190fd5b6126eb846001600160a01b031661324b565b156110c2576040517fbc197c810000000000000000000000000000000000000000000000000000000081526001600160a01b0385169063bc197c819061273d9089908990889088908890600401613ce2565b602060405180830381600087803b15801561275757600080fd5b505af1925050508015612787575060408051601f3d908101601f1916820190925261278491810190613b08565b60015b6127d057612793614876565b8061279e57506127b8565b8060405162461bcd60e51b815260040161090c9190613e1e565b60405162461bcd60e51b815260040161090c90613e7f565b7fffffffff0000000000000000000000000000000000000000000000000000000081167fbc197c8100000000000000000000000000000000000000000000000000000000146128315760405162461bcd60e51b815260040161090c90613f70565b50505050505050565b6001600160a01b0384166128605760405162461bcd60e51b815260040161090c906146e3565b811580612873575061287183612644565b155b61288f5760405162461bcd60e51b815260040161090c9061439e565b600061289961203d565b90506128ab81600087611d4c88612e3c565b8260011480156128c157506128bf84613251565b155b80156128ce575060018414155b15612904576001600160a01b03851660009081526008602052604090206128f5908561265d565b5061290260098587612669565b505b60008481526005602090815260408083206001600160a01b0389168452909152902054612931908461267f565b60008581526005602090815260408083206001600160a01b038a16845282528083209390935586825260049052205461296a908461267f565b6000858152600460205260408082209290925590516001600160a01b038088169291908416907fc3d58168c5ae7397731d063d5bbf3d657854427343f4c083240f7aacaa2d0f62906129bf90899089906147c4565b60405180910390a46129d681600087878787612e80565b5050505050565b600e546040517f23b872dd0000000000000000000000000000000000000000000000000000000081526000916001600160a01b0316906323b872dd90612a2b90879030908890600401613d40565b602060405180830381600087803b158015612a4557600080fd5b505af1158015612a59573d6000803e3d6000fd5b505050506040513d601f19601f82011682018060405250810190612a7d9190613ad0565b905080612a9c5760405162461bcd60e51b815260040161090c90614119565b601154612aa9908461267f565b601155612ab68484613265565b8115612af9576001600160a01b038416600090815260146020526040902054612adf908461267f565b6001600160a01b0385166000908152601460205260409020555b7f06239653922ac7bea6aa2b19dc486b9361821d37712eb796adfd38d81de278ca8484601154604051612b2e93929190613cc1565b60405180910390a150505050565b612b44613689565b506001600160a01b0383166000908152601360209081526040918290208251808401909352805483526001015490820181905215612b945760405162461bcd60e51b815260040161090c906141e4565b601254612ba1908361267f565b6011541015612bc25760405162461bcd60e51b815260040161090c906142d3565b6000612bce8484612d17565b83835260208084018681526001600160a01b038816600090815260139092526040909120845181559051600190910155601254909150612c0e908461267f565b601255600e546040517f23b872dd0000000000000000000000000000000000000000000000000000000081526000916001600160a01b0316906323b872dd90612c5f90899030908790600401613d40565b602060405180830381600087803b158015612c7957600080fd5b505af1158015612c8d573d6000803e3d6000fd5b505050506040513d601f19601f82011682018060405250810190612cb19190613ad0565b905080612cd05760405162461bcd60e51b815260040161090c90614119565b7f1cd728a6e764ed0dcddb6e5b88d736a4a8d2a0d420ca373588f7a1109e18663f868584601254604051612d079493929190613da7565b60405180910390a1505050505050565b6000601154612d318360125461267f90919063ffffffff16565b1115612d4f5760405162461bcd60e51b815260040161090c90613fcd565b600060115411612d715760405162461bcd60e51b815260040161090c90613edc565b6000612dac601154612da66a084595161401484a000000606402612da08760125461267f90919063ffffffff16565b906133b7565b90613410565b905060006b024306c4097859c43c000000821015612dd457612dcd82613452565b9050612de0565b612ddd82613479565b90505b612df5816a295be96e6406697200000061351d565b90506000612e0b6301e13380612da688856133b7565b9050612e276b033b2e3c9fd0803ce8000000612da687846133b7565b9695505050505050565b600061097a82613534565b604080516001808252818301909252606091829190602080830190803683370190505090508281600081518110612e6f57fe5b602090810291909101015292915050565b612e92846001600160a01b031661324b565b156110c2576040517ff23a6e610000000000000000000000000000000000000000000000000000000081526001600160a01b0385169063f23a6e6190612ee49089908990889088908890600401613d64565b602060405180830381600087803b158015612efe57600080fd5b505af1925050508015612f2e575060408051601f3d908101601f19168201909252612f2b91810190613b08565b60015b612f3a57612793614876565b7fffffffff0000000000000000000000000000000000000000000000000000000081167ff23a6e6100000000000000000000000000000000000000000000000000000000146128315760405162461bcd60e51b815260040161090c90613f70565b6000610d7a8383613538565b81546000908210612fe95760405162461bcd60e51b815260040180806020018281038252602281526020018061498b6022913960400191505060405180910390fd5b826000018281548110612ff857fe5b9060005260206000200154905092915050565b600082815260018401602052604081205482816130695760405162461bcd60e51b81526020600482018181528351602484015283519092839260449091019190850190808383600083156125ec5781810151838201526020016125d4565b5084600001600182038154811061307c57fe5b9060005260206000209060020201600101549150509392505050565b6000610d7a838361360c565b6000818152600183016020526040812054801561316057835460001980830191908101906000908790839081106130d757fe5b90600052602060002001549050808760000184815481106130f457fe5b60009182526020808320909101929092558281526001898101909252604090209084019055865487908061312457fe5b6001900381819060005260206000200160009055905586600101600087815260200190815260200160002060009055600194505050505061097a565b600091505061097a565b6000613176838361360c565b6131ac5750815460018181018455600084815260208082209093018490558454848252828601909352604090209190915561097a565b50600061097a565b600082815260018401602052604081205480613219575050604080518082018252838152602080820184815286546001818101895560008981528481209551600290930290950191825591519082015586548684528188019092529290912055610d7a565b8285600001600183038154811061322c57fe5b9060005260206000209060020201600101819055506000915050610d7a565b3b151590565b600090815260046020526040902054151590565b6001600160a01b03821661328b5760405162461bcd60e51b815260040161090c90614740565b61329760008383610d53565b6001600160a01b03821660009081527f1471eb6eb2c5e789fc3de43f8ce62938c7d1836ec861730447e2ada8fd81017b60205260409020546132d9908261267f565b6001600160a01b03831660009081527f1471eb6eb2c5e789fc3de43f8ce62938c7d1836ec861730447e2ada8fd81017b6020908152604082209290925560019052600490527fabd6e7cb50984ff9c2f3e18a2660c3353dadf4e3291deeb275dae2cd1e44fe055461334a908261267f565b6001600090815260046020527fabd6e7cb50984ff9c2f3e18a2660c3353dadf4e3291deeb275dae2cd1e44fe05919091556040516001600160a01b03841691907fddf252ad1be2c89b69c2b068fc378daa952ba7f163c4a11628f55a4df523b3ef906115d2908590614777565b6000826133c65750600061097a565b828202828482816133d357fe5b0414610d7a5760405162461bcd60e51b8152600401808060200182810382526021815260200180614a936021913960400191505060405180910390fd5b6000610d7a83836040518060400160405280601a81526020017f536166654d6174683a206469766973696f6e206279207a65726f000000000000815250613624565b600061097a6b024306c4097859c43c000000612da6846af8277896582678ac0000006133b7565b6000806134cc6134a16b033b2e3c9fd0803ce80000006b024306c4097859c43c0000006120f5565b612da66134ba866b024306c4097859c43c0000006120f5565b6a084595161401484a000000906133b7565b9050610d7a61350b6a084595161401484a000000612da66135046b04d8c55aefb8c05b5c0000006af8277896582678ac0000006120f5565b85906133b7565b6af8277896582678ac0000009061267f565b60008183101561352d5781610d7a565b5090919050565b5490565b60008181526001830160205260408120548015613160578354600019808301919081019060009087908390811061356b57fe5b906000526020600020906002020190508087600001848154811061358b57fe5b6000918252602080832084546002909302019182556001938401549184019190915583548252898301905260409020908401905586548790806135ca57fe5b600082815260208082206002600019909401938402018281556001908101839055929093558881528982019092526040822091909155945061097a9350505050565b60009081526001919091016020526040902054151590565b600081836136735760405162461bcd60e51b81526020600482018181528351602484015283519092839260449091019190850190808383600083156125ec5781810151838201526020016125d4565b50600083858161367f57fe5b0495945050505050565b604051806040016040528060008152602001600081525090565b600082601f8301126136b3578081fd5b81356136c66136c182614804565b6147e0565b8181529150602080830190848101818402860182018710156136e757600080fd5b60005b84811015613706578135845292820192908201906001016136ea565b505050505092915050565b600082601f830112613721578081fd5b813561372f6136c182614822565b915080825283602082850101111561374657600080fd5b8060208401602084013760009082016020015292915050565b600060208284031215613770578081fd5b8135610d7a81614939565b60006020828403121561378c578081fd5b8151610d7a81614939565b600080604083850312156137a9578081fd5b82356137b481614939565b915060208301356137c481614939565b809150509250929050565b600080600080600060a086880312156137e6578081fd5b85356137f181614939565b9450602086013561380181614939565b9350604086013567ffffffffffffffff8082111561381d578283fd5b61382989838a016136a3565b9450606088013591508082111561383e578283fd5b61384a89838a016136a3565b9350608088013591508082111561385f578283fd5b5061386c88828901613711565b9150509295509295909350565b60008060006060848603121561388d578283fd5b833561389881614939565b925060208401356138a881614939565b929592945050506040919091013590565b600080600080600060a086880312156138d0578081fd5b85356138db81614939565b945060208601356138eb81614939565b93506040860135925060608601359150608086013567ffffffffffffffff811115613914578182fd5b61386c88828901613711565b60008060408385031215613932578182fd5b823561393d81614939565b915060208301356137c48161494e565b6000806040838503121561395f578182fd5b823561396a81614939565b946020939093013593505050565b60008060006060848603121561398c578081fd5b833561399781614939565b95602085013595506040909401359392505050565b600080600080608085870312156139c1578182fd5b84356139cc81614939565b93506020850135925060408501359150606085013567ffffffffffffffff8111156139f5578182fd5b613a0187828801613711565b91505092959194509250565b60008060408385031215613a1f578182fd5b823567ffffffffffffffff80821115613a36578384fd5b818501915085601f830112613a49578384fd5b8135613a576136c182614804565b80828252602080830192508086018a828387028901011115613a77578889fd5b8896505b84871015613aa2578035613a8e81614939565b845260019690960195928101928101613a7b565b509096508701359350505080821115613ab9578283fd5b50613ac6858286016136a3565b9150509250929050565b600060208284031215613ae1578081fd5b8151610d7a8161494e565b600060208284031215613afd578081fd5b8135610d7a8161495c565b600060208284031215613b19578081fd5b8151610d7a8161495c565b600060208284031215613b35578081fd5b815167ffffffffffffffff811115613b4b578182fd5b8201601f81018413613b5b578182fd5b8051613b696136c182614822565b818152856020838501011115613b7d578384fd5b613b8e826020830160208601614844565b95945050505050565b600060208284031215613ba8578081fd5b5035919050565b600060208284031215613bc0578081fd5b5051919050565b60008060408385031215613bd9578182fd5b50508035926020909101359150565b6000815180845260208085019450808401835b83811015613c205781516001600160a01b031687529582019590820190600101613bfb565b509495945050505050565b6000815180845260208085019450808401835b83811015613c2057815187529582019590820190600101613c3e565b60008151808452613c72816020860160208601614844565b601f01601f19169290920160200192915050565b60048110613c9057fe5b9052565b6001600160a01b0391909116815260200190565b6001600160a01b03929092168252602082015260400190565b6001600160a01b039390931683526020830191909152604082015260600190565b60006001600160a01b03808816835280871660208401525060a06040830152613d0e60a0830186613c2b565b8281036060840152613d208186613c2b565b90508281036080840152613d348185613c5a565b98975050505050505050565b6001600160a01b039384168152919092166020820152604081019190915260600190565b60006001600160a01b03808816835280871660208401525084604083015283606083015260a06080830152613d9c60a0830184613c5a565b979650505050505050565b6001600160a01b0394909416845260208401929092526040830152606082015260800190565b600060208252610d7a6020830184613c2b565b600060408252613df36040830185613c2b565b8281036020840152613b8e8185613c2b565b901515815260200190565b6020810161097a8284613c86565b600060208252610d7a6020830184613c5a565b600060c08252613e4460c0830189613c5a565b90506001600160a01b0387166020830152613e626040830187613c86565b8460608301528360808301528260a0830152979650505050505050565b60208082526034908201527f455243313135353a207472616e7366657220746f206e6f6e204552433131353560408201527f526563656976657220696d706c656d656e746572000000000000000000000000606082015260800190565b60208082526011908201527f54686520706f6f6c20697320656d707479000000000000000000000000000000604082015260600190565b60208082526023908201527f45524332303a207472616e7366657220746f20746865207a65726f206164647260408201527f6573730000000000000000000000000000000000000000000000000000000000606082015260800190565b60208082526028908201527f455243313135353a204552433131353552656365697665722072656a6563746560408201527f6420746f6b656e73000000000000000000000000000000000000000000000000606082015260800190565b6020808252818101527f526571756972696e67206d6f7265207468616e20746865726520657869737473604082015260600190565b6020808252602b908201527f455243313135353a2062616c616e636520717565727920666f7220746865207a60408201527f65726f2061646472657373000000000000000000000000000000000000000000606082015260800190565b60208082526031908201527f455243313135353a2062617463682062616c616e636520717565727920666f7260408201527f20746865207a65726f2061646472657373000000000000000000000000000000606082015260800190565b60208082526022908201527f45524332303a20617070726f766520746f20746865207a65726f20616464726560408201527f7373000000000000000000000000000000000000000000000000000000000000606082015260800190565b6020808252601d908201527f4661696c656420746f207472616e736665722044414920746f6b656e73000000604082015260600190565b60208082526029908201527f455243313135353a2063616c6c6572206973206e6f74206f776e6572206e6f7260408201527f20617070726f7665640000000000000000000000000000000000000000000000606082015260800190565b6020808252601e908201527f4e6f7420656e6f756768206c697175696469747920617661696c61626c650000604082015260600190565b6020808252818101527f54686520706f6c69637920686f6c64657220616c726561647920657869737473604082015260600190565b60208082526025908201527f455243313135353a207472616e7366657220746f20746865207a65726f20616460408201527f6472657373000000000000000000000000000000000000000000000000000000606082015260800190565b60208082526032908201527f455243313135353a207472616e736665722063616c6c6572206973206e6f742060408201527f6f776e6572206e6f7220617070726f7665640000000000000000000000000000606082015260800190565b6020808252601e908201527f4e6f7420656e6f75676820617661696c61626c65206c69717569646974790000604082015260600190565b6020808252601c908201527f4661696c656420746f20617070726f76652044414920746f6b656e7300000000604082015260600190565b60208082526023908201527f455243313135353a206275726e2066726f6d20746865207a65726f206164647260408201527f6573730000000000000000000000000000000000000000000000000000000000606082015260800190565b60208082526021908201527f455243313135353a204e465420746f6b656e20616c7265616479206d696e746560408201527f6400000000000000000000000000000000000000000000000000000000000000606082015260800190565b60208082526021908201527f45524332303a206275726e2066726f6d20746865207a65726f2061646472657360408201527f7300000000000000000000000000000000000000000000000000000000000000606082015260800190565b60208082526025908201527f45524332303a207472616e736665722066726f6d20746865207a65726f20616460408201527f6472657373000000000000000000000000000000000000000000000000000000606082015260800190565b6020808252603a908201527f5468652063616c6c657220646f6573206e6f742068617665206163636573732c60408201527f206f6e6c79206c6971756964697479206d696e696e6720686173000000000000606082015260800190565b6020808252603f908201527f54686520616d6f756e7420746f2062652077697468647261776e20697320677260408201527f6561746572207468616e2074686520617661696c61626c6520616d6f756e7400606082015260800190565b60208082526024908201527f45524332303a20617070726f76652066726f6d20746865207a65726f2061646460408201527f7265737300000000000000000000000000000000000000000000000000000000606082015260800190565b60208082526029908201527f455243313135353a2073657474696e6720617070726f76616c2073746174757360408201527f20666f722073656c660000000000000000000000000000000000000000000000606082015260800190565b60208082526029908201527f455243313135353a206163636f756e747320616e6420696473206c656e67746860408201527f206d69736d617463680000000000000000000000000000000000000000000000606082015260800190565b60208082526028908201527f455243313135353a2069647320616e6420616d6f756e7473206c656e6774682060408201527f6d69736d61746368000000000000000000000000000000000000000000000000606082015260800190565b60208082526021908201527f455243313135353a206d696e7420746f20746865207a65726f2061646472657360408201527f7300000000000000000000000000000000000000000000000000000000000000606082015260800190565b6020808252601f908201527f45524332303a206d696e7420746f20746865207a65726f206164647265737300604082015260600190565b90815260200190565b60008382526040602083015261263c6040830184613be8565b6000848252606060208301526147b26060830185613be8565b8281036040840152612e278185613c2b565b918252602082015260400190565b60ff91909116815260200190565b60405181810167ffffffffffffffff811182821017156147fc57fe5b604052919050565b600067ffffffffffffffff82111561481857fe5b5060209081020190565b600067ffffffffffffffff82111561483657fe5b50601f01601f191660200190565b60005b8381101561485f578181015183820152602001614847565b838111156111975750506000910152565b60e01c90565b600060443d101561488657610cd3565b600481823e6308c379a061489a8251614870565b146148a457610cd3565b6040517ffffffffffffffffffffffffffffffffffffffffffffffffffffffffffffffffc3d016004823e80513d67ffffffffffffffff81602484011181841117156148f25750505050610cd3565b8284019250825191508082111561490c5750505050610cd3565b503d8301602082840101111561492457505050610cd3565b601f01601f1916810160200160405291505090565b6001600160a01b038116811461092a57600080fd5b801515811461092a57600080fd5b7fffffffff000000000000000000000000000000000000000000000000000000008116811461092a57600080fdfe456e756d657261626c655365743a20696e646578206f7574206f6620626f756e647345524332303a206275726e20616d6f756e7420657863656564732062616c616e63654f776e61626c653a206e6577206f776e657220697320746865207a65726f2061646472657373455243313135353a206275726e20616d6f756e7420657863656564732062616c616e636545524332303a207472616e7366657220616d6f756e7420657863656564732062616c616e6365455243313135353a206f776e657220717565727920666f72206e6f6e6578697374656e7420746f6b656e455243313135353a20696e73756666696369656e742062616c616e636520666f72207472616e73666572536166654d6174683a206d756c7469706c69636174696f6e206f766572666c6f7745524332303a207472616e7366657220616d6f756e74206578636565647320616c6c6f77616e636545524332303a2064656372656173656420616c6c6f77616e63652062656c6f77207a65726fa2646970667358221220f806251a7bca79a8b71c3c73acea2ebe1cae9600348475d92b987e9dabafa37464736f6c63430007040033",
  "immutableReferences": {},
  "source": "// SPDX-License-Identifier: MIT\npragma solidity ^0.7.4;\npragma experimental ABIEncoderV2;\n\nimport \"../PolicyBook.sol\";\n\ncontract PolicyBookMock is PolicyBook {\n  constructor(address _insuranceContract, IPolicyBookFabric.ContractType _contractType)\n    PolicyBook(_insuranceContract, _contractType, \"\", \"\") {}\n    \n  function setTotalLiquidity(uint256 _daiInThePoolTotal) public {\n    totalLiquidity = _daiInThePoolTotal;\n  }\n\n  function setTotalCoverTokens(uint256 _daiInThePoolBought) public {\n    totalCoverTokens = _daiInThePoolBought;\n  }\n}\n",
  "sourcePath": "/home/artem/Projects/Distributed_Lab/Applicature/bridgemutual-core/contracts/mock/PolicyBookMock.sol",
  "compiler": {
    "name": "solc",
    "version": "0.7.4+commit.3f05b770.Emscripten.clang"
  },
  "schemaVersion": "3.3.3",
  "updatedAt": "2021-01-28T13:34:56.772Z",
  "devdoc": {
    "kind": "dev",
    "methods": {
      "addLiquidity(uint256)": {
        "params": {
          "_liqudityAmount": "is amount of DAI tokens to secure"
        }
      },
      "addLiquidityFor(address,uint256)": {
        "params": {
          "_liqudityAmount": "is amount of DAI tokens to secure",
          "_liquidityHolderAddr": "is address of address to assign cover"
        }
      },
      "addLiquidityFromLM(address,uint256)": {
        "params": {
          "_liqudityAmount": "is amount of DAI tokens to secure",
          "_liquidityHolderAddr": "is address of address to assign cover"
        }
      },
      "addShieldTokens(address,uint256)": {
        "params": {
          "_tokenAddress": "is address of reward token to add",
          "_tokensAmount": "is max amount of reward to operate on"
        },
        "returns": {
          "_success": "is indicator if purchase is successful, it will throw exception if unsuccessful"
        }
      },
      "balanceOf(address,uint256)": {
        "details": "Returns the amount of tokens of token type `id` owned by `account`. Requirements: - `account` cannot be the zero address."
      },
      "balanceOfBatch(address[],uint256[])": {
        "details": "xref:ROOT:erc1155.adoc#batch-operations[Batched] version of {balanceOf}. Requirements: - `accounts` and `ids` must have the same length."
      },
      "buyPolicy(uint256,uint256)": {
        "params": {
          "_coverTokens": "is number of tokens to cover  ",
          "_durationSeconds": "is number of seconds to cover"
        }
      },
      "buyPolicyFor(address,uint256,uint256)": {
        "params": {
          "_coverTokens": "is number of tokens to cover  ",
          "_durationSeconds": "is number of seconds to cover",
          "_policyHolderAddr": "is address of address to assign cover"
        }
      },
      "getQuote(uint256,uint256)": {
        "params": {
          "_durationSeconds": "is number of seconds to cover",
          "_tokens": "is number of tokens to cover"
        },
        "returns": {
          "_daiTokens": "is amount of DAI policy costs"
        }
      },
      "isApprovedForAll(address,address)": {
        "details": "Returns true if `operator` is approved to transfer ``account``'s tokens. See {setApprovalForAll}."
      },
      "owner()": {
        "details": "Returns the address of the current owner."
      },
      "quoteStrategy()": {
        "returns": {
          "_quoteStrategy": "is address of Quote strategy contract used to calculate quote"
        }
      },
      "renounceOwnership()": {
        "details": "Leaves the contract without owner. It will not be possible to call `onlyOwner` functions anymore. Can only be called by the current owner. NOTE: Renouncing ownership will leave the contract without an owner, thereby removing any functionality that is only available to the owner."
      },
      "rewardForUnclaimedExpiredPolicy(uint256)": {
        "params": {
          "_policyId": "is id of policy to get reward for, reward will be sent to policy holder"
        }
      },
      "safeBatchTransferFrom(address,address,uint256[],uint256[],bytes)": {
        "details": "xref:ROOT:erc1155.adoc#batch-operations[Batched] version of {safeTransferFrom}. Emits a {TransferBatch} event. Requirements: - `ids` and `amounts` must have the same length. - If `to` refers to a smart contract, it must implement {IERC1155Receiver-onERC1155BatchReceived} and return the acceptance magic value."
      },
      "safeTransferFrom(address,address,uint256,uint256,bytes)": {
        "details": "Transfers `amount` tokens of token type `id` from `from` to `to`. Emits a {TransferSingle} event. Requirements: - `to` cannot be the zero address. - If the caller is not `from`, it must be have been approved to spend ``from``'s tokens via {setApprovalForAll}. - `from` must have a balance of tokens of type `id` of at least `amount`. - If `to` refers to a smart contract, it must implement {IERC1155Receiver-onERC1155Received} and return the acceptance magic value."
      },
      "setApprovalForAll(address,bool)": {
        "details": "Grants or revokes permission to `operator` to transfer the caller's tokens, according to `approved`, Emits an {ApprovalForAll} event. Requirements: - `operator` cannot be the caller."
      },
      "shieldAssets(uint256,uint256)": {
        "params": {
          "_limit": "is number of policy books to returns from _offset",
          "_offset": "is starting item in array to return array from"
        },
        "returns": {
          "_shieldAssets": "is addresses of shield assets, that will be distributed to Policy givers",
          "_shieldAssetsCount": "is number of added shield assets"
        }
      },
      "shieldAssetsCount()": {
        "returns": {
          "_shieldAssetsCount": "is number of added shield assets"
        }
      },
      "shieldAssetsWithBalance(uint256,uint256)": {
        "params": {
          "_limit": "is number of policy books to returns from _offset",
          "_offset": "is starting item in array to return array from"
        },
        "returns": {
          "_shieldAssetBalance": "is tokens amount of shield assets allocated to Policy Book,  to get specific shield asset balance lookup _shieldAssetBalances by same index as of shield asset",
          "_shieldAssets": "is addresses of shield assets, that will be distributed to Policy givers",
          "_shieldAssetsCount": "is number of added shield assets"
        }
      },
      "stats()": {
        "returns": {
          "_annualProfitYields": "is its APY  ",
          "_contractType": "is a type of insured contract",
          "_insuredContract": "is an addres of insured contract",
          "_maxCapacities": "is a max token amount that a user can buy",
          "_name": "is the name of PolicyBook",
          "_totalDaiLiquidity": "is PolicyBook's liquidity"
        }
      },
      "supportsInterface(bytes4)": {
        "details": "See {IERC165-supportsInterface}. Time complexity O(1), guaranteed to always use less than 30 000 gas."
      },
      "transferFrom(address,address,uint256)": {
        "details": "Moves `amount` tokens from `sender` to `recipient` using the allowance mechanism. `amount` is then deducted from the caller's allowance. Returns a boolean value indicating whether the operation succeeded. Emits a {Transfer} event."
      },
      "transferOwnership(address)": {
        "details": "Transfers ownership of the contract to a new account (`newOwner`). Can only be called by the current owner."
      },
      "withdrawLiquidity(uint256)": {
        "params": {
          "_tokensToWithdraw": "is amount of DAI tokens to withdraw"
        }
      }
    },
    "version": 1
  },
  "userdoc": {
    "kind": "user",
    "methods": {
      "addLiquidity(uint256)": {
        "notice": "Let user to add liquidity by supplying DAI, access: ANY"
      },
      "addLiquidityFor(address,uint256)": {
        "notice": "Let user to add liqiudity for another user by supplying DAI, access: ANY"
      },
      "addLiquidityFromLM(address,uint256)": {
        "notice": "Let liquidityMining contract to add liqiudity for another user by supplying DAI, access: ONLY LM"
      },
      "addShieldTokens(address,uint256)": {
        "notice": "Adds shield tokens to contract, access: ANY"
      },
      "allowance(address,address)": {
        "notice": "From ERC20"
      },
      "approve(address,uint256)": {
        "notice": "From ERC20"
      },
      "balanceOf(address)": {
        "notice": "From ERC20"
      },
      "buyPolicy(uint256,uint256)": {
        "notice": "Let user to buy policy by supplying DAI, access: ANY"
      },
      "buyPolicyFor(address,uint256,uint256)": {
        "notice": "Let user to buy policy for another user by supplying DAI, access: ANY"
      },
      "contractType()": {
        "notice": "Returns type of contract this PolicyBook covers, access: ANY"
      },
      "decreaseAllowance(address,uint256)": {
        "notice": "From ERC20"
      },
      "getQuote(uint256,uint256)": {
        "notice": "Let user to calculate policy cost in DAI, access: ANY"
      },
      "increaseAllowance(address,uint256)": {
        "notice": "From ERC20"
      },
      "insuranceContractAddress()": {
        "notice": "Returns address of contract this PolicyBook covers, access: ANY"
      },
      "quoteStrategy()": {
        "notice": "Returns quote strategy defined during creation of PolicyBook, access: ANY"
      },
      "rewardForUnclaimedExpiredPolicy(uint256)": {
        "notice": "Let user to claim rewards for unclaimed policy cost in DAI, access: ANY"
      },
      "shieldAssets(uint256,uint256)": {
        "notice": "Returns list of shield assets added to PolicyBook, access: ANY"
      },
      "shieldAssetsCount()": {
        "notice": "Returns number of shield assets added, access: ANY"
      },
      "shieldAssetsWithBalance(uint256,uint256)": {
        "notice": "Returns list of shield assets added with tokens amount allocated to Policy Book, access: ANY"
      },
      "stats()": {
        "notice": "Getting stats, access: ANY"
      },
      "totalSupply()": {
        "notice": "From ERC20"
      },
      "transfer(address,uint256)": {
        "notice": "From ERC20"
      },
      "withdrawLiquidity(uint256)": {
        "notice": "Let user to withdraw deposited liqiudity, access: ANY"
      }
    },
    "version": 1
  }
}