{
  "contractName": "PolicyBookRegistry",
  "abi": [
    {
      "anonymous": false,
      "inputs": [
        {
          "indexed": false,
          "internalType": "address",
          "name": "insured",
          "type": "address"
        },
        {
          "indexed": false,
          "internalType": "address",
          "name": "at",
          "type": "address"
        }
      ],
      "name": "Added",
      "type": "event"
    },
    {
      "anonymous": false,
      "inputs": [
        {
          "indexed": true,
          "internalType": "address",
          "name": "previousOwner",
          "type": "address"
        },
        {
          "indexed": true,
          "internalType": "address",
          "name": "newOwner",
          "type": "address"
        }
      ],
      "name": "OwnershipTransferred",
      "type": "event"
    },
    {
      "inputs": [],
      "name": "owner",
      "outputs": [
        {
          "internalType": "address",
          "name": "",
          "type": "address"
        }
      ],
      "stateMutability": "view",
      "type": "function",
      "constant": true
    },
    {
      "inputs": [
        {
          "internalType": "uint256",
          "name": "",
          "type": "uint256"
        }
      ],
      "name": "policies",
      "outputs": [
        {
          "internalType": "address",
          "name": "",
          "type": "address"
        }
      ],
      "stateMutability": "view",
      "type": "function",
      "constant": true
    },
    {
      "inputs": [
        {
          "internalType": "address",
          "name": "",
          "type": "address"
        }
      ],
      "name": "policiesByAddress",
      "outputs": [
        {
          "internalType": "address",
          "name": "",
          "type": "address"
        }
      ],
      "stateMutability": "view",
      "type": "function",
      "constant": true
    },
    {
      "inputs": [],
      "name": "policyFabricAddress",
      "outputs": [
        {
          "internalType": "address",
          "name": "",
          "type": "address"
        }
      ],
      "stateMutability": "view",
      "type": "function",
      "constant": true
    },
    {
      "inputs": [],
      "name": "renounceOwnership",
      "outputs": [],
      "stateMutability": "nonpayable",
      "type": "function"
    },
    {
      "inputs": [
        {
          "internalType": "address",
          "name": "newOwner",
          "type": "address"
        }
      ],
      "name": "transferOwnership",
      "outputs": [],
      "stateMutability": "nonpayable",
      "type": "function"
    },
    {
      "inputs": [
        {
          "internalType": "address",
          "name": "_policyFabricAddress",
          "type": "address"
        }
      ],
      "name": "setPolicyFabricAddress",
      "outputs": [],
      "stateMutability": "nonpayable",
      "type": "function"
    },
    {
      "inputs": [
        {
          "internalType": "address",
          "name": "_insuredContract",
          "type": "address"
        },
        {
          "internalType": "address",
          "name": "_policyBook",
          "type": "address"
        }
      ],
      "name": "add",
      "outputs": [],
      "stateMutability": "nonpayable",
      "type": "function"
    },
    {
      "inputs": [],
      "name": "count",
      "outputs": [
        {
          "internalType": "uint256",
          "name": "_policyBooksCount",
          "type": "uint256"
        }
      ],
      "stateMutability": "view",
      "type": "function",
      "constant": true
    },
    {
      "inputs": [
        {
          "internalType": "uint256",
          "name": "_offset",
          "type": "uint256"
        },
        {
          "internalType": "uint256",
          "name": "_limit",
          "type": "uint256"
        }
      ],
      "name": "list",
      "outputs": [
        {
          "internalType": "uint256",
          "name": "_policyBooksCount",
          "type": "uint256"
        },
        {
          "internalType": "address[]",
          "name": "_policyBooks",
          "type": "address[]"
        }
      ],
      "stateMutability": "view",
      "type": "function",
      "constant": true
    },
    {
      "inputs": [
        {
          "internalType": "uint256",
          "name": "_offset",
          "type": "uint256"
        },
        {
          "internalType": "uint256",
          "name": "_limit",
          "type": "uint256"
        }
      ],
      "name": "listWithStats",
      "outputs": [
        {
          "internalType": "uint256",
          "name": "_policyBooksCount",
          "type": "uint256"
        },
        {
          "internalType": "address[]",
          "name": "_policyBooks",
          "type": "address[]"
        },
        {
          "internalType": "string[]",
          "name": "_names",
          "type": "string[]"
        },
        {
          "internalType": "enum IPolicyBookFabric.ContractType[]",
          "name": "_contractTypes",
          "type": "uint8[]"
        },
        {
          "internalType": "uint256[]",
          "name": "_maxCapacities",
          "type": "uint256[]"
        },
        {
          "internalType": "uint256[]",
          "name": "_totalDaiLiquidity",
          "type": "uint256[]"
        },
        {
          "internalType": "uint256[]",
          "name": "_annualProfitYields",
          "type": "uint256[]"
        }
      ],
      "stateMutability": "view",
      "type": "function",
      "constant": true
    },
    {
      "inputs": [
        {
          "internalType": "address",
          "name": "_contract",
          "type": "address"
        }
      ],
      "name": "policyBookFor",
      "outputs": [
        {
          "internalType": "address",
          "name": "_policyBook",
          "type": "address"
        }
      ],
      "stateMutability": "view",
      "type": "function",
      "constant": true
    },
    {
      "inputs": [
        {
          "internalType": "address[]",
          "name": "_policyBooks",
          "type": "address[]"
        }
      ],
      "name": "stats",
      "outputs": [
        {
          "internalType": "string[]",
          "name": "_names",
          "type": "string[]"
        },
        {
          "internalType": "enum IPolicyBookFabric.ContractType[]",
          "name": "_contractTypes",
          "type": "uint8[]"
        },
        {
          "internalType": "uint256[]",
          "name": "_maxCapacities",
          "type": "uint256[]"
        },
        {
          "internalType": "uint256[]",
          "name": "_totalDaiLiquidity",
          "type": "uint256[]"
        },
        {
          "internalType": "uint256[]",
          "name": "_annualProfitYields",
          "type": "uint256[]"
        }
      ],
      "stateMutability": "view",
      "type": "function",
      "constant": true
    },
    {
      "inputs": [
        {
          "internalType": "address[]",
          "name": "_insuredContracts",
          "type": "address[]"
        }
      ],
      "name": "statsByInsuredContracts",
      "outputs": [
        {
          "internalType": "string[]",
          "name": "_names",
          "type": "string[]"
        },
        {
          "internalType": "enum IPolicyBookFabric.ContractType[]",
          "name": "_contractTypes",
          "type": "uint8[]"
        },
        {
          "internalType": "uint256[]",
          "name": "_maxCapacities",
          "type": "uint256[]"
        },
        {
          "internalType": "uint256[]",
          "name": "_totalDaiLiquidity",
          "type": "uint256[]"
        },
        {
          "internalType": "uint256[]",
          "name": "_annualProfitYields",
          "type": "uint256[]"
        }
      ],
      "stateMutability": "view",
      "type": "function",
      "constant": true
    }
  ],
  "bytecode": "0x608060405234801561001057600080fd5b50600061001b61006a565b600080546001600160a01b0319166001600160a01b0383169081178255604051929350917f8be0079c531659141344cd1fd0a4f28419497f9722a3daafe3b4186f6b6457e0908290a35061006e565b3390565b6115928061007d6000396000f3fe608060405234801561001057600080fd5b50600436106100ea5760003560e01c8063c85b4e141161008c578063de58604911610066578063de586049146101e3578063f10ed7a3146101f6578063f2fde38b14610209578063f465eb421461021c576100ea565b8063c85b4e1414610186578063d3e89483146101ac578063da82de5c146101bf576100ea565b806350fd7367116100c857806350fd73671461014057806352c28fab14610161578063715018a6146101765780638da5cb5b1461017e576100ea565b806306661abd146100ef5780631d514ec11461010d578063217c15521461012d575b600080fd5b6100f7610224565b604051610104919061142f565b60405180910390f35b61012061011b366004610f7a565b61022a565b60405161010491906112c0565b61012061013b366004610f7a565b610252565b61015361014e36600461115b565b610280565b604051610104929190611438565b61017461016f366004610f94565b61037c565b005b610174610508565b610120610608565b61019961019436600461115b565b610624565b6040516101049796959493929190611459565b6101206101ba366004611143565b61065e565b6101d26101cd366004610fc6565b610695565b604051610104959493929190611308565b6101746101f1366004610f7a565b6109d2565b6101d2610204366004610fc6565b610aaa565b610174610217366004610f7a565b610d75565b610120610eff565b60025490565b60046020526000908152604090205473ffffffffffffffffffffffffffffffffffffffff1681565b73ffffffffffffffffffffffffffffffffffffffff808216600090815260046020526040902054165b919050565b6000606060006102a7856102a1600254878901610f1b90919063ffffffff16565b90610f33565b905084810360608167ffffffffffffffff811180156102c557600080fd5b506040519080825280602002602001820160405280156102ef578160200160208202803683370190505b509050865b8381101561036f576003818154811061030957fe5b9060005260206000200160009054906101000a900473ffffffffffffffffffffffffffffffffffffffff16828983038151811061034257fe5b73ffffffffffffffffffffffffffffffffffffffff909216602092830291909101909101526001016102f4565b5090969095509350505050565b60015473ffffffffffffffffffffffffffffffffffffffff1633146103d6576040517f08c379a00000000000000000000000000000000000000000000000000000000081526004016103cd90611375565b60405180910390fd5b73ffffffffffffffffffffffffffffffffffffffff8281166000908152600460205260409020541615610435576040517f08c379a00000000000000000000000000000000000000000000000000000000081526004016103cd906113d2565b6003805460018181019092557fc2575a0e9e593c00f959f8c92f12db2869c3395a3b0502d05e2516446f71f85b01805473ffffffffffffffffffffffffffffffffffffffff8085167fffffffffffffffffffffffff000000000000000000000000000000000000000092831681179093558516600090815260046020526040908190208054909216909217905560028054909201909155517f938c63ac3d228b23f6bee7618fefc6790522e338ac202c958a2ea9eb9706c5d1906104fc90849084906112e1565b60405180910390a15050565b610510610f43565b60005473ffffffffffffffffffffffffffffffffffffffff90811691161461059957604080517f08c379a000000000000000000000000000000000000000000000000000000000815260206004820181905260248201527f4f776e61626c653a2063616c6c6572206973206e6f7420746865206f776e6572604482015290519081900360640190fd5b6000805460405173ffffffffffffffffffffffffffffffffffffffff909116907f8be0079c531659141344cd1fd0a4f28419497f9722a3daafe3b4186f6b6457e0908390a3600080547fffffffffffffffffffffffff0000000000000000000000000000000000000000169055565b60005473ffffffffffffffffffffffffffffffffffffffff1690565b60006060806060806060806106398989610280565b909750955061064786610aaa565b9a9d999c50929a5090989097919650945092505050565b6003818154811061066e57600080fd5b60009182526020909120015473ffffffffffffffffffffffffffffffffffffffff16905081565b606080606080606080865167ffffffffffffffff811180156106b657600080fd5b506040519080825280602002602001820160405280156106ea57816020015b60608152602001906001900390816106d55790505b5090506060875167ffffffffffffffff8111801561070757600080fd5b50604051908082528060200260200182016040528015610731578160200160208202803683370190505b5090506060885167ffffffffffffffff8111801561074e57600080fd5b50604051908082528060200260200182016040528015610778578160200160208202803683370190505b5090506060895167ffffffffffffffff8111801561079557600080fd5b506040519080825280602002602001820160405280156107bf578160200160208202803683370190505b50905060608a5167ffffffffffffffff811180156107dc57600080fd5b50604051908082528060200260200182016040528015610806578160200160208202803683370190505b50905060005b8b518110156109bf57600460008d838151811061082557fe5b602002602001015173ffffffffffffffffffffffffffffffffffffffff1673ffffffffffffffffffffffffffffffffffffffff16815260200190815260200160002060009054906101000a900473ffffffffffffffffffffffffffffffffffffffff1673ffffffffffffffffffffffffffffffffffffffff1663d80528ae6040518163ffffffff1660e01b815260040160006040518083038186803b1580156108cd57600080fd5b505afa1580156108e1573d6000803e3d6000fd5b505050506040513d6000823e601f3d9081017fffffffffffffffffffffffffffffffffffffffffffffffffffffffffffffffe0168201604052610927919081019061106e565b8a868151811061093357fe5b602002602001018a878151811061094657fe5b602002602001018a888151811061095957fe5b602002602001018a898151811061096c57fe5b602002602001018a8a8151811061097f57fe5b6020026020010185815250858152508581525085600381111561099e57fe5b60038111156109a957fe5b90529490945250506001909201915061080c9050565b50939a9299509097509550909350915050565b6109da610f43565b60005473ffffffffffffffffffffffffffffffffffffffff908116911614610a6357604080517f08c379a000000000000000000000000000000000000000000000000000000000815260206004820181905260248201527f4f776e61626c653a2063616c6c6572206973206e6f7420746865206f776e6572604482015290519081900360640190fd5b600180547fffffffffffffffffffffffff00000000000000000000000000000000000000001673ffffffffffffffffffffffffffffffffffffffff92909216919091179055565b606080606080606080865167ffffffffffffffff81118015610acb57600080fd5b50604051908082528060200260200182016040528015610aff57816020015b6060815260200190600190039081610aea5790505b5090506060875167ffffffffffffffff81118015610b1c57600080fd5b50604051908082528060200260200182016040528015610b46578160200160208202803683370190505b5090506060885167ffffffffffffffff81118015610b6357600080fd5b50604051908082528060200260200182016040528015610b8d578160200160208202803683370190505b5090506060895167ffffffffffffffff81118015610baa57600080fd5b50604051908082528060200260200182016040528015610bd4578160200160208202803683370190505b50905060608a5167ffffffffffffffff81118015610bf157600080fd5b50604051908082528060200260200182016040528015610c1b578160200160208202803683370190505b50905060005b8b518110156109bf578b8181518110610c3657fe5b602002602001015173ffffffffffffffffffffffffffffffffffffffff1663d80528ae6040518163ffffffff1660e01b815260040160006040518083038186803b158015610c8357600080fd5b505afa158015610c97573d6000803e3d6000fd5b505050506040513d6000823e601f3d9081017fffffffffffffffffffffffffffffffffffffffffffffffffffffffffffffffe0168201604052610cdd919081019061106e565b8a8681518110610ce957fe5b602002602001018a8781518110610cfc57fe5b602002602001018a8881518110610d0f57fe5b602002602001018a8981518110610d2257fe5b602002602001018a8a81518110610d3557fe5b60200260200101858152508581525085815250856003811115610d5457fe5b6003811115610d5f57fe5b905294909452505060019092019150610c219050565b610d7d610f43565b60005473ffffffffffffffffffffffffffffffffffffffff908116911614610e0657604080517f08c379a000000000000000000000000000000000000000000000000000000000815260206004820181905260248201527f4f776e61626c653a2063616c6c6572206973206e6f7420746865206f776e6572604482015290519081900360640190fd5b73ffffffffffffffffffffffffffffffffffffffff8116610e72576040517f08c379a00000000000000000000000000000000000000000000000000000000081526004018080602001828103825260268152602001806115376026913960400191505060405180910390fd5b6000805460405173ffffffffffffffffffffffffffffffffffffffff808516939216917f8be0079c531659141344cd1fd0a4f28419497f9722a3daafe3b4186f6b6457e091a3600080547fffffffffffffffffffffffff00000000000000000000000000000000000000001673ffffffffffffffffffffffffffffffffffffffff92909216919091179055565b60015473ffffffffffffffffffffffffffffffffffffffff1681565b6000818310610f2a5781610f2c565b825b9392505050565b600081831015610f2a5781610f2c565b3390565b803573ffffffffffffffffffffffffffffffffffffffff8116811461027b57600080fd5b80516004811061027b57600080fd5b600060208284031215610f8b578081fd5b610f2c82610f47565b60008060408385031215610fa6578081fd5b610faf83610f47565b9150610fbd60208401610f47565b90509250929050565b60006020808385031215610fd8578182fd5b823567ffffffffffffffff80821115610fef578384fd5b818501915085601f830112611002578384fd5b81358181111561100e57fe5b838102915061101e8483016114e2565b8181528481019084860184860187018a1015611038578788fd5b8795505b838610156110615761104d81610f47565b83526001959095019491860191860161103c565b5098975050505050505050565b600080600080600060a08688031215611085578081fd5b855167ffffffffffffffff8082111561109c578283fd5b818801915088601f8301126110af578283fd5b8151818111156110bb57fe5b6110ec60207fffffffffffffffffffffffffffffffffffffffffffffffffffffffffffffffe0601f840116016114e2565b9150808252896020828501011115611102578384fd5b611113816020840160208601611506565b509550611124905060208701610f6b565b6040870151606088015160809098015196999198509695945092505050565b600060208284031215611154578081fd5b5035919050565b6000806040838503121561116d578182fd5b50508035926020909101359150565b6000815180845260208085019450808401835b838110156111c157815173ffffffffffffffffffffffffffffffffffffffff168752958201959082019060010161118f565b509495945050505050565b6000815180845260208085019450808401835b838110156111c1578151600481106111f357fe5b875295820195908201906001016111df565b60008282518085526020808601955080818302840101818601855b84811015611284577fffffffffffffffffffffffffffffffffffffffffffffffffffffffffffffffe080878503018a528251805180865261126681888801898501611506565b9a86019a601f01909116939093018401925090830190600101611220565b5090979650505050505050565b6000815180845260208085019450808401835b838110156111c1578151875295820195908201906001016112a4565b73ffffffffffffffffffffffffffffffffffffffff91909116815260200190565b73ffffffffffffffffffffffffffffffffffffffff92831681529116602082015260400190565b600060a0825261131b60a0830188611205565b828103602084015261132d81886111cc565b905082810360408401526113418187611291565b905082810360608401526113558186611291565b905082810360808401526113698185611291565b98975050505050505050565b60208082526025908201527f43616c6c6572206973206e6f74206120706f6c69637946616272696320636f6e60408201527f7472616374000000000000000000000000000000000000000000000000000000606082015260800190565b6020808252602e908201527f506f6c696379426f6f6b20666f722074686520636f6e7472616374206973206160408201527f6c72656164792063726561746564000000000000000000000000000000000000606082015260800190565b90815260200190565b600083825260406020830152611451604083018461117c565b949350505050565b600088825260e0602083015261147260e083018961117c565b82810360408401526114848189611205565b9050828103606084015261149881886111cc565b905082810360808401526114ac8187611291565b905082810360a08401526114c08186611291565b905082810360c08401526114d48185611291565b9a9950505050505050505050565b60405181810167ffffffffffffffff811182821017156114fe57fe5b604052919050565b60005b83811015611521578181015183820152602001611509565b83811115611530576000848401525b5050505056fe4f776e61626c653a206e6577206f776e657220697320746865207a65726f2061646472657373a2646970667358221220573b9f2127b1726eb889dbba4805b13d33dc011d31ab66123d733699ac54a1c564736f6c63430007040033",
  "immutableReferences": {},
  "source": "// SPDX-License-Identifier: MIT\npragma solidity =0.7.4;\npragma experimental ABIEncoderV2;\n\nimport \"@openzeppelin/contracts/math/Math.sol\";\nimport \"@openzeppelin/contracts/access/Ownable.sol\";\n\nimport \"./interfaces/IPolicyBook.sol\";\nimport \"./interfaces/IPolicyBookRegistry.sol\";\n\ncontract PolicyBookRegistry is IPolicyBookRegistry, Ownable {\n  using Math for uint256;\n\n  address public policyFabricAddress;\n  uint256 private policyBooksCount;\n\n  address[] public policies;\n  mapping(address => address) public policiesByAddress;\n\n  event Added(address insured, address at);\n\n  modifier onlyPolicyFabric() {\n    require(msg.sender == policyFabricAddress, \"Caller is not a policyFabric contract\");\n    _;\n  }\n\n  function setPolicyFabricAddress(address _policyFabricAddress) external onlyOwner {\n    policyFabricAddress = _policyFabricAddress;\n  }\n\n  function add(address _insuredContract, address _policyBook) external override onlyPolicyFabric() {\n    require(policiesByAddress[_insuredContract] == address(0), \"PolicyBook for the contract is already created\");\n\n    policies.push(_policyBook);\n    policiesByAddress[_insuredContract] = _policyBook;\n    policyBooksCount++;\n\n    emit Added(_insuredContract, _policyBook);\n  }\n\n  function count() external view override returns (uint256 _policyBooksCount) {\n    return policyBooksCount;\n  }\n\n  function list(uint256 _offset, uint256 _limit)\n    public\n    view\n    override\n    returns (uint256 _policyBooksCount, address[] memory _policyBooks)\n  {\n    uint256 to = (_offset + _limit).min(policyBooksCount).max(_offset);\n    uint256 size = to - _offset;\n\n    address[] memory result = new address[](size);\n\n    for (uint256 i = _offset; i < to; i++) {\n      result[i - _offset] = policies[i];\n    }\n\n    return (size, result);\n  }\n\n  function listWithStats(uint256 _offset, uint256 _limit)\n    public\n    view\n    override\n    returns (\n      uint256 _policyBooksCount, \n      address[] memory _policyBooks,\n      string[] memory _names,\n      IPolicyBookFabric.ContractType[] memory _contractTypes,\n      uint256[] memory _maxCapacities,\n      uint256[] memory _totalDaiLiquidity,\n      uint256[] memory _annualProfitYields\n    )\n  {\n    (_policyBooksCount,\n    _policyBooks) = list(_offset, _limit);\n\n    (_names, \n    _contractTypes,\n    _maxCapacities,\n    _totalDaiLiquidity,\n    _annualProfitYields) = stats(_policyBooks);\n  }\n\n  function policyBookFor(address _contract) external view override returns (address _policyBook) {\n    return policiesByAddress[_contract];\n  }\n\n  function stats(address[] memory _policyBooks)\n    public\n    view\n    override\n    returns (\n      string[] memory _names,\n      IPolicyBookFabric.ContractType[] memory _contractTypes,\n      uint256[] memory _maxCapacities,\n      uint256[] memory _totalDaiLiquidity,\n      uint256[] memory _annualProfitYields\n    )\n  {\n    string[] memory names = new string[](_policyBooks.length);\n    IPolicyBookFabric.ContractType[] memory contractTypes = new IPolicyBookFabric.ContractType[](_policyBooks.length);\n    uint256[] memory maxCapacities = new uint256[](_policyBooks.length);\n    uint256[] memory totalDaiLiquidity = new uint256[](_policyBooks.length);\n    uint256[] memory annualProfitYields = new uint256[](_policyBooks.length);\n\n    // TODO APY\n    for (uint256 i = 0; i < _policyBooks.length; i++) {      \n      (names[i], \n      contractTypes[i],\n      maxCapacities[i],\n      totalDaiLiquidity[i],\n      annualProfitYields[i]) = IPolicyBook(_policyBooks[i]).stats();\n    }\n\n    return (names, contractTypes, maxCapacities, totalDaiLiquidity, annualProfitYields);\n  }\n\n  function statsByInsuredContracts(address[] memory _insuredContracts)\n    public\n    view\n    override\n    returns (      \n      string[] memory _names,\n      IPolicyBookFabric.ContractType[] memory _contractTypes,\n      uint256[] memory _maxCapacities,\n      uint256[] memory _totalDaiLiquidity,\n      uint256[] memory _annualProfitYields\n    )\n  {\n    string[] memory names = new string[](_insuredContracts.length);\n    IPolicyBookFabric.ContractType[] memory contractTypes = new IPolicyBookFabric.ContractType[](_insuredContracts.length);\n    uint256[] memory maxCapacities = new uint256[](_insuredContracts.length);\n    uint256[] memory totalDaiLiquidity = new uint256[](_insuredContracts.length);\n    uint256[] memory annualProfitYields = new uint256[](_insuredContracts.length);\n\n    // TODO APY\n    for (uint256 i = 0; i < _insuredContracts.length; i++) {\n      (names[i], \n      contractTypes[i],\n      maxCapacities[i],\n      totalDaiLiquidity[i],\n      annualProfitYields[i]) = IPolicyBook(policiesByAddress[_insuredContracts[i]]).stats();\n    }\n\n    return (names, contractTypes, maxCapacities, totalDaiLiquidity, annualProfitYields);\n  }\n}\n",
  "sourcePath": "/home/artem/Projects/Distributed_Lab/Applicature/bridgemutual-core/contracts/PolicyBookRegistry.sol",
  "compiler": {
    "name": "solc",
    "version": "0.7.4+commit.3f05b770.Emscripten.clang"
  },
  "schemaVersion": "3.3.3",
  "updatedAt": "2021-01-21T14:12:35.472Z",
  "networkType": "ethereum",
  "devdoc": {
    "kind": "dev",
    "methods": {
      "count()": {
        "returns": {
          "_policyBooksCount": "is number of PolicyBooks"
        }
      },
      "list(uint256,uint256)": {
        "returns": {
          "_policyBooks": "is array of registered PolicyBook addresses",
          "_policyBooksCount": "is count of returned registered PolicyBook addresses"
        }
      },
      "listWithStats(uint256,uint256)": {
        "returns": {
          "_annualProfitYields": "is an array of APYs",
          "_contractTypes": "is an array of insured contract types",
          "_maxCapacities": "is an array of max token amount that a user can buy",
          "_names": "is an array of PolicyBooks names",
          "_policyBooks": "is array of registered PolicyBook addresses",
          "_policyBooksCount": "is count of returned registered PolicyBook addresses",
          "_totalDaiLiquidity": "is an array of liquidities"
        }
      },
      "owner()": {
        "details": "Returns the address of the current owner."
      },
      "policyBookFor(address)": {
        "params": {
          "_contract": "is contract address to lookup for created IPolicyBook"
        },
        "returns": {
          "_policyBook": "is policy book address if exists for passed contract address, if not it will return address(0)"
        }
      },
      "renounceOwnership()": {
        "details": "Leaves the contract without owner. It will not be possible to call `onlyOwner` functions anymore. Can only be called by the current owner. NOTE: Renouncing ownership will leave the contract without an owner, thereby removing any functionality that is only available to the owner."
      },
      "stats(address[])": {
        "params": {
          "_policyBooks": "is list of PolicyBooks addresses"
        },
        "returns": {
          "_annualProfitYields": "is array of annual profit yields per PolicyBooks",
          "_contractTypes": "is array of insured contracts per PolicyBooks",
          "_maxCapacities": "is array of max capacities per PolicyBooks",
          "_names": "is array of names per PolicyBooks",
          "_totalDaiLiquidity": "is array of DAI liquidity per PolicyBooks"
        }
      },
      "statsByInsuredContracts(address[])": {
        "params": {
          "_insuredContracts": "is list of insuredContracts in registry"
        },
        "returns": {
          "_annualProfitYields": "is array of annual profit yields per PolicyBooks",
          "_contractTypes": "is array of insured contracts per PolicyBooks",
          "_maxCapacities": "is array of max capacities per PolicyBooks",
          "_names": "is array of names per PolicyBooks",
          "_totalDaiLiquidity": "is array of DAI liquidity per PolicyBooks"
        }
      },
      "transferOwnership(address)": {
        "details": "Transfers ownership of the contract to a new account (`newOwner`). Can only be called by the current owner."
      }
    },
    "version": 1
  },
  "userdoc": {
    "kind": "user",
    "methods": {
      "add(address,address)": {
        "notice": "Adds PolicyBook to registry, access: PolicyFabric"
      },
      "count()": {
        "notice": "Returns number of registered PolicyBooks, access: ANY"
      },
      "list(uint256,uint256)": {
        "notice": "Listing registered PolicyBooks, access: ANY"
      },
      "listWithStats(uint256,uint256)": {
        "notice": "Listing registered PolicyBooks, access: ANY"
      },
      "policyBookFor(address)": {
        "notice": "Return existing Policy Book contract, access: ANY"
      },
      "stats(address[])": {
        "notice": "Getting stats from policy books, access: ANY"
      },
      "statsByInsuredContracts(address[])": {
        "notice": "Getting stats from policy books, access: ANY"
      }
    },
    "version": 1
  }
}