{
  "contractName": "PolicyBook",
  "abi": [
    {
      "inputs": [
        {
          "internalType": "address",
          "name": "_insuranceContract",
          "type": "address"
        },
        {
          "internalType": "enum IPolicyBookFabric.ContractType",
          "name": "_contractType",
          "type": "uint8"
        },
        {
          "internalType": "string",
          "name": "_description",
          "type": "string"
        },
        {
          "internalType": "string",
          "name": "_projectSymbol",
          "type": "string"
        }
      ],
      "stateMutability": "nonpayable",
      "type": "constructor"
    },
    {
      "anonymous": false,
      "inputs": [
        {
          "indexed": false,
          "internalType": "address",
          "name": "_liquidityHolder",
          "type": "address"
        },
        {
          "indexed": false,
          "internalType": "uint256",
          "name": "_liqudityAmount",
          "type": "uint256"
        },
        {
          "indexed": false,
          "internalType": "uint256",
          "name": "_newTotalLiquidity",
          "type": "uint256"
        }
      ],
      "name": "AddLiquidity",
      "type": "event"
    },
    {
      "anonymous": false,
      "inputs": [
        {
          "indexed": true,
          "internalType": "address",
          "name": "owner",
          "type": "address"
        },
        {
          "indexed": true,
          "internalType": "address",
          "name": "spender",
          "type": "address"
        },
        {
          "indexed": false,
          "internalType": "uint256",
          "name": "value",
          "type": "uint256"
        }
      ],
      "name": "Approval",
      "type": "event"
    },
    {
      "anonymous": false,
      "inputs": [
        {
          "indexed": true,
          "internalType": "address",
          "name": "account",
          "type": "address"
        },
        {
          "indexed": true,
          "internalType": "address",
          "name": "operator",
          "type": "address"
        },
        {
          "indexed": false,
          "internalType": "bool",
          "name": "approved",
          "type": "bool"
        }
      ],
      "name": "ApprovalForAll",
      "type": "event"
    },
    {
      "anonymous": false,
      "inputs": [
        {
          "indexed": false,
          "internalType": "address",
          "name": "_policyHolder",
          "type": "address"
        },
        {
          "indexed": false,
          "internalType": "uint256",
          "name": "_coverTokens",
          "type": "uint256"
        },
        {
          "indexed": false,
          "internalType": "uint256",
          "name": "_price",
          "type": "uint256"
        },
        {
          "indexed": false,
          "internalType": "uint256",
          "name": "_newTotalCoverTokens",
          "type": "uint256"
        }
      ],
      "name": "BuyPolicy",
      "type": "event"
    },
    {
      "anonymous": false,
      "inputs": [
        {
          "indexed": true,
          "internalType": "address",
          "name": "previousOwner",
          "type": "address"
        },
        {
          "indexed": true,
          "internalType": "address",
          "name": "newOwner",
          "type": "address"
        }
      ],
      "name": "OwnershipTransferred",
      "type": "event"
    },
    {
      "anonymous": false,
      "inputs": [
        {
          "indexed": true,
          "internalType": "address",
          "name": "from",
          "type": "address"
        },
        {
          "indexed": true,
          "internalType": "address",
          "name": "to",
          "type": "address"
        },
        {
          "indexed": false,
          "internalType": "uint256",
          "name": "value",
          "type": "uint256"
        }
      ],
      "name": "Transfer",
      "type": "event"
    },
    {
      "anonymous": false,
      "inputs": [
        {
          "indexed": true,
          "internalType": "address",
          "name": "operator",
          "type": "address"
        },
        {
          "indexed": true,
          "internalType": "address",
          "name": "from",
          "type": "address"
        },
        {
          "indexed": true,
          "internalType": "address",
          "name": "to",
          "type": "address"
        },
        {
          "indexed": false,
          "internalType": "uint256[]",
          "name": "ids",
          "type": "uint256[]"
        },
        {
          "indexed": false,
          "internalType": "uint256[]",
          "name": "values",
          "type": "uint256[]"
        }
      ],
      "name": "TransferBatch",
      "type": "event"
    },
    {
      "anonymous": false,
      "inputs": [
        {
          "indexed": true,
          "internalType": "address",
          "name": "operator",
          "type": "address"
        },
        {
          "indexed": true,
          "internalType": "address",
          "name": "from",
          "type": "address"
        },
        {
          "indexed": true,
          "internalType": "address",
          "name": "to",
          "type": "address"
        },
        {
          "indexed": false,
          "internalType": "uint256",
          "name": "id",
          "type": "uint256"
        },
        {
          "indexed": false,
          "internalType": "uint256",
          "name": "value",
          "type": "uint256"
        }
      ],
      "name": "TransferSingle",
      "type": "event"
    },
    {
      "anonymous": false,
      "inputs": [
        {
          "indexed": false,
          "internalType": "string",
          "name": "value",
          "type": "string"
        },
        {
          "indexed": true,
          "internalType": "uint256",
          "name": "id",
          "type": "uint256"
        }
      ],
      "name": "URI",
      "type": "event"
    },
    {
      "anonymous": false,
      "inputs": [
        {
          "indexed": false,
          "internalType": "address",
          "name": "_liquidityHolder",
          "type": "address"
        },
        {
          "indexed": false,
          "internalType": "uint256",
          "name": "_tokensToWithdraw",
          "type": "uint256"
        },
        {
          "indexed": false,
          "internalType": "uint256",
          "name": "_newTotalLiquidity",
          "type": "uint256"
        }
      ],
      "name": "WithdrawLiquidity",
      "type": "event"
    },
    {
      "inputs": [],
      "name": "MAXIMUM_COST_100_UTILIZATION_PERCENTAGE",
      "outputs": [
        {
          "internalType": "uint256",
          "name": "",
          "type": "uint256"
        }
      ],
      "stateMutability": "view",
      "type": "function",
      "constant": true
    },
    {
      "inputs": [],
      "name": "MAXIMUM_COST_NOT_RISKY_PERCENTAGE",
      "outputs": [
        {
          "internalType": "uint256",
          "name": "",
          "type": "uint256"
        }
      ],
      "stateMutability": "view",
      "type": "function",
      "constant": true
    },
    {
      "inputs": [],
      "name": "MINIMUM_COST_PERCENTAGE",
      "outputs": [
        {
          "internalType": "uint256",
          "name": "",
          "type": "uint256"
        }
      ],
      "stateMutability": "view",
      "type": "function",
      "constant": true
    },
    {
      "inputs": [],
      "name": "PERCENTAGE_100",
      "outputs": [
        {
          "internalType": "uint256",
          "name": "",
          "type": "uint256"
        }
      ],
      "stateMutability": "view",
      "type": "function",
      "constant": true
    },
    {
      "inputs": [],
      "name": "PRECISION",
      "outputs": [
        {
          "internalType": "uint256",
          "name": "",
          "type": "uint256"
        }
      ],
      "stateMutability": "view",
      "type": "function",
      "constant": true
    },
    {
      "inputs": [],
      "name": "RISKY_ASSET_THRESHOLD_PERCENTAGE",
      "outputs": [
        {
          "internalType": "uint256",
          "name": "",
          "type": "uint256"
        }
      ],
      "stateMutability": "view",
      "type": "function",
      "constant": true
    },
    {
      "inputs": [],
      "name": "SECONDS_IN_THE_YEAR",
      "outputs": [
        {
          "internalType": "uint256",
          "name": "",
          "type": "uint256"
        }
      ],
      "stateMutability": "view",
      "type": "function",
      "constant": true
    },
    {
      "inputs": [
        {
          "internalType": "address",
          "name": "owner",
          "type": "address"
        },
        {
          "internalType": "address",
          "name": "spender",
          "type": "address"
        }
      ],
      "name": "allowance",
      "outputs": [
        {
          "internalType": "uint256",
          "name": "",
          "type": "uint256"
        }
      ],
      "stateMutability": "view",
      "type": "function",
      "constant": true
    },
    {
      "inputs": [
        {
          "internalType": "address",
          "name": "spender",
          "type": "address"
        },
        {
          "internalType": "uint256",
          "name": "amount",
          "type": "uint256"
        }
      ],
      "name": "approve",
      "outputs": [
        {
          "internalType": "bool",
          "name": "",
          "type": "bool"
        }
      ],
      "stateMutability": "nonpayable",
      "type": "function"
    },
    {
      "inputs": [
        {
          "internalType": "address",
          "name": "account",
          "type": "address"
        },
        {
          "internalType": "uint256",
          "name": "id",
          "type": "uint256"
        }
      ],
      "name": "balanceOf",
      "outputs": [
        {
          "internalType": "uint256",
          "name": "",
          "type": "uint256"
        }
      ],
      "stateMutability": "view",
      "type": "function",
      "constant": true
    },
    {
      "inputs": [
        {
          "internalType": "address",
          "name": "account",
          "type": "address"
        }
      ],
      "name": "balanceOf",
      "outputs": [
        {
          "internalType": "uint256",
          "name": "",
          "type": "uint256"
        }
      ],
      "stateMutability": "view",
      "type": "function",
      "constant": true
    },
    {
      "inputs": [
        {
          "internalType": "address[]",
          "name": "accounts",
          "type": "address[]"
        },
        {
          "internalType": "uint256[]",
          "name": "ids",
          "type": "uint256[]"
        }
      ],
      "name": "balanceOfBatch",
      "outputs": [
        {
          "internalType": "uint256[]",
          "name": "",
          "type": "uint256[]"
        }
      ],
      "stateMutability": "view",
      "type": "function",
      "constant": true
    },
    {
      "inputs": [
        {
          "internalType": "address",
          "name": "owner",
          "type": "address"
        }
      ],
      "name": "balanceOfNFT",
      "outputs": [
        {
          "internalType": "uint256",
          "name": "",
          "type": "uint256"
        }
      ],
      "stateMutability": "view",
      "type": "function",
      "constant": true
    },
    {
      "inputs": [],
      "name": "bmiDaiStakingAddress",
      "outputs": [
        {
          "internalType": "address",
          "name": "",
          "type": "address"
        }
      ],
      "stateMutability": "view",
      "type": "function",
      "constant": true
    },
    {
      "inputs": [
        {
          "internalType": "address",
          "name": "account",
          "type": "address"
        },
        {
          "internalType": "uint256",
          "name": "id",
          "type": "uint256"
        },
        {
          "internalType": "uint256",
          "name": "amount",
          "type": "uint256"
        }
      ],
      "name": "burnNFT",
      "outputs": [],
      "stateMutability": "nonpayable",
      "type": "function"
    },
    {
      "inputs": [],
      "name": "contractType",
      "outputs": [
        {
          "internalType": "enum IPolicyBookFabric.ContractType",
          "name": "",
          "type": "uint8"
        }
      ],
      "stateMutability": "view",
      "type": "function",
      "constant": true
    },
    {
      "inputs": [],
      "name": "contractsRegistry",
      "outputs": [
        {
          "internalType": "contract ContractsRegistry",
          "name": "",
          "type": "address"
        }
      ],
      "stateMutability": "view",
      "type": "function",
      "constant": true
    },
    {
      "inputs": [],
      "name": "daiToken",
      "outputs": [
        {
          "internalType": "contract IERC20",
          "name": "",
          "type": "address"
        }
      ],
      "stateMutability": "view",
      "type": "function",
      "constant": true
    },
    {
      "inputs": [],
      "name": "decimals",
      "outputs": [
        {
          "internalType": "uint8",
          "name": "",
          "type": "uint8"
        }
      ],
      "stateMutability": "view",
      "type": "function",
      "constant": true
    },
    {
      "inputs": [
        {
          "internalType": "address",
          "name": "spender",
          "type": "address"
        },
        {
          "internalType": "uint256",
          "name": "subtractedValue",
          "type": "uint256"
        }
      ],
      "name": "decreaseAllowance",
      "outputs": [
        {
          "internalType": "bool",
          "name": "",
          "type": "bool"
        }
      ],
      "stateMutability": "nonpayable",
      "type": "function"
    },
    {
      "inputs": [
        {
          "internalType": "address",
          "name": "spender",
          "type": "address"
        },
        {
          "internalType": "uint256",
          "name": "addedValue",
          "type": "uint256"
        }
      ],
      "name": "increaseAllowance",
      "outputs": [
        {
          "internalType": "bool",
          "name": "",
          "type": "bool"
        }
      ],
      "stateMutability": "nonpayable",
      "type": "function"
    },
    {
      "inputs": [],
      "name": "insuranceContractAddress",
      "outputs": [
        {
          "internalType": "address",
          "name": "",
          "type": "address"
        }
      ],
      "stateMutability": "view",
      "type": "function",
      "constant": true
    },
    {
      "inputs": [
        {
          "internalType": "address",
          "name": "account",
          "type": "address"
        },
        {
          "internalType": "address",
          "name": "operator",
          "type": "address"
        }
      ],
      "name": "isApprovedForAll",
      "outputs": [
        {
          "internalType": "bool",
          "name": "",
          "type": "bool"
        }
      ],
      "stateMutability": "view",
      "type": "function",
      "constant": true
    },
    {
      "inputs": [
        {
          "internalType": "address",
          "name": "",
          "type": "address"
        }
      ],
      "name": "liquidityFromLM",
      "outputs": [
        {
          "internalType": "uint256",
          "name": "",
          "type": "uint256"
        }
      ],
      "stateMutability": "view",
      "type": "function",
      "constant": true
    },
    {
      "inputs": [],
      "name": "liquidityMining",
      "outputs": [
        {
          "internalType": "contract LiquidityMining",
          "name": "",
          "type": "address"
        }
      ],
      "stateMutability": "view",
      "type": "function",
      "constant": true
    },
    {
      "inputs": [
        {
          "internalType": "address",
          "name": "account",
          "type": "address"
        },
        {
          "internalType": "uint256",
          "name": "id",
          "type": "uint256"
        },
        {
          "internalType": "uint256",
          "name": "amount",
          "type": "uint256"
        },
        {
          "internalType": "bytes",
          "name": "data",
          "type": "bytes"
        }
      ],
      "name": "mintNFT",
      "outputs": [],
      "stateMutability": "nonpayable",
      "type": "function"
    },
    {
      "inputs": [],
      "name": "name",
      "outputs": [
        {
          "internalType": "string",
          "name": "",
          "type": "string"
        }
      ],
      "stateMutability": "view",
      "type": "function",
      "constant": true
    },
    {
      "inputs": [],
      "name": "owner",
      "outputs": [
        {
          "internalType": "address",
          "name": "",
          "type": "address"
        }
      ],
      "stateMutability": "view",
      "type": "function",
      "constant": true
    },
    {
      "inputs": [
        {
          "internalType": "uint256",
          "name": "tokenId",
          "type": "uint256"
        }
      ],
      "name": "ownerOfNFT",
      "outputs": [
        {
          "internalType": "address",
          "name": "",
          "type": "address"
        }
      ],
      "stateMutability": "view",
      "type": "function",
      "constant": true
    },
    {
      "inputs": [
        {
          "internalType": "address",
          "name": "",
          "type": "address"
        }
      ],
      "name": "policyHolders",
      "outputs": [
        {
          "internalType": "uint256",
          "name": "coverTokens",
          "type": "uint256"
        },
        {
          "internalType": "uint256",
          "name": "durationSeconds",
          "type": "uint256"
        }
      ],
      "stateMutability": "view",
      "type": "function",
      "constant": true
    },
    {
      "inputs": [],
      "name": "renounceOwnership",
      "outputs": [],
      "stateMutability": "nonpayable",
      "type": "function"
    },
    {
      "inputs": [
        {
          "internalType": "address",
          "name": "from",
          "type": "address"
        },
        {
          "internalType": "address",
          "name": "to",
          "type": "address"
        },
        {
          "internalType": "uint256[]",
          "name": "ids",
          "type": "uint256[]"
        },
        {
          "internalType": "uint256[]",
          "name": "amounts",
          "type": "uint256[]"
        },
        {
          "internalType": "bytes",
          "name": "data",
          "type": "bytes"
        }
      ],
      "name": "safeBatchTransferFrom",
      "outputs": [],
      "stateMutability": "nonpayable",
      "type": "function"
    },
    {
      "inputs": [
        {
          "internalType": "address",
          "name": "from",
          "type": "address"
        },
        {
          "internalType": "address",
          "name": "to",
          "type": "address"
        },
        {
          "internalType": "uint256",
          "name": "id",
          "type": "uint256"
        },
        {
          "internalType": "uint256",
          "name": "amount",
          "type": "uint256"
        },
        {
          "internalType": "bytes",
          "name": "data",
          "type": "bytes"
        }
      ],
      "name": "safeTransferFrom",
      "outputs": [],
      "stateMutability": "nonpayable",
      "type": "function"
    },
    {
      "inputs": [
        {
          "internalType": "address",
          "name": "operator",
          "type": "address"
        },
        {
          "internalType": "bool",
          "name": "approved",
          "type": "bool"
        }
      ],
      "name": "setApprovalForAll",
      "outputs": [],
      "stateMutability": "nonpayable",
      "type": "function"
    },
    {
      "inputs": [
        {
          "internalType": "bytes4",
          "name": "interfaceId",
          "type": "bytes4"
        }
      ],
      "name": "supportsInterface",
      "outputs": [
        {
          "internalType": "bool",
          "name": "",
          "type": "bool"
        }
      ],
      "stateMutability": "view",
      "type": "function",
      "constant": true
    },
    {
      "inputs": [],
      "name": "symbol",
      "outputs": [
        {
          "internalType": "string",
          "name": "",
          "type": "string"
        }
      ],
      "stateMutability": "view",
      "type": "function",
      "constant": true
    },
    {
      "inputs": [
        {
          "internalType": "address",
          "name": "owner",
          "type": "address"
        },
        {
          "internalType": "uint256",
          "name": "index",
          "type": "uint256"
        }
      ],
      "name": "tokenOfOwnerByIndexNFT",
      "outputs": [
        {
          "internalType": "uint256",
          "name": "",
          "type": "uint256"
        }
      ],
      "stateMutability": "view",
      "type": "function",
      "constant": true
    },
    {
      "inputs": [],
      "name": "totalCoverTokens",
      "outputs": [
        {
          "internalType": "uint256",
          "name": "",
          "type": "uint256"
        }
      ],
      "stateMutability": "view",
      "type": "function",
      "constant": true
    },
    {
      "inputs": [],
      "name": "totalLiquidity",
      "outputs": [
        {
          "internalType": "uint256",
          "name": "",
          "type": "uint256"
        }
      ],
      "stateMutability": "view",
      "type": "function",
      "constant": true
    },
    {
      "inputs": [],
      "name": "totalSupply",
      "outputs": [
        {
          "internalType": "uint256",
          "name": "",
          "type": "uint256"
        }
      ],
      "stateMutability": "view",
      "type": "function",
      "constant": true
    },
    {
      "inputs": [],
      "name": "totalSupplyNFT",
      "outputs": [
        {
          "internalType": "uint256",
          "name": "",
          "type": "uint256"
        }
      ],
      "stateMutability": "view",
      "type": "function",
      "constant": true
    },
    {
      "inputs": [
        {
          "internalType": "address",
          "name": "recipient",
          "type": "address"
        },
        {
          "internalType": "uint256",
          "name": "amount",
          "type": "uint256"
        }
      ],
      "name": "transfer",
      "outputs": [
        {
          "internalType": "bool",
          "name": "",
          "type": "bool"
        }
      ],
      "stateMutability": "nonpayable",
      "type": "function"
    },
    {
      "inputs": [
        {
          "internalType": "address",
          "name": "sender",
          "type": "address"
        },
        {
          "internalType": "address",
          "name": "recipient",
          "type": "address"
        },
        {
          "internalType": "uint256",
          "name": "amount",
          "type": "uint256"
        }
      ],
      "name": "transferFrom",
      "outputs": [
        {
          "internalType": "bool",
          "name": "",
          "type": "bool"
        }
      ],
      "stateMutability": "nonpayable",
      "type": "function"
    },
    {
      "inputs": [
        {
          "internalType": "address",
          "name": "newOwner",
          "type": "address"
        }
      ],
      "name": "transferOwnership",
      "outputs": [],
      "stateMutability": "nonpayable",
      "type": "function"
    },
    {
      "inputs": [
        {
          "internalType": "contract ContractsRegistry",
          "name": "_contractsRegistry",
          "type": "address"
        }
      ],
      "name": "initRegistry",
      "outputs": [],
      "stateMutability": "nonpayable",
      "type": "function"
    },
    {
      "inputs": [],
      "name": "approveAllDaiTokensForStakingAndTransferOwnership",
      "outputs": [],
      "stateMutability": "nonpayable",
      "type": "function"
    },
    {
      "inputs": [],
      "name": "quoteStrategy",
      "outputs": [
        {
          "internalType": "address",
          "name": "_quoteStrategy",
          "type": "address"
        }
      ],
      "stateMutability": "view",
      "type": "function",
      "constant": true
    },
    {
      "inputs": [
        {
          "internalType": "uint256",
          "name": "_offset",
          "type": "uint256"
        },
        {
          "internalType": "uint256",
          "name": "_limit",
          "type": "uint256"
        }
      ],
      "name": "shieldAssets",
      "outputs": [
        {
          "internalType": "uint256",
          "name": "_shieldAssetsCount",
          "type": "uint256"
        },
        {
          "internalType": "address[]",
          "name": "_shieldAssets",
          "type": "address[]"
        }
      ],
      "stateMutability": "view",
      "type": "function",
      "constant": true
    },
    {
      "inputs": [
        {
          "internalType": "uint256",
          "name": "_offset",
          "type": "uint256"
        },
        {
          "internalType": "uint256",
          "name": "_limit",
          "type": "uint256"
        }
      ],
      "name": "shieldAssetsWithBalance",
      "outputs": [
        {
          "internalType": "uint256",
          "name": "_shieldAssetsCount",
          "type": "uint256"
        },
        {
          "internalType": "address[]",
          "name": "_shieldAssets",
          "type": "address[]"
        },
        {
          "internalType": "uint256[]",
          "name": "_shieldAssetBalance",
          "type": "uint256[]"
        }
      ],
      "stateMutability": "view",
      "type": "function",
      "constant": true
    },
    {
      "inputs": [],
      "name": "shieldAssetsCount",
      "outputs": [
        {
          "internalType": "uint256",
          "name": "_shieldAssetsCount",
          "type": "uint256"
        }
      ],
      "stateMutability": "view",
      "type": "function",
      "constant": true
    },
    {
      "inputs": [
        {
          "internalType": "address",
          "name": "_tokenAddress",
          "type": "address"
        },
        {
          "internalType": "uint256",
          "name": "_tokensAmount",
          "type": "uint256"
        }
      ],
      "name": "addShieldTokens",
      "outputs": [
        {
          "internalType": "bool",
          "name": "_success",
          "type": "bool"
        }
      ],
      "stateMutability": "nonpayable",
      "type": "function"
    },
    {
      "inputs": [
        {
          "internalType": "uint256",
          "name": "_durationSeconds",
          "type": "uint256"
        },
        {
          "internalType": "uint256",
          "name": "_coverTokens",
          "type": "uint256"
        }
      ],
      "name": "buyPolicy",
      "outputs": [],
      "stateMutability": "nonpayable",
      "type": "function"
    },
    {
      "inputs": [
        {
          "internalType": "address",
          "name": "_policyHolderAddr",
          "type": "address"
        },
        {
          "internalType": "uint256",
          "name": "_durationSeconds",
          "type": "uint256"
        },
        {
          "internalType": "uint256",
          "name": "_coverTokens",
          "type": "uint256"
        }
      ],
      "name": "buyPolicyFor",
      "outputs": [],
      "stateMutability": "nonpayable",
      "type": "function"
    },
    {
      "inputs": [
        {
          "internalType": "uint256",
          "name": "_liqudityAmount",
          "type": "uint256"
        }
      ],
      "name": "addLiquidity",
      "outputs": [],
      "stateMutability": "nonpayable",
      "type": "function"
    },
    {
      "inputs": [
        {
          "internalType": "address",
          "name": "_liquidityHolderAddr",
          "type": "address"
        },
        {
          "internalType": "uint256",
          "name": "_liqudityAmount",
          "type": "uint256"
        }
      ],
      "name": "addLiquidityFromLM",
      "outputs": [],
      "stateMutability": "nonpayable",
      "type": "function"
    },
    {
      "inputs": [
        {
          "internalType": "address",
          "name": "_liquidityHolderAddr",
          "type": "address"
        },
        {
          "internalType": "uint256",
          "name": "_liqudityAmount",
          "type": "uint256"
        }
      ],
      "name": "addLiquidityFor",
      "outputs": [],
      "stateMutability": "nonpayable",
      "type": "function"
    },
    {
      "inputs": [
        {
          "internalType": "uint256",
          "name": "_tokensToWithdraw",
          "type": "uint256"
        }
      ],
      "name": "withdrawLiquidity",
      "outputs": [],
      "stateMutability": "nonpayable",
      "type": "function"
    },
    {
      "inputs": [
        {
          "internalType": "uint256",
          "name": "_policyId",
          "type": "uint256"
        }
      ],
      "name": "rewardForUnclaimedExpiredPolicy",
      "outputs": [],
      "stateMutability": "nonpayable",
      "type": "function"
    },
    {
      "inputs": [],
      "name": "stats",
      "outputs": [
        {
          "internalType": "string",
          "name": "_name",
          "type": "string"
        },
        {
          "internalType": "address",
          "name": "_insuredContract",
          "type": "address"
        },
        {
          "internalType": "enum IPolicyBookFabric.ContractType",
          "name": "_contractType",
          "type": "uint8"
        },
        {
          "internalType": "uint256",
          "name": "_maxCapacities",
          "type": "uint256"
        },
        {
          "internalType": "uint256",
          "name": "_totalDaiLiquidity",
          "type": "uint256"
        },
        {
          "internalType": "uint256",
          "name": "_annualProfitYields",
          "type": "uint256"
        }
      ],
      "stateMutability": "view",
      "type": "function",
      "constant": true
    },
    {
      "inputs": [
        {
          "internalType": "uint256",
          "name": "_durationSeconds",
          "type": "uint256"
        },
        {
          "internalType": "uint256",
          "name": "_tokens",
          "type": "uint256"
        }
      ],
      "name": "getQuote",
      "outputs": [
        {
          "internalType": "uint256",
          "name": "_daiTokens",
          "type": "uint256"
        }
      ],
      "stateMutability": "view",
      "type": "function",
      "constant": true
    }
  ],
  "bytecode": "0x60806040523480156200001157600080fd5b5060405162004f1f38038062004f1f83398101604081905262000034916200031e565b8181604051602001620000489190620003bc565b60408051601f1981840301815291905281816200006c6301ffc9a760e01b6200012f565b620000788282620001b4565b6200008a636cdb3d1360e11b6200012f565b506000905062000099620001f1565b600b80546001600160a01b0319166001600160a01b038316908117909155604051919250906000907f8be0079c531659141344cd1fd0a4f28419497f9722a3daafe3b4186f6b6457e0908290a35050600d80546001600160a01b0319166001600160a01b0387161780825585925060ff60a01b1916600160a01b8360038111156200012057fe5b0217905550505050506200041f565b6001600160e01b031980821614156200018f576040805162461bcd60e51b815260206004820152601c60248201527f4552433136353a20696e76616c696420696e7465726661636520696400000000604482015290519081900360640190fd5b6001600160e01b0319166000908152602081905260409020805460ff19166001179055565b8151620001c9906001906020850190620001f5565b508051620001df906002906020840190620001f5565b50506003805460ff1916601217905550565b3390565b828054600181600116156101000203166002900490600052602060002090601f0160209004810192826200022d576000855562000278565b82601f106200024857805160ff191683800117855562000278565b8280016001018555821562000278579182015b82811115620002785782518255916020019190600101906200025b565b50620002869291506200028a565b5090565b5b808211156200028657600081556001016200028b565b600082601f830112620002b2578081fd5b81516001600160401b0380821115620002c757fe5b604051601f8301601f191681016020018281118282101715620002e657fe5b6040528281529250828483016020018610156200030257600080fd5b62000315836020830160208801620003ec565b50505092915050565b6000806000806080858703121562000334578384fd5b84516001600160a01b03811681146200034b578485fd5b60208601519094506004811062000360578384fd5b60408601519093506001600160401b03808211156200037d578384fd5b6200038b88838901620002a1565b93506060870151915080821115620003a1578283fd5b50620003b087828801620002a1565b91505092959194509250565b600065626d6944414960d01b82528251620003df816006850160208701620003ec565b9190910160060192915050565b60005b8381101562000409578181015183820152602001620003ef565b8381111562000419576000848401525b50505050565b614af0806200042f6000396000f3fe608060405234801561001057600080fd5b50600436106103a25760003560e01c806379fac08c116101e9578063c91348c31161010f578063dd62ed3e116100ad578063f242432a1161007c578063f242432a1461075f578063f2fde38b14610772578063f5b100ea14610785578063f60ff93714610798576103a2565b8063dd62ed3e1461071e578063e985e9c514610731578063e98a04e114610744578063efa1f98a1461074c576103a2565b8063cfa8b3a8116100e9578063cfa8b3a8146106e1578063d0a43afd146106e9578063d80528ae146106fc578063d98d0c7e14610716576103a2565b8063c91348c3146106b1578063cb2ef6f7146106c4578063cbf5a55e146106d9576103a2565b8063a22cb46511610187578063b0ea6a8411610156578063b0ea6a8414610686578063bc5d198a1461068e578063be22f54614610696578063c18c60571461069e576103a2565b8063a22cb46514610645578063a457c2d714610658578063a9059cbb1461066b578063aaf5eb681461067e576103a2565b80638da5cb5b116101c35780638da5cb5b1461062557806395d89b411461062d5780639c590006146106355780639effd6871461063d576103a2565b806379fac08c146105f45780637cd0fc9b1461061557806385b2d5351461061d576103a2565b80632d8a746e116102ce57806351c6590a1161026c57806370b68a2a1161023b57806370b68a2a146105a5578063715018a6146105c65780637234751b146105ce578063758af3ab146105e1576103a2565b806351c6590a146105595780635da2460d1461056c57806366cec3051461057f57806370a0823114610592576103a2565b806339509351116102a8578063395093511461050b5780634b6411811461051e5780634e1273f414610531578063514ea9bd14610551576103a2565b80632d8a746e146104d05780632eb2c2d6146104e3578063313ce567146104f6576103a2565b806314c179c0116103465780631cc509fd116103155780631cc509fd1461048f5780631dcb46f6146104a257806323b872dd146104b55780632c865d6c146104c8576103a2565b806314c179c01461045757806315770f921461046c57806318160ddd14610474578063188ff8541461047c576103a2565b806306fdde031161038257806306fdde03146103fa578063095ea7b31461040f5780630a861f2a146104225780630e82da5314610435576103a2565b8062ded3b7146103a7578062fdd58e146103b157806301ffc9a7146103da575b600080fd5b6103af6107a0565b005b6103c46103bf366004613907565b6108f1565b6040516103d19190614731565b60405180910390f35b6103ed6103e8366004613aa6565b610944565b6040516103d19190613dbf565b61040261097b565b6040516103d19190613dd8565b6103ed61041d366004613907565b610a08565b6103af610430366004613b51565b610a25565b610448610443366004613b81565b610c44565b6040516103d193929190614753565b61045f610c50565b6040516103d19190613c4e565b6103c4610c5f565b6103c4610c65565b6103ed61048a366004613907565b610c95565b6103af61049d366004613932565b610c9d565b6103c46104b0366004613907565b610d17565b6103ed6104c3366004613833565b610d40565b6103c4610dc7565b61045f6104de366004613b51565b610dcc565b6103af6104f1366004613789565b610df4565b6104fe611089565b6040516103d1919061478c565b6103ed610519366004613907565b611092565b6103af61052c366004613966565b6110e0565b61054461053f3660046139c7565b61115c565b6040516103d19190613d87565b6103c461129c565b6103af610567366004613b51565b6112ab565b6103af61057a366004613b81565b6112b7565b6103c461058d366004613719565b6112c6565b6103c46105a0366004613719565b6112d8565b6105b86105b3366004613719565b611312565b6040516103d192919061477e565b6103af61132b565b6103af6105dc366004613932565b6113f7565b6103c46105ef366004613b81565b611402565b610607610602366004613b81565b61140e565b6040516103d192919061473a565b61045f610dc7565b61045f611418565b61045f611427565b610402611436565b6103c461148e565b61045f61149d565b6103af6106533660046138da565b6114ac565b6103ed610666366004613907565b611598565b6103ed610679366004613907565b611600565b6103c4611614565b6103c4611623565b6103c4611634565b61045f61163c565b6103af6106ac366004613b51565b6108ee565b6103af6106bf366004613907565b61164b565b6106cc611681565b6040516103d19190613dca565b6103c46116a2565b6103c46116b2565b6103af6106f7366004613719565b6116c2565b610704611b10565b6040516103d196959493929190613deb565b61045f611bf7565b6103c461072c366004613751565b611c06565b6103ed61073f366004613751565b611c31565b6103c4611c5f565b6103af61075a366004613907565b611c6f565b6103af61076d366004613873565b611c7b565b6103af610780366004613719565b611e85565b6103c4610793366004613719565b611fa8565b6103c4611ff1565b6107a8611ff7565b600b546001600160a01b0390811691161461080a576040805162461bcd60e51b815260206004820181905260248201527f4f776e61626c653a2063616c6c6572206973206e6f7420746865206f776e6572604482015290519081900360640190fd5b600e54600f546040517f095ea7b30000000000000000000000000000000000000000000000000000000081526000926001600160a01b039081169263095ea7b39261085f929091169060001990600401613c62565b602060405180830381600087803b15801561087957600080fd5b505af115801561088d573d6000803e3d6000fd5b505050506040513d601f19601f820116820180604052508101906108b19190613a8a565b9050806108d95760405162461bcd60e51b81526004016108d0906142c4565b60405180910390fd5b600f546108ee906001600160a01b0316611e85565b50565b60006001600160a01b0383166109195760405162461bcd60e51b81526004016108d090613fbc565b5060008181526005602090815260408083206001600160a01b03861684529091529020545b92915050565b7fffffffff000000000000000000000000000000000000000000000000000000001660009081526020819052604090205460ff1690565b60018054604080516020600284861615610100026000190190941693909304601f81018490048402820184019092528181529291830182828015610a005780601f106109d557610100808354040283529160200191610a00565b820191906000526020600020905b8154815290600101906020018083116109e357829003601f168201915b505050505081565b6000610a1c610a15611ff7565b8484611ffb565b50600192915050565b6000610a30336112d8565b9050601060009054906101000a90046001600160a01b03166001600160a01b0316630cbd7e846040518163ffffffff1660e01b815260040160206040518083038186803b158015610a8057600080fd5b505afa158015610a94573d6000803e3d6000fd5b505050506040513d601f19601f82011682018060405250810190610ab89190613b69565b421015610add5733600090815260146020526040902054610ada9082906120af565b90505b81811015610afd5760405162461bcd60e51b81526004016108d0906144cc565b601254601154610b0d90846120af565b1015610b2b5760405162461bcd60e51b81526004016108d090614167565b600e546040517fa9059cbb0000000000000000000000000000000000000000000000000000000081526000916001600160a01b03169063a9059cbb90610b779033908790600401613c62565b602060405180830381600087803b158015610b9157600080fd5b505af1158015610ba5573d6000803e3d6000fd5b505050506040513d601f19601f82011682018060405250810190610bc99190613a8a565b905080610be85760405162461bcd60e51b81526004016108d0906140d3565b601154610bf590846120af565b601155610c0233846120f1565b7fac927268ea9ae2e55027e6ab727fc2db8e3ea48c56c658223a1074567e4298c03384601154604051610c3793929190613c7b565b60405180910390a1505050565b60006060809250925092565b600d546001600160a01b031681565b60115481565b600160005260046020527fabd6e7cb50984ff9c2f3e18a2660c3353dadf4e3291deeb275dae2cd1e44fe05545b90565b600092915050565b610ca5611ff7565b600b546001600160a01b03908116911614610d07576040805162461bcd60e51b815260206004820181905260248201527f4f776e61626c653a2063616c6c6572206973206e6f7420746865206f776e6572604482015290519081900360640190fd5b610d1283838361225c565b505050565b6001600160a01b0382166000908152600860205260408120610d3990836123d4565b9392505050565b6000610d4d8484846123e0565b610dbd84610d59611ff7565b610db885604051806060016040528060288152602001614a6e602891396001600160a01b038a16600090815260076020526040812090610d97611ff7565b6001600160a01b031681526020810191909152604001600020549190612552565b611ffb565b5060019392505050565b600090565b600061093e826040518060600160405280602a81526020016149f9602a9139600991906125e9565b8151835114610e155760405162461bcd60e51b81526004016108d090614640565b6001600160a01b038416610e3b5760405162461bcd60e51b81526004016108d0906141d3565b610e43611ff7565b6001600160a01b0316856001600160a01b03161480610e695750610e698561073f611ff7565b610e855760405162461bcd60e51b81526004016108d090614230565b6000610e8f611ff7565b9050610e9f818787878787611081565b60005b845181101561101b576000858281518110610eb957fe5b602002602001015190506000858381518110610ed157fe5b602002602001015190506001821415610eef57610eef898983610d12565b610ef8826125fe565b15610f51576001600160a01b0389166000908152600860205260409020610f1f908361260b565b506001600160a01b0388166000908152600860205260409020610f429083612617565b50610f4f6009838a612623565b505b610fb4816040518060600160405280602a8152602001614a23602a91396005600086815260200190815260200160002060008d6001600160a01b03166001600160a01b03168152602001908152602001600020546125529092919063ffffffff16565b60008381526005602090815260408083206001600160a01b038e811685529252808320939093558a1681522054610feb9082612639565b60009283526005602090815260408085206001600160a01b038c1686529091529092209190915550600101610ea2565b50846001600160a01b0316866001600160a01b0316826001600160a01b03167f4a39dc06d4c0dbc64b70af90fd698a233a518aa5d07e595d983b8c0526c8f7fb878760405161106b929190613d9a565b60405180910390a4611081818787878787612693565b505050505050565b60035460ff1681565b6000610a1c61109f611ff7565b84610db885600760006110b0611ff7565b6001600160a01b03908116825260208083019390935260409182016000908120918c168152925290205490612639565b6110e8611ff7565b600b546001600160a01b0390811691161461114a576040805162461bcd60e51b815260206004820181905260248201527f4f776e61626c653a2063616c6c6572206973206e6f7420746865206f776e6572604482015290519081900360640190fd5b611156848484846127f4565b50505050565b6060815183511461117f5760405162461bcd60e51b81526004016108d0906145e3565b6060835167ffffffffffffffff8111801561119957600080fd5b506040519080825280602002602001820160405280156111c3578160200160208202803683370190505b50905060005b84518110156112945760006001600160a01b03168582815181106111e957fe5b60200260200101516001600160a01b031614156112185760405162461bcd60e51b81526004016108d090614019565b6005600085838151811061122857fe5b60200260200101518152602001908152602001600020600086838151811061124c57fe5b60200260200101516001600160a01b03166001600160a01b031681526020019081526020016000205482828151811061128157fe5b60209081029190910101526001016111c9565b509392505050565b6af8277896582678ac00000081565b6108ee33826000612997565b6112c2338383612af6565b5050565b60146020526000908152604090205481565b6001600160a01b031660009081527f1471eb6eb2c5e789fc3de43f8ce62938c7d1836ec861730447e2ada8fd81017b602052604090205490565b6013602052600090815260409020805460019091015482565b611333611ff7565b600b546001600160a01b03908116911614611395576040805162461bcd60e51b815260206004820181905260248201527f4f776e61626c653a2063616c6c6572206973206e6f7420746865206f776e6572604482015290519081900360640190fd5b600b546040516000916001600160a01b0316907f8be0079c531659141344cd1fd0a4f28419497f9722a3daafe3b4186f6b6457e0908390a3600b80547fffffffffffffffffffffffff0000000000000000000000000000000000000000169055565b610d12838383612af6565b6000610d398383612cd1565b5060009160609150565b6010546001600160a01b031681565b600b546001600160a01b031690565b6002805460408051602060018416156101000260001901909316849004601f81018490048402820184019092528181529291830182828015610a005780601f106109d557610100808354040283529160200191610a00565b6a295be96e6406697200000081565b600f546001600160a01b031681565b816001600160a01b03166114be611ff7565b6001600160a01b031614156114e55760405162461bcd60e51b81526004016108d090614586565b80600660006114f2611ff7565b6001600160a01b0390811682526020808301939093526040918201600090812091871680825291909352912080547fffffffffffffffffffffffffffffffffffffffffffffffffffffffffffffff001692151592909217909155611554611ff7565b6001600160a01b03167f17307eab39ab6107e8899845ad3d59bd9653f200f220920489ca2b5937696c318360405161158c9190613dbf565b60405180910390a35050565b6000610a1c6115a5611ff7565b84610db885604051806060016040528060258152602001614a9660259139600760006115cf611ff7565b6001600160a01b03908116825260208083019390935260409182016000908120918d16815292529020549190612552565b6000610a1c61160d611ff7565b84846123e0565b6a084595161401484a00000081565b600061162f6009612deb565b905090565b6301e1338081565b600e546001600160a01b031681565b6010546001600160a01b031633146116755760405162461bcd60e51b81526004016108d09061446f565b6112c282826001612997565b600d5474010000000000000000000000000000000000000000900460ff1681565b6b033b2e3c9fd0803ce800000081565b6b04d8c55aefb8c05b5c00000081565b6116ca611ff7565b600b546001600160a01b0390811691161461172c576040805162461bcd60e51b815260206004820181905260248201527f4f776e61626c653a2063616c6c6572206973206e6f7420746865206f776e6572604482015290519081900360640190fd5b600c80547fffffffffffffffffffffffff0000000000000000000000000000000000000000166001600160a01b038316908117909155604080517fa45611b60000000000000000000000000000000000000000000000000000000081529051633581777391839163a45611b691600480820192600092909190829003018186803b1580156117b957600080fd5b505afa1580156117cd573d6000803e3d6000fd5b505050506040513d6000823e601f3d908101601f191682016040526117f59190810190613ade565b6040518263ffffffff1660e01b81526004016118119190613dd8565b60206040518083038186803b15801561182957600080fd5b505afa15801561183d573d6000803e3d6000fd5b505050506040513d601f19601f820116820180604052508101906118619190613735565b600e80547fffffffffffffffffffffffff0000000000000000000000000000000000000000166001600160a01b03928316179055600c54604080517ff5852ca400000000000000000000000000000000000000000000000000000000815290519190921691633581777391839163f5852ca4916004808301926000929190829003018186803b1580156118f357600080fd5b505afa158015611907573d6000803e3d6000fd5b505050506040513d6000823e601f3d908101601f1916820160405261192f9190810190613ade565b6040518263ffffffff1660e01b815260040161194b9190613dd8565b60206040518083038186803b15801561196357600080fd5b505afa158015611977573d6000803e3d6000fd5b505050506040513d601f19601f8201168201806040525081019061199b9190613735565b600f80547fffffffffffffffffffffffff0000000000000000000000000000000000000000166001600160a01b03928316179055600c54604080517ff427c05e00000000000000000000000000000000000000000000000000000000815290519190921691633581777391839163f427c05e916004808301926000929190829003018186803b158015611a2d57600080fd5b505afa158015611a41573d6000803e3d6000fd5b505050506040513d6000823e601f3d908101601f19168201604052611a699190810190613ade565b6040518263ffffffff1660e01b8152600401611a859190613dd8565b60206040518083038186803b158015611a9d57600080fd5b505afa158015611ab1573d6000803e3d6000fd5b505050506040513d601f19601f82011682018060405250810190611ad59190613735565b601080547fffffffffffffffffffffffff0000000000000000000000000000000000000000166001600160a01b039290921691909117905550565b600d5460125460115460018054604080516020600261010085871615026000190190941693909304601f8101849004840282018401909252818152606096600096879687968796879691956001600160a01b0386169574010000000000000000000000000000000000000000900460ff1694840393928892889190830182828015611bdc5780601f10611bb157610100808354040283529160200191611bdc565b820191906000526020600020905b815481529060010190602001808311611bbf57829003601f168201915b50505050509550955095509550955095509550909192939495565b600c546001600160a01b031681565b6001600160a01b03918216600090815260076020908152604080832093909416825291909152205490565b6001600160a01b03918216600090815260066020908152604080832093909416825291909152205460ff1690565b6b024306c4097859c43c00000081565b6112c282826000612997565b6001600160a01b038416611ca15760405162461bcd60e51b81526004016108d0906141d3565b611ca9611ff7565b6001600160a01b0316856001600160a01b03161480611ccf5750611ccf8561073f611ff7565b611ceb5760405162461bcd60e51b81526004016108d09061410a565b6000611cf5611ff7565b9050611d15818787611d0688612df6565b611d0f88612df6565b87611081565b6001841415611d2957611d29868685610d12565b611d32846125fe565b15611d8b576001600160a01b0386166000908152600860205260409020611d59908561260b565b506001600160a01b0385166000908152600860205260409020611d7c9085612617565b50611d8960098587612623565b505b611dd2836040518060600160405280602a8152602001614a23602a913960008781526005602090815260408083206001600160a01b038d1684529091529020549190612552565b60008581526005602090815260408083206001600160a01b038b81168552925280832093909355871681522054611e099084612639565b60008581526005602090815260408083206001600160a01b03808b168086529190935292819020939093559151909188811691908416907fc3d58168c5ae7397731d063d5bbf3d657854427343f4c083240f7aacaa2d0f6290611e6f908990899061477e565b60405180910390a4611081818787878787612e3a565b611e8d611ff7565b600b546001600160a01b03908116911614611eef576040805162461bcd60e51b815260206004820181905260248201527f4f776e61626c653a2063616c6c6572206973206e6f7420746865206f776e6572604482015290519081900360640190fd5b6001600160a01b038116611f345760405162461bcd60e51b81526004018080602001828103825260268152602001806149896026913960400191505060405180910390fd5b600b546040516001600160a01b038084169216907f8be0079c531659141344cd1fd0a4f28419497f9722a3daafe3b4186f6b6457e090600090a3600b80547fffffffffffffffffffffffff0000000000000000000000000000000000000000166001600160a01b0392909216919091179055565b60006001600160a01b038216611fd05760405162461bcd60e51b81526004016108d090613fbc565b6001600160a01b038216600090815260086020526040902061093e90612deb565b60125481565b3390565b6001600160a01b0383166120215760405162461bcd60e51b81526004016108d090614529565b6001600160a01b0382166120475760405162461bcd60e51b81526004016108d090614076565b6001600160a01b0380841660008181526007602090815260408083209487168084529490915290819020849055517f8c5be1e5ebec7d5bd14f71427d1e84f3dd0314c0f7b2291e5b200ac8c7c3b925906120a2908590614731565b60405180910390a3505050565b6000610d3983836040518060400160405280601e81526020017f536166654d6174683a207375627472616374696f6e206f766572666c6f770000815250612552565b6001600160a01b0382166121175760405162461bcd60e51b81526004016108d0906143b5565b61212382600083610d12565b61217f81604051806060016040528060228152602001614967602291396001600160a01b03851660009081527f1471eb6eb2c5e789fc3de43f8ce62938c7d1836ec861730447e2ada8fd81017b60205260409020549190612552565b6001600160a01b03831660009081527f1471eb6eb2c5e789fc3de43f8ce62938c7d1836ec861730447e2ada8fd81017b6020908152604082209290925560019052600490527fabd6e7cb50984ff9c2f3e18a2660c3353dadf4e3291deeb275dae2cd1e44fe05546121f090826120af565b6001600090815260046020527fabd6e7cb50984ff9c2f3e18a2660c3353dadf4e3291deeb275dae2cd1e44fe05919091556040516001600160a01b038416907fddf252ad1be2c89b69c2b068fc378daa952ba7f163c4a11628f55a4df523b3ef9061158c908590614731565b6001600160a01b0383166122825760405162461bcd60e51b81526004016108d0906142fb565b600061228c611ff7565b90506122bc8185600061229e87612df6565b6122a787612df6565b60405180602001604052806000815250611081565b81156122f2576001600160a01b03841660009081526008602052604090206122e4908461260b565b506122f0600984612f55565b505b612339826040518060600160405280602481526020016149af6024913960008681526005602090815260408083206001600160a01b038b1684529091529020549190612552565b60008481526005602090815260408083206001600160a01b038916845282528083209390935585825260049052205461237290836120af565b6000848152600460205260408082209290925590516001600160a01b0386811691908416907fc3d58168c5ae7397731d063d5bbf3d657854427343f4c083240f7aacaa2d0f62906123c6908890889061477e565b60405180910390a450505050565b6000610d398383612f61565b6001600160a01b0383166124065760405162461bcd60e51b81526004016108d090614412565b6001600160a01b03821661242c5760405162461bcd60e51b81526004016108d090613ecd565b612437838383610d12565b612493816040518060600160405280602681526020016149d3602691396001600160a01b03861660009081527f1471eb6eb2c5e789fc3de43f8ce62938c7d1836ec861730447e2ada8fd81017b60205260409020549190612552565b6001600160a01b0384811660009081527f1471eb6eb2c5e789fc3de43f8ce62938c7d1836ec861730447e2ada8fd81017b602052604080822093909355908416815220546124e19082612639565b6001600160a01b0380841660008181527f1471eb6eb2c5e789fc3de43f8ce62938c7d1836ec861730447e2ada8fd81017b602052604090819020939093559151908516907fddf252ad1be2c89b69c2b068fc378daa952ba7f163c4a11628f55a4df523b3ef906120a2908590614731565b600081848411156125e15760405162461bcd60e51b81526004018080602001828103825283818151815260200191508051906020019080838360005b838110156125a657818101518382015260200161258e565b50505050905090810190601f1680156125d35780820380516001836020036101000a031916815260200191505b509250505060405180910390fd5b505050900390565b60006125f6848484612fc5565b949350505050565b600061093e600983613052565b6000610d39838361305e565b6000610d398383613124565b60006125f684846001600160a01b03851661316e565b600082820183811015610d39576040805162461bcd60e51b815260206004820152601b60248201527f536166654d6174683a206164646974696f6e206f766572666c6f770000000000604482015290519081900360640190fd5b6126a5846001600160a01b0316613205565b15611081576040517fbc197c810000000000000000000000000000000000000000000000000000000081526001600160a01b0385169063bc197c81906126f79089908990889088908890600401613c9c565b602060405180830381600087803b15801561271157600080fd5b505af1925050508015612741575060408051601f3d908101601f1916820190925261273e91810190613ac2565b60015b61278a5761274d614830565b806127585750612772565b8060405162461bcd60e51b81526004016108d09190613dd8565b60405162461bcd60e51b81526004016108d090613e39565b7fffffffff0000000000000000000000000000000000000000000000000000000081167fbc197c8100000000000000000000000000000000000000000000000000000000146127eb5760405162461bcd60e51b81526004016108d090613f2a565b50505050505050565b6001600160a01b03841661281a5760405162461bcd60e51b81526004016108d09061469d565b81158061282d575061282b836125fe565b155b6128495760405162461bcd60e51b81526004016108d090614358565b6000612853611ff7565b905061286581600087611d0688612df6565b82600114801561287b57506128798461320b565b155b8015612888575060018414155b156128be576001600160a01b03851660009081526008602052604090206128af9085612617565b506128bc60098587612623565b505b60008481526005602090815260408083206001600160a01b03891684529091529020546128eb9084612639565b60008581526005602090815260408083206001600160a01b038a1684528252808320939093558682526004905220546129249084612639565b6000858152600460205260408082209290925590516001600160a01b038088169291908416907fc3d58168c5ae7397731d063d5bbf3d657854427343f4c083240f7aacaa2d0f6290612979908990899061477e565b60405180910390a461299081600087878787612e3a565b5050505050565b600e546040517f23b872dd0000000000000000000000000000000000000000000000000000000081526000916001600160a01b0316906323b872dd906129e590879030908890600401613cfa565b602060405180830381600087803b1580156129ff57600080fd5b505af1158015612a13573d6000803e3d6000fd5b505050506040513d601f19601f82011682018060405250810190612a379190613a8a565b905080612a565760405162461bcd60e51b81526004016108d0906140d3565b601154612a639084612639565b601155612a70848461321f565b8115612ab3576001600160a01b038416600090815260146020526040902054612a999084612639565b6001600160a01b0385166000908152601460205260409020555b7f06239653922ac7bea6aa2b19dc486b9361821d37712eb796adfd38d81de278ca8484601154604051612ae893929190613c7b565b60405180910390a150505050565b612afe613643565b506001600160a01b0383166000908152601360209081526040918290208251808401909352805483526001015490820181905215612b4e5760405162461bcd60e51b81526004016108d09061419e565b601254612b5b9083612639565b6011541015612b7c5760405162461bcd60e51b81526004016108d09061428d565b6000612b888484612cd1565b83835260208084018681526001600160a01b038816600090815260139092526040909120845181559051600190910155601254909150612bc89084612639565b601255600e546040517f23b872dd0000000000000000000000000000000000000000000000000000000081526000916001600160a01b0316906323b872dd90612c1990899030908790600401613cfa565b602060405180830381600087803b158015612c3357600080fd5b505af1158015612c47573d6000803e3d6000fd5b505050506040513d601f19601f82011682018060405250810190612c6b9190613a8a565b905080612c8a5760405162461bcd60e51b81526004016108d0906140d3565b7f1cd728a6e764ed0dcddb6e5b88d736a4a8d2a0d420ca373588f7a1109e18663f868584601254604051612cc19493929190613d61565b60405180910390a1505050505050565b6000601154612ceb8360125461263990919063ffffffff16565b1115612d095760405162461bcd60e51b81526004016108d090613f87565b600060115411612d2b5760405162461bcd60e51b81526004016108d090613e96565b6000612d66601154612d606a084595161401484a000000606402612d5a8760125461263990919063ffffffff16565b90613371565b906133ca565b905060006b024306c4097859c43c000000821015612d8e57612d878261340c565b9050612d9a565b612d9782613433565b90505b612daf816a295be96e640669720000006134d7565b90506000612dc56301e13380612d608885613371565b9050612de16b033b2e3c9fd0803ce8000000612d608784613371565b9695505050505050565b600061093e826134ee565b604080516001808252818301909252606091829190602080830190803683370190505090508281600081518110612e2957fe5b602090810291909101015292915050565b612e4c846001600160a01b0316613205565b15611081576040517ff23a6e610000000000000000000000000000000000000000000000000000000081526001600160a01b0385169063f23a6e6190612e9e9089908990889088908890600401613d1e565b602060405180830381600087803b158015612eb857600080fd5b505af1925050508015612ee8575060408051601f3d908101601f19168201909252612ee591810190613ac2565b60015b612ef45761274d614830565b7fffffffff0000000000000000000000000000000000000000000000000000000081167ff23a6e6100000000000000000000000000000000000000000000000000000000146127eb5760405162461bcd60e51b81526004016108d090613f2a565b6000610d3983836134f2565b81546000908210612fa35760405162461bcd60e51b81526004018080602001828103825260228152602001806149456022913960400191505060405180910390fd5b826000018281548110612fb257fe5b9060005260206000200154905092915050565b600082815260018401602052604081205482816130235760405162461bcd60e51b81526020600482018181528351602484015283519092839260449091019190850190808383600083156125a657818101518382015260200161258e565b5084600001600182038154811061303657fe5b9060005260206000209060020201600101549150509392505050565b6000610d3983836135c6565b6000818152600183016020526040812054801561311a578354600019808301919081019060009087908390811061309157fe5b90600052602060002001549050808760000184815481106130ae57fe5b6000918252602080832090910192909255828152600189810190925260409020908401905586548790806130de57fe5b6001900381819060005260206000200160009055905586600101600087815260200190815260200160002060009055600194505050505061093e565b600091505061093e565b600061313083836135c6565b6131665750815460018181018455600084815260208082209093018490558454848252828601909352604090209190915561093e565b50600061093e565b6000828152600184016020526040812054806131d3575050604080518082018252838152602080820184815286546001818101895560008981528481209551600290930290950191825591519082015586548684528188019092529290912055610d39565b828560000160018303815481106131e657fe5b9060005260206000209060020201600101819055506000915050610d39565b3b151590565b600090815260046020526040902054151590565b6001600160a01b0382166132455760405162461bcd60e51b81526004016108d0906146fa565b61325160008383610d12565b6001600160a01b03821660009081527f1471eb6eb2c5e789fc3de43f8ce62938c7d1836ec861730447e2ada8fd81017b60205260409020546132939082612639565b6001600160a01b03831660009081527f1471eb6eb2c5e789fc3de43f8ce62938c7d1836ec861730447e2ada8fd81017b6020908152604082209290925560019052600490527fabd6e7cb50984ff9c2f3e18a2660c3353dadf4e3291deeb275dae2cd1e44fe05546133049082612639565b6001600090815260046020527fabd6e7cb50984ff9c2f3e18a2660c3353dadf4e3291deeb275dae2cd1e44fe05919091556040516001600160a01b03841691907fddf252ad1be2c89b69c2b068fc378daa952ba7f163c4a11628f55a4df523b3ef9061158c908590614731565b6000826133805750600061093e565b8282028284828161338d57fe5b0414610d395760405162461bcd60e51b8152600401808060200182810382526021815260200180614a4d6021913960400191505060405180910390fd5b6000610d3983836040518060400160405280601a81526020017f536166654d6174683a206469766973696f6e206279207a65726f0000000000008152506135de565b600061093e6b024306c4097859c43c000000612d60846af8277896582678ac000000613371565b60008061348661345b6b033b2e3c9fd0803ce80000006b024306c4097859c43c0000006120af565b612d60613474866b024306c4097859c43c0000006120af565b6a084595161401484a00000090613371565b9050610d396134c56a084595161401484a000000612d606134be6b04d8c55aefb8c05b5c0000006af8277896582678ac0000006120af565b8590613371565b6af8277896582678ac00000090612639565b6000818310156134e75781610d39565b5090919050565b5490565b6000818152600183016020526040812054801561311a578354600019808301919081019060009087908390811061352557fe5b906000526020600020906002020190508087600001848154811061354557fe5b60009182526020808320845460029093020191825560019384015491840191909155835482528983019052604090209084019055865487908061358457fe5b600082815260208082206002600019909401938402018281556001908101839055929093558881528982019092526040822091909155945061093e9350505050565b60009081526001919091016020526040902054151590565b6000818361362d5760405162461bcd60e51b81526020600482018181528351602484015283519092839260449091019190850190808383600083156125a657818101518382015260200161258e565b50600083858161363957fe5b0495945050505050565b604051806040016040528060008152602001600081525090565b600082601f83011261366d578081fd5b813561368061367b826147be565b61479a565b8181529150602080830190848101818402860182018710156136a157600080fd5b60005b848110156136c0578135845292820192908201906001016136a4565b505050505092915050565b600082601f8301126136db578081fd5b81356136e961367b826147dc565b915080825283602082850101111561370057600080fd5b8060208401602084013760009082016020015292915050565b60006020828403121561372a578081fd5b8135610d39816148f3565b600060208284031215613746578081fd5b8151610d39816148f3565b60008060408385031215613763578081fd5b823561376e816148f3565b9150602083013561377e816148f3565b809150509250929050565b600080600080600060a086880312156137a0578081fd5b85356137ab816148f3565b945060208601356137bb816148f3565b9350604086013567ffffffffffffffff808211156137d7578283fd5b6137e389838a0161365d565b945060608801359150808211156137f8578283fd5b61380489838a0161365d565b93506080880135915080821115613819578283fd5b50613826888289016136cb565b9150509295509295909350565b600080600060608486031215613847578283fd5b8335613852816148f3565b92506020840135613862816148f3565b929592945050506040919091013590565b600080600080600060a0868803121561388a578081fd5b8535613895816148f3565b945060208601356138a5816148f3565b93506040860135925060608601359150608086013567ffffffffffffffff8111156138ce578182fd5b613826888289016136cb565b600080604083850312156138ec578182fd5b82356138f7816148f3565b9150602083013561377e81614908565b60008060408385031215613919578182fd5b8235613924816148f3565b946020939093013593505050565b600080600060608486031215613946578081fd5b8335613951816148f3565b95602085013595506040909401359392505050565b6000806000806080858703121561397b578182fd5b8435613986816148f3565b93506020850135925060408501359150606085013567ffffffffffffffff8111156139af578182fd5b6139bb878288016136cb565b91505092959194509250565b600080604083850312156139d9578182fd5b823567ffffffffffffffff808211156139f0578384fd5b818501915085601f830112613a03578384fd5b8135613a1161367b826147be565b80828252602080830192508086018a828387028901011115613a31578889fd5b8896505b84871015613a5c578035613a48816148f3565b845260019690960195928101928101613a35565b509096508701359350505080821115613a73578283fd5b50613a808582860161365d565b9150509250929050565b600060208284031215613a9b578081fd5b8151610d3981614908565b600060208284031215613ab7578081fd5b8135610d3981614916565b600060208284031215613ad3578081fd5b8151610d3981614916565b600060208284031215613aef578081fd5b815167ffffffffffffffff811115613b05578182fd5b8201601f81018413613b15578182fd5b8051613b2361367b826147dc565b818152856020838501011115613b37578384fd5b613b488260208301602086016147fe565b95945050505050565b600060208284031215613b62578081fd5b5035919050565b600060208284031215613b7a578081fd5b5051919050565b60008060408385031215613b93578182fd5b50508035926020909101359150565b6000815180845260208085019450808401835b83811015613bda5781516001600160a01b031687529582019590820190600101613bb5565b509495945050505050565b6000815180845260208085019450808401835b83811015613bda57815187529582019590820190600101613bf8565b60008151808452613c2c8160208601602086016147fe565b601f01601f19169290920160200192915050565b60048110613c4a57fe5b9052565b6001600160a01b0391909116815260200190565b6001600160a01b03929092168252602082015260400190565b6001600160a01b039390931683526020830191909152604082015260600190565b60006001600160a01b03808816835280871660208401525060a06040830152613cc860a0830186613be5565b8281036060840152613cda8186613be5565b90508281036080840152613cee8185613c14565b98975050505050505050565b6001600160a01b039384168152919092166020820152604081019190915260600190565b60006001600160a01b03808816835280871660208401525084604083015283606083015260a06080830152613d5660a0830184613c14565b979650505050505050565b6001600160a01b0394909416845260208401929092526040830152606082015260800190565b600060208252610d396020830184613be5565b600060408252613dad6040830185613be5565b8281036020840152613b488185613be5565b901515815260200190565b6020810161093e8284613c40565b600060208252610d396020830184613c14565b600060c08252613dfe60c0830189613c14565b90506001600160a01b0387166020830152613e1c6040830187613c40565b8460608301528360808301528260a0830152979650505050505050565b60208082526034908201527f455243313135353a207472616e7366657220746f206e6f6e204552433131353560408201527f526563656976657220696d706c656d656e746572000000000000000000000000606082015260800190565b60208082526011908201527f54686520706f6f6c20697320656d707479000000000000000000000000000000604082015260600190565b60208082526023908201527f45524332303a207472616e7366657220746f20746865207a65726f206164647260408201527f6573730000000000000000000000000000000000000000000000000000000000606082015260800190565b60208082526028908201527f455243313135353a204552433131353552656365697665722072656a6563746560408201527f6420746f6b656e73000000000000000000000000000000000000000000000000606082015260800190565b6020808252818101527f526571756972696e67206d6f7265207468616e20746865726520657869737473604082015260600190565b6020808252602b908201527f455243313135353a2062616c616e636520717565727920666f7220746865207a60408201527f65726f2061646472657373000000000000000000000000000000000000000000606082015260800190565b60208082526031908201527f455243313135353a2062617463682062616c616e636520717565727920666f7260408201527f20746865207a65726f2061646472657373000000000000000000000000000000606082015260800190565b60208082526022908201527f45524332303a20617070726f766520746f20746865207a65726f20616464726560408201527f7373000000000000000000000000000000000000000000000000000000000000606082015260800190565b6020808252601d908201527f4661696c656420746f207472616e736665722044414920746f6b656e73000000604082015260600190565b60208082526029908201527f455243313135353a2063616c6c6572206973206e6f74206f776e6572206e6f7260408201527f20617070726f7665640000000000000000000000000000000000000000000000606082015260800190565b6020808252601e908201527f4e6f7420656e6f756768206c697175696469747920617661696c61626c650000604082015260600190565b6020808252818101527f54686520706f6c69637920686f6c64657220616c726561647920657869737473604082015260600190565b60208082526025908201527f455243313135353a207472616e7366657220746f20746865207a65726f20616460408201527f6472657373000000000000000000000000000000000000000000000000000000606082015260800190565b60208082526032908201527f455243313135353a207472616e736665722063616c6c6572206973206e6f742060408201527f6f776e6572206e6f7220617070726f7665640000000000000000000000000000606082015260800190565b6020808252601e908201527f4e6f7420656e6f75676820617661696c61626c65206c69717569646974790000604082015260600190565b6020808252601c908201527f4661696c656420746f20617070726f76652044414920746f6b656e7300000000604082015260600190565b60208082526023908201527f455243313135353a206275726e2066726f6d20746865207a65726f206164647260408201527f6573730000000000000000000000000000000000000000000000000000000000606082015260800190565b60208082526021908201527f455243313135353a204e465420746f6b656e20616c7265616479206d696e746560408201527f6400000000000000000000000000000000000000000000000000000000000000606082015260800190565b60208082526021908201527f45524332303a206275726e2066726f6d20746865207a65726f2061646472657360408201527f7300000000000000000000000000000000000000000000000000000000000000606082015260800190565b60208082526025908201527f45524332303a207472616e736665722066726f6d20746865207a65726f20616460408201527f6472657373000000000000000000000000000000000000000000000000000000606082015260800190565b6020808252603a908201527f5468652063616c6c657220646f6573206e6f742068617665206163636573732c60408201527f206f6e6c79206c6971756964697479206d696e696e6720686173000000000000606082015260800190565b6020808252603f908201527f54686520616d6f756e7420746f2062652077697468647261776e20697320677260408201527f6561746572207468616e2074686520617661696c61626c6520616d6f756e7400606082015260800190565b60208082526024908201527f45524332303a20617070726f76652066726f6d20746865207a65726f2061646460408201527f7265737300000000000000000000000000000000000000000000000000000000606082015260800190565b60208082526029908201527f455243313135353a2073657474696e6720617070726f76616c2073746174757360408201527f20666f722073656c660000000000000000000000000000000000000000000000606082015260800190565b60208082526029908201527f455243313135353a206163636f756e747320616e6420696473206c656e67746860408201527f206d69736d617463680000000000000000000000000000000000000000000000606082015260800190565b60208082526028908201527f455243313135353a2069647320616e6420616d6f756e7473206c656e6774682060408201527f6d69736d61746368000000000000000000000000000000000000000000000000606082015260800190565b60208082526021908201527f455243313135353a206d696e7420746f20746865207a65726f2061646472657360408201527f7300000000000000000000000000000000000000000000000000000000000000606082015260800190565b6020808252601f908201527f45524332303a206d696e7420746f20746865207a65726f206164647265737300604082015260600190565b90815260200190565b6000838252604060208301526125f66040830184613ba2565b60008482526060602083015261476c6060830185613ba2565b8281036040840152612de18185613be5565b918252602082015260400190565b60ff91909116815260200190565b60405181810167ffffffffffffffff811182821017156147b657fe5b604052919050565b600067ffffffffffffffff8211156147d257fe5b5060209081020190565b600067ffffffffffffffff8211156147f057fe5b50601f01601f191660200190565b60005b83811015614819578181015183820152602001614801565b838111156111565750506000910152565b60e01c90565b600060443d101561484057610c92565b600481823e6308c379a0614854825161482a565b1461485e57610c92565b6040517ffffffffffffffffffffffffffffffffffffffffffffffffffffffffffffffffc3d016004823e80513d67ffffffffffffffff81602484011181841117156148ac5750505050610c92565b828401925082519150808211156148c65750505050610c92565b503d830160208284010111156148de57505050610c92565b601f01601f1916810160200160405291505090565b6001600160a01b03811681146108ee57600080fd5b80151581146108ee57600080fd5b7fffffffff00000000000000000000000000000000000000000000000000000000811681146108ee57600080fdfe456e756d657261626c655365743a20696e646578206f7574206f6620626f756e647345524332303a206275726e20616d6f756e7420657863656564732062616c616e63654f776e61626c653a206e6577206f776e657220697320746865207a65726f2061646472657373455243313135353a206275726e20616d6f756e7420657863656564732062616c616e636545524332303a207472616e7366657220616d6f756e7420657863656564732062616c616e6365455243313135353a206f776e657220717565727920666f72206e6f6e6578697374656e7420746f6b656e455243313135353a20696e73756666696369656e742062616c616e636520666f72207472616e73666572536166654d6174683a206d756c7469706c69636174696f6e206f766572666c6f7745524332303a207472616e7366657220616d6f756e74206578636565647320616c6c6f77616e636545524332303a2064656372656173656420616c6c6f77616e63652062656c6f77207a65726fa2646970667358221220b25759eff573a1aabfb99a179db8e004c732f60b486fc40e3152abc3b61eb4d564736f6c63430007040033",
  "immutableReferences": {},
  "source": "// SPDX-License-Identifier: MIT\npragma solidity ^0.7.4;\npragma experimental ABIEncoderV2;\n\nimport \"@openzeppelin/contracts/access/Ownable.sol\";\nimport \"@openzeppelin/contracts/math/SafeMath.sol\";\nimport \"@openzeppelin/contracts/math/Math.sol\";\n\nimport \"./interfaces/IPolicyBook.sol\";\nimport \"./interfaces/IPolicyBookFabric.sol\";\n\nimport \"./LiquidityMining.sol\";\nimport \"./ContractsRegistry.sol\";\nimport \"./tokens/ERC1155UltraNFTMintableBurnable.sol\";\n\ncontract PolicyBook is IPolicyBook, ERC1155UltraNFTMintableBurnable {\n  using SafeMath for uint256;\n  using Math for uint256;\n\n  uint256 constant private MAX_INT = 2**256 - 1;\n\n  ContractsRegistry public contractsRegistry;\n\n  address public override insuranceContractAddress;\n\n  IPolicyBookFabric.ContractType public override contractType;\n  \n  IERC20 public daiToken;\n  address public bmiDaiStakingAddress;\n  LiquidityMining public liquidityMining;\n\n  uint256 public totalLiquidity;\n  uint256 public totalCoverTokens;  \n\n  struct PolicyHolder {\n    uint256 coverTokens;\n    uint256 durationSeconds;    \n  }\n\n  mapping(address => PolicyHolder) public policyHolders;\n  mapping(address => uint256) public liquidityFromLM;\n\n  event AddLiquidity(address _liquidityHolder, uint256 _liqudityAmount, uint256 _newTotalLiquidity);\n  event WithdrawLiquidity(address _liquidityHolder, uint256 _tokensToWithdraw, uint256 _newTotalLiquidity);\n  event BuyPolicy(address _policyHolder, uint256 _coverTokens, uint256 _price, uint256 _newTotalCoverTokens);\n\n  modifier onlyLiquidityMining() {\n    require(msg.sender == address(liquidityMining),\n      \"The caller does not have access, only liquidity mining has\");\n    _;\n  }\n\n  constructor(    \n    address _insuranceContract,\n    IPolicyBookFabric.ContractType _contractType,    \n    string memory _description,\n    string memory _projectSymbol\n  ) ERC1155UltraNFTMintableBurnable(_description, string(abi.encodePacked(\"bmiDAI\", _projectSymbol))) {    \n    insuranceContractAddress = _insuranceContract;\n    contractType = _contractType;       \n  }\n\n  function initRegistry(ContractsRegistry _contractsRegistry) external onlyOwner {\n    contractsRegistry = _contractsRegistry;\n    \n    daiToken = IERC20(_contractsRegistry.getContract(_contractsRegistry.getDAIName()));\n    bmiDaiStakingAddress = contractsRegistry.getContract(contractsRegistry.getBMIDAIStakingName()); \n    liquidityMining = LiquidityMining(contractsRegistry.getContract(contractsRegistry.getLiquidityMiningName()));\n  }  \n\n  function approveAllDaiTokensForStakingAndTransferOwnership() external onlyOwner {\n    bool _success = daiToken.approve(bmiDaiStakingAddress, MAX_INT);\n    require(_success, \"Failed to approve DAI tokens\");\n\n    transferOwnership(bmiDaiStakingAddress);\n  }\n\n  function quoteStrategy() external view override returns (address _quoteStrategy) {\n    return address(0);\n  }\n\n  function shieldAssets(uint256 _offset, uint256 _limit)\n    external\n    view\n    override\n    returns (uint256 _shieldAssetsCount, address[] memory _shieldAssets)\n  {\n    address[] memory temp;\n    return (0, temp);\n  }\n\n  function shieldAssetsWithBalance(uint256 _offset, uint256 _limit)\n    external\n    view\n    override\n    returns (\n      uint256 _shieldAssetsCount,\n      address[] memory _shieldAssets,\n      uint256[] memory _shieldAssetBalance\n    )\n  {\n    address[] memory temp1;\n    uint256[] memory temp2;\n    return (0, temp1, temp2);\n  }\n\n  function shieldAssetsCount() external view override returns (uint256 _shieldAssetsCount) {\n    return 0;\n  }\n\n  function addShieldTokens(address _tokenAddress, uint256 _tokensAmount) external override returns (bool _success) {\n    return false;\n  }\n\n  function buyPolicy(\n    uint256 _durationSeconds,\n    uint256 _coverTokens   \n  ) external override {\n    _buyPolicyFor(msg.sender, _durationSeconds, _coverTokens);\n  }\n\n  function buyPolicyFor(\n    address _policyHolderAddr,\n    uint256 _durationSeconds,\n    uint256 _coverTokens    \n  ) external override {\n    _buyPolicyFor(_policyHolderAddr, _durationSeconds, _coverTokens);\n  }\n\n  function _buyPolicyFor(\n    address _policyHolderAddr,\n    uint256 _durationSeconds,\n    uint256 _coverTokens\n  ) internal {\n    PolicyHolder memory _policyHolder = policyHolders[_policyHolderAddr];\n    require(_policyHolder.durationSeconds == 0, \"The policy holder already exists\");\n    require(totalLiquidity >= totalCoverTokens.add(_coverTokens), \"Not enough available liquidity\");\n\n    uint256 _price = _getQuote(_durationSeconds, _coverTokens);\n\n    _policyHolder.coverTokens = _coverTokens;\n    _policyHolder.durationSeconds = _durationSeconds;    \n\n    policyHolders[_policyHolderAddr] = _policyHolder;\n    totalCoverTokens = totalCoverTokens.add(_coverTokens);\n\n    bool _success = daiToken.transferFrom(_policyHolderAddr, address(this), _price);\n    require(_success, \"Failed to transfer DAI tokens\");\n\n    emit BuyPolicy(_policyHolderAddr, _coverTokens, _price, totalCoverTokens);\n  }\n\n  function addLiquidity(uint256 _liqudityAmount) external override {\n    _addLiquidityFor(msg.sender, _liqudityAmount, false);\n  }\n\n  function addLiquidityFromLM(\n    address _liquidityHolderAddr, \n    uint256 _liqudityAmount\n  ) onlyLiquidityMining external override {\n    _addLiquidityFor(_liquidityHolderAddr, _liqudityAmount, true);\n  }\n\n  function addLiquidityFor(address _liquidityHolderAddr, uint256 _liqudityAmount) external override {\n    _addLiquidityFor(_liquidityHolderAddr, _liqudityAmount, false);\n  }\n\n  function _addLiquidityFor(address _liquidityHolderAddr, uint256 _liqudityAmount, bool _isLM) internal {\n    bool _success = daiToken.transferFrom(_liquidityHolderAddr, address(this), _liqudityAmount);\n    require(_success, \"Failed to transfer DAI tokens\");\n\n    totalLiquidity = totalLiquidity.add(_liqudityAmount);\n    _mintERC20(_liquidityHolderAddr, _liqudityAmount);\n\n    if (_isLM) {\n      liquidityFromLM[_liquidityHolderAddr] = liquidityFromLM[_liquidityHolderAddr].add(_liqudityAmount);\n    }\n\n    emit AddLiquidity(_liquidityHolderAddr, _liqudityAmount, totalLiquidity);\n  }\n\n  function withdrawLiquidity(uint256 _tokensToWithdraw) external override {\n    uint256 _availableBalance = balanceOf(msg.sender);\n\n    if (block.timestamp < liquidityMining.getEndLMTime()) {\n      _availableBalance = _availableBalance.sub(liquidityFromLM[msg.sender]);\n    }\n\n    require(_availableBalance >= _tokensToWithdraw,\n      \"The amount to be withdrawn is greater than the available amount\");\n    require(totalLiquidity.sub(_tokensToWithdraw) >= totalCoverTokens, \n      \"Not enough liquidity available\");\n\n    bool _success = daiToken.transfer(msg.sender, _tokensToWithdraw);\n    require(_success, \"Failed to transfer DAI tokens\");\n\n    totalLiquidity = totalLiquidity.sub(_tokensToWithdraw);\n    _burnERC20(msg.sender, _tokensToWithdraw);\n\n    emit WithdrawLiquidity(msg.sender, _tokensToWithdraw, totalLiquidity);\n  }\n\n  function _calculateInterest(address _policyHolder) internal view returns (uint256) {\n    return 0;\n  }\n\n  function rewardForUnclaimedExpiredPolicy(uint256 _policyId) external override {}\n\n  function stats()\n    external\n    view\n    override\n    returns (\n      string memory _name,\n      address _insuredContract,\n      IPolicyBookFabric.ContractType _contractType,\n      uint256 _maxCapacities,\n      uint256 _totalDaiLiquidity,\n      uint256 _annualProfitYields      \n    )\n  {\n    // TODO APY\n    return (\n      name, \n      insuranceContractAddress,\n      contractType, \n      totalLiquidity - totalCoverTokens, \n      totalLiquidity, \n      0\n    );\n  }\n\n  uint256 public constant SECONDS_IN_THE_YEAR = 365 * 24 * 60 * 60; // 365 days * 24 hours * 60 minutes * 60 seconds\n  uint256 public constant PRECISION = 10**25;\n  uint256 public constant PERCENTAGE_100 = 100 * PRECISION;\n\n  uint256 public constant MINIMUM_COST_PERCENTAGE = 5 * PRECISION;\n  uint256 public constant RISKY_ASSET_THRESHOLD_PERCENTAGE = 70 * PRECISION;\n  uint256 public constant MAXIMUM_COST_NOT_RISKY_PERCENTAGE = 30 * PRECISION;\n  uint256 public constant MAXIMUM_COST_100_UTILIZATION_PERCENTAGE = 150 * PRECISION;\n\n  function calculateWhenNotRisky(uint256 _utilizationRatioPercentage) private pure returns (uint256) {\n    return (_utilizationRatioPercentage.mul(MAXIMUM_COST_NOT_RISKY_PERCENTAGE)).div(RISKY_ASSET_THRESHOLD_PERCENTAGE);\n  }\n\n  function calculateWhenIsRisky(uint256 _utilizationRatioPercentage) private pure returns (uint256) {\n    uint256 riskyRelation =\n      (PRECISION.mul(_utilizationRatioPercentage.sub(RISKY_ASSET_THRESHOLD_PERCENTAGE))).div(\n        (PERCENTAGE_100.sub(RISKY_ASSET_THRESHOLD_PERCENTAGE))\n      );\n\n    return\n      MAXIMUM_COST_NOT_RISKY_PERCENTAGE.add(\n        (riskyRelation.mul(MAXIMUM_COST_100_UTILIZATION_PERCENTAGE.sub(MAXIMUM_COST_NOT_RISKY_PERCENTAGE))).div(\n          PRECISION\n        )\n      );\n  }\n\n  function getQuote(uint256 _durationSeconds, uint256 _tokens) external view override returns (uint256 _daiTokens) {\n    _daiTokens = _getQuote(_durationSeconds, _tokens);\n  }\n\n  function _getQuote(uint256 _durationSeconds, uint256 _tokens) internal view returns (uint256) {\n    require(totalCoverTokens.add(_tokens) <= totalLiquidity, \"Requiring more than there exists\");\n    require(totalLiquidity > 0, \"The pool is empty\");\n\n    uint256 utilizationRatioPercentage = ((totalCoverTokens.add(_tokens)).mul(PERCENTAGE_100)).div(totalLiquidity);\n\n    uint256 annualInsuranceCostPercentage;\n\n    if (utilizationRatioPercentage < RISKY_ASSET_THRESHOLD_PERCENTAGE) {\n      annualInsuranceCostPercentage = calculateWhenNotRisky(utilizationRatioPercentage);\n    } else {\n      annualInsuranceCostPercentage = calculateWhenIsRisky(utilizationRatioPercentage);\n    }\n\n    annualInsuranceCostPercentage = Math.max(annualInsuranceCostPercentage, MINIMUM_COST_PERCENTAGE);\n\n    uint256 actualInsuranceCostPercentage = \n      (_durationSeconds.mul(annualInsuranceCostPercentage)).div(SECONDS_IN_THE_YEAR);\n\n    return (_tokens.mul(actualInsuranceCostPercentage)).div(PERCENTAGE_100);\n  }\n}\n",
  "sourcePath": "/home/artem/Projects/Distributed_Lab/Applicature/bridgemutual-core/contracts/PolicyBook.sol",
  "compiler": {
    "name": "solc",
    "version": "0.7.4+commit.3f05b770.Emscripten.clang"
  },
  "schemaVersion": "3.3.3",
  "updatedAt": "2021-01-28T13:35:37.479Z",
  "networkType": "ethereum",
  "devdoc": {
    "kind": "dev",
    "methods": {
      "addLiquidity(uint256)": {
        "params": {
          "_liqudityAmount": "is amount of DAI tokens to secure"
        }
      },
      "addLiquidityFor(address,uint256)": {
        "params": {
          "_liqudityAmount": "is amount of DAI tokens to secure",
          "_liquidityHolderAddr": "is address of address to assign cover"
        }
      },
      "addLiquidityFromLM(address,uint256)": {
        "params": {
          "_liqudityAmount": "is amount of DAI tokens to secure",
          "_liquidityHolderAddr": "is address of address to assign cover"
        }
      },
      "addShieldTokens(address,uint256)": {
        "params": {
          "_tokenAddress": "is address of reward token to add",
          "_tokensAmount": "is max amount of reward to operate on"
        },
        "returns": {
          "_success": "is indicator if purchase is successful, it will throw exception if unsuccessful"
        }
      },
      "balanceOf(address,uint256)": {
        "details": "Returns the amount of tokens of token type `id` owned by `account`. Requirements: - `account` cannot be the zero address."
      },
      "balanceOfBatch(address[],uint256[])": {
        "details": "xref:ROOT:erc1155.adoc#batch-operations[Batched] version of {balanceOf}. Requirements: - `accounts` and `ids` must have the same length."
      },
      "buyPolicy(uint256,uint256)": {
        "params": {
          "_coverTokens": "is number of tokens to cover  ",
          "_durationSeconds": "is number of seconds to cover"
        }
      },
      "buyPolicyFor(address,uint256,uint256)": {
        "params": {
          "_coverTokens": "is number of tokens to cover  ",
          "_durationSeconds": "is number of seconds to cover",
          "_policyHolderAddr": "is address of address to assign cover"
        }
      },
      "getQuote(uint256,uint256)": {
        "params": {
          "_durationSeconds": "is number of seconds to cover",
          "_tokens": "is number of tokens to cover"
        },
        "returns": {
          "_daiTokens": "is amount of DAI policy costs"
        }
      },
      "isApprovedForAll(address,address)": {
        "details": "Returns true if `operator` is approved to transfer ``account``'s tokens. See {setApprovalForAll}."
      },
      "owner()": {
        "details": "Returns the address of the current owner."
      },
      "quoteStrategy()": {
        "returns": {
          "_quoteStrategy": "is address of Quote strategy contract used to calculate quote"
        }
      },
      "renounceOwnership()": {
        "details": "Leaves the contract without owner. It will not be possible to call `onlyOwner` functions anymore. Can only be called by the current owner. NOTE: Renouncing ownership will leave the contract without an owner, thereby removing any functionality that is only available to the owner."
      },
      "rewardForUnclaimedExpiredPolicy(uint256)": {
        "params": {
          "_policyId": "is id of policy to get reward for, reward will be sent to policy holder"
        }
      },
      "safeBatchTransferFrom(address,address,uint256[],uint256[],bytes)": {
        "details": "xref:ROOT:erc1155.adoc#batch-operations[Batched] version of {safeTransferFrom}. Emits a {TransferBatch} event. Requirements: - `ids` and `amounts` must have the same length. - If `to` refers to a smart contract, it must implement {IERC1155Receiver-onERC1155BatchReceived} and return the acceptance magic value."
      },
      "safeTransferFrom(address,address,uint256,uint256,bytes)": {
        "details": "Transfers `amount` tokens of token type `id` from `from` to `to`. Emits a {TransferSingle} event. Requirements: - `to` cannot be the zero address. - If the caller is not `from`, it must be have been approved to spend ``from``'s tokens via {setApprovalForAll}. - `from` must have a balance of tokens of type `id` of at least `amount`. - If `to` refers to a smart contract, it must implement {IERC1155Receiver-onERC1155Received} and return the acceptance magic value."
      },
      "setApprovalForAll(address,bool)": {
        "details": "Grants or revokes permission to `operator` to transfer the caller's tokens, according to `approved`, Emits an {ApprovalForAll} event. Requirements: - `operator` cannot be the caller."
      },
      "shieldAssets(uint256,uint256)": {
        "params": {
          "_limit": "is number of policy books to returns from _offset",
          "_offset": "is starting item in array to return array from"
        },
        "returns": {
          "_shieldAssets": "is addresses of shield assets, that will be distributed to Policy givers",
          "_shieldAssetsCount": "is number of added shield assets"
        }
      },
      "shieldAssetsCount()": {
        "returns": {
          "_shieldAssetsCount": "is number of added shield assets"
        }
      },
      "shieldAssetsWithBalance(uint256,uint256)": {
        "params": {
          "_limit": "is number of policy books to returns from _offset",
          "_offset": "is starting item in array to return array from"
        },
        "returns": {
          "_shieldAssetBalance": "is tokens amount of shield assets allocated to Policy Book,  to get specific shield asset balance lookup _shieldAssetBalances by same index as of shield asset",
          "_shieldAssets": "is addresses of shield assets, that will be distributed to Policy givers",
          "_shieldAssetsCount": "is number of added shield assets"
        }
      },
      "stats()": {
        "returns": {
          "_annualProfitYields": "is its APY  ",
          "_contractType": "is a type of insured contract",
          "_insuredContract": "is an addres of insured contract",
          "_maxCapacities": "is a max token amount that a user can buy",
          "_name": "is the name of PolicyBook",
          "_totalDaiLiquidity": "is PolicyBook's liquidity"
        }
      },
      "supportsInterface(bytes4)": {
        "details": "See {IERC165-supportsInterface}. Time complexity O(1), guaranteed to always use less than 30 000 gas."
      },
      "transferFrom(address,address,uint256)": {
        "details": "Moves `amount` tokens from `sender` to `recipient` using the allowance mechanism. `amount` is then deducted from the caller's allowance. Returns a boolean value indicating whether the operation succeeded. Emits a {Transfer} event."
      },
      "transferOwnership(address)": {
        "details": "Transfers ownership of the contract to a new account (`newOwner`). Can only be called by the current owner."
      },
      "withdrawLiquidity(uint256)": {
        "params": {
          "_tokensToWithdraw": "is amount of DAI tokens to withdraw"
        }
      }
    },
    "stateVariables": {
      "contractType": {
        "return": "_type is type of contract"
      },
      "insuranceContractAddress": {
        "return": "_contract is address of covered contract"
      }
    },
    "version": 1
  },
  "userdoc": {
    "kind": "user",
    "methods": {
      "addLiquidity(uint256)": {
        "notice": "Let user to add liquidity by supplying DAI, access: ANY"
      },
      "addLiquidityFor(address,uint256)": {
        "notice": "Let user to add liqiudity for another user by supplying DAI, access: ANY"
      },
      "addLiquidityFromLM(address,uint256)": {
        "notice": "Let liquidityMining contract to add liqiudity for another user by supplying DAI, access: ONLY LM"
      },
      "addShieldTokens(address,uint256)": {
        "notice": "Adds shield tokens to contract, access: ANY"
      },
      "allowance(address,address)": {
        "notice": "From ERC20"
      },
      "approve(address,uint256)": {
        "notice": "From ERC20"
      },
      "balanceOf(address)": {
        "notice": "From ERC20"
      },
      "buyPolicy(uint256,uint256)": {
        "notice": "Let user to buy policy by supplying DAI, access: ANY"
      },
      "buyPolicyFor(address,uint256,uint256)": {
        "notice": "Let user to buy policy for another user by supplying DAI, access: ANY"
      },
      "contractType()": {
        "notice": "Returns type of contract this PolicyBook covers, access: ANY"
      },
      "decreaseAllowance(address,uint256)": {
        "notice": "From ERC20"
      },
      "getQuote(uint256,uint256)": {
        "notice": "Let user to calculate policy cost in DAI, access: ANY"
      },
      "increaseAllowance(address,uint256)": {
        "notice": "From ERC20"
      },
      "insuranceContractAddress()": {
        "notice": "Returns address of contract this PolicyBook covers, access: ANY"
      },
      "quoteStrategy()": {
        "notice": "Returns quote strategy defined during creation of PolicyBook, access: ANY"
      },
      "rewardForUnclaimedExpiredPolicy(uint256)": {
        "notice": "Let user to claim rewards for unclaimed policy cost in DAI, access: ANY"
      },
      "shieldAssets(uint256,uint256)": {
        "notice": "Returns list of shield assets added to PolicyBook, access: ANY"
      },
      "shieldAssetsCount()": {
        "notice": "Returns number of shield assets added, access: ANY"
      },
      "shieldAssetsWithBalance(uint256,uint256)": {
        "notice": "Returns list of shield assets added with tokens amount allocated to Policy Book, access: ANY"
      },
      "stats()": {
        "notice": "Getting stats, access: ANY"
      },
      "totalSupply()": {
        "notice": "From ERC20"
      },
      "transfer(address,uint256)": {
        "notice": "From ERC20"
      },
      "withdrawLiquidity(uint256)": {
        "notice": "Let user to withdraw deposited liqiudity, access: ANY"
      }
    },
    "version": 1
  }
}