{
  "contractName": "PolicyBook",
  "abi": [
    {
      "inputs": [
        {
          "internalType": "address",
          "name": "_insuranceContract",
          "type": "address"
        },
        {
          "internalType": "enum IPolicyBookFabric.ContractType",
          "name": "_contractType",
          "type": "uint8"
        },
        {
          "internalType": "string",
          "name": "_description",
          "type": "string"
        },
        {
          "internalType": "string",
          "name": "_projectSymbol",
          "type": "string"
        }
      ],
      "stateMutability": "nonpayable",
      "type": "constructor"
    },
    {
      "anonymous": false,
      "inputs": [
        {
          "indexed": false,
          "internalType": "address",
          "name": "_liquidityHolder",
          "type": "address"
        },
        {
          "indexed": false,
          "internalType": "uint256",
          "name": "_liqudityAmount",
          "type": "uint256"
        },
        {
          "indexed": false,
          "internalType": "uint256",
          "name": "_newTotalLiquidity",
          "type": "uint256"
        }
      ],
      "name": "AddLiquidity",
      "type": "event"
    },
    {
      "anonymous": false,
      "inputs": [
        {
          "indexed": true,
          "internalType": "address",
          "name": "owner",
          "type": "address"
        },
        {
          "indexed": true,
          "internalType": "address",
          "name": "spender",
          "type": "address"
        },
        {
          "indexed": false,
          "internalType": "uint256",
          "name": "value",
          "type": "uint256"
        }
      ],
      "name": "Approval",
      "type": "event"
    },
    {
      "anonymous": false,
      "inputs": [
        {
          "indexed": false,
          "internalType": "address",
          "name": "_policyHolder",
          "type": "address"
        },
        {
          "indexed": false,
          "internalType": "uint256",
          "name": "_coverTokens",
          "type": "uint256"
        },
        {
          "indexed": false,
          "internalType": "uint256",
          "name": "_price",
          "type": "uint256"
        },
        {
          "indexed": false,
          "internalType": "uint256",
          "name": "_newTotalCoverTokens",
          "type": "uint256"
        }
      ],
      "name": "BuyPolicy",
      "type": "event"
    },
    {
      "anonymous": false,
      "inputs": [
        {
          "indexed": true,
          "internalType": "address",
          "name": "previousOwner",
          "type": "address"
        },
        {
          "indexed": true,
          "internalType": "address",
          "name": "newOwner",
          "type": "address"
        }
      ],
      "name": "OwnershipTransferred",
      "type": "event"
    },
    {
      "anonymous": false,
      "inputs": [
        {
          "indexed": true,
          "internalType": "address",
          "name": "from",
          "type": "address"
        },
        {
          "indexed": true,
          "internalType": "address",
          "name": "to",
          "type": "address"
        },
        {
          "indexed": false,
          "internalType": "uint256",
          "name": "value",
          "type": "uint256"
        }
      ],
      "name": "Transfer",
      "type": "event"
    },
    {
      "anonymous": false,
      "inputs": [
        {
          "indexed": false,
          "internalType": "address",
          "name": "_liquidityHolder",
          "type": "address"
        },
        {
          "indexed": false,
          "internalType": "uint256",
          "name": "_tokensToWithdraw",
          "type": "uint256"
        },
        {
          "indexed": false,
          "internalType": "uint256",
          "name": "_newTotalLiquidity",
          "type": "uint256"
        }
      ],
      "name": "WithdrawLiquidity",
      "type": "event"
    },
    {
      "inputs": [],
      "name": "MAXIMUM_COST_100_UTILIZATION_PERCENTAGE",
      "outputs": [
        {
          "internalType": "uint256",
          "name": "",
          "type": "uint256"
        }
      ],
      "stateMutability": "view",
      "type": "function",
      "constant": true
    },
    {
      "inputs": [],
      "name": "MAXIMUM_COST_NOT_RISKY_PERCENTAGE",
      "outputs": [
        {
          "internalType": "uint256",
          "name": "",
          "type": "uint256"
        }
      ],
      "stateMutability": "view",
      "type": "function",
      "constant": true
    },
    {
      "inputs": [],
      "name": "MINIMUM_COST_PERCENTAGE",
      "outputs": [
        {
          "internalType": "uint256",
          "name": "",
          "type": "uint256"
        }
      ],
      "stateMutability": "view",
      "type": "function",
      "constant": true
    },
    {
      "inputs": [],
      "name": "PERCENTAGE_100",
      "outputs": [
        {
          "internalType": "uint256",
          "name": "",
          "type": "uint256"
        }
      ],
      "stateMutability": "view",
      "type": "function",
      "constant": true
    },
    {
      "inputs": [],
      "name": "PRECISION",
      "outputs": [
        {
          "internalType": "uint256",
          "name": "",
          "type": "uint256"
        }
      ],
      "stateMutability": "view",
      "type": "function",
      "constant": true
    },
    {
      "inputs": [],
      "name": "RISKY_ASSET_THRESHOLD_PERCENTAGE",
      "outputs": [
        {
          "internalType": "uint256",
          "name": "",
          "type": "uint256"
        }
      ],
      "stateMutability": "view",
      "type": "function",
      "constant": true
    },
    {
      "inputs": [],
      "name": "SECONDS_IN_THE_YEAR",
      "outputs": [
        {
          "internalType": "uint256",
          "name": "",
          "type": "uint256"
        }
      ],
      "stateMutability": "view",
      "type": "function",
      "constant": true
    },
    {
      "inputs": [
        {
          "internalType": "address",
          "name": "owner",
          "type": "address"
        },
        {
          "internalType": "address",
          "name": "spender",
          "type": "address"
        }
      ],
      "name": "allowance",
      "outputs": [
        {
          "internalType": "uint256",
          "name": "",
          "type": "uint256"
        }
      ],
      "stateMutability": "view",
      "type": "function",
      "constant": true
    },
    {
      "inputs": [
        {
          "internalType": "address",
          "name": "spender",
          "type": "address"
        },
        {
          "internalType": "uint256",
          "name": "amount",
          "type": "uint256"
        }
      ],
      "name": "approve",
      "outputs": [
        {
          "internalType": "bool",
          "name": "",
          "type": "bool"
        }
      ],
      "stateMutability": "nonpayable",
      "type": "function"
    },
    {
      "inputs": [
        {
          "internalType": "address",
          "name": "account",
          "type": "address"
        }
      ],
      "name": "balanceOf",
      "outputs": [
        {
          "internalType": "uint256",
          "name": "",
          "type": "uint256"
        }
      ],
      "stateMutability": "view",
      "type": "function",
      "constant": true
    },
    {
      "inputs": [],
      "name": "bmiDaiStakingAddress",
      "outputs": [
        {
          "internalType": "address",
          "name": "",
          "type": "address"
        }
      ],
      "stateMutability": "view",
      "type": "function",
      "constant": true
    },
    {
      "inputs": [],
      "name": "contractType",
      "outputs": [
        {
          "internalType": "enum IPolicyBookFabric.ContractType",
          "name": "",
          "type": "uint8"
        }
      ],
      "stateMutability": "view",
      "type": "function",
      "constant": true
    },
    {
      "inputs": [],
      "name": "contractsRegistry",
      "outputs": [
        {
          "internalType": "contract ContractsRegistry",
          "name": "",
          "type": "address"
        }
      ],
      "stateMutability": "view",
      "type": "function",
      "constant": true
    },
    {
      "inputs": [],
      "name": "daiToken",
      "outputs": [
        {
          "internalType": "contract IERC20",
          "name": "",
          "type": "address"
        }
      ],
      "stateMutability": "view",
      "type": "function",
      "constant": true
    },
    {
      "inputs": [],
      "name": "decimals",
      "outputs": [
        {
          "internalType": "uint8",
          "name": "",
          "type": "uint8"
        }
      ],
      "stateMutability": "view",
      "type": "function",
      "constant": true
    },
    {
      "inputs": [
        {
          "internalType": "address",
          "name": "spender",
          "type": "address"
        },
        {
          "internalType": "uint256",
          "name": "subtractedValue",
          "type": "uint256"
        }
      ],
      "name": "decreaseAllowance",
      "outputs": [
        {
          "internalType": "bool",
          "name": "",
          "type": "bool"
        }
      ],
      "stateMutability": "nonpayable",
      "type": "function"
    },
    {
      "inputs": [
        {
          "internalType": "address",
          "name": "spender",
          "type": "address"
        },
        {
          "internalType": "uint256",
          "name": "addedValue",
          "type": "uint256"
        }
      ],
      "name": "increaseAllowance",
      "outputs": [
        {
          "internalType": "bool",
          "name": "",
          "type": "bool"
        }
      ],
      "stateMutability": "nonpayable",
      "type": "function"
    },
    {
      "inputs": [],
      "name": "insuranceContractAddress",
      "outputs": [
        {
          "internalType": "address",
          "name": "",
          "type": "address"
        }
      ],
      "stateMutability": "view",
      "type": "function",
      "constant": true
    },
    {
      "inputs": [],
      "name": "name",
      "outputs": [
        {
          "internalType": "string",
          "name": "",
          "type": "string"
        }
      ],
      "stateMutability": "view",
      "type": "function",
      "constant": true
    },
    {
      "inputs": [],
      "name": "owner",
      "outputs": [
        {
          "internalType": "address",
          "name": "",
          "type": "address"
        }
      ],
      "stateMutability": "view",
      "type": "function",
      "constant": true
    },
    {
      "inputs": [
        {
          "internalType": "address",
          "name": "",
          "type": "address"
        }
      ],
      "name": "policyHolders",
      "outputs": [
        {
          "internalType": "uint256",
          "name": "coverTokens",
          "type": "uint256"
        },
        {
          "internalType": "uint256",
          "name": "durationSeconds",
          "type": "uint256"
        },
        {
          "internalType": "uint256",
          "name": "maxDaiTokens",
          "type": "uint256"
        }
      ],
      "stateMutability": "view",
      "type": "function",
      "constant": true
    },
    {
      "inputs": [],
      "name": "renounceOwnership",
      "outputs": [],
      "stateMutability": "nonpayable",
      "type": "function"
    },
    {
      "inputs": [],
      "name": "symbol",
      "outputs": [
        {
          "internalType": "string",
          "name": "",
          "type": "string"
        }
      ],
      "stateMutability": "view",
      "type": "function",
      "constant": true
    },
    {
      "inputs": [],
      "name": "totalCoverTokens",
      "outputs": [
        {
          "internalType": "uint256",
          "name": "",
          "type": "uint256"
        }
      ],
      "stateMutability": "view",
      "type": "function",
      "constant": true
    },
    {
      "inputs": [],
      "name": "totalLiquidity",
      "outputs": [
        {
          "internalType": "uint256",
          "name": "",
          "type": "uint256"
        }
      ],
      "stateMutability": "view",
      "type": "function",
      "constant": true
    },
    {
      "inputs": [],
      "name": "totalSupply",
      "outputs": [
        {
          "internalType": "uint256",
          "name": "",
          "type": "uint256"
        }
      ],
      "stateMutability": "view",
      "type": "function",
      "constant": true
    },
    {
      "inputs": [
        {
          "internalType": "address",
          "name": "recipient",
          "type": "address"
        },
        {
          "internalType": "uint256",
          "name": "amount",
          "type": "uint256"
        }
      ],
      "name": "transfer",
      "outputs": [
        {
          "internalType": "bool",
          "name": "",
          "type": "bool"
        }
      ],
      "stateMutability": "nonpayable",
      "type": "function"
    },
    {
      "inputs": [
        {
          "internalType": "address",
          "name": "sender",
          "type": "address"
        },
        {
          "internalType": "address",
          "name": "recipient",
          "type": "address"
        },
        {
          "internalType": "uint256",
          "name": "amount",
          "type": "uint256"
        }
      ],
      "name": "transferFrom",
      "outputs": [
        {
          "internalType": "bool",
          "name": "",
          "type": "bool"
        }
      ],
      "stateMutability": "nonpayable",
      "type": "function"
    },
    {
      "inputs": [
        {
          "internalType": "address",
          "name": "newOwner",
          "type": "address"
        }
      ],
      "name": "transferOwnership",
      "outputs": [],
      "stateMutability": "nonpayable",
      "type": "function"
    },
    {
      "stateMutability": "payable",
      "type": "receive",
      "payable": true
    },
    {
      "inputs": [
        {
          "internalType": "contract ContractsRegistry",
          "name": "_contractsRegistry",
          "type": "address"
        }
      ],
      "name": "initRegistry",
      "outputs": [],
      "stateMutability": "nonpayable",
      "type": "function"
    },
    {
      "inputs": [],
      "name": "approveAllDaiTokensForStaking",
      "outputs": [],
      "stateMutability": "nonpayable",
      "type": "function"
    },
    {
      "inputs": [],
      "name": "quoteStrategy",
      "outputs": [
        {
          "internalType": "address",
          "name": "_quoteStrategy",
          "type": "address"
        }
      ],
      "stateMutability": "view",
      "type": "function",
      "constant": true
    },
    {
      "inputs": [
        {
          "internalType": "uint256",
          "name": "_offset",
          "type": "uint256"
        },
        {
          "internalType": "uint256",
          "name": "_limit",
          "type": "uint256"
        }
      ],
      "name": "shieldAssets",
      "outputs": [
        {
          "internalType": "uint256",
          "name": "_shieldAssetsCount",
          "type": "uint256"
        },
        {
          "internalType": "address[]",
          "name": "_shieldAssets",
          "type": "address[]"
        }
      ],
      "stateMutability": "view",
      "type": "function",
      "constant": true
    },
    {
      "inputs": [
        {
          "internalType": "uint256",
          "name": "_offset",
          "type": "uint256"
        },
        {
          "internalType": "uint256",
          "name": "_limit",
          "type": "uint256"
        }
      ],
      "name": "shieldAssetsWithBalance",
      "outputs": [
        {
          "internalType": "uint256",
          "name": "_shieldAssetsCount",
          "type": "uint256"
        },
        {
          "internalType": "address[]",
          "name": "_shieldAssets",
          "type": "address[]"
        },
        {
          "internalType": "uint256[]",
          "name": "_shieldAssetBalance",
          "type": "uint256[]"
        }
      ],
      "stateMutability": "view",
      "type": "function",
      "constant": true
    },
    {
      "inputs": [],
      "name": "shieldAssetsCount",
      "outputs": [
        {
          "internalType": "uint256",
          "name": "_shieldAssetsCount",
          "type": "uint256"
        }
      ],
      "stateMutability": "view",
      "type": "function",
      "constant": true
    },
    {
      "inputs": [
        {
          "internalType": "address",
          "name": "_tokenAddress",
          "type": "address"
        },
        {
          "internalType": "uint256",
          "name": "_tokensAmount",
          "type": "uint256"
        }
      ],
      "name": "addShieldTokens",
      "outputs": [
        {
          "internalType": "bool",
          "name": "_success",
          "type": "bool"
        }
      ],
      "stateMutability": "nonpayable",
      "type": "function"
    },
    {
      "inputs": [
        {
          "internalType": "uint256",
          "name": "_durationSeconds",
          "type": "uint256"
        },
        {
          "internalType": "uint256",
          "name": "_coverTokens",
          "type": "uint256"
        },
        {
          "internalType": "uint256",
          "name": "_maxDaiTokens",
          "type": "uint256"
        }
      ],
      "name": "buyPolicy",
      "outputs": [],
      "stateMutability": "nonpayable",
      "type": "function"
    },
    {
      "inputs": [
        {
          "internalType": "address",
          "name": "_policyHolderAddr",
          "type": "address"
        },
        {
          "internalType": "uint256",
          "name": "_durationSeconds",
          "type": "uint256"
        },
        {
          "internalType": "uint256",
          "name": "_coverTokens",
          "type": "uint256"
        },
        {
          "internalType": "uint256",
          "name": "_maxDaiTokens",
          "type": "uint256"
        }
      ],
      "name": "buyPolicyFor",
      "outputs": [],
      "stateMutability": "nonpayable",
      "type": "function"
    },
    {
      "inputs": [
        {
          "internalType": "uint256",
          "name": "_liqudityAmount",
          "type": "uint256"
        }
      ],
      "name": "addLiquidity",
      "outputs": [],
      "stateMutability": "nonpayable",
      "type": "function"
    },
    {
      "inputs": [
        {
          "internalType": "address",
          "name": "_liquidityHolderAddr",
          "type": "address"
        },
        {
          "internalType": "uint256",
          "name": "_liqudityAmount",
          "type": "uint256"
        }
      ],
      "name": "addLiquidityFor",
      "outputs": [],
      "stateMutability": "nonpayable",
      "type": "function"
    },
    {
      "inputs": [
        {
          "internalType": "uint256",
          "name": "_tokensToWithdraw",
          "type": "uint256"
        }
      ],
      "name": "withdrawLiquidity",
      "outputs": [],
      "stateMutability": "nonpayable",
      "type": "function"
    },
    {
      "inputs": [
        {
          "internalType": "uint256",
          "name": "_policyId",
          "type": "uint256"
        }
      ],
      "name": "rewardForUnclaimedExpiredPolicy",
      "outputs": [],
      "stateMutability": "nonpayable",
      "type": "function"
    },
    {
      "inputs": [],
      "name": "stats",
      "outputs": [
        {
          "internalType": "string",
          "name": "_name",
          "type": "string"
        },
        {
          "internalType": "enum IPolicyBookFabric.ContractType",
          "name": "_contractType",
          "type": "uint8"
        },
        {
          "internalType": "uint256",
          "name": "_maxCapacities",
          "type": "uint256"
        },
        {
          "internalType": "uint256",
          "name": "_totalDaiLiquidity",
          "type": "uint256"
        },
        {
          "internalType": "uint256",
          "name": "_annualProfitYields",
          "type": "uint256"
        }
      ],
      "stateMutability": "view",
      "type": "function",
      "constant": true
    },
    {
      "inputs": [
        {
          "internalType": "uint256",
          "name": "_durationSeconds",
          "type": "uint256"
        },
        {
          "internalType": "uint256",
          "name": "_tokens",
          "type": "uint256"
        }
      ],
      "name": "getQuote",
      "outputs": [
        {
          "internalType": "uint256",
          "name": "_daiTokens",
          "type": "uint256"
        }
      ],
      "stateMutability": "view",
      "type": "function",
      "constant": true
    }
  ],
  "bytecode": "0x60806040523480156200001157600080fd5b5060405162002c2238038062002c22833981016040819052620000349162000269565b818160405160200162000048919062000307565b60408051601f1981840301815291905281516200006d90600390602085019062000140565b5080516200008390600490602084019062000140565b50506005805460ff191660121790555060006200009f6200013c565b60058054610100600160a81b0319166101006001600160a01b03841690810291909117909155604051919250906000907f8be0079c531659141344cd1fd0a4f28419497f9722a3daafe3b4186f6b6457e0908290a350600780546001600160a01b0319166001600160a01b0386161780825584919060ff60a01b1916600160a01b8360038111156200012d57fe5b0217905550505050506200036a565b3390565b828054600181600116156101000203166002900490600052602060002090601f016020900481019282620001785760008555620001c3565b82601f106200019357805160ff1916838001178555620001c3565b82800160010185558215620001c3579182015b82811115620001c3578251825591602001919060010190620001a6565b50620001d1929150620001d5565b5090565b5b80821115620001d15760008155600101620001d6565b600082601f830112620001fd578081fd5b81516001600160401b03808211156200021257fe5b604051601f8301601f1916810160200182811182821017156200023157fe5b6040528281529250828483016020018610156200024d57600080fd5b6200026083602083016020880162000337565b50505092915050565b600080600080608085870312156200027f578384fd5b84516001600160a01b038116811462000296578485fd5b602086015190945060048110620002ab578384fd5b60408601519093506001600160401b0380821115620002c8578384fd5b620002d688838901620001ec565b93506060870151915080821115620002ec578283fd5b50620002fb87828801620001ec565b91505092959194509250565b600065626d6944414960d01b825282516200032a81600685016020870162000337565b9190910160060192915050565b60005b83811015620003545781810151838201526020016200033a565b8381111562000364576000848401525b50505050565b6128a8806200037a6000396000f3fe6080604052600436106102eb5760003560e01c80639c59000611610184578063cfa8b3a8116100d6578063e98a04e11161008a578063f4020b5b11610064578063f4020b5b146107b0578063f60ff937146107d0578063fc3dfc99146107e5576102f2565b8063e98a04e11461075b578063efa1f98a14610770578063f2fde38b14610790576102f2565b8063d80528ae116100bb578063d80528ae14610700578063d98d0c7e14610726578063dd62ed3e1461073b576102f2565b8063cfa8b3a8146106cb578063d0a43afd146106e0576102f2565b8063b00455fd11610138578063c18c605711610112578063c18c605714610674578063cb2ef6f714610694578063cbf5a55e146106b6576102f2565b8063b00455fd14610635578063bc5d198a1461064a578063be22f5461461065f576102f2565b8063a457c2d711610169578063a457c2d7146105e0578063a9059cbb14610600578063aaf5eb6814610620576102f2565b80639c590006146105b65780639effd687146105cb576102f2565b8063395093511161023d578063715018a6116101f15780637cd0fc9b116101cb5780637cd0fc9b146105775780638da5cb5b1461058c57806395d89b41146105a1576102f2565b8063715018a614610514578063758af3ab1461052957806379fac08c14610549576102f2565b806351c6590a1161022257806351c6590a146104a557806370a08231146104c557806370b68a2a146104e5576102f2565b80633950935114610470578063514ea9bd14610490576102f2565b806315770f921161029f57806323b872dd1161027957806323b872dd146104195780632c865d6c14610439578063313ce5671461044e576102f2565b806315770f92146103c257806318160ddd146103e4578063188ff854146103f9576102f2565b80630a861f2a116102d05780630a861f2a1461034f5780630e82da531461037157806314c179c0146103a0576102f2565b806306fdde03146102f7578063095ea7b314610322576102f2565b366102f257005b600080fd5b34801561030357600080fd5b5061030c610805565b604051610319919061240a565b60405180910390f35b34801561032e57600080fd5b5061034261033d36600461212a565b6108b9565b60405161031991906123f1565b34801561035b57600080fd5b5061036f61036a36600461225a565b6108d7565b005b34801561037d57600080fd5b5061039161038c366004612272565b610a4e565b60405161031993929190612628565b3480156103ac57600080fd5b506103b5610a5a565b6040516103199190612359565b3480156103ce57600080fd5b506103d7610a69565b60405161031991906125fe565b3480156103f057600080fd5b506103d7610a6f565b34801561040557600080fd5b5061034261041436600461212a565b610a75565b34801561042557600080fd5b506103426104343660046120ea565b610a7d565b34801561044557600080fd5b506103d7610b04565b34801561045a57600080fd5b50610463610b09565b6040516103199190612698565b34801561047c57600080fd5b5061034261048b36600461212a565b610b12565b34801561049c57600080fd5b506103d7610b60565b3480156104b157600080fd5b5061036f6104c036600461225a565b610b6f565b3480156104d157600080fd5b506103d76104e036600461207a565b610b7c565b3480156104f157600080fd5b5061050561050036600461207a565b610b97565b60405161031993929190612682565b34801561052057600080fd5b5061036f610bb8565b34801561053557600080fd5b506103d7610544366004612272565b610c8e565b34801561055557600080fd5b50610569610564366004612272565b610ca1565b604051610319929190612607565b34801561058357600080fd5b506103b5610b04565b34801561059857600080fd5b506103b5610cab565b3480156105ad57600080fd5b5061030c610cbf565b3480156105c257600080fd5b506103d7610d3e565b3480156105d757600080fd5b506103b5610d4d565b3480156105ec57600080fd5b506103426105fb36600461212a565b610d5c565b34801561060c57600080fd5b5061034261061b36600461212a565b610dc4565b34801561062c57600080fd5b506103d7610dd8565b34801561064157600080fd5b5061036f610de7565b34801561065657600080fd5b506103d7610f3a565b34801561066b57600080fd5b506103b5610f42565b34801561068057600080fd5b5061036f61068f36600461225a565b610b79565b3480156106a057600080fd5b506106a9610f51565b60405161031991906123fc565b3480156106c257600080fd5b506103d7610f72565b3480156106d757600080fd5b506103d7610f82565b3480156106ec57600080fd5b5061036f6106fb36600461207a565b610f92565b34801561070c57600080fd5b506107156112e7565b60405161031995949392919061241d565b34801561073257600080fd5b506103b561132f565b34801561074757600080fd5b506103d76107563660046120b2565b61133e565b34801561076757600080fd5b506103d7611369565b34801561077c57600080fd5b5061036f61078b36600461212a565b611379565b34801561079c57600080fd5b5061036f6107ab36600461207a565b611387565b3480156107bc57600080fd5b5061036f6107cb366004612293565b6114b9565b3480156107dc57600080fd5b506103d76114ca565b3480156107f157600080fd5b5061036f610800366004612155565b6114d0565b60038054604080516020601f60027fffffffffffffffffffffffffffffffffffffffffffffffffffffffffffffffff6101006001881615020190951694909404938401819004810282018101909252828152606093909290918301828280156108af5780601f10610884576101008083540402835291602001916108af565b820191906000526020600020905b81548152906001019060200180831161089257829003601f168201915b5050505050905090565b60006108cd6108c66114e2565b84846114e6565b5060015b92915050565b806108e133610b7c565b10156109085760405162461bcd60e51b81526004016108ff906125a1565b60405180910390fd5b600b54600a5461091890836115d2565b10156109365760405162461bcd60e51b81526004016108ff90612533565b6008546040517fa9059cbb0000000000000000000000000000000000000000000000000000000081526000916001600160a01b03169063a9059cbb90610982903390869060040161236d565b602060405180830381600087803b15801561099c57600080fd5b505af11580156109b0573d6000803e3d6000fd5b505050506040513d601f19601f820116820180604052508101906109d4919061218f565b9050806109f35760405162461bcd60e51b81526004016108ff906124c7565b600a54610a0090836115d2565b600a55610a0d3383611614565b7fac927268ea9ae2e55027e6ab727fc2db8e3ea48c56c658223a1074567e4298c03383600a54604051610a4293929190612386565b60405180910390a15050565b60006060809250925092565b6007546001600160a01b031681565b600a5481565b60025490565b600092915050565b6000610a8a848484611710565b610afa84610a966114e2565b610af5856040518060600160405280602881526020016127bc602891396001600160a01b038a16600090815260016020526040812090610ad46114e2565b6001600160a01b03168152602081019190915260400160002054919061186b565b6114e6565b5060019392505050565b600090565b60055460ff1690565b60006108cd610b1f6114e2565b84610af58560016000610b306114e2565b6001600160a01b03908116825260208083019390935260409182016000908120918c168152925290205490611902565b6af8277896582678ac00000081565b610b79338261195c565b50565b6001600160a01b031660009081526020819052604090205490565b600c6020526000908152604090208054600182015460029092015490919083565b610bc06114e2565b60055461010090046001600160a01b03908116911614610c27576040805162461bcd60e51b815260206004820181905260248201527f4f776e61626c653a2063616c6c6572206973206e6f7420746865206f776e6572604482015290519081900360640190fd5b60055460405160009161010090046001600160a01b0316907f8be0079c531659141344cd1fd0a4f28419497f9722a3daafe3b4186f6b6457e0908390a3600580547fffffffffffffffffffffff0000000000000000000000000000000000000000ff169055565b6000610c9a8383611a77565b9392505050565b5060009160609150565b60055461010090046001600160a01b031690565b60048054604080516020601f60027fffffffffffffffffffffffffffffffffffffffffffffffffffffffffffffffff6101006001881615020190951694909404938401819004810282018101909252828152606093909290918301828280156108af5780601f10610884576101008083540402835291602001916108af565b6a295be96e6406697200000081565b6009546001600160a01b031681565b60006108cd610d696114e2565b84610af58560405180606001604052806025815260200161284e6025913960016000610d936114e2565b6001600160a01b03908116825260208083019390935260409182016000908120918d1681529252902054919061186b565b60006108cd610dd16114e2565b8484611710565b6a084595161401484a00000081565b610def6114e2565b60055461010090046001600160a01b03908116911614610e56576040805162461bcd60e51b815260206004820181905260248201527f4f776e61626c653a2063616c6c6572206973206e6f7420746865206f776e6572604482015290519081900360640190fd5b6008546009546040517f095ea7b30000000000000000000000000000000000000000000000000000000081526000926001600160a01b039081169263095ea7b392610ec992909116907fffffffffffffffffffffffffffffffffffffffffffffffffffffffffffffffff9060040161236d565b602060405180830381600087803b158015610ee357600080fd5b505af1158015610ef7573d6000803e3d6000fd5b505050506040513d601f19601f82011682018060405250810190610f1b919061218f565b905080610b795760405162461bcd60e51b81526004016108ff9061256a565b6301e1338081565b6008546001600160a01b031681565b60075474010000000000000000000000000000000000000000900460ff1681565b6b033b2e3c9fd0803ce800000081565b6b04d8c55aefb8c05b5c00000081565b610f9a6114e2565b60055461010090046001600160a01b03908116911614611001576040805162461bcd60e51b815260206004820181905260248201527f4f776e61626c653a2063616c6c6572206973206e6f7420746865206f776e6572604482015290519081900360640190fd5b600680547fffffffffffffffffffffffff0000000000000000000000000000000000000000166001600160a01b038316908117909155604080517fa45611b60000000000000000000000000000000000000000000000000000000081529051633581777391839163a45611b691600480820192600092909190829003018186803b15801561108e57600080fd5b505afa1580156110a2573d6000803e3d6000fd5b505050506040513d6000823e601f3d9081017fffffffffffffffffffffffffffffffffffffffffffffffffffffffffffffffe01682016040526110e891908101906121af565b6040518263ffffffff1660e01b8152600401611104919061240a565b60206040518083038186803b15801561111c57600080fd5b505afa158015611130573d6000803e3d6000fd5b505050506040513d601f19601f820116820180604052508101906111549190612096565b600880547fffffffffffffffffffffffff0000000000000000000000000000000000000000166001600160a01b03928316179055600654604080517f3d2886a0000000000000000000000000000000000000000000000000000000008152905191909216916335817773918391633d2886a0916004808301926000929190829003018186803b1580156111e657600080fd5b505afa1580156111fa573d6000803e3d6000fd5b505050506040513d6000823e601f3d9081017fffffffffffffffffffffffffffffffffffffffffffffffffffffffffffffffe016820160405261124091908101906121af565b6040518263ffffffff1660e01b815260040161125c919061240a565b60206040518083038186803b15801561127457600080fd5b505afa158015611288573d6000803e3d6000fd5b505050506040513d601f19601f820116820180604052508101906112ac9190612096565b600980547fffffffffffffffffffffffff0000000000000000000000000000000000000000166001600160a01b039290921691909117905550565b60606000806000806112f7610805565b600754600b54600a5492987401000000000000000000000000000000000000000090920460ff16975082039550909350600092509050565b6006546001600160a01b031681565b6001600160a01b03918216600090815260016020908152604080832093909416825291909152205490565b6b024306c4097859c43c00000081565b611383828261195c565b5050565b61138f6114e2565b60055461010090046001600160a01b039081169116146113f6576040805162461bcd60e51b815260206004820181905260248201527f4f776e61626c653a2063616c6c6572206973206e6f7420746865206f776e6572604482015290519081900360640190fd5b6001600160a01b03811661143b5760405162461bcd60e51b815260040180806020018281038252602681526020018061272d6026913960400191505060405180910390fd5b6005546040516001600160a01b0380841692610100900416907f8be0079c531659141344cd1fd0a4f28419497f9722a3daafe3b4186f6b6457e090600090a3600580546001600160a01b03909216610100027fffffffffffffffffffffff0000000000000000000000000000000000000000ff909216919091179055565b6114c533848484611b91565b505050565b600b5481565b6114dc84848484611b91565b50505050565b3390565b6001600160a01b03831661152b5760405162461bcd60e51b815260040180806020018281038252602481526020018061282a6024913960400191505060405180910390fd5b6001600160a01b0382166115705760405162461bcd60e51b81526004018080602001828103825260228152602001806127536022913960400191505060405180910390fd5b6001600160a01b03808416600081815260016020908152604080832094871680845294825291829020859055815185815291517f8c5be1e5ebec7d5bd14f71427d1e84f3dd0314c0f7b2291e5b200ac8c7c3b9259281900390910190a3505050565b6000610c9a83836040518060400160405280601e81526020017f536166654d6174683a207375627472616374696f6e206f766572666c6f77000081525061186b565b6001600160a01b0382166116595760405162461bcd60e51b81526004018080602001828103825260218152602001806127e46021913960400191505060405180910390fd5b611665826000836114c5565b6116a28160405180606001604052806022815260200161270b602291396001600160a01b038516600090815260208190526040902054919061186b565b6001600160a01b0383166000908152602081905260409020556002546116c890826115d2565b6002556040805182815290516000916001600160a01b038516917fddf252ad1be2c89b69c2b068fc378daa952ba7f163c4a11628f55a4df523b3ef9181900360200190a35050565b6001600160a01b0383166117555760405162461bcd60e51b81526004018080602001828103825260258152602001806128056025913960400191505060405180910390fd5b6001600160a01b03821661179a5760405162461bcd60e51b81526004018080602001828103825260238152602001806126e86023913960400191505060405180910390fd5b6117a58383836114c5565b6117e281604051806060016040528060268152602001612775602691396001600160a01b038616600090815260208190526040902054919061186b565b6001600160a01b0380851660009081526020819052604080822093909355908416815220546118119082611902565b6001600160a01b038084166000818152602081815260409182902094909455805185815290519193928716927fddf252ad1be2c89b69c2b068fc378daa952ba7f163c4a11628f55a4df523b3ef92918290030190a3505050565b600081848411156118fa5760405162461bcd60e51b81526004018080602001828103825283818151815260200191508051906020019080838360005b838110156118bf5781810151838201526020016118a7565b50505050905090810190601f1680156118ec5780820380516001836020036101000a031916815260200191505b509250505060405180910390fd5b505050900390565b600082820183811015610c9a576040805162461bcd60e51b815260206004820152601b60248201527f536166654d6174683a206164646974696f6e206f766572666c6f770000000000604482015290519081900360640190fd5b6008546040517f23b872dd0000000000000000000000000000000000000000000000000000000081526000916001600160a01b0316906323b872dd906119aa908690309087906004016123a7565b602060405180830381600087803b1580156119c457600080fd5b505af11580156119d8573d6000803e3d6000fd5b505050506040513d601f19601f820116820180604052508101906119fc919061218f565b905080611a1b5760405162461bcd60e51b81526004016108ff906124c7565b600a54611a289083611902565b600a55611a358383611d87565b7f06239653922ac7bea6aa2b19dc486b9361821d37712eb796adfd38d81de278ca8383600a54604051611a6a93929190612386565b60405180910390a1505050565b6000600a54611a9183600b5461190290919063ffffffff16565b1115611aaf5760405162461bcd60e51b81526004016108ff90612492565b6000600a5411611ad15760405162461bcd60e51b81526004016108ff9061245b565b6000611b0c600a54611b066a084595161401484a000000606402611b0087600b5461190290919063ffffffff16565b90611e77565b90611ed0565b905060006b024306c4097859c43c000000821015611b3457611b2d82611f12565b9050611b40565b611b3d82611f39565b90505b611b55816a295be96e64066972000000611fdd565b90506000611b6b6301e13380611b068885611e77565b9050611b876b033b2e3c9fd0803ce8000000611b068784611e77565b9695505050505050565b611b99612059565b506001600160a01b0384166000908152600c602090815260409182902082516060810184528154815260018201549281018390526002909101549281019290925215611bf75760405162461bcd60e51b81526004016108ff906124fe565b600b54611c049084611902565b600a541015611c255760405162461bcd60e51b81526004016108ff90612533565b6000611c318585611a77565b848352602080840187815260408086018781526001600160a01b038b166000908152600c909452922085518155905160018201559051600290910155600b54909150611c7d9085611902565b600b556008546040517f23b872dd0000000000000000000000000000000000000000000000000000000081526000916001600160a01b0316906323b872dd90611cce908a90309087906004016123a7565b602060405180830381600087803b158015611ce857600080fd5b505af1158015611cfc573d6000803e3d6000fd5b505050506040513d601f19601f82011682018060405250810190611d20919061218f565b905080611d3f5760405162461bcd60e51b81526004016108ff906124c7565b7f1cd728a6e764ed0dcddb6e5b88d736a4a8d2a0d420ca373588f7a1109e18663f878684600b54604051611d7694939291906123cb565b60405180910390a150505050505050565b6001600160a01b038216611de2576040805162461bcd60e51b815260206004820152601f60248201527f45524332303a206d696e7420746f20746865207a65726f206164647265737300604482015290519081900360640190fd5b611dee600083836114c5565b600254611dfb9082611902565b6002556001600160a01b038216600090815260208190526040902054611e219082611902565b6001600160a01b0383166000818152602081815260408083209490945583518581529351929391927fddf252ad1be2c89b69c2b068fc378daa952ba7f163c4a11628f55a4df523b3ef9281900390910190a35050565b600082611e86575060006108d1565b82820282848281611e9357fe5b0414610c9a5760405162461bcd60e51b815260040180806020018281038252602181526020018061279b6021913960400191505060405180910390fd5b6000610c9a83836040518060400160405280601a81526020017f536166654d6174683a206469766973696f6e206279207a65726f000000000000815250611ff4565b60006108d16b024306c4097859c43c000000611b06846af8277896582678ac000000611e77565b600080611f8c611f616b033b2e3c9fd0803ce80000006b024306c4097859c43c0000006115d2565b611b06611f7a866b024306c4097859c43c0000006115d2565b6a084595161401484a00000090611e77565b9050610c9a611fcb6a084595161401484a000000611b06611fc46b04d8c55aefb8c05b5c0000006af8277896582678ac0000006115d2565b8590611e77565b6af8277896582678ac00000090611902565b600081831015611fed5781610c9a565b5090919050565b600081836120435760405162461bcd60e51b81526020600482018181528351602484015283519092839260449091019190850190808383600083156118bf5781810151838201526020016118a7565b50600083858161204f57fe5b0495945050505050565b60405180606001604052806000815260200160008152602001600081525090565b60006020828403121561208b578081fd5b8135610c9a816126d2565b6000602082840312156120a7578081fd5b8151610c9a816126d2565b600080604083850312156120c4578081fd5b82356120cf816126d2565b915060208301356120df816126d2565b809150509250929050565b6000806000606084860312156120fe578081fd5b8335612109816126d2565b92506020840135612119816126d2565b929592945050506040919091013590565b6000806040838503121561213c578182fd5b8235612147816126d2565b946020939093013593505050565b6000806000806080858703121561216a578081fd5b8435612175816126d2565b966020860135965060408601359560600135945092505050565b6000602082840312156121a0578081fd5b81518015158114610c9a578182fd5b6000602082840312156121c0578081fd5b815167ffffffffffffffff808211156121d7578283fd5b818401915084601f8301126121ea578283fd5b8151818111156121f657fe5b60405160207fffffffffffffffffffffffffffffffffffffffffffffffffffffffffffffffe0601f840116820101818110848211171561223257fe5b604052818152838201602001871015612249578485fd5b611b878260208301602087016126a6565b60006020828403121561226b578081fd5b5035919050565b60008060408385031215612284578182fd5b50508035926020909101359150565b6000806000606084860312156122a7578283fd5b505081359360208301359350604090920135919050565b6000815180845260208085019450808401835b838110156122f65781516001600160a01b0316875295820195908201906001016122d1565b509495945050505050565b6004811061230b57fe5b9052565b600081518084526123278160208601602086016126a6565b601f017fffffffffffffffffffffffffffffffffffffffffffffffffffffffffffffffe0169290920160200192915050565b6001600160a01b0391909116815260200190565b6001600160a01b03929092168252602082015260400190565b6001600160a01b039390931683526020830191909152604082015260600190565b6001600160a01b039384168152919092166020820152604081019190915260600190565b6001600160a01b0394909416845260208401929092526040830152606082015260800190565b901515815260200190565b602081016108d18284612301565b600060208252610c9a602083018461230f565b600060a0825261243060a083018861230f565b905061243f6020830187612301565b8460408301528360608301528260808301529695505050505050565b60208082526011908201527f54686520706f6f6c20697320656d707479000000000000000000000000000000604082015260600190565b6020808252818101527f526571756972696e67206d6f7265207468616e20746865726520657869737473604082015260600190565b6020808252601d908201527f4661696c656420746f207472616e736665722044414920746f6b656e73000000604082015260600190565b6020808252818101527f54686520706f6c69637920686f6c64657220616c726561647920657869737473604082015260600190565b6020808252601e908201527f4e6f7420656e6f75676820617661696c61626c65206c69717569646974790000604082015260600190565b6020808252601c908201527f4661696c656420746f20617070726f76652044414920746f6b656e7300000000604082015260600190565b6020808252603f908201527f54686520616d6f756e7420746f2062652077697468647261776e20697320677260408201527f6561746572207468616e20746865206465706f736974656420616d6f756e7400606082015260800190565b90815260200190565b60008382526040602083015261262060408301846122be565b949350505050565b6000848252602060608184015261264260608401866122be565b8381036040850152845180825282860191830190845b8181101561267457835183529284019291840191600101612658565b509098975050505050505050565b9283526020830191909152604082015260600190565b60ff91909116815260200190565b60005b838110156126c15781810151838201526020016126a9565b838111156114dc5750506000910152565b6001600160a01b0381168114610b7957600080fdfe45524332303a207472616e7366657220746f20746865207a65726f206164647265737345524332303a206275726e20616d6f756e7420657863656564732062616c616e63654f776e61626c653a206e6577206f776e657220697320746865207a65726f206164647265737345524332303a20617070726f766520746f20746865207a65726f206164647265737345524332303a207472616e7366657220616d6f756e7420657863656564732062616c616e6365536166654d6174683a206d756c7469706c69636174696f6e206f766572666c6f7745524332303a207472616e7366657220616d6f756e74206578636565647320616c6c6f77616e636545524332303a206275726e2066726f6d20746865207a65726f206164647265737345524332303a207472616e736665722066726f6d20746865207a65726f206164647265737345524332303a20617070726f76652066726f6d20746865207a65726f206164647265737345524332303a2064656372656173656420616c6c6f77616e63652062656c6f77207a65726fa26469706673582212204c43ae294fda8ec10f64f9647ef99d00b811d1d1e4a9b0f6dd20c9644074dc6b64736f6c63430007040033",
  "immutableReferences": {},
  "source": "// SPDX-License-Identifier: MIT\npragma solidity ^0.7.4;\npragma experimental ABIEncoderV2;\n\nimport \"@openzeppelin/contracts/access/Ownable.sol\";\nimport \"@openzeppelin/contracts/token/ERC20/ERC20.sol\";\nimport \"@openzeppelin/contracts/token/ERC20/IERC20.sol\";\nimport \"@openzeppelin/contracts/math/SafeMath.sol\";\nimport \"@openzeppelin/contracts/math/Math.sol\";\n\nimport \"./interfaces/IPolicyBook.sol\";\nimport \"./interfaces/IPolicyBookFabric.sol\";\n\nimport \"./ContractsRegistry.sol\";\n\ncontract PolicyBook is IPolicyBook, ERC20, Ownable {\n  using SafeMath for uint256;\n  using Math for uint256;  \n\n  uint256 constant private MAX_INT = 2**256 - 1;\n\n  ContractsRegistry public contractsRegistry;\n\n  address public override insuranceContractAddress;\n  IPolicyBookFabric.ContractType public override contractType;\n  \n  IERC20 public daiToken;\n  address public bmiDaiStakingAddress;\n\n  uint256 public totalLiquidity;\n  uint256 public totalCoverTokens;\n\n  struct PolicyHolder {\n    uint256 coverTokens;\n    uint256 durationSeconds;\n    uint256 maxDaiTokens;\n  }\n\n  mapping(address => PolicyHolder) public policyHolders;\n\n  event AddLiquidity(address _liquidityHolder, uint256 _liqudityAmount, uint256 _newTotalLiquidity);\n  event WithdrawLiquidity(address _liquidityHolder, uint256 _tokensToWithdraw, uint256 _newTotalLiquidity);\n  event BuyPolicy(address _policyHolder, uint256 _coverTokens, uint256 _price, uint256 _newTotalCoverTokens);\n\n  constructor(    \n    address _insuranceContract,\n    IPolicyBookFabric.ContractType _contractType,    \n    string memory _description,\n    string memory _projectSymbol\n  ) ERC20(_description, string(abi.encodePacked(\"bmiDAI\", _projectSymbol))) {    \n    insuranceContractAddress = _insuranceContract;\n    contractType = _contractType;    \n  }\n\n  function initRegistry(ContractsRegistry _contractsRegistry) external onlyOwner {\n    contractsRegistry = _contractsRegistry;\n    \n    daiToken = IERC20(_contractsRegistry.getContract(_contractsRegistry.getDAIName()));\n    bmiDaiStakingAddress = contractsRegistry.getContract(contractsRegistry.getBmiDAIStakingName());\n  }\n\n  function approveAllDaiTokensForStaking() external onlyOwner {\n    \n    bool _success = daiToken.approve(bmiDaiStakingAddress, MAX_INT);\n\n    require(_success, \"Failed to approve DAI tokens\");\n  }\n\n  receive() external payable {}\n\n  function quoteStrategy() external view override returns (address _quoteStrategy) {\n    return address(0);\n  }\n\n  function shieldAssets(uint256 _offset, uint256 _limit)\n    external\n    view\n    override\n    returns (uint256 _shieldAssetsCount, address[] memory _shieldAssets)\n  {\n    address[] memory temp;\n    return (0, temp);\n  }\n\n  function shieldAssetsWithBalance(uint256 _offset, uint256 _limit)\n    external\n    view\n    override\n    returns (\n      uint256 _shieldAssetsCount,\n      address[] memory _shieldAssets,\n      uint256[] memory _shieldAssetBalance\n    )\n  {\n    address[] memory temp1;\n    uint256[] memory temp2;\n    return (0, temp1, temp2);\n  }\n\n  function shieldAssetsCount() external view override returns (uint256 _shieldAssetsCount) {\n    return 0;\n  }\n\n  function addShieldTokens(address _tokenAddress, uint256 _tokensAmount) external override returns (bool _success) {\n    return false;\n  }\n\n  function buyPolicy(\n    uint256 _durationSeconds,\n    uint256 _coverTokens,\n    uint256 _maxDaiTokens\n  ) external override {\n    _buyPolicyFor(msg.sender, _durationSeconds, _coverTokens, _maxDaiTokens);\n  }\n\n  function buyPolicyFor(\n    address _policyHolderAddr,\n    uint256 _durationSeconds,\n    uint256 _coverTokens,\n    uint256 _maxDaiTokens\n  ) external override {\n    _buyPolicyFor(_policyHolderAddr, _durationSeconds, _coverTokens, _maxDaiTokens);\n  }\n\n  function _buyPolicyFor(\n    address _policyHolderAddr,\n    uint256 _durationSeconds,\n    uint256 _coverTokens,\n    uint256 _maxDaiTokens\n  ) internal {\n    PolicyHolder memory _policyHolder = policyHolders[_policyHolderAddr];\n    require(_policyHolder.durationSeconds == 0, \"The policy holder already exists\");\n    require(totalLiquidity >= totalCoverTokens.add(_coverTokens), \"Not enough available liquidity\");\n\n    uint256 _price = _getQuote(_durationSeconds, _coverTokens);\n\n    _policyHolder.coverTokens = _coverTokens;\n    _policyHolder.durationSeconds = _durationSeconds;\n    _policyHolder.maxDaiTokens = _maxDaiTokens;\n\n    policyHolders[_policyHolderAddr] = _policyHolder;\n    totalCoverTokens = totalCoverTokens.add(_coverTokens);\n\n    bool _success = daiToken.transferFrom(_policyHolderAddr, address(this), _price);\n    require(_success, \"Failed to transfer DAI tokens\");\n\n    emit BuyPolicy(_policyHolderAddr, _coverTokens, _price, totalCoverTokens);\n  }\n\n  function addLiquidity(uint256 _liqudityAmount) external override {\n    _addLiquidityFor(msg.sender, _liqudityAmount);\n  }\n\n  function addLiquidityFor(address _liquidityHolderAddr, uint256 _liqudityAmount) external override {\n    _addLiquidityFor(_liquidityHolderAddr, _liqudityAmount);\n  }\n\n  function _addLiquidityFor(address _liquidityHolderAddr, uint256 _liqudityAmount) internal {\n    bool _success = daiToken.transferFrom(_liquidityHolderAddr, address(this), _liqudityAmount);\n    require(_success, \"Failed to transfer DAI tokens\");\n\n    totalLiquidity = totalLiquidity.add(_liqudityAmount);\n    _mint(_liquidityHolderAddr, _liqudityAmount);\n\n    emit AddLiquidity(_liquidityHolderAddr, _liqudityAmount, totalLiquidity);\n  }\n\n  function withdrawLiquidity(uint256 _tokensToWithdraw) external override {\n    require(\n      balanceOf(msg.sender) >= _tokensToWithdraw,\n      \"The amount to be withdrawn is greater than the deposited amount\"\n    );\n    require(totalLiquidity.sub(_tokensToWithdraw) >= totalCoverTokens, \"Not enough available liquidity\");\n\n    bool _success = daiToken.transfer(msg.sender, _tokensToWithdraw);\n    require(_success, \"Failed to transfer DAI tokens\");\n\n    totalLiquidity = totalLiquidity.sub(_tokensToWithdraw);\n    _burn(msg.sender, _tokensToWithdraw);\n\n    emit WithdrawLiquidity(msg.sender, _tokensToWithdraw, totalLiquidity);\n  }\n\n  function _calculateInterest(address _policyHolder) internal view returns (uint256) {\n    return 0;\n  }\n\n  function rewardForUnclaimedExpiredPolicy(uint256 _policyId) external override {}\n\n  function stats()\n    external\n    view\n    override\n    returns (\n      string memory _name,\n      IPolicyBookFabric.ContractType _contractType,\n      uint256 _maxCapacities,\n      uint256 _totalDaiLiquidity,\n      uint256 _annualProfitYields\n    )\n  {\n    // TODO APY\n    return (name(), contractType, totalLiquidity - totalCoverTokens, totalLiquidity, 0);\n  }\n\n  uint256 public constant SECONDS_IN_THE_YEAR = 365 * 24 * 60 * 60; // 365 days * 24 hours * 60 minutes * 60 seconds\n  uint256 public constant PRECISION = 10**25;\n  uint256 public constant PERCENTAGE_100 = 100 * PRECISION;\n\n  uint256 public constant MINIMUM_COST_PERCENTAGE = 5 * PRECISION;\n  uint256 public constant RISKY_ASSET_THRESHOLD_PERCENTAGE = 70 * PRECISION;\n  uint256 public constant MAXIMUM_COST_NOT_RISKY_PERCENTAGE = 30 * PRECISION;\n  uint256 public constant MAXIMUM_COST_100_UTILIZATION_PERCENTAGE = 150 * PRECISION;\n\n  function calculateWhenNotRisky(uint256 _utilizationRatioPercentage) private pure returns (uint256) {\n    return (_utilizationRatioPercentage.mul(MAXIMUM_COST_NOT_RISKY_PERCENTAGE)).div(RISKY_ASSET_THRESHOLD_PERCENTAGE);\n  }\n\n  function calculateWhenIsRisky(uint256 _utilizationRatioPercentage) private pure returns (uint256) {\n    uint256 riskyRelation =\n      (PRECISION.mul(_utilizationRatioPercentage.sub(RISKY_ASSET_THRESHOLD_PERCENTAGE))).div(\n        (PERCENTAGE_100.sub(RISKY_ASSET_THRESHOLD_PERCENTAGE))\n      );\n\n    return\n      MAXIMUM_COST_NOT_RISKY_PERCENTAGE.add(\n        (riskyRelation.mul(MAXIMUM_COST_100_UTILIZATION_PERCENTAGE.sub(MAXIMUM_COST_NOT_RISKY_PERCENTAGE))).div(\n          PRECISION\n        )\n      );\n  }\n\n  function getQuote(uint256 _durationSeconds, uint256 _tokens) external view override returns (uint256 _daiTokens) {\n    _daiTokens = _getQuote(_durationSeconds, _tokens);\n  }\n\n  function _getQuote(uint256 _durationSeconds, uint256 _tokens) internal view returns (uint256) {\n    require(totalCoverTokens.add(_tokens) <= totalLiquidity, \"Requiring more than there exists\");\n    require(totalLiquidity > 0, \"The pool is empty\");\n\n    uint256 utilizationRatioPercentage = ((totalCoverTokens.add(_tokens)).mul(PERCENTAGE_100)).div(totalLiquidity);\n\n    uint256 annualInsuranceCostPercentage;\n\n    if (utilizationRatioPercentage < RISKY_ASSET_THRESHOLD_PERCENTAGE) {\n      annualInsuranceCostPercentage = calculateWhenNotRisky(utilizationRatioPercentage);\n    } else {\n      annualInsuranceCostPercentage = calculateWhenIsRisky(utilizationRatioPercentage);\n    }\n\n    annualInsuranceCostPercentage = Math.max(annualInsuranceCostPercentage, MINIMUM_COST_PERCENTAGE);\n\n    uint256 actualInsuranceCostPercentage = \n      (_durationSeconds.mul(annualInsuranceCostPercentage)).div(SECONDS_IN_THE_YEAR);\n\n    return (_tokens.mul(actualInsuranceCostPercentage)).div(PERCENTAGE_100);\n  }\n}\n",
  "sourcePath": "/home/artem/Projects/Distributed_Lab/Applicature/bridgemutual-core/contracts/PolicyBook.sol",
  "compiler": {
    "name": "solc",
    "version": "0.7.4+commit.3f05b770.Emscripten.clang"
  },
  "schemaVersion": "3.3.3",
  "updatedAt": "2021-01-22T16:22:28.223Z",
  "networkType": "ethereum",
  "devdoc": {
    "kind": "dev",
    "methods": {
      "addLiquidity(uint256)": {
        "params": {
          "_liqudityAmount": "is amount of DAI tokens to secure"
        }
      },
      "addLiquidityFor(address,uint256)": {
        "params": {
          "_liqudityAmount": "is amount of DAI tokens to secure",
          "_liquidityHolderAddr": "is address of address to assign cover"
        }
      },
      "addShieldTokens(address,uint256)": {
        "params": {
          "_tokenAddress": "is address of reward token to add",
          "_tokensAmount": "is max amount of reward to operate on"
        },
        "returns": {
          "_success": "is indicator if purchase is successful, it will throw exception if unsuccessful"
        }
      },
      "allowance(address,address)": {
        "details": "See {IERC20-allowance}."
      },
      "approve(address,uint256)": {
        "details": "See {IERC20-approve}. Requirements: - `spender` cannot be the zero address."
      },
      "balanceOf(address)": {
        "details": "See {IERC20-balanceOf}."
      },
      "buyPolicy(uint256,uint256,uint256)": {
        "params": {
          "_coverTokens": "is number of tokens to cover",
          "_durationSeconds": "is number of seconds to cover",
          "_maxDaiTokens": "is number of DAI to spend"
        }
      },
      "buyPolicyFor(address,uint256,uint256,uint256)": {
        "params": {
          "_coverTokens": "is number of tokens to cover",
          "_durationSeconds": "is number of seconds to cover",
          "_maxDaiTokens": "is number of DAI to spend",
          "_policyHolderAddr": "is address of address to assign cover"
        }
      },
      "decimals()": {
        "details": "Returns the number of decimals used to get its user representation. For example, if `decimals` equals `2`, a balance of `505` tokens should be displayed to a user as `5,05` (`505 / 10 ** 2`). Tokens usually opt for a value of 18, imitating the relationship between Ether and Wei. This is the value {ERC20} uses, unless {_setupDecimals} is called. NOTE: This information is only used for _display_ purposes: it in no way affects any of the arithmetic of the contract, including {IERC20-balanceOf} and {IERC20-transfer}."
      },
      "decreaseAllowance(address,uint256)": {
        "details": "Atomically decreases the allowance granted to `spender` by the caller. This is an alternative to {approve} that can be used as a mitigation for problems described in {IERC20-approve}. Emits an {Approval} event indicating the updated allowance. Requirements: - `spender` cannot be the zero address. - `spender` must have allowance for the caller of at least `subtractedValue`."
      },
      "getQuote(uint256,uint256)": {
        "params": {
          "_durationSeconds": "is number of seconds to cover",
          "_tokens": "is number of tokens to cover"
        },
        "returns": {
          "_daiTokens": "is amount of DAI policy costs"
        }
      },
      "increaseAllowance(address,uint256)": {
        "details": "Atomically increases the allowance granted to `spender` by the caller. This is an alternative to {approve} that can be used as a mitigation for problems described in {IERC20-approve}. Emits an {Approval} event indicating the updated allowance. Requirements: - `spender` cannot be the zero address."
      },
      "name()": {
        "details": "Returns the name of the token."
      },
      "owner()": {
        "details": "Returns the address of the current owner."
      },
      "quoteStrategy()": {
        "returns": {
          "_quoteStrategy": "is address of Quote strategy contract used to calculate quote"
        }
      },
      "renounceOwnership()": {
        "details": "Leaves the contract without owner. It will not be possible to call `onlyOwner` functions anymore. Can only be called by the current owner. NOTE: Renouncing ownership will leave the contract without an owner, thereby removing any functionality that is only available to the owner."
      },
      "rewardForUnclaimedExpiredPolicy(uint256)": {
        "params": {
          "_policyId": "is id of policy to get reward for, reward will be sent to policy holder"
        }
      },
      "shieldAssets(uint256,uint256)": {
        "params": {
          "_limit": "is number of policy books to returns from _offset",
          "_offset": "is starting item in array to return array from"
        },
        "returns": {
          "_shieldAssets": "is addresses of shield assets, that will be distributed to Policy givers",
          "_shieldAssetsCount": "is number of added shield assets"
        }
      },
      "shieldAssetsCount()": {
        "returns": {
          "_shieldAssetsCount": "is number of added shield assets"
        }
      },
      "shieldAssetsWithBalance(uint256,uint256)": {
        "params": {
          "_limit": "is number of policy books to returns from _offset",
          "_offset": "is starting item in array to return array from"
        },
        "returns": {
          "_shieldAssetBalance": "is tokens amount of shield assets allocated to Policy Book,  to get specific shield asset balance lookup _shieldAssetBalances by same index as of shield asset",
          "_shieldAssets": "is addresses of shield assets, that will be distributed to Policy givers",
          "_shieldAssetsCount": "is number of added shield assets"
        }
      },
      "stats()": {
        "returns": {
          "_annualProfitYields": "is its APY",
          "_contractType": "is a type of insured contract",
          "_maxCapacities": "is a max token amount that a user can buy",
          "_name": "is the name of PolicyBook",
          "_totalDaiLiquidity": "is PolicyBook's liquidity"
        }
      },
      "symbol()": {
        "details": "Returns the symbol of the token, usually a shorter version of the name."
      },
      "totalSupply()": {
        "details": "See {IERC20-totalSupply}."
      },
      "transfer(address,uint256)": {
        "details": "See {IERC20-transfer}. Requirements: - `recipient` cannot be the zero address. - the caller must have a balance of at least `amount`."
      },
      "transferFrom(address,address,uint256)": {
        "details": "See {IERC20-transferFrom}. Emits an {Approval} event indicating the updated allowance. This is not required by the EIP. See the note at the beginning of {ERC20}. Requirements: - `sender` and `recipient` cannot be the zero address. - `sender` must have a balance of at least `amount`. - the caller must have allowance for ``sender``'s tokens of at least `amount`."
      },
      "transferOwnership(address)": {
        "details": "Transfers ownership of the contract to a new account (`newOwner`). Can only be called by the current owner."
      },
      "withdrawLiquidity(uint256)": {
        "params": {
          "_tokensToWithdraw": "is amount of DAI tokens to withdraw"
        }
      }
    },
    "stateVariables": {
      "contractType": {
        "return": "_type is type of contract"
      },
      "insuranceContractAddress": {
        "return": "_contract is address of covered contract"
      }
    },
    "version": 1
  },
  "userdoc": {
    "kind": "user",
    "methods": {
      "addLiquidity(uint256)": {
        "notice": "Let user to add liquidity by supplying DAI, access: ANY"
      },
      "addLiquidityFor(address,uint256)": {
        "notice": "Let user to add liqiudity for another user by supplying DAI, access: ANY"
      },
      "addShieldTokens(address,uint256)": {
        "notice": "Adds shield tokens to contract, access: ANY"
      },
      "buyPolicy(uint256,uint256,uint256)": {
        "notice": "Let user to buy policy by supplying DAI, access: ANY"
      },
      "buyPolicyFor(address,uint256,uint256,uint256)": {
        "notice": "Let user to buy policy for another user by supplying DAI, access: ANY"
      },
      "contractType()": {
        "notice": "Returns type of contract this PolicyBook covers, access: ANY"
      },
      "getQuote(uint256,uint256)": {
        "notice": "Let user to calculate policy cost in DAI, access: ANY"
      },
      "insuranceContractAddress()": {
        "notice": "Returns address of contract this PolicyBook covers, access: ANY"
      },
      "quoteStrategy()": {
        "notice": "Returns quote strategy defined during creation of PolicyBook, access: ANY"
      },
      "rewardForUnclaimedExpiredPolicy(uint256)": {
        "notice": "Let user to claim rewards for unclaimed policy cost in DAI, access: ANY"
      },
      "shieldAssets(uint256,uint256)": {
        "notice": "Returns list of shield assets added to PolicyBook, access: ANY"
      },
      "shieldAssetsCount()": {
        "notice": "Returns number of shield assets added, access: ANY"
      },
      "shieldAssetsWithBalance(uint256,uint256)": {
        "notice": "Returns list of shield assets added with tokens amount allocated to Policy Book, access: ANY"
      },
      "stats()": {
        "notice": "Getting stats, access: ANY"
      },
      "withdrawLiquidity(uint256)": {
        "notice": "Let user to withdraw deposited liqiudity, access: ANY"
      }
    },
    "version": 1
  }
}