{
  "contractName": "PolicyBook",
  "abi": [
    {
      "inputs": [
        {
          "internalType": "address",
          "name": "_insuranceContract",
          "type": "address"
        },
        {
          "internalType": "enum IPolicyBookFabric.ContractType",
          "name": "_contractType",
          "type": "uint8"
        },
        {
          "internalType": "address",
          "name": "_daiAddr",
          "type": "address"
        },
        {
          "internalType": "string",
          "name": "_description",
          "type": "string"
        },
        {
          "internalType": "string",
          "name": "_projectSymbol",
          "type": "string"
        }
      ],
      "stateMutability": "nonpayable",
      "type": "constructor"
    },
    {
      "anonymous": false,
      "inputs": [
        {
          "indexed": false,
          "internalType": "address",
          "name": "_liquidityHolder",
          "type": "address"
        },
        {
          "indexed": false,
          "internalType": "uint256",
          "name": "_liqudityAmount",
          "type": "uint256"
        },
        {
          "indexed": false,
          "internalType": "uint256",
          "name": "_newTotalLiquidity",
          "type": "uint256"
        }
      ],
      "name": "AddLiquidity",
      "type": "event"
    },
    {
      "anonymous": false,
      "inputs": [
        {
          "indexed": true,
          "internalType": "address",
          "name": "owner",
          "type": "address"
        },
        {
          "indexed": true,
          "internalType": "address",
          "name": "spender",
          "type": "address"
        },
        {
          "indexed": false,
          "internalType": "uint256",
          "name": "value",
          "type": "uint256"
        }
      ],
      "name": "Approval",
      "type": "event"
    },
    {
      "anonymous": false,
      "inputs": [
        {
          "indexed": false,
          "internalType": "address",
          "name": "_policyHolder",
          "type": "address"
        },
        {
          "indexed": false,
          "internalType": "uint256",
          "name": "_coverTokens",
          "type": "uint256"
        },
        {
          "indexed": false,
          "internalType": "uint256",
          "name": "_price",
          "type": "uint256"
        },
        {
          "indexed": false,
          "internalType": "uint256",
          "name": "_newTotalCoverTokens",
          "type": "uint256"
        }
      ],
      "name": "BuyPolicy",
      "type": "event"
    },
    {
      "anonymous": false,
      "inputs": [
        {
          "indexed": true,
          "internalType": "address",
          "name": "from",
          "type": "address"
        },
        {
          "indexed": true,
          "internalType": "address",
          "name": "to",
          "type": "address"
        },
        {
          "indexed": false,
          "internalType": "uint256",
          "name": "value",
          "type": "uint256"
        }
      ],
      "name": "Transfer",
      "type": "event"
    },
    {
      "anonymous": false,
      "inputs": [
        {
          "indexed": false,
          "internalType": "address",
          "name": "_liquidityHolder",
          "type": "address"
        },
        {
          "indexed": false,
          "internalType": "uint256",
          "name": "_tokensToWithdraw",
          "type": "uint256"
        },
        {
          "indexed": false,
          "internalType": "uint256",
          "name": "_newTotalLiquidity",
          "type": "uint256"
        }
      ],
      "name": "WithdrawLiquidity",
      "type": "event"
    },
    {
      "inputs": [],
      "name": "MAXIMUM_COST_100_UTILIZATION_PERCENTAGE",
      "outputs": [
        {
          "internalType": "uint256",
          "name": "",
          "type": "uint256"
        }
      ],
      "stateMutability": "view",
      "type": "function",
      "constant": true
    },
    {
      "inputs": [],
      "name": "MAXIMUM_COST_NOT_RISKY_PERCENTAGE",
      "outputs": [
        {
          "internalType": "uint256",
          "name": "",
          "type": "uint256"
        }
      ],
      "stateMutability": "view",
      "type": "function",
      "constant": true
    },
    {
      "inputs": [],
      "name": "MINIMUM_COST_PERCENTAGE",
      "outputs": [
        {
          "internalType": "uint256",
          "name": "",
          "type": "uint256"
        }
      ],
      "stateMutability": "view",
      "type": "function",
      "constant": true
    },
    {
      "inputs": [],
      "name": "PERCENTAGE_100",
      "outputs": [
        {
          "internalType": "uint256",
          "name": "",
          "type": "uint256"
        }
      ],
      "stateMutability": "view",
      "type": "function",
      "constant": true
    },
    {
      "inputs": [],
      "name": "PRECISION",
      "outputs": [
        {
          "internalType": "uint256",
          "name": "",
          "type": "uint256"
        }
      ],
      "stateMutability": "view",
      "type": "function",
      "constant": true
    },
    {
      "inputs": [],
      "name": "RISKY_ASSET_THRESHOLD_PERCENTAGE",
      "outputs": [
        {
          "internalType": "uint256",
          "name": "",
          "type": "uint256"
        }
      ],
      "stateMutability": "view",
      "type": "function",
      "constant": true
    },
    {
      "inputs": [],
      "name": "SECONDS_IN_THE_YEAR",
      "outputs": [
        {
          "internalType": "uint256",
          "name": "",
          "type": "uint256"
        }
      ],
      "stateMutability": "view",
      "type": "function",
      "constant": true
    },
    {
      "inputs": [
        {
          "internalType": "address",
          "name": "owner",
          "type": "address"
        },
        {
          "internalType": "address",
          "name": "spender",
          "type": "address"
        }
      ],
      "name": "allowance",
      "outputs": [
        {
          "internalType": "uint256",
          "name": "",
          "type": "uint256"
        }
      ],
      "stateMutability": "view",
      "type": "function",
      "constant": true
    },
    {
      "inputs": [
        {
          "internalType": "address",
          "name": "spender",
          "type": "address"
        },
        {
          "internalType": "uint256",
          "name": "amount",
          "type": "uint256"
        }
      ],
      "name": "approve",
      "outputs": [
        {
          "internalType": "bool",
          "name": "",
          "type": "bool"
        }
      ],
      "stateMutability": "nonpayable",
      "type": "function"
    },
    {
      "inputs": [
        {
          "internalType": "address",
          "name": "account",
          "type": "address"
        }
      ],
      "name": "balanceOf",
      "outputs": [
        {
          "internalType": "uint256",
          "name": "",
          "type": "uint256"
        }
      ],
      "stateMutability": "view",
      "type": "function",
      "constant": true
    },
    {
      "inputs": [],
      "name": "contractType",
      "outputs": [
        {
          "internalType": "enum IPolicyBookFabric.ContractType",
          "name": "",
          "type": "uint8"
        }
      ],
      "stateMutability": "view",
      "type": "function",
      "constant": true
    },
    {
      "inputs": [],
      "name": "decimals",
      "outputs": [
        {
          "internalType": "uint8",
          "name": "",
          "type": "uint8"
        }
      ],
      "stateMutability": "view",
      "type": "function",
      "constant": true
    },
    {
      "inputs": [
        {
          "internalType": "address",
          "name": "spender",
          "type": "address"
        },
        {
          "internalType": "uint256",
          "name": "subtractedValue",
          "type": "uint256"
        }
      ],
      "name": "decreaseAllowance",
      "outputs": [
        {
          "internalType": "bool",
          "name": "",
          "type": "bool"
        }
      ],
      "stateMutability": "nonpayable",
      "type": "function"
    },
    {
      "inputs": [
        {
          "internalType": "address",
          "name": "spender",
          "type": "address"
        },
        {
          "internalType": "uint256",
          "name": "addedValue",
          "type": "uint256"
        }
      ],
      "name": "increaseAllowance",
      "outputs": [
        {
          "internalType": "bool",
          "name": "",
          "type": "bool"
        }
      ],
      "stateMutability": "nonpayable",
      "type": "function"
    },
    {
      "inputs": [],
      "name": "insuranceContractAddress",
      "outputs": [
        {
          "internalType": "address",
          "name": "",
          "type": "address"
        }
      ],
      "stateMutability": "view",
      "type": "function",
      "constant": true
    },
    {
      "inputs": [],
      "name": "name",
      "outputs": [
        {
          "internalType": "string",
          "name": "",
          "type": "string"
        }
      ],
      "stateMutability": "view",
      "type": "function",
      "constant": true
    },
    {
      "inputs": [
        {
          "internalType": "address",
          "name": "",
          "type": "address"
        }
      ],
      "name": "policyHolders",
      "outputs": [
        {
          "internalType": "uint256",
          "name": "coverTokens",
          "type": "uint256"
        },
        {
          "internalType": "uint256",
          "name": "durationSeconds",
          "type": "uint256"
        },
        {
          "internalType": "uint256",
          "name": "maxDaiTokens",
          "type": "uint256"
        }
      ],
      "stateMutability": "view",
      "type": "function",
      "constant": true
    },
    {
      "inputs": [],
      "name": "symbol",
      "outputs": [
        {
          "internalType": "string",
          "name": "",
          "type": "string"
        }
      ],
      "stateMutability": "view",
      "type": "function",
      "constant": true
    },
    {
      "inputs": [],
      "name": "totalCoverTokens",
      "outputs": [
        {
          "internalType": "uint256",
          "name": "",
          "type": "uint256"
        }
      ],
      "stateMutability": "view",
      "type": "function",
      "constant": true
    },
    {
      "inputs": [],
      "name": "totalLiquidity",
      "outputs": [
        {
          "internalType": "uint256",
          "name": "",
          "type": "uint256"
        }
      ],
      "stateMutability": "view",
      "type": "function",
      "constant": true
    },
    {
      "inputs": [],
      "name": "totalSupply",
      "outputs": [
        {
          "internalType": "uint256",
          "name": "",
          "type": "uint256"
        }
      ],
      "stateMutability": "view",
      "type": "function",
      "constant": true
    },
    {
      "inputs": [
        {
          "internalType": "address",
          "name": "recipient",
          "type": "address"
        },
        {
          "internalType": "uint256",
          "name": "amount",
          "type": "uint256"
        }
      ],
      "name": "transfer",
      "outputs": [
        {
          "internalType": "bool",
          "name": "",
          "type": "bool"
        }
      ],
      "stateMutability": "nonpayable",
      "type": "function"
    },
    {
      "inputs": [
        {
          "internalType": "address",
          "name": "sender",
          "type": "address"
        },
        {
          "internalType": "address",
          "name": "recipient",
          "type": "address"
        },
        {
          "internalType": "uint256",
          "name": "amount",
          "type": "uint256"
        }
      ],
      "name": "transferFrom",
      "outputs": [
        {
          "internalType": "bool",
          "name": "",
          "type": "bool"
        }
      ],
      "stateMutability": "nonpayable",
      "type": "function"
    },
    {
      "stateMutability": "payable",
      "type": "receive",
      "payable": true
    },
    {
      "inputs": [],
      "name": "quoteStrategy",
      "outputs": [
        {
          "internalType": "address",
          "name": "_quoteStrategy",
          "type": "address"
        }
      ],
      "stateMutability": "view",
      "type": "function",
      "constant": true
    },
    {
      "inputs": [
        {
          "internalType": "uint256",
          "name": "_offset",
          "type": "uint256"
        },
        {
          "internalType": "uint256",
          "name": "_limit",
          "type": "uint256"
        }
      ],
      "name": "shieldAssets",
      "outputs": [
        {
          "internalType": "uint256",
          "name": "_shieldAssetsCount",
          "type": "uint256"
        },
        {
          "internalType": "address[]",
          "name": "_shieldAssets",
          "type": "address[]"
        }
      ],
      "stateMutability": "view",
      "type": "function",
      "constant": true
    },
    {
      "inputs": [
        {
          "internalType": "uint256",
          "name": "_offset",
          "type": "uint256"
        },
        {
          "internalType": "uint256",
          "name": "_limit",
          "type": "uint256"
        }
      ],
      "name": "shieldAssetsWithBalance",
      "outputs": [
        {
          "internalType": "uint256",
          "name": "_shieldAssetsCount",
          "type": "uint256"
        },
        {
          "internalType": "address[]",
          "name": "_shieldAssets",
          "type": "address[]"
        },
        {
          "internalType": "uint256[]",
          "name": "_shieldAssetBalance",
          "type": "uint256[]"
        }
      ],
      "stateMutability": "view",
      "type": "function",
      "constant": true
    },
    {
      "inputs": [],
      "name": "shieldAssetsCount",
      "outputs": [
        {
          "internalType": "uint256",
          "name": "_shieldAssetsCount",
          "type": "uint256"
        }
      ],
      "stateMutability": "view",
      "type": "function",
      "constant": true
    },
    {
      "inputs": [
        {
          "internalType": "address",
          "name": "_tokenAddress",
          "type": "address"
        },
        {
          "internalType": "uint256",
          "name": "_tokensAmount",
          "type": "uint256"
        }
      ],
      "name": "addShieldTokens",
      "outputs": [
        {
          "internalType": "bool",
          "name": "_success",
          "type": "bool"
        }
      ],
      "stateMutability": "nonpayable",
      "type": "function"
    },
    {
      "inputs": [
        {
          "internalType": "uint256",
          "name": "_durationSeconds",
          "type": "uint256"
        },
        {
          "internalType": "uint256",
          "name": "_coverTokens",
          "type": "uint256"
        },
        {
          "internalType": "uint256",
          "name": "_maxDaiTokens",
          "type": "uint256"
        }
      ],
      "name": "buyPolicy",
      "outputs": [],
      "stateMutability": "nonpayable",
      "type": "function"
    },
    {
      "inputs": [
        {
          "internalType": "address",
          "name": "_policyHolderAddr",
          "type": "address"
        },
        {
          "internalType": "uint256",
          "name": "_durationSeconds",
          "type": "uint256"
        },
        {
          "internalType": "uint256",
          "name": "_coverTokens",
          "type": "uint256"
        },
        {
          "internalType": "uint256",
          "name": "_maxDaiTokens",
          "type": "uint256"
        }
      ],
      "name": "buyPolicyFor",
      "outputs": [],
      "stateMutability": "nonpayable",
      "type": "function"
    },
    {
      "inputs": [
        {
          "internalType": "uint256",
          "name": "_liqudityAmount",
          "type": "uint256"
        }
      ],
      "name": "addLiquidity",
      "outputs": [],
      "stateMutability": "nonpayable",
      "type": "function"
    },
    {
      "inputs": [
        {
          "internalType": "address",
          "name": "_liquidityHolderAddr",
          "type": "address"
        },
        {
          "internalType": "uint256",
          "name": "_liqudityAmount",
          "type": "uint256"
        }
      ],
      "name": "addLiquidityFor",
      "outputs": [],
      "stateMutability": "nonpayable",
      "type": "function"
    },
    {
      "inputs": [
        {
          "internalType": "uint256",
          "name": "_tokensToWithdraw",
          "type": "uint256"
        }
      ],
      "name": "withdrawLiquidity",
      "outputs": [],
      "stateMutability": "nonpayable",
      "type": "function"
    },
    {
      "inputs": [
        {
          "internalType": "uint256",
          "name": "_policyId",
          "type": "uint256"
        }
      ],
      "name": "rewardForUnclaimedExpiredPolicy",
      "outputs": [],
      "stateMutability": "nonpayable",
      "type": "function"
    },
    {
      "inputs": [],
      "name": "stats",
      "outputs": [
        {
          "internalType": "string",
          "name": "_name",
          "type": "string"
        },
        {
          "internalType": "enum IPolicyBookFabric.ContractType",
          "name": "_contractType",
          "type": "uint8"
        },
        {
          "internalType": "uint256",
          "name": "_maxCapacities",
          "type": "uint256"
        },
        {
          "internalType": "uint256",
          "name": "_totalDaiLiquidity",
          "type": "uint256"
        },
        {
          "internalType": "uint256",
          "name": "_annualProfitYields",
          "type": "uint256"
        }
      ],
      "stateMutability": "view",
      "type": "function",
      "constant": true
    },
    {
      "inputs": [
        {
          "internalType": "uint256",
          "name": "_durationSeconds",
          "type": "uint256"
        },
        {
          "internalType": "uint256",
          "name": "_tokens",
          "type": "uint256"
        }
      ],
      "name": "getQuote",
      "outputs": [
        {
          "internalType": "uint256",
          "name": "_daiTokens",
          "type": "uint256"
        }
      ],
      "stateMutability": "view",
      "type": "function",
      "constant": true
    }
  ],
  "bytecode": "0x60806040523480156200001157600080fd5b50604051620023bf380380620023bf833981016040819052620000349162000242565b8181604051602001620000489190620002e6565b60408051601f1981840301815291905281516200006d906003906020850190620000fc565b50805162000083906004906020840190620000fc565b505060058054601260ff1990911617610100600160a81b0319166101006001600160a01b038916021780825586925060ff60a81b1916600160a81b836003811115620000cb57fe5b021790555050600680546001600160a01b0319166001600160a01b0393909316929092179091555062000349915050565b828054600181600116156101000203166002900490600052602060002090601f0160209004810192826200013457600085556200017f565b82601f106200014f57805160ff19168380011785556200017f565b828001600101855582156200017f579182015b828111156200017f57825182559160200191906001019062000162565b506200018d92915062000191565b5090565b5b808211156200018d576000815560010162000192565b80516001600160a01b0381168114620001c057600080fd5b919050565b600082601f830112620001d6578081fd5b81516001600160401b0380821115620001eb57fe5b604051601f8301601f1916810160200182811182821017156200020a57fe5b6040528281529250828483016020018610156200022657600080fd5b6200023983602083016020880162000316565b50505092915050565b600080600080600060a086880312156200025a578081fd5b6200026586620001a8565b945060208601516004811062000279578182fd5b93506200028960408701620001a8565b60608701519093506001600160401b0380821115620002a6578283fd5b620002b489838a01620001c5565b93506080880151915080821115620002ca578283fd5b50620002d988828901620001c5565b9150509295509295909350565b600065626d6944414960d01b825282516200030981600685016020870162000316565b9190910160060192915050565b60005b838110156200033357818101518382015260200162000319565b8381111562000343576000848401525b50505050565b61206680620003596000396000f3fe6080604052600436106102535760003560e01c80637cd0fc9b11610138578063cbf5a55e116100b0578063e98a04e11161007f578063f4020b5b11610064578063f4020b5b1461065a578063f60ff9371461067a578063fc3dfc991461068f5761025a565b8063e98a04e114610625578063efa1f98a1461063a5761025a565b8063cbf5a55e146105b5578063cfa8b3a8146105ca578063d80528ae146105df578063dd62ed3e146106055761025a565b8063a9059cbb11610107578063bc5d198a116100ec578063bc5d198a1461055e578063c18c605714610573578063cb2ef6f7146105935761025a565b8063a9059cbb14610529578063aaf5eb68146105495761025a565b80637cd0fc9b146104ca57806395d89b41146104df5780639c590006146104f4578063a457c2d7146105095761025a565b80632c865d6c116101cb57806351c6590a1161019a57806370b68a2a1161017f57806370b68a2a1461044d578063758af3ab1461047c57806379fac08c1461049c5761025a565b806351c6590a1461040d57806370a082311461042d5761025a565b80632c865d6c146103a1578063313ce567146103b657806339509351146103d8578063514ea9bd146103f85761025a565b806314c179c01161022257806318160ddd1161020757806318160ddd1461034c578063188ff8541461036157806323b872dd146103815761025a565b806314c179c01461030857806315770f921461032a5761025a565b806306fdde031461025f578063095ea7b31461028a5780630a861f2a146102b75780630e82da53146102d95761025a565b3661025a57005b600080fd5b34801561026b57600080fd5b506102746106af565b6040516102819190611c66565b60405180910390f35b34801561029657600080fd5b506102aa6102a53660046119c8565b610763565b6040516102819190611c4d565b3480156102c357600080fd5b506102d76102d2366004611a49565b610781565b005b3480156102e557600080fd5b506102f96102f4366004611a61565b610905565b60405161028193929190611e4d565b34801561031457600080fd5b5061031d610911565b6040516102819190611b74565b34801561033657600080fd5b5061033f610932565b6040516102819190611e23565b34801561035857600080fd5b5061033f610938565b34801561036d57600080fd5b506102aa61037c3660046119c8565b61093e565b34801561038d57600080fd5b506102aa61039c36600461198d565b610946565b3480156103ad57600080fd5b5061033f6109e7565b3480156103c257600080fd5b506103cb6109ec565b6040516102819190611ebd565b3480156103e457600080fd5b506102aa6103f33660046119c8565b6109f5565b34801561040457600080fd5b5061033f610a50565b34801561041957600080fd5b506102d7610428366004611a49565b610a59565b34801561043957600080fd5b5061033f610448366004611941565b610a66565b34801561045957600080fd5b5061046d610468366004611941565b610a92565b60405161028193929190611ea7565b34801561048857600080fd5b5061033f610497366004611a61565b610ab3565b3480156104a857600080fd5b506104bc6104b7366004611a61565b610ac6565b604051610281929190611e2c565b3480156104d657600080fd5b5061031d6109e7565b3480156104eb57600080fd5b50610274610ad0565b34801561050057600080fd5b5061033f610b4f565b34801561051557600080fd5b506102aa6105243660046119c8565b610b58565b34801561053557600080fd5b506102aa6105443660046119c8565b610bcd565b34801561055557600080fd5b5061033f610be1565b34801561056a57600080fd5b5061033f610bea565b34801561057f57600080fd5b506102d761058e366004611a49565b610a63565b34801561059f57600080fd5b506105a8610bf2565b6040516102819190611c58565b3480156105c157600080fd5b5061033f610c14565b3480156105d657600080fd5b5061033f610c1d565b3480156105eb57600080fd5b506105f4610c27565b604051610281959493929190611c79565b34801561061157600080fd5b5061033f61062036600461195b565b610c70565b34801561063157600080fd5b5061033f610ca8565b34801561064657600080fd5b506102d76106553660046119c8565b610cb1565b34801561066657600080fd5b506102d7610675366004611a82565b610cbf565b34801561068657600080fd5b5061033f610cd0565b34801561069b57600080fd5b506102d76106aa3660046119f1565b610cd6565b60038054604080516020601f60027fffffffffffffffffffffffffffffffffffffffffffffffffffffffffffffffff6101006001881615020190951694909404938401819004810282018101909252828152606093909290918301828280156107595780601f1061072e57610100808354040283529160200191610759565b820191906000526020600020905b81548152906001019060200180831161073c57829003601f168201915b5050505050905090565b6000610777610770610ce8565b8484610cec565b5060015b92915050565b8061078b33610a66565b10156107b25760405162461bcd60e51b81526004016107a990611dc6565b60405180910390fd5b6008546007546107c29083610dff565b10156107e05760405162461bcd60e51b81526004016107a990611d8f565b6006546040517fa9059cbb00000000000000000000000000000000000000000000000000000000815260009173ffffffffffffffffffffffffffffffffffffffff169063a9059cbb906108399033908690600401611b95565b602060405180830381600087803b15801561085357600080fd5b505af1158015610867573d6000803e3d6000fd5b505050506040513d601f19601f8201168201806040525081019061088b9190611a29565b9050806108aa5760405162461bcd60e51b81526004016107a990611d23565b6007546108b79083610dff565b6007556108c43383610e41565b7fac927268ea9ae2e55027e6ab727fc2db8e3ea48c56c658223a1074567e4298c033836007546040516108f993929190611bbb565b60405180910390a15050565b60006060809250925092565b600554610100900473ffffffffffffffffffffffffffffffffffffffff1681565b60075481565b60025490565b600092915050565b6000610953848484610f71565b6109dd8461095f610ce8565b6109d885604051806060016040528060288152602001611f7a6028913973ffffffffffffffffffffffffffffffffffffffff8a166000908152600160205260408120906109aa610ce8565b73ffffffffffffffffffffffffffffffffffffffff168152602081019190915260400160002054919061110d565b610cec565b5060019392505050565b600090565b60055460ff1690565b6000610777610a02610ce8565b846109d88560016000610a13610ce8565b73ffffffffffffffffffffffffffffffffffffffff908116825260208083019390935260409182016000908120918c1681529252902054906111a4565b6445d964b80081565b610a6333826111fe565b50565b73ffffffffffffffffffffffffffffffffffffffff81166000908152602081905260409020545b919050565b60096020526000908152604090208054600182015460029092015490919083565b6000610abf8383611326565b9392505050565b5060009160609150565b60048054604080516020601f60027fffffffffffffffffffffffffffffffffffffffffffffffffffffffffffffffff6101006001881615020190951694909404938401819004810282018101909252828152606093909290918301828280156107595780601f1061072e57610100808354040283529160200191610759565b640ba43b740081565b6000610777610b65610ce8565b846109d88560405180606001604052806025815260200161200c6025913960016000610b8f610ce8565b73ffffffffffffffffffffffffffffffffffffffff908116825260208083019390935260409182016000908120918d1681529252902054919061110d565b6000610777610bda610ce8565b8484610f71565b6402540be40081565b6301e1338081565b6005547501000000000000000000000000000000000000000000900460ff1681565b64e8d4a5100081565b65015d3ef7980081565b6060600080600080610c376106af565b6005546008546007549298750100000000000000000000000000000000000000000090920460ff16975082039550909350600092509050565b73ffffffffffffffffffffffffffffffffffffffff918216600090815260016020908152604080832093909416825291909152205490565b64a2fb40580081565b610cbb82826111fe565b5050565b610ccb33848484611426565b505050565b60085481565b610ce284848484611426565b50505050565b3390565b73ffffffffffffffffffffffffffffffffffffffff8316610d3e5760405162461bcd60e51b8152600401808060200182810382526024815260200180611fe86024913960400191505060405180910390fd5b73ffffffffffffffffffffffffffffffffffffffff8216610d905760405162461bcd60e51b8152600401808060200182810382526022815260200180611f116022913960400191505060405180910390fd5b73ffffffffffffffffffffffffffffffffffffffff808416600081815260016020908152604080832094871680845294825291829020859055815185815291517f8c5be1e5ebec7d5bd14f71427d1e84f3dd0314c0f7b2291e5b200ac8c7c3b9259281900390910190a3505050565b6000610abf83836040518060400160405280601e81526020017f536166654d6174683a207375627472616374696f6e206f766572666c6f77000081525061110d565b73ffffffffffffffffffffffffffffffffffffffff8216610e935760405162461bcd60e51b8152600401808060200182810382526021815260200180611fa26021913960400191505060405180910390fd5b610e9f82600083610ccb565b610ee981604051806060016040528060228152602001611eef6022913973ffffffffffffffffffffffffffffffffffffffff8516600090815260208190526040902054919061110d565b73ffffffffffffffffffffffffffffffffffffffff8316600090815260208190526040902055600254610f1c9082610dff565b60025560408051828152905160009173ffffffffffffffffffffffffffffffffffffffff8516917fddf252ad1be2c89b69c2b068fc378daa952ba7f163c4a11628f55a4df523b3ef9181900360200190a35050565b73ffffffffffffffffffffffffffffffffffffffff8316610fc35760405162461bcd60e51b8152600401808060200182810382526025815260200180611fc36025913960400191505060405180910390fd5b73ffffffffffffffffffffffffffffffffffffffff82166110155760405162461bcd60e51b8152600401808060200182810382526023815260200180611ecc6023913960400191505060405180910390fd5b611020838383610ccb565b61106a81604051806060016040528060268152602001611f336026913973ffffffffffffffffffffffffffffffffffffffff8616600090815260208190526040902054919061110d565b73ffffffffffffffffffffffffffffffffffffffff80851660009081526020819052604080822093909355908416815220546110a690826111a4565b73ffffffffffffffffffffffffffffffffffffffff8084166000818152602081815260409182902094909455805185815290519193928716927fddf252ad1be2c89b69c2b068fc378daa952ba7f163c4a11628f55a4df523b3ef92918290030190a3505050565b6000818484111561119c5760405162461bcd60e51b81526004018080602001828103825283818151815260200191508051906020019080838360005b83811015611161578181015183820152602001611149565b50505050905090810190601f16801561118e5780820380516001836020036101000a031916815260200191505b509250505060405180910390fd5b505050900390565b600082820183811015610abf576040805162461bcd60e51b815260206004820152601b60248201527f536166654d6174683a206164646974696f6e206f766572666c6f770000000000604482015290519081900360640190fd5b6006546040517f23b872dd00000000000000000000000000000000000000000000000000000000815260009173ffffffffffffffffffffffffffffffffffffffff16906323b872dd9061125990869030908790600401611be9565b602060405180830381600087803b15801561127357600080fd5b505af1158015611287573d6000803e3d6000fd5b505050506040513d601f19601f820116820180604052508101906112ab9190611a29565b9050806112ca5760405162461bcd60e51b81526004016107a990611d23565b6007546112d790836111a4565b6007556112e48383611643565b7f06239653922ac7bea6aa2b19dc486b9361821d37712eb796adfd38d81de278ca838360075460405161131993929190611bbb565b60405180910390a1505050565b6000600754611340836008546111a490919063ffffffff16565b111561135e5760405162461bcd60e51b81526004016107a990611cee565b6000600754116113805760405162461bcd60e51b81526004016107a990611cb7565b60006113b56007546113af6402540be4006064026113a9876008546111a490919063ffffffff16565b9061175a565b906117b3565b9050600064a2fb4058008210156113d6576113cf826117f5565b90506113e2565b6113df8261180f565b90505b6113f181640ba43b7400611880565b905060006114076301e133806113af888561175a565b905061141c64e8d4a510006113af878461175a565b9695505050505050565b61142e6118fc565b5073ffffffffffffffffffffffffffffffffffffffff8416600090815260096020908152604091829020825160608101845281548152600182015492810183905260029091015492810192909252156114995760405162461bcd60e51b81526004016107a990611d5a565b6008546114a690846111a4565b60075410156114c75760405162461bcd60e51b81526004016107a990611d8f565b60006114d38585611326565b8483526020808401878152604080860187815273ffffffffffffffffffffffffffffffffffffffff8b166000908152600990945292208551815590516001820155905160029091015560085490915061152c90856111a4565b6008556006546040517f23b872dd00000000000000000000000000000000000000000000000000000000815260009173ffffffffffffffffffffffffffffffffffffffff16906323b872dd9061158a908a9030908790600401611be9565b602060405180830381600087803b1580156115a457600080fd5b505af11580156115b8573d6000803e3d6000fd5b505050506040513d601f19601f820116820180604052508101906115dc9190611a29565b9050806115fb5760405162461bcd60e51b81526004016107a990611d23565b7f1cd728a6e764ed0dcddb6e5b88d736a4a8d2a0d420ca373588f7a1109e18663f8786846008546040516116329493929190611c1a565b60405180910390a150505050505050565b73ffffffffffffffffffffffffffffffffffffffff82166116ab576040805162461bcd60e51b815260206004820152601f60248201527f45524332303a206d696e7420746f20746865207a65726f206164647265737300604482015290519081900360640190fd5b6116b760008383610ccb565b6002546116c490826111a4565b60025573ffffffffffffffffffffffffffffffffffffffff82166000908152602081905260409020546116f790826111a4565b73ffffffffffffffffffffffffffffffffffffffff83166000818152602081815260408083209490945583518581529351929391927fddf252ad1be2c89b69c2b068fc378daa952ba7f163c4a11628f55a4df523b3ef9281900390910190a35050565b6000826117695750600061077b565b8282028284828161177657fe5b0414610abf5760405162461bcd60e51b8152600401808060200182810382526021815260200180611f596021913960400191505060405180910390fd5b6000610abf83836040518060400160405280601a81526020017f536166654d6174683a206469766973696f6e206279207a65726f000000000000815250611897565b600061077b64a2fb4058006113af846445d964b80061175a565b60008061184761182964e8d4a5100064a2fb405800610dff565b6113af61183b8664a2fb405800610dff565b6402540be4009061175a565b9050610abf6118746402540be4006113af61186d65015d3ef798006445d964b800610dff565b859061175a565b6445d964b800906111a4565b6000818310156118905781610abf565b5090919050565b600081836118e65760405162461bcd60e51b8152602060048201818152835160248401528351909283926044909101919085019080838360008315611161578181015183820152602001611149565b5060008385816118f257fe5b0495945050505050565b60405180606001604052806000815260200160008152602001600081525090565b803573ffffffffffffffffffffffffffffffffffffffff81168114610a8d57600080fd5b600060208284031215611952578081fd5b610abf8261191d565b6000806040838503121561196d578081fd5b6119768361191d565b91506119846020840161191d565b90509250929050565b6000806000606084860312156119a1578081fd5b6119aa8461191d565b92506119b86020850161191d565b9150604084013590509250925092565b600080604083850312156119da578182fd5b6119e38361191d565b946020939093013593505050565b60008060008060808587031215611a06578081fd5b611a0f8561191d565b966020860135965060408601359560600135945092505050565b600060208284031215611a3a578081fd5b81518015158114610abf578182fd5b600060208284031215611a5a578081fd5b5035919050565b60008060408385031215611a73578182fd5b50508035926020909101359150565b600080600060608486031215611a96578283fd5b505081359360208301359350604090920135919050565b6000815180845260208085019450808401835b83811015611af257815173ffffffffffffffffffffffffffffffffffffffff1687529582019590820190600101611ac0565b509495945050505050565b60048110611b0757fe5b9052565b60008151808452815b81811015611b3057602081850181015186830182015201611b14565b81811115611b415782602083870101525b50601f017fffffffffffffffffffffffffffffffffffffffffffffffffffffffffffffffe0169290920160200192915050565b73ffffffffffffffffffffffffffffffffffffffff91909116815260200190565b73ffffffffffffffffffffffffffffffffffffffff929092168252602082015260400190565b73ffffffffffffffffffffffffffffffffffffffff9390931683526020830191909152604082015260600190565b73ffffffffffffffffffffffffffffffffffffffff9384168152919092166020820152604081019190915260600190565b73ffffffffffffffffffffffffffffffffffffffff94909416845260208401929092526040830152606082015260800190565b901515815260200190565b6020810161077b8284611afd565b600060208252610abf6020830184611b0b565b600060a08252611c8c60a0830188611b0b565b9050611c9b6020830187611afd565b8460408301528360608301528260808301529695505050505050565b60208082526011908201527f54686520706f6f6c20697320656d707479000000000000000000000000000000604082015260600190565b6020808252818101527f526571756972696e67206d6f7265207468616e20746865726520657869737473604082015260600190565b60208082526019908201527f4661696c656420746f207472616e7366657220746f6b656e7300000000000000604082015260600190565b6020808252818101527f54686520706f6c69637920686f6c64657220616c726561647920657869737473604082015260600190565b6020808252601e908201527f4e6f7420656e6f75676820617661696c61626c65206c69717569646974790000604082015260600190565b6020808252603f908201527f54686520616d6f756e7420746f2062652077697468647261776e20697320677260408201527f6561746572207468616e20746865206465706f736974656420616d6f756e7400606082015260800190565b90815260200190565b600083825260406020830152611e456040830184611aad565b949350505050565b60008482526020606081840152611e676060840186611aad565b8381036040850152845180825282860191830190845b81811015611e9957835183529284019291840191600101611e7d565b509098975050505050505050565b9283526020830191909152604082015260600190565b60ff9190911681526020019056fe45524332303a207472616e7366657220746f20746865207a65726f206164647265737345524332303a206275726e20616d6f756e7420657863656564732062616c616e636545524332303a20617070726f766520746f20746865207a65726f206164647265737345524332303a207472616e7366657220616d6f756e7420657863656564732062616c616e6365536166654d6174683a206d756c7469706c69636174696f6e206f766572666c6f7745524332303a207472616e7366657220616d6f756e74206578636565647320616c6c6f77616e636545524332303a206275726e2066726f6d20746865207a65726f206164647265737345524332303a207472616e736665722066726f6d20746865207a65726f206164647265737345524332303a20617070726f76652066726f6d20746865207a65726f206164647265737345524332303a2064656372656173656420616c6c6f77616e63652062656c6f77207a65726fa2646970667358221220ccee26a2bc1853c07d799af6d9354e201027cc6169d238928e50e6127abc066164736f6c63430007040033",
  "immutableReferences": {},
  "source": "// SPDX-License-Identifier: MIT\npragma solidity ^0.7.4;\npragma experimental ABIEncoderV2;\n\nimport \"@openzeppelin/contracts/token/ERC20/ERC20.sol\";\nimport \"@openzeppelin/contracts/token/ERC20/IERC20.sol\";\nimport \"@openzeppelin/contracts/math/SafeMath.sol\";\nimport \"@openzeppelin/contracts/math/Math.sol\";\n\nimport \"./interfaces/IPolicyBook.sol\";\nimport \"./interfaces/IPolicyBookFabric.sol\";\n\ncontract PolicyBook is IPolicyBook, ERC20 {\n  using SafeMath for uint256;\n  using Math for uint256;\n\n  address public override insuranceContractAddress;\n  IPolicyBookFabric.ContractType public override contractType;\n  IERC20 daiToken;\n\n  uint256 public totalLiquidity;\n  uint256 public totalCoverTokens;\n\n  struct PolicyHolder {\n    uint256 coverTokens;\n    uint256 durationSeconds;\n    uint256 maxDaiTokens;\n  }\n\n  mapping(address => PolicyHolder) public policyHolders;\n\n  event AddLiquidity(address _liquidityHolder, uint256 _liqudityAmount, uint256 _newTotalLiquidity);\n  event WithdrawLiquidity(address _liquidityHolder, uint256 _tokensToWithdraw, uint256 _newTotalLiquidity);\n  event BuyPolicy(address _policyHolder, uint256 _coverTokens, uint256 _price, uint256 _newTotalCoverTokens);\n\n  constructor(\n    address _insuranceContract,\n    IPolicyBookFabric.ContractType _contractType,\n    address _daiAddr,\n    string memory _description,\n    string memory _projectSymbol\n  ) ERC20(_description, string(abi.encodePacked(\"bmiDAI\", _projectSymbol))) {\n    insuranceContractAddress = _insuranceContract;\n    contractType = _contractType;\n    daiToken = IERC20(_daiAddr);\n  }\n\n  receive() external payable {}\n\n  function quoteStrategy() external view override returns (address _quoteStrategy) {\n    return address(0);\n  }\n\n  function shieldAssets(uint256 _offset, uint256 _limit)\n    external\n    view\n    override\n    returns (uint256 _shieldAssetsCount, address[] memory _shieldAssets)\n  {\n    address[] memory temp;\n    return (0, temp);\n  }\n\n  function shieldAssetsWithBalance(uint256 _offset, uint256 _limit)\n    external\n    view\n    override\n    returns (\n      uint256 _shieldAssetsCount,\n      address[] memory _shieldAssets,\n      uint256[] memory _shieldAssetBalance\n    )\n  {\n    address[] memory temp1;\n    uint256[] memory temp2;\n    return (0, temp1, temp2);\n  }\n\n  function shieldAssetsCount() external view override returns (uint256 _shieldAssetsCount) {\n    return 0;\n  }\n\n  function addShieldTokens(address _tokenAddress, uint256 _tokensAmount) external override returns (bool _success) {\n    return false;\n  }\n\n  function buyPolicy(\n    uint256 _durationSeconds,\n    uint256 _coverTokens,\n    uint256 _maxDaiTokens\n  ) external override {\n    _buyPolicyFor(msg.sender, _durationSeconds, _coverTokens, _maxDaiTokens);\n  }\n\n  function buyPolicyFor(\n    address _policyHolderAddr,\n    uint256 _durationSeconds,\n    uint256 _coverTokens,\n    uint256 _maxDaiTokens\n  ) external override {\n    _buyPolicyFor(_policyHolderAddr, _durationSeconds, _coverTokens, _maxDaiTokens);\n  }\n\n  function _buyPolicyFor(\n    address _policyHolderAddr,\n    uint256 _durationSeconds,\n    uint256 _coverTokens,\n    uint256 _maxDaiTokens\n  ) internal {\n    PolicyHolder memory _policyHolder = policyHolders[_policyHolderAddr];\n    require(_policyHolder.durationSeconds == 0, \"The policy holder already exists\");\n    require(totalLiquidity >= totalCoverTokens.add(_coverTokens), \"Not enough available liquidity\");\n\n    uint256 _price = _getQuote(_durationSeconds, _coverTokens);\n\n    _policyHolder.coverTokens = _coverTokens;\n    _policyHolder.durationSeconds = _durationSeconds;\n    _policyHolder.maxDaiTokens = _maxDaiTokens;\n\n    policyHolders[_policyHolderAddr] = _policyHolder;\n    totalCoverTokens = totalCoverTokens.add(_coverTokens);\n\n    bool _success = daiToken.transferFrom(_policyHolderAddr, address(this), _price);\n    require(_success, \"Failed to transfer tokens\");\n\n    emit BuyPolicy(_policyHolderAddr, _coverTokens, _price, totalCoverTokens);\n  }\n\n  function addLiquidity(uint256 _liqudityAmount) external override {\n    _addLiquidityFor(msg.sender, _liqudityAmount);\n  }\n\n  function addLiquidityFor(address _liquidityHolderAddr, uint256 _liqudityAmount) external override {\n    _addLiquidityFor(_liquidityHolderAddr, _liqudityAmount);\n  }\n\n  function _addLiquidityFor(address _liquidityHolderAddr, uint256 _liqudityAmount) internal {\n    bool _success = daiToken.transferFrom(_liquidityHolderAddr, address(this), _liqudityAmount);\n    require(_success, \"Failed to transfer tokens\");\n\n    totalLiquidity = totalLiquidity.add(_liqudityAmount);\n    _mint(_liquidityHolderAddr, _liqudityAmount);\n\n    emit AddLiquidity(_liquidityHolderAddr, _liqudityAmount, totalLiquidity);\n  }\n\n  function withdrawLiquidity(uint256 _tokensToWithdraw) external override {\n    require(\n      balanceOf(msg.sender) >= _tokensToWithdraw,\n      \"The amount to be withdrawn is greater than the deposited amount\"\n    );\n    require(totalLiquidity.sub(_tokensToWithdraw) >= totalCoverTokens, \"Not enough available liquidity\");\n\n    bool _success = daiToken.transfer(msg.sender, _tokensToWithdraw);\n    require(_success, \"Failed to transfer tokens\");\n\n    totalLiquidity = totalLiquidity.sub(_tokensToWithdraw);\n    _burn(msg.sender, _tokensToWithdraw);\n\n    emit WithdrawLiquidity(msg.sender, _tokensToWithdraw, totalLiquidity);\n  }\n\n  function _calculateInterest(address _policyHolder) internal view returns (uint256) {\n    return 0;\n  }\n\n  function rewardForUnclaimedExpiredPolicy(uint256 _policyId) external override {}\n\n  function stats()\n    external\n    view\n    override\n    returns (\n      string memory _name,\n      IPolicyBookFabric.ContractType _contractType,\n      uint256 _maxCapacities,\n      uint256 _totalDaiLiquidity,\n      uint256 _annualProfitYields\n    )\n  {\n    // TODO APY\n    return (name(), contractType, totalLiquidity - totalCoverTokens, totalLiquidity, 0);\n  }\n\n  uint256 public constant SECONDS_IN_THE_YEAR = 365 * 24 * 60 * 60; // 365 days * 24 hours * 60 minutes * 60 seconds\n  uint256 public constant PRECISION = 10**10;\n  uint256 public constant PERCENTAGE_100 = 100 * PRECISION;\n\n  uint256 public constant MINIMUM_COST_PERCENTAGE = 5 * PRECISION;\n  uint256 public constant RISKY_ASSET_THRESHOLD_PERCENTAGE = 70 * PRECISION;\n  uint256 public constant MAXIMUM_COST_NOT_RISKY_PERCENTAGE = 30 * PRECISION;\n  uint256 public constant MAXIMUM_COST_100_UTILIZATION_PERCENTAGE = 150 * PRECISION;\n\n  function calculateWhenNotRisky(uint256 _utilizationRatioPercentage) private pure returns (uint256) {\n    return (_utilizationRatioPercentage.mul(MAXIMUM_COST_NOT_RISKY_PERCENTAGE)).div(RISKY_ASSET_THRESHOLD_PERCENTAGE);\n  }\n\n  function calculateWhenIsRisky(uint256 _utilizationRatioPercentage) private pure returns (uint256) {\n    uint256 riskyRelation =\n      (PRECISION.mul(_utilizationRatioPercentage.sub(RISKY_ASSET_THRESHOLD_PERCENTAGE))).div(\n        (PERCENTAGE_100.sub(RISKY_ASSET_THRESHOLD_PERCENTAGE))\n      );\n\n    return\n      MAXIMUM_COST_NOT_RISKY_PERCENTAGE.add(\n        (riskyRelation.mul(MAXIMUM_COST_100_UTILIZATION_PERCENTAGE.sub(MAXIMUM_COST_NOT_RISKY_PERCENTAGE))).div(\n          PRECISION\n        )\n      );\n  }\n\n  function getQuote(uint256 _durationSeconds, uint256 _tokens) external view override returns (uint256 _daiTokens) {\n    _daiTokens = _getQuote(_durationSeconds, _tokens);\n  }\n\n  function _getQuote(uint256 _durationSeconds, uint256 _tokens) internal view returns (uint256) {\n    require(totalCoverTokens.add(_tokens) <= totalLiquidity, \"Requiring more than there exists\");\n    require(totalLiquidity > 0, \"The pool is empty\");\n\n    uint256 utilizationRatioPercentage = ((totalCoverTokens.add(_tokens)).mul(PERCENTAGE_100)).div(totalLiquidity);\n\n    uint256 annualInsuranceCostPercentage;\n\n    if (utilizationRatioPercentage < RISKY_ASSET_THRESHOLD_PERCENTAGE) {\n      annualInsuranceCostPercentage = calculateWhenNotRisky(utilizationRatioPercentage);\n    } else {\n      annualInsuranceCostPercentage = calculateWhenIsRisky(utilizationRatioPercentage);\n    }\n\n    annualInsuranceCostPercentage = Math.max(annualInsuranceCostPercentage, MINIMUM_COST_PERCENTAGE);\n\n    uint256 actualInsuranceCostPercentage = \n      (_durationSeconds.mul(annualInsuranceCostPercentage)).div(SECONDS_IN_THE_YEAR);\n\n    return (_tokens.mul(actualInsuranceCostPercentage)).div(PERCENTAGE_100);\n  }\n}\n",
  "sourcePath": "/home/artem/Projects/Distributed_Lab/Applicature/bridgemutual-core/contracts/PolicyBook.sol",
  "compiler": {
    "name": "solc",
    "version": "0.7.4+commit.3f05b770.Emscripten.clang"
  },
  "schemaVersion": "3.3.3",
  "updatedAt": "2021-01-21T14:12:35.441Z",
  "networkType": "ethereum",
  "devdoc": {
    "kind": "dev",
    "methods": {
      "addLiquidity(uint256)": {
        "params": {
          "_liqudityAmount": "is amount of DAI tokens to secure"
        }
      },
      "addLiquidityFor(address,uint256)": {
        "params": {
          "_liqudityAmount": "is amount of DAI tokens to secure",
          "_liquidityHolderAddr": "is address of address to assign cover"
        }
      },
      "addShieldTokens(address,uint256)": {
        "params": {
          "_tokenAddress": "is address of reward token to add",
          "_tokensAmount": "is max amount of reward to operate on"
        },
        "returns": {
          "_success": "is indicator if purchase is successful, it will throw exception if unsuccessful"
        }
      },
      "allowance(address,address)": {
        "details": "See {IERC20-allowance}."
      },
      "approve(address,uint256)": {
        "details": "See {IERC20-approve}. Requirements: - `spender` cannot be the zero address."
      },
      "balanceOf(address)": {
        "details": "See {IERC20-balanceOf}."
      },
      "buyPolicy(uint256,uint256,uint256)": {
        "params": {
          "_coverTokens": "is number of tokens to cover",
          "_durationSeconds": "is number of seconds to cover",
          "_maxDaiTokens": "is number of DAI to spend"
        }
      },
      "buyPolicyFor(address,uint256,uint256,uint256)": {
        "params": {
          "_coverTokens": "is number of tokens to cover",
          "_durationSeconds": "is number of seconds to cover",
          "_maxDaiTokens": "is number of DAI to spend",
          "_policyHolderAddr": "is address of address to assign cover"
        }
      },
      "decimals()": {
        "details": "Returns the number of decimals used to get its user representation. For example, if `decimals` equals `2`, a balance of `505` tokens should be displayed to a user as `5,05` (`505 / 10 ** 2`). Tokens usually opt for a value of 18, imitating the relationship between Ether and Wei. This is the value {ERC20} uses, unless {_setupDecimals} is called. NOTE: This information is only used for _display_ purposes: it in no way affects any of the arithmetic of the contract, including {IERC20-balanceOf} and {IERC20-transfer}."
      },
      "decreaseAllowance(address,uint256)": {
        "details": "Atomically decreases the allowance granted to `spender` by the caller. This is an alternative to {approve} that can be used as a mitigation for problems described in {IERC20-approve}. Emits an {Approval} event indicating the updated allowance. Requirements: - `spender` cannot be the zero address. - `spender` must have allowance for the caller of at least `subtractedValue`."
      },
      "getQuote(uint256,uint256)": {
        "params": {
          "_durationSeconds": "is number of seconds to cover",
          "_tokens": "is number of tokens to cover"
        },
        "returns": {
          "_daiTokens": "is amount of DAI policy costs"
        }
      },
      "increaseAllowance(address,uint256)": {
        "details": "Atomically increases the allowance granted to `spender` by the caller. This is an alternative to {approve} that can be used as a mitigation for problems described in {IERC20-approve}. Emits an {Approval} event indicating the updated allowance. Requirements: - `spender` cannot be the zero address."
      },
      "name()": {
        "details": "Returns the name of the token."
      },
      "quoteStrategy()": {
        "returns": {
          "_quoteStrategy": "is address of Quote strategy contract used to calculate quote"
        }
      },
      "rewardForUnclaimedExpiredPolicy(uint256)": {
        "params": {
          "_policyId": "is id of policy to get reward for, reward will be sent to policy holder"
        }
      },
      "shieldAssets(uint256,uint256)": {
        "params": {
          "_limit": "is number of policy books to returns from _offset",
          "_offset": "is starting item in array to return array from"
        },
        "returns": {
          "_shieldAssets": "is addresses of shield assets, that will be distributed to Policy givers",
          "_shieldAssetsCount": "is number of added shield assets"
        }
      },
      "shieldAssetsCount()": {
        "returns": {
          "_shieldAssetsCount": "is number of added shield assets"
        }
      },
      "shieldAssetsWithBalance(uint256,uint256)": {
        "params": {
          "_limit": "is number of policy books to returns from _offset",
          "_offset": "is starting item in array to return array from"
        },
        "returns": {
          "_shieldAssetBalance": "is tokens amount of shield assets allocated to Policy Book,  to get specific shield asset balance lookup _shieldAssetBalances by same index as of shield asset",
          "_shieldAssets": "is addresses of shield assets, that will be distributed to Policy givers",
          "_shieldAssetsCount": "is number of added shield assets"
        }
      },
      "stats()": {
        "returns": {
          "_annualProfitYields": "is its APY",
          "_contractType": "is a type of insured contract",
          "_maxCapacities": "is a max token amount that a user can buy",
          "_name": "is the name of PolicyBook",
          "_totalDaiLiquidity": "is PolicyBook's liquidity"
        }
      },
      "symbol()": {
        "details": "Returns the symbol of the token, usually a shorter version of the name."
      },
      "totalSupply()": {
        "details": "See {IERC20-totalSupply}."
      },
      "transfer(address,uint256)": {
        "details": "See {IERC20-transfer}. Requirements: - `recipient` cannot be the zero address. - the caller must have a balance of at least `amount`."
      },
      "transferFrom(address,address,uint256)": {
        "details": "See {IERC20-transferFrom}. Emits an {Approval} event indicating the updated allowance. This is not required by the EIP. See the note at the beginning of {ERC20}. Requirements: - `sender` and `recipient` cannot be the zero address. - `sender` must have a balance of at least `amount`. - the caller must have allowance for ``sender``'s tokens of at least `amount`."
      },
      "withdrawLiquidity(uint256)": {
        "params": {
          "_tokensToWithdraw": "is amount of DAI tokens to withdraw"
        }
      }
    },
    "stateVariables": {
      "contractType": {
        "return": "_type is type of contract"
      },
      "insuranceContractAddress": {
        "return": "_contract is address of covered contract"
      }
    },
    "version": 1
  },
  "userdoc": {
    "kind": "user",
    "methods": {
      "addLiquidity(uint256)": {
        "notice": "Let user to add liquidity by supplying DAI, access: ANY"
      },
      "addLiquidityFor(address,uint256)": {
        "notice": "Let user to add liqiudity for another user by supplying DAI, access: ANY"
      },
      "addShieldTokens(address,uint256)": {
        "notice": "Adds shield tokens to contract, access: ANY"
      },
      "buyPolicy(uint256,uint256,uint256)": {
        "notice": "Let user to buy policy by supplying DAI, access: ANY"
      },
      "buyPolicyFor(address,uint256,uint256,uint256)": {
        "notice": "Let user to buy policy for another user by supplying DAI, access: ANY"
      },
      "contractType()": {
        "notice": "Returns type of contract this PolicyBook covers, access: ANY"
      },
      "getQuote(uint256,uint256)": {
        "notice": "Let user to calculate policy cost in DAI, access: ANY"
      },
      "insuranceContractAddress()": {
        "notice": "Returns address of contract this PolicyBook covers, access: ANY"
      },
      "quoteStrategy()": {
        "notice": "Returns quote strategy defined during creation of PolicyBook, access: ANY"
      },
      "rewardForUnclaimedExpiredPolicy(uint256)": {
        "notice": "Let user to claim rewards for unclaimed policy cost in DAI, access: ANY"
      },
      "shieldAssets(uint256,uint256)": {
        "notice": "Returns list of shield assets added to PolicyBook, access: ANY"
      },
      "shieldAssetsCount()": {
        "notice": "Returns number of shield assets added, access: ANY"
      },
      "shieldAssetsWithBalance(uint256,uint256)": {
        "notice": "Returns list of shield assets added with tokens amount allocated to Policy Book, access: ANY"
      },
      "stats()": {
        "notice": "Getting stats, access: ANY"
      },
      "withdrawLiquidity(uint256)": {
        "notice": "Let user to withdraw deposited liqiudity, access: ANY"
      }
    },
    "version": 1
  }
}