{
  "contractName": "PolicyBookMock",
  "abi": [
    {
      "inputs": [
        {
          "internalType": "address",
          "name": "_insuranceContract",
          "type": "address"
        },
        {
          "internalType": "enum IPolicyBookFabric.ContractType",
          "name": "_contractType",
          "type": "uint8"
        }
      ],
      "stateMutability": "nonpayable",
      "type": "constructor"
    },
    {
      "anonymous": false,
      "inputs": [
        {
          "indexed": false,
          "internalType": "address",
          "name": "_liquidityHolder",
          "type": "address"
        },
        {
          "indexed": false,
          "internalType": "uint256",
          "name": "_liqudityAmount",
          "type": "uint256"
        },
        {
          "indexed": false,
          "internalType": "uint256",
          "name": "_newTotalLiquidity",
          "type": "uint256"
        }
      ],
      "name": "AddLiquidity",
      "type": "event"
    },
    {
      "anonymous": false,
      "inputs": [
        {
          "indexed": true,
          "internalType": "address",
          "name": "owner",
          "type": "address"
        },
        {
          "indexed": true,
          "internalType": "address",
          "name": "spender",
          "type": "address"
        },
        {
          "indexed": false,
          "internalType": "uint256",
          "name": "value",
          "type": "uint256"
        }
      ],
      "name": "Approval",
      "type": "event"
    },
    {
      "anonymous": false,
      "inputs": [
        {
          "indexed": false,
          "internalType": "address",
          "name": "_policyHolder",
          "type": "address"
        },
        {
          "indexed": false,
          "internalType": "uint256",
          "name": "_coverTokens",
          "type": "uint256"
        },
        {
          "indexed": false,
          "internalType": "uint256",
          "name": "_price",
          "type": "uint256"
        },
        {
          "indexed": false,
          "internalType": "uint256",
          "name": "_newTotalCoverTokens",
          "type": "uint256"
        }
      ],
      "name": "BuyPolicy",
      "type": "event"
    },
    {
      "anonymous": false,
      "inputs": [
        {
          "indexed": true,
          "internalType": "address",
          "name": "previousOwner",
          "type": "address"
        },
        {
          "indexed": true,
          "internalType": "address",
          "name": "newOwner",
          "type": "address"
        }
      ],
      "name": "OwnershipTransferred",
      "type": "event"
    },
    {
      "anonymous": false,
      "inputs": [
        {
          "indexed": true,
          "internalType": "address",
          "name": "from",
          "type": "address"
        },
        {
          "indexed": true,
          "internalType": "address",
          "name": "to",
          "type": "address"
        },
        {
          "indexed": false,
          "internalType": "uint256",
          "name": "value",
          "type": "uint256"
        }
      ],
      "name": "Transfer",
      "type": "event"
    },
    {
      "anonymous": false,
      "inputs": [
        {
          "indexed": false,
          "internalType": "address",
          "name": "_liquidityHolder",
          "type": "address"
        },
        {
          "indexed": false,
          "internalType": "uint256",
          "name": "_tokensToWithdraw",
          "type": "uint256"
        },
        {
          "indexed": false,
          "internalType": "uint256",
          "name": "_newTotalLiquidity",
          "type": "uint256"
        }
      ],
      "name": "WithdrawLiquidity",
      "type": "event"
    },
    {
      "inputs": [],
      "name": "MAXIMUM_COST_100_UTILIZATION_PERCENTAGE",
      "outputs": [
        {
          "internalType": "uint256",
          "name": "",
          "type": "uint256"
        }
      ],
      "stateMutability": "view",
      "type": "function"
    },
    {
      "inputs": [],
      "name": "MAXIMUM_COST_NOT_RISKY_PERCENTAGE",
      "outputs": [
        {
          "internalType": "uint256",
          "name": "",
          "type": "uint256"
        }
      ],
      "stateMutability": "view",
      "type": "function"
    },
    {
      "inputs": [],
      "name": "MINIMUM_COST_PERCENTAGE",
      "outputs": [
        {
          "internalType": "uint256",
          "name": "",
          "type": "uint256"
        }
      ],
      "stateMutability": "view",
      "type": "function"
    },
    {
      "inputs": [],
      "name": "PERCENTAGE_100",
      "outputs": [
        {
          "internalType": "uint256",
          "name": "",
          "type": "uint256"
        }
      ],
      "stateMutability": "view",
      "type": "function"
    },
    {
      "inputs": [],
      "name": "PRECISION",
      "outputs": [
        {
          "internalType": "uint256",
          "name": "",
          "type": "uint256"
        }
      ],
      "stateMutability": "view",
      "type": "function"
    },
    {
      "inputs": [],
      "name": "RISKY_ASSET_THRESHOLD_PERCENTAGE",
      "outputs": [
        {
          "internalType": "uint256",
          "name": "",
          "type": "uint256"
        }
      ],
      "stateMutability": "view",
      "type": "function"
    },
    {
      "inputs": [],
      "name": "SECONDS_IN_THE_YEAR",
      "outputs": [
        {
          "internalType": "uint256",
          "name": "",
          "type": "uint256"
        }
      ],
      "stateMutability": "view",
      "type": "function"
    },
    {
      "inputs": [
        {
          "internalType": "uint256",
          "name": "_liqudityAmount",
          "type": "uint256"
        }
      ],
      "name": "addLiquidity",
      "outputs": [],
      "stateMutability": "nonpayable",
      "type": "function"
    },
    {
      "inputs": [
        {
          "internalType": "address",
          "name": "_liquidityHolderAddr",
          "type": "address"
        },
        {
          "internalType": "uint256",
          "name": "_liqudityAmount",
          "type": "uint256"
        }
      ],
      "name": "addLiquidityFor",
      "outputs": [],
      "stateMutability": "nonpayable",
      "type": "function"
    },
    {
      "inputs": [
        {
          "internalType": "address",
          "name": "_tokenAddress",
          "type": "address"
        },
        {
          "internalType": "uint256",
          "name": "_tokensAmount",
          "type": "uint256"
        }
      ],
      "name": "addShieldTokens",
      "outputs": [
        {
          "internalType": "bool",
          "name": "_success",
          "type": "bool"
        }
      ],
      "stateMutability": "nonpayable",
      "type": "function"
    },
    {
      "inputs": [
        {
          "internalType": "address",
          "name": "owner",
          "type": "address"
        },
        {
          "internalType": "address",
          "name": "spender",
          "type": "address"
        }
      ],
      "name": "allowance",
      "outputs": [
        {
          "internalType": "uint256",
          "name": "",
          "type": "uint256"
        }
      ],
      "stateMutability": "view",
      "type": "function"
    },
    {
      "inputs": [
        {
          "internalType": "address",
          "name": "spender",
          "type": "address"
        },
        {
          "internalType": "uint256",
          "name": "amount",
          "type": "uint256"
        }
      ],
      "name": "approve",
      "outputs": [
        {
          "internalType": "bool",
          "name": "",
          "type": "bool"
        }
      ],
      "stateMutability": "nonpayable",
      "type": "function"
    },
    {
      "inputs": [],
      "name": "approveAllDaiTokensForStaking",
      "outputs": [],
      "stateMutability": "nonpayable",
      "type": "function"
    },
    {
      "inputs": [
        {
          "internalType": "address",
          "name": "account",
          "type": "address"
        }
      ],
      "name": "balanceOf",
      "outputs": [
        {
          "internalType": "uint256",
          "name": "",
          "type": "uint256"
        }
      ],
      "stateMutability": "view",
      "type": "function"
    },
    {
      "inputs": [],
      "name": "bmiDaiStakingAddress",
      "outputs": [
        {
          "internalType": "address",
          "name": "",
          "type": "address"
        }
      ],
      "stateMutability": "view",
      "type": "function"
    },
    {
      "inputs": [
        {
          "internalType": "uint256",
          "name": "_durationSeconds",
          "type": "uint256"
        },
        {
          "internalType": "uint256",
          "name": "_coverTokens",
          "type": "uint256"
        }
      ],
      "name": "buyPolicy",
      "outputs": [],
      "stateMutability": "nonpayable",
      "type": "function"
    },
    {
      "inputs": [
        {
          "internalType": "address",
          "name": "_policyHolderAddr",
          "type": "address"
        },
        {
          "internalType": "uint256",
          "name": "_durationSeconds",
          "type": "uint256"
        },
        {
          "internalType": "uint256",
          "name": "_coverTokens",
          "type": "uint256"
        }
      ],
      "name": "buyPolicyFor",
      "outputs": [],
      "stateMutability": "nonpayable",
      "type": "function"
    },
    {
      "inputs": [],
      "name": "contractType",
      "outputs": [
        {
          "internalType": "enum IPolicyBookFabric.ContractType",
          "name": "",
          "type": "uint8"
        }
      ],
      "stateMutability": "view",
      "type": "function"
    },
    {
      "inputs": [],
      "name": "contractsRegistry",
      "outputs": [
        {
          "internalType": "contract ContractsRegistry",
          "name": "",
          "type": "address"
        }
      ],
      "stateMutability": "view",
      "type": "function"
    },
    {
      "inputs": [],
      "name": "daiToken",
      "outputs": [
        {
          "internalType": "contract IERC20",
          "name": "",
          "type": "address"
        }
      ],
      "stateMutability": "view",
      "type": "function"
    },
    {
      "inputs": [],
      "name": "decimals",
      "outputs": [
        {
          "internalType": "uint8",
          "name": "",
          "type": "uint8"
        }
      ],
      "stateMutability": "view",
      "type": "function"
    },
    {
      "inputs": [
        {
          "internalType": "address",
          "name": "spender",
          "type": "address"
        },
        {
          "internalType": "uint256",
          "name": "subtractedValue",
          "type": "uint256"
        }
      ],
      "name": "decreaseAllowance",
      "outputs": [
        {
          "internalType": "bool",
          "name": "",
          "type": "bool"
        }
      ],
      "stateMutability": "nonpayable",
      "type": "function"
    },
    {
      "inputs": [
        {
          "internalType": "uint256",
          "name": "_durationSeconds",
          "type": "uint256"
        },
        {
          "internalType": "uint256",
          "name": "_tokens",
          "type": "uint256"
        }
      ],
      "name": "getQuote",
      "outputs": [
        {
          "internalType": "uint256",
          "name": "_daiTokens",
          "type": "uint256"
        }
      ],
      "stateMutability": "view",
      "type": "function"
    },
    {
      "inputs": [
        {
          "internalType": "address",
          "name": "spender",
          "type": "address"
        },
        {
          "internalType": "uint256",
          "name": "addedValue",
          "type": "uint256"
        }
      ],
      "name": "increaseAllowance",
      "outputs": [
        {
          "internalType": "bool",
          "name": "",
          "type": "bool"
        }
      ],
      "stateMutability": "nonpayable",
      "type": "function"
    },
    {
      "inputs": [
        {
          "internalType": "contract ContractsRegistry",
          "name": "_contractsRegistry",
          "type": "address"
        }
      ],
      "name": "initRegistry",
      "outputs": [],
      "stateMutability": "nonpayable",
      "type": "function"
    },
    {
      "inputs": [],
      "name": "insuranceContractAddress",
      "outputs": [
        {
          "internalType": "address",
          "name": "",
          "type": "address"
        }
      ],
      "stateMutability": "view",
      "type": "function"
    },
    {
      "inputs": [],
      "name": "name",
      "outputs": [
        {
          "internalType": "string",
          "name": "",
          "type": "string"
        }
      ],
      "stateMutability": "view",
      "type": "function"
    },
    {
      "inputs": [],
      "name": "owner",
      "outputs": [
        {
          "internalType": "address",
          "name": "",
          "type": "address"
        }
      ],
      "stateMutability": "view",
      "type": "function"
    },
    {
      "inputs": [
        {
          "internalType": "address",
          "name": "",
          "type": "address"
        }
      ],
      "name": "policyHolders",
      "outputs": [
        {
          "internalType": "uint256",
          "name": "coverTokens",
          "type": "uint256"
        },
        {
          "internalType": "uint256",
          "name": "durationSeconds",
          "type": "uint256"
        }
      ],
      "stateMutability": "view",
      "type": "function"
    },
    {
      "inputs": [],
      "name": "quoteStrategy",
      "outputs": [
        {
          "internalType": "address",
          "name": "_quoteStrategy",
          "type": "address"
        }
      ],
      "stateMutability": "view",
      "type": "function"
    },
    {
      "inputs": [],
      "name": "renounceOwnership",
      "outputs": [],
      "stateMutability": "nonpayable",
      "type": "function"
    },
    {
      "inputs": [
        {
          "internalType": "uint256",
          "name": "_policyId",
          "type": "uint256"
        }
      ],
      "name": "rewardForUnclaimedExpiredPolicy",
      "outputs": [],
      "stateMutability": "nonpayable",
      "type": "function"
    },
    {
      "inputs": [
        {
          "internalType": "uint256",
          "name": "_offset",
          "type": "uint256"
        },
        {
          "internalType": "uint256",
          "name": "_limit",
          "type": "uint256"
        }
      ],
      "name": "shieldAssets",
      "outputs": [
        {
          "internalType": "uint256",
          "name": "_shieldAssetsCount",
          "type": "uint256"
        },
        {
          "internalType": "address[]",
          "name": "_shieldAssets",
          "type": "address[]"
        }
      ],
      "stateMutability": "view",
      "type": "function"
    },
    {
      "inputs": [],
      "name": "shieldAssetsCount",
      "outputs": [
        {
          "internalType": "uint256",
          "name": "_shieldAssetsCount",
          "type": "uint256"
        }
      ],
      "stateMutability": "view",
      "type": "function"
    },
    {
      "inputs": [
        {
          "internalType": "uint256",
          "name": "_offset",
          "type": "uint256"
        },
        {
          "internalType": "uint256",
          "name": "_limit",
          "type": "uint256"
        }
      ],
      "name": "shieldAssetsWithBalance",
      "outputs": [
        {
          "internalType": "uint256",
          "name": "_shieldAssetsCount",
          "type": "uint256"
        },
        {
          "internalType": "address[]",
          "name": "_shieldAssets",
          "type": "address[]"
        },
        {
          "internalType": "uint256[]",
          "name": "_shieldAssetBalance",
          "type": "uint256[]"
        }
      ],
      "stateMutability": "view",
      "type": "function"
    },
    {
      "inputs": [],
      "name": "stakingTokens",
      "outputs": [
        {
          "internalType": "contract ERC1155MintableBurnable",
          "name": "",
          "type": "address"
        }
      ],
      "stateMutability": "view",
      "type": "function"
    },
    {
      "inputs": [],
      "name": "stats",
      "outputs": [
        {
          "internalType": "string",
          "name": "_name",
          "type": "string"
        },
        {
          "internalType": "enum IPolicyBookFabric.ContractType",
          "name": "_contractType",
          "type": "uint8"
        },
        {
          "internalType": "uint256",
          "name": "_maxCapacities",
          "type": "uint256"
        },
        {
          "internalType": "uint256",
          "name": "_totalDaiLiquidity",
          "type": "uint256"
        },
        {
          "internalType": "uint256",
          "name": "_annualProfitYields",
          "type": "uint256"
        }
      ],
      "stateMutability": "view",
      "type": "function"
    },
    {
      "inputs": [],
      "name": "symbol",
      "outputs": [
        {
          "internalType": "string",
          "name": "",
          "type": "string"
        }
      ],
      "stateMutability": "view",
      "type": "function"
    },
    {
      "inputs": [],
      "name": "totalCoverTokens",
      "outputs": [
        {
          "internalType": "uint256",
          "name": "",
          "type": "uint256"
        }
      ],
      "stateMutability": "view",
      "type": "function"
    },
    {
      "inputs": [],
      "name": "totalLiquidity",
      "outputs": [
        {
          "internalType": "uint256",
          "name": "",
          "type": "uint256"
        }
      ],
      "stateMutability": "view",
      "type": "function"
    },
    {
      "inputs": [],
      "name": "totalSupply",
      "outputs": [
        {
          "internalType": "uint256",
          "name": "",
          "type": "uint256"
        }
      ],
      "stateMutability": "view",
      "type": "function"
    },
    {
      "inputs": [
        {
          "internalType": "address",
          "name": "recipient",
          "type": "address"
        },
        {
          "internalType": "uint256",
          "name": "amount",
          "type": "uint256"
        }
      ],
      "name": "transfer",
      "outputs": [
        {
          "internalType": "bool",
          "name": "",
          "type": "bool"
        }
      ],
      "stateMutability": "nonpayable",
      "type": "function"
    },
    {
      "inputs": [
        {
          "internalType": "address",
          "name": "sender",
          "type": "address"
        },
        {
          "internalType": "address",
          "name": "recipient",
          "type": "address"
        },
        {
          "internalType": "uint256",
          "name": "amount",
          "type": "uint256"
        }
      ],
      "name": "transferFrom",
      "outputs": [
        {
          "internalType": "bool",
          "name": "",
          "type": "bool"
        }
      ],
      "stateMutability": "nonpayable",
      "type": "function"
    },
    {
      "inputs": [],
      "name": "transferNFTMintingAndBurningOwnershipToStaking",
      "outputs": [],
      "stateMutability": "nonpayable",
      "type": "function"
    },
    {
      "inputs": [
        {
          "internalType": "address",
          "name": "newOwner",
          "type": "address"
        }
      ],
      "name": "transferOwnership",
      "outputs": [],
      "stateMutability": "nonpayable",
      "type": "function"
    },
    {
      "inputs": [
        {
          "internalType": "uint256",
          "name": "_tokensToWithdraw",
          "type": "uint256"
        }
      ],
      "name": "withdrawLiquidity",
      "outputs": [],
      "stateMutability": "nonpayable",
      "type": "function"
    },
    {
      "stateMutability": "payable",
      "type": "receive"
    },
    {
      "inputs": [
        {
          "internalType": "uint256",
          "name": "_daiInThePoolTotal",
          "type": "uint256"
        }
      ],
      "name": "setTotalLiquidity",
      "outputs": [],
      "stateMutability": "nonpayable",
      "type": "function"
    },
    {
      "inputs": [
        {
          "internalType": "uint256",
          "name": "_daiInThePoolBought",
          "type": "uint256"
        }
      ],
      "name": "setTotalCoverTokens",
      "outputs": [],
      "stateMutability": "nonpayable",
      "type": "function"
    }
  ],
  "bytecode": "0x60806040523480156200001157600080fd5b5060405162005dcb38038062005dcb833981016040819052620000349162000276565b8181604051806020016040528060008152506040518060200160405280600081525081816040516020016200006a9190620002c0565b60408051601f1981840301815291905281516200008f906003906020850190620001bc565b508051620000a5906004906020840190620001bc565b50506005805460ff19166012179055506000620000c1620001b8565b60058054610100600160a81b0319166101006001600160a01b03841690810291909117909155604051919250906000907f8be0079c531659141344cd1fd0a4f28419497f9722a3daafe3b4186f6b6457e0908290a350600880546001600160a01b0319166001600160a01b0386161780825584919060ff60a01b1916600160a01b8360038111156200014f57fe5b0217905550604051620001629062000251565b6200016d9062000311565b604051809103906000f0801580156200018a573d6000803e3d6000fd5b50600780546001600160a01b0319166001600160a01b03929092169190911790555062000322945050505050565b3390565b828054600181600116156101000203166002900490600052602060002090601f016020900481019282620001f457600085556200023f565b82601f106200020f57805160ff19168380011785556200023f565b828001600101855582156200023f579182015b828111156200023f57825182559160200191906001019062000222565b506200024d9291506200025f565b5090565b6130be8062002d0d83390190565b5b808211156200024d576000815560010162000260565b6000806040838503121562000289578182fd5b82516001600160a01b0381168114620002a0578283fd5b602084015190925060048110620002b5578182fd5b809150509250929050565b600065626d6944414960d01b82528251815b81811015620002f15760208186018101516006868401015201620002d2565b81811115620003035782600683860101525b509190910160060192915050565b602080825260009082015260400190565b6129db80620003326000396000f3fe6080604052600436106103175760003560e01c80638da5cb5b1161019a578063cb2ef6f7116100e1578063d98d0c7e1161008a578063efa1f98a11610064578063efa1f98a14610845578063f2fde38b14610865578063f60ff937146108855761031e565b8063d98d0c7e146107fb578063dd62ed3e14610810578063e98a04e1146108305761031e565b8063d0a43afd116100bb578063d0a43afd146107a0578063d12e56b4146107c0578063d80528ae146107d55761031e565b8063cb2ef6f714610754578063cbf5a55e14610776578063cfa8b3a81461078b5761031e565b8063aaf5eb6811610143578063bc5d198a1161011d578063bc5d198a1461070a578063be22f5461461071f578063c18c6057146107345761031e565b8063aaf5eb68146106cb578063b00455fd146106e0578063b653822f146106f55761031e565b80639effd687116101745780639effd68714610676578063a457c2d71461068b578063a9059cbb146106ab5761031e565b80638da5cb5b1461063757806395d89b411461064c5780639c590006146106615761031e565b8063395093511161025e57806370b68a2a11610207578063758af3ab116101e1578063758af3ab146105d457806379fac08c146105f45780637cd0fc9b146106225761031e565b806370b68a2a14610571578063715018a61461059f5780637234751b146105b45761031e565b8063561e795d11610238578063561e795d146105115780635da2460d1461053157806370a08231146105515761031e565b806339509351146104bc578063514ea9bd146104dc57806351c6590a146104f15761031e565b806315770f92116102c057806323b872dd1161029a57806323b872dd146104655780632c865d6c14610485578063313ce5671461049a5761031e565b806315770f921461040e57806318160ddd14610430578063188ff854146104455761031e565b80630a861f2a116102f15780630a861f2a1461039d5780630e82da53146103bd57806314c179c0146103ec5761031e565b806306fdde0314610323578063095ea7b31461034e57806309b7d94b1461037b5761031e565b3661031e57005b600080fd5b34801561032f57600080fd5b5061033861089a565b6040516103459190612545565b60405180910390f35b34801561035a57600080fd5b5061036e610369366004612296565b61094e565b604051610345919061252c565b34801561038757600080fd5b5061039b6103963660046123c0565b61096c565b005b3480156103a957600080fd5b5061039b6103b83660046123c0565b610971565b3480156103c957600080fd5b506103dd6103d83660046123d8565b610ae8565b60405161034593929190612763565b3480156103f857600080fd5b50610401610af4565b6040516103459190612494565b34801561041a57600080fd5b50610423610b03565b6040516103459190612739565b34801561043c57600080fd5b50610423610b09565b34801561045157600080fd5b5061036e610460366004612296565b610b0f565b34801561047157600080fd5b5061036e610480366004612256565b610b17565b34801561049157600080fd5b50610423610b9e565b3480156104a657600080fd5b506104af610ba3565b60405161034591906127cb565b3480156104c857600080fd5b5061036e6104d7366004612296565b610bac565b3480156104e857600080fd5b50610423610bfa565b3480156104fd57600080fd5b5061039b61050c3660046123c0565b610c09565b34801561051d57600080fd5b5061039b61052c3660046123c0565b610c16565b34801561053d57600080fd5b5061039b61054c3660046123d8565b610c1b565b34801561055d57600080fd5b5061042361056c3660046121e6565b610c2a565b34801561057d57600080fd5b5061059161058c3660046121e6565b610c45565b6040516103459291906127bd565b3480156105ab57600080fd5b5061039b610c5e565b3480156105c057600080fd5b5061039b6105cf3660046122c1565b610d34565b3480156105e057600080fd5b506104236105ef3660046123d8565b610d44565b34801561060057600080fd5b5061061461060f3660046123d8565b610d57565b604051610345929190612742565b34801561062e57600080fd5b50610401610b9e565b34801561064357600080fd5b50610401610d61565b34801561065857600080fd5b50610338610d75565b34801561066d57600080fd5b50610423610df4565b34801561068257600080fd5b50610401610e03565b34801561069757600080fd5b5061036e6106a6366004612296565b610e12565b3480156106b757600080fd5b5061036e6106c6366004612296565b610e7a565b3480156106d757600080fd5b50610423610e8e565b3480156106ec57600080fd5b5061039b610e9d565b34801561070157600080fd5b5061039b610ff0565b34801561071657600080fd5b506104236110e0565b34801561072b57600080fd5b506104016110e8565b34801561074057600080fd5b5061039b61074f3660046123c0565b610c13565b34801561076057600080fd5b506107696110f7565b6040516103459190612537565b34801561078257600080fd5b50610423611118565b34801561079757600080fd5b50610423611128565b3480156107ac57600080fd5b5061039b6107bb3660046121e6565b611138565b3480156107cc57600080fd5b5061040161148d565b3480156107e157600080fd5b506107ea61149c565b604051610345959493929190612558565b34801561080757600080fd5b506104016114e4565b34801561081c57600080fd5b5061042361082b36600461221e565b6114f3565b34801561083c57600080fd5b5061042361151e565b34801561085157600080fd5b5061039b610860366004612296565b61152e565b34801561087157600080fd5b5061039b6108803660046121e6565b611538565b34801561089157600080fd5b5061042361166a565b60038054604080516020601f60027fffffffffffffffffffffffffffffffffffffffffffffffffffffffffffffffff6101006001881615020190951694909404938401819004810282018101909252828152606093909290918301828280156109445780601f1061091957610100808354040283529160200191610944565b820191906000526020600020905b81548152906001019060200180831161092757829003601f168201915b5050505050905090565b600061096261095b611670565b8484611674565b5060015b92915050565b600b55565b8061097b33610c2a565b10156109a25760405162461bcd60e51b8152600401610999906126dc565b60405180910390fd5b600c54600b546109b29083611760565b10156109d05760405162461bcd60e51b81526004016109999061266e565b6009546040517fa9059cbb0000000000000000000000000000000000000000000000000000000081526000916001600160a01b03169063a9059cbb90610a1c90339086906004016124a8565b602060405180830381600087803b158015610a3657600080fd5b505af1158015610a4a573d6000803e3d6000fd5b505050506040513d601f19601f82011682018060405250810190610a6e91906122f5565b905080610a8d5760405162461bcd60e51b815260040161099990612602565b600b54610a9a9083611760565b600b55610aa733836117a2565b7fac927268ea9ae2e55027e6ab727fc2db8e3ea48c56c658223a1074567e4298c03383600b54604051610adc939291906124c1565b60405180910390a15050565b60006060809250925092565b6008546001600160a01b031681565b600b5481565b60025490565b600092915050565b6000610b2484848461189e565b610b9484610b30611670565b610b8f856040518060600160405280602881526020016128ef602891396001600160a01b038a16600090815260016020526040812090610b6e611670565b6001600160a01b0316815260208101919091526040016000205491906119f9565b611674565b5060019392505050565b600090565b60055460ff1690565b6000610962610bb9611670565b84610b8f8560016000610bca611670565b6001600160a01b03908116825260208083019390935260409182016000908120918c168152925290205490611a90565b6af8277896582678ac00000081565b610c133382611aea565b50565b600c55565b610c26338383611c05565b5050565b6001600160a01b031660009081526020819052604090205490565b600d602052600090815260409020805460019091015482565b610c66611670565b60055461010090046001600160a01b03908116911614610ccd576040805162461bcd60e51b815260206004820181905260248201527f4f776e61626c653a2063616c6c6572206973206e6f7420746865206f776e6572604482015290519081900360640190fd5b60055460405160009161010090046001600160a01b0316907f8be0079c531659141344cd1fd0a4f28419497f9722a3daafe3b4186f6b6457e0908390a3600580547fffffffffffffffffffffff0000000000000000000000000000000000000000ff169055565b610d3f838383611c05565b505050565b6000610d508383611de0565b9392505050565b5060009160609150565b60055461010090046001600160a01b031690565b60048054604080516020601f60027fffffffffffffffffffffffffffffffffffffffffffffffffffffffffffffffff6101006001881615020190951694909404938401819004810282018101909252828152606093909290918301828280156109445780601f1061091957610100808354040283529160200191610944565b6a295be96e6406697200000081565b600a546001600160a01b031681565b6000610962610e1f611670565b84610b8f856040518060600160405280602581526020016129816025913960016000610e49611670565b6001600160a01b03908116825260208083019390935260409182016000908120918d168152925290205491906119f9565b6000610962610e87611670565b848461189e565b6a084595161401484a00000081565b610ea5611670565b60055461010090046001600160a01b03908116911614610f0c576040805162461bcd60e51b815260206004820181905260248201527f4f776e61626c653a2063616c6c6572206973206e6f7420746865206f776e6572604482015290519081900360640190fd5b600954600a546040517f095ea7b30000000000000000000000000000000000000000000000000000000081526000926001600160a01b039081169263095ea7b392610f7f92909116907fffffffffffffffffffffffffffffffffffffffffffffffffffffffffffffffff906004016124a8565b602060405180830381600087803b158015610f9957600080fd5b505af1158015610fad573d6000803e3d6000fd5b505050506040513d601f19601f82011682018060405250810190610fd191906122f5565b905080610c135760405162461bcd60e51b8152600401610999906126a5565b610ff8611670565b60055461010090046001600160a01b0390811691161461105f576040805162461bcd60e51b815260206004820181905260248201527f4f776e61626c653a2063616c6c6572206973206e6f7420746865206f776e6572604482015290519081900360640190fd5b600754600a546040517ff2fde38b0000000000000000000000000000000000000000000000000000000081526001600160a01b039283169263f2fde38b926110ac92911690600401612494565b600060405180830381600087803b1580156110c657600080fd5b505af11580156110da573d6000803e3d6000fd5b50505050565b6301e1338081565b6009546001600160a01b031681565b60085474010000000000000000000000000000000000000000900460ff1681565b6b033b2e3c9fd0803ce800000081565b6b04d8c55aefb8c05b5c00000081565b611140611670565b60055461010090046001600160a01b039081169116146111a7576040805162461bcd60e51b815260206004820181905260248201527f4f776e61626c653a2063616c6c6572206973206e6f7420746865206f776e6572604482015290519081900360640190fd5b600680547fffffffffffffffffffffffff0000000000000000000000000000000000000000166001600160a01b038316908117909155604080517fa45611b60000000000000000000000000000000000000000000000000000000081529051633581777391839163a45611b691600480820192600092909190829003018186803b15801561123457600080fd5b505afa158015611248573d6000803e3d6000fd5b505050506040513d6000823e601f3d9081017fffffffffffffffffffffffffffffffffffffffffffffffffffffffffffffffe016820160405261128e9190810190612315565b6040518263ffffffff1660e01b81526004016112aa9190612545565b60206040518083038186803b1580156112c257600080fd5b505afa1580156112d6573d6000803e3d6000fd5b505050506040513d601f19601f820116820180604052508101906112fa9190612202565b600980547fffffffffffffffffffffffff0000000000000000000000000000000000000000166001600160a01b03928316179055600654604080517f3d2886a0000000000000000000000000000000000000000000000000000000008152905191909216916335817773918391633d2886a0916004808301926000929190829003018186803b15801561138c57600080fd5b505afa1580156113a0573d6000803e3d6000fd5b505050506040513d6000823e601f3d9081017fffffffffffffffffffffffffffffffffffffffffffffffffffffffffffffffe01682016040526113e69190810190612315565b6040518263ffffffff1660e01b81526004016114029190612545565b60206040518083038186803b15801561141a57600080fd5b505afa15801561142e573d6000803e3d6000fd5b505050506040513d601f19601f820116820180604052508101906114529190612202565b600a80547fffffffffffffffffffffffff0000000000000000000000000000000000000000166001600160a01b039290921691909117905550565b6007546001600160a01b031681565b60606000806000806114ac61089a565b600854600c54600b5492987401000000000000000000000000000000000000000090920460ff16975082039550909350600092509050565b6006546001600160a01b031681565b6001600160a01b03918216600090815260016020908152604080832093909416825291909152205490565b6b024306c4097859c43c00000081565b610c268282611aea565b611540611670565b60055461010090046001600160a01b039081169116146115a7576040805162461bcd60e51b815260206004820181905260248201527f4f776e61626c653a2063616c6c6572206973206e6f7420746865206f776e6572604482015290519081900360640190fd5b6001600160a01b0381166115ec5760405162461bcd60e51b81526004018080602001828103825260268152602001806128606026913960400191505060405180910390fd5b6005546040516001600160a01b0380841692610100900416907f8be0079c531659141344cd1fd0a4f28419497f9722a3daafe3b4186f6b6457e090600090a3600580546001600160a01b03909216610100027fffffffffffffffffffffff0000000000000000000000000000000000000000ff909216919091179055565b600c5481565b3390565b6001600160a01b0383166116b95760405162461bcd60e51b815260040180806020018281038252602481526020018061295d6024913960400191505060405180910390fd5b6001600160a01b0382166116fe5760405162461bcd60e51b81526004018080602001828103825260228152602001806128866022913960400191505060405180910390fd5b6001600160a01b03808416600081815260016020908152604080832094871680845294825291829020859055815185815291517f8c5be1e5ebec7d5bd14f71427d1e84f3dd0314c0f7b2291e5b200ac8c7c3b9259281900390910190a3505050565b6000610d5083836040518060400160405280601e81526020017f536166654d6174683a207375627472616374696f6e206f766572666c6f7700008152506119f9565b6001600160a01b0382166117e75760405162461bcd60e51b81526004018080602001828103825260218152602001806129176021913960400191505060405180910390fd5b6117f382600083610d3f565b6118308160405180606001604052806022815260200161283e602291396001600160a01b03851660009081526020819052604090205491906119f9565b6001600160a01b0383166000908152602081905260409020556002546118569082611760565b6002556040805182815290516000916001600160a01b038516917fddf252ad1be2c89b69c2b068fc378daa952ba7f163c4a11628f55a4df523b3ef9181900360200190a35050565b6001600160a01b0383166118e35760405162461bcd60e51b81526004018080602001828103825260258152602001806129386025913960400191505060405180910390fd5b6001600160a01b0382166119285760405162461bcd60e51b815260040180806020018281038252602381526020018061281b6023913960400191505060405180910390fd5b611933838383610d3f565b611970816040518060600160405280602681526020016128a8602691396001600160a01b03861660009081526020819052604090205491906119f9565b6001600160a01b03808516600090815260208190526040808220939093559084168152205461199f9082611a90565b6001600160a01b038084166000818152602081815260409182902094909455805185815290519193928716927fddf252ad1be2c89b69c2b068fc378daa952ba7f163c4a11628f55a4df523b3ef92918290030190a3505050565b60008184841115611a885760405162461bcd60e51b81526004018080602001828103825283818151815260200191508051906020019080838360005b83811015611a4d578181015183820152602001611a35565b50505050905090810190601f168015611a7a5780820380516001836020036101000a031916815260200191505b509250505060405180910390fd5b505050900390565b600082820183811015610d50576040805162461bcd60e51b815260206004820152601b60248201527f536166654d6174683a206164646974696f6e206f766572666c6f770000000000604482015290519081900360640190fd5b6009546040517f23b872dd0000000000000000000000000000000000000000000000000000000081526000916001600160a01b0316906323b872dd90611b38908690309087906004016124e2565b602060405180830381600087803b158015611b5257600080fd5b505af1158015611b66573d6000803e3d6000fd5b505050506040513d601f19601f82011682018060405250810190611b8a91906122f5565b905080611ba95760405162461bcd60e51b815260040161099990612602565b600b54611bb69083611a90565b600b55611bc38383611efa565b7f06239653922ac7bea6aa2b19dc486b9361821d37712eb796adfd38d81de278ca8383600b54604051611bf8939291906124c1565b60405180910390a1505050565b611c0d6121cc565b506001600160a01b0383166000908152600d60209081526040918290208251808401909352805483526001015490820181905215611c5d5760405162461bcd60e51b815260040161099990612639565b600c54611c6a9083611a90565b600b541015611c8b5760405162461bcd60e51b81526004016109999061266e565b6000611c978484611de0565b83835260208084018681526001600160a01b0388166000908152600d9092526040909120845181559051600190910155600c54909150611cd79084611a90565b600c556009546040517f23b872dd0000000000000000000000000000000000000000000000000000000081526000916001600160a01b0316906323b872dd90611d28908990309087906004016124e2565b602060405180830381600087803b158015611d4257600080fd5b505af1158015611d56573d6000803e3d6000fd5b505050506040513d601f19601f82011682018060405250810190611d7a91906122f5565b905080611d995760405162461bcd60e51b815260040161099990612602565b7f1cd728a6e764ed0dcddb6e5b88d736a4a8d2a0d420ca373588f7a1109e18663f868584600c54604051611dd09493929190612506565b60405180910390a1505050505050565b6000600b54611dfa83600c54611a9090919063ffffffff16565b1115611e185760405162461bcd60e51b8152600401610999906125cd565b6000600b5411611e3a5760405162461bcd60e51b815260040161099990612596565b6000611e75600b54611e6f6a084595161401484a000000606402611e6987600c54611a9090919063ffffffff16565b90611fea565b90612043565b905060006b024306c4097859c43c000000821015611e9d57611e9682612085565b9050611ea9565b611ea6826120ac565b90505b611ebe816a295be96e64066972000000612150565b90506000611ed46301e13380611e6f8885611fea565b9050611ef06b033b2e3c9fd0803ce8000000611e6f8784611fea565b9695505050505050565b6001600160a01b038216611f55576040805162461bcd60e51b815260206004820152601f60248201527f45524332303a206d696e7420746f20746865207a65726f206164647265737300604482015290519081900360640190fd5b611f6160008383610d3f565b600254611f6e9082611a90565b6002556001600160a01b038216600090815260208190526040902054611f949082611a90565b6001600160a01b0383166000818152602081815260408083209490945583518581529351929391927fddf252ad1be2c89b69c2b068fc378daa952ba7f163c4a11628f55a4df523b3ef9281900390910190a35050565b600082611ff957506000610966565b8282028284828161200657fe5b0414610d505760405162461bcd60e51b81526004018080602001828103825260218152602001806128ce6021913960400191505060405180910390fd5b6000610d5083836040518060400160405280601a81526020017f536166654d6174683a206469766973696f6e206279207a65726f000000000000815250612167565b60006109666b024306c4097859c43c000000611e6f846af8277896582678ac000000611fea565b6000806120ff6120d46b033b2e3c9fd0803ce80000006b024306c4097859c43c000000611760565b611e6f6120ed866b024306c4097859c43c000000611760565b6a084595161401484a00000090611fea565b9050610d5061213e6a084595161401484a000000611e6f6121376b04d8c55aefb8c05b5c0000006af8277896582678ac000000611760565b8590611fea565b6af8277896582678ac00000090611a90565b6000818310156121605781610d50565b5090919050565b600081836121b65760405162461bcd60e51b8152602060048201818152835160248401528351909283926044909101919085019080838360008315611a4d578181015183820152602001611a35565b5060008385816121c257fe5b0495945050505050565b604051806040016040528060008152602001600081525090565b6000602082840312156121f7578081fd5b8135610d5081612805565b600060208284031215612213578081fd5b8151610d5081612805565b60008060408385031215612230578081fd5b823561223b81612805565b9150602083013561224b81612805565b809150509250929050565b60008060006060848603121561226a578081fd5b833561227581612805565b9250602084013561228581612805565b929592945050506040919091013590565b600080604083850312156122a8578182fd5b82356122b381612805565b946020939093013593505050565b6000806000606084860312156122d5578283fd5b83356122e081612805565b95602085013595506040909401359392505050565b600060208284031215612306578081fd5b81518015158114610d50578182fd5b600060208284031215612326578081fd5b815167ffffffffffffffff8082111561233d578283fd5b818401915084601f830112612350578283fd5b81518181111561235c57fe5b60405160207fffffffffffffffffffffffffffffffffffffffffffffffffffffffffffffffe0601f840116820101818110848211171561239857fe5b6040528181528382016020018710156123af578485fd5b611ef08260208301602087016127d9565b6000602082840312156123d1578081fd5b5035919050565b600080604083850312156123ea578182fd5b50508035926020909101359150565b6000815180845260208085019450808401835b838110156124315781516001600160a01b03168752958201959082019060010161240c565b509495945050505050565b6004811061244657fe5b9052565b600081518084526124628160208601602086016127d9565b601f017fffffffffffffffffffffffffffffffffffffffffffffffffffffffffffffffe0169290920160200192915050565b6001600160a01b0391909116815260200190565b6001600160a01b03929092168252602082015260400190565b6001600160a01b039390931683526020830191909152604082015260600190565b6001600160a01b039384168152919092166020820152604081019190915260600190565b6001600160a01b0394909416845260208401929092526040830152606082015260800190565b901515815260200190565b60208101610966828461243c565b600060208252610d50602083018461244a565b600060a0825261256b60a083018861244a565b905061257a602083018761243c565b8460408301528360608301528260808301529695505050505050565b60208082526011908201527f54686520706f6f6c20697320656d707479000000000000000000000000000000604082015260600190565b6020808252818101527f526571756972696e67206d6f7265207468616e20746865726520657869737473604082015260600190565b6020808252601d908201527f4661696c656420746f207472616e736665722044414920746f6b656e73000000604082015260600190565b6020808252818101527f54686520706f6c69637920686f6c64657220616c726561647920657869737473604082015260600190565b6020808252601e908201527f4e6f7420656e6f75676820617661696c61626c65206c69717569646974790000604082015260600190565b6020808252601c908201527f4661696c656420746f20617070726f76652044414920746f6b656e7300000000604082015260600190565b6020808252603f908201527f54686520616d6f756e7420746f2062652077697468647261776e20697320677260408201527f6561746572207468616e20746865206465706f736974656420616d6f756e7400606082015260800190565b90815260200190565b60008382526040602083015261275b60408301846123f9565b949350505050565b6000848252602060608184015261277d60608401866123f9565b8381036040850152845180825282860191830190845b818110156127af57835183529284019291840191600101612793565b509098975050505050505050565b918252602082015260400190565b60ff91909116815260200190565b60005b838110156127f45781810151838201526020016127dc565b838111156110da5750506000910152565b6001600160a01b0381168114610c1357600080fdfe45524332303a207472616e7366657220746f20746865207a65726f206164647265737345524332303a206275726e20616d6f756e7420657863656564732062616c616e63654f776e61626c653a206e6577206f776e657220697320746865207a65726f206164647265737345524332303a20617070726f766520746f20746865207a65726f206164647265737345524332303a207472616e7366657220616d6f756e7420657863656564732062616c616e6365536166654d6174683a206d756c7469706c69636174696f6e206f766572666c6f7745524332303a207472616e7366657220616d6f756e74206578636565647320616c6c6f77616e636545524332303a206275726e2066726f6d20746865207a65726f206164647265737345524332303a207472616e736665722066726f6d20746865207a65726f206164647265737345524332303a20617070726f76652066726f6d20746865207a65726f206164647265737345524332303a2064656372656173656420616c6c6f77616e63652062656c6f77207a65726fa26469706673582212204e22fc0cdee169651d5806245fd15195f4a791eb25cefc51dcc3684dd10aa93f64736f6c6343000704003360806040523480156200001157600080fd5b50604051620030be380380620030be833981016040819052620000349162000226565b80620000476301ffc9a760e01b620000d8565b62000052816200015d565b62000064636cdb3d1360e11b620000d8565b620000766303a24d0760e21b620000d8565b5060006200008362000176565b600880546001600160a01b0319166001600160a01b038316908117909155604051919250906000907f8be0079c531659141344cd1fd0a4f28419497f9722a3daafe3b4186f6b6457e0908290a35050620002e5565b6001600160e01b0319808216141562000138576040805162461bcd60e51b815260206004820152601c60248201527f4552433136353a20696e76616c696420696e7465726661636520696400000000604482015290519081900360640190fd5b6001600160e01b0319166000908152602081905260409020805460ff19166001179055565b8051620001729060079060208401906200017a565b5050565b3390565b828054600181600116156101000203166002900490600052602060002090601f016020900481019282620001b25760008555620001fd565b82601f10620001cd57805160ff1916838001178555620001fd565b82800160010185558215620001fd579182015b82811115620001fd578251825591602001919060010190620001e0565b506200020b9291506200020f565b5090565b5b808211156200020b576000815560010162000210565b6000602080838503121562000239578182fd5b82516001600160401b038082111562000250578384fd5b818501915085601f83011262000264578384fd5b8151818111156200027157fe5b604051601f8201601f19168101850183811182821017156200028f57fe5b6040528181528382018501881015620002a6578586fd5b8592505b81831015620002c95783830185015181840186015291840191620002aa565b81831115620002da57858583830101525b979650505050505050565b612dc980620002f56000396000f3fe608060405234801561001057600080fd5b50600436106101505760003560e01c80636b20c454116100cd578063e985e9c511610081578063f2fde38b11610066578063f2fde38b146102b0578063f5298aca146102c3578063f5b100ea146102d657610150565b8063e985e9c51461028a578063f242432a1461029d57610150565b8063731133e9116100b2578063731133e91461025c5780638da5cb5b1461026f578063a22cb4651461027757610150565b80636b20c45414610241578063715018a61461025457610150565b80631dcb46f6116101245780632d8a746e116101095780632d8a746e146101ee5780632eb2c2d61461020e5780634e1273f41461022157610150565b80631dcb46f6146101c65780631f7fdffa146101d957610150565b8062fdd58e1461015557806301ffc9a71461017e5780630e89341c1461019e57806318160ddd146101be575b600080fd5b610168610163366004612333565b6102e9565b6040516101759190612b62565b60405180910390f35b61019161018c3660046124a2565b610345565b604051610175919061268b565b6101b16101ac3660046124da565b610380565b6040516101759190612696565b610168610436565b6101686101d4366004612333565b610448565b6101ec6101e7366004612264565b610471565b005b6102016101fc3660046124da565b6104ed565b6040516101759190612595565b6101ec61021c3660046120ea565b610515565b61023461022f3660046123e1565b610791565b604051610175919061264a565b6101ec61024f3660046121f3565b6108d1565b6101ec61094b565b6101ec61026a36600461238e565b610a17565b610201610a8d565b6101ec6102853660046122f9565b610a9c565b6101916102983660046120b8565b610b88565b6101ec6102ab366004612190565b610bb6565b6101ec6102be36600461209e565b610dac565b6101ec6102d136600461235c565b610ecf565b6101686102e436600461209e565b610f44565b60006001600160a01b03831661031a5760405162461bcd60e51b815260040161031190612763565b60405180910390fd5b5060008181526001602090815260408083206001600160a01b03861684529091529020545b92915050565b7fffffffff00000000000000000000000000000000000000000000000000000000811660009081526020819052604090205460ff165b919050565b60078054604080516020601f60027fffffffffffffffffffffffffffffffffffffffffffffffffffffffffffffffff61010060018816150201909516949094049384018190048102820181019092528281526060939092909183018282801561042a5780601f106103ff5761010080835404028352916020019161042a565b820191906000526020600020905b81548152906001019060200180831161040d57829003601f168201915b50505050509050919050565b60006104426005610f89565b90505b90565b6001600160a01b038216600090815260046020526040812061046a9083610f94565b9392505050565b610479610fa0565b6008546001600160a01b039081169116146104db576040805162461bcd60e51b815260206004820181905260248201527f4f776e61626c653a2063616c6c6572206973206e6f7420746865206f776e6572604482015290519081900360640190fd5b6104e784848484610fa4565b50505050565b600061033f826040518060600160405280602a8152602001612d40602a9139600591906111ff565b81518351146105365760405162461bcd60e51b815260040161031190612aa8565b6001600160a01b03841661055c5760405162461bcd60e51b81526004016103119061287a565b610564610fa0565b6001600160a01b0316856001600160a01b0316148061058a575061058a85610298610fa0565b6105a65760405162461bcd60e51b8152600401610311906128d7565b60006105b0610fa0565b90506105c0818787878787610789565b60005b84518110156107235760008582815181106105da57fe5b6020026020010151905060008583815181106105f257fe5b6020026020010151905061060582611214565b1561065e576001600160a01b038916600090815260046020526040902061062c9083611221565b506001600160a01b038816600090815260046020526040902061064f908361122d565b5061065c6005838a611239565b505b6106c1816040518060600160405280602a8152602001612d6a602a91396001600086815260200190815260200160002060008d6001600160a01b03166001600160a01b031681526020019081526020016000205461124f9092919063ffffffff16565b60008381526001602090815260408083206001600160a01b038e811685529252808320939093558a16815220546106f890826112e6565b60009283526001602081815260408086206001600160a01b038d1687529091529093205550016105c3565b50846001600160a01b0316866001600160a01b0316826001600160a01b03167f4a39dc06d4c0dbc64b70af90fd698a233a518aa5d07e595d983b8c0526c8f7fb878760405161077392919061265d565b60405180910390a4610789818787878787611340565b505050505050565b606081518351146107b45760405162461bcd60e51b815260040161031190612a4b565b6060835167ffffffffffffffff811180156107ce57600080fd5b506040519080825280602002602001820160405280156107f8578160200160208202803683370190505b50905060005b84518110156108c95760006001600160a01b031685828151811061081e57fe5b60200260200101516001600160a01b0316141561084d5760405162461bcd60e51b8152600401610311906127c0565b6001600085838151811061085d57fe5b60200260200101518152602001908152602001600020600086838151811061088157fe5b60200260200101516001600160a01b03166001600160a01b03168152602001908152602001600020548282815181106108b657fe5b60209081029190910101526001016107fe565b509392505050565b6108d9610fa0565b6008546001600160a01b0390811691161461093b576040805162461bcd60e51b815260206004820181905260248201527f4f776e61626c653a2063616c6c6572206973206e6f7420746865206f776e6572604482015290519081900360640190fd5b6109468383836114bf565b505050565b610953610fa0565b6008546001600160a01b039081169116146109b5576040805162461bcd60e51b815260206004820181905260248201527f4f776e61626c653a2063616c6c6572206973206e6f7420746865206f776e6572604482015290519081900360640190fd5b6008546040516000916001600160a01b0316907f8be0079c531659141344cd1fd0a4f28419497f9722a3daafe3b4186f6b6457e0908390a3600880547fffffffffffffffffffffffff0000000000000000000000000000000000000000169055565b610a1f610fa0565b6008546001600160a01b03908116911614610a81576040805162461bcd60e51b815260206004820181905260248201527f4f776e61626c653a2063616c6c6572206973206e6f7420746865206f776e6572604482015290519081900360640190fd5b6104e7848484846116c8565b6008546001600160a01b031690565b816001600160a01b0316610aae610fa0565b6001600160a01b03161415610ad55760405162461bcd60e51b8152600401610311906129ee565b8060026000610ae2610fa0565b6001600160a01b0390811682526020808301939093526040918201600090812091871680825291909352912080547fffffffffffffffffffffffffffffffffffffffffffffffffffffffffffffff001692151592909217909155610b44610fa0565b6001600160a01b03167f17307eab39ab6107e8899845ad3d59bd9653f200f220920489ca2b5937696c3183604051610b7c919061268b565b60405180910390a35050565b6001600160a01b03918216600090815260026020908152604080832093909416825291909152205460ff1690565b6001600160a01b038416610bdc5760405162461bcd60e51b81526004016103119061287a565b610be4610fa0565b6001600160a01b0316856001600160a01b03161480610c0a5750610c0a85610298610fa0565b610c265760405162461bcd60e51b81526004016103119061281d565b6000610c30610fa0565b9050610c50818787610c4188611857565b610c4a88611857565b87610789565b610c5984611214565b15610cb2576001600160a01b0386166000908152600460205260409020610c809085611221565b506001600160a01b0385166000908152600460205260409020610ca3908561122d565b50610cb060058587611239565b505b610cf9836040518060600160405280602a8152602001612d6a602a913960008781526001602090815260408083206001600160a01b038d168452909152902054919061124f565b60008581526001602090815260408083206001600160a01b038b81168552925280832093909355871681522054610d3090846112e6565b60008581526001602090815260408083206001600160a01b03808b168086529190935292819020939093559151909188811691908416907fc3d58168c5ae7397731d063d5bbf3d657854427343f4c083240f7aacaa2d0f6290610d969089908990612b6b565b60405180910390a461078981878787878761189b565b610db4610fa0565b6008546001600160a01b03908116911614610e16576040805162461bcd60e51b815260206004820181905260248201527f4f776e61626c653a2063616c6c6572206973206e6f7420746865206f776e6572604482015290519081900360640190fd5b6001600160a01b038116610e5b5760405162461bcd60e51b8152600401808060200182810382526026815260200180612cf66026913960400191505060405180910390fd5b6008546040516001600160a01b038084169216907f8be0079c531659141344cd1fd0a4f28419497f9722a3daafe3b4186f6b6457e090600090a3600880547fffffffffffffffffffffffff0000000000000000000000000000000000000000166001600160a01b0392909216919091179055565b610ed7610fa0565b6008546001600160a01b03908116911614610f39576040805162461bcd60e51b815260206004820181905260248201527f4f776e61626c653a2063616c6c6572206973206e6f7420746865206f776e6572604482015290519081900360640190fd5b6109468383836119d4565b60006001600160a01b038216610f6c5760405162461bcd60e51b815260040161031190612763565b6001600160a01b038216600090815260046020526040902061033f905b600061033f82611b3e565b600061046a8383611b42565b3390565b6001600160a01b038416610fca5760405162461bcd60e51b815260040161031190612b05565b8151835114610feb5760405162461bcd60e51b815260040161031190612aa8565b6000610ff5610fa0565b905061100681600087878787610789565b60005b845181101561119057600085828151811061102057fe5b6020026020010151905084828151811061103657fe5b602002602001015160001480611052575061105081611214565b155b61106e5760405162461bcd60e51b815260040161031190612991565b84828151811061107a57fe5b60200260200101516001148015611097575061109581611ba6565b155b156110cd576001600160a01b03871660009081526004602052604090206110be908261122d565b506110cb60058289611239565b505b60008181526001602090815260408083206001600160a01b038b1684529091529020548551611119919087908590811061110357fe5b60200260200101516112e690919063ffffffff16565b60008281526001602090815260408083206001600160a01b038c16845290915290205584516111789086908490811061114e57fe5b602002602001015160036000848152602001908152602001600020546112e690919063ffffffff16565b60009182526003602052604090912055600101611009565b50846001600160a01b031660006001600160a01b0316826001600160a01b03167f4a39dc06d4c0dbc64b70af90fd698a233a518aa5d07e595d983b8c0526c8f7fb87876040516111e192919061265d565b60405180910390a46111f881600087878787611340565b5050505050565b600061120c848484611bba565b949350505050565b600061033f600583611c47565b600061046a8383611c53565b600061046a8383611d37565b600061120c84846001600160a01b038516611d81565b600081848411156112de5760405162461bcd60e51b81526004018080602001828103825283818151815260200191508051906020019080838360005b838110156112a357818101518382015260200161128b565b50505050905090810190601f1680156112d05780820380516001836020036101000a031916815260200191505b509250505060405180910390fd5b505050900390565b60008282018381101561046a576040805162461bcd60e51b815260206004820152601b60248201527f536166654d6174683a206164646974696f6e206f766572666c6f770000000000604482015290519081900360640190fd5b611352846001600160a01b0316611e18565b15610789576040517fbc197c810000000000000000000000000000000000000000000000000000000081526001600160a01b0385169063bc197c81906113a490899089908890889088906004016125a9565b602060405180830381600087803b1580156113be57600080fd5b505af192505050801561140c575060408051601f3d9081017fffffffffffffffffffffffffffffffffffffffffffffffffffffffffffffffe0168201909252611409918101906124be565b60015b61145557611418612bc1565b80611423575061143d565b8060405162461bcd60e51b81526004016103119190612696565b60405162461bcd60e51b8152600401610311906126a9565b7fffffffff0000000000000000000000000000000000000000000000000000000081167fbc197c8100000000000000000000000000000000000000000000000000000000146114b65760405162461bcd60e51b815260040161031190612706565b50505050505050565b6001600160a01b0383166114e55760405162461bcd60e51b815260040161031190612934565b80518251146115065760405162461bcd60e51b815260040161031190612aa8565b6000611510610fa0565b905061153081856000868660405180602001604052806000815250610789565b60005b835181101561166957600084828151811061154a57fe5b6020026020010151905061158b8160046000896001600160a01b03166001600160a01b0316815260200190815260200160002061122190919063ffffffff16565b50611597600582611e1e565b506115f28483815181106115a757fe5b6020026020010151604051806060016040528060248152602001612d1c6024913960008481526001602090815260408083206001600160a01b038d168452909152902054919061124f565b60008281526001602090815260408083206001600160a01b038b16845290915290205583516116519085908490811061162757fe5b60200260200101516003600084815260200190815260200160002054611e2a90919063ffffffff16565b60009182526003602052604090912055600101611533565b5060006001600160a01b0316846001600160a01b0316826001600160a01b03167f4a39dc06d4c0dbc64b70af90fd698a233a518aa5d07e595d983b8c0526c8f7fb86866040516116ba92919061265d565b60405180910390a450505050565b6001600160a01b0384166116ee5760405162461bcd60e51b815260040161031190612b05565b81158061170157506116ff83611214565b155b61171d5760405162461bcd60e51b815260040161031190612991565b6000611727610fa0565b905061173981600087610c4188611857565b82600114801561174f575061174d84611ba6565b155b15611785576001600160a01b0385166000908152600460205260409020611776908561122d565b5061178360058587611239565b505b60008481526001602090815260408083206001600160a01b03891684529091529020546117b290846112e6565b60008581526001602090815260408083206001600160a01b038a1684528252808320939093558682526003905220546117eb90846112e6565b6000858152600360205260408082209290925590516001600160a01b038088169291908416907fc3d58168c5ae7397731d063d5bbf3d657854427343f4c083240f7aacaa2d0f62906118409089908990612b6b565b60405180910390a46111f88160008787878761189b565b60408051600180825281830190925260609182919060208083019080368337019050509050828160008151811061188a57fe5b602090810291909101015292915050565b6118ad846001600160a01b0316611e18565b15610789576040517ff23a6e610000000000000000000000000000000000000000000000000000000081526001600160a01b0385169063f23a6e61906118ff9089908990889088908890600401612607565b602060405180830381600087803b15801561191957600080fd5b505af1925050508015611967575060408051601f3d9081017fffffffffffffffffffffffffffffffffffffffffffffffffffffffffffffffe0168201909252611964918101906124be565b60015b61197357611418612bc1565b7fffffffff0000000000000000000000000000000000000000000000000000000081167ff23a6e6100000000000000000000000000000000000000000000000000000000146114b65760405162461bcd60e51b815260040161031190612706565b6001600160a01b0383166119fa5760405162461bcd60e51b815260040161031190612934565b6000611a04610fa0565b9050611a3481856000611a1687611857565b611a1f87611857565b60405180602001604052806000815250610789565b8115611a6a576001600160a01b0384166000908152600460205260409020611a5c9084611221565b50611a68600584611e1e565b505b611ab182604051806060016040528060248152602001612d1c6024913960008681526001602090815260408083206001600160a01b038b168452909152902054919061124f565b60008481526001602090815260408083206001600160a01b0389168452825280832093909355858252600390522054611aea9083611e2a565b6000848152600360205260408082209290925590516001600160a01b0386811691908416907fc3d58168c5ae7397731d063d5bbf3d657854427343f4c083240f7aacaa2d0f62906116ba9088908890612b6b565b5490565b81546000908210611b845760405162461bcd60e51b8152600401808060200182810382526022815260200180612cd46022913960400191505060405180910390fd5b826000018281548110611b9357fe5b9060005260206000200154905092915050565b600090815260036020526040902054151590565b60008281526001840160205260408120548281611c185760405162461bcd60e51b81526020600482018181528351602484015283519092839260449091019190850190808383600083156112a357818101518382015260200161128b565b50846000016001820381548110611c2b57fe5b9060005260206000209060020201600101549150509392505050565b600061046a8383611e6c565b60008181526001830160205260408120548015611d2d5783547fffffffffffffffffffffffffffffffffffffffffffffffffffffffffffffffff8083019190810190600090879083908110611ca457fe5b9060005260206000200154905080876000018481548110611cc157fe5b600091825260208083209091019290925582815260018981019092526040902090840190558654879080611cf157fe5b6001900381819060005260206000200160009055905586600101600087815260200190815260200160002060009055600194505050505061033f565b600091505061033f565b6000611d438383611e6c565b611d795750815460018181018455600084815260208082209093018490558454848252828601909352604090209190915561033f565b50600061033f565b600082815260018401602052604081205480611de657505060408051808201825283815260208082018481528654600181810189556000898152848120955160029093029095019182559151908201558654868452818801909252929091205561046a565b82856000016001830381548110611df957fe5b906000526020600020906002020160010181905550600091505061046a565b3b151590565b600061046a8383611e84565b600061046a83836040518060400160405280601e81526020017f536166654d6174683a207375627472616374696f6e206f766572666c6f77000081525061124f565b60009081526001919091016020526040902054151590565b60008181526001830160205260408120548015611d2d5783547fffffffffffffffffffffffffffffffffffffffffffffffffffffffffffffffff8083019190810190600090879083908110611ed557fe5b9060005260206000209060020201905080876000018481548110611ef557fe5b600091825260208083208454600290930201918255600193840154918401919091558354825289830190526040902090840190558654879080611f3457fe5b6000828152602080822060027fffffffffffffffffffffffffffffffffffffffffffffffffffffffffffffffff909401938402018281556001908101839055929093558881528982019092526040822091909155945061033f9350505050565b80356001600160a01b038116811461037b57600080fd5b600082601f830112611fbb578081fd5b8135611fce611fc982612b9d565b612b79565b818152915060208083019084810181840286018201871015611fef57600080fd5b60005b8481101561200e57813584529282019290820190600101611ff2565b505050505092915050565b600082601f830112612029578081fd5b813567ffffffffffffffff81111561203d57fe5b61206e60207fffffffffffffffffffffffffffffffffffffffffffffffffffffffffffffffe0601f84011601612b79565b915080825283602082850101111561208557600080fd5b8060208401602084013760009082016020015292915050565b6000602082840312156120af578081fd5b61046a82611f94565b600080604083850312156120ca578081fd5b6120d383611f94565b91506120e160208401611f94565b90509250929050565b600080600080600060a08688031215612101578081fd5b61210a86611f94565b945061211860208701611f94565b9350604086013567ffffffffffffffff80821115612134578283fd5b61214089838a01611fab565b94506060880135915080821115612155578283fd5b61216189838a01611fab565b93506080880135915080821115612176578283fd5b5061218388828901612019565b9150509295509295909350565b600080600080600060a086880312156121a7578081fd5b6121b086611f94565b94506121be60208701611f94565b93506040860135925060608601359150608086013567ffffffffffffffff8111156121e7578182fd5b61218388828901612019565b600080600060608486031215612207578283fd5b61221084611f94565b9250602084013567ffffffffffffffff8082111561222c578384fd5b61223887838801611fab565b9350604086013591508082111561224d578283fd5b5061225a86828701611fab565b9150509250925092565b60008060008060808587031215612279578384fd5b61228285611f94565b9350602085013567ffffffffffffffff8082111561229e578485fd5b6122aa88838901611fab565b945060408701359150808211156122bf578384fd5b6122cb88838901611fab565b935060608701359150808211156122e0578283fd5b506122ed87828801612019565b91505092959194509250565b6000806040838503121561230b578182fd5b61231483611f94565b915060208301358015158114612328578182fd5b809150509250929050565b60008060408385031215612345578182fd5b61234e83611f94565b946020939093013593505050565b600080600060608486031215612370578283fd5b61237984611f94565b95602085013595506040909401359392505050565b600080600080608085870312156123a3578384fd5b6123ac85611f94565b93506020850135925060408501359150606085013567ffffffffffffffff8111156123d5578182fd5b6122ed87828801612019565b600080604083850312156123f3578182fd5b823567ffffffffffffffff8082111561240a578384fd5b818501915085601f83011261241d578384fd5b813561242b611fc982612b9d565b80828252602080830192508086018a82838702890101111561244b578889fd5b8896505b848710156124745761246081611f94565b84526001969096019592810192810161244f565b50909650870135935050508082111561248b578283fd5b5061249885828601611fab565b9150509250929050565b6000602082840312156124b3578081fd5b813561046a81612ca2565b6000602082840312156124cf578081fd5b815161046a81612ca2565b6000602082840312156124eb578081fd5b5035919050565b6000815180845260208085019450808401835b8381101561252157815187529582019590820190600101612505565b509495945050505050565b60008151808452815b8181101561255157602081850181015186830182015201612535565b818111156125625782602083870101525b50601f017fffffffffffffffffffffffffffffffffffffffffffffffffffffffffffffffe0169290920160200192915050565b6001600160a01b0391909116815260200190565b60006001600160a01b03808816835280871660208401525060a060408301526125d560a08301866124f2565b82810360608401526125e781866124f2565b905082810360808401526125fb818561252c565b98975050505050505050565b60006001600160a01b03808816835280871660208401525084604083015283606083015260a0608083015261263f60a083018461252c565b979650505050505050565b60006020825261046a60208301846124f2565b60006040825261267060408301856124f2565b828103602084015261268281856124f2565b95945050505050565b901515815260200190565b60006020825261046a602083018461252c565b60208082526034908201527f455243313135353a207472616e7366657220746f206e6f6e204552433131353560408201527f526563656976657220696d706c656d656e746572000000000000000000000000606082015260800190565b60208082526028908201527f455243313135353a204552433131353552656365697665722072656a6563746560408201527f6420746f6b656e73000000000000000000000000000000000000000000000000606082015260800190565b6020808252602b908201527f455243313135353a2062616c616e636520717565727920666f7220746865207a60408201527f65726f2061646472657373000000000000000000000000000000000000000000606082015260800190565b60208082526031908201527f455243313135353a2062617463682062616c616e636520717565727920666f7260408201527f20746865207a65726f2061646472657373000000000000000000000000000000606082015260800190565b60208082526029908201527f455243313135353a2063616c6c6572206973206e6f74206f776e6572206e6f7260408201527f20617070726f7665640000000000000000000000000000000000000000000000606082015260800190565b60208082526025908201527f455243313135353a207472616e7366657220746f20746865207a65726f20616460408201527f6472657373000000000000000000000000000000000000000000000000000000606082015260800190565b60208082526032908201527f455243313135353a207472616e736665722063616c6c6572206973206e6f742060408201527f6f776e6572206e6f7220617070726f7665640000000000000000000000000000606082015260800190565b60208082526023908201527f455243313135353a206275726e2066726f6d20746865207a65726f206164647260408201527f6573730000000000000000000000000000000000000000000000000000000000606082015260800190565b60208082526021908201527f455243313135353a204e465420746f6b656e20616c7265616479206d696e746560408201527f6400000000000000000000000000000000000000000000000000000000000000606082015260800190565b60208082526029908201527f455243313135353a2073657474696e6720617070726f76616c2073746174757360408201527f20666f722073656c660000000000000000000000000000000000000000000000606082015260800190565b60208082526029908201527f455243313135353a206163636f756e747320616e6420696473206c656e67746860408201527f206d69736d617463680000000000000000000000000000000000000000000000606082015260800190565b60208082526028908201527f455243313135353a2069647320616e6420616d6f756e7473206c656e6774682060408201527f6d69736d61746368000000000000000000000000000000000000000000000000606082015260800190565b60208082526021908201527f455243313135353a206d696e7420746f20746865207a65726f2061646472657360408201527f7300000000000000000000000000000000000000000000000000000000000000606082015260800190565b90815260200190565b918252602082015260400190565b60405181810167ffffffffffffffff81118282101715612b9557fe5b604052919050565b600067ffffffffffffffff821115612bb157fe5b5060209081020190565b60e01c90565b600060443d1015612bd157610445565b600481823e6308c379a0612be58251612bbb565b14612bef57610445565b6040517ffffffffffffffffffffffffffffffffffffffffffffffffffffffffffffffffc3d016004823e80513d67ffffffffffffffff8160248401118184111715612c3d5750505050610445565b82840192508251915080821115612c575750505050610445565b503d83016020828401011115612c6f57505050610445565b601f017fffffffffffffffffffffffffffffffffffffffffffffffffffffffffffffffe016810160200160405291505090565b7fffffffff0000000000000000000000000000000000000000000000000000000081168114612cd057600080fd5b5056fe456e756d657261626c655365743a20696e646578206f7574206f6620626f756e64734f776e61626c653a206e6577206f776e657220697320746865207a65726f2061646472657373455243313135353a206275726e20616d6f756e7420657863656564732062616c616e6365455243313135353a206f776e657220717565727920666f72206e6f6e6578697374656e7420746f6b656e455243313135353a20696e73756666696369656e742062616c616e636520666f72207472616e73666572a2646970667358221220d850b4312276257d2a4d062bd988e1bd85039d6692f722801cd7bf5414930a4e64736f6c63430007040033",
  "immutableReferences": {},
  "source": "// SPDX-License-Identifier: MIT\npragma solidity ^0.7.4;\npragma experimental ABIEncoderV2;\n\nimport \"../PolicyBook.sol\";\n\ncontract PolicyBookMock is PolicyBook {\n  constructor(address _insuranceContract, IPolicyBookFabric.ContractType _contractType)\n    PolicyBook(_insuranceContract, _contractType, \"\", \"\") {}\n\n  function setTotalLiquidity(uint256 _daiInThePoolTotal) public {\n    totalLiquidity = _daiInThePoolTotal;\n  }\n\n  function setTotalCoverTokens(uint256 _daiInThePoolBought) public {\n    totalCoverTokens = _daiInThePoolBought;\n  }\n}\n",
  "sourcePath": "/home/artem/Projects/Distributed_Lab/Applicature/bridgemutual-core/contracts/mock/PolicyBookMock.sol",
  "compiler": {
    "name": "solc",
    "version": "0.7.4+commit.3f05b770.Emscripten.clang"
  },
  "schemaVersion": "3.3.3",
  "updatedAt": "2021-01-25T18:13:51.833Z",
  "devdoc": {
    "kind": "dev",
    "methods": {
      "addLiquidity(uint256)": {
        "params": {
          "_liqudityAmount": "is amount of DAI tokens to secure"
        }
      },
      "addLiquidityFor(address,uint256)": {
        "params": {
          "_liqudityAmount": "is amount of DAI tokens to secure",
          "_liquidityHolderAddr": "is address of address to assign cover"
        }
      },
      "addShieldTokens(address,uint256)": {
        "params": {
          "_tokenAddress": "is address of reward token to add",
          "_tokensAmount": "is max amount of reward to operate on"
        },
        "returns": {
          "_success": "is indicator if purchase is successful, it will throw exception if unsuccessful"
        }
      },
      "allowance(address,address)": {
        "details": "See {IERC20-allowance}."
      },
      "approve(address,uint256)": {
        "details": "See {IERC20-approve}. Requirements: - `spender` cannot be the zero address."
      },
      "balanceOf(address)": {
        "details": "See {IERC20-balanceOf}."
      },
      "buyPolicy(uint256,uint256)": {
        "params": {
          "_coverTokens": "is number of tokens to cover  ",
          "_durationSeconds": "is number of seconds to cover"
        }
      },
      "buyPolicyFor(address,uint256,uint256)": {
        "params": {
          "_coverTokens": "is number of tokens to cover  ",
          "_durationSeconds": "is number of seconds to cover",
          "_policyHolderAddr": "is address of address to assign cover"
        }
      },
      "decimals()": {
        "details": "Returns the number of decimals used to get its user representation. For example, if `decimals` equals `2`, a balance of `505` tokens should be displayed to a user as `5,05` (`505 / 10 ** 2`). Tokens usually opt for a value of 18, imitating the relationship between Ether and Wei. This is the value {ERC20} uses, unless {_setupDecimals} is called. NOTE: This information is only used for _display_ purposes: it in no way affects any of the arithmetic of the contract, including {IERC20-balanceOf} and {IERC20-transfer}."
      },
      "decreaseAllowance(address,uint256)": {
        "details": "Atomically decreases the allowance granted to `spender` by the caller. This is an alternative to {approve} that can be used as a mitigation for problems described in {IERC20-approve}. Emits an {Approval} event indicating the updated allowance. Requirements: - `spender` cannot be the zero address. - `spender` must have allowance for the caller of at least `subtractedValue`."
      },
      "getQuote(uint256,uint256)": {
        "params": {
          "_durationSeconds": "is number of seconds to cover",
          "_tokens": "is number of tokens to cover"
        },
        "returns": {
          "_daiTokens": "is amount of DAI policy costs"
        }
      },
      "increaseAllowance(address,uint256)": {
        "details": "Atomically increases the allowance granted to `spender` by the caller. This is an alternative to {approve} that can be used as a mitigation for problems described in {IERC20-approve}. Emits an {Approval} event indicating the updated allowance. Requirements: - `spender` cannot be the zero address."
      },
      "name()": {
        "details": "Returns the name of the token."
      },
      "owner()": {
        "details": "Returns the address of the current owner."
      },
      "quoteStrategy()": {
        "returns": {
          "_quoteStrategy": "is address of Quote strategy contract used to calculate quote"
        }
      },
      "renounceOwnership()": {
        "details": "Leaves the contract without owner. It will not be possible to call `onlyOwner` functions anymore. Can only be called by the current owner. NOTE: Renouncing ownership will leave the contract without an owner, thereby removing any functionality that is only available to the owner."
      },
      "rewardForUnclaimedExpiredPolicy(uint256)": {
        "params": {
          "_policyId": "is id of policy to get reward for, reward will be sent to policy holder"
        }
      },
      "shieldAssets(uint256,uint256)": {
        "params": {
          "_limit": "is number of policy books to returns from _offset",
          "_offset": "is starting item in array to return array from"
        },
        "returns": {
          "_shieldAssets": "is addresses of shield assets, that will be distributed to Policy givers",
          "_shieldAssetsCount": "is number of added shield assets"
        }
      },
      "shieldAssetsCount()": {
        "returns": {
          "_shieldAssetsCount": "is number of added shield assets"
        }
      },
      "shieldAssetsWithBalance(uint256,uint256)": {
        "params": {
          "_limit": "is number of policy books to returns from _offset",
          "_offset": "is starting item in array to return array from"
        },
        "returns": {
          "_shieldAssetBalance": "is tokens amount of shield assets allocated to Policy Book,  to get specific shield asset balance lookup _shieldAssetBalances by same index as of shield asset",
          "_shieldAssets": "is addresses of shield assets, that will be distributed to Policy givers",
          "_shieldAssetsCount": "is number of added shield assets"
        }
      },
      "stats()": {
        "returns": {
          "_annualProfitYields": "is its APY",
          "_contractType": "is a type of insured contract",
          "_maxCapacities": "is a max token amount that a user can buy",
          "_name": "is the name of PolicyBook",
          "_totalDaiLiquidity": "is PolicyBook's liquidity"
        }
      },
      "symbol()": {
        "details": "Returns the symbol of the token, usually a shorter version of the name."
      },
      "totalSupply()": {
        "details": "See {IERC20-totalSupply}."
      },
      "transfer(address,uint256)": {
        "details": "See {IERC20-transfer}. Requirements: - `recipient` cannot be the zero address. - the caller must have a balance of at least `amount`."
      },
      "transferFrom(address,address,uint256)": {
        "details": "See {IERC20-transferFrom}. Emits an {Approval} event indicating the updated allowance. This is not required by the EIP. See the note at the beginning of {ERC20}. Requirements: - `sender` and `recipient` cannot be the zero address. - `sender` must have a balance of at least `amount`. - the caller must have allowance for ``sender``'s tokens of at least `amount`."
      },
      "transferOwnership(address)": {
        "details": "Transfers ownership of the contract to a new account (`newOwner`). Can only be called by the current owner."
      },
      "withdrawLiquidity(uint256)": {
        "params": {
          "_tokensToWithdraw": "is amount of DAI tokens to withdraw"
        }
      }
    },
    "version": 1
  },
  "userdoc": {
    "kind": "user",
    "methods": {
      "addLiquidity(uint256)": {
        "notice": "Let user to add liquidity by supplying DAI, access: ANY"
      },
      "addLiquidityFor(address,uint256)": {
        "notice": "Let user to add liqiudity for another user by supplying DAI, access: ANY"
      },
      "addShieldTokens(address,uint256)": {
        "notice": "Adds shield tokens to contract, access: ANY"
      },
      "buyPolicy(uint256,uint256)": {
        "notice": "Let user to buy policy by supplying DAI, access: ANY"
      },
      "buyPolicyFor(address,uint256,uint256)": {
        "notice": "Let user to buy policy for another user by supplying DAI, access: ANY"
      },
      "contractType()": {
        "notice": "Returns type of contract this PolicyBook covers, access: ANY"
      },
      "getQuote(uint256,uint256)": {
        "notice": "Let user to calculate policy cost in DAI, access: ANY"
      },
      "insuranceContractAddress()": {
        "notice": "Returns address of contract this PolicyBook covers, access: ANY"
      },
      "quoteStrategy()": {
        "notice": "Returns quote strategy defined during creation of PolicyBook, access: ANY"
      },
      "rewardForUnclaimedExpiredPolicy(uint256)": {
        "notice": "Let user to claim rewards for unclaimed policy cost in DAI, access: ANY"
      },
      "shieldAssets(uint256,uint256)": {
        "notice": "Returns list of shield assets added to PolicyBook, access: ANY"
      },
      "shieldAssetsCount()": {
        "notice": "Returns number of shield assets added, access: ANY"
      },
      "shieldAssetsWithBalance(uint256,uint256)": {
        "notice": "Returns list of shield assets added with tokens amount allocated to Policy Book, access: ANY"
      },
      "stats()": {
        "notice": "Getting stats, access: ANY"
      },
      "withdrawLiquidity(uint256)": {
        "notice": "Let user to withdraw deposited liqiudity, access: ANY"
      }
    },
    "version": 1
  }
}