{
  "contractName": "PolicyBookRegistry",
  "abi": [
    {
      "anonymous": false,
      "inputs": [
        {
          "indexed": false,
          "internalType": "address",
          "name": "insured",
          "type": "address"
        },
        {
          "indexed": false,
          "internalType": "address",
          "name": "at",
          "type": "address"
        }
      ],
      "name": "Added",
      "type": "event"
    },
    {
      "anonymous": false,
      "inputs": [
        {
          "indexed": true,
          "internalType": "address",
          "name": "previousOwner",
          "type": "address"
        },
        {
          "indexed": true,
          "internalType": "address",
          "name": "newOwner",
          "type": "address"
        }
      ],
      "name": "OwnershipTransferred",
      "type": "event"
    },
    {
      "inputs": [],
      "name": "contractsRegistry",
      "outputs": [
        {
          "internalType": "contract ContractsRegistry",
          "name": "",
          "type": "address"
        }
      ],
      "stateMutability": "view",
      "type": "function",
      "constant": true
    },
    {
      "inputs": [],
      "name": "owner",
      "outputs": [
        {
          "internalType": "address",
          "name": "",
          "type": "address"
        }
      ],
      "stateMutability": "view",
      "type": "function",
      "constant": true
    },
    {
      "inputs": [
        {
          "internalType": "uint256",
          "name": "",
          "type": "uint256"
        }
      ],
      "name": "policies",
      "outputs": [
        {
          "internalType": "address",
          "name": "",
          "type": "address"
        }
      ],
      "stateMutability": "view",
      "type": "function",
      "constant": true
    },
    {
      "inputs": [
        {
          "internalType": "address",
          "name": "",
          "type": "address"
        }
      ],
      "name": "policiesByAddress",
      "outputs": [
        {
          "internalType": "address",
          "name": "",
          "type": "address"
        }
      ],
      "stateMutability": "view",
      "type": "function",
      "constant": true
    },
    {
      "inputs": [],
      "name": "policyBookFabricAddress",
      "outputs": [
        {
          "internalType": "address",
          "name": "",
          "type": "address"
        }
      ],
      "stateMutability": "view",
      "type": "function",
      "constant": true
    },
    {
      "inputs": [],
      "name": "renounceOwnership",
      "outputs": [],
      "stateMutability": "nonpayable",
      "type": "function"
    },
    {
      "inputs": [
        {
          "internalType": "address",
          "name": "newOwner",
          "type": "address"
        }
      ],
      "name": "transferOwnership",
      "outputs": [],
      "stateMutability": "nonpayable",
      "type": "function"
    },
    {
      "inputs": [
        {
          "internalType": "contract ContractsRegistry",
          "name": "_contractsRegistry",
          "type": "address"
        }
      ],
      "name": "initRegistry",
      "outputs": [],
      "stateMutability": "nonpayable",
      "type": "function"
    },
    {
      "inputs": [
        {
          "internalType": "address",
          "name": "_insuredContract",
          "type": "address"
        },
        {
          "internalType": "address",
          "name": "_policyBook",
          "type": "address"
        }
      ],
      "name": "add",
      "outputs": [],
      "stateMutability": "nonpayable",
      "type": "function"
    },
    {
      "inputs": [],
      "name": "count",
      "outputs": [
        {
          "internalType": "uint256",
          "name": "_policyBooksCount",
          "type": "uint256"
        }
      ],
      "stateMutability": "view",
      "type": "function",
      "constant": true
    },
    {
      "inputs": [
        {
          "internalType": "uint256",
          "name": "_offset",
          "type": "uint256"
        },
        {
          "internalType": "uint256",
          "name": "_limit",
          "type": "uint256"
        }
      ],
      "name": "list",
      "outputs": [
        {
          "internalType": "uint256",
          "name": "_policyBooksCount",
          "type": "uint256"
        },
        {
          "internalType": "address[]",
          "name": "_policyBooks",
          "type": "address[]"
        }
      ],
      "stateMutability": "view",
      "type": "function",
      "constant": true
    },
    {
      "inputs": [
        {
          "internalType": "uint256",
          "name": "_offset",
          "type": "uint256"
        },
        {
          "internalType": "uint256",
          "name": "_limit",
          "type": "uint256"
        }
      ],
      "name": "listWithStats",
      "outputs": [
        {
          "internalType": "uint256",
          "name": "_policyBooksCount",
          "type": "uint256"
        },
        {
          "internalType": "address[]",
          "name": "_policyBooks",
          "type": "address[]"
        },
        {
          "internalType": "string[]",
          "name": "_names",
          "type": "string[]"
        },
        {
          "internalType": "enum IPolicyBookFabric.ContractType[]",
          "name": "_contractTypes",
          "type": "uint8[]"
        },
        {
          "internalType": "uint256[]",
          "name": "_maxCapacities",
          "type": "uint256[]"
        },
        {
          "internalType": "uint256[]",
          "name": "_totalDaiLiquidity",
          "type": "uint256[]"
        },
        {
          "internalType": "uint256[]",
          "name": "_annualProfitYields",
          "type": "uint256[]"
        }
      ],
      "stateMutability": "view",
      "type": "function",
      "constant": true
    },
    {
      "inputs": [
        {
          "internalType": "address",
          "name": "_contract",
          "type": "address"
        }
      ],
      "name": "policyBookFor",
      "outputs": [
        {
          "internalType": "address",
          "name": "_policyBook",
          "type": "address"
        }
      ],
      "stateMutability": "view",
      "type": "function",
      "constant": true
    },
    {
      "inputs": [
        {
          "internalType": "address[]",
          "name": "_policyBooks",
          "type": "address[]"
        }
      ],
      "name": "stats",
      "outputs": [
        {
          "internalType": "string[]",
          "name": "_names",
          "type": "string[]"
        },
        {
          "internalType": "enum IPolicyBookFabric.ContractType[]",
          "name": "_contractTypes",
          "type": "uint8[]"
        },
        {
          "internalType": "uint256[]",
          "name": "_maxCapacities",
          "type": "uint256[]"
        },
        {
          "internalType": "uint256[]",
          "name": "_totalDaiLiquidity",
          "type": "uint256[]"
        },
        {
          "internalType": "uint256[]",
          "name": "_annualProfitYields",
          "type": "uint256[]"
        }
      ],
      "stateMutability": "view",
      "type": "function",
      "constant": true
    },
    {
      "inputs": [
        {
          "internalType": "address[]",
          "name": "_insuredContracts",
          "type": "address[]"
        }
      ],
      "name": "statsByInsuredContracts",
      "outputs": [
        {
          "internalType": "string[]",
          "name": "_names",
          "type": "string[]"
        },
        {
          "internalType": "enum IPolicyBookFabric.ContractType[]",
          "name": "_contractTypes",
          "type": "uint8[]"
        },
        {
          "internalType": "uint256[]",
          "name": "_maxCapacities",
          "type": "uint256[]"
        },
        {
          "internalType": "uint256[]",
          "name": "_totalDaiLiquidity",
          "type": "uint256[]"
        },
        {
          "internalType": "uint256[]",
          "name": "_annualProfitYields",
          "type": "uint256[]"
        }
      ],
      "stateMutability": "view",
      "type": "function",
      "constant": true
    }
  ],
  "bytecode": "0x608060405234801561001057600080fd5b50600061001b61006a565b600080546001600160a01b0319166001600160a01b0383169081178255604051929350917f8be0079c531659141344cd1fd0a4f28419497f9722a3daafe3b4186f6b6457e0908290a35061006e565b3390565b61172a8061007d6000396000f3fe608060405234801561001057600080fd5b50600436106100f55760003560e01c80638da5cb5b11610097578063d98d0c7e11610066578063d98d0c7e146101e5578063da82de5c146101ed578063f10ed7a314610211578063f2fde38b14610224576100f5565b80638da5cb5b14610191578063c85b4e1414610199578063d0a43afd146101bf578063d3e89483146101d2576100f5565b806350fd7367116100d357806350fd73671461014b57806352c28fab1461016c5780636436d82a14610181578063715018a614610189576100f5565b806306661abd146100fa5780631d514ec114610118578063217c155214610138575b600080fd5b610102610237565b60405161010f91906115aa565b60405180910390f35b61012b6101263660046110f6565b61023d565b60405161010f9190611428565b61012b6101463660046110f6565b610265565b61015e6101593660046112cd565b610293565b60405161010f9291906115b3565b61017f61017a36600461112e565b61038f565b005b61012b61051b565b61017f610537565b61012b610637565b6101ac6101a73660046112cd565b610653565b60405161010f97969594939291906115cc565b61017f6101cd3660046110f6565b61068d565b61012b6101e03660046112b5565b6108b0565b61012b6108e7565b6102006101fb366004611166565b610903565b60405161010f959493929190611470565b61020061021f366004611166565b610c22565b61017f6102323660046110f6565b610ecf565b60035490565b60056020526000908152604090205473ffffffffffffffffffffffffffffffffffffffff1681565b73ffffffffffffffffffffffffffffffffffffffff808216600090815260056020526040902054165b919050565b6000606060006102ba856102b460035487890161105990919063ffffffff16565b90611071565b905084810360608167ffffffffffffffff811180156102d857600080fd5b50604051908082528060200260200182016040528015610302578160200160208202803683370190505b509050865b83811015610382576004818154811061031c57fe5b9060005260206000200160009054906101000a900473ffffffffffffffffffffffffffffffffffffffff16828983038151811061035557fe5b73ffffffffffffffffffffffffffffffffffffffff90921660209283029190910190910152600101610307565b5090969095509350505050565b60025473ffffffffffffffffffffffffffffffffffffffff1633146103e9576040517f08c379a00000000000000000000000000000000000000000000000000000000081526004016103e0906114f0565b60405180910390fd5b73ffffffffffffffffffffffffffffffffffffffff8281166000908152600560205260409020541615610448576040517f08c379a00000000000000000000000000000000000000000000000000000000081526004016103e09061154d565b6004805460018181019092557f8a35acfbc15ff81a39ae7d344fd709f28e8600b4aa8c65c6b64bfe7fe36bd19b01805473ffffffffffffffffffffffffffffffffffffffff8085167fffffffffffffffffffffffff000000000000000000000000000000000000000092831681179093558516600090815260056020526040908190208054909216909217905560038054909201909155517f938c63ac3d228b23f6bee7618fefc6790522e338ac202c958a2ea9eb9706c5d19061050f9084908490611449565b60405180910390a15050565b60025473ffffffffffffffffffffffffffffffffffffffff1681565b61053f611081565b60005473ffffffffffffffffffffffffffffffffffffffff9081169116146105c857604080517f08c379a000000000000000000000000000000000000000000000000000000000815260206004820181905260248201527f4f776e61626c653a2063616c6c6572206973206e6f7420746865206f776e6572604482015290519081900360640190fd5b6000805460405173ffffffffffffffffffffffffffffffffffffffff909116907f8be0079c531659141344cd1fd0a4f28419497f9722a3daafe3b4186f6b6457e0908390a3600080547fffffffffffffffffffffffff0000000000000000000000000000000000000000169055565b60005473ffffffffffffffffffffffffffffffffffffffff1690565b60006060806060806060806106688989610293565b909750955061067686610c22565b9a9d999c50929a5090989097919650945092505050565b610695611081565b60005473ffffffffffffffffffffffffffffffffffffffff90811691161461071e57604080517f08c379a000000000000000000000000000000000000000000000000000000000815260206004820181905260248201527f4f776e61626c653a2063616c6c6572206973206e6f7420746865206f776e6572604482015290519081900360640190fd5b600180547fffffffffffffffffffffffff00000000000000000000000000000000000000001673ffffffffffffffffffffffffffffffffffffffff8381169190911791829055604080517f634f0eab00000000000000000000000000000000000000000000000000000000815290519290911691633581777391839163634f0eab91600480820192600092909190829003018186803b1580156107c057600080fd5b505afa1580156107d4573d6000803e3d6000fd5b505050506040513d6000823e601f3d908101601f191682016040526107fc919081019061120e565b6040518263ffffffff1660e01b815260040161081891906114dd565b60206040518083038186803b15801561083057600080fd5b505afa158015610844573d6000803e3d6000fd5b505050506040513d601f19601f820116820180604052508101906108689190611112565b600280547fffffffffffffffffffffffff00000000000000000000000000000000000000001673ffffffffffffffffffffffffffffffffffffffff9290921691909117905550565b600481815481106108c057600080fd5b60009182526020909120015473ffffffffffffffffffffffffffffffffffffffff16905081565b60015473ffffffffffffffffffffffffffffffffffffffff1681565b606080606080606080865167ffffffffffffffff8111801561092457600080fd5b5060405190808252806020026020018201604052801561095857816020015b60608152602001906001900390816109435790505b5090506060875167ffffffffffffffff8111801561097557600080fd5b5060405190808252806020026020018201604052801561099f578160200160208202803683370190505b5090506060885167ffffffffffffffff811180156109bc57600080fd5b506040519080825280602002602001820160405280156109e6578160200160208202803683370190505b5090506060895167ffffffffffffffff81118015610a0357600080fd5b50604051908082528060200260200182016040528015610a2d578160200160208202803683370190505b50905060608a5167ffffffffffffffff81118015610a4a57600080fd5b50604051908082528060200260200182016040528015610a74578160200160208202803683370190505b50905060005b8b51811015610c0f57600560008d8381518110610a9357fe5b602002602001015173ffffffffffffffffffffffffffffffffffffffff1673ffffffffffffffffffffffffffffffffffffffff16815260200190815260200160002060009054906101000a900473ffffffffffffffffffffffffffffffffffffffff1673ffffffffffffffffffffffffffffffffffffffff1663d80528ae6040518163ffffffff1660e01b815260040160006040518083038186803b158015610b3b57600080fd5b505afa158015610b4f573d6000803e3d6000fd5b505050506040513d6000823e601f3d908101601f19168201604052610b779190810190611249565b8a8681518110610b8357fe5b602002602001018a8781518110610b9657fe5b602002602001018a8881518110610ba957fe5b602002602001018a8981518110610bbc57fe5b602002602001018a8a81518110610bcf57fe5b60200260200101858152508581525085815250856003811115610bee57fe5b6003811115610bf957fe5b905294909452505060019092019150610a7a9050565b50939a9299509097509550909350915050565b606080606080606080865167ffffffffffffffff81118015610c4357600080fd5b50604051908082528060200260200182016040528015610c7757816020015b6060815260200190600190039081610c625790505b5090506060875167ffffffffffffffff81118015610c9457600080fd5b50604051908082528060200260200182016040528015610cbe578160200160208202803683370190505b5090506060885167ffffffffffffffff81118015610cdb57600080fd5b50604051908082528060200260200182016040528015610d05578160200160208202803683370190505b5090506060895167ffffffffffffffff81118015610d2257600080fd5b50604051908082528060200260200182016040528015610d4c578160200160208202803683370190505b50905060608a5167ffffffffffffffff81118015610d6957600080fd5b50604051908082528060200260200182016040528015610d93578160200160208202803683370190505b50905060005b8b51811015610c0f578b8181518110610dae57fe5b602002602001015173ffffffffffffffffffffffffffffffffffffffff1663d80528ae6040518163ffffffff1660e01b815260040160006040518083038186803b158015610dfb57600080fd5b505afa158015610e0f573d6000803e3d6000fd5b505050506040513d6000823e601f3d908101601f19168201604052610e379190810190611249565b8a8681518110610e4357fe5b602002602001018a8781518110610e5657fe5b602002602001018a8881518110610e6957fe5b602002602001018a8981518110610e7c57fe5b602002602001018a8a81518110610e8f57fe5b60200260200101858152508581525085815250856003811115610eae57fe5b6003811115610eb957fe5b905294909452505060019092019150610d999050565b610ed7611081565b60005473ffffffffffffffffffffffffffffffffffffffff908116911614610f6057604080517f08c379a000000000000000000000000000000000000000000000000000000000815260206004820181905260248201527f4f776e61626c653a2063616c6c6572206973206e6f7420746865206f776e6572604482015290519081900360640190fd5b73ffffffffffffffffffffffffffffffffffffffff8116610fcc576040517f08c379a00000000000000000000000000000000000000000000000000000000081526004018080602001828103825260268152602001806116cf6026913960400191505060405180910390fd5b6000805460405173ffffffffffffffffffffffffffffffffffffffff808516939216917f8be0079c531659141344cd1fd0a4f28419497f9722a3daafe3b4186f6b6457e091a3600080547fffffffffffffffffffffffff00000000000000000000000000000000000000001673ffffffffffffffffffffffffffffffffffffffff92909216919091179055565b6000818310611068578161106a565b825b9392505050565b600081831015611068578161106a565b3390565b803561028e816116a9565b600082601f8301126110a0578081fd5b815167ffffffffffffffff8111156110b457fe5b6110c76020601f19601f84011601611655565b91508082528360208285010111156110de57600080fd5b6110ef816020840160208601611679565b5092915050565b600060208284031215611107578081fd5b813561106a816116a9565b600060208284031215611123578081fd5b815161106a816116a9565b60008060408385031215611140578081fd5b823561114b816116a9565b9150602083013561115b816116a9565b809150509250929050565b60006020808385031215611178578182fd5b823567ffffffffffffffff8082111561118f578384fd5b818501915085601f8301126111a2578384fd5b8135818111156111ae57fe5b83810291506111be848301611655565b8181528481019084860184860187018a10156111d8578788fd5b8795505b83861015611201576111ed81611085565b8352600195909501949186019186016111dc565b5098975050505050505050565b60006020828403121561121f578081fd5b815167ffffffffffffffff811115611235578182fd5b61124184828501611090565b949350505050565b600080600080600060a08688031215611260578081fd5b855167ffffffffffffffff811115611276578182fd5b61128288828901611090565b955050602086015160048110611296578182fd5b6040870151606088015160809098015196999198509695945092505050565b6000602082840312156112c6578081fd5b5035919050565b600080604083850312156112df578182fd5b50508035926020909101359150565b6000815180845260208085019450808401835b8381101561133357815173ffffffffffffffffffffffffffffffffffffffff1687529582019590820190600101611301565b509495945050505050565b6000815180845260208085019450808401835b838110156113335781516004811061136557fe5b87529582019590820190600101611351565b60008282518085526020808601955080818302840101818601855b848110156113c057601f198684030189526113ae8383516113fc565b98840198925090830190600101611392565b5090979650505050505050565b6000815180845260208085019450808401835b83811015611333578151875295820195908201906001016113e0565b60008151808452611414816020860160208601611679565b601f01601f19169290920160200192915050565b73ffffffffffffffffffffffffffffffffffffffff91909116815260200190565b73ffffffffffffffffffffffffffffffffffffffff92831681529116602082015260400190565b600060a0825261148360a0830188611377565b8281036020840152611495818861133e565b905082810360408401526114a981876113cd565b905082810360608401526114bd81866113cd565b905082810360808401526114d181856113cd565b98975050505050505050565b60006020825261106a60208301846113fc565b60208082526025908201527f43616c6c6572206973206e6f74206120706f6c69637946616272696320636f6e60408201527f7472616374000000000000000000000000000000000000000000000000000000606082015260800190565b6020808252602e908201527f506f6c696379426f6f6b20666f722074686520636f6e7472616374206973206160408201527f6c72656164792063726561746564000000000000000000000000000000000000606082015260800190565b90815260200190565b60008382526040602083015261124160408301846112ee565b600088825260e060208301526115e560e08301896112ee565b82810360408401526115f78189611377565b9050828103606084015261160b818861133e565b9050828103608084015261161f81876113cd565b905082810360a084015261163381866113cd565b905082810360c084015261164781856113cd565b9a9950505050505050505050565b60405181810167ffffffffffffffff8111828210171561167157fe5b604052919050565b60005b8381101561169457818101518382015260200161167c565b838111156116a3576000848401525b50505050565b73ffffffffffffffffffffffffffffffffffffffff811681146116cb57600080fd5b5056fe4f776e61626c653a206e6577206f776e657220697320746865207a65726f2061646472657373a264697066735822122007c9ec756645b860ba01e13ad0c90e47404d07bbaf226f563976b553a1b4b2f264736f6c63430007040033",
  "immutableReferences": {},
  "source": "// SPDX-License-Identifier: MIT\npragma solidity ^0.7.4;\npragma experimental ABIEncoderV2;\n\nimport \"@openzeppelin/contracts/math/Math.sol\";\nimport \"@openzeppelin/contracts/access/Ownable.sol\";\n\nimport \"./interfaces/IPolicyBook.sol\";\nimport \"./interfaces/IPolicyBookRegistry.sol\";\n\nimport \"./ContractsRegistry.sol\";\n\ncontract PolicyBookRegistry is IPolicyBookRegistry, Ownable {\n  using Math for uint256;\n\n  ContractsRegistry public contractsRegistry;\n\n  address public policyBookFabricAddress;\n  uint256 private policyBooksCount;\n\n  address[] public policies;\n  mapping(address => address) public policiesByAddress;\n\n  event Added(address insured, address at);\n\n  modifier onlyPolicyBookFabric() {\n    require(msg.sender == policyBookFabricAddress, \"Caller is not a policyFabric contract\");\n    _;\n  }\n\n  function initRegistry(ContractsRegistry _contractsRegistry) external onlyOwner {\n    contractsRegistry = _contractsRegistry;\n\n    policyBookFabricAddress = contractsRegistry.getContract(contractsRegistry.getPolicyBookFabricName());\n  }\n\n  function add(address _insuredContract, address _policyBook) external override onlyPolicyBookFabric() {\n    require(policiesByAddress[_insuredContract] == address(0), \"PolicyBook for the contract is already created\");\n\n    policies.push(_policyBook);\n    policiesByAddress[_insuredContract] = _policyBook;\n    policyBooksCount++;\n\n    emit Added(_insuredContract, _policyBook);\n  }\n\n  function count() external view override returns (uint256 _policyBooksCount) {\n    return policyBooksCount;\n  }\n\n  function list(uint256 _offset, uint256 _limit)\n    public\n    view\n    override\n    returns (uint256 _policyBooksCount, address[] memory _policyBooks)\n  {\n    uint256 to = (_offset + _limit).min(policyBooksCount).max(_offset);\n    uint256 size = to - _offset;\n\n    address[] memory result = new address[](size);\n\n    for (uint256 i = _offset; i < to; i++) {\n      result[i - _offset] = policies[i];\n    }\n\n    return (size, result);\n  }\n\n  function listWithStats(uint256 _offset, uint256 _limit)\n    public\n    view\n    override\n    returns (\n      uint256 _policyBooksCount, \n      address[] memory _policyBooks,\n      string[] memory _names,\n      IPolicyBookFabric.ContractType[] memory _contractTypes,\n      uint256[] memory _maxCapacities,\n      uint256[] memory _totalDaiLiquidity,\n      uint256[] memory _annualProfitYields\n    )\n  {\n    (_policyBooksCount,\n    _policyBooks) = list(_offset, _limit);\n\n    (_names, \n    _contractTypes,\n    _maxCapacities,\n    _totalDaiLiquidity,\n    _annualProfitYields) = stats(_policyBooks);\n  }\n\n  function policyBookFor(address _contract) external view override returns (address _policyBook) {\n    return policiesByAddress[_contract];\n  }\n\n  function stats(address[] memory _policyBooks)\n    public\n    view\n    override\n    returns (\n      string[] memory _names,\n      IPolicyBookFabric.ContractType[] memory _contractTypes,\n      uint256[] memory _maxCapacities,\n      uint256[] memory _totalDaiLiquidity,\n      uint256[] memory _annualProfitYields\n    )\n  {\n    string[] memory names = new string[](_policyBooks.length);\n    IPolicyBookFabric.ContractType[] memory contractTypes = new IPolicyBookFabric.ContractType[](_policyBooks.length);\n    uint256[] memory maxCapacities = new uint256[](_policyBooks.length);\n    uint256[] memory totalDaiLiquidity = new uint256[](_policyBooks.length);\n    uint256[] memory annualProfitYields = new uint256[](_policyBooks.length);\n\n    // TODO APY\n    for (uint256 i = 0; i < _policyBooks.length; i++) {      \n      (names[i], \n      contractTypes[i],\n      maxCapacities[i],\n      totalDaiLiquidity[i],\n      annualProfitYields[i]) = IPolicyBook(_policyBooks[i]).stats();\n    }\n\n    return (names, contractTypes, maxCapacities, totalDaiLiquidity, annualProfitYields);\n  }\n\n  function statsByInsuredContracts(address[] memory _insuredContracts)\n    public\n    view\n    override\n    returns (      \n      string[] memory _names,\n      IPolicyBookFabric.ContractType[] memory _contractTypes,\n      uint256[] memory _maxCapacities,\n      uint256[] memory _totalDaiLiquidity,\n      uint256[] memory _annualProfitYields\n    )\n  {\n    string[] memory names = new string[](_insuredContracts.length);\n    IPolicyBookFabric.ContractType[] memory contractTypes = new IPolicyBookFabric.ContractType[](_insuredContracts.length);\n    uint256[] memory maxCapacities = new uint256[](_insuredContracts.length);\n    uint256[] memory totalDaiLiquidity = new uint256[](_insuredContracts.length);\n    uint256[] memory annualProfitYields = new uint256[](_insuredContracts.length);\n\n    // TODO APY\n    for (uint256 i = 0; i < _insuredContracts.length; i++) {\n      (names[i], \n      contractTypes[i],\n      maxCapacities[i],\n      totalDaiLiquidity[i],\n      annualProfitYields[i]) = IPolicyBook(policiesByAddress[_insuredContracts[i]]).stats();\n    }\n\n    return (names, contractTypes, maxCapacities, totalDaiLiquidity, annualProfitYields);\n  }\n}\n",
  "sourcePath": "/home/artem/Projects/Distributed_Lab/Applicature/bridgemutual-core/contracts/PolicyBookRegistry.sol",
  "compiler": {
    "name": "solc",
    "version": "0.7.4+commit.3f05b770.Emscripten.clang"
  },
  "schemaVersion": "3.3.3",
  "updatedAt": "2021-01-22T16:22:28.245Z",
  "networkType": "ethereum",
  "devdoc": {
    "kind": "dev",
    "methods": {
      "count()": {
        "returns": {
          "_policyBooksCount": "is number of PolicyBooks"
        }
      },
      "list(uint256,uint256)": {
        "returns": {
          "_policyBooks": "is array of registered PolicyBook addresses",
          "_policyBooksCount": "is count of returned registered PolicyBook addresses"
        }
      },
      "listWithStats(uint256,uint256)": {
        "returns": {
          "_annualProfitYields": "is an array of APYs",
          "_contractTypes": "is an array of insured contract types",
          "_maxCapacities": "is an array of max token amount that a user can buy",
          "_names": "is an array of PolicyBooks names",
          "_policyBooks": "is array of registered PolicyBook addresses",
          "_policyBooksCount": "is count of returned registered PolicyBook addresses",
          "_totalDaiLiquidity": "is an array of liquidities"
        }
      },
      "owner()": {
        "details": "Returns the address of the current owner."
      },
      "policyBookFor(address)": {
        "params": {
          "_contract": "is contract address to lookup for created IPolicyBook"
        },
        "returns": {
          "_policyBook": "is policy book address if exists for passed contract address, if not it will return address(0)"
        }
      },
      "renounceOwnership()": {
        "details": "Leaves the contract without owner. It will not be possible to call `onlyOwner` functions anymore. Can only be called by the current owner. NOTE: Renouncing ownership will leave the contract without an owner, thereby removing any functionality that is only available to the owner."
      },
      "stats(address[])": {
        "params": {
          "_policyBooks": "is list of PolicyBooks addresses"
        },
        "returns": {
          "_annualProfitYields": "is array of annual profit yields per PolicyBooks",
          "_contractTypes": "is array of insured contracts per PolicyBooks",
          "_maxCapacities": "is array of max capacities per PolicyBooks",
          "_names": "is array of names per PolicyBooks",
          "_totalDaiLiquidity": "is array of DAI liquidity per PolicyBooks"
        }
      },
      "statsByInsuredContracts(address[])": {
        "params": {
          "_insuredContracts": "is list of insuredContracts in registry"
        },
        "returns": {
          "_annualProfitYields": "is array of annual profit yields per PolicyBooks",
          "_contractTypes": "is array of insured contracts per PolicyBooks",
          "_maxCapacities": "is array of max capacities per PolicyBooks",
          "_names": "is array of names per PolicyBooks",
          "_totalDaiLiquidity": "is array of DAI liquidity per PolicyBooks"
        }
      },
      "transferOwnership(address)": {
        "details": "Transfers ownership of the contract to a new account (`newOwner`). Can only be called by the current owner."
      }
    },
    "version": 1
  },
  "userdoc": {
    "kind": "user",
    "methods": {
      "add(address,address)": {
        "notice": "Adds PolicyBook to registry, access: PolicyFabric"
      },
      "count()": {
        "notice": "Returns number of registered PolicyBooks, access: ANY"
      },
      "list(uint256,uint256)": {
        "notice": "Listing registered PolicyBooks, access: ANY"
      },
      "listWithStats(uint256,uint256)": {
        "notice": "Listing registered PolicyBooks, access: ANY"
      },
      "policyBookFor(address)": {
        "notice": "Return existing Policy Book contract, access: ANY"
      },
      "stats(address[])": {
        "notice": "Getting stats from policy books, access: ANY"
      },
      "statsByInsuredContracts(address[])": {
        "notice": "Getting stats from policy books, access: ANY"
      }
    },
    "version": 1
  }
}