{
  "contractName": "PolicyBookFabric",
  "abi": [
    {
      "inputs": [
        {
          "internalType": "contract IPolicyBookRegistry",
          "name": "_registry",
          "type": "address"
        },
        {
          "internalType": "address",
          "name": "_daiAddr",
          "type": "address"
        }
      ],
      "stateMutability": "nonpayable",
      "type": "constructor"
    },
    {
      "anonymous": false,
      "inputs": [
        {
          "indexed": false,
          "internalType": "address",
          "name": "insured",
          "type": "address"
        },
        {
          "indexed": false,
          "internalType": "enum IPolicyBookFabric.ContractType",
          "name": "contractType",
          "type": "uint8"
        },
        {
          "indexed": false,
          "internalType": "address",
          "name": "at",
          "type": "address"
        }
      ],
      "name": "Created",
      "type": "event"
    },
    {
      "inputs": [],
      "name": "daiAddr",
      "outputs": [
        {
          "internalType": "address",
          "name": "",
          "type": "address"
        }
      ],
      "stateMutability": "view",
      "type": "function",
      "constant": true
    },
    {
      "inputs": [],
      "name": "registry",
      "outputs": [
        {
          "internalType": "contract IPolicyBookRegistry",
          "name": "",
          "type": "address"
        }
      ],
      "stateMutability": "view",
      "type": "function",
      "constant": true
    },
    {
      "inputs": [
        {
          "internalType": "address",
          "name": "_contract",
          "type": "address"
        },
        {
          "internalType": "enum IPolicyBookFabric.ContractType",
          "name": "_contractType",
          "type": "uint8"
        }
      ],
      "name": "create",
      "outputs": [
        {
          "internalType": "address",
          "name": "_policyBook",
          "type": "address"
        }
      ],
      "stateMutability": "nonpayable",
      "type": "function"
    },
    {
      "inputs": [
        {
          "internalType": "address",
          "name": "_contract",
          "type": "address"
        }
      ],
      "name": "policyBookFor",
      "outputs": [
        {
          "internalType": "address",
          "name": "_policyBook",
          "type": "address"
        }
      ],
      "stateMutability": "view",
      "type": "function",
      "constant": true
    },
    {
      "inputs": [],
      "name": "policyBooksCount",
      "outputs": [
        {
          "internalType": "uint256",
          "name": "_policyBookCount",
          "type": "uint256"
        }
      ],
      "stateMutability": "view",
      "type": "function",
      "constant": true
    },
    {
      "inputs": [
        {
          "internalType": "uint256",
          "name": "_offset",
          "type": "uint256"
        },
        {
          "internalType": "uint256",
          "name": "_limit",
          "type": "uint256"
        }
      ],
      "name": "policyBooks",
      "outputs": [
        {
          "internalType": "uint256",
          "name": "_policyBooksCount",
          "type": "uint256"
        },
        {
          "internalType": "address[]",
          "name": "_policyBooks",
          "type": "address[]"
        }
      ],
      "stateMutability": "view",
      "type": "function",
      "constant": true
    }
  ],
  "bytecode": "0x608060405234801561001057600080fd5b506040516128e23803806128e28339818101604052604081101561003357600080fd5b508051602090910151600080546001600160a01b039384166001600160a01b031991821617909155600180549390921692169190911790556128688061007a6000396000f3fe608060405234801561001057600080fd5b50600436106100725760003560e01c806374fa0a631161005057806374fa0a63146101295780637b10399914610131578063d27842161461013957610072565b8063217c1552146100775780636697a437146100d35780637151f5e41461010f575b600080fd5b6100aa6004803603602081101561008d57600080fd5b503573ffffffffffffffffffffffffffffffffffffffff166101b7565b6040805173ffffffffffffffffffffffffffffffffffffffff9092168252519081900360200190f35b6100aa600480360360408110156100e957600080fd5b50803573ffffffffffffffffffffffffffffffffffffffff16906020013560ff1661025d565b610117610416565b60408051918252519081900360200190f35b6100aa6104b0565b6100aa6104cc565b61015c6004803603604081101561014f57600080fd5b50803590602001356104e8565b6040518083815260200180602001828103825283818151815260200191508051906020019060200280838360005b838110156101a257818101518382015260200161018a565b50505050905001935050505060405180910390f35b60008054604080517f217c155200000000000000000000000000000000000000000000000000000000815273ffffffffffffffffffffffffffffffffffffffff85811660048301529151919092169163217c1552916024808301926020929190829003018186803b15801561022b57600080fd5b505afa15801561023f573d6000803e3d6000fd5b505050506040513d602081101561025557600080fd5b505192915050565b6000808383600160009054906101000a900473ffffffffffffffffffffffffffffffffffffffff166040516102919061065a565b808473ffffffffffffffffffffffffffffffffffffffff1681526020018360038111156102ba57fe5b81526020018273ffffffffffffffffffffffffffffffffffffffff1681526020019350505050604051809103906000f0801580156102fc573d6000803e3d6000fd5b5060008054604080517f52c28fab00000000000000000000000000000000000000000000000000000000815273ffffffffffffffffffffffffffffffffffffffff8981166004830152808616602483015291519495509116926352c28fab9260448084019391929182900301818387803b15801561037957600080fd5b505af115801561038d573d6000803e3d6000fd5b505050507f4e28888a63ea403f5c073b7a200d807deb13db7afdb4eaf11fa1dbc96ebd6106848483604051808473ffffffffffffffffffffffffffffffffffffffff1681526020018360038111156103e157fe5b81526020018273ffffffffffffffffffffffffffffffffffffffff168152602001935050505060405180910390a19392505050565b60008060009054906101000a900473ffffffffffffffffffffffffffffffffffffffff1673ffffffffffffffffffffffffffffffffffffffff166306661abd6040518163ffffffff1660e01b815260040160206040518083038186803b15801561047f57600080fd5b505afa158015610493573d6000803e3d6000fd5b505050506040513d60208110156104a957600080fd5b5051905090565b60015473ffffffffffffffffffffffffffffffffffffffff1681565b60005473ffffffffffffffffffffffffffffffffffffffff1681565b60008054604080517f50fd73670000000000000000000000000000000000000000000000000000000081526004810186905260248101859052905160609273ffffffffffffffffffffffffffffffffffffffff16916350fd73679160448083019287929190829003018186803b15801561056157600080fd5b505afa158015610575573d6000803e3d6000fd5b505050506040513d6000823e601f3d9081017fffffffffffffffffffffffffffffffffffffffffffffffffffffffffffffffe016820160409081528110156105bc57600080fd5b8151602083018051604051929492938301929190846401000000008211156105e357600080fd5b9083019060208201858111156105f857600080fd5b825186602082028301116401000000008211171561061557600080fd5b82525081516020918201928201910280838360005b8381101561064257818101518382015260200161062a565b50505050905001604052505050915091509250929050565b6121cb806106688339019056fe60806040523480156200001157600080fd5b50604051620021cb380380620021cb8339810160408190526200003491620001ed565b604080518082018252601681527f4272696467654d757475616c20496e737572616e6365000000000000000000006020808301918252835180850190945260078452660c4dad2888292f60cb1b908401528151919291620000989160039162000124565b508051620000ae90600490602084019062000124565b505060058054601260ff1990911617610100600160a81b0319166101006001600160a01b038716021780825584925060ff60a81b1916600160a81b836003811115620000f657fe5b0217905550600680546001600160a01b0319166001600160a01b0392909216919091179055506200023a9050565b828054600181600116156101000203166002900490600052602060002090601f0160209004810192826200015c5760008555620001a7565b82601f106200017757805160ff1916838001178555620001a7565b82800160010185558215620001a7579182015b82811115620001a75782518255916020019190600101906200018a565b50620001b5929150620001b9565b5090565b5b80821115620001b55760008155600101620001ba565b80516001600160a01b0381168114620001e857600080fd5b919050565b60008060006060848603121562000202578283fd5b6200020d84620001d0565b925060208401516004811062000221578283fd5b91506200023160408501620001d0565b90509250925092565b611f81806200024a6000396000f3fe60806040526004361061026e5760003560e01c80637cd0fc9b11610153578063c51a29e0116100cb578063e98a04e11161007f578063f4020b5b11610064578063f4020b5b146106a2578063f60ff937146106c2578063fc3dfc99146106d757610275565b8063e98a04e11461066d578063efa1f98a1461068257610275565b8063cfa8b3a8116100b0578063cfa8b3a814610613578063d80528ae14610628578063dd62ed3e1461064d57610275565b8063c51a29e0146105dc578063cbf5a55e146105fe57610275565b8063a457c2d711610122578063aaf5eb6811610107578063aaf5eb6814610592578063bc5d198a146105a7578063c18c6057146105bc57610275565b8063a457c2d714610552578063a9059cbb1461057257610275565b80637cd0fc9b146104e557806395d89b41146104fa5780639c5900061461050f5780639f7754cd1461052457610275565b8063313ce567116101e657806351c6590a116101b557806370b68a2a1161019a57806370b68a2a14610468578063758af3ab1461049757806379fac08c146104b757610275565b806351c6590a1461042857806370a082311461044857610275565b8063313ce567146103af57806332a2c5d0146103d157806339509351146103f3578063514ea9bd1461041357610275565b806315770f921161023d578063188ff85411610222578063188ff8541461035a57806323b872dd1461037a5780632c865d6c1461039a57610275565b806315770f921461032357806318160ddd1461034557610275565b806306fdde031461027a578063095ea7b3146102a55780630a861f2a146102d25780630e82da53146102f457610275565b3661027557005b600080fd5b34801561028657600080fd5b5061028f6106f7565b60405161029c9190611b46565b60405180910390f35b3480156102b157600080fd5b506102c56102c0366004611919565b6107ab565b60405161029c9190611b27565b3480156102de57600080fd5b506102f26102ed36600461199a565b6107c9565b005b34801561030057600080fd5b5061031461030f3660046119b2565b6109ef565b60405161029c93929190611d82565b34801561032f57600080fd5b506103386109fb565b60405161029c9190611d58565b34801561035157600080fd5b50610338610a01565b34801561036657600080fd5b506102c5610375366004611919565b610a07565b34801561038657600080fd5b506102c56103953660046118de565b610a0f565b3480156103a657600080fd5b50610338610ab0565b3480156103bb57600080fd5b506103c4610ab5565b60405161029c9190611e1b565b3480156103dd57600080fd5b506103e6610abe565b60405161029c9190611a4e565b3480156103ff57600080fd5b506102c561040e366004611919565b610adf565b34801561041f57600080fd5b50610338610b3a565b34801561043457600080fd5b506102f261044336600461199a565b610b43565b34801561045457600080fd5b50610338610463366004611892565b610b50565b34801561047457600080fd5b50610488610483366004611892565b610b7c565b60405161029c93929190611dea565b3480156104a357600080fd5b506103386104b23660046119b2565b610b9d565b3480156104c357600080fd5b506104d76104d23660046119b2565b610bb0565b60405161029c929190611d61565b3480156104f157600080fd5b506103e6610ab0565b34801561050657600080fd5b5061028f610bba565b34801561051b57600080fd5b50610338610c39565b34801561053057600080fd5b5061054461053f366004611892565b610c42565b60405161029c929190611ddc565b34801561055e57600080fd5b506102c561056d366004611919565b610c5b565b34801561057e57600080fd5b506102c561058d366004611919565b610cd0565b34801561059e57600080fd5b50610338610ce4565b3480156105b357600080fd5b50610338610ced565b3480156105c857600080fd5b506102f26105d736600461199a565b610b4d565b3480156105e857600080fd5b506105f1610cf5565b60405161029c9190611b32565b34801561060a57600080fd5b50610338610d17565b34801561061f57600080fd5b50610338610d20565b34801561063457600080fd5b5061063d610d2a565b60405161029c9493929190611e00565b34801561065957600080fd5b506103386106683660046118ac565b610d34565b34801561067957600080fd5b50610338610d6c565b34801561068e57600080fd5b506102f261069d366004611919565b610d75565b3480156106ae57600080fd5b506102f26106bd3660046119d3565b610d83565b3480156106ce57600080fd5b50610338610d94565b3480156106e357600080fd5b506102f26106f2366004611942565b610d9a565b60038054604080516020601f60027fffffffffffffffffffffffffffffffffffffffffffffffffffffffffffffffff6101006001881615020190951694909404938401819004810282018101909252828152606093909290918301828280156107a15780601f10610776576101008083540402835291602001916107a1565b820191906000526020600020905b81548152906001019060200180831161078457829003601f168201915b5050505050905090565b60006107bf6107b8610dac565b8484610db0565b5060015b92915050565b6107d1611833565b5033600090815260096020908152604091829020825180840190935280548352600101549082018190526108205760405162461bcd60e51b815260040161081790611c5a565b60405180910390fd5b600061082b33610ec3565b825190915061083a9082610ec9565b82526007546108499082610ec9565b600755815183111561086d5760405162461bcd60e51b815260040161081790611cfb565b60085460075461087d9085610f23565b101561089b5760405162461bcd60e51b815260040161081790611cc4565b81516108a79084610f23565b82524260208084019182523360009081526009909152604090208351815590516001909101556007546108da9084610f23565b6007556006546040517fa9059cbb00000000000000000000000000000000000000000000000000000000815273ffffffffffffffffffffffffffffffffffffffff90911690600090829063a9059cbb9061093a9033908990600401611a6f565b602060405180830381600087803b15801561095457600080fd5b505af1158015610968573d6000803e3d6000fd5b505050506040513d601f19601f8201168201806040525081019061098c919061197a565b9050806109ab5760405162461bcd60e51b815260040161081790611c23565b7fac927268ea9ae2e55027e6ab727fc2db8e3ea48c56c658223a1074567e4298c033866007546040516109e093929190611a95565b60405180910390a15050505050565b60006060809250925092565b60075481565b60025490565b600092915050565b6000610a1c848484610f65565b610aa684610a28610dac565b610aa185604051806060016040528060288152602001611eb66028913973ffffffffffffffffffffffffffffffffffffffff8a16600090815260016020526040812090610a73610dac565b73ffffffffffffffffffffffffffffffffffffffff1681526020810191909152604001600020549190611101565b610db0565b5060019392505050565b600090565b60055460ff1690565b600554610100900473ffffffffffffffffffffffffffffffffffffffff1690565b60006107bf610aec610dac565b84610aa18560016000610afd610dac565b73ffffffffffffffffffffffffffffffffffffffff908116825260208083019390935260409182016000908120918c168152925290205490610ec9565b6445d964b80081565b610b4d3382611198565b50565b73ffffffffffffffffffffffffffffffffffffffff81166000908152602081905260409020545b919050565b600a6020526000908152604090208054600182015460029092015490919083565b6000610ba9838361136f565b9392505050565b5060009160609150565b60048054604080516020601f60027fffffffffffffffffffffffffffffffffffffffffffffffffffffffffffffffff6101006001881615020190951694909404938401819004810282018101909252828152606093909290918301828280156107a15780601f10610776576101008083540402835291602001916107a1565b640ba43b740081565b6009602052600090815260409020805460019091015482565b60006107bf610c68610dac565b84610aa185604051806060016040528060258152602001611f276025913960016000610c92610dac565b73ffffffffffffffffffffffffffffffffffffffff908116825260208083019390935260409182016000908120918d16815292529020549190611101565b60006107bf610cdd610dac565b8484610f65565b6402540be40081565b6301e1338081565b6005547501000000000000000000000000000000000000000000900460ff1690565b64e8d4a5100081565b65015d3ef7980081565b6000808080919293565b73ffffffffffffffffffffffffffffffffffffffff918216600090815260016020908152604080832093909416825291909152205490565b64a2fb40580081565b610d7f8282611198565b5050565b610d8f3384848461146f565b505050565b60085481565b610da68484848461146f565b50505050565b3390565b73ffffffffffffffffffffffffffffffffffffffff8316610e025760405162461bcd60e51b8152600401808060200182810382526024815260200180611f036024913960400191505060405180910390fd5b73ffffffffffffffffffffffffffffffffffffffff8216610e545760405162461bcd60e51b8152600401808060200182810382526022815260200180611e4d6022913960400191505060405180910390fd5b73ffffffffffffffffffffffffffffffffffffffff808416600081815260016020908152604080832094871680845294825291829020859055815185815291517f8c5be1e5ebec7d5bd14f71427d1e84f3dd0314c0f7b2291e5b200ac8c7c3b9259281900390910190a3505050565b50600090565b600082820183811015610ba9576040805162461bcd60e51b815260206004820152601b60248201527f536166654d6174683a206164646974696f6e206f766572666c6f770000000000604482015290519081900360640190fd5b6000610ba983836040518060400160405280601e81526020017f536166654d6174683a207375627472616374696f6e206f766572666c6f770000815250611101565b73ffffffffffffffffffffffffffffffffffffffff8316610fb75760405162461bcd60e51b8152600401808060200182810382526025815260200180611ede6025913960400191505060405180910390fd5b73ffffffffffffffffffffffffffffffffffffffff82166110095760405162461bcd60e51b8152600401808060200182810382526023815260200180611e2a6023913960400191505060405180910390fd5b611014838383610d8f565b61105e81604051806060016040528060268152602001611e6f6026913973ffffffffffffffffffffffffffffffffffffffff86166000908152602081905260409020549190611101565b73ffffffffffffffffffffffffffffffffffffffff808516600090815260208190526040808220939093559084168152205461109a9082610ec9565b73ffffffffffffffffffffffffffffffffffffffff8084166000818152602081815260409182902094909455805185815290519193928716927fddf252ad1be2c89b69c2b068fc378daa952ba7f163c4a11628f55a4df523b3ef92918290030190a3505050565b600081848411156111905760405162461bcd60e51b81526004018080602001828103825283818151815260200191508051906020019080838360005b8381101561115557818101518382015260200161113d565b50505050905090810190601f1680156111825780820380516001836020036101000a031916815260200191505b509250505060405180910390fd5b505050900390565b6111a0611833565b5073ffffffffffffffffffffffffffffffffffffffff82166000908152600960209081526040808320815180830190925280548252600101549181018290529190156111f2576111ef84610ec3565b90505b60006111fe8483610ec9565b835190915061120d9082610ec9565b835242602080850191825273ffffffffffffffffffffffffffffffffffffffff871660009081526009909152604090208451815590516001909101556007546112569082610ec9565b6007556006546040517f23b872dd00000000000000000000000000000000000000000000000000000000815273ffffffffffffffffffffffffffffffffffffffff9091169060009082906323b872dd906112b8908a9030908b90600401611ac3565b602060405180830381600087803b1580156112d257600080fd5b505af11580156112e6573d6000803e3d6000fd5b505050506040513d601f19601f8201168201806040525081019061130a919061197a565b9050806113295760405162461bcd60e51b815260040161081790611c23565b7f06239653922ac7bea6aa2b19dc486b9361821d37712eb796adfd38d81de278ca878760075460405161135e93929190611a95565b60405180910390a150505050505050565b600060075461138983600854610ec990919063ffffffff16565b11156113a75760405162461bcd60e51b815260040161081790611bee565b6000600754116113c95760405162461bcd60e51b815260040161081790611bb7565b60006113fe6007546113f86402540be4006064026113f287600854610ec990919063ffffffff16565b90611691565b906116ea565b9050600064a2fb40580082101561141f576114188261172c565b905061142b565b61142882611746565b90505b61143a81640ba43b74006117b7565b905060006114506301e133806113f88885611691565b905061146564e8d4a510006113f88784611691565b9695505050505050565b61147761184d565b5073ffffffffffffffffffffffffffffffffffffffff84166000908152600a6020908152604091829020825160608101845281548152600182015492810183905260029091015492810192909252156114e25760405162461bcd60e51b815260040161081790611c8f565b6008546114ef9084610ec9565b60075410156115105760405162461bcd60e51b815260040161081790611cc4565b600061151c858561136f565b8483526020808401878152604080860187815273ffffffffffffffffffffffffffffffffffffffff8b166000908152600a9094529220855181559051600182015590516002909101556008549091506115759085610ec9565b6008556006546040517f23b872dd00000000000000000000000000000000000000000000000000000000815273ffffffffffffffffffffffffffffffffffffffff9091169060009082906323b872dd906115d7908b9030908890600401611ac3565b602060405180830381600087803b1580156115f157600080fd5b505af1158015611605573d6000803e3d6000fd5b505050506040513d601f19601f82011682018060405250810190611629919061197a565b9050806116485760405162461bcd60e51b815260040161081790611c23565b7f1cd728a6e764ed0dcddb6e5b88d736a4a8d2a0d420ca373588f7a1109e18663f88878560085460405161167f9493929190611af4565b60405180910390a15050505050505050565b6000826116a0575060006107c3565b828202828482816116ad57fe5b0414610ba95760405162461bcd60e51b8152600401808060200182810382526021815260200180611e956021913960400191505060405180910390fd5b6000610ba983836040518060400160405280601a81526020017f536166654d6174683a206469766973696f6e206279207a65726f0000000000008152506117ce565b60006107c364a2fb4058006113f8846445d964b800611691565b60008061177e61176064e8d4a5100064a2fb405800610f23565b6113f86117728664a2fb405800610f23565b6402540be40090611691565b9050610ba96117ab6402540be4006113f86117a465015d3ef798006445d964b800610f23565b8590611691565b6445d964b80090610ec9565b6000818310156117c75781610ba9565b5090919050565b6000818361181d5760405162461bcd60e51b815260206004820181815283516024840152835190928392604490910191908501908083836000831561115557818101518382015260200161113d565b50600083858161182957fe5b0495945050505050565b604051806040016040528060008152602001600081525090565b60405180606001604052806000815260200160008152602001600081525090565b803573ffffffffffffffffffffffffffffffffffffffff81168114610b7757600080fd5b6000602082840312156118a3578081fd5b610ba98261186e565b600080604083850312156118be578081fd5b6118c78361186e565b91506118d56020840161186e565b90509250929050565b6000806000606084860312156118f2578081fd5b6118fb8461186e565b92506119096020850161186e565b9150604084013590509250925092565b6000806040838503121561192b578182fd5b6119348361186e565b946020939093013593505050565b60008060008060808587031215611957578081fd5b6119608561186e565b966020860135965060408601359560600135945092505050565b60006020828403121561198b578081fd5b81518015158114610ba9578182fd5b6000602082840312156119ab578081fd5b5035919050565b600080604083850312156119c4578182fd5b50508035926020909101359150565b6000806000606084860312156119e7578283fd5b505081359360208301359350604090920135919050565b6000815180845260208085019450808401835b83811015611a4357815173ffffffffffffffffffffffffffffffffffffffff1687529582019590820190600101611a11565b509495945050505050565b73ffffffffffffffffffffffffffffffffffffffff91909116815260200190565b73ffffffffffffffffffffffffffffffffffffffff929092168252602082015260400190565b73ffffffffffffffffffffffffffffffffffffffff9390931683526020830191909152604082015260600190565b73ffffffffffffffffffffffffffffffffffffffff9384168152919092166020820152604081019190915260600190565b73ffffffffffffffffffffffffffffffffffffffff94909416845260208401929092526040830152606082015260800190565b901515815260200190565b6020810160048310611b4057fe5b91905290565b6000602080835283518082850152825b81811015611b7257858101830151858201604001528201611b56565b81811115611b835783604083870101525b50601f017fffffffffffffffffffffffffffffffffffffffffffffffffffffffffffffffe016929092016040019392505050565b60208082526011908201527f54686520706f6f6c20697320656d707479000000000000000000000000000000604082015260600190565b6020808252818101527f526571756972696e67206d6f7265207468616e20746865726520657869737473604082015260600190565b60208082526019908201527f4661696c656420746f207472616e7366657220746f6b656e7300000000000000604082015260600190565b6020808252818101527f4c697175696469747920686f6c64657220646f6573206e6f7420657869737473604082015260600190565b6020808252818101527f54686520706f6c69637920686f6c64657220616c726561647920657869737473604082015260600190565b6020808252601e908201527f4e6f7420656e6f75676820617661696c61626c65206c69717569646974790000604082015260600190565b6020808252603f908201527f54686520616d6f756e7420746f2062652077697468647261776e20697320677260408201527f6561746572207468616e20746865206465706f736974656420616d6f756e7400606082015260800190565b90815260200190565b600083825260406020830152611d7a60408301846119fe565b949350505050565b60008482526020606081840152611d9c60608401866119fe565b8381036040850152845180825282860191830190845b81811015611dce57835183529284019291840191600101611db2565b509098975050505050505050565b918252602082015260400190565b9283526020830191909152604082015260600190565b93845260208401929092526040830152606082015260800190565b60ff9190911681526020019056fe45524332303a207472616e7366657220746f20746865207a65726f206164647265737345524332303a20617070726f766520746f20746865207a65726f206164647265737345524332303a207472616e7366657220616d6f756e7420657863656564732062616c616e6365536166654d6174683a206d756c7469706c69636174696f6e206f766572666c6f7745524332303a207472616e7366657220616d6f756e74206578636565647320616c6c6f77616e636545524332303a207472616e736665722066726f6d20746865207a65726f206164647265737345524332303a20617070726f76652066726f6d20746865207a65726f206164647265737345524332303a2064656372656173656420616c6c6f77616e63652062656c6f77207a65726fa2646970667358221220b85c8f3880d73a8ee79439a399cb6ff64837ff3881d93d4cfc37100055665fcb64736f6c63430007040033a26469706673582212207e56928be26d83f0d9a5adce371532da47d74f6398efcc83c52cee8be7a131ff64736f6c63430007040033",
  "immutableReferences": {},
  "source": "// SPDX-License-Identifier: MIT\npragma solidity ^0.7.4;\n\nimport \"@openzeppelin/contracts/math/Math.sol\";\n\nimport \"./interfaces/IPolicyBookFabric.sol\";\nimport \"./interfaces/IPolicyBookRegistry.sol\";\nimport \"./PolicyBook.sol\";\n\ncontract PolicyBookFabric is IPolicyBookFabric {\n  using Math for uint256;\n\n  IPolicyBookRegistry public registry;\n  address public daiAddr;\n\n  event Created(address insured, ContractType contractType, address at);\n\n  constructor(IPolicyBookRegistry _registry, address _daiAddr) {\n    registry = _registry;\n    daiAddr = _daiAddr;\n  }\n\n  function create(address _contract, ContractType _contractType) external override returns (address _policyBook) {\n    PolicyBook _newPolicyBook = new PolicyBook(_contract, _contractType, daiAddr);\n    registry.add(_contract, address(_newPolicyBook));\n\n    emit Created(_contract, _contractType, address(_newPolicyBook));\n\n    return address(_newPolicyBook);\n  }\n\n  function policyBookFor(address _contract) external view override returns (address _policyBook) {\n    return registry.policyBookFor(_contract);\n  }\n\n  function policyBooksCount() external view override returns (uint256 _policyBookCount) {\n    return registry.count();\n  }\n\n  function policyBooks(uint256 _offset, uint256 _limit)\n    external\n    view\n    override\n    returns (uint256 _policyBooksCount, address[] memory _policyBooks)\n  {\n    return registry.list(_offset, _limit);\n  }\n}\n",
  "sourcePath": "/home/artem/Projects/Distributed_Lab/Applicature/bridgemutual-core/contracts/PolicyBookFabric.sol",
  "compiler": {
    "name": "solc",
    "version": "0.7.4+commit.3f05b770.Emscripten.clang"
  },
  "schemaVersion": "3.3.3",
  "updatedAt": "2021-01-20T09:45:53.625Z",
  "networkType": "ethereum",
  "devdoc": {
    "kind": "dev",
    "methods": {
      "create(address,uint8)": {
        "params": {
          "_contract": "is Contract to create policy book for",
          "_contractType": "is Contract to create policy book for"
        },
        "returns": {
          "_policyBook": "is address of created contract"
        }
      },
      "policyBookFor(address)": {
        "params": {
          "_contract": "is contract address to lookup for created IPolicyBook"
        },
        "returns": {
          "_policyBook": "is policy book address if exists for passed contract address, if not it will return address(0)"
        }
      },
      "policyBooks(uint256,uint256)": {
        "params": {
          "_limit": "is number of policy books to returns from _offset",
          "_offset": "is starting item in array to return array from"
        },
        "returns": {
          "_policyBooks": "is array of contract addresses",
          "_policyBooksCount": "is updated number of policy books"
        }
      },
      "policyBooksCount()": {
        "returns": {
          "_policyBookCount": "is number of created policy books"
        }
      }
    },
    "version": 1
  },
  "userdoc": {
    "kind": "user",
    "methods": {
      "create(address,uint8)": {
        "notice": "Create new Policy Book contract, access: ANY"
      },
      "policyBookFor(address)": {
        "notice": "Return created Policy Book contract, access: ANY"
      },
      "policyBooks(uint256,uint256)": {
        "notice": "Returns number of created Policy Book contracts address, access: ANY"
      },
      "policyBooksCount()": {
        "notice": "Returns number of created Policy Book contracts, access: ANY"
      }
    },
    "version": 1
  }
}