{
  "contractName": "PolicyBook",
  "abi": [
    {
      "inputs": [
        {
          "internalType": "address",
          "name": "_contract",
          "type": "address"
        },
        {
          "internalType": "enum IPolicyBookFabric.ContractType",
          "name": "_contractType",
          "type": "uint8"
        },
        {
          "internalType": "address",
          "name": "_daiAddr",
          "type": "address"
        }
      ],
      "stateMutability": "nonpayable",
      "type": "constructor"
    },
    {
      "anonymous": false,
      "inputs": [
        {
          "indexed": false,
          "internalType": "address",
          "name": "_liquidityHolder",
          "type": "address"
        },
        {
          "indexed": false,
          "internalType": "uint256",
          "name": "_liqudityAmount",
          "type": "uint256"
        },
        {
          "indexed": false,
          "internalType": "uint256",
          "name": "_newTotalLiquidity",
          "type": "uint256"
        }
      ],
      "name": "AddLiquidity",
      "type": "event"
    },
    {
      "anonymous": false,
      "inputs": [
        {
          "indexed": true,
          "internalType": "address",
          "name": "owner",
          "type": "address"
        },
        {
          "indexed": true,
          "internalType": "address",
          "name": "spender",
          "type": "address"
        },
        {
          "indexed": false,
          "internalType": "uint256",
          "name": "value",
          "type": "uint256"
        }
      ],
      "name": "Approval",
      "type": "event"
    },
    {
      "anonymous": false,
      "inputs": [
        {
          "indexed": false,
          "internalType": "address",
          "name": "_policyHolder",
          "type": "address"
        },
        {
          "indexed": false,
          "internalType": "uint256",
          "name": "_coverTokens",
          "type": "uint256"
        },
        {
          "indexed": false,
          "internalType": "uint256",
          "name": "_price",
          "type": "uint256"
        },
        {
          "indexed": false,
          "internalType": "uint256",
          "name": "_newTotalCoverTokens",
          "type": "uint256"
        }
      ],
      "name": "BuyPolicy",
      "type": "event"
    },
    {
      "anonymous": false,
      "inputs": [
        {
          "indexed": true,
          "internalType": "address",
          "name": "from",
          "type": "address"
        },
        {
          "indexed": true,
          "internalType": "address",
          "name": "to",
          "type": "address"
        },
        {
          "indexed": false,
          "internalType": "uint256",
          "name": "value",
          "type": "uint256"
        }
      ],
      "name": "Transfer",
      "type": "event"
    },
    {
      "anonymous": false,
      "inputs": [
        {
          "indexed": false,
          "internalType": "address",
          "name": "_liquidityHolder",
          "type": "address"
        },
        {
          "indexed": false,
          "internalType": "uint256",
          "name": "_tokensToWithdraw",
          "type": "uint256"
        },
        {
          "indexed": false,
          "internalType": "uint256",
          "name": "_newTotalLiquidity",
          "type": "uint256"
        }
      ],
      "name": "WithdrawLiquidity",
      "type": "event"
    },
    {
      "inputs": [],
      "name": "MAXIMUM_COST_100_UTILIZATION_PERCENTAGE",
      "outputs": [
        {
          "internalType": "uint256",
          "name": "",
          "type": "uint256"
        }
      ],
      "stateMutability": "view",
      "type": "function"
    },
    {
      "inputs": [],
      "name": "MAXIMUM_COST_NOT_RISKY_PERCENTAGE",
      "outputs": [
        {
          "internalType": "uint256",
          "name": "",
          "type": "uint256"
        }
      ],
      "stateMutability": "view",
      "type": "function"
    },
    {
      "inputs": [],
      "name": "MINIMUM_COST_PERCENTAGE",
      "outputs": [
        {
          "internalType": "uint256",
          "name": "",
          "type": "uint256"
        }
      ],
      "stateMutability": "view",
      "type": "function"
    },
    {
      "inputs": [],
      "name": "PERCENTAGE_100",
      "outputs": [
        {
          "internalType": "uint256",
          "name": "",
          "type": "uint256"
        }
      ],
      "stateMutability": "view",
      "type": "function"
    },
    {
      "inputs": [],
      "name": "PRECISION",
      "outputs": [
        {
          "internalType": "uint256",
          "name": "",
          "type": "uint256"
        }
      ],
      "stateMutability": "view",
      "type": "function"
    },
    {
      "inputs": [],
      "name": "RISKY_ASSET_THRESHOLD_PERCENTAGE",
      "outputs": [
        {
          "internalType": "uint256",
          "name": "",
          "type": "uint256"
        }
      ],
      "stateMutability": "view",
      "type": "function"
    },
    {
      "inputs": [],
      "name": "SECONDS_IN_THE_YEAR",
      "outputs": [
        {
          "internalType": "uint256",
          "name": "",
          "type": "uint256"
        }
      ],
      "stateMutability": "view",
      "type": "function"
    },
    {
      "inputs": [
        {
          "internalType": "address",
          "name": "owner",
          "type": "address"
        },
        {
          "internalType": "address",
          "name": "spender",
          "type": "address"
        }
      ],
      "name": "allowance",
      "outputs": [
        {
          "internalType": "uint256",
          "name": "",
          "type": "uint256"
        }
      ],
      "stateMutability": "view",
      "type": "function"
    },
    {
      "inputs": [
        {
          "internalType": "address",
          "name": "spender",
          "type": "address"
        },
        {
          "internalType": "uint256",
          "name": "amount",
          "type": "uint256"
        }
      ],
      "name": "approve",
      "outputs": [
        {
          "internalType": "bool",
          "name": "",
          "type": "bool"
        }
      ],
      "stateMutability": "nonpayable",
      "type": "function"
    },
    {
      "inputs": [
        {
          "internalType": "address",
          "name": "account",
          "type": "address"
        }
      ],
      "name": "balanceOf",
      "outputs": [
        {
          "internalType": "uint256",
          "name": "",
          "type": "uint256"
        }
      ],
      "stateMutability": "view",
      "type": "function"
    },
    {
      "inputs": [],
      "name": "decimals",
      "outputs": [
        {
          "internalType": "uint8",
          "name": "",
          "type": "uint8"
        }
      ],
      "stateMutability": "view",
      "type": "function"
    },
    {
      "inputs": [
        {
          "internalType": "address",
          "name": "spender",
          "type": "address"
        },
        {
          "internalType": "uint256",
          "name": "subtractedValue",
          "type": "uint256"
        }
      ],
      "name": "decreaseAllowance",
      "outputs": [
        {
          "internalType": "bool",
          "name": "",
          "type": "bool"
        }
      ],
      "stateMutability": "nonpayable",
      "type": "function"
    },
    {
      "inputs": [
        {
          "internalType": "address",
          "name": "spender",
          "type": "address"
        },
        {
          "internalType": "uint256",
          "name": "addedValue",
          "type": "uint256"
        }
      ],
      "name": "increaseAllowance",
      "outputs": [
        {
          "internalType": "bool",
          "name": "",
          "type": "bool"
        }
      ],
      "stateMutability": "nonpayable",
      "type": "function"
    },
    {
      "inputs": [
        {
          "internalType": "address",
          "name": "",
          "type": "address"
        }
      ],
      "name": "liquidityHolders",
      "outputs": [
        {
          "internalType": "uint256",
          "name": "depositedAmount",
          "type": "uint256"
        },
        {
          "internalType": "uint256",
          "name": "lastUpdate",
          "type": "uint256"
        }
      ],
      "stateMutability": "view",
      "type": "function"
    },
    {
      "inputs": [],
      "name": "name",
      "outputs": [
        {
          "internalType": "string",
          "name": "",
          "type": "string"
        }
      ],
      "stateMutability": "view",
      "type": "function"
    },
    {
      "inputs": [
        {
          "internalType": "address",
          "name": "",
          "type": "address"
        }
      ],
      "name": "policyHolders",
      "outputs": [
        {
          "internalType": "uint256",
          "name": "coverTokens",
          "type": "uint256"
        },
        {
          "internalType": "uint256",
          "name": "durationSeconds",
          "type": "uint256"
        },
        {
          "internalType": "uint256",
          "name": "maxDaiTokens",
          "type": "uint256"
        }
      ],
      "stateMutability": "view",
      "type": "function"
    },
    {
      "inputs": [],
      "name": "symbol",
      "outputs": [
        {
          "internalType": "string",
          "name": "",
          "type": "string"
        }
      ],
      "stateMutability": "view",
      "type": "function"
    },
    {
      "inputs": [],
      "name": "totalCoverTokens",
      "outputs": [
        {
          "internalType": "uint256",
          "name": "",
          "type": "uint256"
        }
      ],
      "stateMutability": "view",
      "type": "function"
    },
    {
      "inputs": [],
      "name": "totalLiquidity",
      "outputs": [
        {
          "internalType": "uint256",
          "name": "",
          "type": "uint256"
        }
      ],
      "stateMutability": "view",
      "type": "function"
    },
    {
      "inputs": [],
      "name": "totalSupply",
      "outputs": [
        {
          "internalType": "uint256",
          "name": "",
          "type": "uint256"
        }
      ],
      "stateMutability": "view",
      "type": "function"
    },
    {
      "inputs": [
        {
          "internalType": "address",
          "name": "recipient",
          "type": "address"
        },
        {
          "internalType": "uint256",
          "name": "amount",
          "type": "uint256"
        }
      ],
      "name": "transfer",
      "outputs": [
        {
          "internalType": "bool",
          "name": "",
          "type": "bool"
        }
      ],
      "stateMutability": "nonpayable",
      "type": "function"
    },
    {
      "inputs": [
        {
          "internalType": "address",
          "name": "sender",
          "type": "address"
        },
        {
          "internalType": "address",
          "name": "recipient",
          "type": "address"
        },
        {
          "internalType": "uint256",
          "name": "amount",
          "type": "uint256"
        }
      ],
      "name": "transferFrom",
      "outputs": [
        {
          "internalType": "bool",
          "name": "",
          "type": "bool"
        }
      ],
      "stateMutability": "nonpayable",
      "type": "function"
    },
    {
      "stateMutability": "payable",
      "type": "receive"
    },
    {
      "inputs": [],
      "name": "getContractAddress",
      "outputs": [
        {
          "internalType": "address",
          "name": "_contract",
          "type": "address"
        }
      ],
      "stateMutability": "view",
      "type": "function"
    },
    {
      "inputs": [],
      "name": "getContractType",
      "outputs": [
        {
          "internalType": "enum IPolicyBookFabric.ContractType",
          "name": "_type",
          "type": "uint8"
        }
      ],
      "stateMutability": "view",
      "type": "function"
    },
    {
      "inputs": [],
      "name": "quoteStrategy",
      "outputs": [
        {
          "internalType": "address",
          "name": "_quoteStrategy",
          "type": "address"
        }
      ],
      "stateMutability": "view",
      "type": "function"
    },
    {
      "inputs": [
        {
          "internalType": "uint256",
          "name": "_offset",
          "type": "uint256"
        },
        {
          "internalType": "uint256",
          "name": "_limit",
          "type": "uint256"
        }
      ],
      "name": "shieldAssets",
      "outputs": [
        {
          "internalType": "uint256",
          "name": "_shieldAssetsCount",
          "type": "uint256"
        },
        {
          "internalType": "address[]",
          "name": "_shieldAssets",
          "type": "address[]"
        }
      ],
      "stateMutability": "view",
      "type": "function"
    },
    {
      "inputs": [
        {
          "internalType": "uint256",
          "name": "_offset",
          "type": "uint256"
        },
        {
          "internalType": "uint256",
          "name": "_limit",
          "type": "uint256"
        }
      ],
      "name": "shieldAssetsWithBalance",
      "outputs": [
        {
          "internalType": "uint256",
          "name": "_shieldAssetsCount",
          "type": "uint256"
        },
        {
          "internalType": "address[]",
          "name": "_shieldAssets",
          "type": "address[]"
        },
        {
          "internalType": "uint256[]",
          "name": "_shieldAssetBalance",
          "type": "uint256[]"
        }
      ],
      "stateMutability": "view",
      "type": "function"
    },
    {
      "inputs": [],
      "name": "shieldAssetsCount",
      "outputs": [
        {
          "internalType": "uint256",
          "name": "_shieldAssetsCount",
          "type": "uint256"
        }
      ],
      "stateMutability": "view",
      "type": "function"
    },
    {
      "inputs": [
        {
          "internalType": "address",
          "name": "_tokenAddress",
          "type": "address"
        },
        {
          "internalType": "uint256",
          "name": "_tokensAmount",
          "type": "uint256"
        }
      ],
      "name": "addShieldTokens",
      "outputs": [
        {
          "internalType": "bool",
          "name": "_success",
          "type": "bool"
        }
      ],
      "stateMutability": "nonpayable",
      "type": "function"
    },
    {
      "inputs": [
        {
          "internalType": "uint256",
          "name": "_durationSeconds",
          "type": "uint256"
        },
        {
          "internalType": "uint256",
          "name": "_coverTokens",
          "type": "uint256"
        },
        {
          "internalType": "uint256",
          "name": "_maxDaiTokens",
          "type": "uint256"
        }
      ],
      "name": "buyPolicy",
      "outputs": [],
      "stateMutability": "nonpayable",
      "type": "function"
    },
    {
      "inputs": [
        {
          "internalType": "address",
          "name": "_policyHolderAddr",
          "type": "address"
        },
        {
          "internalType": "uint256",
          "name": "_durationSeconds",
          "type": "uint256"
        },
        {
          "internalType": "uint256",
          "name": "_coverTokens",
          "type": "uint256"
        },
        {
          "internalType": "uint256",
          "name": "_maxDaiTokens",
          "type": "uint256"
        }
      ],
      "name": "buyPolicyFor",
      "outputs": [],
      "stateMutability": "nonpayable",
      "type": "function"
    },
    {
      "inputs": [
        {
          "internalType": "uint256",
          "name": "_liqudityAmount",
          "type": "uint256"
        }
      ],
      "name": "addLiquidity",
      "outputs": [],
      "stateMutability": "nonpayable",
      "type": "function"
    },
    {
      "inputs": [
        {
          "internalType": "address",
          "name": "_liquidityHolderAddr",
          "type": "address"
        },
        {
          "internalType": "uint256",
          "name": "_liqudityAmount",
          "type": "uint256"
        }
      ],
      "name": "addLiquidityFor",
      "outputs": [],
      "stateMutability": "nonpayable",
      "type": "function"
    },
    {
      "inputs": [
        {
          "internalType": "uint256",
          "name": "_tokensToWithdraw",
          "type": "uint256"
        }
      ],
      "name": "withdrawLiquidity",
      "outputs": [],
      "stateMutability": "nonpayable",
      "type": "function"
    },
    {
      "inputs": [
        {
          "internalType": "uint256",
          "name": "_policyId",
          "type": "uint256"
        }
      ],
      "name": "rewardForUnclaimedExpiredPolicy",
      "outputs": [],
      "stateMutability": "nonpayable",
      "type": "function"
    },
    {
      "inputs": [],
      "name": "stats",
      "outputs": [
        {
          "internalType": "uint256",
          "name": "_yearlyCost",
          "type": "uint256"
        },
        {
          "internalType": "uint256",
          "name": "_maxCapacities",
          "type": "uint256"
        },
        {
          "internalType": "uint256",
          "name": "_totalDaiLiquidity",
          "type": "uint256"
        },
        {
          "internalType": "uint256",
          "name": "_annualProfitYields",
          "type": "uint256"
        }
      ],
      "stateMutability": "nonpayable",
      "type": "function"
    },
    {
      "inputs": [
        {
          "internalType": "uint256",
          "name": "_durationSeconds",
          "type": "uint256"
        },
        {
          "internalType": "uint256",
          "name": "_tokens",
          "type": "uint256"
        }
      ],
      "name": "getQuote",
      "outputs": [
        {
          "internalType": "uint256",
          "name": "_daiTokens",
          "type": "uint256"
        }
      ],
      "stateMutability": "view",
      "type": "function"
    }
  ],
  "bytecode": "0x60806040523480156200001157600080fd5b50604051620021cb380380620021cb8339810160408190526200003491620001ed565b604080518082018252601681527f4272696467654d757475616c20496e737572616e6365000000000000000000006020808301918252835180850190945260078452660c4dad2888292f60cb1b908401528151919291620000989160039162000124565b508051620000ae90600490602084019062000124565b505060058054601260ff1990911617610100600160a81b0319166101006001600160a01b038716021780825584925060ff60a81b1916600160a81b836003811115620000f657fe5b0217905550600680546001600160a01b0319166001600160a01b0392909216919091179055506200023a9050565b828054600181600116156101000203166002900490600052602060002090601f0160209004810192826200015c5760008555620001a7565b82601f106200017757805160ff1916838001178555620001a7565b82800160010185558215620001a7579182015b82811115620001a75782518255916020019190600101906200018a565b50620001b5929150620001b9565b5090565b5b80821115620001b55760008155600101620001ba565b80516001600160a01b0381168114620001e857600080fd5b919050565b60008060006060848603121562000202578283fd5b6200020d84620001d0565b925060208401516004811062000221578283fd5b91506200023160408501620001d0565b90509250925092565b611f81806200024a6000396000f3fe60806040526004361061026e5760003560e01c80637cd0fc9b11610153578063c51a29e0116100cb578063e98a04e11161007f578063f4020b5b11610064578063f4020b5b146106a2578063f60ff937146106c2578063fc3dfc99146106d757610275565b8063e98a04e11461066d578063efa1f98a1461068257610275565b8063cfa8b3a8116100b0578063cfa8b3a814610613578063d80528ae14610628578063dd62ed3e1461064d57610275565b8063c51a29e0146105dc578063cbf5a55e146105fe57610275565b8063a457c2d711610122578063aaf5eb6811610107578063aaf5eb6814610592578063bc5d198a146105a7578063c18c6057146105bc57610275565b8063a457c2d714610552578063a9059cbb1461057257610275565b80637cd0fc9b146104e557806395d89b41146104fa5780639c5900061461050f5780639f7754cd1461052457610275565b8063313ce567116101e657806351c6590a116101b557806370b68a2a1161019a57806370b68a2a14610468578063758af3ab1461049757806379fac08c146104b757610275565b806351c6590a1461042857806370a082311461044857610275565b8063313ce567146103af57806332a2c5d0146103d157806339509351146103f3578063514ea9bd1461041357610275565b806315770f921161023d578063188ff85411610222578063188ff8541461035a57806323b872dd1461037a5780632c865d6c1461039a57610275565b806315770f921461032357806318160ddd1461034557610275565b806306fdde031461027a578063095ea7b3146102a55780630a861f2a146102d25780630e82da53146102f457610275565b3661027557005b600080fd5b34801561028657600080fd5b5061028f6106f7565b60405161029c9190611b46565b60405180910390f35b3480156102b157600080fd5b506102c56102c0366004611919565b6107ab565b60405161029c9190611b27565b3480156102de57600080fd5b506102f26102ed36600461199a565b6107c9565b005b34801561030057600080fd5b5061031461030f3660046119b2565b6109ef565b60405161029c93929190611d82565b34801561032f57600080fd5b506103386109fb565b60405161029c9190611d58565b34801561035157600080fd5b50610338610a01565b34801561036657600080fd5b506102c5610375366004611919565b610a07565b34801561038657600080fd5b506102c56103953660046118de565b610a0f565b3480156103a657600080fd5b50610338610ab0565b3480156103bb57600080fd5b506103c4610ab5565b60405161029c9190611e1b565b3480156103dd57600080fd5b506103e6610abe565b60405161029c9190611a4e565b3480156103ff57600080fd5b506102c561040e366004611919565b610adf565b34801561041f57600080fd5b50610338610b3a565b34801561043457600080fd5b506102f261044336600461199a565b610b43565b34801561045457600080fd5b50610338610463366004611892565b610b50565b34801561047457600080fd5b50610488610483366004611892565b610b7c565b60405161029c93929190611dea565b3480156104a357600080fd5b506103386104b23660046119b2565b610b9d565b3480156104c357600080fd5b506104d76104d23660046119b2565b610bb0565b60405161029c929190611d61565b3480156104f157600080fd5b506103e6610ab0565b34801561050657600080fd5b5061028f610bba565b34801561051b57600080fd5b50610338610c39565b34801561053057600080fd5b5061054461053f366004611892565b610c42565b60405161029c929190611ddc565b34801561055e57600080fd5b506102c561056d366004611919565b610c5b565b34801561057e57600080fd5b506102c561058d366004611919565b610cd0565b34801561059e57600080fd5b50610338610ce4565b3480156105b357600080fd5b50610338610ced565b3480156105c857600080fd5b506102f26105d736600461199a565b610b4d565b3480156105e857600080fd5b506105f1610cf5565b60405161029c9190611b32565b34801561060a57600080fd5b50610338610d17565b34801561061f57600080fd5b50610338610d20565b34801561063457600080fd5b5061063d610d2a565b60405161029c9493929190611e00565b34801561065957600080fd5b506103386106683660046118ac565b610d34565b34801561067957600080fd5b50610338610d6c565b34801561068e57600080fd5b506102f261069d366004611919565b610d75565b3480156106ae57600080fd5b506102f26106bd3660046119d3565b610d83565b3480156106ce57600080fd5b50610338610d94565b3480156106e357600080fd5b506102f26106f2366004611942565b610d9a565b60038054604080516020601f60027fffffffffffffffffffffffffffffffffffffffffffffffffffffffffffffffff6101006001881615020190951694909404938401819004810282018101909252828152606093909290918301828280156107a15780601f10610776576101008083540402835291602001916107a1565b820191906000526020600020905b81548152906001019060200180831161078457829003601f168201915b5050505050905090565b60006107bf6107b8610dac565b8484610db0565b5060015b92915050565b6107d1611833565b5033600090815260096020908152604091829020825180840190935280548352600101549082018190526108205760405162461bcd60e51b815260040161081790611c5a565b60405180910390fd5b600061082b33610ec3565b825190915061083a9082610ec9565b82526007546108499082610ec9565b600755815183111561086d5760405162461bcd60e51b815260040161081790611cfb565b60085460075461087d9085610f23565b101561089b5760405162461bcd60e51b815260040161081790611cc4565b81516108a79084610f23565b82524260208084019182523360009081526009909152604090208351815590516001909101556007546108da9084610f23565b6007556006546040517fa9059cbb00000000000000000000000000000000000000000000000000000000815273ffffffffffffffffffffffffffffffffffffffff90911690600090829063a9059cbb9061093a9033908990600401611a6f565b602060405180830381600087803b15801561095457600080fd5b505af1158015610968573d6000803e3d6000fd5b505050506040513d601f19601f8201168201806040525081019061098c919061197a565b9050806109ab5760405162461bcd60e51b815260040161081790611c23565b7fac927268ea9ae2e55027e6ab727fc2db8e3ea48c56c658223a1074567e4298c033866007546040516109e093929190611a95565b60405180910390a15050505050565b60006060809250925092565b60075481565b60025490565b600092915050565b6000610a1c848484610f65565b610aa684610a28610dac565b610aa185604051806060016040528060288152602001611eb66028913973ffffffffffffffffffffffffffffffffffffffff8a16600090815260016020526040812090610a73610dac565b73ffffffffffffffffffffffffffffffffffffffff1681526020810191909152604001600020549190611101565b610db0565b5060019392505050565b600090565b60055460ff1690565b600554610100900473ffffffffffffffffffffffffffffffffffffffff1690565b60006107bf610aec610dac565b84610aa18560016000610afd610dac565b73ffffffffffffffffffffffffffffffffffffffff908116825260208083019390935260409182016000908120918c168152925290205490610ec9565b6445d964b80081565b610b4d3382611198565b50565b73ffffffffffffffffffffffffffffffffffffffff81166000908152602081905260409020545b919050565b600a6020526000908152604090208054600182015460029092015490919083565b6000610ba9838361136f565b9392505050565b5060009160609150565b60048054604080516020601f60027fffffffffffffffffffffffffffffffffffffffffffffffffffffffffffffffff6101006001881615020190951694909404938401819004810282018101909252828152606093909290918301828280156107a15780601f10610776576101008083540402835291602001916107a1565b640ba43b740081565b6009602052600090815260409020805460019091015482565b60006107bf610c68610dac565b84610aa185604051806060016040528060258152602001611f276025913960016000610c92610dac565b73ffffffffffffffffffffffffffffffffffffffff908116825260208083019390935260409182016000908120918d16815292529020549190611101565b60006107bf610cdd610dac565b8484610f65565b6402540be40081565b6301e1338081565b6005547501000000000000000000000000000000000000000000900460ff1690565b64e8d4a5100081565b65015d3ef7980081565b6000808080919293565b73ffffffffffffffffffffffffffffffffffffffff918216600090815260016020908152604080832093909416825291909152205490565b64a2fb40580081565b610d7f8282611198565b5050565b610d8f3384848461146f565b505050565b60085481565b610da68484848461146f565b50505050565b3390565b73ffffffffffffffffffffffffffffffffffffffff8316610e025760405162461bcd60e51b8152600401808060200182810382526024815260200180611f036024913960400191505060405180910390fd5b73ffffffffffffffffffffffffffffffffffffffff8216610e545760405162461bcd60e51b8152600401808060200182810382526022815260200180611e4d6022913960400191505060405180910390fd5b73ffffffffffffffffffffffffffffffffffffffff808416600081815260016020908152604080832094871680845294825291829020859055815185815291517f8c5be1e5ebec7d5bd14f71427d1e84f3dd0314c0f7b2291e5b200ac8c7c3b9259281900390910190a3505050565b50600090565b600082820183811015610ba9576040805162461bcd60e51b815260206004820152601b60248201527f536166654d6174683a206164646974696f6e206f766572666c6f770000000000604482015290519081900360640190fd5b6000610ba983836040518060400160405280601e81526020017f536166654d6174683a207375627472616374696f6e206f766572666c6f770000815250611101565b73ffffffffffffffffffffffffffffffffffffffff8316610fb75760405162461bcd60e51b8152600401808060200182810382526025815260200180611ede6025913960400191505060405180910390fd5b73ffffffffffffffffffffffffffffffffffffffff82166110095760405162461bcd60e51b8152600401808060200182810382526023815260200180611e2a6023913960400191505060405180910390fd5b611014838383610d8f565b61105e81604051806060016040528060268152602001611e6f6026913973ffffffffffffffffffffffffffffffffffffffff86166000908152602081905260409020549190611101565b73ffffffffffffffffffffffffffffffffffffffff808516600090815260208190526040808220939093559084168152205461109a9082610ec9565b73ffffffffffffffffffffffffffffffffffffffff8084166000818152602081815260409182902094909455805185815290519193928716927fddf252ad1be2c89b69c2b068fc378daa952ba7f163c4a11628f55a4df523b3ef92918290030190a3505050565b600081848411156111905760405162461bcd60e51b81526004018080602001828103825283818151815260200191508051906020019080838360005b8381101561115557818101518382015260200161113d565b50505050905090810190601f1680156111825780820380516001836020036101000a031916815260200191505b509250505060405180910390fd5b505050900390565b6111a0611833565b5073ffffffffffffffffffffffffffffffffffffffff82166000908152600960209081526040808320815180830190925280548252600101549181018290529190156111f2576111ef84610ec3565b90505b60006111fe8483610ec9565b835190915061120d9082610ec9565b835242602080850191825273ffffffffffffffffffffffffffffffffffffffff871660009081526009909152604090208451815590516001909101556007546112569082610ec9565b6007556006546040517f23b872dd00000000000000000000000000000000000000000000000000000000815273ffffffffffffffffffffffffffffffffffffffff9091169060009082906323b872dd906112b8908a9030908b90600401611ac3565b602060405180830381600087803b1580156112d257600080fd5b505af11580156112e6573d6000803e3d6000fd5b505050506040513d601f19601f8201168201806040525081019061130a919061197a565b9050806113295760405162461bcd60e51b815260040161081790611c23565b7f06239653922ac7bea6aa2b19dc486b9361821d37712eb796adfd38d81de278ca878760075460405161135e93929190611a95565b60405180910390a150505050505050565b600060075461138983600854610ec990919063ffffffff16565b11156113a75760405162461bcd60e51b815260040161081790611bee565b6000600754116113c95760405162461bcd60e51b815260040161081790611bb7565b60006113fe6007546113f86402540be4006064026113f287600854610ec990919063ffffffff16565b90611691565b906116ea565b9050600064a2fb40580082101561141f576114188261172c565b905061142b565b61142882611746565b90505b61143a81640ba43b74006117b7565b905060006114506301e133806113f88885611691565b905061146564e8d4a510006113f88784611691565b9695505050505050565b61147761184d565b5073ffffffffffffffffffffffffffffffffffffffff84166000908152600a6020908152604091829020825160608101845281548152600182015492810183905260029091015492810192909252156114e25760405162461bcd60e51b815260040161081790611c8f565b6008546114ef9084610ec9565b60075410156115105760405162461bcd60e51b815260040161081790611cc4565b600061151c858561136f565b8483526020808401878152604080860187815273ffffffffffffffffffffffffffffffffffffffff8b166000908152600a9094529220855181559051600182015590516002909101556008549091506115759085610ec9565b6008556006546040517f23b872dd00000000000000000000000000000000000000000000000000000000815273ffffffffffffffffffffffffffffffffffffffff9091169060009082906323b872dd906115d7908b9030908890600401611ac3565b602060405180830381600087803b1580156115f157600080fd5b505af1158015611605573d6000803e3d6000fd5b505050506040513d601f19601f82011682018060405250810190611629919061197a565b9050806116485760405162461bcd60e51b815260040161081790611c23565b7f1cd728a6e764ed0dcddb6e5b88d736a4a8d2a0d420ca373588f7a1109e18663f88878560085460405161167f9493929190611af4565b60405180910390a15050505050505050565b6000826116a0575060006107c3565b828202828482816116ad57fe5b0414610ba95760405162461bcd60e51b8152600401808060200182810382526021815260200180611e956021913960400191505060405180910390fd5b6000610ba983836040518060400160405280601a81526020017f536166654d6174683a206469766973696f6e206279207a65726f0000000000008152506117ce565b60006107c364a2fb4058006113f8846445d964b800611691565b60008061177e61176064e8d4a5100064a2fb405800610f23565b6113f86117728664a2fb405800610f23565b6402540be40090611691565b9050610ba96117ab6402540be4006113f86117a465015d3ef798006445d964b800610f23565b8590611691565b6445d964b80090610ec9565b6000818310156117c75781610ba9565b5090919050565b6000818361181d5760405162461bcd60e51b815260206004820181815283516024840152835190928392604490910191908501908083836000831561115557818101518382015260200161113d565b50600083858161182957fe5b0495945050505050565b604051806040016040528060008152602001600081525090565b60405180606001604052806000815260200160008152602001600081525090565b803573ffffffffffffffffffffffffffffffffffffffff81168114610b7757600080fd5b6000602082840312156118a3578081fd5b610ba98261186e565b600080604083850312156118be578081fd5b6118c78361186e565b91506118d56020840161186e565b90509250929050565b6000806000606084860312156118f2578081fd5b6118fb8461186e565b92506119096020850161186e565b9150604084013590509250925092565b6000806040838503121561192b578182fd5b6119348361186e565b946020939093013593505050565b60008060008060808587031215611957578081fd5b6119608561186e565b966020860135965060408601359560600135945092505050565b60006020828403121561198b578081fd5b81518015158114610ba9578182fd5b6000602082840312156119ab578081fd5b5035919050565b600080604083850312156119c4578182fd5b50508035926020909101359150565b6000806000606084860312156119e7578283fd5b505081359360208301359350604090920135919050565b6000815180845260208085019450808401835b83811015611a4357815173ffffffffffffffffffffffffffffffffffffffff1687529582019590820190600101611a11565b509495945050505050565b73ffffffffffffffffffffffffffffffffffffffff91909116815260200190565b73ffffffffffffffffffffffffffffffffffffffff929092168252602082015260400190565b73ffffffffffffffffffffffffffffffffffffffff9390931683526020830191909152604082015260600190565b73ffffffffffffffffffffffffffffffffffffffff9384168152919092166020820152604081019190915260600190565b73ffffffffffffffffffffffffffffffffffffffff94909416845260208401929092526040830152606082015260800190565b901515815260200190565b6020810160048310611b4057fe5b91905290565b6000602080835283518082850152825b81811015611b7257858101830151858201604001528201611b56565b81811115611b835783604083870101525b50601f017fffffffffffffffffffffffffffffffffffffffffffffffffffffffffffffffe016929092016040019392505050565b60208082526011908201527f54686520706f6f6c20697320656d707479000000000000000000000000000000604082015260600190565b6020808252818101527f526571756972696e67206d6f7265207468616e20746865726520657869737473604082015260600190565b60208082526019908201527f4661696c656420746f207472616e7366657220746f6b656e7300000000000000604082015260600190565b6020808252818101527f4c697175696469747920686f6c64657220646f6573206e6f7420657869737473604082015260600190565b6020808252818101527f54686520706f6c69637920686f6c64657220616c726561647920657869737473604082015260600190565b6020808252601e908201527f4e6f7420656e6f75676820617661696c61626c65206c69717569646974790000604082015260600190565b6020808252603f908201527f54686520616d6f756e7420746f2062652077697468647261776e20697320677260408201527f6561746572207468616e20746865206465706f736974656420616d6f756e7400606082015260800190565b90815260200190565b600083825260406020830152611d7a60408301846119fe565b949350505050565b60008482526020606081840152611d9c60608401866119fe565b8381036040850152845180825282860191830190845b81811015611dce57835183529284019291840191600101611db2565b509098975050505050505050565b918252602082015260400190565b9283526020830191909152604082015260600190565b93845260208401929092526040830152606082015260800190565b60ff9190911681526020019056fe45524332303a207472616e7366657220746f20746865207a65726f206164647265737345524332303a20617070726f766520746f20746865207a65726f206164647265737345524332303a207472616e7366657220616d6f756e7420657863656564732062616c616e6365536166654d6174683a206d756c7469706c69636174696f6e206f766572666c6f7745524332303a207472616e7366657220616d6f756e74206578636565647320616c6c6f77616e636545524332303a207472616e736665722066726f6d20746865207a65726f206164647265737345524332303a20617070726f76652066726f6d20746865207a65726f206164647265737345524332303a2064656372656173656420616c6c6f77616e63652062656c6f77207a65726fa2646970667358221220b85c8f3880d73a8ee79439a399cb6ff64837ff3881d93d4cfc37100055665fcb64736f6c63430007040033",
  "immutableReferences": {},
  "source": "// SPDX-License-Identifier: MIT\npragma solidity ^0.7.4;\npragma experimental ABIEncoderV2;\n\nimport \"@openzeppelin/contracts/token/ERC20/ERC20.sol\";\nimport \"@openzeppelin/contracts/token/ERC20/IERC20.sol\";\nimport \"@openzeppelin/contracts/math/SafeMath.sol\";\nimport \"@openzeppelin/contracts/math/Math.sol\";\n\nimport \"./interfaces/IPolicyBook.sol\";\nimport \"./interfaces/IPolicyBookFabric.sol\";\n\ncontract PolicyBook is IPolicyBook, ERC20 {\n  using SafeMath for uint256;\n  using Math for uint256;\n\n  address contractAddress;\n  IPolicyBookFabric.ContractType contractType;\n  address daiAddr;\n\n  uint256 public totalLiquidity;\n  uint256 public totalCoverTokens;\n\n  struct LiquidityHolder {\n    uint256 depositedAmount;\n    uint256 lastUpdate;\n  }\n\n  struct PolicyHolder {\n    uint256 coverTokens;\n    uint256 durationSeconds;\n    uint256 maxDaiTokens;\n  }\n\n  mapping(address => LiquidityHolder) public liquidityHolders;\n  mapping(address => PolicyHolder) public policyHolders;\n\n  event AddLiquidity(address _liquidityHolder, uint256 _liqudityAmount, uint256 _newTotalLiquidity);\n  event WithdrawLiquidity(address _liquidityHolder, uint256 _tokensToWithdraw, uint256 _newTotalLiquidity);\n  event BuyPolicy(address _policyHolder, uint256 _coverTokens, uint256 _price, uint256 _newTotalCoverTokens);\n\n  constructor(address _contract, IPolicyBookFabric.ContractType _contractType, address _daiAddr)\n    ERC20(\"BridgeMutual Insurance\", \"bmiDAIx\")\n  {\n    contractAddress = _contract;\n    contractType = _contractType;\n    daiAddr = _daiAddr;\n  }\n\n  receive() external payable {}\n\n  function getContractAddress() external view override returns (address _contract) {\n    _contract = contractAddress;\n  }\n\n  function getContractType() external view override returns (IPolicyBookFabric.ContractType _type) {\n    _type = contractType;\n  }\n\n  function quoteStrategy() external view override returns (address _quoteStrategy) {\n    return address(0);\n  }\n\n  function shieldAssets(uint256 _offset, uint256 _limit)\n    external\n    view\n    override\n    returns (uint256 _shieldAssetsCount, address[] memory _shieldAssets)\n  {\n    address[] memory temp;\n    return (0, temp);\n  }\n\n  function shieldAssetsWithBalance(uint256 _offset, uint256 _limit)\n    external\n    view\n    override\n    returns (\n      uint256 _shieldAssetsCount,\n      address[] memory _shieldAssets,\n      uint256[] memory _shieldAssetBalance\n    )\n  {\n    address[] memory temp1;\n    uint256[] memory temp2;\n    return (0, temp1, temp2);\n  }\n\n  function shieldAssetsCount() external view override returns (uint256 _shieldAssetsCount) {\n    return 0;\n  }\n\n  function addShieldTokens(address _tokenAddress, uint256 _tokensAmount) external override returns (bool _success) {\n    return false;\n  }\n\n  function buyPolicy(\n    uint256 _durationSeconds,\n    uint256 _coverTokens,\n    uint256 _maxDaiTokens\n  ) external override {\n    _buyPolicyFor(msg.sender, _durationSeconds, _coverTokens, _maxDaiTokens);\n  }\n\n  function buyPolicyFor(\n    address _policyHolderAddr,\n    uint256 _durationSeconds,\n    uint256 _coverTokens,\n    uint256 _maxDaiTokens\n  ) external override {\n    _buyPolicyFor(_policyHolderAddr, _durationSeconds, _coverTokens, _maxDaiTokens);\n  }\n\n  function _buyPolicyFor(\n    address _policyHolderAddr,\n    uint256 _durationSeconds,\n    uint256 _coverTokens,\n    uint256 _maxDaiTokens\n  ) internal {\n    PolicyHolder memory _policyHolder = policyHolders[_policyHolderAddr];\n    require(_policyHolder.durationSeconds == 0, \"The policy holder already exists\");\n    require(totalLiquidity >= totalCoverTokens.add(_coverTokens), \"Not enough available liquidity\");\n\n    uint256 _price = _getQuote(_durationSeconds, _coverTokens);\n\n    _policyHolder.coverTokens = _coverTokens;\n    _policyHolder.durationSeconds = _durationSeconds;\n    _policyHolder.maxDaiTokens = _maxDaiTokens;\n\n    policyHolders[_policyHolderAddr] = _policyHolder;\n    totalCoverTokens = totalCoverTokens.add(_coverTokens);\n\n    IERC20 daiToken = IERC20(daiAddr);\n    bool _success = daiToken.transferFrom(_policyHolderAddr, address(this), _price);\n    require(_success, \"Failed to transfer tokens\");\n\n    emit BuyPolicy(_policyHolderAddr, _coverTokens, _price, totalCoverTokens);\n  }\n\n  function addLiquidity(uint256 _liqudityAmount) external override {\n    _addLiquidityFor(msg.sender, _liqudityAmount);\n  }\n\n  function addLiquidityFor(address _liquidityHolderAddr, uint256 _liqudityAmount) external override {\n    _addLiquidityFor(_liquidityHolderAddr, _liqudityAmount);\n  }\n\n  function _addLiquidityFor(address _liquidityHolderAddr, uint256 _liqudityAmount) internal {\n    LiquidityHolder memory _liquidityHolder = liquidityHolders[_liquidityHolderAddr];\n\n    uint256 _calculatedInterest;\n    if (_liquidityHolder.lastUpdate > 0) {\n      _calculatedInterest = _calculateInterest(_liquidityHolderAddr);\n    }\n\n    uint256 _tokensToAdd = _liqudityAmount.add(_calculatedInterest);\n\n    _liquidityHolder.depositedAmount = _liquidityHolder.depositedAmount.add(_tokensToAdd);\n    _liquidityHolder.lastUpdate = block.timestamp;\n\n    liquidityHolders[_liquidityHolderAddr] = _liquidityHolder;\n\n    totalLiquidity = totalLiquidity.add(_tokensToAdd);\n\n    IERC20 daiToken = IERC20(daiAddr);\n    bool _success = daiToken.transferFrom(_liquidityHolderAddr, address(this), _liqudityAmount);\n    require(_success, \"Failed to transfer tokens\");\n\n    emit AddLiquidity(_liquidityHolderAddr, _liqudityAmount, totalLiquidity);\n  }\n\n  function withdrawLiquidity(uint256 _tokensToWithdraw) external override {\n    LiquidityHolder memory _liquidityHolder = liquidityHolders[msg.sender];\n\n    require(_liquidityHolder.lastUpdate > 0, \"Liquidity holder does not exists\");\n\n    uint256 _calculatedInterest = _calculateInterest(msg.sender);\n    _liquidityHolder.depositedAmount = _liquidityHolder.depositedAmount.add(_calculatedInterest);\n    totalLiquidity = totalLiquidity.add(_calculatedInterest);\n\n    require(\n      _liquidityHolder.depositedAmount >= _tokensToWithdraw,\n      \"The amount to be withdrawn is greater than the deposited amount\"\n    );\n\n    require(totalLiquidity.sub(_tokensToWithdraw) >= totalCoverTokens, \"Not enough available liquidity\");\n\n    _liquidityHolder.depositedAmount = _liquidityHolder.depositedAmount.sub(_tokensToWithdraw);\n    _liquidityHolder.lastUpdate = block.timestamp;\n\n    liquidityHolders[msg.sender] = _liquidityHolder;\n\n    totalLiquidity = totalLiquidity.sub(_tokensToWithdraw);\n\n    IERC20 daiToken = IERC20(daiAddr);\n    bool _success = daiToken.transfer(msg.sender, _tokensToWithdraw);\n    require(_success, \"Failed to transfer tokens\");\n\n    emit WithdrawLiquidity(msg.sender, _tokensToWithdraw, totalLiquidity);\n  }\n\n  function _calculateInterest(address _policyHolder) internal view returns (uint256) {\n    return 0;\n  }\n\n  function rewardForUnclaimedExpiredPolicy(uint256 _policyId) external override {}\n\n  function stats()\n    external\n    override\n    returns (\n      uint256 _yearlyCost,\n      uint256 _maxCapacities,\n      uint256 _totalDaiLiquidity,\n      uint256 _annualProfitYields\n    )\n  {\n    return (0, 0, 0, 0);\n  }\n\n  uint256 public constant SECONDS_IN_THE_YEAR = 365 * 24 * 60 * 60; // 365 days * 24 hours * 60 minutes * 60 seconds\n  uint256 public constant PRECISION = 10**10;\n  uint256 public constant PERCENTAGE_100 = 100 * PRECISION;\n\n  uint256 public constant MINIMUM_COST_PERCENTAGE = 5 * PRECISION;\n  uint256 public constant RISKY_ASSET_THRESHOLD_PERCENTAGE = 70 * PRECISION;\n  uint256 public constant MAXIMUM_COST_NOT_RISKY_PERCENTAGE = 30 * PRECISION;\n  uint256 public constant MAXIMUM_COST_100_UTILIZATION_PERCENTAGE = 150 * PRECISION;\n\n  function calculateWhenNotRisky(uint256 _utilizationRatioPercentage) private pure returns (uint256) {\n    return (_utilizationRatioPercentage.mul(MAXIMUM_COST_NOT_RISKY_PERCENTAGE)).div(RISKY_ASSET_THRESHOLD_PERCENTAGE);\n  }\n\n  function calculateWhenIsRisky(uint256 _utilizationRatioPercentage) private pure returns (uint256) {\n    uint256 riskyRelation =\n      (PRECISION.mul(_utilizationRatioPercentage.sub(RISKY_ASSET_THRESHOLD_PERCENTAGE))).div(\n        (PERCENTAGE_100.sub(RISKY_ASSET_THRESHOLD_PERCENTAGE))\n      );\n\n    return\n      MAXIMUM_COST_NOT_RISKY_PERCENTAGE.add(\n        (riskyRelation.mul(MAXIMUM_COST_100_UTILIZATION_PERCENTAGE.sub(MAXIMUM_COST_NOT_RISKY_PERCENTAGE))).div(\n          PRECISION\n        )\n      );\n  }\n\n  function getQuote(uint256 _durationSeconds, uint256 _tokens) external view override returns (uint256 _daiTokens) {\n    _daiTokens = _getQuote(_durationSeconds, _tokens);\n  }\n\n  function _getQuote(uint256 _durationSeconds, uint256 _tokens) internal view returns (uint256) {\n    require(totalCoverTokens.add(_tokens) <= totalLiquidity, \"Requiring more than there exists\");\n    require(totalLiquidity > 0, \"The pool is empty\");\n\n    uint256 utilizationRatioPercentage = ((totalCoverTokens.add(_tokens)).mul(PERCENTAGE_100)).div(totalLiquidity);\n\n    uint256 annualInsuranceCostPercentage;\n\n    if (utilizationRatioPercentage < RISKY_ASSET_THRESHOLD_PERCENTAGE) {\n      annualInsuranceCostPercentage = calculateWhenNotRisky(utilizationRatioPercentage);\n    } else {\n      annualInsuranceCostPercentage = calculateWhenIsRisky(utilizationRatioPercentage);\n    }\n\n    annualInsuranceCostPercentage = Math.max(annualInsuranceCostPercentage, MINIMUM_COST_PERCENTAGE);\n\n    uint256 actualInsuranceCostPercentage = \n      (_durationSeconds.mul(annualInsuranceCostPercentage)).div(SECONDS_IN_THE_YEAR);\n\n    return (_tokens.mul(actualInsuranceCostPercentage)).div(PERCENTAGE_100);\n  }\n}\n",
  "sourcePath": "/home/artem/Projects/Distributed_Lab/Applicature/bridgemutual-core/contracts/PolicyBook.sol",
  "compiler": {
    "name": "solc",
    "version": "0.7.4+commit.3f05b770.Emscripten.clang"
  },
  "schemaVersion": "3.3.3",
  "updatedAt": "2021-01-20T09:42:54.477Z",
  "devdoc": {
    "kind": "dev",
    "methods": {
      "addLiquidity(uint256)": {
        "params": {
          "_liqudityAmount": "is amount of DAI tokens to secure"
        }
      },
      "addLiquidityFor(address,uint256)": {
        "params": {
          "_liqudityAmount": "is amount of DAI tokens to secure",
          "_liquidityHolderAddr": "is address of address to assign cover"
        }
      },
      "addShieldTokens(address,uint256)": {
        "params": {
          "_tokenAddress": "is address of reward token to add",
          "_tokensAmount": "is max amount of reward to operate on"
        },
        "returns": {
          "_success": "is indicator if purchase is successful, it will throw exception if unsuccessful"
        }
      },
      "allowance(address,address)": {
        "details": "See {IERC20-allowance}."
      },
      "approve(address,uint256)": {
        "details": "See {IERC20-approve}. Requirements: - `spender` cannot be the zero address."
      },
      "balanceOf(address)": {
        "details": "See {IERC20-balanceOf}."
      },
      "buyPolicy(uint256,uint256,uint256)": {
        "params": {
          "_coverTokens": "is number of tokens to cover",
          "_durationSeconds": "is number of seconds to cover",
          "_maxDaiTokens": "is number of DAI to spend"
        }
      },
      "buyPolicyFor(address,uint256,uint256,uint256)": {
        "params": {
          "_coverTokens": "is number of tokens to cover",
          "_durationSeconds": "is number of seconds to cover",
          "_maxDaiTokens": "is number of DAI to spend",
          "_policyHolderAddr": "is address of address to assign cover"
        }
      },
      "decimals()": {
        "details": "Returns the number of decimals used to get its user representation. For example, if `decimals` equals `2`, a balance of `505` tokens should be displayed to a user as `5,05` (`505 / 10 ** 2`). Tokens usually opt for a value of 18, imitating the relationship between Ether and Wei. This is the value {ERC20} uses, unless {_setupDecimals} is called. NOTE: This information is only used for _display_ purposes: it in no way affects any of the arithmetic of the contract, including {IERC20-balanceOf} and {IERC20-transfer}."
      },
      "decreaseAllowance(address,uint256)": {
        "details": "Atomically decreases the allowance granted to `spender` by the caller. This is an alternative to {approve} that can be used as a mitigation for problems described in {IERC20-approve}. Emits an {Approval} event indicating the updated allowance. Requirements: - `spender` cannot be the zero address. - `spender` must have allowance for the caller of at least `subtractedValue`."
      },
      "getContractAddress()": {
        "returns": {
          "_contract": "is address of covered contract"
        }
      },
      "getContractType()": {
        "returns": {
          "_type": "is type of contract"
        }
      },
      "getQuote(uint256,uint256)": {
        "params": {
          "_durationSeconds": "is number of seconds to cover",
          "_tokens": "is number of tokens to cover"
        },
        "returns": {
          "_daiTokens": "is amount of DAI policy costs"
        }
      },
      "increaseAllowance(address,uint256)": {
        "details": "Atomically increases the allowance granted to `spender` by the caller. This is an alternative to {approve} that can be used as a mitigation for problems described in {IERC20-approve}. Emits an {Approval} event indicating the updated allowance. Requirements: - `spender` cannot be the zero address."
      },
      "name()": {
        "details": "Returns the name of the token."
      },
      "quoteStrategy()": {
        "returns": {
          "_quoteStrategy": "is address of Quote strategy contract used to calculate quote"
        }
      },
      "rewardForUnclaimedExpiredPolicy(uint256)": {
        "params": {
          "_policyId": "is id of policy to get reward for, reward will be sent to policy holder"
        }
      },
      "shieldAssets(uint256,uint256)": {
        "params": {
          "_limit": "is number of policy books to returns from _offset",
          "_offset": "is starting item in array to return array from"
        },
        "returns": {
          "_shieldAssets": "is addresses of shield assets, that will be distributed to Policy givers",
          "_shieldAssetsCount": "is number of added shield assets"
        }
      },
      "shieldAssetsCount()": {
        "returns": {
          "_shieldAssetsCount": "is number of added shield assets"
        }
      },
      "shieldAssetsWithBalance(uint256,uint256)": {
        "params": {
          "_limit": "is number of policy books to returns from _offset",
          "_offset": "is starting item in array to return array from"
        },
        "returns": {
          "_shieldAssetBalance": "is tokens amount of shield assets allocated to Policy Book,  to get specific shield asset balance lookup _shieldAssetBalances by same index as of shield asset",
          "_shieldAssets": "is addresses of shield assets, that will be distributed to Policy givers",
          "_shieldAssetsCount": "is number of added shield assets"
        }
      },
      "stats()": {
        "returns": {
          "_annualProfitYields": "is current annual profit yield",
          "_maxCapacities": "is max DAI amount to be covered at now",
          "_totalDaiLiquidity": "is DAI amount placed by Policy providers",
          "_yearlyCost": "_yearlyCost"
        }
      },
      "symbol()": {
        "details": "Returns the symbol of the token, usually a shorter version of the name."
      },
      "totalSupply()": {
        "details": "See {IERC20-totalSupply}."
      },
      "transfer(address,uint256)": {
        "details": "See {IERC20-transfer}. Requirements: - `recipient` cannot be the zero address. - the caller must have a balance of at least `amount`."
      },
      "transferFrom(address,address,uint256)": {
        "details": "See {IERC20-transferFrom}. Emits an {Approval} event indicating the updated allowance. This is not required by the EIP. See the note at the beginning of {ERC20}. Requirements: - `sender` and `recipient` cannot be the zero address. - `sender` must have a balance of at least `amount`. - the caller must have allowance for ``sender``'s tokens of at least `amount`."
      },
      "withdrawLiquidity(uint256)": {
        "params": {
          "_tokensToWithdraw": "is amount of DAI tokens to withdraw"
        }
      }
    },
    "version": 1
  },
  "userdoc": {
    "kind": "user",
    "methods": {
      "addLiquidity(uint256)": {
        "notice": "Let user to add liquidity by supplying DAI, access: ANY"
      },
      "addLiquidityFor(address,uint256)": {
        "notice": "Let user to add liqiudity for another user by supplying DAI, access: ANY"
      },
      "addShieldTokens(address,uint256)": {
        "notice": "Adds shield tokens to contract, access: ANY"
      },
      "buyPolicy(uint256,uint256,uint256)": {
        "notice": "Let user to buy policy by supplying DAI, access: ANY"
      },
      "buyPolicyFor(address,uint256,uint256,uint256)": {
        "notice": "Let user to buy policy for another user by supplying DAI, access: ANY"
      },
      "getContractAddress()": {
        "notice": "Returns address of contract this PolicyBook covers, access: ANY"
      },
      "getContractType()": {
        "notice": "Returns type of contract this PolicyBook covers, access: ANY"
      },
      "getQuote(uint256,uint256)": {
        "notice": "Let user to calculate policy cost in DAI, access: ANY"
      },
      "quoteStrategy()": {
        "notice": "Returns quote strategy defined during creation of PolicyBook, access: ANY"
      },
      "rewardForUnclaimedExpiredPolicy(uint256)": {
        "notice": "Let user to claim rewards for unclaimed policy cost in DAI, access: ANY"
      },
      "shieldAssets(uint256,uint256)": {
        "notice": "Returns list of shield assets added to PolicyBook, access: ANY"
      },
      "shieldAssetsCount()": {
        "notice": "Returns number of shield assets added, access: ANY"
      },
      "shieldAssetsWithBalance(uint256,uint256)": {
        "notice": "Returns list of shield assets added with tokens amount allocated to Policy Book, access: ANY"
      },
      "stats()": {
        "notice": "Getting stats, access: ANY"
      },
      "withdrawLiquidity(uint256)": {
        "notice": "Let user to withdraw deposited liqiudity, access: ANY"
      }
    },
    "version": 1
  }
}