{
  "contractName": "PolicyBook",
  "abi": [
    {
      "inputs": [
        {
          "internalType": "address",
          "name": "_insuranceContract",
          "type": "address"
        },
        {
          "internalType": "enum IPolicyBookFabric.ContractType",
          "name": "_contractType",
          "type": "uint8"
        },
        {
          "internalType": "string",
          "name": "_description",
          "type": "string"
        },
        {
          "internalType": "string",
          "name": "_projectSymbol",
          "type": "string"
        }
      ],
      "stateMutability": "nonpayable",
      "type": "constructor"
    },
    {
      "anonymous": false,
      "inputs": [
        {
          "indexed": false,
          "internalType": "address",
          "name": "_liquidityHolder",
          "type": "address"
        },
        {
          "indexed": false,
          "internalType": "uint256",
          "name": "_liqudityAmount",
          "type": "uint256"
        },
        {
          "indexed": false,
          "internalType": "uint256",
          "name": "_newTotalLiquidity",
          "type": "uint256"
        }
      ],
      "name": "AddLiquidity",
      "type": "event"
    },
    {
      "anonymous": false,
      "inputs": [
        {
          "indexed": true,
          "internalType": "address",
          "name": "owner",
          "type": "address"
        },
        {
          "indexed": true,
          "internalType": "address",
          "name": "spender",
          "type": "address"
        },
        {
          "indexed": false,
          "internalType": "uint256",
          "name": "value",
          "type": "uint256"
        }
      ],
      "name": "Approval",
      "type": "event"
    },
    {
      "anonymous": false,
      "inputs": [
        {
          "indexed": false,
          "internalType": "address",
          "name": "_policyHolder",
          "type": "address"
        },
        {
          "indexed": false,
          "internalType": "uint256",
          "name": "_coverTokens",
          "type": "uint256"
        },
        {
          "indexed": false,
          "internalType": "uint256",
          "name": "_price",
          "type": "uint256"
        },
        {
          "indexed": false,
          "internalType": "uint256",
          "name": "_newTotalCoverTokens",
          "type": "uint256"
        }
      ],
      "name": "BuyPolicy",
      "type": "event"
    },
    {
      "anonymous": false,
      "inputs": [
        {
          "indexed": true,
          "internalType": "address",
          "name": "previousOwner",
          "type": "address"
        },
        {
          "indexed": true,
          "internalType": "address",
          "name": "newOwner",
          "type": "address"
        }
      ],
      "name": "OwnershipTransferred",
      "type": "event"
    },
    {
      "anonymous": false,
      "inputs": [
        {
          "indexed": true,
          "internalType": "address",
          "name": "from",
          "type": "address"
        },
        {
          "indexed": true,
          "internalType": "address",
          "name": "to",
          "type": "address"
        },
        {
          "indexed": false,
          "internalType": "uint256",
          "name": "value",
          "type": "uint256"
        }
      ],
      "name": "Transfer",
      "type": "event"
    },
    {
      "anonymous": false,
      "inputs": [
        {
          "indexed": false,
          "internalType": "address",
          "name": "_liquidityHolder",
          "type": "address"
        },
        {
          "indexed": false,
          "internalType": "uint256",
          "name": "_tokensToWithdraw",
          "type": "uint256"
        },
        {
          "indexed": false,
          "internalType": "uint256",
          "name": "_newTotalLiquidity",
          "type": "uint256"
        }
      ],
      "name": "WithdrawLiquidity",
      "type": "event"
    },
    {
      "inputs": [],
      "name": "MAXIMUM_COST_100_UTILIZATION_PERCENTAGE",
      "outputs": [
        {
          "internalType": "uint256",
          "name": "",
          "type": "uint256"
        }
      ],
      "stateMutability": "view",
      "type": "function"
    },
    {
      "inputs": [],
      "name": "MAXIMUM_COST_NOT_RISKY_PERCENTAGE",
      "outputs": [
        {
          "internalType": "uint256",
          "name": "",
          "type": "uint256"
        }
      ],
      "stateMutability": "view",
      "type": "function"
    },
    {
      "inputs": [],
      "name": "MINIMUM_COST_PERCENTAGE",
      "outputs": [
        {
          "internalType": "uint256",
          "name": "",
          "type": "uint256"
        }
      ],
      "stateMutability": "view",
      "type": "function"
    },
    {
      "inputs": [],
      "name": "PERCENTAGE_100",
      "outputs": [
        {
          "internalType": "uint256",
          "name": "",
          "type": "uint256"
        }
      ],
      "stateMutability": "view",
      "type": "function"
    },
    {
      "inputs": [],
      "name": "PRECISION",
      "outputs": [
        {
          "internalType": "uint256",
          "name": "",
          "type": "uint256"
        }
      ],
      "stateMutability": "view",
      "type": "function"
    },
    {
      "inputs": [],
      "name": "RISKY_ASSET_THRESHOLD_PERCENTAGE",
      "outputs": [
        {
          "internalType": "uint256",
          "name": "",
          "type": "uint256"
        }
      ],
      "stateMutability": "view",
      "type": "function"
    },
    {
      "inputs": [],
      "name": "SECONDS_IN_THE_YEAR",
      "outputs": [
        {
          "internalType": "uint256",
          "name": "",
          "type": "uint256"
        }
      ],
      "stateMutability": "view",
      "type": "function"
    },
    {
      "inputs": [
        {
          "internalType": "address",
          "name": "owner",
          "type": "address"
        },
        {
          "internalType": "address",
          "name": "spender",
          "type": "address"
        }
      ],
      "name": "allowance",
      "outputs": [
        {
          "internalType": "uint256",
          "name": "",
          "type": "uint256"
        }
      ],
      "stateMutability": "view",
      "type": "function"
    },
    {
      "inputs": [
        {
          "internalType": "address",
          "name": "spender",
          "type": "address"
        },
        {
          "internalType": "uint256",
          "name": "amount",
          "type": "uint256"
        }
      ],
      "name": "approve",
      "outputs": [
        {
          "internalType": "bool",
          "name": "",
          "type": "bool"
        }
      ],
      "stateMutability": "nonpayable",
      "type": "function"
    },
    {
      "inputs": [
        {
          "internalType": "address",
          "name": "account",
          "type": "address"
        }
      ],
      "name": "balanceOf",
      "outputs": [
        {
          "internalType": "uint256",
          "name": "",
          "type": "uint256"
        }
      ],
      "stateMutability": "view",
      "type": "function"
    },
    {
      "inputs": [],
      "name": "bmiDaiStakingAddress",
      "outputs": [
        {
          "internalType": "address",
          "name": "",
          "type": "address"
        }
      ],
      "stateMutability": "view",
      "type": "function"
    },
    {
      "inputs": [],
      "name": "contractType",
      "outputs": [
        {
          "internalType": "enum IPolicyBookFabric.ContractType",
          "name": "",
          "type": "uint8"
        }
      ],
      "stateMutability": "view",
      "type": "function"
    },
    {
      "inputs": [],
      "name": "contractsRegistry",
      "outputs": [
        {
          "internalType": "contract ContractsRegistry",
          "name": "",
          "type": "address"
        }
      ],
      "stateMutability": "view",
      "type": "function"
    },
    {
      "inputs": [],
      "name": "daiToken",
      "outputs": [
        {
          "internalType": "contract IERC20",
          "name": "",
          "type": "address"
        }
      ],
      "stateMutability": "view",
      "type": "function"
    },
    {
      "inputs": [],
      "name": "decimals",
      "outputs": [
        {
          "internalType": "uint8",
          "name": "",
          "type": "uint8"
        }
      ],
      "stateMutability": "view",
      "type": "function"
    },
    {
      "inputs": [
        {
          "internalType": "address",
          "name": "spender",
          "type": "address"
        },
        {
          "internalType": "uint256",
          "name": "subtractedValue",
          "type": "uint256"
        }
      ],
      "name": "decreaseAllowance",
      "outputs": [
        {
          "internalType": "bool",
          "name": "",
          "type": "bool"
        }
      ],
      "stateMutability": "nonpayable",
      "type": "function"
    },
    {
      "inputs": [
        {
          "internalType": "address",
          "name": "spender",
          "type": "address"
        },
        {
          "internalType": "uint256",
          "name": "addedValue",
          "type": "uint256"
        }
      ],
      "name": "increaseAllowance",
      "outputs": [
        {
          "internalType": "bool",
          "name": "",
          "type": "bool"
        }
      ],
      "stateMutability": "nonpayable",
      "type": "function"
    },
    {
      "inputs": [],
      "name": "insuranceContractAddress",
      "outputs": [
        {
          "internalType": "address",
          "name": "",
          "type": "address"
        }
      ],
      "stateMutability": "view",
      "type": "function"
    },
    {
      "inputs": [],
      "name": "name",
      "outputs": [
        {
          "internalType": "string",
          "name": "",
          "type": "string"
        }
      ],
      "stateMutability": "view",
      "type": "function"
    },
    {
      "inputs": [],
      "name": "owner",
      "outputs": [
        {
          "internalType": "address",
          "name": "",
          "type": "address"
        }
      ],
      "stateMutability": "view",
      "type": "function"
    },
    {
      "inputs": [
        {
          "internalType": "address",
          "name": "",
          "type": "address"
        }
      ],
      "name": "policyHolders",
      "outputs": [
        {
          "internalType": "uint256",
          "name": "coverTokens",
          "type": "uint256"
        },
        {
          "internalType": "uint256",
          "name": "durationSeconds",
          "type": "uint256"
        }
      ],
      "stateMutability": "view",
      "type": "function"
    },
    {
      "inputs": [],
      "name": "renounceOwnership",
      "outputs": [],
      "stateMutability": "nonpayable",
      "type": "function"
    },
    {
      "inputs": [],
      "name": "stakingTokens",
      "outputs": [
        {
          "internalType": "contract ERC1155MintableBurnable",
          "name": "",
          "type": "address"
        }
      ],
      "stateMutability": "view",
      "type": "function"
    },
    {
      "inputs": [],
      "name": "symbol",
      "outputs": [
        {
          "internalType": "string",
          "name": "",
          "type": "string"
        }
      ],
      "stateMutability": "view",
      "type": "function"
    },
    {
      "inputs": [],
      "name": "totalCoverTokens",
      "outputs": [
        {
          "internalType": "uint256",
          "name": "",
          "type": "uint256"
        }
      ],
      "stateMutability": "view",
      "type": "function"
    },
    {
      "inputs": [],
      "name": "totalLiquidity",
      "outputs": [
        {
          "internalType": "uint256",
          "name": "",
          "type": "uint256"
        }
      ],
      "stateMutability": "view",
      "type": "function"
    },
    {
      "inputs": [],
      "name": "totalSupply",
      "outputs": [
        {
          "internalType": "uint256",
          "name": "",
          "type": "uint256"
        }
      ],
      "stateMutability": "view",
      "type": "function"
    },
    {
      "inputs": [
        {
          "internalType": "address",
          "name": "recipient",
          "type": "address"
        },
        {
          "internalType": "uint256",
          "name": "amount",
          "type": "uint256"
        }
      ],
      "name": "transfer",
      "outputs": [
        {
          "internalType": "bool",
          "name": "",
          "type": "bool"
        }
      ],
      "stateMutability": "nonpayable",
      "type": "function"
    },
    {
      "inputs": [
        {
          "internalType": "address",
          "name": "sender",
          "type": "address"
        },
        {
          "internalType": "address",
          "name": "recipient",
          "type": "address"
        },
        {
          "internalType": "uint256",
          "name": "amount",
          "type": "uint256"
        }
      ],
      "name": "transferFrom",
      "outputs": [
        {
          "internalType": "bool",
          "name": "",
          "type": "bool"
        }
      ],
      "stateMutability": "nonpayable",
      "type": "function"
    },
    {
      "inputs": [
        {
          "internalType": "address",
          "name": "newOwner",
          "type": "address"
        }
      ],
      "name": "transferOwnership",
      "outputs": [],
      "stateMutability": "nonpayable",
      "type": "function"
    },
    {
      "stateMutability": "payable",
      "type": "receive"
    },
    {
      "inputs": [
        {
          "internalType": "contract ContractsRegistry",
          "name": "_contractsRegistry",
          "type": "address"
        }
      ],
      "name": "initRegistry",
      "outputs": [],
      "stateMutability": "nonpayable",
      "type": "function"
    },
    {
      "inputs": [],
      "name": "transferNFTMintingAndBurningOwnershipToStaking",
      "outputs": [],
      "stateMutability": "nonpayable",
      "type": "function"
    },
    {
      "inputs": [],
      "name": "approveAllDaiTokensForStaking",
      "outputs": [],
      "stateMutability": "nonpayable",
      "type": "function"
    },
    {
      "inputs": [],
      "name": "quoteStrategy",
      "outputs": [
        {
          "internalType": "address",
          "name": "_quoteStrategy",
          "type": "address"
        }
      ],
      "stateMutability": "view",
      "type": "function"
    },
    {
      "inputs": [
        {
          "internalType": "uint256",
          "name": "_offset",
          "type": "uint256"
        },
        {
          "internalType": "uint256",
          "name": "_limit",
          "type": "uint256"
        }
      ],
      "name": "shieldAssets",
      "outputs": [
        {
          "internalType": "uint256",
          "name": "_shieldAssetsCount",
          "type": "uint256"
        },
        {
          "internalType": "address[]",
          "name": "_shieldAssets",
          "type": "address[]"
        }
      ],
      "stateMutability": "view",
      "type": "function"
    },
    {
      "inputs": [
        {
          "internalType": "uint256",
          "name": "_offset",
          "type": "uint256"
        },
        {
          "internalType": "uint256",
          "name": "_limit",
          "type": "uint256"
        }
      ],
      "name": "shieldAssetsWithBalance",
      "outputs": [
        {
          "internalType": "uint256",
          "name": "_shieldAssetsCount",
          "type": "uint256"
        },
        {
          "internalType": "address[]",
          "name": "_shieldAssets",
          "type": "address[]"
        },
        {
          "internalType": "uint256[]",
          "name": "_shieldAssetBalance",
          "type": "uint256[]"
        }
      ],
      "stateMutability": "view",
      "type": "function"
    },
    {
      "inputs": [],
      "name": "shieldAssetsCount",
      "outputs": [
        {
          "internalType": "uint256",
          "name": "_shieldAssetsCount",
          "type": "uint256"
        }
      ],
      "stateMutability": "view",
      "type": "function"
    },
    {
      "inputs": [
        {
          "internalType": "address",
          "name": "_tokenAddress",
          "type": "address"
        },
        {
          "internalType": "uint256",
          "name": "_tokensAmount",
          "type": "uint256"
        }
      ],
      "name": "addShieldTokens",
      "outputs": [
        {
          "internalType": "bool",
          "name": "_success",
          "type": "bool"
        }
      ],
      "stateMutability": "nonpayable",
      "type": "function"
    },
    {
      "inputs": [
        {
          "internalType": "uint256",
          "name": "_durationSeconds",
          "type": "uint256"
        },
        {
          "internalType": "uint256",
          "name": "_coverTokens",
          "type": "uint256"
        }
      ],
      "name": "buyPolicy",
      "outputs": [],
      "stateMutability": "nonpayable",
      "type": "function"
    },
    {
      "inputs": [
        {
          "internalType": "address",
          "name": "_policyHolderAddr",
          "type": "address"
        },
        {
          "internalType": "uint256",
          "name": "_durationSeconds",
          "type": "uint256"
        },
        {
          "internalType": "uint256",
          "name": "_coverTokens",
          "type": "uint256"
        }
      ],
      "name": "buyPolicyFor",
      "outputs": [],
      "stateMutability": "nonpayable",
      "type": "function"
    },
    {
      "inputs": [
        {
          "internalType": "uint256",
          "name": "_liqudityAmount",
          "type": "uint256"
        }
      ],
      "name": "addLiquidity",
      "outputs": [],
      "stateMutability": "nonpayable",
      "type": "function"
    },
    {
      "inputs": [
        {
          "internalType": "address",
          "name": "_liquidityHolderAddr",
          "type": "address"
        },
        {
          "internalType": "uint256",
          "name": "_liqudityAmount",
          "type": "uint256"
        }
      ],
      "name": "addLiquidityFor",
      "outputs": [],
      "stateMutability": "nonpayable",
      "type": "function"
    },
    {
      "inputs": [
        {
          "internalType": "uint256",
          "name": "_tokensToWithdraw",
          "type": "uint256"
        }
      ],
      "name": "withdrawLiquidity",
      "outputs": [],
      "stateMutability": "nonpayable",
      "type": "function"
    },
    {
      "inputs": [
        {
          "internalType": "uint256",
          "name": "_policyId",
          "type": "uint256"
        }
      ],
      "name": "rewardForUnclaimedExpiredPolicy",
      "outputs": [],
      "stateMutability": "nonpayable",
      "type": "function"
    },
    {
      "inputs": [],
      "name": "stats",
      "outputs": [
        {
          "internalType": "string",
          "name": "_name",
          "type": "string"
        },
        {
          "internalType": "enum IPolicyBookFabric.ContractType",
          "name": "_contractType",
          "type": "uint8"
        },
        {
          "internalType": "uint256",
          "name": "_maxCapacities",
          "type": "uint256"
        },
        {
          "internalType": "uint256",
          "name": "_totalDaiLiquidity",
          "type": "uint256"
        },
        {
          "internalType": "uint256",
          "name": "_annualProfitYields",
          "type": "uint256"
        }
      ],
      "stateMutability": "view",
      "type": "function"
    },
    {
      "inputs": [
        {
          "internalType": "uint256",
          "name": "_durationSeconds",
          "type": "uint256"
        },
        {
          "internalType": "uint256",
          "name": "_tokens",
          "type": "uint256"
        }
      ],
      "name": "getQuote",
      "outputs": [
        {
          "internalType": "uint256",
          "name": "_daiTokens",
          "type": "uint256"
        }
      ],
      "stateMutability": "view",
      "type": "function"
    }
  ],
  "bytecode": "0x60806040523480156200001157600080fd5b5060405162005e2a38038062005e2a8339810160408190526200003491620002cf565b81816040516020016200004891906200036d565b60408051601f1981840301815291905281516200006d90600390602085019062000198565b5080516200008390600490602084019062000198565b50506005805460ff191660121790555060006200009f62000194565b60058054610100600160a81b0319166101006001600160a01b03841690810291909117909155604051919250906000907f8be0079c531659141344cd1fd0a4f28419497f9722a3daafe3b4186f6b6457e0908290a350600880546001600160a01b0319166001600160a01b0386161780825584919060ff60a01b1916600160a01b8360038111156200012d57fe5b021790555060405162000140906200022d565b6200014b906200039d565b604051809103906000f08015801562000168573d6000803e3d6000fd5b50600780546001600160a01b0319166001600160a01b039290921691909117905550620003e192505050565b3390565b828054600181600116156101000203166002900490600052602060002090601f016020900481019282620001d057600085556200021b565b82601f10620001eb57805160ff19168380011785556200021b565b828001600101855582156200021b579182015b828111156200021b578251825591602001919060010190620001fe565b50620002299291506200023b565b5090565b6130be8062002d6c83390190565b5b808211156200022957600081556001016200023c565b600082601f83011262000263578081fd5b81516001600160401b03808211156200027857fe5b604051601f8301601f1916810160200182811182821017156200029757fe5b604052828152925082848301602001861015620002b357600080fd5b620002c6836020830160208801620003ae565b50505092915050565b60008060008060808587031215620002e5578384fd5b84516001600160a01b0381168114620002fc578485fd5b60208601519094506004811062000311578384fd5b60408601519093506001600160401b03808211156200032e578384fd5b6200033c8883890162000252565b9350606087015191508082111562000352578283fd5b50620003618782880162000252565b91505092959194509250565b600065626d6944414960d01b8252825162000390816006850160208701620003ae565b9190910160060192915050565b602080825260009082015260400190565b60005b83811015620003cb578181015183820152602001620003b1565b83811115620003db576000848401525b50505050565b61297b80620003f16000396000f3fe6080604052600436106103015760003560e01c806395d89b411161018f578063cb2ef6f7116100e1578063d98d0c7e1161008a578063efa1f98a11610064578063efa1f98a146107ef578063f2fde38b1461080f578063f60ff9371461082f57610308565b8063d98d0c7e146107a5578063dd62ed3e146107ba578063e98a04e1146107da57610308565b8063d0a43afd116100bb578063d0a43afd1461074a578063d12e56b41461076a578063d80528ae1461077f57610308565b8063cb2ef6f7146106fe578063cbf5a55e14610720578063cfa8b3a81461073557610308565b8063aaf5eb6811610143578063bc5d198a1161011d578063bc5d198a146106b4578063be22f546146106c9578063c18c6057146106de57610308565b8063aaf5eb6814610675578063b00455fd1461068a578063b653822f1461069f57610308565b80639effd687116101745780639effd68714610620578063a457c2d714610635578063a9059cbb1461065557610308565b806395d89b41146105f65780639c5900061461060b57610308565b80633950935111610253578063715018a6116101fc57806379fac08c116101d657806379fac08c1461059e5780637cd0fc9b146105cc5780638da5cb5b146105e157610308565b8063715018a6146105495780637234751b1461055e578063758af3ab1461057e57610308565b80635da2460d1161022d5780635da2460d146104db57806370a08231146104fb57806370b68a2a1461051b57610308565b80633950935114610486578063514ea9bd146104a657806351c6590a146104bb57610308565b806315770f92116102b557806323b872dd1161028f57806323b872dd1461042f5780632c865d6c1461044f578063313ce5671461046457610308565b806315770f92146103d857806318160ddd146103fa578063188ff8541461040f57610308565b80630a861f2a116102e65780630a861f2a146103655780630e82da531461038757806314c179c0146103b657610308565b806306fdde031461030d578063095ea7b31461033857610308565b3661030857005b600080fd5b34801561031957600080fd5b50610322610844565b60405161032f91906124e5565b60405180910390f35b34801561034457600080fd5b50610358610353366004612236565b6108f8565b60405161032f91906124cc565b34801561037157600080fd5b50610385610380366004612360565b610916565b005b34801561039357600080fd5b506103a76103a2366004612378565b610a8d565b60405161032f93929190612703565b3480156103c257600080fd5b506103cb610a99565b60405161032f9190612434565b3480156103e457600080fd5b506103ed610aa8565b60405161032f91906126d9565b34801561040657600080fd5b506103ed610aae565b34801561041b57600080fd5b5061035861042a366004612236565b610ab4565b34801561043b57600080fd5b5061035861044a3660046121f6565b610abc565b34801561045b57600080fd5b506103ed610b43565b34801561047057600080fd5b50610479610b48565b60405161032f919061276b565b34801561049257600080fd5b506103586104a1366004612236565b610b51565b3480156104b257600080fd5b506103ed610b9f565b3480156104c757600080fd5b506103856104d6366004612360565b610bae565b3480156104e757600080fd5b506103856104f6366004612378565b610bbb565b34801561050757600080fd5b506103ed610516366004612186565b610bca565b34801561052757600080fd5b5061053b610536366004612186565b610be5565b60405161032f92919061275d565b34801561055557600080fd5b50610385610bfe565b34801561056a57600080fd5b50610385610579366004612261565b610cd4565b34801561058a57600080fd5b506103ed610599366004612378565b610ce4565b3480156105aa57600080fd5b506105be6105b9366004612378565b610cf7565b60405161032f9291906126e2565b3480156105d857600080fd5b506103cb610b43565b3480156105ed57600080fd5b506103cb610d01565b34801561060257600080fd5b50610322610d15565b34801561061757600080fd5b506103ed610d94565b34801561062c57600080fd5b506103cb610da3565b34801561064157600080fd5b50610358610650366004612236565b610db2565b34801561066157600080fd5b50610358610670366004612236565b610e1a565b34801561068157600080fd5b506103ed610e2e565b34801561069657600080fd5b50610385610e3d565b3480156106ab57600080fd5b50610385610f90565b3480156106c057600080fd5b506103ed611080565b3480156106d557600080fd5b506103cb611088565b3480156106ea57600080fd5b506103856106f9366004612360565b610bb8565b34801561070a57600080fd5b50610713611097565b60405161032f91906124d7565b34801561072c57600080fd5b506103ed6110b8565b34801561074157600080fd5b506103ed6110c8565b34801561075657600080fd5b50610385610765366004612186565b6110d8565b34801561077657600080fd5b506103cb61142d565b34801561078b57600080fd5b5061079461143c565b60405161032f9594939291906124f8565b3480156107b157600080fd5b506103cb611484565b3480156107c657600080fd5b506103ed6107d53660046121be565b611493565b3480156107e657600080fd5b506103ed6114be565b3480156107fb57600080fd5b5061038561080a366004612236565b6114ce565b34801561081b57600080fd5b5061038561082a366004612186565b6114d8565b34801561083b57600080fd5b506103ed61160a565b60038054604080516020601f60027fffffffffffffffffffffffffffffffffffffffffffffffffffffffffffffffff6101006001881615020190951694909404938401819004810282018101909252828152606093909290918301828280156108ee5780601f106108c3576101008083540402835291602001916108ee565b820191906000526020600020905b8154815290600101906020018083116108d157829003601f168201915b5050505050905090565b600061090c610905611610565b8484611614565b5060015b92915050565b8061092033610bca565b10156109475760405162461bcd60e51b815260040161093e9061267c565b60405180910390fd5b600c54600b546109579083611700565b10156109755760405162461bcd60e51b815260040161093e9061260e565b6009546040517fa9059cbb0000000000000000000000000000000000000000000000000000000081526000916001600160a01b03169063a9059cbb906109c19033908690600401612448565b602060405180830381600087803b1580156109db57600080fd5b505af11580156109ef573d6000803e3d6000fd5b505050506040513d601f19601f82011682018060405250810190610a139190612295565b905080610a325760405162461bcd60e51b815260040161093e906125a2565b600b54610a3f9083611700565b600b55610a4c3383611742565b7fac927268ea9ae2e55027e6ab727fc2db8e3ea48c56c658223a1074567e4298c03383600b54604051610a8193929190612461565b60405180910390a15050565b60006060809250925092565b6008546001600160a01b031681565b600b5481565b60025490565b600092915050565b6000610ac984848461183e565b610b3984610ad5611610565b610b348560405180606001604052806028815260200161288f602891396001600160a01b038a16600090815260016020526040812090610b13611610565b6001600160a01b031681526020810191909152604001600020549190611999565b611614565b5060019392505050565b600090565b60055460ff1690565b600061090c610b5e611610565b84610b348560016000610b6f611610565b6001600160a01b03908116825260208083019390935260409182016000908120918c168152925290205490611a30565b6af8277896582678ac00000081565b610bb83382611a8a565b50565b610bc6338383611ba5565b5050565b6001600160a01b031660009081526020819052604090205490565b600d602052600090815260409020805460019091015482565b610c06611610565b60055461010090046001600160a01b03908116911614610c6d576040805162461bcd60e51b815260206004820181905260248201527f4f776e61626c653a2063616c6c6572206973206e6f7420746865206f776e6572604482015290519081900360640190fd5b60055460405160009161010090046001600160a01b0316907f8be0079c531659141344cd1fd0a4f28419497f9722a3daafe3b4186f6b6457e0908390a3600580547fffffffffffffffffffffff0000000000000000000000000000000000000000ff169055565b610cdf838383611ba5565b505050565b6000610cf08383611d80565b9392505050565b5060009160609150565b60055461010090046001600160a01b031690565b60048054604080516020601f60027fffffffffffffffffffffffffffffffffffffffffffffffffffffffffffffffff6101006001881615020190951694909404938401819004810282018101909252828152606093909290918301828280156108ee5780601f106108c3576101008083540402835291602001916108ee565b6a295be96e6406697200000081565b600a546001600160a01b031681565b600061090c610dbf611610565b84610b34856040518060600160405280602581526020016129216025913960016000610de9611610565b6001600160a01b03908116825260208083019390935260409182016000908120918d16815292529020549190611999565b600061090c610e27611610565b848461183e565b6a084595161401484a00000081565b610e45611610565b60055461010090046001600160a01b03908116911614610eac576040805162461bcd60e51b815260206004820181905260248201527f4f776e61626c653a2063616c6c6572206973206e6f7420746865206f776e6572604482015290519081900360640190fd5b600954600a546040517f095ea7b30000000000000000000000000000000000000000000000000000000081526000926001600160a01b039081169263095ea7b392610f1f92909116907fffffffffffffffffffffffffffffffffffffffffffffffffffffffffffffffff90600401612448565b602060405180830381600087803b158015610f3957600080fd5b505af1158015610f4d573d6000803e3d6000fd5b505050506040513d601f19601f82011682018060405250810190610f719190612295565b905080610bb85760405162461bcd60e51b815260040161093e90612645565b610f98611610565b60055461010090046001600160a01b03908116911614610fff576040805162461bcd60e51b815260206004820181905260248201527f4f776e61626c653a2063616c6c6572206973206e6f7420746865206f776e6572604482015290519081900360640190fd5b600754600a546040517ff2fde38b0000000000000000000000000000000000000000000000000000000081526001600160a01b039283169263f2fde38b9261104c92911690600401612434565b600060405180830381600087803b15801561106657600080fd5b505af115801561107a573d6000803e3d6000fd5b50505050565b6301e1338081565b6009546001600160a01b031681565b60085474010000000000000000000000000000000000000000900460ff1681565b6b033b2e3c9fd0803ce800000081565b6b04d8c55aefb8c05b5c00000081565b6110e0611610565b60055461010090046001600160a01b03908116911614611147576040805162461bcd60e51b815260206004820181905260248201527f4f776e61626c653a2063616c6c6572206973206e6f7420746865206f776e6572604482015290519081900360640190fd5b600680547fffffffffffffffffffffffff0000000000000000000000000000000000000000166001600160a01b038316908117909155604080517fa45611b60000000000000000000000000000000000000000000000000000000081529051633581777391839163a45611b691600480820192600092909190829003018186803b1580156111d457600080fd5b505afa1580156111e8573d6000803e3d6000fd5b505050506040513d6000823e601f3d9081017fffffffffffffffffffffffffffffffffffffffffffffffffffffffffffffffe016820160405261122e91908101906122b5565b6040518263ffffffff1660e01b815260040161124a91906124e5565b60206040518083038186803b15801561126257600080fd5b505afa158015611276573d6000803e3d6000fd5b505050506040513d601f19601f8201168201806040525081019061129a91906121a2565b600980547fffffffffffffffffffffffff0000000000000000000000000000000000000000166001600160a01b03928316179055600654604080517f3d2886a0000000000000000000000000000000000000000000000000000000008152905191909216916335817773918391633d2886a0916004808301926000929190829003018186803b15801561132c57600080fd5b505afa158015611340573d6000803e3d6000fd5b505050506040513d6000823e601f3d9081017fffffffffffffffffffffffffffffffffffffffffffffffffffffffffffffffe016820160405261138691908101906122b5565b6040518263ffffffff1660e01b81526004016113a291906124e5565b60206040518083038186803b1580156113ba57600080fd5b505afa1580156113ce573d6000803e3d6000fd5b505050506040513d601f19601f820116820180604052508101906113f291906121a2565b600a80547fffffffffffffffffffffffff0000000000000000000000000000000000000000166001600160a01b039290921691909117905550565b6007546001600160a01b031681565b606060008060008061144c610844565b600854600c54600b5492987401000000000000000000000000000000000000000090920460ff16975082039550909350600092509050565b6006546001600160a01b031681565b6001600160a01b03918216600090815260016020908152604080832093909416825291909152205490565b6b024306c4097859c43c00000081565b610bc68282611a8a565b6114e0611610565b60055461010090046001600160a01b03908116911614611547576040805162461bcd60e51b815260206004820181905260248201527f4f776e61626c653a2063616c6c6572206973206e6f7420746865206f776e6572604482015290519081900360640190fd5b6001600160a01b03811661158c5760405162461bcd60e51b81526004018080602001828103825260268152602001806128006026913960400191505060405180910390fd5b6005546040516001600160a01b0380841692610100900416907f8be0079c531659141344cd1fd0a4f28419497f9722a3daafe3b4186f6b6457e090600090a3600580546001600160a01b03909216610100027fffffffffffffffffffffff0000000000000000000000000000000000000000ff909216919091179055565b600c5481565b3390565b6001600160a01b0383166116595760405162461bcd60e51b81526004018080602001828103825260248152602001806128fd6024913960400191505060405180910390fd5b6001600160a01b03821661169e5760405162461bcd60e51b81526004018080602001828103825260228152602001806128266022913960400191505060405180910390fd5b6001600160a01b03808416600081815260016020908152604080832094871680845294825291829020859055815185815291517f8c5be1e5ebec7d5bd14f71427d1e84f3dd0314c0f7b2291e5b200ac8c7c3b9259281900390910190a3505050565b6000610cf083836040518060400160405280601e81526020017f536166654d6174683a207375627472616374696f6e206f766572666c6f770000815250611999565b6001600160a01b0382166117875760405162461bcd60e51b81526004018080602001828103825260218152602001806128b76021913960400191505060405180910390fd5b61179382600083610cdf565b6117d0816040518060600160405280602281526020016127de602291396001600160a01b0385166000908152602081905260409020549190611999565b6001600160a01b0383166000908152602081905260409020556002546117f69082611700565b6002556040805182815290516000916001600160a01b038516917fddf252ad1be2c89b69c2b068fc378daa952ba7f163c4a11628f55a4df523b3ef9181900360200190a35050565b6001600160a01b0383166118835760405162461bcd60e51b81526004018080602001828103825260258152602001806128d86025913960400191505060405180910390fd5b6001600160a01b0382166118c85760405162461bcd60e51b81526004018080602001828103825260238152602001806127bb6023913960400191505060405180910390fd5b6118d3838383610cdf565b61191081604051806060016040528060268152602001612848602691396001600160a01b0386166000908152602081905260409020549190611999565b6001600160a01b03808516600090815260208190526040808220939093559084168152205461193f9082611a30565b6001600160a01b038084166000818152602081815260409182902094909455805185815290519193928716927fddf252ad1be2c89b69c2b068fc378daa952ba7f163c4a11628f55a4df523b3ef92918290030190a3505050565b60008184841115611a285760405162461bcd60e51b81526004018080602001828103825283818151815260200191508051906020019080838360005b838110156119ed5781810151838201526020016119d5565b50505050905090810190601f168015611a1a5780820380516001836020036101000a031916815260200191505b509250505060405180910390fd5b505050900390565b600082820183811015610cf0576040805162461bcd60e51b815260206004820152601b60248201527f536166654d6174683a206164646974696f6e206f766572666c6f770000000000604482015290519081900360640190fd5b6009546040517f23b872dd0000000000000000000000000000000000000000000000000000000081526000916001600160a01b0316906323b872dd90611ad890869030908790600401612482565b602060405180830381600087803b158015611af257600080fd5b505af1158015611b06573d6000803e3d6000fd5b505050506040513d601f19601f82011682018060405250810190611b2a9190612295565b905080611b495760405162461bcd60e51b815260040161093e906125a2565b600b54611b569083611a30565b600b55611b638383611e9a565b7f06239653922ac7bea6aa2b19dc486b9361821d37712eb796adfd38d81de278ca8383600b54604051611b9893929190612461565b60405180910390a1505050565b611bad61216c565b506001600160a01b0383166000908152600d60209081526040918290208251808401909352805483526001015490820181905215611bfd5760405162461bcd60e51b815260040161093e906125d9565b600c54611c0a9083611a30565b600b541015611c2b5760405162461bcd60e51b815260040161093e9061260e565b6000611c378484611d80565b83835260208084018681526001600160a01b0388166000908152600d9092526040909120845181559051600190910155600c54909150611c779084611a30565b600c556009546040517f23b872dd0000000000000000000000000000000000000000000000000000000081526000916001600160a01b0316906323b872dd90611cc890899030908790600401612482565b602060405180830381600087803b158015611ce257600080fd5b505af1158015611cf6573d6000803e3d6000fd5b505050506040513d601f19601f82011682018060405250810190611d1a9190612295565b905080611d395760405162461bcd60e51b815260040161093e906125a2565b7f1cd728a6e764ed0dcddb6e5b88d736a4a8d2a0d420ca373588f7a1109e18663f868584600c54604051611d7094939291906124a6565b60405180910390a1505050505050565b6000600b54611d9a83600c54611a3090919063ffffffff16565b1115611db85760405162461bcd60e51b815260040161093e9061256d565b6000600b5411611dda5760405162461bcd60e51b815260040161093e90612536565b6000611e15600b54611e0f6a084595161401484a000000606402611e0987600c54611a3090919063ffffffff16565b90611f8a565b90611fe3565b905060006b024306c4097859c43c000000821015611e3d57611e3682612025565b9050611e49565b611e468261204c565b90505b611e5e816a295be96e640669720000006120f0565b90506000611e746301e13380611e0f8885611f8a565b9050611e906b033b2e3c9fd0803ce8000000611e0f8784611f8a565b9695505050505050565b6001600160a01b038216611ef5576040805162461bcd60e51b815260206004820152601f60248201527f45524332303a206d696e7420746f20746865207a65726f206164647265737300604482015290519081900360640190fd5b611f0160008383610cdf565b600254611f0e9082611a30565b6002556001600160a01b038216600090815260208190526040902054611f349082611a30565b6001600160a01b0383166000818152602081815260408083209490945583518581529351929391927fddf252ad1be2c89b69c2b068fc378daa952ba7f163c4a11628f55a4df523b3ef9281900390910190a35050565b600082611f9957506000610910565b82820282848281611fa657fe5b0414610cf05760405162461bcd60e51b815260040180806020018281038252602181526020018061286e6021913960400191505060405180910390fd5b6000610cf083836040518060400160405280601a81526020017f536166654d6174683a206469766973696f6e206279207a65726f000000000000815250612107565b60006109106b024306c4097859c43c000000611e0f846af8277896582678ac000000611f8a565b60008061209f6120746b033b2e3c9fd0803ce80000006b024306c4097859c43c000000611700565b611e0f61208d866b024306c4097859c43c000000611700565b6a084595161401484a00000090611f8a565b9050610cf06120de6a084595161401484a000000611e0f6120d76b04d8c55aefb8c05b5c0000006af8277896582678ac000000611700565b8590611f8a565b6af8277896582678ac00000090611a30565b6000818310156121005781610cf0565b5090919050565b600081836121565760405162461bcd60e51b81526020600482018181528351602484015283519092839260449091019190850190808383600083156119ed5781810151838201526020016119d5565b50600083858161216257fe5b0495945050505050565b604051806040016040528060008152602001600081525090565b600060208284031215612197578081fd5b8135610cf0816127a5565b6000602082840312156121b3578081fd5b8151610cf0816127a5565b600080604083850312156121d0578081fd5b82356121db816127a5565b915060208301356121eb816127a5565b809150509250929050565b60008060006060848603121561220a578081fd5b8335612215816127a5565b92506020840135612225816127a5565b929592945050506040919091013590565b60008060408385031215612248578182fd5b8235612253816127a5565b946020939093013593505050565b600080600060608486031215612275578283fd5b8335612280816127a5565b95602085013595506040909401359392505050565b6000602082840312156122a6578081fd5b81518015158114610cf0578182fd5b6000602082840312156122c6578081fd5b815167ffffffffffffffff808211156122dd578283fd5b818401915084601f8301126122f0578283fd5b8151818111156122fc57fe5b60405160207fffffffffffffffffffffffffffffffffffffffffffffffffffffffffffffffe0601f840116820101818110848211171561233857fe5b60405281815283820160200187101561234f578485fd5b611e90826020830160208701612779565b600060208284031215612371578081fd5b5035919050565b6000806040838503121561238a578182fd5b50508035926020909101359150565b6000815180845260208085019450808401835b838110156123d15781516001600160a01b0316875295820195908201906001016123ac565b509495945050505050565b600481106123e657fe5b9052565b60008151808452612402816020860160208601612779565b601f017fffffffffffffffffffffffffffffffffffffffffffffffffffffffffffffffe0169290920160200192915050565b6001600160a01b0391909116815260200190565b6001600160a01b03929092168252602082015260400190565b6001600160a01b039390931683526020830191909152604082015260600190565b6001600160a01b039384168152919092166020820152604081019190915260600190565b6001600160a01b0394909416845260208401929092526040830152606082015260800190565b901515815260200190565b6020810161091082846123dc565b600060208252610cf060208301846123ea565b600060a0825261250b60a08301886123ea565b905061251a60208301876123dc565b8460408301528360608301528260808301529695505050505050565b60208082526011908201527f54686520706f6f6c20697320656d707479000000000000000000000000000000604082015260600190565b6020808252818101527f526571756972696e67206d6f7265207468616e20746865726520657869737473604082015260600190565b6020808252601d908201527f4661696c656420746f207472616e736665722044414920746f6b656e73000000604082015260600190565b6020808252818101527f54686520706f6c69637920686f6c64657220616c726561647920657869737473604082015260600190565b6020808252601e908201527f4e6f7420656e6f75676820617661696c61626c65206c69717569646974790000604082015260600190565b6020808252601c908201527f4661696c656420746f20617070726f76652044414920746f6b656e7300000000604082015260600190565b6020808252603f908201527f54686520616d6f756e7420746f2062652077697468647261776e20697320677260408201527f6561746572207468616e20746865206465706f736974656420616d6f756e7400606082015260800190565b90815260200190565b6000838252604060208301526126fb6040830184612399565b949350505050565b6000848252602060608184015261271d6060840186612399565b8381036040850152845180825282860191830190845b8181101561274f57835183529284019291840191600101612733565b509098975050505050505050565b918252602082015260400190565b60ff91909116815260200190565b60005b8381101561279457818101518382015260200161277c565b8381111561107a5750506000910152565b6001600160a01b0381168114610bb857600080fdfe45524332303a207472616e7366657220746f20746865207a65726f206164647265737345524332303a206275726e20616d6f756e7420657863656564732062616c616e63654f776e61626c653a206e6577206f776e657220697320746865207a65726f206164647265737345524332303a20617070726f766520746f20746865207a65726f206164647265737345524332303a207472616e7366657220616d6f756e7420657863656564732062616c616e6365536166654d6174683a206d756c7469706c69636174696f6e206f766572666c6f7745524332303a207472616e7366657220616d6f756e74206578636565647320616c6c6f77616e636545524332303a206275726e2066726f6d20746865207a65726f206164647265737345524332303a207472616e736665722066726f6d20746865207a65726f206164647265737345524332303a20617070726f76652066726f6d20746865207a65726f206164647265737345524332303a2064656372656173656420616c6c6f77616e63652062656c6f77207a65726fa2646970667358221220dce9108d80e8084c77237b151fb777205ded96941c2a37bf1f437a68a84f136d64736f6c6343000704003360806040523480156200001157600080fd5b50604051620030be380380620030be833981016040819052620000349162000226565b80620000476301ffc9a760e01b620000d8565b62000052816200015d565b62000064636cdb3d1360e11b620000d8565b620000766303a24d0760e21b620000d8565b5060006200008362000176565b600880546001600160a01b0319166001600160a01b038316908117909155604051919250906000907f8be0079c531659141344cd1fd0a4f28419497f9722a3daafe3b4186f6b6457e0908290a35050620002e5565b6001600160e01b0319808216141562000138576040805162461bcd60e51b815260206004820152601c60248201527f4552433136353a20696e76616c696420696e7465726661636520696400000000604482015290519081900360640190fd5b6001600160e01b0319166000908152602081905260409020805460ff19166001179055565b8051620001729060079060208401906200017a565b5050565b3390565b828054600181600116156101000203166002900490600052602060002090601f016020900481019282620001b25760008555620001fd565b82601f10620001cd57805160ff1916838001178555620001fd565b82800160010185558215620001fd579182015b82811115620001fd578251825591602001919060010190620001e0565b506200020b9291506200020f565b5090565b5b808211156200020b576000815560010162000210565b6000602080838503121562000239578182fd5b82516001600160401b038082111562000250578384fd5b818501915085601f83011262000264578384fd5b8151818111156200027157fe5b604051601f8201601f19168101850183811182821017156200028f57fe5b6040528181528382018501881015620002a6578586fd5b8592505b81831015620002c95783830185015181840186015291840191620002aa565b81831115620002da57858583830101525b979650505050505050565b612dc980620002f56000396000f3fe608060405234801561001057600080fd5b50600436106101505760003560e01c80636b20c454116100cd578063e985e9c511610081578063f2fde38b11610066578063f2fde38b146102b0578063f5298aca146102c3578063f5b100ea146102d657610150565b8063e985e9c51461028a578063f242432a1461029d57610150565b8063731133e9116100b2578063731133e91461025c5780638da5cb5b1461026f578063a22cb4651461027757610150565b80636b20c45414610241578063715018a61461025457610150565b80631dcb46f6116101245780632d8a746e116101095780632d8a746e146101ee5780632eb2c2d61461020e5780634e1273f41461022157610150565b80631dcb46f6146101c65780631f7fdffa146101d957610150565b8062fdd58e1461015557806301ffc9a71461017e5780630e89341c1461019e57806318160ddd146101be575b600080fd5b610168610163366004612333565b6102e9565b6040516101759190612b62565b60405180910390f35b61019161018c3660046124a2565b610345565b604051610175919061268b565b6101b16101ac3660046124da565b610380565b6040516101759190612696565b610168610436565b6101686101d4366004612333565b610448565b6101ec6101e7366004612264565b610471565b005b6102016101fc3660046124da565b6104ed565b6040516101759190612595565b6101ec61021c3660046120ea565b610515565b61023461022f3660046123e1565b610791565b604051610175919061264a565b6101ec61024f3660046121f3565b6108d1565b6101ec61094b565b6101ec61026a36600461238e565b610a17565b610201610a8d565b6101ec6102853660046122f9565b610a9c565b6101916102983660046120b8565b610b88565b6101ec6102ab366004612190565b610bb6565b6101ec6102be36600461209e565b610dac565b6101ec6102d136600461235c565b610ecf565b6101686102e436600461209e565b610f44565b60006001600160a01b03831661031a5760405162461bcd60e51b815260040161031190612763565b60405180910390fd5b5060008181526001602090815260408083206001600160a01b03861684529091529020545b92915050565b7fffffffff00000000000000000000000000000000000000000000000000000000811660009081526020819052604090205460ff165b919050565b60078054604080516020601f60027fffffffffffffffffffffffffffffffffffffffffffffffffffffffffffffffff61010060018816150201909516949094049384018190048102820181019092528281526060939092909183018282801561042a5780601f106103ff5761010080835404028352916020019161042a565b820191906000526020600020905b81548152906001019060200180831161040d57829003601f168201915b50505050509050919050565b60006104426005610f89565b90505b90565b6001600160a01b038216600090815260046020526040812061046a9083610f94565b9392505050565b610479610fa0565b6008546001600160a01b039081169116146104db576040805162461bcd60e51b815260206004820181905260248201527f4f776e61626c653a2063616c6c6572206973206e6f7420746865206f776e6572604482015290519081900360640190fd5b6104e784848484610fa4565b50505050565b600061033f826040518060600160405280602a8152602001612d40602a9139600591906111ff565b81518351146105365760405162461bcd60e51b815260040161031190612aa8565b6001600160a01b03841661055c5760405162461bcd60e51b81526004016103119061287a565b610564610fa0565b6001600160a01b0316856001600160a01b0316148061058a575061058a85610298610fa0565b6105a65760405162461bcd60e51b8152600401610311906128d7565b60006105b0610fa0565b90506105c0818787878787610789565b60005b84518110156107235760008582815181106105da57fe5b6020026020010151905060008583815181106105f257fe5b6020026020010151905061060582611214565b1561065e576001600160a01b038916600090815260046020526040902061062c9083611221565b506001600160a01b038816600090815260046020526040902061064f908361122d565b5061065c6005838a611239565b505b6106c1816040518060600160405280602a8152602001612d6a602a91396001600086815260200190815260200160002060008d6001600160a01b03166001600160a01b031681526020019081526020016000205461124f9092919063ffffffff16565b60008381526001602090815260408083206001600160a01b038e811685529252808320939093558a16815220546106f890826112e6565b60009283526001602081815260408086206001600160a01b038d1687529091529093205550016105c3565b50846001600160a01b0316866001600160a01b0316826001600160a01b03167f4a39dc06d4c0dbc64b70af90fd698a233a518aa5d07e595d983b8c0526c8f7fb878760405161077392919061265d565b60405180910390a4610789818787878787611340565b505050505050565b606081518351146107b45760405162461bcd60e51b815260040161031190612a4b565b6060835167ffffffffffffffff811180156107ce57600080fd5b506040519080825280602002602001820160405280156107f8578160200160208202803683370190505b50905060005b84518110156108c95760006001600160a01b031685828151811061081e57fe5b60200260200101516001600160a01b0316141561084d5760405162461bcd60e51b8152600401610311906127c0565b6001600085838151811061085d57fe5b60200260200101518152602001908152602001600020600086838151811061088157fe5b60200260200101516001600160a01b03166001600160a01b03168152602001908152602001600020548282815181106108b657fe5b60209081029190910101526001016107fe565b509392505050565b6108d9610fa0565b6008546001600160a01b0390811691161461093b576040805162461bcd60e51b815260206004820181905260248201527f4f776e61626c653a2063616c6c6572206973206e6f7420746865206f776e6572604482015290519081900360640190fd5b6109468383836114bf565b505050565b610953610fa0565b6008546001600160a01b039081169116146109b5576040805162461bcd60e51b815260206004820181905260248201527f4f776e61626c653a2063616c6c6572206973206e6f7420746865206f776e6572604482015290519081900360640190fd5b6008546040516000916001600160a01b0316907f8be0079c531659141344cd1fd0a4f28419497f9722a3daafe3b4186f6b6457e0908390a3600880547fffffffffffffffffffffffff0000000000000000000000000000000000000000169055565b610a1f610fa0565b6008546001600160a01b03908116911614610a81576040805162461bcd60e51b815260206004820181905260248201527f4f776e61626c653a2063616c6c6572206973206e6f7420746865206f776e6572604482015290519081900360640190fd5b6104e7848484846116c8565b6008546001600160a01b031690565b816001600160a01b0316610aae610fa0565b6001600160a01b03161415610ad55760405162461bcd60e51b8152600401610311906129ee565b8060026000610ae2610fa0565b6001600160a01b0390811682526020808301939093526040918201600090812091871680825291909352912080547fffffffffffffffffffffffffffffffffffffffffffffffffffffffffffffff001692151592909217909155610b44610fa0565b6001600160a01b03167f17307eab39ab6107e8899845ad3d59bd9653f200f220920489ca2b5937696c3183604051610b7c919061268b565b60405180910390a35050565b6001600160a01b03918216600090815260026020908152604080832093909416825291909152205460ff1690565b6001600160a01b038416610bdc5760405162461bcd60e51b81526004016103119061287a565b610be4610fa0565b6001600160a01b0316856001600160a01b03161480610c0a5750610c0a85610298610fa0565b610c265760405162461bcd60e51b81526004016103119061281d565b6000610c30610fa0565b9050610c50818787610c4188611857565b610c4a88611857565b87610789565b610c5984611214565b15610cb2576001600160a01b0386166000908152600460205260409020610c809085611221565b506001600160a01b0385166000908152600460205260409020610ca3908561122d565b50610cb060058587611239565b505b610cf9836040518060600160405280602a8152602001612d6a602a913960008781526001602090815260408083206001600160a01b038d168452909152902054919061124f565b60008581526001602090815260408083206001600160a01b038b81168552925280832093909355871681522054610d3090846112e6565b60008581526001602090815260408083206001600160a01b03808b168086529190935292819020939093559151909188811691908416907fc3d58168c5ae7397731d063d5bbf3d657854427343f4c083240f7aacaa2d0f6290610d969089908990612b6b565b60405180910390a461078981878787878761189b565b610db4610fa0565b6008546001600160a01b03908116911614610e16576040805162461bcd60e51b815260206004820181905260248201527f4f776e61626c653a2063616c6c6572206973206e6f7420746865206f776e6572604482015290519081900360640190fd5b6001600160a01b038116610e5b5760405162461bcd60e51b8152600401808060200182810382526026815260200180612cf66026913960400191505060405180910390fd5b6008546040516001600160a01b038084169216907f8be0079c531659141344cd1fd0a4f28419497f9722a3daafe3b4186f6b6457e090600090a3600880547fffffffffffffffffffffffff0000000000000000000000000000000000000000166001600160a01b0392909216919091179055565b610ed7610fa0565b6008546001600160a01b03908116911614610f39576040805162461bcd60e51b815260206004820181905260248201527f4f776e61626c653a2063616c6c6572206973206e6f7420746865206f776e6572604482015290519081900360640190fd5b6109468383836119d4565b60006001600160a01b038216610f6c5760405162461bcd60e51b815260040161031190612763565b6001600160a01b038216600090815260046020526040902061033f905b600061033f82611b3e565b600061046a8383611b42565b3390565b6001600160a01b038416610fca5760405162461bcd60e51b815260040161031190612b05565b8151835114610feb5760405162461bcd60e51b815260040161031190612aa8565b6000610ff5610fa0565b905061100681600087878787610789565b60005b845181101561119057600085828151811061102057fe5b6020026020010151905084828151811061103657fe5b602002602001015160001480611052575061105081611214565b155b61106e5760405162461bcd60e51b815260040161031190612991565b84828151811061107a57fe5b60200260200101516001148015611097575061109581611ba6565b155b156110cd576001600160a01b03871660009081526004602052604090206110be908261122d565b506110cb60058289611239565b505b60008181526001602090815260408083206001600160a01b038b1684529091529020548551611119919087908590811061110357fe5b60200260200101516112e690919063ffffffff16565b60008281526001602090815260408083206001600160a01b038c16845290915290205584516111789086908490811061114e57fe5b602002602001015160036000848152602001908152602001600020546112e690919063ffffffff16565b60009182526003602052604090912055600101611009565b50846001600160a01b031660006001600160a01b0316826001600160a01b03167f4a39dc06d4c0dbc64b70af90fd698a233a518aa5d07e595d983b8c0526c8f7fb87876040516111e192919061265d565b60405180910390a46111f881600087878787611340565b5050505050565b600061120c848484611bba565b949350505050565b600061033f600583611c47565b600061046a8383611c53565b600061046a8383611d37565b600061120c84846001600160a01b038516611d81565b600081848411156112de5760405162461bcd60e51b81526004018080602001828103825283818151815260200191508051906020019080838360005b838110156112a357818101518382015260200161128b565b50505050905090810190601f1680156112d05780820380516001836020036101000a031916815260200191505b509250505060405180910390fd5b505050900390565b60008282018381101561046a576040805162461bcd60e51b815260206004820152601b60248201527f536166654d6174683a206164646974696f6e206f766572666c6f770000000000604482015290519081900360640190fd5b611352846001600160a01b0316611e18565b15610789576040517fbc197c810000000000000000000000000000000000000000000000000000000081526001600160a01b0385169063bc197c81906113a490899089908890889088906004016125a9565b602060405180830381600087803b1580156113be57600080fd5b505af192505050801561140c575060408051601f3d9081017fffffffffffffffffffffffffffffffffffffffffffffffffffffffffffffffe0168201909252611409918101906124be565b60015b61145557611418612bc1565b80611423575061143d565b8060405162461bcd60e51b81526004016103119190612696565b60405162461bcd60e51b8152600401610311906126a9565b7fffffffff0000000000000000000000000000000000000000000000000000000081167fbc197c8100000000000000000000000000000000000000000000000000000000146114b65760405162461bcd60e51b815260040161031190612706565b50505050505050565b6001600160a01b0383166114e55760405162461bcd60e51b815260040161031190612934565b80518251146115065760405162461bcd60e51b815260040161031190612aa8565b6000611510610fa0565b905061153081856000868660405180602001604052806000815250610789565b60005b835181101561166957600084828151811061154a57fe5b6020026020010151905061158b8160046000896001600160a01b03166001600160a01b0316815260200190815260200160002061122190919063ffffffff16565b50611597600582611e1e565b506115f28483815181106115a757fe5b6020026020010151604051806060016040528060248152602001612d1c6024913960008481526001602090815260408083206001600160a01b038d168452909152902054919061124f565b60008281526001602090815260408083206001600160a01b038b16845290915290205583516116519085908490811061162757fe5b60200260200101516003600084815260200190815260200160002054611e2a90919063ffffffff16565b60009182526003602052604090912055600101611533565b5060006001600160a01b0316846001600160a01b0316826001600160a01b03167f4a39dc06d4c0dbc64b70af90fd698a233a518aa5d07e595d983b8c0526c8f7fb86866040516116ba92919061265d565b60405180910390a450505050565b6001600160a01b0384166116ee5760405162461bcd60e51b815260040161031190612b05565b81158061170157506116ff83611214565b155b61171d5760405162461bcd60e51b815260040161031190612991565b6000611727610fa0565b905061173981600087610c4188611857565b82600114801561174f575061174d84611ba6565b155b15611785576001600160a01b0385166000908152600460205260409020611776908561122d565b5061178360058587611239565b505b60008481526001602090815260408083206001600160a01b03891684529091529020546117b290846112e6565b60008581526001602090815260408083206001600160a01b038a1684528252808320939093558682526003905220546117eb90846112e6565b6000858152600360205260408082209290925590516001600160a01b038088169291908416907fc3d58168c5ae7397731d063d5bbf3d657854427343f4c083240f7aacaa2d0f62906118409089908990612b6b565b60405180910390a46111f88160008787878761189b565b60408051600180825281830190925260609182919060208083019080368337019050509050828160008151811061188a57fe5b602090810291909101015292915050565b6118ad846001600160a01b0316611e18565b15610789576040517ff23a6e610000000000000000000000000000000000000000000000000000000081526001600160a01b0385169063f23a6e61906118ff9089908990889088908890600401612607565b602060405180830381600087803b15801561191957600080fd5b505af1925050508015611967575060408051601f3d9081017fffffffffffffffffffffffffffffffffffffffffffffffffffffffffffffffe0168201909252611964918101906124be565b60015b61197357611418612bc1565b7fffffffff0000000000000000000000000000000000000000000000000000000081167ff23a6e6100000000000000000000000000000000000000000000000000000000146114b65760405162461bcd60e51b815260040161031190612706565b6001600160a01b0383166119fa5760405162461bcd60e51b815260040161031190612934565b6000611a04610fa0565b9050611a3481856000611a1687611857565b611a1f87611857565b60405180602001604052806000815250610789565b8115611a6a576001600160a01b0384166000908152600460205260409020611a5c9084611221565b50611a68600584611e1e565b505b611ab182604051806060016040528060248152602001612d1c6024913960008681526001602090815260408083206001600160a01b038b168452909152902054919061124f565b60008481526001602090815260408083206001600160a01b0389168452825280832093909355858252600390522054611aea9083611e2a565b6000848152600360205260408082209290925590516001600160a01b0386811691908416907fc3d58168c5ae7397731d063d5bbf3d657854427343f4c083240f7aacaa2d0f62906116ba9088908890612b6b565b5490565b81546000908210611b845760405162461bcd60e51b8152600401808060200182810382526022815260200180612cd46022913960400191505060405180910390fd5b826000018281548110611b9357fe5b9060005260206000200154905092915050565b600090815260036020526040902054151590565b60008281526001840160205260408120548281611c185760405162461bcd60e51b81526020600482018181528351602484015283519092839260449091019190850190808383600083156112a357818101518382015260200161128b565b50846000016001820381548110611c2b57fe5b9060005260206000209060020201600101549150509392505050565b600061046a8383611e6c565b60008181526001830160205260408120548015611d2d5783547fffffffffffffffffffffffffffffffffffffffffffffffffffffffffffffffff8083019190810190600090879083908110611ca457fe5b9060005260206000200154905080876000018481548110611cc157fe5b600091825260208083209091019290925582815260018981019092526040902090840190558654879080611cf157fe5b6001900381819060005260206000200160009055905586600101600087815260200190815260200160002060009055600194505050505061033f565b600091505061033f565b6000611d438383611e6c565b611d795750815460018181018455600084815260208082209093018490558454848252828601909352604090209190915561033f565b50600061033f565b600082815260018401602052604081205480611de657505060408051808201825283815260208082018481528654600181810189556000898152848120955160029093029095019182559151908201558654868452818801909252929091205561046a565b82856000016001830381548110611df957fe5b906000526020600020906002020160010181905550600091505061046a565b3b151590565b600061046a8383611e84565b600061046a83836040518060400160405280601e81526020017f536166654d6174683a207375627472616374696f6e206f766572666c6f77000081525061124f565b60009081526001919091016020526040902054151590565b60008181526001830160205260408120548015611d2d5783547fffffffffffffffffffffffffffffffffffffffffffffffffffffffffffffffff8083019190810190600090879083908110611ed557fe5b9060005260206000209060020201905080876000018481548110611ef557fe5b600091825260208083208454600290930201918255600193840154918401919091558354825289830190526040902090840190558654879080611f3457fe5b6000828152602080822060027fffffffffffffffffffffffffffffffffffffffffffffffffffffffffffffffff909401938402018281556001908101839055929093558881528982019092526040822091909155945061033f9350505050565b80356001600160a01b038116811461037b57600080fd5b600082601f830112611fbb578081fd5b8135611fce611fc982612b9d565b612b79565b818152915060208083019084810181840286018201871015611fef57600080fd5b60005b8481101561200e57813584529282019290820190600101611ff2565b505050505092915050565b600082601f830112612029578081fd5b813567ffffffffffffffff81111561203d57fe5b61206e60207fffffffffffffffffffffffffffffffffffffffffffffffffffffffffffffffe0601f84011601612b79565b915080825283602082850101111561208557600080fd5b8060208401602084013760009082016020015292915050565b6000602082840312156120af578081fd5b61046a82611f94565b600080604083850312156120ca578081fd5b6120d383611f94565b91506120e160208401611f94565b90509250929050565b600080600080600060a08688031215612101578081fd5b61210a86611f94565b945061211860208701611f94565b9350604086013567ffffffffffffffff80821115612134578283fd5b61214089838a01611fab565b94506060880135915080821115612155578283fd5b61216189838a01611fab565b93506080880135915080821115612176578283fd5b5061218388828901612019565b9150509295509295909350565b600080600080600060a086880312156121a7578081fd5b6121b086611f94565b94506121be60208701611f94565b93506040860135925060608601359150608086013567ffffffffffffffff8111156121e7578182fd5b61218388828901612019565b600080600060608486031215612207578283fd5b61221084611f94565b9250602084013567ffffffffffffffff8082111561222c578384fd5b61223887838801611fab565b9350604086013591508082111561224d578283fd5b5061225a86828701611fab565b9150509250925092565b60008060008060808587031215612279578384fd5b61228285611f94565b9350602085013567ffffffffffffffff8082111561229e578485fd5b6122aa88838901611fab565b945060408701359150808211156122bf578384fd5b6122cb88838901611fab565b935060608701359150808211156122e0578283fd5b506122ed87828801612019565b91505092959194509250565b6000806040838503121561230b578182fd5b61231483611f94565b915060208301358015158114612328578182fd5b809150509250929050565b60008060408385031215612345578182fd5b61234e83611f94565b946020939093013593505050565b600080600060608486031215612370578283fd5b61237984611f94565b95602085013595506040909401359392505050565b600080600080608085870312156123a3578384fd5b6123ac85611f94565b93506020850135925060408501359150606085013567ffffffffffffffff8111156123d5578182fd5b6122ed87828801612019565b600080604083850312156123f3578182fd5b823567ffffffffffffffff8082111561240a578384fd5b818501915085601f83011261241d578384fd5b813561242b611fc982612b9d565b80828252602080830192508086018a82838702890101111561244b578889fd5b8896505b848710156124745761246081611f94565b84526001969096019592810192810161244f565b50909650870135935050508082111561248b578283fd5b5061249885828601611fab565b9150509250929050565b6000602082840312156124b3578081fd5b813561046a81612ca2565b6000602082840312156124cf578081fd5b815161046a81612ca2565b6000602082840312156124eb578081fd5b5035919050565b6000815180845260208085019450808401835b8381101561252157815187529582019590820190600101612505565b509495945050505050565b60008151808452815b8181101561255157602081850181015186830182015201612535565b818111156125625782602083870101525b50601f017fffffffffffffffffffffffffffffffffffffffffffffffffffffffffffffffe0169290920160200192915050565b6001600160a01b0391909116815260200190565b60006001600160a01b03808816835280871660208401525060a060408301526125d560a08301866124f2565b82810360608401526125e781866124f2565b905082810360808401526125fb818561252c565b98975050505050505050565b60006001600160a01b03808816835280871660208401525084604083015283606083015260a0608083015261263f60a083018461252c565b979650505050505050565b60006020825261046a60208301846124f2565b60006040825261267060408301856124f2565b828103602084015261268281856124f2565b95945050505050565b901515815260200190565b60006020825261046a602083018461252c565b60208082526034908201527f455243313135353a207472616e7366657220746f206e6f6e204552433131353560408201527f526563656976657220696d706c656d656e746572000000000000000000000000606082015260800190565b60208082526028908201527f455243313135353a204552433131353552656365697665722072656a6563746560408201527f6420746f6b656e73000000000000000000000000000000000000000000000000606082015260800190565b6020808252602b908201527f455243313135353a2062616c616e636520717565727920666f7220746865207a60408201527f65726f2061646472657373000000000000000000000000000000000000000000606082015260800190565b60208082526031908201527f455243313135353a2062617463682062616c616e636520717565727920666f7260408201527f20746865207a65726f2061646472657373000000000000000000000000000000606082015260800190565b60208082526029908201527f455243313135353a2063616c6c6572206973206e6f74206f776e6572206e6f7260408201527f20617070726f7665640000000000000000000000000000000000000000000000606082015260800190565b60208082526025908201527f455243313135353a207472616e7366657220746f20746865207a65726f20616460408201527f6472657373000000000000000000000000000000000000000000000000000000606082015260800190565b60208082526032908201527f455243313135353a207472616e736665722063616c6c6572206973206e6f742060408201527f6f776e6572206e6f7220617070726f7665640000000000000000000000000000606082015260800190565b60208082526023908201527f455243313135353a206275726e2066726f6d20746865207a65726f206164647260408201527f6573730000000000000000000000000000000000000000000000000000000000606082015260800190565b60208082526021908201527f455243313135353a204e465420746f6b656e20616c7265616479206d696e746560408201527f6400000000000000000000000000000000000000000000000000000000000000606082015260800190565b60208082526029908201527f455243313135353a2073657474696e6720617070726f76616c2073746174757360408201527f20666f722073656c660000000000000000000000000000000000000000000000606082015260800190565b60208082526029908201527f455243313135353a206163636f756e747320616e6420696473206c656e67746860408201527f206d69736d617463680000000000000000000000000000000000000000000000606082015260800190565b60208082526028908201527f455243313135353a2069647320616e6420616d6f756e7473206c656e6774682060408201527f6d69736d61746368000000000000000000000000000000000000000000000000606082015260800190565b60208082526021908201527f455243313135353a206d696e7420746f20746865207a65726f2061646472657360408201527f7300000000000000000000000000000000000000000000000000000000000000606082015260800190565b90815260200190565b918252602082015260400190565b60405181810167ffffffffffffffff81118282101715612b9557fe5b604052919050565b600067ffffffffffffffff821115612bb157fe5b5060209081020190565b60e01c90565b600060443d1015612bd157610445565b600481823e6308c379a0612be58251612bbb565b14612bef57610445565b6040517ffffffffffffffffffffffffffffffffffffffffffffffffffffffffffffffffc3d016004823e80513d67ffffffffffffffff8160248401118184111715612c3d5750505050610445565b82840192508251915080821115612c575750505050610445565b503d83016020828401011115612c6f57505050610445565b601f017fffffffffffffffffffffffffffffffffffffffffffffffffffffffffffffffe016810160200160405291505090565b7fffffffff0000000000000000000000000000000000000000000000000000000081168114612cd057600080fd5b5056fe456e756d657261626c655365743a20696e646578206f7574206f6620626f756e64734f776e61626c653a206e6577206f776e657220697320746865207a65726f2061646472657373455243313135353a206275726e20616d6f756e7420657863656564732062616c616e6365455243313135353a206f776e657220717565727920666f72206e6f6e6578697374656e7420746f6b656e455243313135353a20696e73756666696369656e742062616c616e636520666f72207472616e73666572a2646970667358221220d850b4312276257d2a4d062bd988e1bd85039d6692f722801cd7bf5414930a4e64736f6c63430007040033",
  "immutableReferences": {},
  "source": "// SPDX-License-Identifier: MIT\npragma solidity ^0.7.4;\npragma experimental ABIEncoderV2;\n\nimport \"@openzeppelin/contracts/access/Ownable.sol\";\nimport \"@openzeppelin/contracts/token/ERC20/ERC20.sol\";\nimport \"@openzeppelin/contracts/math/SafeMath.sol\";\nimport \"@openzeppelin/contracts/math/Math.sol\";\n\nimport \"./interfaces/IPolicyBook.sol\";\nimport \"./interfaces/IPolicyBookFabric.sol\";\n\nimport \"./ContractsRegistry.sol\";\n\nimport \"./tokens/ERC1155MintableBurnable.sol\";\n\ncontract PolicyBook is IPolicyBook, ERC20, Ownable {\n  using SafeMath for uint256;\n  using Math for uint256;  \n\n  uint256 constant private MAX_INT = 2**256 - 1;\n\n  ContractsRegistry public contractsRegistry;\n\n  ERC1155MintableBurnable public stakingTokens;\n\n  address public override insuranceContractAddress;\n  IPolicyBookFabric.ContractType public override contractType;\n  \n  IERC20 public daiToken;\n  address public bmiDaiStakingAddress;\n\n  uint256 public totalLiquidity;\n  uint256 public totalCoverTokens;\n\n  struct PolicyHolder {\n    uint256 coverTokens;\n    uint256 durationSeconds;    \n  }\n\n  mapping(address => PolicyHolder) public policyHolders;\n\n  event AddLiquidity(address _liquidityHolder, uint256 _liqudityAmount, uint256 _newTotalLiquidity);\n  event WithdrawLiquidity(address _liquidityHolder, uint256 _tokensToWithdraw, uint256 _newTotalLiquidity);\n  event BuyPolicy(address _policyHolder, uint256 _coverTokens, uint256 _price, uint256 _newTotalCoverTokens);\n\n  constructor(    \n    address _insuranceContract,\n    IPolicyBookFabric.ContractType _contractType,    \n    string memory _description,\n    string memory _projectSymbol\n  ) ERC20(_description, string(abi.encodePacked(\"bmiDAI\", _projectSymbol))) {    \n    insuranceContractAddress = _insuranceContract;\n    contractType = _contractType;    \n\n    stakingTokens = new ERC1155MintableBurnable(\"\"); \n  }\n\n  function initRegistry(ContractsRegistry _contractsRegistry) external onlyOwner {\n    contractsRegistry = _contractsRegistry;\n    \n    daiToken = IERC20(_contractsRegistry.getContract(_contractsRegistry.getDAIName()));\n    bmiDaiStakingAddress = contractsRegistry.getContract(contractsRegistry.getBmiDAIStakingName());    \n  }\n\n  function transferNFTMintingAndBurningOwnershipToStaking() external onlyOwner {\n    stakingTokens.transferOwnership(bmiDaiStakingAddress);\n  }\n\n  function approveAllDaiTokensForStaking() external onlyOwner {\n    \n    bool _success = daiToken.approve(bmiDaiStakingAddress, MAX_INT);\n\n    require(_success, \"Failed to approve DAI tokens\");\n  }\n\n  receive() external payable {}\n\n  function quoteStrategy() external view override returns (address _quoteStrategy) {\n    return address(0);\n  }\n\n  function shieldAssets(uint256 _offset, uint256 _limit)\n    external\n    view\n    override\n    returns (uint256 _shieldAssetsCount, address[] memory _shieldAssets)\n  {\n    address[] memory temp;\n    return (0, temp);\n  }\n\n  function shieldAssetsWithBalance(uint256 _offset, uint256 _limit)\n    external\n    view\n    override\n    returns (\n      uint256 _shieldAssetsCount,\n      address[] memory _shieldAssets,\n      uint256[] memory _shieldAssetBalance\n    )\n  {\n    address[] memory temp1;\n    uint256[] memory temp2;\n    return (0, temp1, temp2);\n  }\n\n  function shieldAssetsCount() external view override returns (uint256 _shieldAssetsCount) {\n    return 0;\n  }\n\n  function addShieldTokens(address _tokenAddress, uint256 _tokensAmount) external override returns (bool _success) {\n    return false;\n  }\n\n  function buyPolicy(\n    uint256 _durationSeconds,\n    uint256 _coverTokens   \n  ) external override {\n    _buyPolicyFor(msg.sender, _durationSeconds, _coverTokens);\n  }\n\n  function buyPolicyFor(\n    address _policyHolderAddr,\n    uint256 _durationSeconds,\n    uint256 _coverTokens    \n  ) external override {\n    _buyPolicyFor(_policyHolderAddr, _durationSeconds, _coverTokens);\n  }\n\n  function _buyPolicyFor(\n    address _policyHolderAddr,\n    uint256 _durationSeconds,\n    uint256 _coverTokens\n  ) internal {\n    PolicyHolder memory _policyHolder = policyHolders[_policyHolderAddr];\n    require(_policyHolder.durationSeconds == 0, \"The policy holder already exists\");\n    require(totalLiquidity >= totalCoverTokens.add(_coverTokens), \"Not enough available liquidity\");\n\n    uint256 _price = _getQuote(_durationSeconds, _coverTokens);\n\n    _policyHolder.coverTokens = _coverTokens;\n    _policyHolder.durationSeconds = _durationSeconds;    \n\n    policyHolders[_policyHolderAddr] = _policyHolder;\n    totalCoverTokens = totalCoverTokens.add(_coverTokens);\n\n    bool _success = daiToken.transferFrom(_policyHolderAddr, address(this), _price);\n    require(_success, \"Failed to transfer DAI tokens\");\n\n    emit BuyPolicy(_policyHolderAddr, _coverTokens, _price, totalCoverTokens);\n  }\n\n  function addLiquidity(uint256 _liqudityAmount) external override {\n    _addLiquidityFor(msg.sender, _liqudityAmount);\n  }\n\n  function addLiquidityFor(address _liquidityHolderAddr, uint256 _liqudityAmount) external override {\n    _addLiquidityFor(_liquidityHolderAddr, _liqudityAmount);\n  }\n\n  function _addLiquidityFor(address _liquidityHolderAddr, uint256 _liqudityAmount) internal {\n    bool _success = daiToken.transferFrom(_liquidityHolderAddr, address(this), _liqudityAmount);\n    require(_success, \"Failed to transfer DAI tokens\");\n\n    totalLiquidity = totalLiquidity.add(_liqudityAmount);\n    _mint(_liquidityHolderAddr, _liqudityAmount);\n\n    emit AddLiquidity(_liquidityHolderAddr, _liqudityAmount, totalLiquidity);\n  }\n\n  function withdrawLiquidity(uint256 _tokensToWithdraw) external override {\n    require(\n      balanceOf(msg.sender) >= _tokensToWithdraw,\n      \"The amount to be withdrawn is greater than the deposited amount\"\n    );\n    require(totalLiquidity.sub(_tokensToWithdraw) >= totalCoverTokens, \"Not enough available liquidity\");\n\n    bool _success = daiToken.transfer(msg.sender, _tokensToWithdraw);\n    require(_success, \"Failed to transfer DAI tokens\");\n\n    totalLiquidity = totalLiquidity.sub(_tokensToWithdraw);\n    _burn(msg.sender, _tokensToWithdraw);\n\n    emit WithdrawLiquidity(msg.sender, _tokensToWithdraw, totalLiquidity);\n  }\n\n  function _calculateInterest(address _policyHolder) internal view returns (uint256) {\n    return 0;\n  }\n\n  function rewardForUnclaimedExpiredPolicy(uint256 _policyId) external override {}\n\n  function stats()\n    external\n    view\n    override\n    returns (\n      string memory _name,\n      IPolicyBookFabric.ContractType _contractType,\n      uint256 _maxCapacities,\n      uint256 _totalDaiLiquidity,\n      uint256 _annualProfitYields\n    )\n  {\n    // TODO APY\n    return (name(), contractType, totalLiquidity - totalCoverTokens, totalLiquidity, 0);\n  }\n\n  uint256 public constant SECONDS_IN_THE_YEAR = 365 * 24 * 60 * 60; // 365 days * 24 hours * 60 minutes * 60 seconds\n  uint256 public constant PRECISION = 10**25;\n  uint256 public constant PERCENTAGE_100 = 100 * PRECISION;\n\n  uint256 public constant MINIMUM_COST_PERCENTAGE = 5 * PRECISION;\n  uint256 public constant RISKY_ASSET_THRESHOLD_PERCENTAGE = 70 * PRECISION;\n  uint256 public constant MAXIMUM_COST_NOT_RISKY_PERCENTAGE = 30 * PRECISION;\n  uint256 public constant MAXIMUM_COST_100_UTILIZATION_PERCENTAGE = 150 * PRECISION;\n\n  function calculateWhenNotRisky(uint256 _utilizationRatioPercentage) private pure returns (uint256) {\n    return (_utilizationRatioPercentage.mul(MAXIMUM_COST_NOT_RISKY_PERCENTAGE)).div(RISKY_ASSET_THRESHOLD_PERCENTAGE);\n  }\n\n  function calculateWhenIsRisky(uint256 _utilizationRatioPercentage) private pure returns (uint256) {\n    uint256 riskyRelation =\n      (PRECISION.mul(_utilizationRatioPercentage.sub(RISKY_ASSET_THRESHOLD_PERCENTAGE))).div(\n        (PERCENTAGE_100.sub(RISKY_ASSET_THRESHOLD_PERCENTAGE))\n      );\n\n    return\n      MAXIMUM_COST_NOT_RISKY_PERCENTAGE.add(\n        (riskyRelation.mul(MAXIMUM_COST_100_UTILIZATION_PERCENTAGE.sub(MAXIMUM_COST_NOT_RISKY_PERCENTAGE))).div(\n          PRECISION\n        )\n      );\n  }\n\n  function getQuote(uint256 _durationSeconds, uint256 _tokens) external view override returns (uint256 _daiTokens) {\n    _daiTokens = _getQuote(_durationSeconds, _tokens);\n  }\n\n  function _getQuote(uint256 _durationSeconds, uint256 _tokens) internal view returns (uint256) {\n    require(totalCoverTokens.add(_tokens) <= totalLiquidity, \"Requiring more than there exists\");\n    require(totalLiquidity > 0, \"The pool is empty\");\n\n    uint256 utilizationRatioPercentage = ((totalCoverTokens.add(_tokens)).mul(PERCENTAGE_100)).div(totalLiquidity);\n\n    uint256 annualInsuranceCostPercentage;\n\n    if (utilizationRatioPercentage < RISKY_ASSET_THRESHOLD_PERCENTAGE) {\n      annualInsuranceCostPercentage = calculateWhenNotRisky(utilizationRatioPercentage);\n    } else {\n      annualInsuranceCostPercentage = calculateWhenIsRisky(utilizationRatioPercentage);\n    }\n\n    annualInsuranceCostPercentage = Math.max(annualInsuranceCostPercentage, MINIMUM_COST_PERCENTAGE);\n\n    uint256 actualInsuranceCostPercentage = \n      (_durationSeconds.mul(annualInsuranceCostPercentage)).div(SECONDS_IN_THE_YEAR);\n\n    return (_tokens.mul(actualInsuranceCostPercentage)).div(PERCENTAGE_100);\n  }\n}\n",
  "sourcePath": "/home/artem/Projects/Distributed_Lab/Applicature/bridgemutual-core/contracts/PolicyBook.sol",
  "compiler": {
    "name": "solc",
    "version": "0.7.4+commit.3f05b770.Emscripten.clang"
  },
  "schemaVersion": "3.3.3",
  "updatedAt": "2021-01-25T18:13:51.809Z",
  "devdoc": {
    "kind": "dev",
    "methods": {
      "addLiquidity(uint256)": {
        "params": {
          "_liqudityAmount": "is amount of DAI tokens to secure"
        }
      },
      "addLiquidityFor(address,uint256)": {
        "params": {
          "_liqudityAmount": "is amount of DAI tokens to secure",
          "_liquidityHolderAddr": "is address of address to assign cover"
        }
      },
      "addShieldTokens(address,uint256)": {
        "params": {
          "_tokenAddress": "is address of reward token to add",
          "_tokensAmount": "is max amount of reward to operate on"
        },
        "returns": {
          "_success": "is indicator if purchase is successful, it will throw exception if unsuccessful"
        }
      },
      "allowance(address,address)": {
        "details": "See {IERC20-allowance}."
      },
      "approve(address,uint256)": {
        "details": "See {IERC20-approve}. Requirements: - `spender` cannot be the zero address."
      },
      "balanceOf(address)": {
        "details": "See {IERC20-balanceOf}."
      },
      "buyPolicy(uint256,uint256)": {
        "params": {
          "_coverTokens": "is number of tokens to cover  ",
          "_durationSeconds": "is number of seconds to cover"
        }
      },
      "buyPolicyFor(address,uint256,uint256)": {
        "params": {
          "_coverTokens": "is number of tokens to cover  ",
          "_durationSeconds": "is number of seconds to cover",
          "_policyHolderAddr": "is address of address to assign cover"
        }
      },
      "decimals()": {
        "details": "Returns the number of decimals used to get its user representation. For example, if `decimals` equals `2`, a balance of `505` tokens should be displayed to a user as `5,05` (`505 / 10 ** 2`). Tokens usually opt for a value of 18, imitating the relationship between Ether and Wei. This is the value {ERC20} uses, unless {_setupDecimals} is called. NOTE: This information is only used for _display_ purposes: it in no way affects any of the arithmetic of the contract, including {IERC20-balanceOf} and {IERC20-transfer}."
      },
      "decreaseAllowance(address,uint256)": {
        "details": "Atomically decreases the allowance granted to `spender` by the caller. This is an alternative to {approve} that can be used as a mitigation for problems described in {IERC20-approve}. Emits an {Approval} event indicating the updated allowance. Requirements: - `spender` cannot be the zero address. - `spender` must have allowance for the caller of at least `subtractedValue`."
      },
      "getQuote(uint256,uint256)": {
        "params": {
          "_durationSeconds": "is number of seconds to cover",
          "_tokens": "is number of tokens to cover"
        },
        "returns": {
          "_daiTokens": "is amount of DAI policy costs"
        }
      },
      "increaseAllowance(address,uint256)": {
        "details": "Atomically increases the allowance granted to `spender` by the caller. This is an alternative to {approve} that can be used as a mitigation for problems described in {IERC20-approve}. Emits an {Approval} event indicating the updated allowance. Requirements: - `spender` cannot be the zero address."
      },
      "name()": {
        "details": "Returns the name of the token."
      },
      "owner()": {
        "details": "Returns the address of the current owner."
      },
      "quoteStrategy()": {
        "returns": {
          "_quoteStrategy": "is address of Quote strategy contract used to calculate quote"
        }
      },
      "renounceOwnership()": {
        "details": "Leaves the contract without owner. It will not be possible to call `onlyOwner` functions anymore. Can only be called by the current owner. NOTE: Renouncing ownership will leave the contract without an owner, thereby removing any functionality that is only available to the owner."
      },
      "rewardForUnclaimedExpiredPolicy(uint256)": {
        "params": {
          "_policyId": "is id of policy to get reward for, reward will be sent to policy holder"
        }
      },
      "shieldAssets(uint256,uint256)": {
        "params": {
          "_limit": "is number of policy books to returns from _offset",
          "_offset": "is starting item in array to return array from"
        },
        "returns": {
          "_shieldAssets": "is addresses of shield assets, that will be distributed to Policy givers",
          "_shieldAssetsCount": "is number of added shield assets"
        }
      },
      "shieldAssetsCount()": {
        "returns": {
          "_shieldAssetsCount": "is number of added shield assets"
        }
      },
      "shieldAssetsWithBalance(uint256,uint256)": {
        "params": {
          "_limit": "is number of policy books to returns from _offset",
          "_offset": "is starting item in array to return array from"
        },
        "returns": {
          "_shieldAssetBalance": "is tokens amount of shield assets allocated to Policy Book,  to get specific shield asset balance lookup _shieldAssetBalances by same index as of shield asset",
          "_shieldAssets": "is addresses of shield assets, that will be distributed to Policy givers",
          "_shieldAssetsCount": "is number of added shield assets"
        }
      },
      "stats()": {
        "returns": {
          "_annualProfitYields": "is its APY",
          "_contractType": "is a type of insured contract",
          "_maxCapacities": "is a max token amount that a user can buy",
          "_name": "is the name of PolicyBook",
          "_totalDaiLiquidity": "is PolicyBook's liquidity"
        }
      },
      "symbol()": {
        "details": "Returns the symbol of the token, usually a shorter version of the name."
      },
      "totalSupply()": {
        "details": "See {IERC20-totalSupply}."
      },
      "transfer(address,uint256)": {
        "details": "See {IERC20-transfer}. Requirements: - `recipient` cannot be the zero address. - the caller must have a balance of at least `amount`."
      },
      "transferFrom(address,address,uint256)": {
        "details": "See {IERC20-transferFrom}. Emits an {Approval} event indicating the updated allowance. This is not required by the EIP. See the note at the beginning of {ERC20}. Requirements: - `sender` and `recipient` cannot be the zero address. - `sender` must have a balance of at least `amount`. - the caller must have allowance for ``sender``'s tokens of at least `amount`."
      },
      "transferOwnership(address)": {
        "details": "Transfers ownership of the contract to a new account (`newOwner`). Can only be called by the current owner."
      },
      "withdrawLiquidity(uint256)": {
        "params": {
          "_tokensToWithdraw": "is amount of DAI tokens to withdraw"
        }
      }
    },
    "stateVariables": {
      "contractType": {
        "return": "_type is type of contract"
      },
      "insuranceContractAddress": {
        "return": "_contract is address of covered contract"
      }
    },
    "version": 1
  },
  "userdoc": {
    "kind": "user",
    "methods": {
      "addLiquidity(uint256)": {
        "notice": "Let user to add liquidity by supplying DAI, access: ANY"
      },
      "addLiquidityFor(address,uint256)": {
        "notice": "Let user to add liqiudity for another user by supplying DAI, access: ANY"
      },
      "addShieldTokens(address,uint256)": {
        "notice": "Adds shield tokens to contract, access: ANY"
      },
      "buyPolicy(uint256,uint256)": {
        "notice": "Let user to buy policy by supplying DAI, access: ANY"
      },
      "buyPolicyFor(address,uint256,uint256)": {
        "notice": "Let user to buy policy for another user by supplying DAI, access: ANY"
      },
      "contractType()": {
        "notice": "Returns type of contract this PolicyBook covers, access: ANY"
      },
      "getQuote(uint256,uint256)": {
        "notice": "Let user to calculate policy cost in DAI, access: ANY"
      },
      "insuranceContractAddress()": {
        "notice": "Returns address of contract this PolicyBook covers, access: ANY"
      },
      "quoteStrategy()": {
        "notice": "Returns quote strategy defined during creation of PolicyBook, access: ANY"
      },
      "rewardForUnclaimedExpiredPolicy(uint256)": {
        "notice": "Let user to claim rewards for unclaimed policy cost in DAI, access: ANY"
      },
      "shieldAssets(uint256,uint256)": {
        "notice": "Returns list of shield assets added to PolicyBook, access: ANY"
      },
      "shieldAssetsCount()": {
        "notice": "Returns number of shield assets added, access: ANY"
      },
      "shieldAssetsWithBalance(uint256,uint256)": {
        "notice": "Returns list of shield assets added with tokens amount allocated to Policy Book, access: ANY"
      },
      "stats()": {
        "notice": "Getting stats, access: ANY"
      },
      "withdrawLiquidity(uint256)": {
        "notice": "Let user to withdraw deposited liqiudity, access: ANY"
      }
    },
    "version": 1
  }
}